{
	"remix/contracts/Label.sol": {
		"Label": {
			"abi": [
				{
					"inputs": [
						{
							"internalType": "string",
							"name": "_name",
							"type": "string"
						},
						{
							"internalType": "string",
							"name": "_imageCid",
							"type": "string"
						},
						{
							"internalType": "address",
							"name": "_owner",
							"type": "address"
						}
					],
					"stateMutability": "nonpayable",
					"type": "constructor"
				},
				{
					"inputs": [
						{
							"internalType": "enum relation",
							"name": "r",
							"type": "uint8"
						}
					],
					"name": "Accept_Candidate",
					"outputs": [],
					"stateMutability": "nonpayable",
					"type": "function"
				},
				{
					"inputs": [
						{
							"internalType": "address",
							"name": "addr",
							"type": "address"
						},
						{
							"internalType": "enum relation",
							"name": "r",
							"type": "uint8"
						}
					],
					"name": "Add_Candidate",
					"outputs": [],
					"stateMutability": "nonpayable",
					"type": "function"
				},
				{
					"inputs": [
						{
							"internalType": "address",
							"name": "",
							"type": "address"
						}
					],
					"name": "Candidates",
					"outputs": [
						{
							"internalType": "enum relation",
							"name": "",
							"type": "uint8"
						}
					],
					"stateMutability": "view",
					"type": "function"
				},
				{
					"inputs": [
						{
							"internalType": "address",
							"name": "newOwner",
							"type": "address"
						}
					],
					"name": "ChangeOwnership",
					"outputs": [],
					"stateMutability": "nonpayable",
					"type": "function"
				},
				{
					"inputs": [
						{
							"internalType": "enum relation",
							"name": "r",
							"type": "uint8"
						},
						{
							"internalType": "uint256",
							"name": "index",
							"type": "uint256"
						}
					],
					"name": "Delete_Id",
					"outputs": [],
					"stateMutability": "nonpayable",
					"type": "function"
				},
				{
					"inputs": [
						{
							"internalType": "address",
							"name": "Address",
							"type": "address"
						},
						{
							"internalType": "enum relation",
							"name": "r",
							"type": "uint8"
						}
					],
					"name": "Do_Handshake",
					"outputs": [
						{
							"internalType": "bool",
							"name": "",
							"type": "bool"
						}
					],
					"stateMutability": "nonpayable",
					"type": "function"
				},
				{
					"inputs": [
						{
							"internalType": "enum relation",
							"name": "r",
							"type": "uint8"
						}
					],
					"name": "Get_Ids",
					"outputs": [
						{
							"internalType": "address[]",
							"name": "",
							"type": "address[]"
						}
					],
					"stateMutability": "view",
					"type": "function"
				},
				{
					"inputs": [],
					"name": "Get_ImageCid",
					"outputs": [
						{
							"internalType": "string",
							"name": "",
							"type": "string"
						}
					],
					"stateMutability": "view",
					"type": "function"
				},
				{
					"inputs": [],
					"name": "Get_IpfsAddress",
					"outputs": [
						{
							"internalType": "string",
							"name": "",
							"type": "string"
						}
					],
					"stateMutability": "view",
					"type": "function"
				},
				{
					"inputs": [],
					"name": "Get_Name",
					"outputs": [
						{
							"internalType": "string",
							"name": "",
							"type": "string"
						}
					],
					"stateMutability": "view",
					"type": "function"
				},
				{
					"inputs": [],
					"name": "Get_Owner",
					"outputs": [
						{
							"internalType": "address",
							"name": "owner",
							"type": "address"
						}
					],
					"stateMutability": "view",
					"type": "function"
				},
				{
					"inputs": [],
					"name": "Get_ProductIds",
					"outputs": [
						{
							"internalType": "address[]",
							"name": "",
							"type": "address[]"
						}
					],
					"stateMutability": "view",
					"type": "function"
				},
				{
					"inputs": [
						{
							"internalType": "address",
							"name": "candidateAddress",
							"type": "address"
						},
						{
							"internalType": "enum relation",
							"name": "r",
							"type": "uint8"
						}
					],
					"name": "Has_Candidate",
					"outputs": [
						{
							"internalType": "bool",
							"name": "",
							"type": "bool"
						}
					],
					"stateMutability": "view",
					"type": "function"
				},
				{
					"inputs": [
						{
							"internalType": "enum relation",
							"name": "",
							"type": "uint8"
						},
						{
							"internalType": "uint256",
							"name": "",
							"type": "uint256"
						}
					],
					"name": "Ids",
					"outputs": [
						{
							"internalType": "address",
							"name": "",
							"type": "address"
						}
					],
					"stateMutability": "view",
					"type": "function"
				},
				{
					"inputs": [
						{
							"internalType": "string",
							"name": "_ipfsAddress",
							"type": "string"
						}
					],
					"name": "Set_IPFS",
					"outputs": [],
					"stateMutability": "nonpayable",
					"type": "function"
				},
				{
					"inputs": [],
					"name": "owner",
					"outputs": [
						{
							"internalType": "address",
							"name": "",
							"type": "address"
						}
					],
					"stateMutability": "view",
					"type": "function"
				},
				{
					"inputs": [
						{
							"internalType": "enum relation",
							"name": "r",
							"type": "uint8"
						}
					],
					"name": "reverseRelation",
					"outputs": [
						{
							"internalType": "enum relation",
							"name": "",
							"type": "uint8"
						}
					],
					"stateMutability": "pure",
					"type": "function"
				}
			],
			"devdoc": {
				"kind": "dev",
				"methods": {},
				"version": 1
			},
			"evm": {
				"assembly": "    /* \"remix/contracts/Label.sol\":90:966  contract Label is Handshaker{... */\n  mstore(0x40, 0x80)\n    /* \"remix/contracts/Label.sol\":239:424  constructor(string memory _name, string memory _imageCid, address _owner) {... */\n  callvalue\n  dup1\n  iszero\n  tag_1\n  jumpi\n  0x00\n  dup1\n  revert\ntag_1:\n  pop\n  mload(0x40)\n  sub(codesize, bytecodeSize)\n  dup1\n  bytecodeSize\n  dup4\n  codecopy\n  dup2\n  dup2\n  add\n  0x40\n  mstore\n  dup2\n  add\n  swap1\n  tag_2\n  swap2\n  swap1\n  tag_3\n  jump\t// in\ntag_2:\n    /* \"remix/contracts/Ownable.sol\":159:169  msg.sender */\n  caller\n    /* \"remix/contracts/Ownable.sol\":151:156  owner */\n  0x00\n  dup1\n    /* \"remix/contracts/Ownable.sol\":151:169  owner = msg.sender */\n  0x0100\n  exp\n  dup2\n  sload\n  dup2\n  0xffffffffffffffffffffffffffffffffffffffff\n  mul\n  not\n  and\n  swap1\n  dup4\n  0xffffffffffffffffffffffffffffffffffffffff\n  and\n  mul\n  or\n  swap1\n  sstore\n  pop\n    /* \"remix/contracts/Label.sol\":332:338  _owner */\n  dup1\n    /* \"remix/contracts/Label.sol\":324:329  Owner */\n  0x01\n  0x00\n    /* \"remix/contracts/Label.sol\":324:338  Owner = _owner */\n  0x0100\n  exp\n  dup2\n  sload\n  dup2\n  0xffffffffffffffffffffffffffffffffffffffff\n  mul\n  not\n  and\n  swap1\n  dup4\n  0xffffffffffffffffffffffffffffffffffffffff\n  and\n  mul\n  or\n  swap1\n  sstore\n  pop\n    /* \"remix/contracts/Label.sol\":356:361  _name */\n  dup3\n    /* \"remix/contracts/Label.sol\":349:353  Name */\n  0x05\n    /* \"remix/contracts/Label.sol\":349:361  Name = _name */\n  swap1\n  dup2\n  tag_8\n  swap2\n  swap1\n  tag_9\n  jump\t// in\ntag_8:\n  pop\n    /* \"remix/contracts/Label.sol\":383:392  _imageCid */\n  dup2\n    /* \"remix/contracts/Label.sol\":372:380  ImageCid */\n  0x07\n    /* \"remix/contracts/Label.sol\":372:392  ImageCid = _imageCid */\n  swap1\n  dup2\n  tag_10\n  swap2\n  swap1\n  tag_9\n  jump\t// in\ntag_10:\n  pop\n    /* \"remix/contracts/Label.sol\":412:416  true */\n  0x01\n    /* \"remix/contracts/Label.sol\":403:410  IsValue */\n  0x04\n  0x00\n    /* \"remix/contracts/Label.sol\":403:416  IsValue= true */\n  0x0100\n  exp\n  dup2\n  sload\n  dup2\n  0xff\n  mul\n  not\n  and\n  swap1\n  dup4\n  iszero\n  iszero\n  mul\n  or\n  swap1\n  sstore\n  pop\n    /* \"remix/contracts/Label.sol\":239:424  constructor(string memory _name, string memory _imageCid, address _owner) {... */\n  pop\n  pop\n  pop\n    /* \"remix/contracts/Label.sol\":90:966  contract Label is Handshaker{... */\n  jump(tag_11)\n    /* \"#utility.yul\":7:82   */\ntag_12:\n    /* \"#utility.yul\":40:46   */\n  0x00\n    /* \"#utility.yul\":73:75   */\n  0x40\n    /* \"#utility.yul\":67:76   */\n  mload\n    /* \"#utility.yul\":57:76   */\n  swap1\n  pop\n    /* \"#utility.yul\":7:82   */\n  swap1\n  jump\t// out\n    /* \"#utility.yul\":88:205   */\ntag_13:\n    /* \"#utility.yul\":197:198   */\n  0x00\n    /* \"#utility.yul\":194:195   */\n  dup1\n    /* \"#utility.yul\":187:199   */\n  revert\n    /* \"#utility.yul\":211:328   */\ntag_14:\n    /* \"#utility.yul\":320:321   */\n  0x00\n    /* \"#utility.yul\":317:318   */\n  dup1\n    /* \"#utility.yul\":310:322   */\n  revert\n    /* \"#utility.yul\":334:451   */\ntag_15:\n    /* \"#utility.yul\":443:444   */\n  0x00\n    /* \"#utility.yul\":440:441   */\n  dup1\n    /* \"#utility.yul\":433:445   */\n  revert\n    /* \"#utility.yul\":457:574   */\ntag_16:\n    /* \"#utility.yul\":566:567   */\n  0x00\n    /* \"#utility.yul\":563:564   */\n  dup1\n    /* \"#utility.yul\":556:568   */\n  revert\n    /* \"#utility.yul\":580:682   */\ntag_17:\n    /* \"#utility.yul\":621:627   */\n  0x00\n    /* \"#utility.yul\":672:674   */\n  0x1f\n    /* \"#utility.yul\":668:675   */\n  not\n    /* \"#utility.yul\":663:665   */\n  0x1f\n    /* \"#utility.yul\":656:661   */\n  dup4\n    /* \"#utility.yul\":652:666   */\n  add\n    /* \"#utility.yul\":648:676   */\n  and\n    /* \"#utility.yul\":638:676   */\n  swap1\n  pop\n    /* \"#utility.yul\":580:682   */\n  swap2\n  swap1\n  pop\n  jump\t// out\n    /* \"#utility.yul\":688:868   */\ntag_18:\n    /* \"#utility.yul\":736:813   */\n  0x4e487b7100000000000000000000000000000000000000000000000000000000\n    /* \"#utility.yul\":733:734   */\n  0x00\n    /* \"#utility.yul\":726:814   */\n  mstore\n    /* \"#utility.yul\":833:837   */\n  0x41\n    /* \"#utility.yul\":830:831   */\n  0x04\n    /* \"#utility.yul\":823:838   */\n  mstore\n    /* \"#utility.yul\":857:861   */\n  0x24\n    /* \"#utility.yul\":854:855   */\n  0x00\n    /* \"#utility.yul\":847:862   */\n  revert\n    /* \"#utility.yul\":874:1155   */\ntag_19:\n    /* \"#utility.yul\":957:984   */\n  tag_57\n    /* \"#utility.yul\":979:983   */\n  dup3\n    /* \"#utility.yul\":957:984   */\n  tag_17\n  jump\t// in\ntag_57:\n    /* \"#utility.yul\":949:955   */\n  dup2\n    /* \"#utility.yul\":945:985   */\n  add\n    /* \"#utility.yul\":1087:1093   */\n  dup2\n    /* \"#utility.yul\":1075:1085   */\n  dup2\n    /* \"#utility.yul\":1072:1094   */\n  lt\n    /* \"#utility.yul\":1051:1069   */\n  0xffffffffffffffff\n    /* \"#utility.yul\":1039:1049   */\n  dup3\n    /* \"#utility.yul\":1036:1070   */\n  gt\n    /* \"#utility.yul\":1033:1095   */\n  or\n    /* \"#utility.yul\":1030:1118   */\n  iszero\n  tag_58\n  jumpi\n    /* \"#utility.yul\":1098:1116   */\n  tag_59\n  tag_18\n  jump\t// in\ntag_59:\n    /* \"#utility.yul\":1030:1118   */\ntag_58:\n    /* \"#utility.yul\":1138:1148   */\n  dup1\n    /* \"#utility.yul\":1134:1136   */\n  0x40\n    /* \"#utility.yul\":1127:1149   */\n  mstore\n    /* \"#utility.yul\":917:1155   */\n  pop\n    /* \"#utility.yul\":874:1155   */\n  pop\n  pop\n  jump\t// out\n    /* \"#utility.yul\":1161:1290   */\ntag_20:\n    /* \"#utility.yul\":1195:1201   */\n  0x00\n    /* \"#utility.yul\":1222:1242   */\n  tag_61\n  tag_12\n  jump\t// in\ntag_61:\n    /* \"#utility.yul\":1212:1242   */\n  swap1\n  pop\n    /* \"#utility.yul\":1251:1284   */\n  tag_62\n    /* \"#utility.yul\":1279:1283   */\n  dup3\n    /* \"#utility.yul\":1271:1277   */\n  dup3\n    /* \"#utility.yul\":1251:1284   */\n  tag_19\n  jump\t// in\ntag_62:\n    /* \"#utility.yul\":1161:1290   */\n  swap2\n  swap1\n  pop\n  jump\t// out\n    /* \"#utility.yul\":1296:1604   */\ntag_21:\n    /* \"#utility.yul\":1358:1362   */\n  0x00\n    /* \"#utility.yul\":1448:1466   */\n  0xffffffffffffffff\n    /* \"#utility.yul\":1440:1446   */\n  dup3\n    /* \"#utility.yul\":1437:1467   */\n  gt\n    /* \"#utility.yul\":1434:1490   */\n  iszero\n  tag_64\n  jumpi\n    /* \"#utility.yul\":1470:1488   */\n  tag_65\n  tag_18\n  jump\t// in\ntag_65:\n    /* \"#utility.yul\":1434:1490   */\ntag_64:\n    /* \"#utility.yul\":1508:1537   */\n  tag_66\n    /* \"#utility.yul\":1530:1536   */\n  dup3\n    /* \"#utility.yul\":1508:1537   */\n  tag_17\n  jump\t// in\ntag_66:\n    /* \"#utility.yul\":1500:1537   */\n  swap1\n  pop\n    /* \"#utility.yul\":1592:1596   */\n  0x20\n    /* \"#utility.yul\":1586:1590   */\n  dup2\n    /* \"#utility.yul\":1582:1597   */\n  add\n    /* \"#utility.yul\":1574:1597   */\n  swap1\n  pop\n    /* \"#utility.yul\":1296:1604   */\n  swap2\n  swap1\n  pop\n  jump\t// out\n    /* \"#utility.yul\":1610:1856   */\ntag_22:\n    /* \"#utility.yul\":1691:1692   */\n  0x00\n    /* \"#utility.yul\":1701:1814   */\ntag_68:\n    /* \"#utility.yul\":1715:1721   */\n  dup4\n    /* \"#utility.yul\":1712:1713   */\n  dup2\n    /* \"#utility.yul\":1709:1722   */\n  lt\n    /* \"#utility.yul\":1701:1814   */\n  iszero\n  tag_70\n  jumpi\n    /* \"#utility.yul\":1800:1801   */\n  dup1\n    /* \"#utility.yul\":1795:1798   */\n  dup3\n    /* \"#utility.yul\":1791:1802   */\n  add\n    /* \"#utility.yul\":1785:1803   */\n  mload\n    /* \"#utility.yul\":1781:1782   */\n  dup2\n    /* \"#utility.yul\":1776:1779   */\n  dup5\n    /* \"#utility.yul\":1772:1783   */\n  add\n    /* \"#utility.yul\":1765:1804   */\n  mstore\n    /* \"#utility.yul\":1737:1739   */\n  0x20\n    /* \"#utility.yul\":1734:1735   */\n  dup2\n    /* \"#utility.yul\":1730:1740   */\n  add\n    /* \"#utility.yul\":1725:1740   */\n  swap1\n  pop\n    /* \"#utility.yul\":1701:1814   */\n  jump(tag_68)\ntag_70:\n    /* \"#utility.yul\":1848:1849   */\n  0x00\n    /* \"#utility.yul\":1839:1845   */\n  dup5\n    /* \"#utility.yul\":1834:1837   */\n  dup5\n    /* \"#utility.yul\":1830:1846   */\n  add\n    /* \"#utility.yul\":1823:1850   */\n  mstore\n    /* \"#utility.yul\":1672:1856   */\n  pop\n    /* \"#utility.yul\":1610:1856   */\n  pop\n  pop\n  pop\n  jump\t// out\n    /* \"#utility.yul\":1862:2296   */\ntag_23:\n    /* \"#utility.yul\":1951:1956   */\n  0x00\n    /* \"#utility.yul\":1976:2042   */\n  tag_72\n    /* \"#utility.yul\":1992:2041   */\n  tag_73\n    /* \"#utility.yul\":2034:2040   */\n  dup5\n    /* \"#utility.yul\":1992:2041   */\n  tag_21\n  jump\t// in\ntag_73:\n    /* \"#utility.yul\":1976:2042   */\n  tag_20\n  jump\t// in\ntag_72:\n    /* \"#utility.yul\":1967:2042   */\n  swap1\n  pop\n    /* \"#utility.yul\":2065:2071   */\n  dup3\n    /* \"#utility.yul\":2058:2063   */\n  dup2\n    /* \"#utility.yul\":2051:2072   */\n  mstore\n    /* \"#utility.yul\":2103:2107   */\n  0x20\n    /* \"#utility.yul\":2096:2101   */\n  dup2\n    /* \"#utility.yul\":2092:2108   */\n  add\n    /* \"#utility.yul\":2141:2144   */\n  dup5\n    /* \"#utility.yul\":2132:2138   */\n  dup5\n    /* \"#utility.yul\":2127:2130   */\n  dup5\n    /* \"#utility.yul\":2123:2139   */\n  add\n    /* \"#utility.yul\":2120:2145   */\n  gt\n    /* \"#utility.yul\":2117:2229   */\n  iszero\n  tag_74\n  jumpi\n    /* \"#utility.yul\":2148:2227   */\n  tag_75\n  tag_16\n  jump\t// in\ntag_75:\n    /* \"#utility.yul\":2117:2229   */\ntag_74:\n    /* \"#utility.yul\":2238:2290   */\n  tag_76\n    /* \"#utility.yul\":2283:2289   */\n  dup5\n    /* \"#utility.yul\":2278:2281   */\n  dup3\n    /* \"#utility.yul\":2273:2276   */\n  dup6\n    /* \"#utility.yul\":2238:2290   */\n  tag_22\n  jump\t// in\ntag_76:\n    /* \"#utility.yul\":1957:2296   */\n  pop\n    /* \"#utility.yul\":1862:2296   */\n  swap4\n  swap3\n  pop\n  pop\n  pop\n  jump\t// out\n    /* \"#utility.yul\":2316:2671   */\ntag_24:\n    /* \"#utility.yul\":2383:2388   */\n  0x00\n    /* \"#utility.yul\":2432:2435   */\n  dup3\n    /* \"#utility.yul\":2425:2429   */\n  0x1f\n    /* \"#utility.yul\":2417:2423   */\n  dup4\n    /* \"#utility.yul\":2413:2430   */\n  add\n    /* \"#utility.yul\":2409:2436   */\n  slt\n    /* \"#utility.yul\":2399:2521   */\n  tag_78\n  jumpi\n    /* \"#utility.yul\":2440:2519   */\n  tag_79\n  tag_15\n  jump\t// in\ntag_79:\n    /* \"#utility.yul\":2399:2521   */\ntag_78:\n    /* \"#utility.yul\":2550:2556   */\n  dup2\n    /* \"#utility.yul\":2544:2557   */\n  mload\n    /* \"#utility.yul\":2575:2665   */\n  tag_80\n    /* \"#utility.yul\":2661:2664   */\n  dup5\n    /* \"#utility.yul\":2653:2659   */\n  dup3\n    /* \"#utility.yul\":2646:2650   */\n  0x20\n    /* \"#utility.yul\":2638:2644   */\n  dup7\n    /* \"#utility.yul\":2634:2651   */\n  add\n    /* \"#utility.yul\":2575:2665   */\n  tag_23\n  jump\t// in\ntag_80:\n    /* \"#utility.yul\":2566:2665   */\n  swap2\n  pop\n    /* \"#utility.yul\":2389:2671   */\n  pop\n    /* \"#utility.yul\":2316:2671   */\n  swap3\n  swap2\n  pop\n  pop\n  jump\t// out\n    /* \"#utility.yul\":2677:2803   */\ntag_25:\n    /* \"#utility.yul\":2714:2721   */\n  0x00\n    /* \"#utility.yul\":2754:2796   */\n  0xffffffffffffffffffffffffffffffffffffffff\n    /* \"#utility.yul\":2747:2752   */\n  dup3\n    /* \"#utility.yul\":2743:2797   */\n  and\n    /* \"#utility.yul\":2732:2797   */\n  swap1\n  pop\n    /* \"#utility.yul\":2677:2803   */\n  swap2\n  swap1\n  pop\n  jump\t// out\n    /* \"#utility.yul\":2809:2905   */\ntag_26:\n    /* \"#utility.yul\":2846:2853   */\n  0x00\n    /* \"#utility.yul\":2875:2899   */\n  tag_83\n    /* \"#utility.yul\":2893:2898   */\n  dup3\n    /* \"#utility.yul\":2875:2899   */\n  tag_25\n  jump\t// in\ntag_83:\n    /* \"#utility.yul\":2864:2899   */\n  swap1\n  pop\n    /* \"#utility.yul\":2809:2905   */\n  swap2\n  swap1\n  pop\n  jump\t// out\n    /* \"#utility.yul\":2911:3033   */\ntag_27:\n    /* \"#utility.yul\":2984:3008   */\n  tag_85\n    /* \"#utility.yul\":3002:3007   */\n  dup2\n    /* \"#utility.yul\":2984:3008   */\n  tag_26\n  jump\t// in\ntag_85:\n    /* \"#utility.yul\":2977:2982   */\n  dup2\n    /* \"#utility.yul\":2974:3009   */\n  eq\n    /* \"#utility.yul\":2964:3027   */\n  tag_86\n  jumpi\n    /* \"#utility.yul\":3023:3024   */\n  0x00\n    /* \"#utility.yul\":3020:3021   */\n  dup1\n    /* \"#utility.yul\":3013:3025   */\n  revert\n    /* \"#utility.yul\":2964:3027   */\ntag_86:\n    /* \"#utility.yul\":2911:3033   */\n  pop\n  jump\t// out\n    /* \"#utility.yul\":3039:3182   */\ntag_28:\n    /* \"#utility.yul\":3096:3101   */\n  0x00\n    /* \"#utility.yul\":3127:3133   */\n  dup2\n    /* \"#utility.yul\":3121:3134   */\n  mload\n    /* \"#utility.yul\":3112:3134   */\n  swap1\n  pop\n    /* \"#utility.yul\":3143:3176   */\n  tag_88\n    /* \"#utility.yul\":3170:3175   */\n  dup2\n    /* \"#utility.yul\":3143:3176   */\n  tag_27\n  jump\t// in\ntag_88:\n    /* \"#utility.yul\":3039:3182   */\n  swap3\n  swap2\n  pop\n  pop\n  jump\t// out\n    /* \"#utility.yul\":3188:4197   */\ntag_3:\n    /* \"#utility.yul\":3296:3302   */\n  0x00\n    /* \"#utility.yul\":3304:3310   */\n  dup1\n    /* \"#utility.yul\":3312:3318   */\n  0x00\n    /* \"#utility.yul\":3361:3363   */\n  0x60\n    /* \"#utility.yul\":3349:3358   */\n  dup5\n    /* \"#utility.yul\":3340:3347   */\n  dup7\n    /* \"#utility.yul\":3336:3359   */\n  sub\n    /* \"#utility.yul\":3332:3364   */\n  slt\n    /* \"#utility.yul\":3329:3448   */\n  iszero\n  tag_90\n  jumpi\n    /* \"#utility.yul\":3367:3446   */\n  tag_91\n  tag_13\n  jump\t// in\ntag_91:\n    /* \"#utility.yul\":3329:3448   */\ntag_90:\n    /* \"#utility.yul\":3508:3509   */\n  0x00\n    /* \"#utility.yul\":3497:3506   */\n  dup5\n    /* \"#utility.yul\":3493:3510   */\n  add\n    /* \"#utility.yul\":3487:3511   */\n  mload\n    /* \"#utility.yul\":3538:3556   */\n  0xffffffffffffffff\n    /* \"#utility.yul\":3530:3536   */\n  dup2\n    /* \"#utility.yul\":3527:3557   */\n  gt\n    /* \"#utility.yul\":3524:3641   */\n  iszero\n  tag_92\n  jumpi\n    /* \"#utility.yul\":3560:3639   */\n  tag_93\n  tag_14\n  jump\t// in\ntag_93:\n    /* \"#utility.yul\":3524:3641   */\ntag_92:\n    /* \"#utility.yul\":3665:3739   */\n  tag_94\n    /* \"#utility.yul\":3731:3738   */\n  dup7\n    /* \"#utility.yul\":3722:3728   */\n  dup3\n    /* \"#utility.yul\":3711:3720   */\n  dup8\n    /* \"#utility.yul\":3707:3729   */\n  add\n    /* \"#utility.yul\":3665:3739   */\n  tag_24\n  jump\t// in\ntag_94:\n    /* \"#utility.yul\":3655:3739   */\n  swap4\n  pop\n    /* \"#utility.yul\":3458:3749   */\n  pop\n    /* \"#utility.yul\":3809:3811   */\n  0x20\n    /* \"#utility.yul\":3798:3807   */\n  dup5\n    /* \"#utility.yul\":3794:3812   */\n  add\n    /* \"#utility.yul\":3788:3813   */\n  mload\n    /* \"#utility.yul\":3840:3858   */\n  0xffffffffffffffff\n    /* \"#utility.yul\":3832:3838   */\n  dup2\n    /* \"#utility.yul\":3829:3859   */\n  gt\n    /* \"#utility.yul\":3826:3943   */\n  iszero\n  tag_95\n  jumpi\n    /* \"#utility.yul\":3862:3941   */\n  tag_96\n  tag_14\n  jump\t// in\ntag_96:\n    /* \"#utility.yul\":3826:3943   */\ntag_95:\n    /* \"#utility.yul\":3967:4041   */\n  tag_97\n    /* \"#utility.yul\":4033:4040   */\n  dup7\n    /* \"#utility.yul\":4024:4030   */\n  dup3\n    /* \"#utility.yul\":4013:4022   */\n  dup8\n    /* \"#utility.yul\":4009:4031   */\n  add\n    /* \"#utility.yul\":3967:4041   */\n  tag_24\n  jump\t// in\ntag_97:\n    /* \"#utility.yul\":3957:4041   */\n  swap3\n  pop\n    /* \"#utility.yul\":3759:4051   */\n  pop\n    /* \"#utility.yul\":4090:4092   */\n  0x40\n    /* \"#utility.yul\":4116:4180   */\n  tag_98\n    /* \"#utility.yul\":4172:4179   */\n  dup7\n    /* \"#utility.yul\":4163:4169   */\n  dup3\n    /* \"#utility.yul\":4152:4161   */\n  dup8\n    /* \"#utility.yul\":4148:4170   */\n  add\n    /* \"#utility.yul\":4116:4180   */\n  tag_28\n  jump\t// in\ntag_98:\n    /* \"#utility.yul\":4106:4180   */\n  swap2\n  pop\n    /* \"#utility.yul\":4061:4190   */\n  pop\n    /* \"#utility.yul\":3188:4197   */\n  swap3\n  pop\n  swap3\n  pop\n  swap3\n  jump\t// out\n    /* \"#utility.yul\":4203:4302   */\ntag_29:\n    /* \"#utility.yul\":4255:4261   */\n  0x00\n    /* \"#utility.yul\":4289:4294   */\n  dup2\n    /* \"#utility.yul\":4283:4295   */\n  mload\n    /* \"#utility.yul\":4273:4295   */\n  swap1\n  pop\n    /* \"#utility.yul\":4203:4302   */\n  swap2\n  swap1\n  pop\n  jump\t// out\n    /* \"#utility.yul\":4308:4488   */\ntag_30:\n    /* \"#utility.yul\":4356:4433   */\n  0x4e487b7100000000000000000000000000000000000000000000000000000000\n    /* \"#utility.yul\":4353:4354   */\n  0x00\n    /* \"#utility.yul\":4346:4434   */\n  mstore\n    /* \"#utility.yul\":4453:4457   */\n  0x22\n    /* \"#utility.yul\":4450:4451   */\n  0x04\n    /* \"#utility.yul\":4443:4458   */\n  mstore\n    /* \"#utility.yul\":4477:4481   */\n  0x24\n    /* \"#utility.yul\":4474:4475   */\n  0x00\n    /* \"#utility.yul\":4467:4482   */\n  revert\n    /* \"#utility.yul\":4494:4814   */\ntag_31:\n    /* \"#utility.yul\":4538:4544   */\n  0x00\n    /* \"#utility.yul\":4575:4576   */\n  0x02\n    /* \"#utility.yul\":4569:4573   */\n  dup3\n    /* \"#utility.yul\":4565:4577   */\n  div\n    /* \"#utility.yul\":4555:4577   */\n  swap1\n  pop\n    /* \"#utility.yul\":4622:4623   */\n  0x01\n    /* \"#utility.yul\":4616:4620   */\n  dup3\n    /* \"#utility.yul\":4612:4624   */\n  and\n    /* \"#utility.yul\":4643:4661   */\n  dup1\n    /* \"#utility.yul\":4633:4714   */\n  tag_102\n  jumpi\n    /* \"#utility.yul\":4699:4703   */\n  0x7f\n    /* \"#utility.yul\":4691:4697   */\n  dup3\n    /* \"#utility.yul\":4687:4704   */\n  and\n    /* \"#utility.yul\":4677:4704   */\n  swap2\n  pop\n    /* \"#utility.yul\":4633:4714   */\ntag_102:\n    /* \"#utility.yul\":4761:4763   */\n  0x20\n    /* \"#utility.yul\":4753:4759   */\n  dup3\n    /* \"#utility.yul\":4750:4764   */\n  lt\n    /* \"#utility.yul\":4730:4748   */\n  dup2\n    /* \"#utility.yul\":4727:4765   */\n  sub\n    /* \"#utility.yul\":4724:4808   */\n  tag_103\n  jumpi\n    /* \"#utility.yul\":4780:4798   */\n  tag_104\n  tag_30\n  jump\t// in\ntag_104:\n    /* \"#utility.yul\":4724:4808   */\ntag_103:\n    /* \"#utility.yul\":4545:4814   */\n  pop\n    /* \"#utility.yul\":4494:4814   */\n  swap2\n  swap1\n  pop\n  jump\t// out\n    /* \"#utility.yul\":4820:4961   */\ntag_32:\n    /* \"#utility.yul\":4869:4873   */\n  0x00\n    /* \"#utility.yul\":4892:4895   */\n  dup2\n    /* \"#utility.yul\":4884:4895   */\n  swap1\n  pop\n    /* \"#utility.yul\":4915:4918   */\n  dup2\n    /* \"#utility.yul\":4912:4913   */\n  0x00\n    /* \"#utility.yul\":4905:4919   */\n  mstore\n    /* \"#utility.yul\":4949:4953   */\n  0x20\n    /* \"#utility.yul\":4946:4947   */\n  0x00\n    /* \"#utility.yul\":4936:4954   */\n  keccak256\n    /* \"#utility.yul\":4928:4954   */\n  swap1\n  pop\n    /* \"#utility.yul\":4820:4961   */\n  swap2\n  swap1\n  pop\n  jump\t// out\n    /* \"#utility.yul\":4967:5060   */\ntag_33:\n    /* \"#utility.yul\":5004:5010   */\n  0x00\n    /* \"#utility.yul\":5051:5053   */\n  0x20\n    /* \"#utility.yul\":5046:5048   */\n  0x1f\n    /* \"#utility.yul\":5039:5044   */\n  dup4\n    /* \"#utility.yul\":5035:5049   */\n  add\n    /* \"#utility.yul\":5031:5054   */\n  div\n    /* \"#utility.yul\":5021:5054   */\n  swap1\n  pop\n    /* \"#utility.yul\":4967:5060   */\n  swap2\n  swap1\n  pop\n  jump\t// out\n    /* \"#utility.yul\":5066:5173   */\ntag_34:\n    /* \"#utility.yul\":5110:5118   */\n  0x00\n    /* \"#utility.yul\":5160:5165   */\n  dup3\n    /* \"#utility.yul\":5154:5158   */\n  dup3\n    /* \"#utility.yul\":5150:5166   */\n  shl\n    /* \"#utility.yul\":5129:5166   */\n  swap1\n  pop\n    /* \"#utility.yul\":5066:5173   */\n  swap3\n  swap2\n  pop\n  pop\n  jump\t// out\n    /* \"#utility.yul\":5179:5572   */\ntag_35:\n    /* \"#utility.yul\":5248:5254   */\n  0x00\n    /* \"#utility.yul\":5298:5299   */\n  0x08\n    /* \"#utility.yul\":5286:5296   */\n  dup4\n    /* \"#utility.yul\":5282:5300   */\n  mul\n    /* \"#utility.yul\":5321:5418   */\n  tag_109\n    /* \"#utility.yul\":5351:5417   */\n  0xffffffffffffffffffffffffffffffffffffffffffffffffffffffffffffffff\n    /* \"#utility.yul\":5340:5349   */\n  dup3\n    /* \"#utility.yul\":5321:5418   */\n  tag_34\n  jump\t// in\ntag_109:\n    /* \"#utility.yul\":5439:5478   */\n  tag_110\n    /* \"#utility.yul\":5469:5477   */\n  dup7\n    /* \"#utility.yul\":5458:5467   */\n  dup4\n    /* \"#utility.yul\":5439:5478   */\n  tag_34\n  jump\t// in\ntag_110:\n    /* \"#utility.yul\":5427:5478   */\n  swap6\n  pop\n    /* \"#utility.yul\":5511:5515   */\n  dup1\n    /* \"#utility.yul\":5507:5516   */\n  not\n    /* \"#utility.yul\":5500:5505   */\n  dup5\n    /* \"#utility.yul\":5496:5517   */\n  and\n    /* \"#utility.yul\":5487:5517   */\n  swap4\n  pop\n    /* \"#utility.yul\":5560:5564   */\n  dup1\n    /* \"#utility.yul\":5550:5558   */\n  dup7\n    /* \"#utility.yul\":5546:5565   */\n  and\n    /* \"#utility.yul\":5539:5544   */\n  dup5\n    /* \"#utility.yul\":5536:5566   */\n  or\n    /* \"#utility.yul\":5526:5566   */\n  swap3\n  pop\n    /* \"#utility.yul\":5255:5572   */\n  pop\n  pop\n    /* \"#utility.yul\":5179:5572   */\n  swap4\n  swap3\n  pop\n  pop\n  pop\n  jump\t// out\n    /* \"#utility.yul\":5578:5655   */\ntag_36:\n    /* \"#utility.yul\":5615:5622   */\n  0x00\n    /* \"#utility.yul\":5644:5649   */\n  dup2\n    /* \"#utility.yul\":5633:5649   */\n  swap1\n  pop\n    /* \"#utility.yul\":5578:5655   */\n  swap2\n  swap1\n  pop\n  jump\t// out\n    /* \"#utility.yul\":5661:5721   */\ntag_37:\n    /* \"#utility.yul\":5689:5692   */\n  0x00\n    /* \"#utility.yul\":5710:5715   */\n  dup2\n    /* \"#utility.yul\":5703:5715   */\n  swap1\n  pop\n    /* \"#utility.yul\":5661:5721   */\n  swap2\n  swap1\n  pop\n  jump\t// out\n    /* \"#utility.yul\":5727:5869   */\ntag_38:\n    /* \"#utility.yul\":5777:5786   */\n  0x00\n    /* \"#utility.yul\":5810:5863   */\n  tag_114\n    /* \"#utility.yul\":5828:5862   */\n  tag_115\n    /* \"#utility.yul\":5837:5861   */\n  tag_116\n    /* \"#utility.yul\":5855:5860   */\n  dup5\n    /* \"#utility.yul\":5837:5861   */\n  tag_36\n  jump\t// in\ntag_116:\n    /* \"#utility.yul\":5828:5862   */\n  tag_37\n  jump\t// in\ntag_115:\n    /* \"#utility.yul\":5810:5863   */\n  tag_36\n  jump\t// in\ntag_114:\n    /* \"#utility.yul\":5797:5863   */\n  swap1\n  pop\n    /* \"#utility.yul\":5727:5869   */\n  swap2\n  swap1\n  pop\n  jump\t// out\n    /* \"#utility.yul\":5875:5950   */\ntag_39:\n    /* \"#utility.yul\":5918:5921   */\n  0x00\n    /* \"#utility.yul\":5939:5944   */\n  dup2\n    /* \"#utility.yul\":5932:5944   */\n  swap1\n  pop\n    /* \"#utility.yul\":5875:5950   */\n  swap2\n  swap1\n  pop\n  jump\t// out\n    /* \"#utility.yul\":5956:6225   */\ntag_40:\n    /* \"#utility.yul\":6066:6105   */\n  tag_119\n    /* \"#utility.yul\":6097:6104   */\n  dup4\n    /* \"#utility.yul\":6066:6105   */\n  tag_38\n  jump\t// in\ntag_119:\n    /* \"#utility.yul\":6127:6218   */\n  tag_120\n    /* \"#utility.yul\":6176:6217   */\n  tag_121\n    /* \"#utility.yul\":6200:6216   */\n  dup3\n    /* \"#utility.yul\":6176:6217   */\n  tag_39\n  jump\t// in\ntag_121:\n    /* \"#utility.yul\":6168:6174   */\n  dup5\n    /* \"#utility.yul\":6161:6165   */\n  dup5\n    /* \"#utility.yul\":6155:6166   */\n  sload\n    /* \"#utility.yul\":6127:6218   */\n  tag_35\n  jump\t// in\ntag_120:\n    /* \"#utility.yul\":6121:6125   */\n  dup3\n    /* \"#utility.yul\":6114:6219   */\n  sstore\n    /* \"#utility.yul\":6032:6225   */\n  pop\n    /* \"#utility.yul\":5956:6225   */\n  pop\n  pop\n  pop\n  jump\t// out\n    /* \"#utility.yul\":6231:6304   */\ntag_41:\n    /* \"#utility.yul\":6276:6279   */\n  0x00\n    /* \"#utility.yul\":6231:6304   */\n  swap1\n  jump\t// out\n    /* \"#utility.yul\":6310:6499   */\ntag_42:\n    /* \"#utility.yul\":6387:6419   */\n  tag_124\n  tag_41\n  jump\t// in\ntag_124:\n    /* \"#utility.yul\":6428:6493   */\n  tag_125\n    /* \"#utility.yul\":6486:6492   */\n  dup2\n    /* \"#utility.yul\":6478:6484   */\n  dup5\n    /* \"#utility.yul\":6472:6476   */\n  dup5\n    /* \"#utility.yul\":6428:6493   */\n  tag_40\n  jump\t// in\ntag_125:\n    /* \"#utility.yul\":6363:6499   */\n  pop\n    /* \"#utility.yul\":6310:6499   */\n  pop\n  pop\n  jump\t// out\n    /* \"#utility.yul\":6505:6691   */\ntag_43:\n    /* \"#utility.yul\":6565:6685   */\ntag_127:\n    /* \"#utility.yul\":6582:6585   */\n  dup2\n    /* \"#utility.yul\":6575:6580   */\n  dup2\n    /* \"#utility.yul\":6572:6586   */\n  lt\n    /* \"#utility.yul\":6565:6685   */\n  iszero\n  tag_129\n  jumpi\n    /* \"#utility.yul\":6636:6675   */\n  tag_130\n    /* \"#utility.yul\":6673:6674   */\n  0x00\n    /* \"#utility.yul\":6666:6671   */\n  dup3\n    /* \"#utility.yul\":6636:6675   */\n  tag_42\n  jump\t// in\ntag_130:\n    /* \"#utility.yul\":6609:6610   */\n  0x01\n    /* \"#utility.yul\":6602:6607   */\n  dup2\n    /* \"#utility.yul\":6598:6611   */\n  add\n    /* \"#utility.yul\":6589:6611   */\n  swap1\n  pop\n    /* \"#utility.yul\":6565:6685   */\n  jump(tag_127)\ntag_129:\n    /* \"#utility.yul\":6505:6691   */\n  pop\n  pop\n  jump\t// out\n    /* \"#utility.yul\":6697:7240   */\ntag_44:\n    /* \"#utility.yul\":6798:6800   */\n  0x1f\n    /* \"#utility.yul\":6793:6796   */\n  dup3\n    /* \"#utility.yul\":6790:6801   */\n  gt\n    /* \"#utility.yul\":6787:7233   */\n  iszero\n  tag_132\n  jumpi\n    /* \"#utility.yul\":6832:6870   */\n  tag_133\n    /* \"#utility.yul\":6864:6869   */\n  dup2\n    /* \"#utility.yul\":6832:6870   */\n  tag_32\n  jump\t// in\ntag_133:\n    /* \"#utility.yul\":6916:6945   */\n  tag_134\n    /* \"#utility.yul\":6934:6944   */\n  dup5\n    /* \"#utility.yul\":6916:6945   */\n  tag_33\n  jump\t// in\ntag_134:\n    /* \"#utility.yul\":6906:6914   */\n  dup2\n    /* \"#utility.yul\":6902:6946   */\n  add\n    /* \"#utility.yul\":7099:7101   */\n  0x20\n    /* \"#utility.yul\":7087:7097   */\n  dup6\n    /* \"#utility.yul\":7084:7102   */\n  lt\n    /* \"#utility.yul\":7081:7130   */\n  iszero\n  tag_135\n  jumpi\n    /* \"#utility.yul\":7120:7128   */\n  dup2\n    /* \"#utility.yul\":7105:7128   */\n  swap1\n  pop\n    /* \"#utility.yul\":7081:7130   */\ntag_135:\n    /* \"#utility.yul\":7143:7223   */\n  tag_136\n    /* \"#utility.yul\":7199:7221   */\n  tag_137\n    /* \"#utility.yul\":7217:7220   */\n  dup6\n    /* \"#utility.yul\":7199:7221   */\n  tag_33\n  jump\t// in\ntag_137:\n    /* \"#utility.yul\":7189:7197   */\n  dup4\n    /* \"#utility.yul\":7185:7222   */\n  add\n    /* \"#utility.yul\":7172:7183   */\n  dup3\n    /* \"#utility.yul\":7143:7223   */\n  tag_43\n  jump\t// in\ntag_136:\n    /* \"#utility.yul\":6802:7233   */\n  pop\n  pop\n    /* \"#utility.yul\":6787:7233   */\ntag_132:\n    /* \"#utility.yul\":6697:7240   */\n  pop\n  pop\n  pop\n  jump\t// out\n    /* \"#utility.yul\":7246:7363   */\ntag_45:\n    /* \"#utility.yul\":7300:7308   */\n  0x00\n    /* \"#utility.yul\":7350:7355   */\n  dup3\n    /* \"#utility.yul\":7344:7348   */\n  dup3\n    /* \"#utility.yul\":7340:7356   */\n  shr\n    /* \"#utility.yul\":7319:7356   */\n  swap1\n  pop\n    /* \"#utility.yul\":7246:7363   */\n  swap3\n  swap2\n  pop\n  pop\n  jump\t// out\n    /* \"#utility.yul\":7369:7538   */\ntag_46:\n    /* \"#utility.yul\":7413:7419   */\n  0x00\n    /* \"#utility.yul\":7446:7497   */\n  tag_140\n    /* \"#utility.yul\":7494:7495   */\n  0x00\n    /* \"#utility.yul\":7490:7496   */\n  not\n    /* \"#utility.yul\":7482:7487   */\n  dup5\n    /* \"#utility.yul\":7479:7480   */\n  0x08\n    /* \"#utility.yul\":7475:7488   */\n  mul\n    /* \"#utility.yul\":7446:7497   */\n  tag_45\n  jump\t// in\ntag_140:\n    /* \"#utility.yul\":7442:7498   */\n  not\n    /* \"#utility.yul\":7527:7531   */\n  dup1\n    /* \"#utility.yul\":7521:7525   */\n  dup4\n    /* \"#utility.yul\":7517:7532   */\n  and\n    /* \"#utility.yul\":7507:7532   */\n  swap2\n  pop\n    /* \"#utility.yul\":7420:7538   */\n  pop\n    /* \"#utility.yul\":7369:7538   */\n  swap3\n  swap2\n  pop\n  pop\n  jump\t// out\n    /* \"#utility.yul\":7543:7838   */\ntag_47:\n    /* \"#utility.yul\":7619:7623   */\n  0x00\n    /* \"#utility.yul\":7765:7794   */\n  tag_142\n    /* \"#utility.yul\":7790:7793   */\n  dup4\n    /* \"#utility.yul\":7784:7788   */\n  dup4\n    /* \"#utility.yul\":7765:7794   */\n  tag_46\n  jump\t// in\ntag_142:\n    /* \"#utility.yul\":7757:7794   */\n  swap2\n  pop\n    /* \"#utility.yul\":7827:7830   */\n  dup3\n    /* \"#utility.yul\":7824:7825   */\n  0x02\n    /* \"#utility.yul\":7820:7831   */\n  mul\n    /* \"#utility.yul\":7814:7818   */\n  dup3\n    /* \"#utility.yul\":7811:7832   */\n  or\n    /* \"#utility.yul\":7803:7832   */\n  swap1\n  pop\n    /* \"#utility.yul\":7543:7838   */\n  swap3\n  swap2\n  pop\n  pop\n  jump\t// out\n    /* \"#utility.yul\":7843:9238   */\ntag_9:\n    /* \"#utility.yul\":7960:7997   */\n  tag_144\n    /* \"#utility.yul\":7993:7996   */\n  dup3\n    /* \"#utility.yul\":7960:7997   */\n  tag_29\n  jump\t// in\ntag_144:\n    /* \"#utility.yul\":8062:8080   */\n  0xffffffffffffffff\n    /* \"#utility.yul\":8054:8060   */\n  dup2\n    /* \"#utility.yul\":8051:8081   */\n  gt\n    /* \"#utility.yul\":8048:8104   */\n  iszero\n  tag_145\n  jumpi\n    /* \"#utility.yul\":8084:8102   */\n  tag_146\n  tag_18\n  jump\t// in\ntag_146:\n    /* \"#utility.yul\":8048:8104   */\ntag_145:\n    /* \"#utility.yul\":8128:8166   */\n  tag_147\n    /* \"#utility.yul\":8160:8164   */\n  dup3\n    /* \"#utility.yul\":8154:8165   */\n  sload\n    /* \"#utility.yul\":8128:8166   */\n  tag_31\n  jump\t// in\ntag_147:\n    /* \"#utility.yul\":8213:8280   */\n  tag_148\n    /* \"#utility.yul\":8273:8279   */\n  dup3\n    /* \"#utility.yul\":8265:8271   */\n  dup3\n    /* \"#utility.yul\":8259:8263   */\n  dup6\n    /* \"#utility.yul\":8213:8280   */\n  tag_44\n  jump\t// in\ntag_148:\n    /* \"#utility.yul\":8307:8308   */\n  0x00\n    /* \"#utility.yul\":8331:8335   */\n  0x20\n    /* \"#utility.yul\":8318:8335   */\n  swap1\n  pop\n    /* \"#utility.yul\":8363:8365   */\n  0x1f\n    /* \"#utility.yul\":8355:8361   */\n  dup4\n    /* \"#utility.yul\":8352:8366   */\n  gt\n    /* \"#utility.yul\":8380:8381   */\n  0x01\n    /* \"#utility.yul\":8375:8993   */\n  dup2\n  eq\n  tag_150\n  jumpi\n    /* \"#utility.yul\":9037:9038   */\n  0x00\n    /* \"#utility.yul\":9054:9060   */\n  dup5\n    /* \"#utility.yul\":9051:9128   */\n  iszero\n  tag_151\n  jumpi\n    /* \"#utility.yul\":9103:9112   */\n  dup3\n    /* \"#utility.yul\":9098:9101   */\n  dup8\n    /* \"#utility.yul\":9094:9113   */\n  add\n    /* \"#utility.yul\":9088:9114   */\n  mload\n    /* \"#utility.yul\":9079:9114   */\n  swap1\n  pop\n    /* \"#utility.yul\":9051:9128   */\ntag_151:\n    /* \"#utility.yul\":9154:9221   */\n  tag_152\n    /* \"#utility.yul\":9214:9220   */\n  dup6\n    /* \"#utility.yul\":9207:9212   */\n  dup3\n    /* \"#utility.yul\":9154:9221   */\n  tag_47\n  jump\t// in\ntag_152:\n    /* \"#utility.yul\":9148:9152   */\n  dup7\n    /* \"#utility.yul\":9141:9222   */\n  sstore\n    /* \"#utility.yul\":9010:9232   */\n  pop\n    /* \"#utility.yul\":8345:9232   */\n  jump(tag_149)\n    /* \"#utility.yul\":8375:8993   */\ntag_150:\n    /* \"#utility.yul\":8427:8431   */\n  0x1f\n    /* \"#utility.yul\":8423:8432   */\n  not\n    /* \"#utility.yul\":8415:8421   */\n  dup5\n    /* \"#utility.yul\":8411:8433   */\n  and\n    /* \"#utility.yul\":8461:8498   */\n  tag_153\n    /* \"#utility.yul\":8493:8497   */\n  dup7\n    /* \"#utility.yul\":8461:8498   */\n  tag_32\n  jump\t// in\ntag_153:\n    /* \"#utility.yul\":8520:8521   */\n  0x00\n    /* \"#utility.yul\":8534:8742   */\ntag_154:\n    /* \"#utility.yul\":8548:8555   */\n  dup3\n    /* \"#utility.yul\":8545:8546   */\n  dup2\n    /* \"#utility.yul\":8542:8556   */\n  lt\n    /* \"#utility.yul\":8534:8742   */\n  iszero\n  tag_156\n  jumpi\n    /* \"#utility.yul\":8627:8636   */\n  dup5\n    /* \"#utility.yul\":8622:8625   */\n  dup10\n    /* \"#utility.yul\":8618:8637   */\n  add\n    /* \"#utility.yul\":8612:8638   */\n  mload\n    /* \"#utility.yul\":8604:8610   */\n  dup3\n    /* \"#utility.yul\":8597:8639   */\n  sstore\n    /* \"#utility.yul\":8678:8679   */\n  0x01\n    /* \"#utility.yul\":8670:8676   */\n  dup3\n    /* \"#utility.yul\":8666:8680   */\n  add\n    /* \"#utility.yul\":8656:8680   */\n  swap2\n  pop\n    /* \"#utility.yul\":8725:8727   */\n  0x20\n    /* \"#utility.yul\":8714:8723   */\n  dup6\n    /* \"#utility.yul\":8710:8728   */\n  add\n    /* \"#utility.yul\":8697:8728   */\n  swap5\n  pop\n    /* \"#utility.yul\":8571:8575   */\n  0x20\n    /* \"#utility.yul\":8568:8569   */\n  dup2\n    /* \"#utility.yul\":8564:8576   */\n  add\n    /* \"#utility.yul\":8559:8576   */\n  swap1\n  pop\n    /* \"#utility.yul\":8534:8742   */\n  jump(tag_154)\ntag_156:\n    /* \"#utility.yul\":8770:8776   */\n  dup7\n    /* \"#utility.yul\":8761:8768   */\n  dup4\n    /* \"#utility.yul\":8758:8777   */\n  lt\n    /* \"#utility.yul\":8755:8934   */\n  iszero\n  tag_157\n  jumpi\n    /* \"#utility.yul\":8828:8837   */\n  dup5\n    /* \"#utility.yul\":8823:8826   */\n  dup10\n    /* \"#utility.yul\":8819:8838   */\n  add\n    /* \"#utility.yul\":8813:8839   */\n  mload\n    /* \"#utility.yul\":8871:8919   */\n  tag_158\n    /* \"#utility.yul\":8913:8917   */\n  0x1f\n    /* \"#utility.yul\":8905:8911   */\n  dup10\n    /* \"#utility.yul\":8901:8918   */\n  and\n    /* \"#utility.yul\":8890:8899   */\n  dup3\n    /* \"#utility.yul\":8871:8919   */\n  tag_46\n  jump\t// in\ntag_158:\n    /* \"#utility.yul\":8863:8869   */\n  dup4\n    /* \"#utility.yul\":8856:8920   */\n  sstore\n    /* \"#utility.yul\":8778:8934   */\n  pop\n    /* \"#utility.yul\":8755:8934   */\ntag_157:\n    /* \"#utility.yul\":8980:8981   */\n  0x01\n    /* \"#utility.yul\":8976:8977   */\n  0x02\n    /* \"#utility.yul\":8968:8974   */\n  dup9\n    /* \"#utility.yul\":8964:8978   */\n  mul\n    /* \"#utility.yul\":8960:8982   */\n  add\n    /* \"#utility.yul\":8954:8958   */\n  dup9\n    /* \"#utility.yul\":8947:8983   */\n  sstore\n    /* \"#utility.yul\":8382:8993   */\n  pop\n  pop\n  pop\n    /* \"#utility.yul\":8345:9232   */\ntag_149:\n  pop\n    /* \"#utility.yul\":7935:9238   */\n  pop\n  pop\n  pop\n    /* \"#utility.yul\":7843:9238   */\n  pop\n  pop\n  jump\t// out\n    /* \"remix/contracts/Label.sol\":90:966  contract Label is Handshaker{... */\ntag_11:\n  dataSize(sub_0)\n  dup1\n  dataOffset(sub_0)\n  0x00\n  codecopy\n  0x00\n  return\nstop\n\nsub_0: assembly {\n        /* \"remix/contracts/Label.sol\":90:966  contract Label is Handshaker{... */\n      mstore(0x40, 0x80)\n      callvalue\n      dup1\n      iszero\n      tag_1\n      jumpi\n      0x00\n      dup1\n      revert\n    tag_1:\n      pop\n      jumpi(tag_2, lt(calldatasize, 0x04))\n      shr(0xe0, calldataload(0x00))\n      dup1\n      0x9407921c\n      gt\n      tag_20\n      jumpi\n      dup1\n      0xde802761\n      gt\n      tag_21\n      jumpi\n      dup1\n      0xde802761\n      eq\n      tag_15\n      jumpi\n      dup1\n      0xe5ab27e3\n      eq\n      tag_16\n      jumpi\n      dup1\n      0xf39f05f7\n      eq\n      tag_17\n      jumpi\n      dup1\n      0xfbeaa42f\n      eq\n      tag_18\n      jumpi\n      dup1\n      0xfc107720\n      eq\n      tag_19\n      jumpi\n      jump(tag_2)\n    tag_21:\n      dup1\n      0x9407921c\n      eq\n      tag_11\n      jumpi\n      dup1\n      0xb1d90809\n      eq\n      tag_12\n      jumpi\n      dup1\n      0xc524e7f6\n      eq\n      tag_13\n      jumpi\n      dup1\n      0xca9d2c6b\n      eq\n      tag_14\n      jumpi\n      jump(tag_2)\n    tag_20:\n      dup1\n      0x55c1c478\n      gt\n      tag_22\n      jumpi\n      dup1\n      0x55c1c478\n      eq\n      tag_7\n      jumpi\n      dup1\n      0x5f891d98\n      eq\n      tag_8\n      jumpi\n      dup1\n      0x6947a020\n      eq\n      tag_9\n      jumpi\n      dup1\n      0x8da5cb5b\n      eq\n      tag_10\n      jumpi\n      jump(tag_2)\n    tag_22:\n      dup1\n      0x0fbdd521\n      eq\n      tag_3\n      jumpi\n      dup1\n      0x101d4fb9\n      eq\n      tag_4\n      jumpi\n      dup1\n      0x244ded7a\n      eq\n      tag_5\n      jumpi\n      dup1\n      0x481fd6b5\n      eq\n      tag_6\n      jumpi\n    tag_2:\n      0x00\n      dup1\n      revert\n        /* \"remix/contracts/Handshaker.sol\":1382:1829  function Do_Handshake(address Address, relation r) public returns(bool){... */\n    tag_3:\n      tag_23\n      0x04\n      dup1\n      calldatasize\n      sub\n      dup2\n      add\n      swap1\n      tag_24\n      swap2\n      swap1\n      tag_25\n      jump\t// in\n    tag_24:\n      tag_26\n      jump\t// in\n    tag_23:\n      mload(0x40)\n      tag_27\n      swap2\n      swap1\n      tag_28\n      jump\t// in\n    tag_27:\n      mload(0x40)\n      dup1\n      swap2\n      sub\n      swap1\n      return\n        /* \"remix/contracts/Handshaker.sol\":932:1075  function Has_Candidate(address candidateAddress, relation r) public view returns(bool){... */\n    tag_4:\n      tag_29\n      0x04\n      dup1\n      calldatasize\n      sub\n      dup2\n      add\n      swap1\n      tag_30\n      swap2\n      swap1\n      tag_25\n      jump\t// in\n    tag_30:\n      tag_31\n      jump\t// in\n    tag_29:\n      mload(0x40)\n      tag_32\n      swap2\n      swap1\n      tag_28\n      jump\t// in\n    tag_32:\n      mload(0x40)\n      dup1\n      swap2\n      sub\n      swap1\n      return\n        /* \"remix/contracts/Ownable.sol\":295:390  function ChangeOwnership(address newOwner) public  onlyOwner{... */\n    tag_5:\n      tag_33\n      0x04\n      dup1\n      calldatasize\n      sub\n      dup2\n      add\n      swap1\n      tag_34\n      swap2\n      swap1\n      tag_35\n      jump\t// in\n    tag_34:\n      tag_36\n      jump\t// in\n    tag_33:\n      stop\n        /* \"remix/contracts/Label.sol\":550:634  function Get_Name() public view returns(string memory){... */\n    tag_6:\n      tag_37\n      tag_38\n      jump\t// in\n    tag_37:\n      mload(0x40)\n      tag_39\n      swap2\n      swap1\n      tag_40\n      jump\t// in\n    tag_39:\n      mload(0x40)\n      dup1\n      swap2\n      sub\n      swap1\n      return\n        /* \"remix/contracts/Handshaker.sol\":608:694  function Get_Owner() external view returns(address owner){... */\n    tag_7:\n      tag_41\n      tag_42\n      jump\t// in\n    tag_41:\n      mload(0x40)\n      tag_43\n      swap2\n      swap1\n      tag_44\n      jump\t// in\n    tag_43:\n      mload(0x40)\n      dup1\n      swap2\n      sub\n      swap1\n      return\n        /* \"remix/contracts/Handshaker.sol\":1835:1922  function Delete_Id(relation r, uint index) public {... */\n    tag_8:\n      tag_45\n      0x04\n      dup1\n      calldatasize\n      sub\n      dup2\n      add\n      swap1\n      tag_46\n      swap2\n      swap1\n      tag_47\n      jump\t// in\n    tag_46:\n      tag_48\n      jump\t// in\n    tag_45:\n      stop\n        /* \"remix/contracts/Handshaker.sol\":804:902  function Add_Candidate(address addr, relation r) external{... */\n    tag_9:\n      tag_49\n      0x04\n      dup1\n      calldatasize\n      sub\n      dup2\n      add\n      swap1\n      tag_50\n      swap2\n      swap1\n      tag_25\n      jump\t// in\n    tag_50:\n      tag_51\n      jump\t// in\n    tag_49:\n      stop\n        /* \"remix/contracts/Ownable.sol\":97:117  address public owner */\n    tag_10:\n      tag_52\n      tag_53\n      jump\t// in\n    tag_52:\n      mload(0x40)\n      tag_54\n      swap2\n      swap1\n      tag_44\n      jump\t// in\n    tag_54:\n      mload(0x40)\n      dup1\n      swap2\n      sub\n      swap1\n      return\n        /* \"remix/contracts/Handshaker.sol\":700:798  function Get_Ids(relation r) external view returns(address[] memory){... */\n    tag_11:\n      tag_55\n      0x04\n      dup1\n      calldatasize\n      sub\n      dup2\n      add\n      swap1\n      tag_56\n      swap2\n      swap1\n      tag_57\n      jump\t// in\n    tag_56:\n      tag_58\n      jump\t// in\n    tag_55:\n      mload(0x40)\n      tag_59\n      swap2\n      swap1\n      tag_60\n      jump\t// in\n    tag_59:\n      mload(0x40)\n      dup1\n      swap2\n      sub\n      swap1\n      return\n        /* \"remix/contracts/Label.sol\":642:752  function Get_ProductIds() public view returns(address[] memory){... */\n    tag_12:\n      tag_61\n      tag_62\n      jump\t// in\n    tag_61:\n      mload(0x40)\n      tag_63\n      swap2\n      swap1\n      tag_60\n      jump\t// in\n    tag_63:\n      mload(0x40)\n      dup1\n      swap2\n      sub\n      swap1\n      return\n        /* \"remix/contracts/Label.sol\":760:861  function Get_IpfsAddress() external view returns(string memory){... */\n    tag_13:\n      tag_64\n      tag_65\n      jump\t// in\n    tag_64:\n      mload(0x40)\n      tag_66\n      swap2\n      swap1\n      tag_40\n      jump\t// in\n    tag_66:\n      mload(0x40)\n      dup1\n      swap2\n      sub\n      swap1\n      return\n        /* \"remix/contracts/Handshaker.sol\":195:478  function reverseRelation(relation r) public pure returns(relation){... */\n    tag_14:\n      tag_67\n      0x04\n      dup1\n      calldatasize\n      sub\n      dup2\n      add\n      swap1\n      tag_68\n      swap2\n      swap1\n      tag_57\n      jump\t// in\n    tag_68:\n      tag_69\n      jump\t// in\n    tag_67:\n      mload(0x40)\n      tag_70\n      swap2\n      swap1\n      tag_71\n      jump\t// in\n    tag_70:\n      mload(0x40)\n      dup1\n      swap2\n      sub\n      swap1\n      return\n        /* \"remix/contracts/Handshaker.sol\":560:601  mapping(relation => address[]) public Ids */\n    tag_15:\n      tag_72\n      0x04\n      dup1\n      calldatasize\n      sub\n      dup2\n      add\n      swap1\n      tag_73\n      swap2\n      swap1\n      tag_47\n      jump\t// in\n    tag_73:\n      tag_74\n      jump\t// in\n    tag_72:\n      mload(0x40)\n      tag_75\n      swap2\n      swap1\n      tag_44\n      jump\t// in\n    tag_75:\n      mload(0x40)\n      dup1\n      swap2\n      sub\n      swap1\n      return\n        /* \"remix/contracts/Label.sol\":432:542  function Set_IPFS(string calldata _ipfsAddress) public onlyOwner{... */\n    tag_16:\n      tag_76\n      0x04\n      dup1\n      calldatasize\n      sub\n      dup2\n      add\n      swap1\n      tag_77\n      swap2\n      swap1\n      tag_78\n      jump\t// in\n    tag_77:\n      tag_79\n      jump\t// in\n    tag_76:\n      stop\n        /* \"remix/contracts/Handshaker.sol\":508:554  mapping(address => relation) public Candidates */\n    tag_17:\n      tag_80\n      0x04\n      dup1\n      calldatasize\n      sub\n      dup2\n      add\n      swap1\n      tag_81\n      swap2\n      swap1\n      tag_35\n      jump\t// in\n    tag_81:\n      tag_82\n      jump\t// in\n    tag_80:\n      mload(0x40)\n      tag_83\n      swap2\n      swap1\n      tag_71\n      jump\t// in\n    tag_83:\n      mload(0x40)\n      dup1\n      swap2\n      sub\n      swap1\n      return\n        /* \"remix/contracts/Label.sol\":869:963  function Get_ImageCid() external view returns(string memory){... */\n    tag_18:\n      tag_84\n      tag_85\n      jump\t// in\n    tag_84:\n      mload(0x40)\n      tag_86\n      swap2\n      swap1\n      tag_40\n      jump\t// in\n    tag_86:\n      mload(0x40)\n      dup1\n      swap2\n      sub\n      swap1\n      return\n        /* \"remix/contracts/Handshaker.sol\":1081:1328  function Accept_Candidate(relation r) public {... */\n    tag_19:\n      tag_87\n      0x04\n      dup1\n      calldatasize\n      sub\n      dup2\n      add\n      swap1\n      tag_88\n      swap2\n      swap1\n      tag_57\n      jump\t// in\n    tag_88:\n      tag_89\n      jump\t// in\n    tag_87:\n      stop\n        /* \"remix/contracts/Handshaker.sol\":1382:1829  function Do_Handshake(address Address, relation r) public returns(bool){... */\n    tag_26:\n        /* \"remix/contracts/Handshaker.sol\":1448:1452  bool */\n      0x00\n        /* \"remix/contracts/Handshaker.sol\":1463:1484  Handshaker handshaker */\n      dup1\n        /* \"remix/contracts/Handshaker.sol\":1498:1505  Address */\n      dup4\n        /* \"remix/contracts/Handshaker.sol\":1463:1506  Handshaker handshaker = Handshaker(Address) */\n      swap1\n      pop\n        /* \"remix/contracts/Handshaker.sol\":1577:1595  reverseRelation(r) */\n      tag_91\n        /* \"remix/contracts/Handshaker.sol\":1593:1594  r */\n      dup4\n        /* \"remix/contracts/Handshaker.sol\":1577:1592  reverseRelation */\n      tag_69\n        /* \"remix/contracts/Handshaker.sol\":1577:1595  reverseRelation(r) */\n      jump\t// in\n    tag_91:\n        /* \"remix/contracts/Handshaker.sol\":1537:1595  handshaker.Candidates(address(this)) == reverseRelation(r) */\n      0x04\n      dup2\n      gt\n      iszero\n      tag_92\n      jumpi\n      tag_93\n      tag_94\n      jump\t// in\n    tag_93:\n    tag_92:\n        /* \"remix/contracts/Handshaker.sol\":1537:1547  handshaker */\n      dup2\n        /* \"remix/contracts/Handshaker.sol\":1537:1558  handshaker.Candidates */\n      0xffffffffffffffffffffffffffffffffffffffff\n      and\n      0xf39f05f7\n        /* \"remix/contracts/Handshaker.sol\":1567:1571  this */\n      address\n        /* \"remix/contracts/Handshaker.sol\":1537:1573  handshaker.Candidates(address(this)) */\n      mload(0x40)\n      dup3\n      0xffffffff\n      and\n      0xe0\n      shl\n      dup2\n      mstore\n      0x04\n      add\n      tag_95\n      swap2\n      swap1\n      tag_44\n      jump\t// in\n    tag_95:\n      0x20\n      mload(0x40)\n      dup1\n      dup4\n      sub\n      dup2\n      dup7\n      gas\n      staticcall\n      iszero\n      dup1\n      iszero\n      tag_97\n      jumpi\n      returndatasize\n      0x00\n      dup1\n      returndatacopy\n      revert(0x00, returndatasize)\n    tag_97:\n      pop\n      pop\n      pop\n      pop\n      mload(0x40)\n      returndatasize\n      not(0x1f)\n      0x1f\n      dup3\n      add\n      and\n      dup3\n      add\n      dup1\n      0x40\n      mstore\n      pop\n      dup2\n      add\n      swap1\n      tag_98\n      swap2\n      swap1\n      tag_99\n      jump\t// in\n    tag_98:\n        /* \"remix/contracts/Handshaker.sol\":1537:1595  handshaker.Candidates(address(this)) == reverseRelation(r) */\n      0x04\n      dup2\n      gt\n      iszero\n      tag_100\n      jumpi\n      tag_101\n      tag_94\n      jump\t// in\n    tag_101:\n    tag_100:\n      sub\n        /* \"remix/contracts/Handshaker.sol\":1534:1823  if(handshaker.Candidates(address(this)) == reverseRelation(r)){... */\n      tag_102\n      jumpi\n        /* \"remix/contracts/Handshaker.sol\":1610:1613  Ids */\n      0x03\n        /* \"remix/contracts/Handshaker.sol\":1610:1616  Ids[r] */\n      0x00\n        /* \"remix/contracts/Handshaker.sol\":1614:1615  r */\n      dup5\n        /* \"remix/contracts/Handshaker.sol\":1610:1616  Ids[r] */\n      0x04\n      dup2\n      gt\n      iszero\n      tag_103\n      jumpi\n      tag_104\n      tag_94\n      jump\t// in\n    tag_104:\n    tag_103:\n      0x04\n      dup2\n      gt\n      iszero\n      tag_105\n      jumpi\n      tag_106\n      tag_94\n      jump\t// in\n    tag_106:\n    tag_105:\n      dup2\n      mstore\n      0x20\n      add\n      swap1\n      dup2\n      mstore\n      0x20\n      add\n      0x00\n      keccak256\n        /* \"remix/contracts/Handshaker.sol\":1622:1629  Address */\n      dup5\n        /* \"remix/contracts/Handshaker.sol\":1610:1630  Ids[r].push(Address) */\n      swap1\n      dup1\n      0x01\n      dup2\n      sload\n      add\n      dup1\n      dup3\n      sstore\n      dup1\n      swap2\n      pop\n      pop\n      0x01\n      swap1\n      sub\n      swap1\n      0x00\n      mstore\n      keccak256(0x00, 0x20)\n      add\n      0x00\n      swap1\n      swap2\n      swap1\n      swap2\n      swap1\n      swap2\n      0x0100\n      exp\n      dup2\n      sload\n      dup2\n      0xffffffffffffffffffffffffffffffffffffffff\n      mul\n      not\n      and\n      swap1\n      dup4\n      0xffffffffffffffffffffffffffffffffffffffff\n      and\n      mul\n      or\n      swap1\n      sstore\n      pop\n        /* \"remix/contracts/Handshaker.sol\":1644:1654  handshaker */\n      dup1\n        /* \"remix/contracts/Handshaker.sol\":1644:1671  handshaker.Accept_Candidate */\n      0xffffffffffffffffffffffffffffffffffffffff\n      and\n      0xfc107720\n        /* \"remix/contracts/Handshaker.sol\":1672:1673  r */\n      dup5\n        /* \"remix/contracts/Handshaker.sol\":1644:1674  handshaker.Accept_Candidate(r) */\n      mload(0x40)\n      dup3\n      0xffffffff\n      and\n      0xe0\n      shl\n      dup2\n      mstore\n      0x04\n      add\n      tag_108\n      swap2\n      swap1\n      tag_71\n      jump\t// in\n    tag_108:\n      0x00\n      mload(0x40)\n      dup1\n      dup4\n      sub\n      dup2\n      0x00\n      dup8\n      dup1\n      extcodesize\n      iszero\n      dup1\n      iszero\n      tag_109\n      jumpi\n      0x00\n      dup1\n      revert\n    tag_109:\n      pop\n      gas\n      call\n      iszero\n      dup1\n      iszero\n      tag_111\n      jumpi\n      returndatasize\n      0x00\n      dup1\n      returndatacopy\n      revert(0x00, returndatasize)\n    tag_111:\n      pop\n      pop\n      pop\n      pop\n        /* \"remix/contracts/Handshaker.sol\":1708:1712  true */\n      0x01\n        /* \"remix/contracts/Handshaker.sol\":1701:1712  return true */\n      swap2\n      pop\n      pop\n      jump(tag_90)\n        /* \"remix/contracts/Handshaker.sol\":1534:1823  if(handshaker.Candidates(address(this)) == reverseRelation(r)){... */\n    tag_102:\n        /* \"remix/contracts/Handshaker.sol\":1772:1773  r */\n      dup3\n        /* \"remix/contracts/Handshaker.sol\":1750:1760  Candidates */\n      0x02\n        /* \"remix/contracts/Handshaker.sol\":1750:1769  Candidates[Address] */\n      0x00\n        /* \"remix/contracts/Handshaker.sol\":1761:1768  Address */\n      dup7\n        /* \"remix/contracts/Handshaker.sol\":1750:1769  Candidates[Address] */\n      0xffffffffffffffffffffffffffffffffffffffff\n      and\n      0xffffffffffffffffffffffffffffffffffffffff\n      and\n      dup2\n      mstore\n      0x20\n      add\n      swap1\n      dup2\n      mstore\n      0x20\n      add\n      0x00\n      keccak256\n      0x00\n        /* \"remix/contracts/Handshaker.sol\":1750:1773  Candidates[Address] = r */\n      0x0100\n      exp\n      dup2\n      sload\n      dup2\n      0xff\n      mul\n      not\n      and\n      swap1\n      dup4\n      0x04\n      dup2\n      gt\n      iszero\n      tag_113\n      jumpi\n      tag_114\n      tag_94\n      jump\t// in\n    tag_114:\n    tag_113:\n      mul\n      or\n      swap1\n      sstore\n      pop\n        /* \"remix/contracts/Handshaker.sol\":1807:1812  false */\n      0x00\n        /* \"remix/contracts/Handshaker.sol\":1800:1812  return false */\n      swap2\n      pop\n      pop\n        /* \"remix/contracts/Handshaker.sol\":1382:1829  function Do_Handshake(address Address, relation r) public returns(bool){... */\n    tag_90:\n      swap3\n      swap2\n      pop\n      pop\n      jump\t// out\n        /* \"remix/contracts/Handshaker.sol\":932:1075  function Has_Candidate(address candidateAddress, relation r) public view returns(bool){... */\n    tag_31:\n        /* \"remix/contracts/Handshaker.sol\":1013:1017  bool */\n      0x00\n        /* \"remix/contracts/Handshaker.sol\":1067:1068  r */\n      dup2\n        /* \"remix/contracts/Handshaker.sol\":1035:1068  Candidates[candidateAddress] == r */\n      0x04\n      dup2\n      gt\n      iszero\n      tag_116\n      jumpi\n      tag_117\n      tag_94\n      jump\t// in\n    tag_117:\n    tag_116:\n        /* \"remix/contracts/Handshaker.sol\":1035:1045  Candidates */\n      0x02\n        /* \"remix/contracts/Handshaker.sol\":1035:1063  Candidates[candidateAddress] */\n      0x00\n        /* \"remix/contracts/Handshaker.sol\":1046:1062  candidateAddress */\n      dup6\n        /* \"remix/contracts/Handshaker.sol\":1035:1063  Candidates[candidateAddress] */\n      0xffffffffffffffffffffffffffffffffffffffff\n      and\n      0xffffffffffffffffffffffffffffffffffffffff\n      and\n      dup2\n      mstore\n      0x20\n      add\n      swap1\n      dup2\n      mstore\n      0x20\n      add\n      0x00\n      keccak256\n      0x00\n      swap1\n      sload\n      swap1\n      0x0100\n      exp\n      swap1\n      div\n      0xff\n      and\n        /* \"remix/contracts/Handshaker.sol\":1035:1068  Candidates[candidateAddress] == r */\n      0x04\n      dup2\n      gt\n      iszero\n      tag_118\n      jumpi\n      tag_119\n      tag_94\n      jump\t// in\n    tag_119:\n    tag_118:\n      eq\n        /* \"remix/contracts/Handshaker.sol\":1028:1068  return Candidates[candidateAddress] == r */\n      swap1\n      pop\n        /* \"remix/contracts/Handshaker.sol\":932:1075  function Has_Candidate(address candidateAddress, relation r) public view returns(bool){... */\n      swap3\n      swap2\n      pop\n      pop\n      jump\t// out\n        /* \"remix/contracts/Ownable.sol\":295:390  function ChangeOwnership(address newOwner) public  onlyOwner{... */\n    tag_36:\n        /* \"remix/contracts/Ownable.sol\":237:242  owner */\n      0x00\n      dup1\n      sload\n      swap1\n      0x0100\n      exp\n      swap1\n      div\n      0xffffffffffffffffffffffffffffffffffffffff\n      and\n        /* \"remix/contracts/Ownable.sol\":223:242  msg.sender == owner */\n      0xffffffffffffffffffffffffffffffffffffffff\n      and\n        /* \"remix/contracts/Ownable.sol\":223:233  msg.sender */\n      caller\n        /* \"remix/contracts/Ownable.sol\":223:242  msg.sender == owner */\n      0xffffffffffffffffffffffffffffffffffffffff\n      and\n      eq\n        /* \"remix/contracts/Ownable.sol\":215:267  require(msg.sender == owner, 'caller must be owner') */\n      tag_121\n      jumpi\n      mload(0x40)\n      0x08c379a000000000000000000000000000000000000000000000000000000000\n      dup2\n      mstore\n      0x04\n      add\n      tag_122\n      swap1\n      tag_123\n      jump\t// in\n    tag_122:\n      mload(0x40)\n      dup1\n      swap2\n      sub\n      swap1\n      revert\n    tag_121:\n        /* \"remix/contracts/Ownable.sol\":374:382  newOwner */\n      dup1\n        /* \"remix/contracts/Ownable.sol\":366:371  owner */\n      0x00\n      dup1\n        /* \"remix/contracts/Ownable.sol\":366:382  owner = newOwner */\n      0x0100\n      exp\n      dup2\n      sload\n      dup2\n      0xffffffffffffffffffffffffffffffffffffffff\n      mul\n      not\n      and\n      swap1\n      dup4\n      0xffffffffffffffffffffffffffffffffffffffff\n      and\n      mul\n      or\n      swap1\n      sstore\n      pop\n        /* \"remix/contracts/Ownable.sol\":295:390  function ChangeOwnership(address newOwner) public  onlyOwner{... */\n      pop\n      jump\t// out\n        /* \"remix/contracts/Label.sol\":550:634  function Get_Name() public view returns(string memory){... */\n    tag_38:\n        /* \"remix/contracts/Label.sol\":590:603  string memory */\n      0x60\n        /* \"remix/contracts/Label.sol\":622:626  Name */\n      0x05\n        /* \"remix/contracts/Label.sol\":615:626  return Name */\n      dup1\n      sload\n      tag_126\n      swap1\n      tag_127\n      jump\t// in\n    tag_126:\n      dup1\n      0x1f\n      add\n      0x20\n      dup1\n      swap2\n      div\n      mul\n      0x20\n      add\n      mload(0x40)\n      swap1\n      dup2\n      add\n      0x40\n      mstore\n      dup1\n      swap3\n      swap2\n      swap1\n      dup2\n      dup2\n      mstore\n      0x20\n      add\n      dup3\n      dup1\n      sload\n      tag_128\n      swap1\n      tag_127\n      jump\t// in\n    tag_128:\n      dup1\n      iszero\n      tag_129\n      jumpi\n      dup1\n      0x1f\n      lt\n      tag_130\n      jumpi\n      0x0100\n      dup1\n      dup4\n      sload\n      div\n      mul\n      dup4\n      mstore\n      swap2\n      0x20\n      add\n      swap2\n      jump(tag_129)\n    tag_130:\n      dup3\n      add\n      swap2\n      swap1\n      0x00\n      mstore\n      keccak256(0x00, 0x20)\n      swap1\n    tag_131:\n      dup2\n      sload\n      dup2\n      mstore\n      swap1\n      0x01\n      add\n      swap1\n      0x20\n      add\n      dup1\n      dup4\n      gt\n      tag_131\n      jumpi\n      dup3\n      swap1\n      sub\n      0x1f\n      and\n      dup3\n      add\n      swap2\n    tag_129:\n      pop\n      pop\n      pop\n      pop\n      pop\n      swap1\n      pop\n        /* \"remix/contracts/Label.sol\":550:634  function Get_Name() public view returns(string memory){... */\n      swap1\n      jump\t// out\n        /* \"remix/contracts/Handshaker.sol\":608:694  function Get_Owner() external view returns(address owner){... */\n    tag_42:\n        /* \"remix/contracts/Handshaker.sol\":651:664  address owner */\n      0x00\n        /* \"remix/contracts/Handshaker.sol\":682:687  Owner */\n      0x01\n      0x00\n      swap1\n      sload\n      swap1\n      0x0100\n      exp\n      swap1\n      div\n      0xffffffffffffffffffffffffffffffffffffffff\n      and\n        /* \"remix/contracts/Handshaker.sol\":675:687  return Owner */\n      swap1\n      pop\n        /* \"remix/contracts/Handshaker.sol\":608:694  function Get_Owner() external view returns(address owner){... */\n      swap1\n      jump\t// out\n        /* \"remix/contracts/Handshaker.sol\":1835:1922  function Delete_Id(relation r, uint index) public {... */\n    tag_48:\n        /* \"remix/contracts/Handshaker.sol\":1902:1905  Ids */\n      0x03\n        /* \"remix/contracts/Handshaker.sol\":1902:1908  Ids[r] */\n      0x00\n        /* \"remix/contracts/Handshaker.sol\":1906:1907  r */\n      dup4\n        /* \"remix/contracts/Handshaker.sol\":1902:1908  Ids[r] */\n      0x04\n      dup2\n      gt\n      iszero\n      tag_134\n      jumpi\n      tag_135\n      tag_94\n      jump\t// in\n    tag_135:\n    tag_134:\n      0x04\n      dup2\n      gt\n      iszero\n      tag_136\n      jumpi\n      tag_137\n      tag_94\n      jump\t// in\n    tag_137:\n    tag_136:\n      dup2\n      mstore\n      0x20\n      add\n      swap1\n      dup2\n      mstore\n      0x20\n      add\n      0x00\n      keccak256\n        /* \"remix/contracts/Handshaker.sol\":1909:1914  index */\n      dup2\n        /* \"remix/contracts/Handshaker.sol\":1902:1915  Ids[r][index] */\n      dup2\n      sload\n      dup2\n      lt\n      tag_138\n      jumpi\n      tag_139\n      tag_140\n      jump\t// in\n    tag_139:\n    tag_138:\n      swap1\n      0x00\n      mstore\n      keccak256(0x00, 0x20)\n      add\n      0x00\n        /* \"remix/contracts/Handshaker.sol\":1895:1915  delete Ids[r][index] */\n      0x0100\n      exp\n      dup2\n      sload\n      swap1\n      0xffffffffffffffffffffffffffffffffffffffff\n      mul\n      not\n      and\n      swap1\n      sstore\n        /* \"remix/contracts/Handshaker.sol\":1835:1922  function Delete_Id(relation r, uint index) public {... */\n      pop\n      pop\n      jump\t// out\n        /* \"remix/contracts/Handshaker.sol\":804:902  function Add_Candidate(address addr, relation r) external{... */\n    tag_51:\n        /* \"remix/contracts/Handshaker.sol\":894:895  r */\n      dup1\n        /* \"remix/contracts/Handshaker.sol\":875:885  Candidates */\n      0x02\n        /* \"remix/contracts/Handshaker.sol\":875:891  Candidates[addr] */\n      0x00\n        /* \"remix/contracts/Handshaker.sol\":886:890  addr */\n      dup5\n        /* \"remix/contracts/Handshaker.sol\":875:891  Candidates[addr] */\n      0xffffffffffffffffffffffffffffffffffffffff\n      and\n      0xffffffffffffffffffffffffffffffffffffffff\n      and\n      dup2\n      mstore\n      0x20\n      add\n      swap1\n      dup2\n      mstore\n      0x20\n      add\n      0x00\n      keccak256\n      0x00\n        /* \"remix/contracts/Handshaker.sol\":875:895  Candidates[addr] = r */\n      0x0100\n      exp\n      dup2\n      sload\n      dup2\n      0xff\n      mul\n      not\n      and\n      swap1\n      dup4\n      0x04\n      dup2\n      gt\n      iszero\n      tag_143\n      jumpi\n      tag_144\n      tag_94\n      jump\t// in\n    tag_144:\n    tag_143:\n      mul\n      or\n      swap1\n      sstore\n      pop\n        /* \"remix/contracts/Handshaker.sol\":804:902  function Add_Candidate(address addr, relation r) external{... */\n      pop\n      pop\n      jump\t// out\n        /* \"remix/contracts/Ownable.sol\":97:117  address public owner */\n    tag_53:\n      0x00\n      dup1\n      sload\n      swap1\n      0x0100\n      exp\n      swap1\n      div\n      0xffffffffffffffffffffffffffffffffffffffff\n      and\n      dup2\n      jump\t// out\n        /* \"remix/contracts/Handshaker.sol\":700:798  function Get_Ids(relation r) external view returns(address[] memory){... */\n    tag_58:\n        /* \"remix/contracts/Handshaker.sol\":751:767  address[] memory */\n      0x60\n        /* \"remix/contracts/Handshaker.sol\":785:788  Ids */\n      0x03\n        /* \"remix/contracts/Handshaker.sol\":785:791  Ids[r] */\n      0x00\n        /* \"remix/contracts/Handshaker.sol\":789:790  r */\n      dup4\n        /* \"remix/contracts/Handshaker.sol\":785:791  Ids[r] */\n      0x04\n      dup2\n      gt\n      iszero\n      tag_146\n      jumpi\n      tag_147\n      tag_94\n      jump\t// in\n    tag_147:\n    tag_146:\n      0x04\n      dup2\n      gt\n      iszero\n      tag_148\n      jumpi\n      tag_149\n      tag_94\n      jump\t// in\n    tag_149:\n    tag_148:\n      dup2\n      mstore\n      0x20\n      add\n      swap1\n      dup2\n      mstore\n      0x20\n      add\n      0x00\n      keccak256\n        /* \"remix/contracts/Handshaker.sol\":778:791  return Ids[r] */\n      dup1\n      sload\n      dup1\n      0x20\n      mul\n      0x20\n      add\n      mload(0x40)\n      swap1\n      dup2\n      add\n      0x40\n      mstore\n      dup1\n      swap3\n      swap2\n      swap1\n      dup2\n      dup2\n      mstore\n      0x20\n      add\n      dup3\n      dup1\n      sload\n      dup1\n      iszero\n      tag_150\n      jumpi\n      0x20\n      mul\n      dup3\n      add\n      swap2\n      swap1\n      0x00\n      mstore\n      keccak256(0x00, 0x20)\n      swap1\n    tag_151:\n      dup2\n      0x00\n      swap1\n      sload\n      swap1\n      0x0100\n      exp\n      swap1\n      div\n      0xffffffffffffffffffffffffffffffffffffffff\n      and\n      0xffffffffffffffffffffffffffffffffffffffff\n      and\n      dup2\n      mstore\n      0x20\n      add\n      swap1\n      0x01\n      add\n      swap1\n      dup1\n      dup4\n      gt\n      tag_151\n      jumpi\n    tag_150:\n      pop\n      pop\n      pop\n      pop\n      pop\n      swap1\n      pop\n        /* \"remix/contracts/Handshaker.sol\":700:798  function Get_Ids(relation r) external view returns(address[] memory){... */\n      swap2\n      swap1\n      pop\n      jump\t// out\n        /* \"remix/contracts/Label.sol\":642:752  function Get_ProductIds() public view returns(address[] memory){... */\n    tag_62:\n        /* \"remix/contracts/Label.sol\":688:704  address[] memory */\n      0x60\n        /* \"remix/contracts/Label.sol\":723:726  Ids */\n      0x03\n        /* \"remix/contracts/Label.sol\":723:744  Ids[relation.PRODUCT] */\n      0x00\n        /* \"remix/contracts/Label.sol\":727:743  relation.PRODUCT */\n      0x04\n        /* \"remix/contracts/Label.sol\":723:744  Ids[relation.PRODUCT] */\n      dup1\n      dup2\n      gt\n      iszero\n      tag_153\n      jumpi\n      tag_154\n      tag_94\n      jump\t// in\n    tag_154:\n    tag_153:\n      0x04\n      dup2\n      gt\n      iszero\n      tag_155\n      jumpi\n      tag_156\n      tag_94\n      jump\t// in\n    tag_156:\n    tag_155:\n      dup2\n      mstore\n      0x20\n      add\n      swap1\n      dup2\n      mstore\n      0x20\n      add\n      0x00\n      keccak256\n        /* \"remix/contracts/Label.sol\":716:744  return Ids[relation.PRODUCT] */\n      dup1\n      sload\n      dup1\n      0x20\n      mul\n      0x20\n      add\n      mload(0x40)\n      swap1\n      dup2\n      add\n      0x40\n      mstore\n      dup1\n      swap3\n      swap2\n      swap1\n      dup2\n      dup2\n      mstore\n      0x20\n      add\n      dup3\n      dup1\n      sload\n      dup1\n      iszero\n      tag_157\n      jumpi\n      0x20\n      mul\n      dup3\n      add\n      swap2\n      swap1\n      0x00\n      mstore\n      keccak256(0x00, 0x20)\n      swap1\n    tag_158:\n      dup2\n      0x00\n      swap1\n      sload\n      swap1\n      0x0100\n      exp\n      swap1\n      div\n      0xffffffffffffffffffffffffffffffffffffffff\n      and\n      0xffffffffffffffffffffffffffffffffffffffff\n      and\n      dup2\n      mstore\n      0x20\n      add\n      swap1\n      0x01\n      add\n      swap1\n      dup1\n      dup4\n      gt\n      tag_158\n      jumpi\n    tag_157:\n      pop\n      pop\n      pop\n      pop\n      pop\n      swap1\n      pop\n        /* \"remix/contracts/Label.sol\":642:752  function Get_ProductIds() public view returns(address[] memory){... */\n      swap1\n      jump\t// out\n        /* \"remix/contracts/Label.sol\":760:861  function Get_IpfsAddress() external view returns(string memory){... */\n    tag_65:\n        /* \"remix/contracts/Label.sol\":809:822  string memory */\n      0x60\n        /* \"remix/contracts/Label.sol\":841:853  Ipfs_address */\n      0x06\n        /* \"remix/contracts/Label.sol\":834:853  return Ipfs_address */\n      dup1\n      sload\n      tag_160\n      swap1\n      tag_127\n      jump\t// in\n    tag_160:\n      dup1\n      0x1f\n      add\n      0x20\n      dup1\n      swap2\n      div\n      mul\n      0x20\n      add\n      mload(0x40)\n      swap1\n      dup2\n      add\n      0x40\n      mstore\n      dup1\n      swap3\n      swap2\n      swap1\n      dup2\n      dup2\n      mstore\n      0x20\n      add\n      dup3\n      dup1\n      sload\n      tag_161\n      swap1\n      tag_127\n      jump\t// in\n    tag_161:\n      dup1\n      iszero\n      tag_162\n      jumpi\n      dup1\n      0x1f\n      lt\n      tag_163\n      jumpi\n      0x0100\n      dup1\n      dup4\n      sload\n      div\n      mul\n      dup4\n      mstore\n      swap2\n      0x20\n      add\n      swap2\n      jump(tag_162)\n    tag_163:\n      dup3\n      add\n      swap2\n      swap1\n      0x00\n      mstore\n      keccak256(0x00, 0x20)\n      swap1\n    tag_164:\n      dup2\n      sload\n      dup2\n      mstore\n      swap1\n      0x01\n      add\n      swap1\n      0x20\n      add\n      dup1\n      dup4\n      gt\n      tag_164\n      jumpi\n      dup3\n      swap1\n      sub\n      0x1f\n      and\n      dup3\n      add\n      swap2\n    tag_162:\n      pop\n      pop\n      pop\n      pop\n      pop\n      swap1\n      pop\n        /* \"remix/contracts/Label.sol\":760:861  function Get_IpfsAddress() external view returns(string memory){... */\n      swap1\n      jump\t// out\n        /* \"remix/contracts/Handshaker.sol\":195:478  function reverseRelation(relation r) public pure returns(relation){... */\n    tag_69:\n        /* \"remix/contracts/Handshaker.sol\":252:260  relation */\n      0x00\n        /* \"remix/contracts/Handshaker.sol\":271:288  uint relation_int */\n      dup1\n        /* \"remix/contracts/Handshaker.sol\":296:297  r */\n      dup3\n        /* \"remix/contracts/Handshaker.sol\":291:298  uint(r) */\n      0x04\n      dup2\n      gt\n      iszero\n      tag_166\n      jumpi\n      tag_167\n      tag_94\n      jump\t// in\n    tag_167:\n    tag_166:\n        /* \"remix/contracts/Handshaker.sol\":271:298  uint relation_int = uint(r) */\n      swap1\n      pop\n        /* \"remix/contracts/Handshaker.sol\":330:331  0 */\n      0x00\n        /* \"remix/contracts/Handshaker.sol\":325:326  2 */\n      0x02\n        /* \"remix/contracts/Handshaker.sol\":312:324  relation_int */\n      dup3\n        /* \"remix/contracts/Handshaker.sol\":312:326  relation_int%2 */\n      tag_168\n      swap2\n      swap1\n      tag_169\n      jump\t// in\n    tag_168:\n        /* \"remix/contracts/Handshaker.sol\":312:331  relation_int%2 == 0 */\n      sub\n        /* \"remix/contracts/Handshaker.sol\":308:472  if (relation_int%2 == 0){ // if even... */\n      tag_170\n      jumpi\n        /* \"remix/contracts/Handshaker.sol\":388:389  1 */\n      0x01\n        /* \"remix/contracts/Handshaker.sol\":373:385  relation_int */\n      dup2\n        /* \"remix/contracts/Handshaker.sol\":373:389  relation_int - 1 */\n      tag_171\n      swap2\n      swap1\n      tag_172\n      jump\t// in\n    tag_171:\n        /* \"remix/contracts/Handshaker.sol\":364:390  relation(relation_int - 1) */\n      0x04\n      dup2\n      gt\n      iszero\n      tag_173\n      jumpi\n      tag_174\n      tag_94\n      jump\t// in\n    tag_174:\n    tag_173:\n        /* \"remix/contracts/Handshaker.sol\":357:390  return relation(relation_int - 1) */\n      swap2\n      pop\n      pop\n      jump(tag_165)\n        /* \"remix/contracts/Handshaker.sol\":308:472  if (relation_int%2 == 0){ // if even... */\n    tag_170:\n        /* \"remix/contracts/Handshaker.sol\":459:460  1 */\n      0x01\n        /* \"remix/contracts/Handshaker.sol\":444:456  relation_int */\n      dup2\n        /* \"remix/contracts/Handshaker.sol\":444:460  relation_int + 1 */\n      tag_176\n      swap2\n      swap1\n      tag_177\n      jump\t// in\n    tag_176:\n        /* \"remix/contracts/Handshaker.sol\":435:461  relation(relation_int + 1) */\n      0x04\n      dup2\n      gt\n      iszero\n      tag_178\n      jumpi\n      tag_179\n      tag_94\n      jump\t// in\n    tag_179:\n    tag_178:\n        /* \"remix/contracts/Handshaker.sol\":428:461  return relation(relation_int + 1) */\n      swap2\n      pop\n      pop\n        /* \"remix/contracts/Handshaker.sol\":195:478  function reverseRelation(relation r) public pure returns(relation){... */\n    tag_165:\n      swap2\n      swap1\n      pop\n      jump\t// out\n        /* \"remix/contracts/Handshaker.sol\":560:601  mapping(relation => address[]) public Ids */\n    tag_74:\n      mstore(0x20, 0x03)\n      dup2\n      0x00\n      mstore\n      keccak256(0x00, 0x40)\n      dup2\n      dup2\n      sload\n      dup2\n      lt\n      tag_180\n      jumpi\n      0x00\n      dup1\n      revert\n    tag_180:\n      swap1\n      0x00\n      mstore\n      keccak256(0x00, 0x20)\n      add\n      0x00\n      swap2\n      pop\n      swap2\n      pop\n      swap1\n      sload\n      swap1\n      0x0100\n      exp\n      swap1\n      div\n      0xffffffffffffffffffffffffffffffffffffffff\n      and\n      dup2\n      jump\t// out\n        /* \"remix/contracts/Label.sol\":432:542  function Set_IPFS(string calldata _ipfsAddress) public onlyOwner{... */\n    tag_79:\n        /* \"remix/contracts/Ownable.sol\":237:242  owner */\n      0x00\n      dup1\n      sload\n      swap1\n      0x0100\n      exp\n      swap1\n      div\n      0xffffffffffffffffffffffffffffffffffffffff\n      and\n        /* \"remix/contracts/Ownable.sol\":223:242  msg.sender == owner */\n      0xffffffffffffffffffffffffffffffffffffffff\n      and\n        /* \"remix/contracts/Ownable.sol\":223:233  msg.sender */\n      caller\n        /* \"remix/contracts/Ownable.sol\":223:242  msg.sender == owner */\n      0xffffffffffffffffffffffffffffffffffffffff\n      and\n      eq\n        /* \"remix/contracts/Ownable.sol\":215:267  require(msg.sender == owner, 'caller must be owner') */\n      tag_183\n      jumpi\n      mload(0x40)\n      0x08c379a000000000000000000000000000000000000000000000000000000000\n      dup2\n      mstore\n      0x04\n      add\n      tag_184\n      swap1\n      tag_123\n      jump\t// in\n    tag_184:\n      mload(0x40)\n      dup1\n      swap2\n      sub\n      swap1\n      revert\n    tag_183:\n        /* \"remix/contracts/Label.sol\":522:534  _ipfsAddress */\n      dup2\n      dup2\n        /* \"remix/contracts/Label.sol\":507:519  Ipfs_address */\n      0x06\n        /* \"remix/contracts/Label.sol\":507:534  Ipfs_address = _ipfsAddress */\n      swap2\n      dup3\n      tag_186\n      swap3\n      swap2\n      swap1\n      tag_187\n      jump\t// in\n    tag_186:\n      pop\n        /* \"remix/contracts/Label.sol\":432:542  function Set_IPFS(string calldata _ipfsAddress) public onlyOwner{... */\n      pop\n      pop\n      jump\t// out\n        /* \"remix/contracts/Handshaker.sol\":508:554  mapping(address => relation) public Candidates */\n    tag_82:\n      mstore(0x20, 0x02)\n      dup1\n      0x00\n      mstore\n      keccak256(0x00, 0x40)\n      0x00\n      swap2\n      pop\n      sload\n      swap1\n      0x0100\n      exp\n      swap1\n      div\n      0xff\n      and\n      dup2\n      jump\t// out\n        /* \"remix/contracts/Label.sol\":869:963  function Get_ImageCid() external view returns(string memory){... */\n    tag_85:\n        /* \"remix/contracts/Label.sol\":915:928  string memory */\n      0x60\n        /* \"remix/contracts/Label.sol\":947:955  ImageCid */\n      0x07\n        /* \"remix/contracts/Label.sol\":940:955  return ImageCid */\n      dup1\n      sload\n      tag_189\n      swap1\n      tag_127\n      jump\t// in\n    tag_189:\n      dup1\n      0x1f\n      add\n      0x20\n      dup1\n      swap2\n      div\n      mul\n      0x20\n      add\n      mload(0x40)\n      swap1\n      dup2\n      add\n      0x40\n      mstore\n      dup1\n      swap3\n      swap2\n      swap1\n      dup2\n      dup2\n      mstore\n      0x20\n      add\n      dup3\n      dup1\n      sload\n      tag_190\n      swap1\n      tag_127\n      jump\t// in\n    tag_190:\n      dup1\n      iszero\n      tag_191\n      jumpi\n      dup1\n      0x1f\n      lt\n      tag_192\n      jumpi\n      0x0100\n      dup1\n      dup4\n      sload\n      div\n      mul\n      dup4\n      mstore\n      swap2\n      0x20\n      add\n      swap2\n      jump(tag_191)\n    tag_192:\n      dup3\n      add\n      swap2\n      swap1\n      0x00\n      mstore\n      keccak256(0x00, 0x20)\n      swap1\n    tag_193:\n      dup2\n      sload\n      dup2\n      mstore\n      swap1\n      0x01\n      add\n      swap1\n      0x20\n      add\n      dup1\n      dup4\n      gt\n      tag_193\n      jumpi\n      dup3\n      swap1\n      sub\n      0x1f\n      and\n      dup3\n      add\n      swap2\n    tag_191:\n      pop\n      pop\n      pop\n      pop\n      pop\n      swap1\n      pop\n        /* \"remix/contracts/Label.sol\":869:963  function Get_ImageCid() external view returns(string memory){... */\n      swap1\n      jump\t// out\n        /* \"remix/contracts/Handshaker.sol\":1081:1328  function Accept_Candidate(relation r) public {... */\n    tag_89:\n        /* \"remix/contracts/Handshaker.sol\":1170:1188  reverseRelation(r) */\n      tag_195\n        /* \"remix/contracts/Handshaker.sol\":1186:1187  r */\n      dup2\n        /* \"remix/contracts/Handshaker.sol\":1170:1185  reverseRelation */\n      tag_69\n        /* \"remix/contracts/Handshaker.sol\":1170:1188  reverseRelation(r) */\n      jump\t// in\n    tag_195:\n        /* \"remix/contracts/Handshaker.sol\":1144:1188  Candidates[msg.sender] == reverseRelation(r) */\n      0x04\n      dup2\n      gt\n      iszero\n      tag_196\n      jumpi\n      tag_197\n      tag_94\n      jump\t// in\n    tag_197:\n    tag_196:\n        /* \"remix/contracts/Handshaker.sol\":1144:1154  Candidates */\n      0x02\n        /* \"remix/contracts/Handshaker.sol\":1144:1166  Candidates[msg.sender] */\n      0x00\n        /* \"remix/contracts/Handshaker.sol\":1155:1165  msg.sender */\n      caller\n        /* \"remix/contracts/Handshaker.sol\":1144:1166  Candidates[msg.sender] */\n      0xffffffffffffffffffffffffffffffffffffffff\n      and\n      0xffffffffffffffffffffffffffffffffffffffff\n      and\n      dup2\n      mstore\n      0x20\n      add\n      swap1\n      dup2\n      mstore\n      0x20\n      add\n      0x00\n      keccak256\n      0x00\n      swap1\n      sload\n      swap1\n      0x0100\n      exp\n      swap1\n      div\n      0xff\n      and\n        /* \"remix/contracts/Handshaker.sol\":1144:1188  Candidates[msg.sender] == reverseRelation(r) */\n      0x04\n      dup2\n      gt\n      iszero\n      tag_198\n      jumpi\n      tag_199\n      tag_94\n      jump\t// in\n    tag_199:\n    tag_198:\n      eq\n        /* \"remix/contracts/Handshaker.sol\":1136:1222  require(Candidates[msg.sender] == reverseRelation(r), \"Requestor is not a candidate.\") */\n      tag_200\n      jumpi\n      mload(0x40)\n      0x08c379a000000000000000000000000000000000000000000000000000000000\n      dup2\n      mstore\n      0x04\n      add\n      tag_201\n      swap1\n      tag_202\n      jump\t// in\n    tag_201:\n      mload(0x40)\n      dup1\n      swap2\n      sub\n      swap1\n      revert\n    tag_200:\n        /* \"remix/contracts/Handshaker.sol\":1257:1270  relation.NONE */\n      0x00\n        /* \"remix/contracts/Handshaker.sol\":1232:1242  Candidates */\n      0x02\n        /* \"remix/contracts/Handshaker.sol\":1232:1254  Candidates[msg.sender] */\n      0x00\n        /* \"remix/contracts/Handshaker.sol\":1243:1253  msg.sender */\n      caller\n        /* \"remix/contracts/Handshaker.sol\":1232:1254  Candidates[msg.sender] */\n      0xffffffffffffffffffffffffffffffffffffffff\n      and\n      0xffffffffffffffffffffffffffffffffffffffff\n      and\n      dup2\n      mstore\n      0x20\n      add\n      swap1\n      dup2\n      mstore\n      0x20\n      add\n      0x00\n      keccak256\n      0x00\n        /* \"remix/contracts/Handshaker.sol\":1232:1270  Candidates[msg.sender] = relation.NONE */\n      0x0100\n      exp\n      dup2\n      sload\n      dup2\n      0xff\n      mul\n      not\n      and\n      swap1\n      dup4\n      0x04\n      dup2\n      gt\n      iszero\n      tag_203\n      jumpi\n      tag_204\n      tag_94\n      jump\t// in\n    tag_204:\n    tag_203:\n      mul\n      or\n      swap1\n      sstore\n      pop\n        /* \"remix/contracts/Handshaker.sol\":1281:1284  Ids */\n      0x03\n        /* \"remix/contracts/Handshaker.sol\":1281:1304  Ids[reverseRelation(r)] */\n      0x00\n        /* \"remix/contracts/Handshaker.sol\":1285:1303  reverseRelation(r) */\n      tag_205\n        /* \"remix/contracts/Handshaker.sol\":1301:1302  r */\n      dup4\n        /* \"remix/contracts/Handshaker.sol\":1285:1300  reverseRelation */\n      tag_69\n        /* \"remix/contracts/Handshaker.sol\":1285:1303  reverseRelation(r) */\n      jump\t// in\n    tag_205:\n        /* \"remix/contracts/Handshaker.sol\":1281:1304  Ids[reverseRelation(r)] */\n      0x04\n      dup2\n      gt\n      iszero\n      tag_206\n      jumpi\n      tag_207\n      tag_94\n      jump\t// in\n    tag_207:\n    tag_206:\n      0x04\n      dup2\n      gt\n      iszero\n      tag_208\n      jumpi\n      tag_209\n      tag_94\n      jump\t// in\n    tag_209:\n    tag_208:\n      dup2\n      mstore\n      0x20\n      add\n      swap1\n      dup2\n      mstore\n      0x20\n      add\n      0x00\n      keccak256\n        /* \"remix/contracts/Handshaker.sol\":1310:1320  msg.sender */\n      caller\n        /* \"remix/contracts/Handshaker.sol\":1281:1321  Ids[reverseRelation(r)].push(msg.sender) */\n      swap1\n      dup1\n      0x01\n      dup2\n      sload\n      add\n      dup1\n      dup3\n      sstore\n      dup1\n      swap2\n      pop\n      pop\n      0x01\n      swap1\n      sub\n      swap1\n      0x00\n      mstore\n      keccak256(0x00, 0x20)\n      add\n      0x00\n      swap1\n      swap2\n      swap1\n      swap2\n      swap1\n      swap2\n      0x0100\n      exp\n      dup2\n      sload\n      dup2\n      0xffffffffffffffffffffffffffffffffffffffff\n      mul\n      not\n      and\n      swap1\n      dup4\n      0xffffffffffffffffffffffffffffffffffffffff\n      and\n      mul\n      or\n      swap1\n      sstore\n      pop\n        /* \"remix/contracts/Handshaker.sol\":1081:1328  function Accept_Candidate(relation r) public {... */\n      pop\n      jump\t// out\n        /* \"#utility.yul\":88:205   */\n    tag_212:\n        /* \"#utility.yul\":197:198   */\n      0x00\n        /* \"#utility.yul\":194:195   */\n      dup1\n        /* \"#utility.yul\":187:199   */\n      revert\n        /* \"#utility.yul\":211:328   */\n    tag_213:\n        /* \"#utility.yul\":320:321   */\n      0x00\n        /* \"#utility.yul\":317:318   */\n      dup1\n        /* \"#utility.yul\":310:322   */\n      revert\n        /* \"#utility.yul\":334:460   */\n    tag_214:\n        /* \"#utility.yul\":371:378   */\n      0x00\n        /* \"#utility.yul\":411:453   */\n      0xffffffffffffffffffffffffffffffffffffffff\n        /* \"#utility.yul\":404:409   */\n      dup3\n        /* \"#utility.yul\":400:454   */\n      and\n        /* \"#utility.yul\":389:454   */\n      swap1\n      pop\n        /* \"#utility.yul\":334:460   */\n      swap2\n      swap1\n      pop\n      jump\t// out\n        /* \"#utility.yul\":466:562   */\n    tag_215:\n        /* \"#utility.yul\":503:510   */\n      0x00\n        /* \"#utility.yul\":532:556   */\n      tag_277\n        /* \"#utility.yul\":550:555   */\n      dup3\n        /* \"#utility.yul\":532:556   */\n      tag_214\n      jump\t// in\n    tag_277:\n        /* \"#utility.yul\":521:556   */\n      swap1\n      pop\n        /* \"#utility.yul\":466:562   */\n      swap2\n      swap1\n      pop\n      jump\t// out\n        /* \"#utility.yul\":568:690   */\n    tag_216:\n        /* \"#utility.yul\":641:665   */\n      tag_279\n        /* \"#utility.yul\":659:664   */\n      dup2\n        /* \"#utility.yul\":641:665   */\n      tag_215\n      jump\t// in\n    tag_279:\n        /* \"#utility.yul\":634:639   */\n      dup2\n        /* \"#utility.yul\":631:666   */\n      eq\n        /* \"#utility.yul\":621:684   */\n      tag_280\n      jumpi\n        /* \"#utility.yul\":680:681   */\n      0x00\n        /* \"#utility.yul\":677:678   */\n      dup1\n        /* \"#utility.yul\":670:682   */\n      revert\n        /* \"#utility.yul\":621:684   */\n    tag_280:\n        /* \"#utility.yul\":568:690   */\n      pop\n      jump\t// out\n        /* \"#utility.yul\":696:835   */\n    tag_217:\n        /* \"#utility.yul\":742:747   */\n      0x00\n        /* \"#utility.yul\":780:786   */\n      dup2\n        /* \"#utility.yul\":767:787   */\n      calldataload\n        /* \"#utility.yul\":758:787   */\n      swap1\n      pop\n        /* \"#utility.yul\":796:829   */\n      tag_282\n        /* \"#utility.yul\":823:828   */\n      dup2\n        /* \"#utility.yul\":796:829   */\n      tag_216\n      jump\t// in\n    tag_282:\n        /* \"#utility.yul\":696:835   */\n      swap3\n      swap2\n      pop\n      pop\n      jump\t// out\n        /* \"#utility.yul\":841:950   */\n    tag_218:\n        /* \"#utility.yul\":924:925   */\n      0x05\n        /* \"#utility.yul\":917:922   */\n      dup2\n        /* \"#utility.yul\":914:926   */\n      lt\n        /* \"#utility.yul\":904:944   */\n      tag_284\n      jumpi\n        /* \"#utility.yul\":940:941   */\n      0x00\n        /* \"#utility.yul\":937:938   */\n      dup1\n        /* \"#utility.yul\":930:942   */\n      revert\n        /* \"#utility.yul\":904:944   */\n    tag_284:\n        /* \"#utility.yul\":841:950   */\n      pop\n      jump\t// out\n        /* \"#utility.yul\":956:1115   */\n    tag_219:\n        /* \"#utility.yul\":1012:1017   */\n      0x00\n        /* \"#utility.yul\":1050:1056   */\n      dup2\n        /* \"#utility.yul\":1037:1057   */\n      calldataload\n        /* \"#utility.yul\":1028:1057   */\n      swap1\n      pop\n        /* \"#utility.yul\":1066:1109   */\n      tag_286\n        /* \"#utility.yul\":1103:1108   */\n      dup2\n        /* \"#utility.yul\":1066:1109   */\n      tag_218\n      jump\t// in\n    tag_286:\n        /* \"#utility.yul\":956:1115   */\n      swap3\n      swap2\n      pop\n      pop\n      jump\t// out\n        /* \"#utility.yul\":1121:1615   */\n    tag_25:\n        /* \"#utility.yul\":1199:1205   */\n      0x00\n        /* \"#utility.yul\":1207:1213   */\n      dup1\n        /* \"#utility.yul\":1256:1258   */\n      0x40\n        /* \"#utility.yul\":1244:1253   */\n      dup4\n        /* \"#utility.yul\":1235:1242   */\n      dup6\n        /* \"#utility.yul\":1231:1254   */\n      sub\n        /* \"#utility.yul\":1227:1259   */\n      slt\n        /* \"#utility.yul\":1224:1343   */\n      iszero\n      tag_288\n      jumpi\n        /* \"#utility.yul\":1262:1341   */\n      tag_289\n      tag_212\n      jump\t// in\n    tag_289:\n        /* \"#utility.yul\":1224:1343   */\n    tag_288:\n        /* \"#utility.yul\":1382:1383   */\n      0x00\n        /* \"#utility.yul\":1407:1460   */\n      tag_290\n        /* \"#utility.yul\":1452:1459   */\n      dup6\n        /* \"#utility.yul\":1443:1449   */\n      dup3\n        /* \"#utility.yul\":1432:1441   */\n      dup7\n        /* \"#utility.yul\":1428:1450   */\n      add\n        /* \"#utility.yul\":1407:1460   */\n      tag_217\n      jump\t// in\n    tag_290:\n        /* \"#utility.yul\":1397:1460   */\n      swap3\n      pop\n        /* \"#utility.yul\":1353:1470   */\n      pop\n        /* \"#utility.yul\":1509:1511   */\n      0x20\n        /* \"#utility.yul\":1535:1598   */\n      tag_291\n        /* \"#utility.yul\":1590:1597   */\n      dup6\n        /* \"#utility.yul\":1581:1587   */\n      dup3\n        /* \"#utility.yul\":1570:1579   */\n      dup7\n        /* \"#utility.yul\":1566:1588   */\n      add\n        /* \"#utility.yul\":1535:1598   */\n      tag_219\n      jump\t// in\n    tag_291:\n        /* \"#utility.yul\":1525:1598   */\n      swap2\n      pop\n        /* \"#utility.yul\":1480:1608   */\n      pop\n        /* \"#utility.yul\":1121:1615   */\n      swap3\n      pop\n      swap3\n      swap1\n      pop\n      jump\t// out\n        /* \"#utility.yul\":1621:1711   */\n    tag_220:\n        /* \"#utility.yul\":1655:1662   */\n      0x00\n        /* \"#utility.yul\":1698:1703   */\n      dup2\n        /* \"#utility.yul\":1691:1704   */\n      iszero\n        /* \"#utility.yul\":1684:1705   */\n      iszero\n        /* \"#utility.yul\":1673:1705   */\n      swap1\n      pop\n        /* \"#utility.yul\":1621:1711   */\n      swap2\n      swap1\n      pop\n      jump\t// out\n        /* \"#utility.yul\":1717:1826   */\n    tag_221:\n        /* \"#utility.yul\":1798:1819   */\n      tag_294\n        /* \"#utility.yul\":1813:1818   */\n      dup2\n        /* \"#utility.yul\":1798:1819   */\n      tag_220\n      jump\t// in\n    tag_294:\n        /* \"#utility.yul\":1793:1796   */\n      dup3\n        /* \"#utility.yul\":1786:1820   */\n      mstore\n        /* \"#utility.yul\":1717:1826   */\n      pop\n      pop\n      jump\t// out\n        /* \"#utility.yul\":1832:2042   */\n    tag_28:\n        /* \"#utility.yul\":1919:1923   */\n      0x00\n        /* \"#utility.yul\":1957:1959   */\n      0x20\n        /* \"#utility.yul\":1946:1955   */\n      dup3\n        /* \"#utility.yul\":1942:1960   */\n      add\n        /* \"#utility.yul\":1934:1960   */\n      swap1\n      pop\n        /* \"#utility.yul\":1970:2035   */\n      tag_296\n        /* \"#utility.yul\":2032:2033   */\n      0x00\n        /* \"#utility.yul\":2021:2030   */\n      dup4\n        /* \"#utility.yul\":2017:2034   */\n      add\n        /* \"#utility.yul\":2008:2014   */\n      dup5\n        /* \"#utility.yul\":1970:2035   */\n      tag_221\n      jump\t// in\n    tag_296:\n        /* \"#utility.yul\":1832:2042   */\n      swap3\n      swap2\n      pop\n      pop\n      jump\t// out\n        /* \"#utility.yul\":2048:2377   */\n    tag_35:\n        /* \"#utility.yul\":2107:2113   */\n      0x00\n        /* \"#utility.yul\":2156:2158   */\n      0x20\n        /* \"#utility.yul\":2144:2153   */\n      dup3\n        /* \"#utility.yul\":2135:2142   */\n      dup5\n        /* \"#utility.yul\":2131:2154   */\n      sub\n        /* \"#utility.yul\":2127:2159   */\n      slt\n        /* \"#utility.yul\":2124:2243   */\n      iszero\n      tag_298\n      jumpi\n        /* \"#utility.yul\":2162:2241   */\n      tag_299\n      tag_212\n      jump\t// in\n    tag_299:\n        /* \"#utility.yul\":2124:2243   */\n    tag_298:\n        /* \"#utility.yul\":2282:2283   */\n      0x00\n        /* \"#utility.yul\":2307:2360   */\n      tag_300\n        /* \"#utility.yul\":2352:2359   */\n      dup5\n        /* \"#utility.yul\":2343:2349   */\n      dup3\n        /* \"#utility.yul\":2332:2341   */\n      dup6\n        /* \"#utility.yul\":2328:2350   */\n      add\n        /* \"#utility.yul\":2307:2360   */\n      tag_217\n      jump\t// in\n    tag_300:\n        /* \"#utility.yul\":2297:2360   */\n      swap2\n      pop\n        /* \"#utility.yul\":2253:2370   */\n      pop\n        /* \"#utility.yul\":2048:2377   */\n      swap3\n      swap2\n      pop\n      pop\n      jump\t// out\n        /* \"#utility.yul\":2383:2482   */\n    tag_222:\n        /* \"#utility.yul\":2435:2441   */\n      0x00\n        /* \"#utility.yul\":2469:2474   */\n      dup2\n        /* \"#utility.yul\":2463:2475   */\n      mload\n        /* \"#utility.yul\":2453:2475   */\n      swap1\n      pop\n        /* \"#utility.yul\":2383:2482   */\n      swap2\n      swap1\n      pop\n      jump\t// out\n        /* \"#utility.yul\":2488:2657   */\n    tag_223:\n        /* \"#utility.yul\":2572:2583   */\n      0x00\n        /* \"#utility.yul\":2606:2612   */\n      dup3\n        /* \"#utility.yul\":2601:2604   */\n      dup3\n        /* \"#utility.yul\":2594:2613   */\n      mstore\n        /* \"#utility.yul\":2646:2650   */\n      0x20\n        /* \"#utility.yul\":2641:2644   */\n      dup3\n        /* \"#utility.yul\":2637:2651   */\n      add\n        /* \"#utility.yul\":2622:2651   */\n      swap1\n      pop\n        /* \"#utility.yul\":2488:2657   */\n      swap3\n      swap2\n      pop\n      pop\n      jump\t// out\n        /* \"#utility.yul\":2663:2909   */\n    tag_224:\n        /* \"#utility.yul\":2744:2745   */\n      0x00\n        /* \"#utility.yul\":2754:2867   */\n    tag_304:\n        /* \"#utility.yul\":2768:2774   */\n      dup4\n        /* \"#utility.yul\":2765:2766   */\n      dup2\n        /* \"#utility.yul\":2762:2775   */\n      lt\n        /* \"#utility.yul\":2754:2867   */\n      iszero\n      tag_306\n      jumpi\n        /* \"#utility.yul\":2853:2854   */\n      dup1\n        /* \"#utility.yul\":2848:2851   */\n      dup3\n        /* \"#utility.yul\":2844:2855   */\n      add\n        /* \"#utility.yul\":2838:2856   */\n      mload\n        /* \"#utility.yul\":2834:2835   */\n      dup2\n        /* \"#utility.yul\":2829:2832   */\n      dup5\n        /* \"#utility.yul\":2825:2836   */\n      add\n        /* \"#utility.yul\":2818:2857   */\n      mstore\n        /* \"#utility.yul\":2790:2792   */\n      0x20\n        /* \"#utility.yul\":2787:2788   */\n      dup2\n        /* \"#utility.yul\":2783:2793   */\n      add\n        /* \"#utility.yul\":2778:2793   */\n      swap1\n      pop\n        /* \"#utility.yul\":2754:2867   */\n      jump(tag_304)\n    tag_306:\n        /* \"#utility.yul\":2901:2902   */\n      0x00\n        /* \"#utility.yul\":2892:2898   */\n      dup5\n        /* \"#utility.yul\":2887:2890   */\n      dup5\n        /* \"#utility.yul\":2883:2899   */\n      add\n        /* \"#utility.yul\":2876:2903   */\n      mstore\n        /* \"#utility.yul\":2725:2909   */\n      pop\n        /* \"#utility.yul\":2663:2909   */\n      pop\n      pop\n      pop\n      jump\t// out\n        /* \"#utility.yul\":2915:3017   */\n    tag_225:\n        /* \"#utility.yul\":2956:2962   */\n      0x00\n        /* \"#utility.yul\":3007:3009   */\n      0x1f\n        /* \"#utility.yul\":3003:3010   */\n      not\n        /* \"#utility.yul\":2998:3000   */\n      0x1f\n        /* \"#utility.yul\":2991:2996   */\n      dup4\n        /* \"#utility.yul\":2987:3001   */\n      add\n        /* \"#utility.yul\":2983:3011   */\n      and\n        /* \"#utility.yul\":2973:3011   */\n      swap1\n      pop\n        /* \"#utility.yul\":2915:3017   */\n      swap2\n      swap1\n      pop\n      jump\t// out\n        /* \"#utility.yul\":3023:3400   */\n    tag_226:\n        /* \"#utility.yul\":3111:3114   */\n      0x00\n        /* \"#utility.yul\":3139:3178   */\n      tag_309\n        /* \"#utility.yul\":3172:3177   */\n      dup3\n        /* \"#utility.yul\":3139:3178   */\n      tag_222\n      jump\t// in\n    tag_309:\n        /* \"#utility.yul\":3194:3265   */\n      tag_310\n        /* \"#utility.yul\":3258:3264   */\n      dup2\n        /* \"#utility.yul\":3253:3256   */\n      dup6\n        /* \"#utility.yul\":3194:3265   */\n      tag_223\n      jump\t// in\n    tag_310:\n        /* \"#utility.yul\":3187:3265   */\n      swap4\n      pop\n        /* \"#utility.yul\":3274:3339   */\n      tag_311\n        /* \"#utility.yul\":3332:3338   */\n      dup2\n        /* \"#utility.yul\":3327:3330   */\n      dup6\n        /* \"#utility.yul\":3320:3324   */\n      0x20\n        /* \"#utility.yul\":3313:3318   */\n      dup7\n        /* \"#utility.yul\":3309:3325   */\n      add\n        /* \"#utility.yul\":3274:3339   */\n      tag_224\n      jump\t// in\n    tag_311:\n        /* \"#utility.yul\":3364:3393   */\n      tag_312\n        /* \"#utility.yul\":3386:3392   */\n      dup2\n        /* \"#utility.yul\":3364:3393   */\n      tag_225\n      jump\t// in\n    tag_312:\n        /* \"#utility.yul\":3359:3362   */\n      dup5\n        /* \"#utility.yul\":3355:3394   */\n      add\n        /* \"#utility.yul\":3348:3394   */\n      swap2\n      pop\n        /* \"#utility.yul\":3115:3400   */\n      pop\n        /* \"#utility.yul\":3023:3400   */\n      swap3\n      swap2\n      pop\n      pop\n      jump\t// out\n        /* \"#utility.yul\":3406:3719   */\n    tag_40:\n        /* \"#utility.yul\":3519:3523   */\n      0x00\n        /* \"#utility.yul\":3557:3559   */\n      0x20\n        /* \"#utility.yul\":3546:3555   */\n      dup3\n        /* \"#utility.yul\":3542:3560   */\n      add\n        /* \"#utility.yul\":3534:3560   */\n      swap1\n      pop\n        /* \"#utility.yul\":3606:3615   */\n      dup2\n        /* \"#utility.yul\":3600:3604   */\n      dup2\n        /* \"#utility.yul\":3596:3616   */\n      sub\n        /* \"#utility.yul\":3592:3593   */\n      0x00\n        /* \"#utility.yul\":3581:3590   */\n      dup4\n        /* \"#utility.yul\":3577:3594   */\n      add\n        /* \"#utility.yul\":3570:3617   */\n      mstore\n        /* \"#utility.yul\":3634:3712   */\n      tag_314\n        /* \"#utility.yul\":3707:3711   */\n      dup2\n        /* \"#utility.yul\":3698:3704   */\n      dup5\n        /* \"#utility.yul\":3634:3712   */\n      tag_226\n      jump\t// in\n    tag_314:\n        /* \"#utility.yul\":3626:3712   */\n      swap1\n      pop\n        /* \"#utility.yul\":3406:3719   */\n      swap3\n      swap2\n      pop\n      pop\n      jump\t// out\n        /* \"#utility.yul\":3725:3843   */\n    tag_227:\n        /* \"#utility.yul\":3812:3836   */\n      tag_316\n        /* \"#utility.yul\":3830:3835   */\n      dup2\n        /* \"#utility.yul\":3812:3836   */\n      tag_215\n      jump\t// in\n    tag_316:\n        /* \"#utility.yul\":3807:3810   */\n      dup3\n        /* \"#utility.yul\":3800:3837   */\n      mstore\n        /* \"#utility.yul\":3725:3843   */\n      pop\n      pop\n      jump\t// out\n        /* \"#utility.yul\":3849:4071   */\n    tag_44:\n        /* \"#utility.yul\":3942:3946   */\n      0x00\n        /* \"#utility.yul\":3980:3982   */\n      0x20\n        /* \"#utility.yul\":3969:3978   */\n      dup3\n        /* \"#utility.yul\":3965:3983   */\n      add\n        /* \"#utility.yul\":3957:3983   */\n      swap1\n      pop\n        /* \"#utility.yul\":3993:4064   */\n      tag_318\n        /* \"#utility.yul\":4061:4062   */\n      0x00\n        /* \"#utility.yul\":4050:4059   */\n      dup4\n        /* \"#utility.yul\":4046:4063   */\n      add\n        /* \"#utility.yul\":4037:4043   */\n      dup5\n        /* \"#utility.yul\":3993:4064   */\n      tag_227\n      jump\t// in\n    tag_318:\n        /* \"#utility.yul\":3849:4071   */\n      swap3\n      swap2\n      pop\n      pop\n      jump\t// out\n        /* \"#utility.yul\":4077:4154   */\n    tag_228:\n        /* \"#utility.yul\":4114:4121   */\n      0x00\n        /* \"#utility.yul\":4143:4148   */\n      dup2\n        /* \"#utility.yul\":4132:4148   */\n      swap1\n      pop\n        /* \"#utility.yul\":4077:4154   */\n      swap2\n      swap1\n      pop\n      jump\t// out\n        /* \"#utility.yul\":4160:4282   */\n    tag_229:\n        /* \"#utility.yul\":4233:4257   */\n      tag_321\n        /* \"#utility.yul\":4251:4256   */\n      dup2\n        /* \"#utility.yul\":4233:4257   */\n      tag_228\n      jump\t// in\n    tag_321:\n        /* \"#utility.yul\":4226:4231   */\n      dup2\n        /* \"#utility.yul\":4223:4258   */\n      eq\n        /* \"#utility.yul\":4213:4276   */\n      tag_322\n      jumpi\n        /* \"#utility.yul\":4272:4273   */\n      0x00\n        /* \"#utility.yul\":4269:4270   */\n      dup1\n        /* \"#utility.yul\":4262:4274   */\n      revert\n        /* \"#utility.yul\":4213:4276   */\n    tag_322:\n        /* \"#utility.yul\":4160:4282   */\n      pop\n      jump\t// out\n        /* \"#utility.yul\":4288:4427   */\n    tag_230:\n        /* \"#utility.yul\":4334:4339   */\n      0x00\n        /* \"#utility.yul\":4372:4378   */\n      dup2\n        /* \"#utility.yul\":4359:4379   */\n      calldataload\n        /* \"#utility.yul\":4350:4379   */\n      swap1\n      pop\n        /* \"#utility.yul\":4388:4421   */\n      tag_324\n        /* \"#utility.yul\":4415:4420   */\n      dup2\n        /* \"#utility.yul\":4388:4421   */\n      tag_229\n      jump\t// in\n    tag_324:\n        /* \"#utility.yul\":4288:4427   */\n      swap3\n      swap2\n      pop\n      pop\n      jump\t// out\n        /* \"#utility.yul\":4433:4927   */\n    tag_47:\n        /* \"#utility.yul\":4511:4517   */\n      0x00\n        /* \"#utility.yul\":4519:4525   */\n      dup1\n        /* \"#utility.yul\":4568:4570   */\n      0x40\n        /* \"#utility.yul\":4556:4565   */\n      dup4\n        /* \"#utility.yul\":4547:4554   */\n      dup6\n        /* \"#utility.yul\":4543:4566   */\n      sub\n        /* \"#utility.yul\":4539:4571   */\n      slt\n        /* \"#utility.yul\":4536:4655   */\n      iszero\n      tag_326\n      jumpi\n        /* \"#utility.yul\":4574:4653   */\n      tag_327\n      tag_212\n      jump\t// in\n    tag_327:\n        /* \"#utility.yul\":4536:4655   */\n    tag_326:\n        /* \"#utility.yul\":4694:4695   */\n      0x00\n        /* \"#utility.yul\":4719:4782   */\n      tag_328\n        /* \"#utility.yul\":4774:4781   */\n      dup6\n        /* \"#utility.yul\":4765:4771   */\n      dup3\n        /* \"#utility.yul\":4754:4763   */\n      dup7\n        /* \"#utility.yul\":4750:4772   */\n      add\n        /* \"#utility.yul\":4719:4782   */\n      tag_219\n      jump\t// in\n    tag_328:\n        /* \"#utility.yul\":4709:4782   */\n      swap3\n      pop\n        /* \"#utility.yul\":4665:4792   */\n      pop\n        /* \"#utility.yul\":4831:4833   */\n      0x20\n        /* \"#utility.yul\":4857:4910   */\n      tag_329\n        /* \"#utility.yul\":4902:4909   */\n      dup6\n        /* \"#utility.yul\":4893:4899   */\n      dup3\n        /* \"#utility.yul\":4882:4891   */\n      dup7\n        /* \"#utility.yul\":4878:4900   */\n      add\n        /* \"#utility.yul\":4857:4910   */\n      tag_230\n      jump\t// in\n    tag_329:\n        /* \"#utility.yul\":4847:4910   */\n      swap2\n      pop\n        /* \"#utility.yul\":4802:4920   */\n      pop\n        /* \"#utility.yul\":4433:4927   */\n      swap3\n      pop\n      swap3\n      swap1\n      pop\n      jump\t// out\n        /* \"#utility.yul\":4933:5282   */\n    tag_57:\n        /* \"#utility.yul\":5002:5008   */\n      0x00\n        /* \"#utility.yul\":5051:5053   */\n      0x20\n        /* \"#utility.yul\":5039:5048   */\n      dup3\n        /* \"#utility.yul\":5030:5037   */\n      dup5\n        /* \"#utility.yul\":5026:5049   */\n      sub\n        /* \"#utility.yul\":5022:5054   */\n      slt\n        /* \"#utility.yul\":5019:5138   */\n      iszero\n      tag_331\n      jumpi\n        /* \"#utility.yul\":5057:5136   */\n      tag_332\n      tag_212\n      jump\t// in\n    tag_332:\n        /* \"#utility.yul\":5019:5138   */\n    tag_331:\n        /* \"#utility.yul\":5177:5178   */\n      0x00\n        /* \"#utility.yul\":5202:5265   */\n      tag_333\n        /* \"#utility.yul\":5257:5264   */\n      dup5\n        /* \"#utility.yul\":5248:5254   */\n      dup3\n        /* \"#utility.yul\":5237:5246   */\n      dup6\n        /* \"#utility.yul\":5233:5255   */\n      add\n        /* \"#utility.yul\":5202:5265   */\n      tag_219\n      jump\t// in\n    tag_333:\n        /* \"#utility.yul\":5192:5265   */\n      swap2\n      pop\n        /* \"#utility.yul\":5148:5275   */\n      pop\n        /* \"#utility.yul\":4933:5282   */\n      swap3\n      swap2\n      pop\n      pop\n      jump\t// out\n        /* \"#utility.yul\":5288:5402   */\n    tag_231:\n        /* \"#utility.yul\":5355:5361   */\n      0x00\n        /* \"#utility.yul\":5389:5394   */\n      dup2\n        /* \"#utility.yul\":5383:5395   */\n      mload\n        /* \"#utility.yul\":5373:5395   */\n      swap1\n      pop\n        /* \"#utility.yul\":5288:5402   */\n      swap2\n      swap1\n      pop\n      jump\t// out\n        /* \"#utility.yul\":5408:5592   */\n    tag_232:\n        /* \"#utility.yul\":5507:5518   */\n      0x00\n        /* \"#utility.yul\":5541:5547   */\n      dup3\n        /* \"#utility.yul\":5536:5539   */\n      dup3\n        /* \"#utility.yul\":5529:5548   */\n      mstore\n        /* \"#utility.yul\":5581:5585   */\n      0x20\n        /* \"#utility.yul\":5576:5579   */\n      dup3\n        /* \"#utility.yul\":5572:5586   */\n      add\n        /* \"#utility.yul\":5557:5586   */\n      swap1\n      pop\n        /* \"#utility.yul\":5408:5592   */\n      swap3\n      swap2\n      pop\n      pop\n      jump\t// out\n        /* \"#utility.yul\":5598:5730   */\n    tag_233:\n        /* \"#utility.yul\":5665:5669   */\n      0x00\n        /* \"#utility.yul\":5688:5691   */\n      dup2\n        /* \"#utility.yul\":5680:5691   */\n      swap1\n      pop\n        /* \"#utility.yul\":5718:5722   */\n      0x20\n        /* \"#utility.yul\":5713:5716   */\n      dup3\n        /* \"#utility.yul\":5709:5723   */\n      add\n        /* \"#utility.yul\":5701:5723   */\n      swap1\n      pop\n        /* \"#utility.yul\":5598:5730   */\n      swap2\n      swap1\n      pop\n      jump\t// out\n        /* \"#utility.yul\":5736:5844   */\n    tag_234:\n        /* \"#utility.yul\":5813:5837   */\n      tag_338\n        /* \"#utility.yul\":5831:5836   */\n      dup2\n        /* \"#utility.yul\":5813:5837   */\n      tag_215\n      jump\t// in\n    tag_338:\n        /* \"#utility.yul\":5808:5811   */\n      dup3\n        /* \"#utility.yul\":5801:5838   */\n      mstore\n        /* \"#utility.yul\":5736:5844   */\n      pop\n      pop\n      jump\t// out\n        /* \"#utility.yul\":5850:6029   */\n    tag_235:\n        /* \"#utility.yul\":5919:5929   */\n      0x00\n        /* \"#utility.yul\":5940:5986   */\n      tag_340\n        /* \"#utility.yul\":5982:5985   */\n      dup4\n        /* \"#utility.yul\":5974:5980   */\n      dup4\n        /* \"#utility.yul\":5940:5986   */\n      tag_234\n      jump\t// in\n    tag_340:\n        /* \"#utility.yul\":6018:6022   */\n      0x20\n        /* \"#utility.yul\":6013:6016   */\n      dup4\n        /* \"#utility.yul\":6009:6023   */\n      add\n        /* \"#utility.yul\":5995:6023   */\n      swap1\n      pop\n        /* \"#utility.yul\":5850:6029   */\n      swap3\n      swap2\n      pop\n      pop\n      jump\t// out\n        /* \"#utility.yul\":6035:6148   */\n    tag_236:\n        /* \"#utility.yul\":6105:6109   */\n      0x00\n        /* \"#utility.yul\":6137:6141   */\n      0x20\n        /* \"#utility.yul\":6132:6135   */\n      dup3\n        /* \"#utility.yul\":6128:6142   */\n      add\n        /* \"#utility.yul\":6120:6142   */\n      swap1\n      pop\n        /* \"#utility.yul\":6035:6148   */\n      swap2\n      swap1\n      pop\n      jump\t// out\n        /* \"#utility.yul\":6184:6916   */\n    tag_237:\n        /* \"#utility.yul\":6303:6306   */\n      0x00\n        /* \"#utility.yul\":6332:6386   */\n      tag_343\n        /* \"#utility.yul\":6380:6385   */\n      dup3\n        /* \"#utility.yul\":6332:6386   */\n      tag_231\n      jump\t// in\n    tag_343:\n        /* \"#utility.yul\":6402:6488   */\n      tag_344\n        /* \"#utility.yul\":6481:6487   */\n      dup2\n        /* \"#utility.yul\":6476:6479   */\n      dup6\n        /* \"#utility.yul\":6402:6488   */\n      tag_232\n      jump\t// in\n    tag_344:\n        /* \"#utility.yul\":6395:6488   */\n      swap4\n      pop\n        /* \"#utility.yul\":6512:6568   */\n      tag_345\n        /* \"#utility.yul\":6562:6567   */\n      dup4\n        /* \"#utility.yul\":6512:6568   */\n      tag_233\n      jump\t// in\n    tag_345:\n        /* \"#utility.yul\":6591:6598   */\n      dup1\n        /* \"#utility.yul\":6622:6623   */\n      0x00\n        /* \"#utility.yul\":6607:6891   */\n    tag_346:\n        /* \"#utility.yul\":6632:6638   */\n      dup4\n        /* \"#utility.yul\":6629:6630   */\n      dup2\n        /* \"#utility.yul\":6626:6639   */\n      lt\n        /* \"#utility.yul\":6607:6891   */\n      iszero\n      tag_348\n      jumpi\n        /* \"#utility.yul\":6708:6714   */\n      dup2\n        /* \"#utility.yul\":6702:6715   */\n      mload\n        /* \"#utility.yul\":6735:6798   */\n      tag_349\n        /* \"#utility.yul\":6794:6797   */\n      dup9\n        /* \"#utility.yul\":6779:6792   */\n      dup3\n        /* \"#utility.yul\":6735:6798   */\n      tag_235\n      jump\t// in\n    tag_349:\n        /* \"#utility.yul\":6728:6798   */\n      swap8\n      pop\n        /* \"#utility.yul\":6821:6881   */\n      tag_350\n        /* \"#utility.yul\":6874:6880   */\n      dup4\n        /* \"#utility.yul\":6821:6881   */\n      tag_236\n      jump\t// in\n    tag_350:\n        /* \"#utility.yul\":6811:6881   */\n      swap3\n      pop\n        /* \"#utility.yul\":6667:6891   */\n      pop\n        /* \"#utility.yul\":6654:6655   */\n      0x01\n        /* \"#utility.yul\":6651:6652   */\n      dup2\n        /* \"#utility.yul\":6647:6656   */\n      add\n        /* \"#utility.yul\":6642:6656   */\n      swap1\n      pop\n        /* \"#utility.yul\":6607:6891   */\n      jump(tag_346)\n    tag_348:\n        /* \"#utility.yul\":6611:6625   */\n      pop\n        /* \"#utility.yul\":6907:6910   */\n      dup6\n        /* \"#utility.yul\":6900:6910   */\n      swap4\n      pop\n        /* \"#utility.yul\":6308:6916   */\n      pop\n      pop\n      pop\n        /* \"#utility.yul\":6184:6916   */\n      swap3\n      swap2\n      pop\n      pop\n      jump\t// out\n        /* \"#utility.yul\":6922:7295   */\n    tag_60:\n        /* \"#utility.yul\":7065:7069   */\n      0x00\n        /* \"#utility.yul\":7103:7105   */\n      0x20\n        /* \"#utility.yul\":7092:7101   */\n      dup3\n        /* \"#utility.yul\":7088:7106   */\n      add\n        /* \"#utility.yul\":7080:7106   */\n      swap1\n      pop\n        /* \"#utility.yul\":7152:7161   */\n      dup2\n        /* \"#utility.yul\":7146:7150   */\n      dup2\n        /* \"#utility.yul\":7142:7162   */\n      sub\n        /* \"#utility.yul\":7138:7139   */\n      0x00\n        /* \"#utility.yul\":7127:7136   */\n      dup4\n        /* \"#utility.yul\":7123:7140   */\n      add\n        /* \"#utility.yul\":7116:7163   */\n      mstore\n        /* \"#utility.yul\":7180:7288   */\n      tag_352\n        /* \"#utility.yul\":7283:7287   */\n      dup2\n        /* \"#utility.yul\":7274:7280   */\n      dup5\n        /* \"#utility.yul\":7180:7288   */\n      tag_237\n      jump\t// in\n    tag_352:\n        /* \"#utility.yul\":7172:7288   */\n      swap1\n      pop\n        /* \"#utility.yul\":6922:7295   */\n      swap3\n      swap2\n      pop\n      pop\n      jump\t// out\n        /* \"#utility.yul\":7301:7481   */\n    tag_94:\n        /* \"#utility.yul\":7349:7426   */\n      0x4e487b7100000000000000000000000000000000000000000000000000000000\n        /* \"#utility.yul\":7346:7347   */\n      0x00\n        /* \"#utility.yul\":7339:7427   */\n      mstore\n        /* \"#utility.yul\":7446:7450   */\n      0x21\n        /* \"#utility.yul\":7443:7444   */\n      0x04\n        /* \"#utility.yul\":7436:7451   */\n      mstore\n        /* \"#utility.yul\":7470:7474   */\n      0x24\n        /* \"#utility.yul\":7467:7468   */\n      0x00\n        /* \"#utility.yul\":7460:7475   */\n      revert\n        /* \"#utility.yul\":7487:7602   */\n    tag_238:\n        /* \"#utility.yul\":7570:7571   */\n      0x05\n        /* \"#utility.yul\":7563:7568   */\n      dup2\n        /* \"#utility.yul\":7560:7572   */\n      lt\n        /* \"#utility.yul\":7550:7596   */\n      tag_355\n      jumpi\n        /* \"#utility.yul\":7576:7594   */\n      tag_356\n      tag_94\n      jump\t// in\n    tag_356:\n        /* \"#utility.yul\":7550:7596   */\n    tag_355:\n        /* \"#utility.yul\":7487:7602   */\n      pop\n      jump\t// out\n        /* \"#utility.yul\":7608:7739   */\n    tag_239:\n        /* \"#utility.yul\":7655:7662   */\n      0x00\n        /* \"#utility.yul\":7684:7689   */\n      dup2\n        /* \"#utility.yul\":7673:7689   */\n      swap1\n      pop\n        /* \"#utility.yul\":7690:7733   */\n      tag_358\n        /* \"#utility.yul\":7727:7732   */\n      dup3\n        /* \"#utility.yul\":7690:7733   */\n      tag_238\n      jump\t// in\n    tag_358:\n        /* \"#utility.yul\":7608:7739   */\n      swap2\n      swap1\n      pop\n      jump\t// out\n        /* \"#utility.yul\":7745:7876   */\n    tag_240:\n        /* \"#utility.yul\":7803:7812   */\n      0x00\n        /* \"#utility.yul\":7836:7870   */\n      tag_360\n        /* \"#utility.yul\":7864:7869   */\n      dup3\n        /* \"#utility.yul\":7836:7870   */\n      tag_239\n      jump\t// in\n    tag_360:\n        /* \"#utility.yul\":7823:7870   */\n      swap1\n      pop\n        /* \"#utility.yul\":7745:7876   */\n      swap2\n      swap1\n      pop\n      jump\t// out\n        /* \"#utility.yul\":7882:8029   */\n    tag_241:\n        /* \"#utility.yul\":7977:8022   */\n      tag_362\n        /* \"#utility.yul\":8016:8021   */\n      dup2\n        /* \"#utility.yul\":7977:8022   */\n      tag_240\n      jump\t// in\n    tag_362:\n        /* \"#utility.yul\":7972:7975   */\n      dup3\n        /* \"#utility.yul\":7965:8023   */\n      mstore\n        /* \"#utility.yul\":7882:8029   */\n      pop\n      pop\n      jump\t// out\n        /* \"#utility.yul\":8035:8273   */\n    tag_71:\n        /* \"#utility.yul\":8136:8140   */\n      0x00\n        /* \"#utility.yul\":8174:8176   */\n      0x20\n        /* \"#utility.yul\":8163:8172   */\n      dup3\n        /* \"#utility.yul\":8159:8177   */\n      add\n        /* \"#utility.yul\":8151:8177   */\n      swap1\n      pop\n        /* \"#utility.yul\":8187:8266   */\n      tag_364\n        /* \"#utility.yul\":8263:8264   */\n      0x00\n        /* \"#utility.yul\":8252:8261   */\n      dup4\n        /* \"#utility.yul\":8248:8265   */\n      add\n        /* \"#utility.yul\":8239:8245   */\n      dup5\n        /* \"#utility.yul\":8187:8266   */\n      tag_241\n      jump\t// in\n    tag_364:\n        /* \"#utility.yul\":8035:8273   */\n      swap3\n      swap2\n      pop\n      pop\n      jump\t// out\n        /* \"#utility.yul\":8279:8396   */\n    tag_242:\n        /* \"#utility.yul\":8388:8389   */\n      0x00\n        /* \"#utility.yul\":8385:8386   */\n      dup1\n        /* \"#utility.yul\":8378:8390   */\n      revert\n        /* \"#utility.yul\":8402:8519   */\n    tag_243:\n        /* \"#utility.yul\":8511:8512   */\n      0x00\n        /* \"#utility.yul\":8508:8509   */\n      dup1\n        /* \"#utility.yul\":8501:8513   */\n      revert\n        /* \"#utility.yul\":8525:8642   */\n    tag_244:\n        /* \"#utility.yul\":8634:8635   */\n      0x00\n        /* \"#utility.yul\":8631:8632   */\n      dup1\n        /* \"#utility.yul\":8624:8636   */\n      revert\n        /* \"#utility.yul\":8662:9215   */\n    tag_245:\n        /* \"#utility.yul\":8720:8728   */\n      0x00\n        /* \"#utility.yul\":8730:8736   */\n      dup1\n        /* \"#utility.yul\":8780:8783   */\n      dup4\n        /* \"#utility.yul\":8773:8777   */\n      0x1f\n        /* \"#utility.yul\":8765:8771   */\n      dup5\n        /* \"#utility.yul\":8761:8778   */\n      add\n        /* \"#utility.yul\":8757:8784   */\n      slt\n        /* \"#utility.yul\":8747:8869   */\n      tag_369\n      jumpi\n        /* \"#utility.yul\":8788:8867   */\n      tag_370\n      tag_242\n      jump\t// in\n    tag_370:\n        /* \"#utility.yul\":8747:8869   */\n    tag_369:\n        /* \"#utility.yul\":8901:8907   */\n      dup3\n        /* \"#utility.yul\":8888:8908   */\n      calldataload\n        /* \"#utility.yul\":8878:8908   */\n      swap1\n      pop\n        /* \"#utility.yul\":8931:8949   */\n      0xffffffffffffffff\n        /* \"#utility.yul\":8923:8929   */\n      dup2\n        /* \"#utility.yul\":8920:8950   */\n      gt\n        /* \"#utility.yul\":8917:9034   */\n      iszero\n      tag_371\n      jumpi\n        /* \"#utility.yul\":8953:9032   */\n      tag_372\n      tag_243\n      jump\t// in\n    tag_372:\n        /* \"#utility.yul\":8917:9034   */\n    tag_371:\n        /* \"#utility.yul\":9067:9071   */\n      0x20\n        /* \"#utility.yul\":9059:9065   */\n      dup4\n        /* \"#utility.yul\":9055:9072   */\n      add\n        /* \"#utility.yul\":9043:9072   */\n      swap2\n      pop\n        /* \"#utility.yul\":9121:9124   */\n      dup4\n        /* \"#utility.yul\":9113:9117   */\n      0x01\n        /* \"#utility.yul\":9105:9111   */\n      dup3\n        /* \"#utility.yul\":9101:9118   */\n      mul\n        /* \"#utility.yul\":9091:9099   */\n      dup4\n        /* \"#utility.yul\":9087:9119   */\n      add\n        /* \"#utility.yul\":9084:9125   */\n      gt\n        /* \"#utility.yul\":9081:9209   */\n      iszero\n      tag_373\n      jumpi\n        /* \"#utility.yul\":9128:9207   */\n      tag_374\n      tag_244\n      jump\t// in\n    tag_374:\n        /* \"#utility.yul\":9081:9209   */\n    tag_373:\n        /* \"#utility.yul\":8662:9215   */\n      swap3\n      pop\n      swap3\n      swap1\n      pop\n      jump\t// out\n        /* \"#utility.yul\":9221:9750   */\n    tag_78:\n        /* \"#utility.yul\":9292:9298   */\n      0x00\n        /* \"#utility.yul\":9300:9306   */\n      dup1\n        /* \"#utility.yul\":9349:9351   */\n      0x20\n        /* \"#utility.yul\":9337:9346   */\n      dup4\n        /* \"#utility.yul\":9328:9335   */\n      dup6\n        /* \"#utility.yul\":9324:9347   */\n      sub\n        /* \"#utility.yul\":9320:9352   */\n      slt\n        /* \"#utility.yul\":9317:9436   */\n      iszero\n      tag_376\n      jumpi\n        /* \"#utility.yul\":9355:9434   */\n      tag_377\n      tag_212\n      jump\t// in\n    tag_377:\n        /* \"#utility.yul\":9317:9436   */\n    tag_376:\n        /* \"#utility.yul\":9503:9504   */\n      0x00\n        /* \"#utility.yul\":9492:9501   */\n      dup4\n        /* \"#utility.yul\":9488:9505   */\n      add\n        /* \"#utility.yul\":9475:9506   */\n      calldataload\n        /* \"#utility.yul\":9533:9551   */\n      0xffffffffffffffff\n        /* \"#utility.yul\":9525:9531   */\n      dup2\n        /* \"#utility.yul\":9522:9552   */\n      gt\n        /* \"#utility.yul\":9519:9636   */\n      iszero\n      tag_378\n      jumpi\n        /* \"#utility.yul\":9555:9634   */\n      tag_379\n      tag_213\n      jump\t// in\n    tag_379:\n        /* \"#utility.yul\":9519:9636   */\n    tag_378:\n        /* \"#utility.yul\":9668:9733   */\n      tag_380\n        /* \"#utility.yul\":9725:9732   */\n      dup6\n        /* \"#utility.yul\":9716:9722   */\n      dup3\n        /* \"#utility.yul\":9705:9714   */\n      dup7\n        /* \"#utility.yul\":9701:9723   */\n      add\n        /* \"#utility.yul\":9668:9733   */\n      tag_245\n      jump\t// in\n    tag_380:\n        /* \"#utility.yul\":9650:9733   */\n      swap3\n      pop\n      swap3\n      pop\n        /* \"#utility.yul\":9446:9743   */\n      pop\n        /* \"#utility.yul\":9221:9750   */\n      swap3\n      pop\n      swap3\n      swap1\n      pop\n      jump\t// out\n        /* \"#utility.yul\":9756:9919   */\n    tag_246:\n        /* \"#utility.yul\":9823:9828   */\n      0x00\n        /* \"#utility.yul\":9854:9860   */\n      dup2\n        /* \"#utility.yul\":9848:9861   */\n      mload\n        /* \"#utility.yul\":9839:9861   */\n      swap1\n      pop\n        /* \"#utility.yul\":9870:9913   */\n      tag_382\n        /* \"#utility.yul\":9907:9912   */\n      dup2\n        /* \"#utility.yul\":9870:9913   */\n      tag_218\n      jump\t// in\n    tag_382:\n        /* \"#utility.yul\":9756:9919   */\n      swap3\n      swap2\n      pop\n      pop\n      jump\t// out\n        /* \"#utility.yul\":9925:10296   */\n    tag_99:\n        /* \"#utility.yul\":10005:10011   */\n      0x00\n        /* \"#utility.yul\":10054:10056   */\n      0x20\n        /* \"#utility.yul\":10042:10051   */\n      dup3\n        /* \"#utility.yul\":10033:10040   */\n      dup5\n        /* \"#utility.yul\":10029:10052   */\n      sub\n        /* \"#utility.yul\":10025:10057   */\n      slt\n        /* \"#utility.yul\":10022:10141   */\n      iszero\n      tag_384\n      jumpi\n        /* \"#utility.yul\":10060:10139   */\n      tag_385\n      tag_212\n      jump\t// in\n    tag_385:\n        /* \"#utility.yul\":10022:10141   */\n    tag_384:\n        /* \"#utility.yul\":10180:10181   */\n      0x00\n        /* \"#utility.yul\":10205:10279   */\n      tag_386\n        /* \"#utility.yul\":10271:10278   */\n      dup5\n        /* \"#utility.yul\":10262:10268   */\n      dup3\n        /* \"#utility.yul\":10251:10260   */\n      dup6\n        /* \"#utility.yul\":10247:10269   */\n      add\n        /* \"#utility.yul\":10205:10279   */\n      tag_246\n      jump\t// in\n    tag_386:\n        /* \"#utility.yul\":10195:10279   */\n      swap2\n      pop\n        /* \"#utility.yul\":10151:10289   */\n      pop\n        /* \"#utility.yul\":9925:10296   */\n      swap3\n      swap2\n      pop\n      pop\n      jump\t// out\n        /* \"#utility.yul\":10302:10472   */\n    tag_247:\n        /* \"#utility.yul\":10442:10464   */\n      0x63616c6c6572206d757374206265206f776e6572000000000000000000000000\n        /* \"#utility.yul\":10438:10439   */\n      0x00\n        /* \"#utility.yul\":10430:10436   */\n      dup3\n        /* \"#utility.yul\":10426:10440   */\n      add\n        /* \"#utility.yul\":10419:10465   */\n      mstore\n        /* \"#utility.yul\":10302:10472   */\n      pop\n      jump\t// out\n        /* \"#utility.yul\":10478:10844   */\n    tag_248:\n        /* \"#utility.yul\":10620:10623   */\n      0x00\n        /* \"#utility.yul\":10641:10708   */\n      tag_389\n        /* \"#utility.yul\":10705:10707   */\n      0x14\n        /* \"#utility.yul\":10700:10703   */\n      dup4\n        /* \"#utility.yul\":10641:10708   */\n      tag_223\n      jump\t// in\n    tag_389:\n        /* \"#utility.yul\":10634:10708   */\n      swap2\n      pop\n        /* \"#utility.yul\":10717:10810   */\n      tag_390\n        /* \"#utility.yul\":10806:10809   */\n      dup3\n        /* \"#utility.yul\":10717:10810   */\n      tag_247\n      jump\t// in\n    tag_390:\n        /* \"#utility.yul\":10835:10837   */\n      0x20\n        /* \"#utility.yul\":10830:10833   */\n      dup3\n        /* \"#utility.yul\":10826:10838   */\n      add\n        /* \"#utility.yul\":10819:10838   */\n      swap1\n      pop\n        /* \"#utility.yul\":10478:10844   */\n      swap2\n      swap1\n      pop\n      jump\t// out\n        /* \"#utility.yul\":10850:11269   */\n    tag_123:\n        /* \"#utility.yul\":11016:11020   */\n      0x00\n        /* \"#utility.yul\":11054:11056   */\n      0x20\n        /* \"#utility.yul\":11043:11052   */\n      dup3\n        /* \"#utility.yul\":11039:11057   */\n      add\n        /* \"#utility.yul\":11031:11057   */\n      swap1\n      pop\n        /* \"#utility.yul\":11103:11112   */\n      dup2\n        /* \"#utility.yul\":11097:11101   */\n      dup2\n        /* \"#utility.yul\":11093:11113   */\n      sub\n        /* \"#utility.yul\":11089:11090   */\n      0x00\n        /* \"#utility.yul\":11078:11087   */\n      dup4\n        /* \"#utility.yul\":11074:11091   */\n      add\n        /* \"#utility.yul\":11067:11114   */\n      mstore\n        /* \"#utility.yul\":11131:11262   */\n      tag_392\n        /* \"#utility.yul\":11257:11261   */\n      dup2\n        /* \"#utility.yul\":11131:11262   */\n      tag_248\n      jump\t// in\n    tag_392:\n        /* \"#utility.yul\":11123:11262   */\n      swap1\n      pop\n        /* \"#utility.yul\":10850:11269   */\n      swap2\n      swap1\n      pop\n      jump\t// out\n        /* \"#utility.yul\":11275:11455   */\n    tag_249:\n        /* \"#utility.yul\":11323:11400   */\n      0x4e487b7100000000000000000000000000000000000000000000000000000000\n        /* \"#utility.yul\":11320:11321   */\n      0x00\n        /* \"#utility.yul\":11313:11401   */\n      mstore\n        /* \"#utility.yul\":11420:11424   */\n      0x22\n        /* \"#utility.yul\":11417:11418   */\n      0x04\n        /* \"#utility.yul\":11410:11425   */\n      mstore\n        /* \"#utility.yul\":11444:11448   */\n      0x24\n        /* \"#utility.yul\":11441:11442   */\n      0x00\n        /* \"#utility.yul\":11434:11449   */\n      revert\n        /* \"#utility.yul\":11461:11781   */\n    tag_127:\n        /* \"#utility.yul\":11505:11511   */\n      0x00\n        /* \"#utility.yul\":11542:11543   */\n      0x02\n        /* \"#utility.yul\":11536:11540   */\n      dup3\n        /* \"#utility.yul\":11532:11544   */\n      div\n        /* \"#utility.yul\":11522:11544   */\n      swap1\n      pop\n        /* \"#utility.yul\":11589:11590   */\n      0x01\n        /* \"#utility.yul\":11583:11587   */\n      dup3\n        /* \"#utility.yul\":11579:11591   */\n      and\n        /* \"#utility.yul\":11610:11628   */\n      dup1\n        /* \"#utility.yul\":11600:11681   */\n      tag_395\n      jumpi\n        /* \"#utility.yul\":11666:11670   */\n      0x7f\n        /* \"#utility.yul\":11658:11664   */\n      dup3\n        /* \"#utility.yul\":11654:11671   */\n      and\n        /* \"#utility.yul\":11644:11671   */\n      swap2\n      pop\n        /* \"#utility.yul\":11600:11681   */\n    tag_395:\n        /* \"#utility.yul\":11728:11730   */\n      0x20\n        /* \"#utility.yul\":11720:11726   */\n      dup3\n        /* \"#utility.yul\":11717:11731   */\n      lt\n        /* \"#utility.yul\":11697:11715   */\n      dup2\n        /* \"#utility.yul\":11694:11732   */\n      sub\n        /* \"#utility.yul\":11691:11775   */\n      tag_396\n      jumpi\n        /* \"#utility.yul\":11747:11765   */\n      tag_397\n      tag_249\n      jump\t// in\n    tag_397:\n        /* \"#utility.yul\":11691:11775   */\n    tag_396:\n        /* \"#utility.yul\":11512:11781   */\n      pop\n        /* \"#utility.yul\":11461:11781   */\n      swap2\n      swap1\n      pop\n      jump\t// out\n        /* \"#utility.yul\":11787:11967   */\n    tag_140:\n        /* \"#utility.yul\":11835:11912   */\n      0x4e487b7100000000000000000000000000000000000000000000000000000000\n        /* \"#utility.yul\":11832:11833   */\n      0x00\n        /* \"#utility.yul\":11825:11913   */\n      mstore\n        /* \"#utility.yul\":11932:11936   */\n      0x32\n        /* \"#utility.yul\":11929:11930   */\n      0x04\n        /* \"#utility.yul\":11922:11937   */\n      mstore\n        /* \"#utility.yul\":11956:11960   */\n      0x24\n        /* \"#utility.yul\":11953:11954   */\n      0x00\n        /* \"#utility.yul\":11946:11961   */\n      revert\n        /* \"#utility.yul\":11973:12153   */\n    tag_250:\n        /* \"#utility.yul\":12021:12098   */\n      0x4e487b7100000000000000000000000000000000000000000000000000000000\n        /* \"#utility.yul\":12018:12019   */\n      0x00\n        /* \"#utility.yul\":12011:12099   */\n      mstore\n        /* \"#utility.yul\":12118:12122   */\n      0x12\n        /* \"#utility.yul\":12115:12116   */\n      0x04\n        /* \"#utility.yul\":12108:12123   */\n      mstore\n        /* \"#utility.yul\":12142:12146   */\n      0x24\n        /* \"#utility.yul\":12139:12140   */\n      0x00\n        /* \"#utility.yul\":12132:12147   */\n      revert\n        /* \"#utility.yul\":12159:12335   */\n    tag_169:\n        /* \"#utility.yul\":12191:12192   */\n      0x00\n        /* \"#utility.yul\":12208:12228   */\n      tag_401\n        /* \"#utility.yul\":12226:12227   */\n      dup3\n        /* \"#utility.yul\":12208:12228   */\n      tag_228\n      jump\t// in\n    tag_401:\n        /* \"#utility.yul\":12203:12228   */\n      swap2\n      pop\n        /* \"#utility.yul\":12242:12262   */\n      tag_402\n        /* \"#utility.yul\":12260:12261   */\n      dup4\n        /* \"#utility.yul\":12242:12262   */\n      tag_228\n      jump\t// in\n    tag_402:\n        /* \"#utility.yul\":12237:12262   */\n      swap3\n      pop\n        /* \"#utility.yul\":12281:12282   */\n      dup3\n        /* \"#utility.yul\":12271:12306   */\n      tag_403\n      jumpi\n        /* \"#utility.yul\":12286:12304   */\n      tag_404\n      tag_250\n      jump\t// in\n    tag_404:\n        /* \"#utility.yul\":12271:12306   */\n    tag_403:\n        /* \"#utility.yul\":12327:12328   */\n      dup3\n        /* \"#utility.yul\":12324:12325   */\n      dup3\n        /* \"#utility.yul\":12320:12329   */\n      mod\n        /* \"#utility.yul\":12315:12329   */\n      swap1\n      pop\n        /* \"#utility.yul\":12159:12335   */\n      swap3\n      swap2\n      pop\n      pop\n      jump\t// out\n        /* \"#utility.yul\":12341:12521   */\n    tag_251:\n        /* \"#utility.yul\":12389:12466   */\n      0x4e487b7100000000000000000000000000000000000000000000000000000000\n        /* \"#utility.yul\":12386:12387   */\n      0x00\n        /* \"#utility.yul\":12379:12467   */\n      mstore\n        /* \"#utility.yul\":12486:12490   */\n      0x11\n        /* \"#utility.yul\":12483:12484   */\n      0x04\n        /* \"#utility.yul\":12476:12491   */\n      mstore\n        /* \"#utility.yul\":12510:12514   */\n      0x24\n        /* \"#utility.yul\":12507:12508   */\n      0x00\n        /* \"#utility.yul\":12500:12515   */\n      revert\n        /* \"#utility.yul\":12527:12721   */\n    tag_172:\n        /* \"#utility.yul\":12567:12571   */\n      0x00\n        /* \"#utility.yul\":12587:12607   */\n      tag_407\n        /* \"#utility.yul\":12605:12606   */\n      dup3\n        /* \"#utility.yul\":12587:12607   */\n      tag_228\n      jump\t// in\n    tag_407:\n        /* \"#utility.yul\":12582:12607   */\n      swap2\n      pop\n        /* \"#utility.yul\":12621:12641   */\n      tag_408\n        /* \"#utility.yul\":12639:12640   */\n      dup4\n        /* \"#utility.yul\":12621:12641   */\n      tag_228\n      jump\t// in\n    tag_408:\n        /* \"#utility.yul\":12616:12641   */\n      swap3\n      pop\n        /* \"#utility.yul\":12665:12666   */\n      dup3\n        /* \"#utility.yul\":12662:12663   */\n      dup3\n        /* \"#utility.yul\":12658:12667   */\n      sub\n        /* \"#utility.yul\":12650:12667   */\n      swap1\n      pop\n        /* \"#utility.yul\":12689:12690   */\n      dup2\n        /* \"#utility.yul\":12683:12687   */\n      dup2\n        /* \"#utility.yul\":12680:12691   */\n      gt\n        /* \"#utility.yul\":12677:12714   */\n      iszero\n      tag_409\n      jumpi\n        /* \"#utility.yul\":12694:12712   */\n      tag_410\n      tag_251\n      jump\t// in\n    tag_410:\n        /* \"#utility.yul\":12677:12714   */\n    tag_409:\n        /* \"#utility.yul\":12527:12721   */\n      swap3\n      swap2\n      pop\n      pop\n      jump\t// out\n        /* \"#utility.yul\":12727:12918   */\n    tag_177:\n        /* \"#utility.yul\":12767:12770   */\n      0x00\n        /* \"#utility.yul\":12786:12806   */\n      tag_412\n        /* \"#utility.yul\":12804:12805   */\n      dup3\n        /* \"#utility.yul\":12786:12806   */\n      tag_228\n      jump\t// in\n    tag_412:\n        /* \"#utility.yul\":12781:12806   */\n      swap2\n      pop\n        /* \"#utility.yul\":12820:12840   */\n      tag_413\n        /* \"#utility.yul\":12838:12839   */\n      dup4\n        /* \"#utility.yul\":12820:12840   */\n      tag_228\n      jump\t// in\n    tag_413:\n        /* \"#utility.yul\":12815:12840   */\n      swap3\n      pop\n        /* \"#utility.yul\":12863:12864   */\n      dup3\n        /* \"#utility.yul\":12860:12861   */\n      dup3\n        /* \"#utility.yul\":12856:12865   */\n      add\n        /* \"#utility.yul\":12849:12865   */\n      swap1\n      pop\n        /* \"#utility.yul\":12884:12887   */\n      dup1\n        /* \"#utility.yul\":12881:12882   */\n      dup3\n        /* \"#utility.yul\":12878:12888   */\n      gt\n        /* \"#utility.yul\":12875:12911   */\n      iszero\n      tag_414\n      jumpi\n        /* \"#utility.yul\":12891:12909   */\n      tag_415\n      tag_251\n      jump\t// in\n    tag_415:\n        /* \"#utility.yul\":12875:12911   */\n    tag_414:\n        /* \"#utility.yul\":12727:12918   */\n      swap3\n      swap2\n      pop\n      pop\n      jump\t// out\n        /* \"#utility.yul\":12924:13021   */\n    tag_252:\n        /* \"#utility.yul\":12983:12989   */\n      0x00\n        /* \"#utility.yul\":13011:13014   */\n      dup3\n        /* \"#utility.yul\":13001:13014   */\n      swap1\n      pop\n        /* \"#utility.yul\":12924:13021   */\n      swap3\n      swap2\n      pop\n      pop\n      jump\t// out\n        /* \"#utility.yul\":13027:13207   */\n    tag_253:\n        /* \"#utility.yul\":13075:13152   */\n      0x4e487b7100000000000000000000000000000000000000000000000000000000\n        /* \"#utility.yul\":13072:13073   */\n      0x00\n        /* \"#utility.yul\":13065:13153   */\n      mstore\n        /* \"#utility.yul\":13172:13176   */\n      0x41\n        /* \"#utility.yul\":13169:13170   */\n      0x04\n        /* \"#utility.yul\":13162:13177   */\n      mstore\n        /* \"#utility.yul\":13196:13200   */\n      0x24\n        /* \"#utility.yul\":13193:13194   */\n      0x00\n        /* \"#utility.yul\":13186:13201   */\n      revert\n        /* \"#utility.yul\":13213:13354   */\n    tag_254:\n        /* \"#utility.yul\":13262:13266   */\n      0x00\n        /* \"#utility.yul\":13285:13288   */\n      dup2\n        /* \"#utility.yul\":13277:13288   */\n      swap1\n      pop\n        /* \"#utility.yul\":13308:13311   */\n      dup2\n        /* \"#utility.yul\":13305:13306   */\n      0x00\n        /* \"#utility.yul\":13298:13312   */\n      mstore\n        /* \"#utility.yul\":13342:13346   */\n      0x20\n        /* \"#utility.yul\":13339:13340   */\n      0x00\n        /* \"#utility.yul\":13329:13347   */\n      keccak256\n        /* \"#utility.yul\":13321:13347   */\n      swap1\n      pop\n        /* \"#utility.yul\":13213:13354   */\n      swap2\n      swap1\n      pop\n      jump\t// out\n        /* \"#utility.yul\":13360:13453   */\n    tag_255:\n        /* \"#utility.yul\":13397:13403   */\n      0x00\n        /* \"#utility.yul\":13444:13446   */\n      0x20\n        /* \"#utility.yul\":13439:13441   */\n      0x1f\n        /* \"#utility.yul\":13432:13437   */\n      dup4\n        /* \"#utility.yul\":13428:13442   */\n      add\n        /* \"#utility.yul\":13424:13447   */\n      div\n        /* \"#utility.yul\":13414:13447   */\n      swap1\n      pop\n        /* \"#utility.yul\":13360:13453   */\n      swap2\n      swap1\n      pop\n      jump\t// out\n        /* \"#utility.yul\":13459:13566   */\n    tag_256:\n        /* \"#utility.yul\":13503:13511   */\n      0x00\n        /* \"#utility.yul\":13553:13558   */\n      dup3\n        /* \"#utility.yul\":13547:13551   */\n      dup3\n        /* \"#utility.yul\":13543:13559   */\n      shl\n        /* \"#utility.yul\":13522:13559   */\n      swap1\n      pop\n        /* \"#utility.yul\":13459:13566   */\n      swap3\n      swap2\n      pop\n      pop\n      jump\t// out\n        /* \"#utility.yul\":13572:13965   */\n    tag_257:\n        /* \"#utility.yul\":13641:13647   */\n      0x00\n        /* \"#utility.yul\":13691:13692   */\n      0x08\n        /* \"#utility.yul\":13679:13689   */\n      dup4\n        /* \"#utility.yul\":13675:13693   */\n      mul\n        /* \"#utility.yul\":13714:13811   */\n      tag_422\n        /* \"#utility.yul\":13744:13810   */\n      0xffffffffffffffffffffffffffffffffffffffffffffffffffffffffffffffff\n        /* \"#utility.yul\":13733:13742   */\n      dup3\n        /* \"#utility.yul\":13714:13811   */\n      tag_256\n      jump\t// in\n    tag_422:\n        /* \"#utility.yul\":13832:13871   */\n      tag_423\n        /* \"#utility.yul\":13862:13870   */\n      dup7\n        /* \"#utility.yul\":13851:13860   */\n      dup4\n        /* \"#utility.yul\":13832:13871   */\n      tag_256\n      jump\t// in\n    tag_423:\n        /* \"#utility.yul\":13820:13871   */\n      swap6\n      pop\n        /* \"#utility.yul\":13904:13908   */\n      dup1\n        /* \"#utility.yul\":13900:13909   */\n      not\n        /* \"#utility.yul\":13893:13898   */\n      dup5\n        /* \"#utility.yul\":13889:13910   */\n      and\n        /* \"#utility.yul\":13880:13910   */\n      swap4\n      pop\n        /* \"#utility.yul\":13953:13957   */\n      dup1\n        /* \"#utility.yul\":13943:13951   */\n      dup7\n        /* \"#utility.yul\":13939:13958   */\n      and\n        /* \"#utility.yul\":13932:13937   */\n      dup5\n        /* \"#utility.yul\":13929:13959   */\n      or\n        /* \"#utility.yul\":13919:13959   */\n      swap3\n      pop\n        /* \"#utility.yul\":13648:13965   */\n      pop\n      pop\n        /* \"#utility.yul\":13572:13965   */\n      swap4\n      swap3\n      pop\n      pop\n      pop\n      jump\t// out\n        /* \"#utility.yul\":13971:14031   */\n    tag_258:\n        /* \"#utility.yul\":13999:14002   */\n      0x00\n        /* \"#utility.yul\":14020:14025   */\n      dup2\n        /* \"#utility.yul\":14013:14025   */\n      swap1\n      pop\n        /* \"#utility.yul\":13971:14031   */\n      swap2\n      swap1\n      pop\n      jump\t// out\n        /* \"#utility.yul\":14037:14179   */\n    tag_259:\n        /* \"#utility.yul\":14087:14096   */\n      0x00\n        /* \"#utility.yul\":14120:14173   */\n      tag_426\n        /* \"#utility.yul\":14138:14172   */\n      tag_427\n        /* \"#utility.yul\":14147:14171   */\n      tag_428\n        /* \"#utility.yul\":14165:14170   */\n      dup5\n        /* \"#utility.yul\":14147:14171   */\n      tag_228\n      jump\t// in\n    tag_428:\n        /* \"#utility.yul\":14138:14172   */\n      tag_258\n      jump\t// in\n    tag_427:\n        /* \"#utility.yul\":14120:14173   */\n      tag_228\n      jump\t// in\n    tag_426:\n        /* \"#utility.yul\":14107:14173   */\n      swap1\n      pop\n        /* \"#utility.yul\":14037:14179   */\n      swap2\n      swap1\n      pop\n      jump\t// out\n        /* \"#utility.yul\":14185:14260   */\n    tag_260:\n        /* \"#utility.yul\":14228:14231   */\n      0x00\n        /* \"#utility.yul\":14249:14254   */\n      dup2\n        /* \"#utility.yul\":14242:14254   */\n      swap1\n      pop\n        /* \"#utility.yul\":14185:14260   */\n      swap2\n      swap1\n      pop\n      jump\t// out\n        /* \"#utility.yul\":14266:14535   */\n    tag_261:\n        /* \"#utility.yul\":14376:14415   */\n      tag_431\n        /* \"#utility.yul\":14407:14414   */\n      dup4\n        /* \"#utility.yul\":14376:14415   */\n      tag_259\n      jump\t// in\n    tag_431:\n        /* \"#utility.yul\":14437:14528   */\n      tag_432\n        /* \"#utility.yul\":14486:14527   */\n      tag_433\n        /* \"#utility.yul\":14510:14526   */\n      dup3\n        /* \"#utility.yul\":14486:14527   */\n      tag_260\n      jump\t// in\n    tag_433:\n        /* \"#utility.yul\":14478:14484   */\n      dup5\n        /* \"#utility.yul\":14471:14475   */\n      dup5\n        /* \"#utility.yul\":14465:14476   */\n      sload\n        /* \"#utility.yul\":14437:14528   */\n      tag_257\n      jump\t// in\n    tag_432:\n        /* \"#utility.yul\":14431:14435   */\n      dup3\n        /* \"#utility.yul\":14424:14529   */\n      sstore\n        /* \"#utility.yul\":14342:14535   */\n      pop\n        /* \"#utility.yul\":14266:14535   */\n      pop\n      pop\n      pop\n      jump\t// out\n        /* \"#utility.yul\":14541:14614   */\n    tag_262:\n        /* \"#utility.yul\":14586:14589   */\n      0x00\n        /* \"#utility.yul\":14541:14614   */\n      swap1\n      jump\t// out\n        /* \"#utility.yul\":14620:14809   */\n    tag_263:\n        /* \"#utility.yul\":14697:14729   */\n      tag_436\n      tag_262\n      jump\t// in\n    tag_436:\n        /* \"#utility.yul\":14738:14803   */\n      tag_437\n        /* \"#utility.yul\":14796:14802   */\n      dup2\n        /* \"#utility.yul\":14788:14794   */\n      dup5\n        /* \"#utility.yul\":14782:14786   */\n      dup5\n        /* \"#utility.yul\":14738:14803   */\n      tag_261\n      jump\t// in\n    tag_437:\n        /* \"#utility.yul\":14673:14809   */\n      pop\n        /* \"#utility.yul\":14620:14809   */\n      pop\n      pop\n      jump\t// out\n        /* \"#utility.yul\":14815:15001   */\n    tag_264:\n        /* \"#utility.yul\":14875:14995   */\n    tag_439:\n        /* \"#utility.yul\":14892:14895   */\n      dup2\n        /* \"#utility.yul\":14885:14890   */\n      dup2\n        /* \"#utility.yul\":14882:14896   */\n      lt\n        /* \"#utility.yul\":14875:14995   */\n      iszero\n      tag_441\n      jumpi\n        /* \"#utility.yul\":14946:14985   */\n      tag_442\n        /* \"#utility.yul\":14983:14984   */\n      0x00\n        /* \"#utility.yul\":14976:14981   */\n      dup3\n        /* \"#utility.yul\":14946:14985   */\n      tag_263\n      jump\t// in\n    tag_442:\n        /* \"#utility.yul\":14919:14920   */\n      0x01\n        /* \"#utility.yul\":14912:14917   */\n      dup2\n        /* \"#utility.yul\":14908:14921   */\n      add\n        /* \"#utility.yul\":14899:14921   */\n      swap1\n      pop\n        /* \"#utility.yul\":14875:14995   */\n      jump(tag_439)\n    tag_441:\n        /* \"#utility.yul\":14815:15001   */\n      pop\n      pop\n      jump\t// out\n        /* \"#utility.yul\":15007:15550   */\n    tag_265:\n        /* \"#utility.yul\":15108:15110   */\n      0x1f\n        /* \"#utility.yul\":15103:15106   */\n      dup3\n        /* \"#utility.yul\":15100:15111   */\n      gt\n        /* \"#utility.yul\":15097:15543   */\n      iszero\n      tag_444\n      jumpi\n        /* \"#utility.yul\":15142:15180   */\n      tag_445\n        /* \"#utility.yul\":15174:15179   */\n      dup2\n        /* \"#utility.yul\":15142:15180   */\n      tag_254\n      jump\t// in\n    tag_445:\n        /* \"#utility.yul\":15226:15255   */\n      tag_446\n        /* \"#utility.yul\":15244:15254   */\n      dup5\n        /* \"#utility.yul\":15226:15255   */\n      tag_255\n      jump\t// in\n    tag_446:\n        /* \"#utility.yul\":15216:15224   */\n      dup2\n        /* \"#utility.yul\":15212:15256   */\n      add\n        /* \"#utility.yul\":15409:15411   */\n      0x20\n        /* \"#utility.yul\":15397:15407   */\n      dup6\n        /* \"#utility.yul\":15394:15412   */\n      lt\n        /* \"#utility.yul\":15391:15440   */\n      iszero\n      tag_447\n      jumpi\n        /* \"#utility.yul\":15430:15438   */\n      dup2\n        /* \"#utility.yul\":15415:15438   */\n      swap1\n      pop\n        /* \"#utility.yul\":15391:15440   */\n    tag_447:\n        /* \"#utility.yul\":15453:15533   */\n      tag_448\n        /* \"#utility.yul\":15509:15531   */\n      tag_449\n        /* \"#utility.yul\":15527:15530   */\n      dup6\n        /* \"#utility.yul\":15509:15531   */\n      tag_255\n      jump\t// in\n    tag_449:\n        /* \"#utility.yul\":15499:15507   */\n      dup4\n        /* \"#utility.yul\":15495:15532   */\n      add\n        /* \"#utility.yul\":15482:15493   */\n      dup3\n        /* \"#utility.yul\":15453:15533   */\n      tag_264\n      jump\t// in\n    tag_448:\n        /* \"#utility.yul\":15112:15543   */\n      pop\n      pop\n        /* \"#utility.yul\":15097:15543   */\n    tag_444:\n        /* \"#utility.yul\":15007:15550   */\n      pop\n      pop\n      pop\n      jump\t// out\n        /* \"#utility.yul\":15556:15673   */\n    tag_266:\n        /* \"#utility.yul\":15610:15618   */\n      0x00\n        /* \"#utility.yul\":15660:15665   */\n      dup3\n        /* \"#utility.yul\":15654:15658   */\n      dup3\n        /* \"#utility.yul\":15650:15666   */\n      shr\n        /* \"#utility.yul\":15629:15666   */\n      swap1\n      pop\n        /* \"#utility.yul\":15556:15673   */\n      swap3\n      swap2\n      pop\n      pop\n      jump\t// out\n        /* \"#utility.yul\":15679:15848   */\n    tag_267:\n        /* \"#utility.yul\":15723:15729   */\n      0x00\n        /* \"#utility.yul\":15756:15807   */\n      tag_452\n        /* \"#utility.yul\":15804:15805   */\n      0x00\n        /* \"#utility.yul\":15800:15806   */\n      not\n        /* \"#utility.yul\":15792:15797   */\n      dup5\n        /* \"#utility.yul\":15789:15790   */\n      0x08\n        /* \"#utility.yul\":15785:15798   */\n      mul\n        /* \"#utility.yul\":15756:15807   */\n      tag_266\n      jump\t// in\n    tag_452:\n        /* \"#utility.yul\":15752:15808   */\n      not\n        /* \"#utility.yul\":15837:15841   */\n      dup1\n        /* \"#utility.yul\":15831:15835   */\n      dup4\n        /* \"#utility.yul\":15827:15842   */\n      and\n        /* \"#utility.yul\":15817:15842   */\n      swap2\n      pop\n        /* \"#utility.yul\":15730:15848   */\n      pop\n        /* \"#utility.yul\":15679:15848   */\n      swap3\n      swap2\n      pop\n      pop\n      jump\t// out\n        /* \"#utility.yul\":15853:16148   */\n    tag_268:\n        /* \"#utility.yul\":15929:15933   */\n      0x00\n        /* \"#utility.yul\":16075:16104   */\n      tag_454\n        /* \"#utility.yul\":16100:16103   */\n      dup4\n        /* \"#utility.yul\":16094:16098   */\n      dup4\n        /* \"#utility.yul\":16075:16104   */\n      tag_267\n      jump\t// in\n    tag_454:\n        /* \"#utility.yul\":16067:16104   */\n      swap2\n      pop\n        /* \"#utility.yul\":16137:16140   */\n      dup3\n        /* \"#utility.yul\":16134:16135   */\n      0x02\n        /* \"#utility.yul\":16130:16141   */\n      mul\n        /* \"#utility.yul\":16124:16128   */\n      dup3\n        /* \"#utility.yul\":16121:16142   */\n      or\n        /* \"#utility.yul\":16113:16142   */\n      swap1\n      pop\n        /* \"#utility.yul\":15853:16148   */\n      swap3\n      swap2\n      pop\n      pop\n      jump\t// out\n        /* \"#utility.yul\":16153:17556   */\n    tag_187:\n        /* \"#utility.yul\":16277:16321   */\n      tag_456\n        /* \"#utility.yul\":16317:16320   */\n      dup4\n        /* \"#utility.yul\":16312:16315   */\n      dup4\n        /* \"#utility.yul\":16277:16321   */\n      tag_252\n      jump\t// in\n    tag_456:\n        /* \"#utility.yul\":16386:16404   */\n      0xffffffffffffffff\n        /* \"#utility.yul\":16378:16384   */\n      dup2\n        /* \"#utility.yul\":16375:16405   */\n      gt\n        /* \"#utility.yul\":16372:16428   */\n      iszero\n      tag_457\n      jumpi\n        /* \"#utility.yul\":16408:16426   */\n      tag_458\n      tag_253\n      jump\t// in\n    tag_458:\n        /* \"#utility.yul\":16372:16428   */\n    tag_457:\n        /* \"#utility.yul\":16452:16490   */\n      tag_459\n        /* \"#utility.yul\":16484:16488   */\n      dup3\n        /* \"#utility.yul\":16478:16489   */\n      sload\n        /* \"#utility.yul\":16452:16490   */\n      tag_127\n      jump\t// in\n    tag_459:\n        /* \"#utility.yul\":16537:16604   */\n      tag_460\n        /* \"#utility.yul\":16597:16603   */\n      dup3\n        /* \"#utility.yul\":16589:16595   */\n      dup3\n        /* \"#utility.yul\":16583:16587   */\n      dup6\n        /* \"#utility.yul\":16537:16604   */\n      tag_265\n      jump\t// in\n    tag_460:\n        /* \"#utility.yul\":16631:16632   */\n      0x00\n        /* \"#utility.yul\":16660:16662   */\n      0x1f\n        /* \"#utility.yul\":16652:16658   */\n      dup4\n        /* \"#utility.yul\":16649:16663   */\n      gt\n        /* \"#utility.yul\":16677:16678   */\n      0x01\n        /* \"#utility.yul\":16672:17304   */\n      dup2\n      eq\n      tag_462\n      jumpi\n        /* \"#utility.yul\":17348:17349   */\n      0x00\n        /* \"#utility.yul\":17365:17371   */\n      dup5\n        /* \"#utility.yul\":17362:17446   */\n      iszero\n      tag_463\n      jumpi\n        /* \"#utility.yul\":17421:17430   */\n      dup3\n        /* \"#utility.yul\":17416:17419   */\n      dup8\n        /* \"#utility.yul\":17412:17431   */\n      add\n        /* \"#utility.yul\":17399:17432   */\n      calldataload\n        /* \"#utility.yul\":17390:17432   */\n      swap1\n      pop\n        /* \"#utility.yul\":17362:17446   */\n    tag_463:\n        /* \"#utility.yul\":17472:17539   */\n      tag_464\n        /* \"#utility.yul\":17532:17538   */\n      dup6\n        /* \"#utility.yul\":17525:17530   */\n      dup3\n        /* \"#utility.yul\":17472:17539   */\n      tag_268\n      jump\t// in\n    tag_464:\n        /* \"#utility.yul\":17466:17470   */\n      dup7\n        /* \"#utility.yul\":17459:17540   */\n      sstore\n        /* \"#utility.yul\":17321:17550   */\n      pop\n        /* \"#utility.yul\":16642:17550   */\n      jump(tag_461)\n        /* \"#utility.yul\":16672:17304   */\n    tag_462:\n        /* \"#utility.yul\":16724:16728   */\n      0x1f\n        /* \"#utility.yul\":16720:16729   */\n      not\n        /* \"#utility.yul\":16712:16718   */\n      dup5\n        /* \"#utility.yul\":16708:16730   */\n      and\n        /* \"#utility.yul\":16758:16795   */\n      tag_465\n        /* \"#utility.yul\":16790:16794   */\n      dup7\n        /* \"#utility.yul\":16758:16795   */\n      tag_254\n      jump\t// in\n    tag_465:\n        /* \"#utility.yul\":16817:16818   */\n      0x00\n        /* \"#utility.yul\":16831:17046   */\n    tag_466:\n        /* \"#utility.yul\":16845:16852   */\n      dup3\n        /* \"#utility.yul\":16842:16843   */\n      dup2\n        /* \"#utility.yul\":16839:16853   */\n      lt\n        /* \"#utility.yul\":16831:17046   */\n      iszero\n      tag_468\n      jumpi\n        /* \"#utility.yul\":16931:16940   */\n      dup5\n        /* \"#utility.yul\":16926:16929   */\n      dup10\n        /* \"#utility.yul\":16922:16941   */\n      add\n        /* \"#utility.yul\":16909:16942   */\n      calldataload\n        /* \"#utility.yul\":16901:16907   */\n      dup3\n        /* \"#utility.yul\":16894:16943   */\n      sstore\n        /* \"#utility.yul\":16982:16983   */\n      0x01\n        /* \"#utility.yul\":16974:16980   */\n      dup3\n        /* \"#utility.yul\":16970:16984   */\n      add\n        /* \"#utility.yul\":16960:16984   */\n      swap2\n      pop\n        /* \"#utility.yul\":17029:17031   */\n      0x20\n        /* \"#utility.yul\":17018:17027   */\n      dup6\n        /* \"#utility.yul\":17014:17032   */\n      add\n        /* \"#utility.yul\":17001:17032   */\n      swap5\n      pop\n        /* \"#utility.yul\":16868:16872   */\n      0x20\n        /* \"#utility.yul\":16865:16866   */\n      dup2\n        /* \"#utility.yul\":16861:16873   */\n      add\n        /* \"#utility.yul\":16856:16873   */\n      swap1\n      pop\n        /* \"#utility.yul\":16831:17046   */\n      jump(tag_466)\n    tag_468:\n        /* \"#utility.yul\":17074:17080   */\n      dup7\n        /* \"#utility.yul\":17065:17072   */\n      dup4\n        /* \"#utility.yul\":17062:17081   */\n      lt\n        /* \"#utility.yul\":17059:17245   */\n      iszero\n      tag_469\n      jumpi\n        /* \"#utility.yul\":17139:17148   */\n      dup5\n        /* \"#utility.yul\":17134:17137   */\n      dup10\n        /* \"#utility.yul\":17130:17149   */\n      add\n        /* \"#utility.yul\":17117:17150   */\n      calldataload\n        /* \"#utility.yul\":17182:17230   */\n      tag_470\n        /* \"#utility.yul\":17224:17228   */\n      0x1f\n        /* \"#utility.yul\":17216:17222   */\n      dup10\n        /* \"#utility.yul\":17212:17229   */\n      and\n        /* \"#utility.yul\":17201:17210   */\n      dup3\n        /* \"#utility.yul\":17182:17230   */\n      tag_267\n      jump\t// in\n    tag_470:\n        /* \"#utility.yul\":17174:17180   */\n      dup4\n        /* \"#utility.yul\":17167:17231   */\n      sstore\n        /* \"#utility.yul\":17082:17245   */\n      pop\n        /* \"#utility.yul\":17059:17245   */\n    tag_469:\n        /* \"#utility.yul\":17291:17292   */\n      0x01\n        /* \"#utility.yul\":17287:17288   */\n      0x02\n        /* \"#utility.yul\":17279:17285   */\n      dup9\n        /* \"#utility.yul\":17275:17289   */\n      mul\n        /* \"#utility.yul\":17271:17293   */\n      add\n        /* \"#utility.yul\":17265:17269   */\n      dup9\n        /* \"#utility.yul\":17258:17294   */\n      sstore\n        /* \"#utility.yul\":16679:17304   */\n      pop\n      pop\n      pop\n        /* \"#utility.yul\":16642:17550   */\n    tag_461:\n      pop\n        /* \"#utility.yul\":16252:17556   */\n      pop\n      pop\n      pop\n        /* \"#utility.yul\":16153:17556   */\n      pop\n      pop\n      pop\n      jump\t// out\n        /* \"#utility.yul\":17562:17741   */\n    tag_269:\n        /* \"#utility.yul\":17702:17733   */\n      0x526571756573746f72206973206e6f7420612063616e6469646174652e000000\n        /* \"#utility.yul\":17698:17699   */\n      0x00\n        /* \"#utility.yul\":17690:17696   */\n      dup3\n        /* \"#utility.yul\":17686:17700   */\n      add\n        /* \"#utility.yul\":17679:17734   */\n      mstore\n        /* \"#utility.yul\":17562:17741   */\n      pop\n      jump\t// out\n        /* \"#utility.yul\":17747:18113   */\n    tag_270:\n        /* \"#utility.yul\":17889:17892   */\n      0x00\n        /* \"#utility.yul\":17910:17977   */\n      tag_473\n        /* \"#utility.yul\":17974:17976   */\n      0x1d\n        /* \"#utility.yul\":17969:17972   */\n      dup4\n        /* \"#utility.yul\":17910:17977   */\n      tag_223\n      jump\t// in\n    tag_473:\n        /* \"#utility.yul\":17903:17977   */\n      swap2\n      pop\n        /* \"#utility.yul\":17986:18079   */\n      tag_474\n        /* \"#utility.yul\":18075:18078   */\n      dup3\n        /* \"#utility.yul\":17986:18079   */\n      tag_269\n      jump\t// in\n    tag_474:\n        /* \"#utility.yul\":18104:18106   */\n      0x20\n        /* \"#utility.yul\":18099:18102   */\n      dup3\n        /* \"#utility.yul\":18095:18107   */\n      add\n        /* \"#utility.yul\":18088:18107   */\n      swap1\n      pop\n        /* \"#utility.yul\":17747:18113   */\n      swap2\n      swap1\n      pop\n      jump\t// out\n        /* \"#utility.yul\":18119:18538   */\n    tag_202:\n        /* \"#utility.yul\":18285:18289   */\n      0x00\n        /* \"#utility.yul\":18323:18325   */\n      0x20\n        /* \"#utility.yul\":18312:18321   */\n      dup3\n        /* \"#utility.yul\":18308:18326   */\n      add\n        /* \"#utility.yul\":18300:18326   */\n      swap1\n      pop\n        /* \"#utility.yul\":18372:18381   */\n      dup2\n        /* \"#utility.yul\":18366:18370   */\n      dup2\n        /* \"#utility.yul\":18362:18382   */\n      sub\n        /* \"#utility.yul\":18358:18359   */\n      0x00\n        /* \"#utility.yul\":18347:18356   */\n      dup4\n        /* \"#utility.yul\":18343:18360   */\n      add\n        /* \"#utility.yul\":18336:18383   */\n      mstore\n        /* \"#utility.yul\":18400:18531   */\n      tag_476\n        /* \"#utility.yul\":18526:18530   */\n      dup2\n        /* \"#utility.yul\":18400:18531   */\n      tag_270\n      jump\t// in\n    tag_476:\n        /* \"#utility.yul\":18392:18531   */\n      swap1\n      pop\n        /* \"#utility.yul\":18119:18538   */\n      swap2\n      swap1\n      pop\n      jump\t// out\n\n    auxdata: 0xa26469706673582212201e49cc821c9dcd5c67fb6b00b2c68b377df37e43cb6c8cc98ced778e929aef3964736f6c63430008120033\n}\n",
				"bytecode": {
					"linkReferences": {},
					"object": "60806040523480156200001157600080fd5b5060405162001fe638038062001fe68339818101604052810190620000379190620002f8565b336000806101000a81548173ffffffffffffffffffffffffffffffffffffffff021916908373ffffffffffffffffffffffffffffffffffffffff16021790555080600160006101000a81548173ffffffffffffffffffffffffffffffffffffffff021916908373ffffffffffffffffffffffffffffffffffffffff1602179055508260059081620000c99190620005dd565b508160079081620000db9190620005dd565b506001600460006101000a81548160ff021916908315150217905550505050620006c4565b6000604051905090565b600080fd5b600080fd5b600080fd5b600080fd5b6000601f19601f8301169050919050565b7f4e487b7100000000000000000000000000000000000000000000000000000000600052604160045260246000fd5b62000169826200011e565b810181811067ffffffffffffffff821117156200018b576200018a6200012f565b5b80604052505050565b6000620001a062000100565b9050620001ae82826200015e565b919050565b600067ffffffffffffffff821115620001d157620001d06200012f565b5b620001dc826200011e565b9050602081019050919050565b60005b8381101562000209578082015181840152602081019050620001ec565b60008484015250505050565b60006200022c6200022684620001b3565b62000194565b9050828152602081018484840111156200024b576200024a62000119565b5b62000258848285620001e9565b509392505050565b600082601f83011262000278576200027762000114565b5b81516200028a84826020860162000215565b91505092915050565b600073ffffffffffffffffffffffffffffffffffffffff82169050919050565b6000620002c08262000293565b9050919050565b620002d281620002b3565b8114620002de57600080fd5b50565b600081519050620002f281620002c7565b92915050565b6000806000606084860312156200031457620003136200010a565b5b600084015167ffffffffffffffff8111156200033557620003346200010f565b5b620003438682870162000260565b935050602084015167ffffffffffffffff8111156200036757620003666200010f565b5b620003758682870162000260565b92505060406200038886828701620002e1565b9150509250925092565b600081519050919050565b7f4e487b7100000000000000000000000000000000000000000000000000000000600052602260045260246000fd5b60006002820490506001821680620003e557607f821691505b602082108103620003fb57620003fa6200039d565b5b50919050565b60008190508160005260206000209050919050565b60006020601f8301049050919050565b600082821b905092915050565b600060088302620004657fffffffffffffffffffffffffffffffffffffffffffffffffffffffffffffffff8262000426565b62000471868362000426565b95508019841693508086168417925050509392505050565b6000819050919050565b6000819050919050565b6000620004be620004b8620004b28462000489565b62000493565b62000489565b9050919050565b6000819050919050565b620004da836200049d565b620004f2620004e982620004c5565b84845462000433565b825550505050565b600090565b62000509620004fa565b62000516818484620004cf565b505050565b5b818110156200053e5762000532600082620004ff565b6001810190506200051c565b5050565b601f8211156200058d57620005578162000401565b620005628462000416565b8101602085101562000572578190505b6200058a620005818562000416565b8301826200051b565b50505b505050565b600082821c905092915050565b6000620005b26000198460080262000592565b1980831691505092915050565b6000620005cd83836200059f565b9150826002028217905092915050565b620005e88262000392565b67ffffffffffffffff8111156200060457620006036200012f565b5b620006108254620003cc565b6200061d82828562000542565b600060209050601f83116001811462000655576000841562000640578287015190505b6200064c8582620005bf565b865550620006bc565b601f198416620006658662000401565b60005b828110156200068f5784890151825560018201915060208501945060208101905062000668565b86831015620006af5784890151620006ab601f8916826200059f565b8355505b6001600288020188555050505b505050505050565b61191280620006d46000396000f3fe608060405234801561001057600080fd5b506004361061010b5760003560e01c80639407921c116100a2578063de80276111610071578063de802761146102ba578063e5ab27e3146102ea578063f39f05f714610306578063fbeaa42f14610336578063fc107720146103545761010b565b80639407921c1461021e578063b1d908091461024e578063c524e7f61461026c578063ca9d2c6b1461028a5761010b565b806355c1c478116100de57806355c1c478146101aa5780635f891d98146101c85780636947a020146101e45780638da5cb5b146102005761010b565b80630fbdd52114610110578063101d4fb914610140578063244ded7a14610170578063481fd6b51461018c575b600080fd5b61012a60048036038101906101259190610f40565b610370565b6040516101379190610f9b565b60405180910390f35b61015a60048036038101906101559190610f40565b6105a2565b6040516101679190610f9b565b60405180910390f35b61018a60048036038101906101859190610fb6565b61061f565b005b6101946106f0565b6040516101a19190611073565b60405180910390f35b6101b2610782565b6040516101bf91906110a4565b60405180910390f35b6101e260048036038101906101dd91906110f5565b6107ac565b005b6101fe60048036038101906101f99190610f40565b610826565b005b610208610891565b60405161021591906110a4565b60405180910390f35b61023860048036038101906102339190611135565b6108b5565b6040516102459190611220565b60405180910390f35b61025661097a565b6040516102639190611220565b60405180910390f35b610274610a3d565b6040516102819190611073565b60405180910390f35b6102a4600480360381019061029f9190611135565b610acf565b6040516102b191906112b9565b60405180910390f35b6102d460048036038101906102cf91906110f5565b610b4a565b6040516102e191906110a4565b60405180910390f35b61030460048036038101906102ff9190611339565b610b98565b005b610320600480360381019061031b9190610fb6565b610c3c565b60405161032d91906112b9565b60405180910390f35b61033e610c5c565b60405161034b9190611073565b60405180910390f35b61036e60048036038101906103699190611135565b610cee565b005b60008083905061037f83610acf565b600481111561039157610390611242565b5b8173ffffffffffffffffffffffffffffffffffffffff1663f39f05f7306040518263ffffffff1660e01b81526004016103ca91906110a4565b602060405180830381865afa1580156103e7573d6000803e3d6000fd5b505050506040513d601f19601f8201168201806040525081019061040b919061139b565b600481111561041d5761041c611242565b5b0361052f576003600084600481111561043957610438611242565b5b600481111561044b5761044a611242565b5b8152602001908152602001600020849080600181540180825580915050600190039060005260206000200160009091909190916101000a81548173ffffffffffffffffffffffffffffffffffffffff021916908373ffffffffffffffffffffffffffffffffffffffff1602179055508073ffffffffffffffffffffffffffffffffffffffff1663fc107720846040518263ffffffff1660e01b81526004016104f391906112b9565b600060405180830381600087803b15801561050d57600080fd5b505af1158015610521573d6000803e3d6000fd5b50505050600191505061059c565b82600260008673ffffffffffffffffffffffffffffffffffffffff1673ffffffffffffffffffffffffffffffffffffffff16815260200190815260200160002060006101000a81548160ff0219169083600481111561059157610590611242565b5b021790555060009150505b92915050565b60008160048111156105b7576105b6611242565b5b600260008573ffffffffffffffffffffffffffffffffffffffff1673ffffffffffffffffffffffffffffffffffffffff16815260200190815260200160002060009054906101000a900460ff16600481111561061657610615611242565b5b14905092915050565b60008054906101000a900473ffffffffffffffffffffffffffffffffffffffff1673ffffffffffffffffffffffffffffffffffffffff163373ffffffffffffffffffffffffffffffffffffffff16146106ad576040517f08c379a00000000000000000000000000000000000000000000000000000000081526004016106a490611414565b60405180910390fd5b806000806101000a81548173ffffffffffffffffffffffffffffffffffffffff021916908373ffffffffffffffffffffffffffffffffffffffff16021790555050565b6060600580546106ff90611463565b80601f016020809104026020016040519081016040528092919081815260200182805461072b90611463565b80156107785780601f1061074d57610100808354040283529160200191610778565b820191906000526020600020905b81548152906001019060200180831161075b57829003601f168201915b5050505050905090565b6000600160009054906101000a900473ffffffffffffffffffffffffffffffffffffffff16905090565b600360008360048111156107c3576107c2611242565b5b60048111156107d5576107d4611242565b5b815260200190815260200160002081815481106107f5576107f4611494565b5b9060005260206000200160006101000a81549073ffffffffffffffffffffffffffffffffffffffff02191690555050565b80600260008473ffffffffffffffffffffffffffffffffffffffff1673ffffffffffffffffffffffffffffffffffffffff16815260200190815260200160002060006101000a81548160ff0219169083600481111561088857610887611242565b5b02179055505050565b60008054906101000a900473ffffffffffffffffffffffffffffffffffffffff1681565b6060600360008360048111156108ce576108cd611242565b5b60048111156108e0576108df611242565b5b815260200190815260200160002080548060200260200160405190810160405280929190818152602001828054801561096e57602002820191906000526020600020905b8160009054906101000a900473ffffffffffffffffffffffffffffffffffffffff1673ffffffffffffffffffffffffffffffffffffffff1681526020019060010190808311610924575b50505050509050919050565b60606003600060048081111561099357610992611242565b5b60048111156109a5576109a4611242565b5b8152602001908152602001600020805480602002602001604051908101604052809291908181526020018280548015610a3357602002820191906000526020600020905b8160009054906101000a900473ffffffffffffffffffffffffffffffffffffffff1673ffffffffffffffffffffffffffffffffffffffff16815260200190600101908083116109e9575b5050505050905090565b606060068054610a4c90611463565b80601f0160208091040260200160405190810160405280929190818152602001828054610a7890611463565b8015610ac55780601f10610a9a57610100808354040283529160200191610ac5565b820191906000526020600020905b815481529060010190602001808311610aa857829003601f168201915b5050505050905090565b600080826004811115610ae557610ae4611242565b5b90506000600282610af691906114f2565b03610b2257600181610b089190611552565b6004811115610b1a57610b19611242565b5b915050610b45565b600181610b2f9190611586565b6004811115610b4157610b40611242565b5b9150505b919050565b60036020528160005260406000208181548110610b6657600080fd5b906000526020600020016000915091509054906101000a900473ffffffffffffffffffffffffffffffffffffffff1681565b60008054906101000a900473ffffffffffffffffffffffffffffffffffffffff1673ffffffffffffffffffffffffffffffffffffffff163373ffffffffffffffffffffffffffffffffffffffff1614610c26576040517f08c379a0000000000000000000000000000000000000000000000000000000008152600401610c1d90611414565b60405180910390fd5b818160069182610c379291906117a0565b505050565b60026020528060005260406000206000915054906101000a900460ff1681565b606060078054610c6b90611463565b80601f0160208091040260200160405190810160405280929190818152602001828054610c9790611463565b8015610ce45780601f10610cb957610100808354040283529160200191610ce4565b820191906000526020600020905b815481529060010190602001808311610cc757829003601f168201915b5050505050905090565b610cf781610acf565b6004811115610d0957610d08611242565b5b600260003373ffffffffffffffffffffffffffffffffffffffff1673ffffffffffffffffffffffffffffffffffffffff16815260200190815260200160002060009054906101000a900460ff166004811115610d6857610d67611242565b5b14610da8576040517f08c379a0000000000000000000000000000000000000000000000000000000008152600401610d9f906118bc565b60405180910390fd5b6000600260003373ffffffffffffffffffffffffffffffffffffffff1673ffffffffffffffffffffffffffffffffffffffff16815260200190815260200160002060006101000a81548160ff02191690836004811115610e0b57610e0a611242565b5b021790555060036000610e1d83610acf565b6004811115610e2f57610e2e611242565b5b6004811115610e4157610e40611242565b5b8152602001908152602001600020339080600181540180825580915050600190039060005260206000200160009091909190916101000a81548173ffffffffffffffffffffffffffffffffffffffff021916908373ffffffffffffffffffffffffffffffffffffffff16021790555050565b600080fd5b600080fd5b600073ffffffffffffffffffffffffffffffffffffffff82169050919050565b6000610ee882610ebd565b9050919050565b610ef881610edd565b8114610f0357600080fd5b50565b600081359050610f1581610eef565b92915050565b60058110610f2857600080fd5b50565b600081359050610f3a81610f1b565b92915050565b60008060408385031215610f5757610f56610eb3565b5b6000610f6585828601610f06565b9250506020610f7685828601610f2b565b9150509250929050565b60008115159050919050565b610f9581610f80565b82525050565b6000602082019050610fb06000830184610f8c565b92915050565b600060208284031215610fcc57610fcb610eb3565b5b6000610fda84828501610f06565b91505092915050565b600081519050919050565b600082825260208201905092915050565b60005b8381101561101d578082015181840152602081019050611002565b60008484015250505050565b6000601f19601f8301169050919050565b600061104582610fe3565b61104f8185610fee565b935061105f818560208601610fff565b61106881611029565b840191505092915050565b6000602082019050818103600083015261108d818461103a565b905092915050565b61109e81610edd565b82525050565b60006020820190506110b96000830184611095565b92915050565b6000819050919050565b6110d2816110bf565b81146110dd57600080fd5b50565b6000813590506110ef816110c9565b92915050565b6000806040838503121561110c5761110b610eb3565b5b600061111a85828601610f2b565b925050602061112b858286016110e0565b9150509250929050565b60006020828403121561114b5761114a610eb3565b5b600061115984828501610f2b565b91505092915050565b600081519050919050565b600082825260208201905092915050565b6000819050602082019050919050565b61119781610edd565b82525050565b60006111a9838361118e565b60208301905092915050565b6000602082019050919050565b60006111cd82611162565b6111d7818561116d565b93506111e28361117e565b8060005b838110156112135781516111fa888261119d565b9750611205836111b5565b9250506001810190506111e6565b5085935050505092915050565b6000602082019050818103600083015261123a81846111c2565b905092915050565b7f4e487b7100000000000000000000000000000000000000000000000000000000600052602160045260246000fd5b6005811061128257611281611242565b5b50565b600081905061129382611271565b919050565b60006112a382611285565b9050919050565b6112b381611298565b82525050565b60006020820190506112ce60008301846112aa565b92915050565b600080fd5b600080fd5b600080fd5b60008083601f8401126112f9576112f86112d4565b5b8235905067ffffffffffffffff811115611316576113156112d9565b5b602083019150836001820283011115611332576113316112de565b5b9250929050565b600080602083850312156113505761134f610eb3565b5b600083013567ffffffffffffffff81111561136e5761136d610eb8565b5b61137a858286016112e3565b92509250509250929050565b60008151905061139581610f1b565b92915050565b6000602082840312156113b1576113b0610eb3565b5b60006113bf84828501611386565b91505092915050565b7f63616c6c6572206d757374206265206f776e6572000000000000000000000000600082015250565b60006113fe601483610fee565b9150611409826113c8565b602082019050919050565b6000602082019050818103600083015261142d816113f1565b9050919050565b7f4e487b7100000000000000000000000000000000000000000000000000000000600052602260045260246000fd5b6000600282049050600182168061147b57607f821691505b60208210810361148e5761148d611434565b5b50919050565b7f4e487b7100000000000000000000000000000000000000000000000000000000600052603260045260246000fd5b7f4e487b7100000000000000000000000000000000000000000000000000000000600052601260045260246000fd5b60006114fd826110bf565b9150611508836110bf565b925082611518576115176114c3565b5b828206905092915050565b7f4e487b7100000000000000000000000000000000000000000000000000000000600052601160045260246000fd5b600061155d826110bf565b9150611568836110bf565b92508282039050818111156115805761157f611523565b5b92915050565b6000611591826110bf565b915061159c836110bf565b92508282019050808211156115b4576115b3611523565b5b92915050565b600082905092915050565b7f4e487b7100000000000000000000000000000000000000000000000000000000600052604160045260246000fd5b60008190508160005260206000209050919050565b60006020601f8301049050919050565b600082821b905092915050565b6000600883026116567fffffffffffffffffffffffffffffffffffffffffffffffffffffffffffffffff82611619565b6116608683611619565b95508019841693508086168417925050509392505050565b6000819050919050565b600061169d611698611693846110bf565b611678565b6110bf565b9050919050565b6000819050919050565b6116b783611682565b6116cb6116c3826116a4565b848454611626565b825550505050565b600090565b6116e06116d3565b6116eb8184846116ae565b505050565b5b8181101561170f576117046000826116d8565b6001810190506116f1565b5050565b601f82111561175457611725816115f4565b61172e84611609565b8101602085101561173d578190505b61175161174985611609565b8301826116f0565b50505b505050565b600082821c905092915050565b600061177760001984600802611759565b1980831691505092915050565b60006117908383611766565b9150826002028217905092915050565b6117aa83836115ba565b67ffffffffffffffff8111156117c3576117c26115c5565b5b6117cd8254611463565b6117d8828285611713565b6000601f83116001811461180757600084156117f5578287013590505b6117ff8582611784565b865550611867565b601f198416611815866115f4565b60005b8281101561183d57848901358255600182019150602085019450602081019050611818565b8683101561185a5784890135611856601f891682611766565b8355505b6001600288020188555050505b50505050505050565b7f526571756573746f72206973206e6f7420612063616e6469646174652e000000600082015250565b60006118a6601d83610fee565b91506118b182611870565b602082019050919050565b600060208201905081810360008301526118d581611899565b905091905056fea26469706673582212201e49cc821c9dcd5c67fb6b00b2c68b377df37e43cb6c8cc98ced778e929aef3964736f6c63430008120033",
					"opcodes": "PUSH1 0x80 PUSH1 0x40 MSTORE CALLVALUE DUP1 ISZERO PUSH3 0x11 JUMPI PUSH1 0x0 DUP1 REVERT JUMPDEST POP PUSH1 0x40 MLOAD PUSH3 0x1FE6 CODESIZE SUB DUP1 PUSH3 0x1FE6 DUP4 CODECOPY DUP2 DUP2 ADD PUSH1 0x40 MSTORE DUP2 ADD SWAP1 PUSH3 0x37 SWAP2 SWAP1 PUSH3 0x2F8 JUMP JUMPDEST CALLER PUSH1 0x0 DUP1 PUSH2 0x100 EXP DUP2 SLOAD DUP2 PUSH20 0xFFFFFFFFFFFFFFFFFFFFFFFFFFFFFFFFFFFFFFFF MUL NOT AND SWAP1 DUP4 PUSH20 0xFFFFFFFFFFFFFFFFFFFFFFFFFFFFFFFFFFFFFFFF AND MUL OR SWAP1 SSTORE POP DUP1 PUSH1 0x1 PUSH1 0x0 PUSH2 0x100 EXP DUP2 SLOAD DUP2 PUSH20 0xFFFFFFFFFFFFFFFFFFFFFFFFFFFFFFFFFFFFFFFF MUL NOT AND SWAP1 DUP4 PUSH20 0xFFFFFFFFFFFFFFFFFFFFFFFFFFFFFFFFFFFFFFFF AND MUL OR SWAP1 SSTORE POP DUP3 PUSH1 0x5 SWAP1 DUP2 PUSH3 0xC9 SWAP2 SWAP1 PUSH3 0x5DD JUMP JUMPDEST POP DUP2 PUSH1 0x7 SWAP1 DUP2 PUSH3 0xDB SWAP2 SWAP1 PUSH3 0x5DD JUMP JUMPDEST POP PUSH1 0x1 PUSH1 0x4 PUSH1 0x0 PUSH2 0x100 EXP DUP2 SLOAD DUP2 PUSH1 0xFF MUL NOT AND SWAP1 DUP4 ISZERO ISZERO MUL OR SWAP1 SSTORE POP POP POP POP PUSH3 0x6C4 JUMP JUMPDEST PUSH1 0x0 PUSH1 0x40 MLOAD SWAP1 POP SWAP1 JUMP JUMPDEST PUSH1 0x0 DUP1 REVERT JUMPDEST PUSH1 0x0 DUP1 REVERT JUMPDEST PUSH1 0x0 DUP1 REVERT JUMPDEST PUSH1 0x0 DUP1 REVERT JUMPDEST PUSH1 0x0 PUSH1 0x1F NOT PUSH1 0x1F DUP4 ADD AND SWAP1 POP SWAP2 SWAP1 POP JUMP JUMPDEST PUSH32 0x4E487B7100000000000000000000000000000000000000000000000000000000 PUSH1 0x0 MSTORE PUSH1 0x41 PUSH1 0x4 MSTORE PUSH1 0x24 PUSH1 0x0 REVERT JUMPDEST PUSH3 0x169 DUP3 PUSH3 0x11E JUMP JUMPDEST DUP2 ADD DUP2 DUP2 LT PUSH8 0xFFFFFFFFFFFFFFFF DUP3 GT OR ISZERO PUSH3 0x18B JUMPI PUSH3 0x18A PUSH3 0x12F JUMP JUMPDEST JUMPDEST DUP1 PUSH1 0x40 MSTORE POP POP POP JUMP JUMPDEST PUSH1 0x0 PUSH3 0x1A0 PUSH3 0x100 JUMP JUMPDEST SWAP1 POP PUSH3 0x1AE DUP3 DUP3 PUSH3 0x15E JUMP JUMPDEST SWAP2 SWAP1 POP JUMP JUMPDEST PUSH1 0x0 PUSH8 0xFFFFFFFFFFFFFFFF DUP3 GT ISZERO PUSH3 0x1D1 JUMPI PUSH3 0x1D0 PUSH3 0x12F JUMP JUMPDEST JUMPDEST PUSH3 0x1DC DUP3 PUSH3 0x11E JUMP JUMPDEST SWAP1 POP PUSH1 0x20 DUP2 ADD SWAP1 POP SWAP2 SWAP1 POP JUMP JUMPDEST PUSH1 0x0 JUMPDEST DUP4 DUP2 LT ISZERO PUSH3 0x209 JUMPI DUP1 DUP3 ADD MLOAD DUP2 DUP5 ADD MSTORE PUSH1 0x20 DUP2 ADD SWAP1 POP PUSH3 0x1EC JUMP JUMPDEST PUSH1 0x0 DUP5 DUP5 ADD MSTORE POP POP POP POP JUMP JUMPDEST PUSH1 0x0 PUSH3 0x22C PUSH3 0x226 DUP5 PUSH3 0x1B3 JUMP JUMPDEST PUSH3 0x194 JUMP JUMPDEST SWAP1 POP DUP3 DUP2 MSTORE PUSH1 0x20 DUP2 ADD DUP5 DUP5 DUP5 ADD GT ISZERO PUSH3 0x24B JUMPI PUSH3 0x24A PUSH3 0x119 JUMP JUMPDEST JUMPDEST PUSH3 0x258 DUP5 DUP3 DUP6 PUSH3 0x1E9 JUMP JUMPDEST POP SWAP4 SWAP3 POP POP POP JUMP JUMPDEST PUSH1 0x0 DUP3 PUSH1 0x1F DUP4 ADD SLT PUSH3 0x278 JUMPI PUSH3 0x277 PUSH3 0x114 JUMP JUMPDEST JUMPDEST DUP2 MLOAD PUSH3 0x28A DUP5 DUP3 PUSH1 0x20 DUP7 ADD PUSH3 0x215 JUMP JUMPDEST SWAP2 POP POP SWAP3 SWAP2 POP POP JUMP JUMPDEST PUSH1 0x0 PUSH20 0xFFFFFFFFFFFFFFFFFFFFFFFFFFFFFFFFFFFFFFFF DUP3 AND SWAP1 POP SWAP2 SWAP1 POP JUMP JUMPDEST PUSH1 0x0 PUSH3 0x2C0 DUP3 PUSH3 0x293 JUMP JUMPDEST SWAP1 POP SWAP2 SWAP1 POP JUMP JUMPDEST PUSH3 0x2D2 DUP2 PUSH3 0x2B3 JUMP JUMPDEST DUP2 EQ PUSH3 0x2DE JUMPI PUSH1 0x0 DUP1 REVERT JUMPDEST POP JUMP JUMPDEST PUSH1 0x0 DUP2 MLOAD SWAP1 POP PUSH3 0x2F2 DUP2 PUSH3 0x2C7 JUMP JUMPDEST SWAP3 SWAP2 POP POP JUMP JUMPDEST PUSH1 0x0 DUP1 PUSH1 0x0 PUSH1 0x60 DUP5 DUP7 SUB SLT ISZERO PUSH3 0x314 JUMPI PUSH3 0x313 PUSH3 0x10A JUMP JUMPDEST JUMPDEST PUSH1 0x0 DUP5 ADD MLOAD PUSH8 0xFFFFFFFFFFFFFFFF DUP2 GT ISZERO PUSH3 0x335 JUMPI PUSH3 0x334 PUSH3 0x10F JUMP JUMPDEST JUMPDEST PUSH3 0x343 DUP7 DUP3 DUP8 ADD PUSH3 0x260 JUMP JUMPDEST SWAP4 POP POP PUSH1 0x20 DUP5 ADD MLOAD PUSH8 0xFFFFFFFFFFFFFFFF DUP2 GT ISZERO PUSH3 0x367 JUMPI PUSH3 0x366 PUSH3 0x10F JUMP JUMPDEST JUMPDEST PUSH3 0x375 DUP7 DUP3 DUP8 ADD PUSH3 0x260 JUMP JUMPDEST SWAP3 POP POP PUSH1 0x40 PUSH3 0x388 DUP7 DUP3 DUP8 ADD PUSH3 0x2E1 JUMP JUMPDEST SWAP2 POP POP SWAP3 POP SWAP3 POP SWAP3 JUMP JUMPDEST PUSH1 0x0 DUP2 MLOAD SWAP1 POP SWAP2 SWAP1 POP JUMP JUMPDEST PUSH32 0x4E487B7100000000000000000000000000000000000000000000000000000000 PUSH1 0x0 MSTORE PUSH1 0x22 PUSH1 0x4 MSTORE PUSH1 0x24 PUSH1 0x0 REVERT JUMPDEST PUSH1 0x0 PUSH1 0x2 DUP3 DIV SWAP1 POP PUSH1 0x1 DUP3 AND DUP1 PUSH3 0x3E5 JUMPI PUSH1 0x7F DUP3 AND SWAP2 POP JUMPDEST PUSH1 0x20 DUP3 LT DUP2 SUB PUSH3 0x3FB JUMPI PUSH3 0x3FA PUSH3 0x39D JUMP JUMPDEST JUMPDEST POP SWAP2 SWAP1 POP JUMP JUMPDEST PUSH1 0x0 DUP2 SWAP1 POP DUP2 PUSH1 0x0 MSTORE PUSH1 0x20 PUSH1 0x0 KECCAK256 SWAP1 POP SWAP2 SWAP1 POP JUMP JUMPDEST PUSH1 0x0 PUSH1 0x20 PUSH1 0x1F DUP4 ADD DIV SWAP1 POP SWAP2 SWAP1 POP JUMP JUMPDEST PUSH1 0x0 DUP3 DUP3 SHL SWAP1 POP SWAP3 SWAP2 POP POP JUMP JUMPDEST PUSH1 0x0 PUSH1 0x8 DUP4 MUL PUSH3 0x465 PUSH32 0xFFFFFFFFFFFFFFFFFFFFFFFFFFFFFFFFFFFFFFFFFFFFFFFFFFFFFFFFFFFFFFFF DUP3 PUSH3 0x426 JUMP JUMPDEST PUSH3 0x471 DUP7 DUP4 PUSH3 0x426 JUMP JUMPDEST SWAP6 POP DUP1 NOT DUP5 AND SWAP4 POP DUP1 DUP7 AND DUP5 OR SWAP3 POP POP POP SWAP4 SWAP3 POP POP POP JUMP JUMPDEST PUSH1 0x0 DUP2 SWAP1 POP SWAP2 SWAP1 POP JUMP JUMPDEST PUSH1 0x0 DUP2 SWAP1 POP SWAP2 SWAP1 POP JUMP JUMPDEST PUSH1 0x0 PUSH3 0x4BE PUSH3 0x4B8 PUSH3 0x4B2 DUP5 PUSH3 0x489 JUMP JUMPDEST PUSH3 0x493 JUMP JUMPDEST PUSH3 0x489 JUMP JUMPDEST SWAP1 POP SWAP2 SWAP1 POP JUMP JUMPDEST PUSH1 0x0 DUP2 SWAP1 POP SWAP2 SWAP1 POP JUMP JUMPDEST PUSH3 0x4DA DUP4 PUSH3 0x49D JUMP JUMPDEST PUSH3 0x4F2 PUSH3 0x4E9 DUP3 PUSH3 0x4C5 JUMP JUMPDEST DUP5 DUP5 SLOAD PUSH3 0x433 JUMP JUMPDEST DUP3 SSTORE POP POP POP POP JUMP JUMPDEST PUSH1 0x0 SWAP1 JUMP JUMPDEST PUSH3 0x509 PUSH3 0x4FA JUMP JUMPDEST PUSH3 0x516 DUP2 DUP5 DUP5 PUSH3 0x4CF JUMP JUMPDEST POP POP POP JUMP JUMPDEST JUMPDEST DUP2 DUP2 LT ISZERO PUSH3 0x53E JUMPI PUSH3 0x532 PUSH1 0x0 DUP3 PUSH3 0x4FF JUMP JUMPDEST PUSH1 0x1 DUP2 ADD SWAP1 POP PUSH3 0x51C JUMP JUMPDEST POP POP JUMP JUMPDEST PUSH1 0x1F DUP3 GT ISZERO PUSH3 0x58D JUMPI PUSH3 0x557 DUP2 PUSH3 0x401 JUMP JUMPDEST PUSH3 0x562 DUP5 PUSH3 0x416 JUMP JUMPDEST DUP2 ADD PUSH1 0x20 DUP6 LT ISZERO PUSH3 0x572 JUMPI DUP2 SWAP1 POP JUMPDEST PUSH3 0x58A PUSH3 0x581 DUP6 PUSH3 0x416 JUMP JUMPDEST DUP4 ADD DUP3 PUSH3 0x51B JUMP JUMPDEST POP POP JUMPDEST POP POP POP JUMP JUMPDEST PUSH1 0x0 DUP3 DUP3 SHR SWAP1 POP SWAP3 SWAP2 POP POP JUMP JUMPDEST PUSH1 0x0 PUSH3 0x5B2 PUSH1 0x0 NOT DUP5 PUSH1 0x8 MUL PUSH3 0x592 JUMP JUMPDEST NOT DUP1 DUP4 AND SWAP2 POP POP SWAP3 SWAP2 POP POP JUMP JUMPDEST PUSH1 0x0 PUSH3 0x5CD DUP4 DUP4 PUSH3 0x59F JUMP JUMPDEST SWAP2 POP DUP3 PUSH1 0x2 MUL DUP3 OR SWAP1 POP SWAP3 SWAP2 POP POP JUMP JUMPDEST PUSH3 0x5E8 DUP3 PUSH3 0x392 JUMP JUMPDEST PUSH8 0xFFFFFFFFFFFFFFFF DUP2 GT ISZERO PUSH3 0x604 JUMPI PUSH3 0x603 PUSH3 0x12F JUMP JUMPDEST JUMPDEST PUSH3 0x610 DUP3 SLOAD PUSH3 0x3CC JUMP JUMPDEST PUSH3 0x61D DUP3 DUP3 DUP6 PUSH3 0x542 JUMP JUMPDEST PUSH1 0x0 PUSH1 0x20 SWAP1 POP PUSH1 0x1F DUP4 GT PUSH1 0x1 DUP2 EQ PUSH3 0x655 JUMPI PUSH1 0x0 DUP5 ISZERO PUSH3 0x640 JUMPI DUP3 DUP8 ADD MLOAD SWAP1 POP JUMPDEST PUSH3 0x64C DUP6 DUP3 PUSH3 0x5BF JUMP JUMPDEST DUP7 SSTORE POP PUSH3 0x6BC JUMP JUMPDEST PUSH1 0x1F NOT DUP5 AND PUSH3 0x665 DUP7 PUSH3 0x401 JUMP JUMPDEST PUSH1 0x0 JUMPDEST DUP3 DUP2 LT ISZERO PUSH3 0x68F JUMPI DUP5 DUP10 ADD MLOAD DUP3 SSTORE PUSH1 0x1 DUP3 ADD SWAP2 POP PUSH1 0x20 DUP6 ADD SWAP5 POP PUSH1 0x20 DUP2 ADD SWAP1 POP PUSH3 0x668 JUMP JUMPDEST DUP7 DUP4 LT ISZERO PUSH3 0x6AF JUMPI DUP5 DUP10 ADD MLOAD PUSH3 0x6AB PUSH1 0x1F DUP10 AND DUP3 PUSH3 0x59F JUMP JUMPDEST DUP4 SSTORE POP JUMPDEST PUSH1 0x1 PUSH1 0x2 DUP9 MUL ADD DUP9 SSTORE POP POP POP JUMPDEST POP POP POP POP POP POP JUMP JUMPDEST PUSH2 0x1912 DUP1 PUSH3 0x6D4 PUSH1 0x0 CODECOPY PUSH1 0x0 RETURN INVALID PUSH1 0x80 PUSH1 0x40 MSTORE CALLVALUE DUP1 ISZERO PUSH2 0x10 JUMPI PUSH1 0x0 DUP1 REVERT JUMPDEST POP PUSH1 0x4 CALLDATASIZE LT PUSH2 0x10B JUMPI PUSH1 0x0 CALLDATALOAD PUSH1 0xE0 SHR DUP1 PUSH4 0x9407921C GT PUSH2 0xA2 JUMPI DUP1 PUSH4 0xDE802761 GT PUSH2 0x71 JUMPI DUP1 PUSH4 0xDE802761 EQ PUSH2 0x2BA JUMPI DUP1 PUSH4 0xE5AB27E3 EQ PUSH2 0x2EA JUMPI DUP1 PUSH4 0xF39F05F7 EQ PUSH2 0x306 JUMPI DUP1 PUSH4 0xFBEAA42F EQ PUSH2 0x336 JUMPI DUP1 PUSH4 0xFC107720 EQ PUSH2 0x354 JUMPI PUSH2 0x10B JUMP JUMPDEST DUP1 PUSH4 0x9407921C EQ PUSH2 0x21E JUMPI DUP1 PUSH4 0xB1D90809 EQ PUSH2 0x24E JUMPI DUP1 PUSH4 0xC524E7F6 EQ PUSH2 0x26C JUMPI DUP1 PUSH4 0xCA9D2C6B EQ PUSH2 0x28A JUMPI PUSH2 0x10B JUMP JUMPDEST DUP1 PUSH4 0x55C1C478 GT PUSH2 0xDE JUMPI DUP1 PUSH4 0x55C1C478 EQ PUSH2 0x1AA JUMPI DUP1 PUSH4 0x5F891D98 EQ PUSH2 0x1C8 JUMPI DUP1 PUSH4 0x6947A020 EQ PUSH2 0x1E4 JUMPI DUP1 PUSH4 0x8DA5CB5B EQ PUSH2 0x200 JUMPI PUSH2 0x10B JUMP JUMPDEST DUP1 PUSH4 0xFBDD521 EQ PUSH2 0x110 JUMPI DUP1 PUSH4 0x101D4FB9 EQ PUSH2 0x140 JUMPI DUP1 PUSH4 0x244DED7A EQ PUSH2 0x170 JUMPI DUP1 PUSH4 0x481FD6B5 EQ PUSH2 0x18C JUMPI JUMPDEST PUSH1 0x0 DUP1 REVERT JUMPDEST PUSH2 0x12A PUSH1 0x4 DUP1 CALLDATASIZE SUB DUP2 ADD SWAP1 PUSH2 0x125 SWAP2 SWAP1 PUSH2 0xF40 JUMP JUMPDEST PUSH2 0x370 JUMP JUMPDEST PUSH1 0x40 MLOAD PUSH2 0x137 SWAP2 SWAP1 PUSH2 0xF9B JUMP JUMPDEST PUSH1 0x40 MLOAD DUP1 SWAP2 SUB SWAP1 RETURN JUMPDEST PUSH2 0x15A PUSH1 0x4 DUP1 CALLDATASIZE SUB DUP2 ADD SWAP1 PUSH2 0x155 SWAP2 SWAP1 PUSH2 0xF40 JUMP JUMPDEST PUSH2 0x5A2 JUMP JUMPDEST PUSH1 0x40 MLOAD PUSH2 0x167 SWAP2 SWAP1 PUSH2 0xF9B JUMP JUMPDEST PUSH1 0x40 MLOAD DUP1 SWAP2 SUB SWAP1 RETURN JUMPDEST PUSH2 0x18A PUSH1 0x4 DUP1 CALLDATASIZE SUB DUP2 ADD SWAP1 PUSH2 0x185 SWAP2 SWAP1 PUSH2 0xFB6 JUMP JUMPDEST PUSH2 0x61F JUMP JUMPDEST STOP JUMPDEST PUSH2 0x194 PUSH2 0x6F0 JUMP JUMPDEST PUSH1 0x40 MLOAD PUSH2 0x1A1 SWAP2 SWAP1 PUSH2 0x1073 JUMP JUMPDEST PUSH1 0x40 MLOAD DUP1 SWAP2 SUB SWAP1 RETURN JUMPDEST PUSH2 0x1B2 PUSH2 0x782 JUMP JUMPDEST PUSH1 0x40 MLOAD PUSH2 0x1BF SWAP2 SWAP1 PUSH2 0x10A4 JUMP JUMPDEST PUSH1 0x40 MLOAD DUP1 SWAP2 SUB SWAP1 RETURN JUMPDEST PUSH2 0x1E2 PUSH1 0x4 DUP1 CALLDATASIZE SUB DUP2 ADD SWAP1 PUSH2 0x1DD SWAP2 SWAP1 PUSH2 0x10F5 JUMP JUMPDEST PUSH2 0x7AC JUMP JUMPDEST STOP JUMPDEST PUSH2 0x1FE PUSH1 0x4 DUP1 CALLDATASIZE SUB DUP2 ADD SWAP1 PUSH2 0x1F9 SWAP2 SWAP1 PUSH2 0xF40 JUMP JUMPDEST PUSH2 0x826 JUMP JUMPDEST STOP JUMPDEST PUSH2 0x208 PUSH2 0x891 JUMP JUMPDEST PUSH1 0x40 MLOAD PUSH2 0x215 SWAP2 SWAP1 PUSH2 0x10A4 JUMP JUMPDEST PUSH1 0x40 MLOAD DUP1 SWAP2 SUB SWAP1 RETURN JUMPDEST PUSH2 0x238 PUSH1 0x4 DUP1 CALLDATASIZE SUB DUP2 ADD SWAP1 PUSH2 0x233 SWAP2 SWAP1 PUSH2 0x1135 JUMP JUMPDEST PUSH2 0x8B5 JUMP JUMPDEST PUSH1 0x40 MLOAD PUSH2 0x245 SWAP2 SWAP1 PUSH2 0x1220 JUMP JUMPDEST PUSH1 0x40 MLOAD DUP1 SWAP2 SUB SWAP1 RETURN JUMPDEST PUSH2 0x256 PUSH2 0x97A JUMP JUMPDEST PUSH1 0x40 MLOAD PUSH2 0x263 SWAP2 SWAP1 PUSH2 0x1220 JUMP JUMPDEST PUSH1 0x40 MLOAD DUP1 SWAP2 SUB SWAP1 RETURN JUMPDEST PUSH2 0x274 PUSH2 0xA3D JUMP JUMPDEST PUSH1 0x40 MLOAD PUSH2 0x281 SWAP2 SWAP1 PUSH2 0x1073 JUMP JUMPDEST PUSH1 0x40 MLOAD DUP1 SWAP2 SUB SWAP1 RETURN JUMPDEST PUSH2 0x2A4 PUSH1 0x4 DUP1 CALLDATASIZE SUB DUP2 ADD SWAP1 PUSH2 0x29F SWAP2 SWAP1 PUSH2 0x1135 JUMP JUMPDEST PUSH2 0xACF JUMP JUMPDEST PUSH1 0x40 MLOAD PUSH2 0x2B1 SWAP2 SWAP1 PUSH2 0x12B9 JUMP JUMPDEST PUSH1 0x40 MLOAD DUP1 SWAP2 SUB SWAP1 RETURN JUMPDEST PUSH2 0x2D4 PUSH1 0x4 DUP1 CALLDATASIZE SUB DUP2 ADD SWAP1 PUSH2 0x2CF SWAP2 SWAP1 PUSH2 0x10F5 JUMP JUMPDEST PUSH2 0xB4A JUMP JUMPDEST PUSH1 0x40 MLOAD PUSH2 0x2E1 SWAP2 SWAP1 PUSH2 0x10A4 JUMP JUMPDEST PUSH1 0x40 MLOAD DUP1 SWAP2 SUB SWAP1 RETURN JUMPDEST PUSH2 0x304 PUSH1 0x4 DUP1 CALLDATASIZE SUB DUP2 ADD SWAP1 PUSH2 0x2FF SWAP2 SWAP1 PUSH2 0x1339 JUMP JUMPDEST PUSH2 0xB98 JUMP JUMPDEST STOP JUMPDEST PUSH2 0x320 PUSH1 0x4 DUP1 CALLDATASIZE SUB DUP2 ADD SWAP1 PUSH2 0x31B SWAP2 SWAP1 PUSH2 0xFB6 JUMP JUMPDEST PUSH2 0xC3C JUMP JUMPDEST PUSH1 0x40 MLOAD PUSH2 0x32D SWAP2 SWAP1 PUSH2 0x12B9 JUMP JUMPDEST PUSH1 0x40 MLOAD DUP1 SWAP2 SUB SWAP1 RETURN JUMPDEST PUSH2 0x33E PUSH2 0xC5C JUMP JUMPDEST PUSH1 0x40 MLOAD PUSH2 0x34B SWAP2 SWAP1 PUSH2 0x1073 JUMP JUMPDEST PUSH1 0x40 MLOAD DUP1 SWAP2 SUB SWAP1 RETURN JUMPDEST PUSH2 0x36E PUSH1 0x4 DUP1 CALLDATASIZE SUB DUP2 ADD SWAP1 PUSH2 0x369 SWAP2 SWAP1 PUSH2 0x1135 JUMP JUMPDEST PUSH2 0xCEE JUMP JUMPDEST STOP JUMPDEST PUSH1 0x0 DUP1 DUP4 SWAP1 POP PUSH2 0x37F DUP4 PUSH2 0xACF JUMP JUMPDEST PUSH1 0x4 DUP2 GT ISZERO PUSH2 0x391 JUMPI PUSH2 0x390 PUSH2 0x1242 JUMP JUMPDEST JUMPDEST DUP2 PUSH20 0xFFFFFFFFFFFFFFFFFFFFFFFFFFFFFFFFFFFFFFFF AND PUSH4 0xF39F05F7 ADDRESS PUSH1 0x40 MLOAD DUP3 PUSH4 0xFFFFFFFF AND PUSH1 0xE0 SHL DUP2 MSTORE PUSH1 0x4 ADD PUSH2 0x3CA SWAP2 SWAP1 PUSH2 0x10A4 JUMP JUMPDEST PUSH1 0x20 PUSH1 0x40 MLOAD DUP1 DUP4 SUB DUP2 DUP7 GAS STATICCALL ISZERO DUP1 ISZERO PUSH2 0x3E7 JUMPI RETURNDATASIZE PUSH1 0x0 DUP1 RETURNDATACOPY RETURNDATASIZE PUSH1 0x0 REVERT JUMPDEST POP POP POP POP PUSH1 0x40 MLOAD RETURNDATASIZE PUSH1 0x1F NOT PUSH1 0x1F DUP3 ADD AND DUP3 ADD DUP1 PUSH1 0x40 MSTORE POP DUP2 ADD SWAP1 PUSH2 0x40B SWAP2 SWAP1 PUSH2 0x139B JUMP JUMPDEST PUSH1 0x4 DUP2 GT ISZERO PUSH2 0x41D JUMPI PUSH2 0x41C PUSH2 0x1242 JUMP JUMPDEST JUMPDEST SUB PUSH2 0x52F JUMPI PUSH1 0x3 PUSH1 0x0 DUP5 PUSH1 0x4 DUP2 GT ISZERO PUSH2 0x439 JUMPI PUSH2 0x438 PUSH2 0x1242 JUMP JUMPDEST JUMPDEST PUSH1 0x4 DUP2 GT ISZERO PUSH2 0x44B JUMPI PUSH2 0x44A PUSH2 0x1242 JUMP JUMPDEST JUMPDEST DUP2 MSTORE PUSH1 0x20 ADD SWAP1 DUP2 MSTORE PUSH1 0x20 ADD PUSH1 0x0 KECCAK256 DUP5 SWAP1 DUP1 PUSH1 0x1 DUP2 SLOAD ADD DUP1 DUP3 SSTORE DUP1 SWAP2 POP POP PUSH1 0x1 SWAP1 SUB SWAP1 PUSH1 0x0 MSTORE PUSH1 0x20 PUSH1 0x0 KECCAK256 ADD PUSH1 0x0 SWAP1 SWAP2 SWAP1 SWAP2 SWAP1 SWAP2 PUSH2 0x100 EXP DUP2 SLOAD DUP2 PUSH20 0xFFFFFFFFFFFFFFFFFFFFFFFFFFFFFFFFFFFFFFFF MUL NOT AND SWAP1 DUP4 PUSH20 0xFFFFFFFFFFFFFFFFFFFFFFFFFFFFFFFFFFFFFFFF AND MUL OR SWAP1 SSTORE POP DUP1 PUSH20 0xFFFFFFFFFFFFFFFFFFFFFFFFFFFFFFFFFFFFFFFF AND PUSH4 0xFC107720 DUP5 PUSH1 0x40 MLOAD DUP3 PUSH4 0xFFFFFFFF AND PUSH1 0xE0 SHL DUP2 MSTORE PUSH1 0x4 ADD PUSH2 0x4F3 SWAP2 SWAP1 PUSH2 0x12B9 JUMP JUMPDEST PUSH1 0x0 PUSH1 0x40 MLOAD DUP1 DUP4 SUB DUP2 PUSH1 0x0 DUP8 DUP1 EXTCODESIZE ISZERO DUP1 ISZERO PUSH2 0x50D JUMPI PUSH1 0x0 DUP1 REVERT JUMPDEST POP GAS CALL ISZERO DUP1 ISZERO PUSH2 0x521 JUMPI RETURNDATASIZE PUSH1 0x0 DUP1 RETURNDATACOPY RETURNDATASIZE PUSH1 0x0 REVERT JUMPDEST POP POP POP POP PUSH1 0x1 SWAP2 POP POP PUSH2 0x59C JUMP JUMPDEST DUP3 PUSH1 0x2 PUSH1 0x0 DUP7 PUSH20 0xFFFFFFFFFFFFFFFFFFFFFFFFFFFFFFFFFFFFFFFF AND PUSH20 0xFFFFFFFFFFFFFFFFFFFFFFFFFFFFFFFFFFFFFFFF AND DUP2 MSTORE PUSH1 0x20 ADD SWAP1 DUP2 MSTORE PUSH1 0x20 ADD PUSH1 0x0 KECCAK256 PUSH1 0x0 PUSH2 0x100 EXP DUP2 SLOAD DUP2 PUSH1 0xFF MUL NOT AND SWAP1 DUP4 PUSH1 0x4 DUP2 GT ISZERO PUSH2 0x591 JUMPI PUSH2 0x590 PUSH2 0x1242 JUMP JUMPDEST JUMPDEST MUL OR SWAP1 SSTORE POP PUSH1 0x0 SWAP2 POP POP JUMPDEST SWAP3 SWAP2 POP POP JUMP JUMPDEST PUSH1 0x0 DUP2 PUSH1 0x4 DUP2 GT ISZERO PUSH2 0x5B7 JUMPI PUSH2 0x5B6 PUSH2 0x1242 JUMP JUMPDEST JUMPDEST PUSH1 0x2 PUSH1 0x0 DUP6 PUSH20 0xFFFFFFFFFFFFFFFFFFFFFFFFFFFFFFFFFFFFFFFF AND PUSH20 0xFFFFFFFFFFFFFFFFFFFFFFFFFFFFFFFFFFFFFFFF AND DUP2 MSTORE PUSH1 0x20 ADD SWAP1 DUP2 MSTORE PUSH1 0x20 ADD PUSH1 0x0 KECCAK256 PUSH1 0x0 SWAP1 SLOAD SWAP1 PUSH2 0x100 EXP SWAP1 DIV PUSH1 0xFF AND PUSH1 0x4 DUP2 GT ISZERO PUSH2 0x616 JUMPI PUSH2 0x615 PUSH2 0x1242 JUMP JUMPDEST JUMPDEST EQ SWAP1 POP SWAP3 SWAP2 POP POP JUMP JUMPDEST PUSH1 0x0 DUP1 SLOAD SWAP1 PUSH2 0x100 EXP SWAP1 DIV PUSH20 0xFFFFFFFFFFFFFFFFFFFFFFFFFFFFFFFFFFFFFFFF AND PUSH20 0xFFFFFFFFFFFFFFFFFFFFFFFFFFFFFFFFFFFFFFFF AND CALLER PUSH20 0xFFFFFFFFFFFFFFFFFFFFFFFFFFFFFFFFFFFFFFFF AND EQ PUSH2 0x6AD JUMPI PUSH1 0x40 MLOAD PUSH32 0x8C379A000000000000000000000000000000000000000000000000000000000 DUP2 MSTORE PUSH1 0x4 ADD PUSH2 0x6A4 SWAP1 PUSH2 0x1414 JUMP JUMPDEST PUSH1 0x40 MLOAD DUP1 SWAP2 SUB SWAP1 REVERT JUMPDEST DUP1 PUSH1 0x0 DUP1 PUSH2 0x100 EXP DUP2 SLOAD DUP2 PUSH20 0xFFFFFFFFFFFFFFFFFFFFFFFFFFFFFFFFFFFFFFFF MUL NOT AND SWAP1 DUP4 PUSH20 0xFFFFFFFFFFFFFFFFFFFFFFFFFFFFFFFFFFFFFFFF AND MUL OR SWAP1 SSTORE POP POP JUMP JUMPDEST PUSH1 0x60 PUSH1 0x5 DUP1 SLOAD PUSH2 0x6FF SWAP1 PUSH2 0x1463 JUMP JUMPDEST DUP1 PUSH1 0x1F ADD PUSH1 0x20 DUP1 SWAP2 DIV MUL PUSH1 0x20 ADD PUSH1 0x40 MLOAD SWAP1 DUP2 ADD PUSH1 0x40 MSTORE DUP1 SWAP3 SWAP2 SWAP1 DUP2 DUP2 MSTORE PUSH1 0x20 ADD DUP3 DUP1 SLOAD PUSH2 0x72B SWAP1 PUSH2 0x1463 JUMP JUMPDEST DUP1 ISZERO PUSH2 0x778 JUMPI DUP1 PUSH1 0x1F LT PUSH2 0x74D JUMPI PUSH2 0x100 DUP1 DUP4 SLOAD DIV MUL DUP4 MSTORE SWAP2 PUSH1 0x20 ADD SWAP2 PUSH2 0x778 JUMP JUMPDEST DUP3 ADD SWAP2 SWAP1 PUSH1 0x0 MSTORE PUSH1 0x20 PUSH1 0x0 KECCAK256 SWAP1 JUMPDEST DUP2 SLOAD DUP2 MSTORE SWAP1 PUSH1 0x1 ADD SWAP1 PUSH1 0x20 ADD DUP1 DUP4 GT PUSH2 0x75B JUMPI DUP3 SWAP1 SUB PUSH1 0x1F AND DUP3 ADD SWAP2 JUMPDEST POP POP POP POP POP SWAP1 POP SWAP1 JUMP JUMPDEST PUSH1 0x0 PUSH1 0x1 PUSH1 0x0 SWAP1 SLOAD SWAP1 PUSH2 0x100 EXP SWAP1 DIV PUSH20 0xFFFFFFFFFFFFFFFFFFFFFFFFFFFFFFFFFFFFFFFF AND SWAP1 POP SWAP1 JUMP JUMPDEST PUSH1 0x3 PUSH1 0x0 DUP4 PUSH1 0x4 DUP2 GT ISZERO PUSH2 0x7C3 JUMPI PUSH2 0x7C2 PUSH2 0x1242 JUMP JUMPDEST JUMPDEST PUSH1 0x4 DUP2 GT ISZERO PUSH2 0x7D5 JUMPI PUSH2 0x7D4 PUSH2 0x1242 JUMP JUMPDEST JUMPDEST DUP2 MSTORE PUSH1 0x20 ADD SWAP1 DUP2 MSTORE PUSH1 0x20 ADD PUSH1 0x0 KECCAK256 DUP2 DUP2 SLOAD DUP2 LT PUSH2 0x7F5 JUMPI PUSH2 0x7F4 PUSH2 0x1494 JUMP JUMPDEST JUMPDEST SWAP1 PUSH1 0x0 MSTORE PUSH1 0x20 PUSH1 0x0 KECCAK256 ADD PUSH1 0x0 PUSH2 0x100 EXP DUP2 SLOAD SWAP1 PUSH20 0xFFFFFFFFFFFFFFFFFFFFFFFFFFFFFFFFFFFFFFFF MUL NOT AND SWAP1 SSTORE POP POP JUMP JUMPDEST DUP1 PUSH1 0x2 PUSH1 0x0 DUP5 PUSH20 0xFFFFFFFFFFFFFFFFFFFFFFFFFFFFFFFFFFFFFFFF AND PUSH20 0xFFFFFFFFFFFFFFFFFFFFFFFFFFFFFFFFFFFFFFFF AND DUP2 MSTORE PUSH1 0x20 ADD SWAP1 DUP2 MSTORE PUSH1 0x20 ADD PUSH1 0x0 KECCAK256 PUSH1 0x0 PUSH2 0x100 EXP DUP2 SLOAD DUP2 PUSH1 0xFF MUL NOT AND SWAP1 DUP4 PUSH1 0x4 DUP2 GT ISZERO PUSH2 0x888 JUMPI PUSH2 0x887 PUSH2 0x1242 JUMP JUMPDEST JUMPDEST MUL OR SWAP1 SSTORE POP POP POP JUMP JUMPDEST PUSH1 0x0 DUP1 SLOAD SWAP1 PUSH2 0x100 EXP SWAP1 DIV PUSH20 0xFFFFFFFFFFFFFFFFFFFFFFFFFFFFFFFFFFFFFFFF AND DUP2 JUMP JUMPDEST PUSH1 0x60 PUSH1 0x3 PUSH1 0x0 DUP4 PUSH1 0x4 DUP2 GT ISZERO PUSH2 0x8CE JUMPI PUSH2 0x8CD PUSH2 0x1242 JUMP JUMPDEST JUMPDEST PUSH1 0x4 DUP2 GT ISZERO PUSH2 0x8E0 JUMPI PUSH2 0x8DF PUSH2 0x1242 JUMP JUMPDEST JUMPDEST DUP2 MSTORE PUSH1 0x20 ADD SWAP1 DUP2 MSTORE PUSH1 0x20 ADD PUSH1 0x0 KECCAK256 DUP1 SLOAD DUP1 PUSH1 0x20 MUL PUSH1 0x20 ADD PUSH1 0x40 MLOAD SWAP1 DUP2 ADD PUSH1 0x40 MSTORE DUP1 SWAP3 SWAP2 SWAP1 DUP2 DUP2 MSTORE PUSH1 0x20 ADD DUP3 DUP1 SLOAD DUP1 ISZERO PUSH2 0x96E JUMPI PUSH1 0x20 MUL DUP3 ADD SWAP2 SWAP1 PUSH1 0x0 MSTORE PUSH1 0x20 PUSH1 0x0 KECCAK256 SWAP1 JUMPDEST DUP2 PUSH1 0x0 SWAP1 SLOAD SWAP1 PUSH2 0x100 EXP SWAP1 DIV PUSH20 0xFFFFFFFFFFFFFFFFFFFFFFFFFFFFFFFFFFFFFFFF AND PUSH20 0xFFFFFFFFFFFFFFFFFFFFFFFFFFFFFFFFFFFFFFFF AND DUP2 MSTORE PUSH1 0x20 ADD SWAP1 PUSH1 0x1 ADD SWAP1 DUP1 DUP4 GT PUSH2 0x924 JUMPI JUMPDEST POP POP POP POP POP SWAP1 POP SWAP2 SWAP1 POP JUMP JUMPDEST PUSH1 0x60 PUSH1 0x3 PUSH1 0x0 PUSH1 0x4 DUP1 DUP2 GT ISZERO PUSH2 0x993 JUMPI PUSH2 0x992 PUSH2 0x1242 JUMP JUMPDEST JUMPDEST PUSH1 0x4 DUP2 GT ISZERO PUSH2 0x9A5 JUMPI PUSH2 0x9A4 PUSH2 0x1242 JUMP JUMPDEST JUMPDEST DUP2 MSTORE PUSH1 0x20 ADD SWAP1 DUP2 MSTORE PUSH1 0x20 ADD PUSH1 0x0 KECCAK256 DUP1 SLOAD DUP1 PUSH1 0x20 MUL PUSH1 0x20 ADD PUSH1 0x40 MLOAD SWAP1 DUP2 ADD PUSH1 0x40 MSTORE DUP1 SWAP3 SWAP2 SWAP1 DUP2 DUP2 MSTORE PUSH1 0x20 ADD DUP3 DUP1 SLOAD DUP1 ISZERO PUSH2 0xA33 JUMPI PUSH1 0x20 MUL DUP3 ADD SWAP2 SWAP1 PUSH1 0x0 MSTORE PUSH1 0x20 PUSH1 0x0 KECCAK256 SWAP1 JUMPDEST DUP2 PUSH1 0x0 SWAP1 SLOAD SWAP1 PUSH2 0x100 EXP SWAP1 DIV PUSH20 0xFFFFFFFFFFFFFFFFFFFFFFFFFFFFFFFFFFFFFFFF AND PUSH20 0xFFFFFFFFFFFFFFFFFFFFFFFFFFFFFFFFFFFFFFFF AND DUP2 MSTORE PUSH1 0x20 ADD SWAP1 PUSH1 0x1 ADD SWAP1 DUP1 DUP4 GT PUSH2 0x9E9 JUMPI JUMPDEST POP POP POP POP POP SWAP1 POP SWAP1 JUMP JUMPDEST PUSH1 0x60 PUSH1 0x6 DUP1 SLOAD PUSH2 0xA4C SWAP1 PUSH2 0x1463 JUMP JUMPDEST DUP1 PUSH1 0x1F ADD PUSH1 0x20 DUP1 SWAP2 DIV MUL PUSH1 0x20 ADD PUSH1 0x40 MLOAD SWAP1 DUP2 ADD PUSH1 0x40 MSTORE DUP1 SWAP3 SWAP2 SWAP1 DUP2 DUP2 MSTORE PUSH1 0x20 ADD DUP3 DUP1 SLOAD PUSH2 0xA78 SWAP1 PUSH2 0x1463 JUMP JUMPDEST DUP1 ISZERO PUSH2 0xAC5 JUMPI DUP1 PUSH1 0x1F LT PUSH2 0xA9A JUMPI PUSH2 0x100 DUP1 DUP4 SLOAD DIV MUL DUP4 MSTORE SWAP2 PUSH1 0x20 ADD SWAP2 PUSH2 0xAC5 JUMP JUMPDEST DUP3 ADD SWAP2 SWAP1 PUSH1 0x0 MSTORE PUSH1 0x20 PUSH1 0x0 KECCAK256 SWAP1 JUMPDEST DUP2 SLOAD DUP2 MSTORE SWAP1 PUSH1 0x1 ADD SWAP1 PUSH1 0x20 ADD DUP1 DUP4 GT PUSH2 0xAA8 JUMPI DUP3 SWAP1 SUB PUSH1 0x1F AND DUP3 ADD SWAP2 JUMPDEST POP POP POP POP POP SWAP1 POP SWAP1 JUMP JUMPDEST PUSH1 0x0 DUP1 DUP3 PUSH1 0x4 DUP2 GT ISZERO PUSH2 0xAE5 JUMPI PUSH2 0xAE4 PUSH2 0x1242 JUMP JUMPDEST JUMPDEST SWAP1 POP PUSH1 0x0 PUSH1 0x2 DUP3 PUSH2 0xAF6 SWAP2 SWAP1 PUSH2 0x14F2 JUMP JUMPDEST SUB PUSH2 0xB22 JUMPI PUSH1 0x1 DUP2 PUSH2 0xB08 SWAP2 SWAP1 PUSH2 0x1552 JUMP JUMPDEST PUSH1 0x4 DUP2 GT ISZERO PUSH2 0xB1A JUMPI PUSH2 0xB19 PUSH2 0x1242 JUMP JUMPDEST JUMPDEST SWAP2 POP POP PUSH2 0xB45 JUMP JUMPDEST PUSH1 0x1 DUP2 PUSH2 0xB2F SWAP2 SWAP1 PUSH2 0x1586 JUMP JUMPDEST PUSH1 0x4 DUP2 GT ISZERO PUSH2 0xB41 JUMPI PUSH2 0xB40 PUSH2 0x1242 JUMP JUMPDEST JUMPDEST SWAP2 POP POP JUMPDEST SWAP2 SWAP1 POP JUMP JUMPDEST PUSH1 0x3 PUSH1 0x20 MSTORE DUP2 PUSH1 0x0 MSTORE PUSH1 0x40 PUSH1 0x0 KECCAK256 DUP2 DUP2 SLOAD DUP2 LT PUSH2 0xB66 JUMPI PUSH1 0x0 DUP1 REVERT JUMPDEST SWAP1 PUSH1 0x0 MSTORE PUSH1 0x20 PUSH1 0x0 KECCAK256 ADD PUSH1 0x0 SWAP2 POP SWAP2 POP SWAP1 SLOAD SWAP1 PUSH2 0x100 EXP SWAP1 DIV PUSH20 0xFFFFFFFFFFFFFFFFFFFFFFFFFFFFFFFFFFFFFFFF AND DUP2 JUMP JUMPDEST PUSH1 0x0 DUP1 SLOAD SWAP1 PUSH2 0x100 EXP SWAP1 DIV PUSH20 0xFFFFFFFFFFFFFFFFFFFFFFFFFFFFFFFFFFFFFFFF AND PUSH20 0xFFFFFFFFFFFFFFFFFFFFFFFFFFFFFFFFFFFFFFFF AND CALLER PUSH20 0xFFFFFFFFFFFFFFFFFFFFFFFFFFFFFFFFFFFFFFFF AND EQ PUSH2 0xC26 JUMPI PUSH1 0x40 MLOAD PUSH32 0x8C379A000000000000000000000000000000000000000000000000000000000 DUP2 MSTORE PUSH1 0x4 ADD PUSH2 0xC1D SWAP1 PUSH2 0x1414 JUMP JUMPDEST PUSH1 0x40 MLOAD DUP1 SWAP2 SUB SWAP1 REVERT JUMPDEST DUP2 DUP2 PUSH1 0x6 SWAP2 DUP3 PUSH2 0xC37 SWAP3 SWAP2 SWAP1 PUSH2 0x17A0 JUMP JUMPDEST POP POP POP JUMP JUMPDEST PUSH1 0x2 PUSH1 0x20 MSTORE DUP1 PUSH1 0x0 MSTORE PUSH1 0x40 PUSH1 0x0 KECCAK256 PUSH1 0x0 SWAP2 POP SLOAD SWAP1 PUSH2 0x100 EXP SWAP1 DIV PUSH1 0xFF AND DUP2 JUMP JUMPDEST PUSH1 0x60 PUSH1 0x7 DUP1 SLOAD PUSH2 0xC6B SWAP1 PUSH2 0x1463 JUMP JUMPDEST DUP1 PUSH1 0x1F ADD PUSH1 0x20 DUP1 SWAP2 DIV MUL PUSH1 0x20 ADD PUSH1 0x40 MLOAD SWAP1 DUP2 ADD PUSH1 0x40 MSTORE DUP1 SWAP3 SWAP2 SWAP1 DUP2 DUP2 MSTORE PUSH1 0x20 ADD DUP3 DUP1 SLOAD PUSH2 0xC97 SWAP1 PUSH2 0x1463 JUMP JUMPDEST DUP1 ISZERO PUSH2 0xCE4 JUMPI DUP1 PUSH1 0x1F LT PUSH2 0xCB9 JUMPI PUSH2 0x100 DUP1 DUP4 SLOAD DIV MUL DUP4 MSTORE SWAP2 PUSH1 0x20 ADD SWAP2 PUSH2 0xCE4 JUMP JUMPDEST DUP3 ADD SWAP2 SWAP1 PUSH1 0x0 MSTORE PUSH1 0x20 PUSH1 0x0 KECCAK256 SWAP1 JUMPDEST DUP2 SLOAD DUP2 MSTORE SWAP1 PUSH1 0x1 ADD SWAP1 PUSH1 0x20 ADD DUP1 DUP4 GT PUSH2 0xCC7 JUMPI DUP3 SWAP1 SUB PUSH1 0x1F AND DUP3 ADD SWAP2 JUMPDEST POP POP POP POP POP SWAP1 POP SWAP1 JUMP JUMPDEST PUSH2 0xCF7 DUP2 PUSH2 0xACF JUMP JUMPDEST PUSH1 0x4 DUP2 GT ISZERO PUSH2 0xD09 JUMPI PUSH2 0xD08 PUSH2 0x1242 JUMP JUMPDEST JUMPDEST PUSH1 0x2 PUSH1 0x0 CALLER PUSH20 0xFFFFFFFFFFFFFFFFFFFFFFFFFFFFFFFFFFFFFFFF AND PUSH20 0xFFFFFFFFFFFFFFFFFFFFFFFFFFFFFFFFFFFFFFFF AND DUP2 MSTORE PUSH1 0x20 ADD SWAP1 DUP2 MSTORE PUSH1 0x20 ADD PUSH1 0x0 KECCAK256 PUSH1 0x0 SWAP1 SLOAD SWAP1 PUSH2 0x100 EXP SWAP1 DIV PUSH1 0xFF AND PUSH1 0x4 DUP2 GT ISZERO PUSH2 0xD68 JUMPI PUSH2 0xD67 PUSH2 0x1242 JUMP JUMPDEST JUMPDEST EQ PUSH2 0xDA8 JUMPI PUSH1 0x40 MLOAD PUSH32 0x8C379A000000000000000000000000000000000000000000000000000000000 DUP2 MSTORE PUSH1 0x4 ADD PUSH2 0xD9F SWAP1 PUSH2 0x18BC JUMP JUMPDEST PUSH1 0x40 MLOAD DUP1 SWAP2 SUB SWAP1 REVERT JUMPDEST PUSH1 0x0 PUSH1 0x2 PUSH1 0x0 CALLER PUSH20 0xFFFFFFFFFFFFFFFFFFFFFFFFFFFFFFFFFFFFFFFF AND PUSH20 0xFFFFFFFFFFFFFFFFFFFFFFFFFFFFFFFFFFFFFFFF AND DUP2 MSTORE PUSH1 0x20 ADD SWAP1 DUP2 MSTORE PUSH1 0x20 ADD PUSH1 0x0 KECCAK256 PUSH1 0x0 PUSH2 0x100 EXP DUP2 SLOAD DUP2 PUSH1 0xFF MUL NOT AND SWAP1 DUP4 PUSH1 0x4 DUP2 GT ISZERO PUSH2 0xE0B JUMPI PUSH2 0xE0A PUSH2 0x1242 JUMP JUMPDEST JUMPDEST MUL OR SWAP1 SSTORE POP PUSH1 0x3 PUSH1 0x0 PUSH2 0xE1D DUP4 PUSH2 0xACF JUMP JUMPDEST PUSH1 0x4 DUP2 GT ISZERO PUSH2 0xE2F JUMPI PUSH2 0xE2E PUSH2 0x1242 JUMP JUMPDEST JUMPDEST PUSH1 0x4 DUP2 GT ISZERO PUSH2 0xE41 JUMPI PUSH2 0xE40 PUSH2 0x1242 JUMP JUMPDEST JUMPDEST DUP2 MSTORE PUSH1 0x20 ADD SWAP1 DUP2 MSTORE PUSH1 0x20 ADD PUSH1 0x0 KECCAK256 CALLER SWAP1 DUP1 PUSH1 0x1 DUP2 SLOAD ADD DUP1 DUP3 SSTORE DUP1 SWAP2 POP POP PUSH1 0x1 SWAP1 SUB SWAP1 PUSH1 0x0 MSTORE PUSH1 0x20 PUSH1 0x0 KECCAK256 ADD PUSH1 0x0 SWAP1 SWAP2 SWAP1 SWAP2 SWAP1 SWAP2 PUSH2 0x100 EXP DUP2 SLOAD DUP2 PUSH20 0xFFFFFFFFFFFFFFFFFFFFFFFFFFFFFFFFFFFFFFFF MUL NOT AND SWAP1 DUP4 PUSH20 0xFFFFFFFFFFFFFFFFFFFFFFFFFFFFFFFFFFFFFFFF AND MUL OR SWAP1 SSTORE POP POP JUMP JUMPDEST PUSH1 0x0 DUP1 REVERT JUMPDEST PUSH1 0x0 DUP1 REVERT JUMPDEST PUSH1 0x0 PUSH20 0xFFFFFFFFFFFFFFFFFFFFFFFFFFFFFFFFFFFFFFFF DUP3 AND SWAP1 POP SWAP2 SWAP1 POP JUMP JUMPDEST PUSH1 0x0 PUSH2 0xEE8 DUP3 PUSH2 0xEBD JUMP JUMPDEST SWAP1 POP SWAP2 SWAP1 POP JUMP JUMPDEST PUSH2 0xEF8 DUP2 PUSH2 0xEDD JUMP JUMPDEST DUP2 EQ PUSH2 0xF03 JUMPI PUSH1 0x0 DUP1 REVERT JUMPDEST POP JUMP JUMPDEST PUSH1 0x0 DUP2 CALLDATALOAD SWAP1 POP PUSH2 0xF15 DUP2 PUSH2 0xEEF JUMP JUMPDEST SWAP3 SWAP2 POP POP JUMP JUMPDEST PUSH1 0x5 DUP2 LT PUSH2 0xF28 JUMPI PUSH1 0x0 DUP1 REVERT JUMPDEST POP JUMP JUMPDEST PUSH1 0x0 DUP2 CALLDATALOAD SWAP1 POP PUSH2 0xF3A DUP2 PUSH2 0xF1B JUMP JUMPDEST SWAP3 SWAP2 POP POP JUMP JUMPDEST PUSH1 0x0 DUP1 PUSH1 0x40 DUP4 DUP6 SUB SLT ISZERO PUSH2 0xF57 JUMPI PUSH2 0xF56 PUSH2 0xEB3 JUMP JUMPDEST JUMPDEST PUSH1 0x0 PUSH2 0xF65 DUP6 DUP3 DUP7 ADD PUSH2 0xF06 JUMP JUMPDEST SWAP3 POP POP PUSH1 0x20 PUSH2 0xF76 DUP6 DUP3 DUP7 ADD PUSH2 0xF2B JUMP JUMPDEST SWAP2 POP POP SWAP3 POP SWAP3 SWAP1 POP JUMP JUMPDEST PUSH1 0x0 DUP2 ISZERO ISZERO SWAP1 POP SWAP2 SWAP1 POP JUMP JUMPDEST PUSH2 0xF95 DUP2 PUSH2 0xF80 JUMP JUMPDEST DUP3 MSTORE POP POP JUMP JUMPDEST PUSH1 0x0 PUSH1 0x20 DUP3 ADD SWAP1 POP PUSH2 0xFB0 PUSH1 0x0 DUP4 ADD DUP5 PUSH2 0xF8C JUMP JUMPDEST SWAP3 SWAP2 POP POP JUMP JUMPDEST PUSH1 0x0 PUSH1 0x20 DUP3 DUP5 SUB SLT ISZERO PUSH2 0xFCC JUMPI PUSH2 0xFCB PUSH2 0xEB3 JUMP JUMPDEST JUMPDEST PUSH1 0x0 PUSH2 0xFDA DUP5 DUP3 DUP6 ADD PUSH2 0xF06 JUMP JUMPDEST SWAP2 POP POP SWAP3 SWAP2 POP POP JUMP JUMPDEST PUSH1 0x0 DUP2 MLOAD SWAP1 POP SWAP2 SWAP1 POP JUMP JUMPDEST PUSH1 0x0 DUP3 DUP3 MSTORE PUSH1 0x20 DUP3 ADD SWAP1 POP SWAP3 SWAP2 POP POP JUMP JUMPDEST PUSH1 0x0 JUMPDEST DUP4 DUP2 LT ISZERO PUSH2 0x101D JUMPI DUP1 DUP3 ADD MLOAD DUP2 DUP5 ADD MSTORE PUSH1 0x20 DUP2 ADD SWAP1 POP PUSH2 0x1002 JUMP JUMPDEST PUSH1 0x0 DUP5 DUP5 ADD MSTORE POP POP POP POP JUMP JUMPDEST PUSH1 0x0 PUSH1 0x1F NOT PUSH1 0x1F DUP4 ADD AND SWAP1 POP SWAP2 SWAP1 POP JUMP JUMPDEST PUSH1 0x0 PUSH2 0x1045 DUP3 PUSH2 0xFE3 JUMP JUMPDEST PUSH2 0x104F DUP2 DUP6 PUSH2 0xFEE JUMP JUMPDEST SWAP4 POP PUSH2 0x105F DUP2 DUP6 PUSH1 0x20 DUP7 ADD PUSH2 0xFFF JUMP JUMPDEST PUSH2 0x1068 DUP2 PUSH2 0x1029 JUMP JUMPDEST DUP5 ADD SWAP2 POP POP SWAP3 SWAP2 POP POP JUMP JUMPDEST PUSH1 0x0 PUSH1 0x20 DUP3 ADD SWAP1 POP DUP2 DUP2 SUB PUSH1 0x0 DUP4 ADD MSTORE PUSH2 0x108D DUP2 DUP5 PUSH2 0x103A JUMP JUMPDEST SWAP1 POP SWAP3 SWAP2 POP POP JUMP JUMPDEST PUSH2 0x109E DUP2 PUSH2 0xEDD JUMP JUMPDEST DUP3 MSTORE POP POP JUMP JUMPDEST PUSH1 0x0 PUSH1 0x20 DUP3 ADD SWAP1 POP PUSH2 0x10B9 PUSH1 0x0 DUP4 ADD DUP5 PUSH2 0x1095 JUMP JUMPDEST SWAP3 SWAP2 POP POP JUMP JUMPDEST PUSH1 0x0 DUP2 SWAP1 POP SWAP2 SWAP1 POP JUMP JUMPDEST PUSH2 0x10D2 DUP2 PUSH2 0x10BF JUMP JUMPDEST DUP2 EQ PUSH2 0x10DD JUMPI PUSH1 0x0 DUP1 REVERT JUMPDEST POP JUMP JUMPDEST PUSH1 0x0 DUP2 CALLDATALOAD SWAP1 POP PUSH2 0x10EF DUP2 PUSH2 0x10C9 JUMP JUMPDEST SWAP3 SWAP2 POP POP JUMP JUMPDEST PUSH1 0x0 DUP1 PUSH1 0x40 DUP4 DUP6 SUB SLT ISZERO PUSH2 0x110C JUMPI PUSH2 0x110B PUSH2 0xEB3 JUMP JUMPDEST JUMPDEST PUSH1 0x0 PUSH2 0x111A DUP6 DUP3 DUP7 ADD PUSH2 0xF2B JUMP JUMPDEST SWAP3 POP POP PUSH1 0x20 PUSH2 0x112B DUP6 DUP3 DUP7 ADD PUSH2 0x10E0 JUMP JUMPDEST SWAP2 POP POP SWAP3 POP SWAP3 SWAP1 POP JUMP JUMPDEST PUSH1 0x0 PUSH1 0x20 DUP3 DUP5 SUB SLT ISZERO PUSH2 0x114B JUMPI PUSH2 0x114A PUSH2 0xEB3 JUMP JUMPDEST JUMPDEST PUSH1 0x0 PUSH2 0x1159 DUP5 DUP3 DUP6 ADD PUSH2 0xF2B JUMP JUMPDEST SWAP2 POP POP SWAP3 SWAP2 POP POP JUMP JUMPDEST PUSH1 0x0 DUP2 MLOAD SWAP1 POP SWAP2 SWAP1 POP JUMP JUMPDEST PUSH1 0x0 DUP3 DUP3 MSTORE PUSH1 0x20 DUP3 ADD SWAP1 POP SWAP3 SWAP2 POP POP JUMP JUMPDEST PUSH1 0x0 DUP2 SWAP1 POP PUSH1 0x20 DUP3 ADD SWAP1 POP SWAP2 SWAP1 POP JUMP JUMPDEST PUSH2 0x1197 DUP2 PUSH2 0xEDD JUMP JUMPDEST DUP3 MSTORE POP POP JUMP JUMPDEST PUSH1 0x0 PUSH2 0x11A9 DUP4 DUP4 PUSH2 0x118E JUMP JUMPDEST PUSH1 0x20 DUP4 ADD SWAP1 POP SWAP3 SWAP2 POP POP JUMP JUMPDEST PUSH1 0x0 PUSH1 0x20 DUP3 ADD SWAP1 POP SWAP2 SWAP1 POP JUMP JUMPDEST PUSH1 0x0 PUSH2 0x11CD DUP3 PUSH2 0x1162 JUMP JUMPDEST PUSH2 0x11D7 DUP2 DUP6 PUSH2 0x116D JUMP JUMPDEST SWAP4 POP PUSH2 0x11E2 DUP4 PUSH2 0x117E JUMP JUMPDEST DUP1 PUSH1 0x0 JUMPDEST DUP4 DUP2 LT ISZERO PUSH2 0x1213 JUMPI DUP2 MLOAD PUSH2 0x11FA DUP9 DUP3 PUSH2 0x119D JUMP JUMPDEST SWAP8 POP PUSH2 0x1205 DUP4 PUSH2 0x11B5 JUMP JUMPDEST SWAP3 POP POP PUSH1 0x1 DUP2 ADD SWAP1 POP PUSH2 0x11E6 JUMP JUMPDEST POP DUP6 SWAP4 POP POP POP POP SWAP3 SWAP2 POP POP JUMP JUMPDEST PUSH1 0x0 PUSH1 0x20 DUP3 ADD SWAP1 POP DUP2 DUP2 SUB PUSH1 0x0 DUP4 ADD MSTORE PUSH2 0x123A DUP2 DUP5 PUSH2 0x11C2 JUMP JUMPDEST SWAP1 POP SWAP3 SWAP2 POP POP JUMP JUMPDEST PUSH32 0x4E487B7100000000000000000000000000000000000000000000000000000000 PUSH1 0x0 MSTORE PUSH1 0x21 PUSH1 0x4 MSTORE PUSH1 0x24 PUSH1 0x0 REVERT JUMPDEST PUSH1 0x5 DUP2 LT PUSH2 0x1282 JUMPI PUSH2 0x1281 PUSH2 0x1242 JUMP JUMPDEST JUMPDEST POP JUMP JUMPDEST PUSH1 0x0 DUP2 SWAP1 POP PUSH2 0x1293 DUP3 PUSH2 0x1271 JUMP JUMPDEST SWAP2 SWAP1 POP JUMP JUMPDEST PUSH1 0x0 PUSH2 0x12A3 DUP3 PUSH2 0x1285 JUMP JUMPDEST SWAP1 POP SWAP2 SWAP1 POP JUMP JUMPDEST PUSH2 0x12B3 DUP2 PUSH2 0x1298 JUMP JUMPDEST DUP3 MSTORE POP POP JUMP JUMPDEST PUSH1 0x0 PUSH1 0x20 DUP3 ADD SWAP1 POP PUSH2 0x12CE PUSH1 0x0 DUP4 ADD DUP5 PUSH2 0x12AA JUMP JUMPDEST SWAP3 SWAP2 POP POP JUMP JUMPDEST PUSH1 0x0 DUP1 REVERT JUMPDEST PUSH1 0x0 DUP1 REVERT JUMPDEST PUSH1 0x0 DUP1 REVERT JUMPDEST PUSH1 0x0 DUP1 DUP4 PUSH1 0x1F DUP5 ADD SLT PUSH2 0x12F9 JUMPI PUSH2 0x12F8 PUSH2 0x12D4 JUMP JUMPDEST JUMPDEST DUP3 CALLDATALOAD SWAP1 POP PUSH8 0xFFFFFFFFFFFFFFFF DUP2 GT ISZERO PUSH2 0x1316 JUMPI PUSH2 0x1315 PUSH2 0x12D9 JUMP JUMPDEST JUMPDEST PUSH1 0x20 DUP4 ADD SWAP2 POP DUP4 PUSH1 0x1 DUP3 MUL DUP4 ADD GT ISZERO PUSH2 0x1332 JUMPI PUSH2 0x1331 PUSH2 0x12DE JUMP JUMPDEST JUMPDEST SWAP3 POP SWAP3 SWAP1 POP JUMP JUMPDEST PUSH1 0x0 DUP1 PUSH1 0x20 DUP4 DUP6 SUB SLT ISZERO PUSH2 0x1350 JUMPI PUSH2 0x134F PUSH2 0xEB3 JUMP JUMPDEST JUMPDEST PUSH1 0x0 DUP4 ADD CALLDATALOAD PUSH8 0xFFFFFFFFFFFFFFFF DUP2 GT ISZERO PUSH2 0x136E JUMPI PUSH2 0x136D PUSH2 0xEB8 JUMP JUMPDEST JUMPDEST PUSH2 0x137A DUP6 DUP3 DUP7 ADD PUSH2 0x12E3 JUMP JUMPDEST SWAP3 POP SWAP3 POP POP SWAP3 POP SWAP3 SWAP1 POP JUMP JUMPDEST PUSH1 0x0 DUP2 MLOAD SWAP1 POP PUSH2 0x1395 DUP2 PUSH2 0xF1B JUMP JUMPDEST SWAP3 SWAP2 POP POP JUMP JUMPDEST PUSH1 0x0 PUSH1 0x20 DUP3 DUP5 SUB SLT ISZERO PUSH2 0x13B1 JUMPI PUSH2 0x13B0 PUSH2 0xEB3 JUMP JUMPDEST JUMPDEST PUSH1 0x0 PUSH2 0x13BF DUP5 DUP3 DUP6 ADD PUSH2 0x1386 JUMP JUMPDEST SWAP2 POP POP SWAP3 SWAP2 POP POP JUMP JUMPDEST PUSH32 0x63616C6C6572206D757374206265206F776E6572000000000000000000000000 PUSH1 0x0 DUP3 ADD MSTORE POP JUMP JUMPDEST PUSH1 0x0 PUSH2 0x13FE PUSH1 0x14 DUP4 PUSH2 0xFEE JUMP JUMPDEST SWAP2 POP PUSH2 0x1409 DUP3 PUSH2 0x13C8 JUMP JUMPDEST PUSH1 0x20 DUP3 ADD SWAP1 POP SWAP2 SWAP1 POP JUMP JUMPDEST PUSH1 0x0 PUSH1 0x20 DUP3 ADD SWAP1 POP DUP2 DUP2 SUB PUSH1 0x0 DUP4 ADD MSTORE PUSH2 0x142D DUP2 PUSH2 0x13F1 JUMP JUMPDEST SWAP1 POP SWAP2 SWAP1 POP JUMP JUMPDEST PUSH32 0x4E487B7100000000000000000000000000000000000000000000000000000000 PUSH1 0x0 MSTORE PUSH1 0x22 PUSH1 0x4 MSTORE PUSH1 0x24 PUSH1 0x0 REVERT JUMPDEST PUSH1 0x0 PUSH1 0x2 DUP3 DIV SWAP1 POP PUSH1 0x1 DUP3 AND DUP1 PUSH2 0x147B JUMPI PUSH1 0x7F DUP3 AND SWAP2 POP JUMPDEST PUSH1 0x20 DUP3 LT DUP2 SUB PUSH2 0x148E JUMPI PUSH2 0x148D PUSH2 0x1434 JUMP JUMPDEST JUMPDEST POP SWAP2 SWAP1 POP JUMP JUMPDEST PUSH32 0x4E487B7100000000000000000000000000000000000000000000000000000000 PUSH1 0x0 MSTORE PUSH1 0x32 PUSH1 0x4 MSTORE PUSH1 0x24 PUSH1 0x0 REVERT JUMPDEST PUSH32 0x4E487B7100000000000000000000000000000000000000000000000000000000 PUSH1 0x0 MSTORE PUSH1 0x12 PUSH1 0x4 MSTORE PUSH1 0x24 PUSH1 0x0 REVERT JUMPDEST PUSH1 0x0 PUSH2 0x14FD DUP3 PUSH2 0x10BF JUMP JUMPDEST SWAP2 POP PUSH2 0x1508 DUP4 PUSH2 0x10BF JUMP JUMPDEST SWAP3 POP DUP3 PUSH2 0x1518 JUMPI PUSH2 0x1517 PUSH2 0x14C3 JUMP JUMPDEST JUMPDEST DUP3 DUP3 MOD SWAP1 POP SWAP3 SWAP2 POP POP JUMP JUMPDEST PUSH32 0x4E487B7100000000000000000000000000000000000000000000000000000000 PUSH1 0x0 MSTORE PUSH1 0x11 PUSH1 0x4 MSTORE PUSH1 0x24 PUSH1 0x0 REVERT JUMPDEST PUSH1 0x0 PUSH2 0x155D DUP3 PUSH2 0x10BF JUMP JUMPDEST SWAP2 POP PUSH2 0x1568 DUP4 PUSH2 0x10BF JUMP JUMPDEST SWAP3 POP DUP3 DUP3 SUB SWAP1 POP DUP2 DUP2 GT ISZERO PUSH2 0x1580 JUMPI PUSH2 0x157F PUSH2 0x1523 JUMP JUMPDEST JUMPDEST SWAP3 SWAP2 POP POP JUMP JUMPDEST PUSH1 0x0 PUSH2 0x1591 DUP3 PUSH2 0x10BF JUMP JUMPDEST SWAP2 POP PUSH2 0x159C DUP4 PUSH2 0x10BF JUMP JUMPDEST SWAP3 POP DUP3 DUP3 ADD SWAP1 POP DUP1 DUP3 GT ISZERO PUSH2 0x15B4 JUMPI PUSH2 0x15B3 PUSH2 0x1523 JUMP JUMPDEST JUMPDEST SWAP3 SWAP2 POP POP JUMP JUMPDEST PUSH1 0x0 DUP3 SWAP1 POP SWAP3 SWAP2 POP POP JUMP JUMPDEST PUSH32 0x4E487B7100000000000000000000000000000000000000000000000000000000 PUSH1 0x0 MSTORE PUSH1 0x41 PUSH1 0x4 MSTORE PUSH1 0x24 PUSH1 0x0 REVERT JUMPDEST PUSH1 0x0 DUP2 SWAP1 POP DUP2 PUSH1 0x0 MSTORE PUSH1 0x20 PUSH1 0x0 KECCAK256 SWAP1 POP SWAP2 SWAP1 POP JUMP JUMPDEST PUSH1 0x0 PUSH1 0x20 PUSH1 0x1F DUP4 ADD DIV SWAP1 POP SWAP2 SWAP1 POP JUMP JUMPDEST PUSH1 0x0 DUP3 DUP3 SHL SWAP1 POP SWAP3 SWAP2 POP POP JUMP JUMPDEST PUSH1 0x0 PUSH1 0x8 DUP4 MUL PUSH2 0x1656 PUSH32 0xFFFFFFFFFFFFFFFFFFFFFFFFFFFFFFFFFFFFFFFFFFFFFFFFFFFFFFFFFFFFFFFF DUP3 PUSH2 0x1619 JUMP JUMPDEST PUSH2 0x1660 DUP7 DUP4 PUSH2 0x1619 JUMP JUMPDEST SWAP6 POP DUP1 NOT DUP5 AND SWAP4 POP DUP1 DUP7 AND DUP5 OR SWAP3 POP POP POP SWAP4 SWAP3 POP POP POP JUMP JUMPDEST PUSH1 0x0 DUP2 SWAP1 POP SWAP2 SWAP1 POP JUMP JUMPDEST PUSH1 0x0 PUSH2 0x169D PUSH2 0x1698 PUSH2 0x1693 DUP5 PUSH2 0x10BF JUMP JUMPDEST PUSH2 0x1678 JUMP JUMPDEST PUSH2 0x10BF JUMP JUMPDEST SWAP1 POP SWAP2 SWAP1 POP JUMP JUMPDEST PUSH1 0x0 DUP2 SWAP1 POP SWAP2 SWAP1 POP JUMP JUMPDEST PUSH2 0x16B7 DUP4 PUSH2 0x1682 JUMP JUMPDEST PUSH2 0x16CB PUSH2 0x16C3 DUP3 PUSH2 0x16A4 JUMP JUMPDEST DUP5 DUP5 SLOAD PUSH2 0x1626 JUMP JUMPDEST DUP3 SSTORE POP POP POP POP JUMP JUMPDEST PUSH1 0x0 SWAP1 JUMP JUMPDEST PUSH2 0x16E0 PUSH2 0x16D3 JUMP JUMPDEST PUSH2 0x16EB DUP2 DUP5 DUP5 PUSH2 0x16AE JUMP JUMPDEST POP POP POP JUMP JUMPDEST JUMPDEST DUP2 DUP2 LT ISZERO PUSH2 0x170F JUMPI PUSH2 0x1704 PUSH1 0x0 DUP3 PUSH2 0x16D8 JUMP JUMPDEST PUSH1 0x1 DUP2 ADD SWAP1 POP PUSH2 0x16F1 JUMP JUMPDEST POP POP JUMP JUMPDEST PUSH1 0x1F DUP3 GT ISZERO PUSH2 0x1754 JUMPI PUSH2 0x1725 DUP2 PUSH2 0x15F4 JUMP JUMPDEST PUSH2 0x172E DUP5 PUSH2 0x1609 JUMP JUMPDEST DUP2 ADD PUSH1 0x20 DUP6 LT ISZERO PUSH2 0x173D JUMPI DUP2 SWAP1 POP JUMPDEST PUSH2 0x1751 PUSH2 0x1749 DUP6 PUSH2 0x1609 JUMP JUMPDEST DUP4 ADD DUP3 PUSH2 0x16F0 JUMP JUMPDEST POP POP JUMPDEST POP POP POP JUMP JUMPDEST PUSH1 0x0 DUP3 DUP3 SHR SWAP1 POP SWAP3 SWAP2 POP POP JUMP JUMPDEST PUSH1 0x0 PUSH2 0x1777 PUSH1 0x0 NOT DUP5 PUSH1 0x8 MUL PUSH2 0x1759 JUMP JUMPDEST NOT DUP1 DUP4 AND SWAP2 POP POP SWAP3 SWAP2 POP POP JUMP JUMPDEST PUSH1 0x0 PUSH2 0x1790 DUP4 DUP4 PUSH2 0x1766 JUMP JUMPDEST SWAP2 POP DUP3 PUSH1 0x2 MUL DUP3 OR SWAP1 POP SWAP3 SWAP2 POP POP JUMP JUMPDEST PUSH2 0x17AA DUP4 DUP4 PUSH2 0x15BA JUMP JUMPDEST PUSH8 0xFFFFFFFFFFFFFFFF DUP2 GT ISZERO PUSH2 0x17C3 JUMPI PUSH2 0x17C2 PUSH2 0x15C5 JUMP JUMPDEST JUMPDEST PUSH2 0x17CD DUP3 SLOAD PUSH2 0x1463 JUMP JUMPDEST PUSH2 0x17D8 DUP3 DUP3 DUP6 PUSH2 0x1713 JUMP JUMPDEST PUSH1 0x0 PUSH1 0x1F DUP4 GT PUSH1 0x1 DUP2 EQ PUSH2 0x1807 JUMPI PUSH1 0x0 DUP5 ISZERO PUSH2 0x17F5 JUMPI DUP3 DUP8 ADD CALLDATALOAD SWAP1 POP JUMPDEST PUSH2 0x17FF DUP6 DUP3 PUSH2 0x1784 JUMP JUMPDEST DUP7 SSTORE POP PUSH2 0x1867 JUMP JUMPDEST PUSH1 0x1F NOT DUP5 AND PUSH2 0x1815 DUP7 PUSH2 0x15F4 JUMP JUMPDEST PUSH1 0x0 JUMPDEST DUP3 DUP2 LT ISZERO PUSH2 0x183D JUMPI DUP5 DUP10 ADD CALLDATALOAD DUP3 SSTORE PUSH1 0x1 DUP3 ADD SWAP2 POP PUSH1 0x20 DUP6 ADD SWAP5 POP PUSH1 0x20 DUP2 ADD SWAP1 POP PUSH2 0x1818 JUMP JUMPDEST DUP7 DUP4 LT ISZERO PUSH2 0x185A JUMPI DUP5 DUP10 ADD CALLDATALOAD PUSH2 0x1856 PUSH1 0x1F DUP10 AND DUP3 PUSH2 0x1766 JUMP JUMPDEST DUP4 SSTORE POP JUMPDEST PUSH1 0x1 PUSH1 0x2 DUP9 MUL ADD DUP9 SSTORE POP POP POP JUMPDEST POP POP POP POP POP POP POP JUMP JUMPDEST PUSH32 0x526571756573746F72206973206E6F7420612063616E6469646174652E000000 PUSH1 0x0 DUP3 ADD MSTORE POP JUMP JUMPDEST PUSH1 0x0 PUSH2 0x18A6 PUSH1 0x1D DUP4 PUSH2 0xFEE JUMP JUMPDEST SWAP2 POP PUSH2 0x18B1 DUP3 PUSH2 0x1870 JUMP JUMPDEST PUSH1 0x20 DUP3 ADD SWAP1 POP SWAP2 SWAP1 POP JUMP JUMPDEST PUSH1 0x0 PUSH1 0x20 DUP3 ADD SWAP1 POP DUP2 DUP2 SUB PUSH1 0x0 DUP4 ADD MSTORE PUSH2 0x18D5 DUP2 PUSH2 0x1899 JUMP JUMPDEST SWAP1 POP SWAP2 SWAP1 POP JUMP INVALID LOG2 PUSH5 0x6970667358 0x22 SLT KECCAK256 0x1E 0x49 0xCC DUP3 SHR SWAP14 0xCD 0x5C PUSH8 0xFB6B00B2C68B377D RETURN PUSH31 0x43CB6C8CC98CED778E929AEF3964736F6C6343000812003300000000000000 "
				},
				"gasEstimates": {
					"creation": {
						"codeDepositCost": "1283600",
						"executionCost": "infinite",
						"totalCost": "infinite"
					},
					"external": {
						"Accept_Candidate(uint8)": "infinite",
						"Add_Candidate(address,uint8)": "25029",
						"Candidates(address)": "3000",
						"ChangeOwnership(address)": "26957",
						"Delete_Id(uint8,uint256)": "27133",
						"Do_Handshake(address,uint8)": "infinite",
						"Get_Ids(uint8)": "infinite",
						"Get_ImageCid()": "infinite",
						"Get_IpfsAddress()": "infinite",
						"Get_Name()": "infinite",
						"Get_Owner()": "2545",
						"Get_ProductIds()": "infinite",
						"Has_Candidate(address,uint8)": "3117",
						"Ids(uint8,uint256)": "5177",
						"Set_IPFS(string)": "infinite",
						"owner()": "2600",
						"reverseRelation(uint8)": "infinite"
					}
				},
				"methodIdentifiers": {
					"Accept_Candidate(uint8)": "fc107720",
					"Add_Candidate(address,uint8)": "6947a020",
					"Candidates(address)": "f39f05f7",
					"ChangeOwnership(address)": "244ded7a",
					"Delete_Id(uint8,uint256)": "5f891d98",
					"Do_Handshake(address,uint8)": "0fbdd521",
					"Get_Ids(uint8)": "9407921c",
					"Get_ImageCid()": "fbeaa42f",
					"Get_IpfsAddress()": "c524e7f6",
					"Get_Name()": "481fd6b5",
					"Get_Owner()": "55c1c478",
					"Get_ProductIds()": "b1d90809",
					"Has_Candidate(address,uint8)": "101d4fb9",
					"Ids(uint8,uint256)": "de802761",
					"Set_IPFS(string)": "e5ab27e3",
					"owner()": "8da5cb5b",
					"reverseRelation(uint8)": "ca9d2c6b"
				}
			},
			"storageLayout": {
				"storage": [
					{
						"astId": 318,
						"contract": "remix/contracts/Label.sol:Label",
						"label": "owner",
						"offset": 0,
						"slot": "0",
						"type": "t_address"
					},
					{
						"astId": 49,
						"contract": "remix/contracts/Label.sol:Label",
						"label": "Owner",
						"offset": 0,
						"slot": "1",
						"type": "t_address"
					},
					{
						"astId": 54,
						"contract": "remix/contracts/Label.sol:Label",
						"label": "Candidates",
						"offset": 0,
						"slot": "2",
						"type": "t_mapping(t_address,t_enum(relation)8)"
					},
					{
						"astId": 60,
						"contract": "remix/contracts/Label.sol:Label",
						"label": "Ids",
						"offset": 0,
						"slot": "3",
						"type": "t_mapping(t_enum(relation)8,t_array(t_address)dyn_storage)"
					},
					{
						"astId": 230,
						"contract": "remix/contracts/Label.sol:Label",
						"label": "IsValue",
						"offset": 0,
						"slot": "4",
						"type": "t_bool"
					},
					{
						"astId": 232,
						"contract": "remix/contracts/Label.sol:Label",
						"label": "Name",
						"offset": 0,
						"slot": "5",
						"type": "t_string_storage"
					},
					{
						"astId": 234,
						"contract": "remix/contracts/Label.sol:Label",
						"label": "Ipfs_address",
						"offset": 0,
						"slot": "6",
						"type": "t_string_storage"
					},
					{
						"astId": 236,
						"contract": "remix/contracts/Label.sol:Label",
						"label": "ImageCid",
						"offset": 0,
						"slot": "7",
						"type": "t_string_storage"
					},
					{
						"astId": 239,
						"contract": "remix/contracts/Label.sol:Label",
						"label": "ProductIds",
						"offset": 0,
						"slot": "8",
						"type": "t_array(t_address)dyn_storage"
					}
				],
				"types": {
					"t_address": {
						"encoding": "inplace",
						"label": "address",
						"numberOfBytes": "20"
					},
					"t_array(t_address)dyn_storage": {
						"base": "t_address",
						"encoding": "dynamic_array",
						"label": "address[]",
						"numberOfBytes": "32"
					},
					"t_bool": {
						"encoding": "inplace",
						"label": "bool",
						"numberOfBytes": "1"
					},
					"t_enum(relation)8": {
						"encoding": "inplace",
						"label": "enum relation",
						"numberOfBytes": "1"
					},
					"t_mapping(t_address,t_enum(relation)8)": {
						"encoding": "mapping",
						"key": "t_address",
						"label": "mapping(address => enum relation)",
						"numberOfBytes": "32",
						"value": "t_enum(relation)8"
					},
					"t_mapping(t_enum(relation)8,t_array(t_address)dyn_storage)": {
						"encoding": "mapping",
						"key": "t_enum(relation)8",
						"label": "mapping(enum relation => address[])",
						"numberOfBytes": "32",
						"value": "t_array(t_address)dyn_storage"
					},
					"t_string_storage": {
						"encoding": "bytes",
						"label": "string",
						"numberOfBytes": "32"
					}
				}
			},
			"userdoc": {
				"kind": "user",
				"methods": {},
				"version": 1
			}
		}
	}
}