{
	"data": {
		"bytecode": {
			"linkReferences": {},
			"object": "608060405234801561001057600080fd5b50615ac4806100206000396000f3fe60806040523480156200001157600080fd5b50600436106200005e5760003560e01c806328a249b0146200006357806370c4b461146200009c578063c258067a14620000d2578063d626b60f1462000108578063d9aba9ce146200013e575b600080fd5b6200008160048036038101906200007b919062000e46565b6200017a565b60405162000093949392919062000fe0565b60405180910390f35b620000ba6004803603810190620000b4919062001275565b620003d0565b604051620000c9919062001374565b60405180910390f35b620000f06004803603810190620000ea9190620013b9565b620005be565b604051620000ff91906200146b565b60405180910390f35b62000126600480360381019062000120919062001527565b620006fb565b60405162000135919062001374565b60405180910390f35b6200015c600480360381019062000156919062000e46565b620009ec565b604051620001719796959493929190620016ad565b60405180910390f35b6060806060806000600160008773ffffffffffffffffffffffffffffffffffffffff1673ffffffffffffffffffffffffffffffffffffffff16815260200190815260200160002060009054906101000a900473ffffffffffffffffffffffffffffffffffffffff1690508073ffffffffffffffffffffffffffffffffffffffff1663481fd6b56040518163ffffffff1660e01b8152600401600060405180830381865afa15801562000230573d6000803e3d6000fd5b505050506040513d6000823e3d601f19601f820116820180604052508101906200025b9190620017d2565b8173ffffffffffffffffffffffffffffffffffffffff1663b1d908096040518163ffffffff1660e01b8152600401600060405180830381865afa158015620002a7573d6000803e3d6000fd5b505050506040513d6000823e3d601f19601f82011682018060405250810190620002d29190620018e1565b8273ffffffffffffffffffffffffffffffffffffffff1663c524e7f66040518163ffffffff1660e01b8152600401600060405180830381865afa1580156200031e573d6000803e3d6000fd5b505050506040513d6000823e3d601f19601f82011682018060405250810190620003499190620017d2565b8373ffffffffffffffffffffffffffffffffffffffff1663fbeaa42f6040518163ffffffff1660e01b8152600401600060405180830381865afa15801562000395573d6000803e3d6000fd5b505050506040513d6000823e3d601f19601f82011682018060405250810190620003c09190620017d2565b9450945094509450509193509193565b600080858333604051620003e49062000db1565b620003f29392919062001932565b604051809103906000f0801580156200040f573d6000803e3d6000fd5b50905060005b8551811015620004c4578173ffffffffffffffffffffffffffffffffffffffff16636947a0208783815181106200045157620004506200197d565b5b602002602001015160046040518363ffffffff1660e01b81526004016200047a92919062001a2c565b600060405180830381600087803b1580156200049557600080fd5b505af1158015620004aa573d6000803e3d6000fd5b505050508080620004bb9062001a88565b91505062000415565b508073ffffffffffffffffffffffffffffffffffffffff1663e5ab27e3856040518263ffffffff1660e01b815260040162000500919062001ad5565b600060405180830381600087803b1580156200051b57600080fd5b505af115801562000530573d6000803e3d6000fd5b5050505080600160008373ffffffffffffffffffffffffffffffffffffffff1673ffffffffffffffffffffffffffffffffffffffff16815260200190815260200160002060006101000a81548173ffffffffffffffffffffffffffffffffffffffff021916908373ffffffffffffffffffffffffffffffffffffffff16021790555080915050949350505050565b600060036004811115620005d757620005d6620019ac565b5b826004811115620005ed57620005ec620019ac565b5b036200065b57600160008473ffffffffffffffffffffffffffffffffffffffff1673ffffffffffffffffffffffffffffffffffffffff16815260200190815260200160002060009054906101000a900473ffffffffffffffffffffffffffffffffffffffff169050620006f5565b600480811115620006715762000670620019ac565b5b826004811115620006875762000686620019ac565b5b03620006f4576000808473ffffffffffffffffffffffffffffffffffffffff1673ffffffffffffffffffffffffffffffffffffffff16815260200190815260200160002060009054906101000a900473ffffffffffffffffffffffffffffffffffffffff169050620006f5565b5b92915050565b6000808a8a8787878733604051620007139062000dbf565b62000725979695949392919062001b2c565b604051809103906000f08015801562000742573d6000803e3d6000fd5b50905060005b8951811015620007f7578173ffffffffffffffffffffffffffffffffffffffff16636947a0208b83815181106200078457620007836200197d565b5b602002602001015160036040518363ffffffff1660e01b8152600401620007ad92919062001a2c565b600060405180830381600087803b158015620007c857600080fd5b505af1158015620007dd573d6000803e3d6000fd5b505050508080620007ee9062001a88565b91505062000748565b5060005b8851811015620008aa578173ffffffffffffffffffffffffffffffffffffffff16636947a0208a83815181106200083757620008366200197d565b5b602002602001015160026040518363ffffffff1660e01b81526004016200086092919062001a2c565b600060405180830381600087803b1580156200087b57600080fd5b505af115801562000890573d6000803e3d6000fd5b505050508080620008a19062001a88565b915050620007fb565b5060005b87518110156200095d578173ffffffffffffffffffffffffffffffffffffffff16636947a020898381518110620008ea57620008e96200197d565b5b602002602001015160016040518363ffffffff1660e01b81526004016200091392919062001a2c565b600060405180830381600087803b1580156200092e57600080fd5b505af115801562000943573d6000803e3d6000fd5b505050508080620009549062001a88565b915050620008ae565b50806000808373ffffffffffffffffffffffffffffffffffffffff1673ffffffffffffffffffffffffffffffffffffffff16815260200190815260200160002060006101000a81548173ffffffffffffffffffffffffffffffffffffffff021916908373ffffffffffffffffffffffffffffffffffffffff160217905550809150509998505050505050505050565b60606000606080606080606060008060008a73ffffffffffffffffffffffffffffffffffffffff1673ffffffffffffffffffffffffffffffffffffffff16815260200190815260200160002060009054906101000a900473ffffffffffffffffffffffffffffffffffffffff1690508073ffffffffffffffffffffffffffffffffffffffff1663481fd6b56040518163ffffffff1660e01b8152600401600060405180830381865afa15801562000aa7573d6000803e3d6000fd5b505050506040513d6000823e3d601f19601f8201168201806040525081019062000ad29190620017d2565b8173ffffffffffffffffffffffffffffffffffffffff16637b9f19766040518163ffffffff1660e01b8152600401602060405180830381865afa15801562000b1e573d6000803e3d6000fd5b505050506040513d601f19601f8201168201806040525081019062000b44919062001bb9565b8273ffffffffffffffffffffffffffffffffffffffff1663c524e7f66040518163ffffffff1660e01b8152600401600060405180830381865afa15801562000b90573d6000803e3d6000fd5b505050506040513d6000823e3d601f19601f8201168201806040525081019062000bbb9190620017d2565b8373ffffffffffffffffffffffffffffffffffffffff1663fbeaa42f6040518163ffffffff1660e01b8152600401600060405180830381865afa15801562000c07573d6000803e3d6000fd5b505050506040513d6000823e3d601f19601f8201168201806040525081019062000c329190620017d2565b8473ffffffffffffffffffffffffffffffffffffffff1663e6ca29776040518163ffffffff1660e01b8152600401600060405180830381865afa15801562000c7e573d6000803e3d6000fd5b505050506040513d6000823e3d601f19601f8201168201806040525081019062000ca99190620018e1565b8573ffffffffffffffffffffffffffffffffffffffff16637d2cb98d6040518163ffffffff1660e01b8152600401600060405180830381865afa15801562000cf5573d6000803e3d6000fd5b505050506040513d6000823e3d601f19601f8201168201806040525081019062000d209190620018e1565b8673ffffffffffffffffffffffffffffffffffffffff166328a3d83a6040518163ffffffff1660e01b8152600401600060405180830381865afa15801562000d6c573d6000803e3d6000fd5b505050506040513d6000823e3d601f19601f8201168201806040525081019062000d979190620018e1565b975097509750975097509750975050919395979092949650565b611fe68062001bec83390190565b611ebd8062003bd283390190565b6000604051905090565b600080fd5b600080fd5b600073ffffffffffffffffffffffffffffffffffffffff82169050919050565b600062000e0e8262000de1565b9050919050565b62000e208162000e01565b811462000e2c57600080fd5b50565b60008135905062000e408162000e15565b92915050565b60006020828403121562000e5f5762000e5e62000dd7565b5b600062000e6f8482850162000e2f565b91505092915050565b600081519050919050565b600082825260208201905092915050565b60005b8381101562000eb457808201518184015260208101905062000e97565b60008484015250505050565b6000601f19601f8301169050919050565b600062000ede8262000e78565b62000eea818562000e83565b935062000efc81856020860162000e94565b62000f078162000ec0565b840191505092915050565b600081519050919050565b600082825260208201905092915050565b6000819050602082019050919050565b62000f498162000e01565b82525050565b600062000f5d838362000f3e565b60208301905092915050565b6000602082019050919050565b600062000f838262000f12565b62000f8f818562000f1d565b935062000f9c8362000f2e565b8060005b8381101562000fd357815162000fb7888262000f4f565b975062000fc48362000f69565b92505060018101905062000fa0565b5085935050505092915050565b6000608082019050818103600083015262000ffc818762000ed1565b9050818103602083015262001012818662000f76565b9050818103604083015262001028818562000ed1565b905081810360608301526200103e818462000ed1565b905095945050505050565b600080fd5b600080fd5b7f4e487b7100000000000000000000000000000000000000000000000000000000600052604160045260246000fd5b6200108d8262000ec0565b810181811067ffffffffffffffff82111715620010af57620010ae62001053565b5b80604052505050565b6000620010c462000dcd565b9050620010d2828262001082565b919050565b600067ffffffffffffffff821115620010f557620010f462001053565b5b620011008262000ec0565b9050602081019050919050565b82818337600083830152505050565b6000620011336200112d84620010d7565b620010b8565b9050828152602081018484840111156200115257620011516200104e565b5b6200115f8482856200110d565b509392505050565b600082601f8301126200117f576200117e62001049565b5b8135620011918482602086016200111c565b91505092915050565b600067ffffffffffffffff821115620011b857620011b762001053565b5b602082029050602081019050919050565b600080fd5b6000620011e5620011df846200119a565b620010b8565b905080838252602082019050602084028301858111156200120b576200120a620011c9565b5b835b8181101562001238578062001223888262000e2f565b8452602084019350506020810190506200120d565b5050509392505050565b600082601f8301126200125a576200125962001049565b5b81356200126c848260208601620011ce565b91505092915050565b6000806000806080858703121562001292576200129162000dd7565b5b600085013567ffffffffffffffff811115620012b357620012b262000ddc565b5b620012c18782880162001167565b945050602085013567ffffffffffffffff811115620012e557620012e462000ddc565b5b620012f38782880162001242565b935050604085013567ffffffffffffffff81111562001317576200131662000ddc565b5b620013258782880162001167565b925050606085013567ffffffffffffffff81111562001349576200134862000ddc565b5b620013578782880162001167565b91505092959194509250565b6200136e8162000e01565b82525050565b60006020820190506200138b600083018462001363565b92915050565b600581106200139f57600080fd5b50565b600081359050620013b38162001391565b92915050565b60008060408385031215620013d357620013d262000dd7565b5b6000620013e38582860162000e2f565b9250506020620013f685828601620013a2565b9150509250929050565b6000819050919050565b60006200142b620014256200141f8462000de1565b62001400565b62000de1565b9050919050565b60006200143f826200140a565b9050919050565b6000620014538262001432565b9050919050565b620014658162001446565b82525050565b60006020820190506200148260008301846200145a565b92915050565b6000819050919050565b6200149d8162001488565b8114620014a957600080fd5b50565b600081359050620014bd8162001492565b92915050565b600080fd5b60008083601f840112620014e157620014e062001049565b5b8235905067ffffffffffffffff811115620015015762001500620014c3565b5b60208301915083600182028301111562001520576200151f620011c9565b5b9250929050565b600080600080600080600080600060e08a8c0312156200154c576200154b62000dd7565b5b60008a013567ffffffffffffffff8111156200156d576200156c62000ddc565b5b6200157b8c828d0162001167565b99505060206200158e8c828d01620014ac565b98505060408a013567ffffffffffffffff811115620015b257620015b162000ddc565b5b620015c08c828d0162001242565b97505060608a013567ffffffffffffffff811115620015e457620015e362000ddc565b5b620015f28c828d0162001242565b96505060808a013567ffffffffffffffff81111562001616576200161562000ddc565b5b620016248c828d0162001242565b95505060a08a013567ffffffffffffffff81111562001648576200164762000ddc565b5b620016568c828d01620014c8565b945094505060c08a013567ffffffffffffffff8111156200167c576200167b62000ddc565b5b6200168a8c828d01620014c8565b92509250509295985092959850929598565b620016a78162001488565b82525050565b600060e0820190508181036000830152620016c9818a62000ed1565b9050620016da60208301896200169c565b8181036040830152620016ee818862000ed1565b9050818103606083015262001704818762000ed1565b905081810360808301526200171a818662000f76565b905081810360a083015262001730818562000f76565b905081810360c083015262001746818462000f76565b905098975050505050505050565b60006200176b6200176584620010d7565b620010b8565b9050828152602081018484840111156200178a57620017896200104e565b5b6200179784828562000e94565b509392505050565b600082601f830112620017b757620017b662001049565b5b8151620017c984826020860162001754565b91505092915050565b600060208284031215620017eb57620017ea62000dd7565b5b600082015167ffffffffffffffff8111156200180c576200180b62000ddc565b5b6200181a848285016200179f565b91505092915050565b600081519050620018348162000e15565b92915050565b6000620018516200184b846200119a565b620010b8565b90508083825260208201905060208402830185811115620018775762001876620011c9565b5b835b81811015620018a457806200188f888262001823565b84526020840193505060208101905062001879565b5050509392505050565b600082601f830112620018c657620018c562001049565b5b8151620018d88482602086016200183a565b91505092915050565b600060208284031215620018fa57620018f962000dd7565b5b600082015167ffffffffffffffff8111156200191b576200191a62000ddc565b5b6200192984828501620018ae565b91505092915050565b600060608201905081810360008301526200194e818662000ed1565b9050818103602083015262001964818562000ed1565b905062001975604083018462001363565b949350505050565b7f4e487b7100000000000000000000000000000000000000000000000000000000600052603260045260246000fd5b7f4e487b7100000000000000000000000000000000000000000000000000000000600052602160045260246000fd5b60058110620019ef57620019ee620019ac565b5b50565b600081905062001a0282620019db565b919050565b600062001a1482620019f2565b9050919050565b62001a268162001a07565b82525050565b600060408201905062001a43600083018562001363565b62001a52602083018462001a1b565b9392505050565b7f4e487b7100000000000000000000000000000000000000000000000000000000600052601160045260246000fd5b600062001a958262001488565b91507fffffffffffffffffffffffffffffffffffffffffffffffffffffffffffffffff820362001aca5762001ac962001a59565b5b600182019050919050565b6000602082019050818103600083015262001af1818462000ed1565b905092915050565b600062001b07838562000e83565b935062001b168385846200110d565b62001b218362000ec0565b840190509392505050565b600060a082019050818103600083015262001b48818a62000ed1565b905062001b5960208301896200169c565b818103604083015262001b6e81878962001af9565b9050818103606083015262001b8581858762001af9565b905062001b96608083018462001363565b98975050505050505050565b60008151905062001bb38162001492565b92915050565b60006020828403121562001bd25762001bd162000dd7565b5b600062001be28482850162001ba2565b9150509291505056fe60806040523480156200001157600080fd5b5060405162001fe638038062001fe68339818101604052810190620000379190620002f8565b336000806101000a81548173ffffffffffffffffffffffffffffffffffffffff021916908373ffffffffffffffffffffffffffffffffffffffff16021790555080600160006101000a81548173ffffffffffffffffffffffffffffffffffffffff021916908373ffffffffffffffffffffffffffffffffffffffff1602179055508260059081620000c99190620005dd565b508160079081620000db9190620005dd565b506001600460006101000a81548160ff021916908315150217905550505050620006c4565b6000604051905090565b600080fd5b600080fd5b600080fd5b600080fd5b6000601f19601f8301169050919050565b7f4e487b7100000000000000000000000000000000000000000000000000000000600052604160045260246000fd5b62000169826200011e565b810181811067ffffffffffffffff821117156200018b576200018a6200012f565b5b80604052505050565b6000620001a062000100565b9050620001ae82826200015e565b919050565b600067ffffffffffffffff821115620001d157620001d06200012f565b5b620001dc826200011e565b9050602081019050919050565b60005b8381101562000209578082015181840152602081019050620001ec565b60008484015250505050565b60006200022c6200022684620001b3565b62000194565b9050828152602081018484840111156200024b576200024a62000119565b5b62000258848285620001e9565b509392505050565b600082601f83011262000278576200027762000114565b5b81516200028a84826020860162000215565b91505092915050565b600073ffffffffffffffffffffffffffffffffffffffff82169050919050565b6000620002c08262000293565b9050919050565b620002d281620002b3565b8114620002de57600080fd5b50565b600081519050620002f281620002c7565b92915050565b6000806000606084860312156200031457620003136200010a565b5b600084015167ffffffffffffffff8111156200033557620003346200010f565b5b620003438682870162000260565b935050602084015167ffffffffffffffff8111156200036757620003666200010f565b5b620003758682870162000260565b92505060406200038886828701620002e1565b9150509250925092565b600081519050919050565b7f4e487b7100000000000000000000000000000000000000000000000000000000600052602260045260246000fd5b60006002820490506001821680620003e557607f821691505b602082108103620003fb57620003fa6200039d565b5b50919050565b60008190508160005260206000209050919050565b60006020601f8301049050919050565b600082821b905092915050565b600060088302620004657fffffffffffffffffffffffffffffffffffffffffffffffffffffffffffffffff8262000426565b62000471868362000426565b95508019841693508086168417925050509392505050565b6000819050919050565b6000819050919050565b6000620004be620004b8620004b28462000489565b62000493565b62000489565b9050919050565b6000819050919050565b620004da836200049d565b620004f2620004e982620004c5565b84845462000433565b825550505050565b600090565b62000509620004fa565b62000516818484620004cf565b505050565b5b818110156200053e5762000532600082620004ff565b6001810190506200051c565b5050565b601f8211156200058d57620005578162000401565b620005628462000416565b8101602085101562000572578190505b6200058a620005818562000416565b8301826200051b565b50505b505050565b600082821c905092915050565b6000620005b26000198460080262000592565b1980831691505092915050565b6000620005cd83836200059f565b9150826002028217905092915050565b620005e88262000392565b67ffffffffffffffff8111156200060457620006036200012f565b5b620006108254620003cc565b6200061d82828562000542565b600060209050601f83116001811462000655576000841562000640578287015190505b6200064c8582620005bf565b865550620006bc565b601f198416620006658662000401565b60005b828110156200068f5784890151825560018201915060208501945060208101905062000668565b86831015620006af5784890151620006ab601f8916826200059f565b8355505b6001600288020188555050505b505050505050565b61191280620006d46000396000f3fe608060405234801561001057600080fd5b506004361061010b5760003560e01c80639407921c116100a2578063de80276111610071578063de802761146102ba578063e5ab27e3146102ea578063f39f05f714610306578063fbeaa42f14610336578063fc107720146103545761010b565b80639407921c1461021e578063b1d908091461024e578063c524e7f61461026c578063ca9d2c6b1461028a5761010b565b806355c1c478116100de57806355c1c478146101aa5780635f891d98146101c85780636947a020146101e45780638da5cb5b146102005761010b565b80630fbdd52114610110578063101d4fb914610140578063244ded7a14610170578063481fd6b51461018c575b600080fd5b61012a60048036038101906101259190610f40565b610370565b6040516101379190610f9b565b60405180910390f35b61015a60048036038101906101559190610f40565b6105a2565b6040516101679190610f9b565b60405180910390f35b61018a60048036038101906101859190610fb6565b61061f565b005b6101946106f0565b6040516101a19190611073565b60405180910390f35b6101b2610782565b6040516101bf91906110a4565b60405180910390f35b6101e260048036038101906101dd91906110f5565b6107ac565b005b6101fe60048036038101906101f99190610f40565b610826565b005b610208610891565b60405161021591906110a4565b60405180910390f35b61023860048036038101906102339190611135565b6108b5565b6040516102459190611220565b60405180910390f35b61025661097a565b6040516102639190611220565b60405180910390f35b610274610a3d565b6040516102819190611073565b60405180910390f35b6102a4600480360381019061029f9190611135565b610acf565b6040516102b191906112b9565b60405180910390f35b6102d460048036038101906102cf91906110f5565b610b4a565b6040516102e191906110a4565b60405180910390f35b61030460048036038101906102ff9190611339565b610b98565b005b610320600480360381019061031b9190610fb6565b610c3c565b60405161032d91906112b9565b60405180910390f35b61033e610c5c565b60405161034b9190611073565b60405180910390f35b61036e60048036038101906103699190611135565b610cee565b005b60008083905061037f83610acf565b600481111561039157610390611242565b5b8173ffffffffffffffffffffffffffffffffffffffff1663f39f05f7306040518263ffffffff1660e01b81526004016103ca91906110a4565b602060405180830381865afa1580156103e7573d6000803e3d6000fd5b505050506040513d601f19601f8201168201806040525081019061040b919061139b565b600481111561041d5761041c611242565b5b0361052f576003600084600481111561043957610438611242565b5b600481111561044b5761044a611242565b5b8152602001908152602001600020849080600181540180825580915050600190039060005260206000200160009091909190916101000a81548173ffffffffffffffffffffffffffffffffffffffff021916908373ffffffffffffffffffffffffffffffffffffffff1602179055508073ffffffffffffffffffffffffffffffffffffffff1663fc107720846040518263ffffffff1660e01b81526004016104f391906112b9565b600060405180830381600087803b15801561050d57600080fd5b505af1158015610521573d6000803e3d6000fd5b50505050600191505061059c565b82600260008673ffffffffffffffffffffffffffffffffffffffff1673ffffffffffffffffffffffffffffffffffffffff16815260200190815260200160002060006101000a81548160ff0219169083600481111561059157610590611242565b5b021790555060009150505b92915050565b60008160048111156105b7576105b6611242565b5b600260008573ffffffffffffffffffffffffffffffffffffffff1673ffffffffffffffffffffffffffffffffffffffff16815260200190815260200160002060009054906101000a900460ff16600481111561061657610615611242565b5b14905092915050565b60008054906101000a900473ffffffffffffffffffffffffffffffffffffffff1673ffffffffffffffffffffffffffffffffffffffff163373ffffffffffffffffffffffffffffffffffffffff16146106ad576040517f08c379a00000000000000000000000000000000000000000000000000000000081526004016106a490611414565b60405180910390fd5b806000806101000a81548173ffffffffffffffffffffffffffffffffffffffff021916908373ffffffffffffffffffffffffffffffffffffffff16021790555050565b6060600580546106ff90611463565b80601f016020809104026020016040519081016040528092919081815260200182805461072b90611463565b80156107785780601f1061074d57610100808354040283529160200191610778565b820191906000526020600020905b81548152906001019060200180831161075b57829003601f168201915b5050505050905090565b6000600160009054906101000a900473ffffffffffffffffffffffffffffffffffffffff16905090565b600360008360048111156107c3576107c2611242565b5b60048111156107d5576107d4611242565b5b815260200190815260200160002081815481106107f5576107f4611494565b5b9060005260206000200160006101000a81549073ffffffffffffffffffffffffffffffffffffffff02191690555050565b80600260008473ffffffffffffffffffffffffffffffffffffffff1673ffffffffffffffffffffffffffffffffffffffff16815260200190815260200160002060006101000a81548160ff0219169083600481111561088857610887611242565b5b02179055505050565b60008054906101000a900473ffffffffffffffffffffffffffffffffffffffff1681565b6060600360008360048111156108ce576108cd611242565b5b60048111156108e0576108df611242565b5b815260200190815260200160002080548060200260200160405190810160405280929190818152602001828054801561096e57602002820191906000526020600020905b8160009054906101000a900473ffffffffffffffffffffffffffffffffffffffff1673ffffffffffffffffffffffffffffffffffffffff1681526020019060010190808311610924575b50505050509050919050565b60606003600060048081111561099357610992611242565b5b60048111156109a5576109a4611242565b5b8152602001908152602001600020805480602002602001604051908101604052809291908181526020018280548015610a3357602002820191906000526020600020905b8160009054906101000a900473ffffffffffffffffffffffffffffffffffffffff1673ffffffffffffffffffffffffffffffffffffffff16815260200190600101908083116109e9575b5050505050905090565b606060068054610a4c90611463565b80601f0160208091040260200160405190810160405280929190818152602001828054610a7890611463565b8015610ac55780601f10610a9a57610100808354040283529160200191610ac5565b820191906000526020600020905b815481529060010190602001808311610aa857829003601f168201915b5050505050905090565b600080826004811115610ae557610ae4611242565b5b90506000600282610af691906114f2565b03610b2257600181610b089190611552565b6004811115610b1a57610b19611242565b5b915050610b45565b600181610b2f9190611586565b6004811115610b4157610b40611242565b5b9150505b919050565b60036020528160005260406000208181548110610b6657600080fd5b906000526020600020016000915091509054906101000a900473ffffffffffffffffffffffffffffffffffffffff1681565b60008054906101000a900473ffffffffffffffffffffffffffffffffffffffff1673ffffffffffffffffffffffffffffffffffffffff163373ffffffffffffffffffffffffffffffffffffffff1614610c26576040517f08c379a0000000000000000000000000000000000000000000000000000000008152600401610c1d90611414565b60405180910390fd5b818160069182610c379291906117a0565b505050565b60026020528060005260406000206000915054906101000a900460ff1681565b606060078054610c6b90611463565b80601f0160208091040260200160405190810160405280929190818152602001828054610c9790611463565b8015610ce45780601f10610cb957610100808354040283529160200191610ce4565b820191906000526020600020905b815481529060010190602001808311610cc757829003601f168201915b5050505050905090565b610cf781610acf565b6004811115610d0957610d08611242565b5b600260003373ffffffffffffffffffffffffffffffffffffffff1673ffffffffffffffffffffffffffffffffffffffff16815260200190815260200160002060009054906101000a900460ff166004811115610d6857610d67611242565b5b14610da8576040517f08c379a0000000000000000000000000000000000000000000000000000000008152600401610d9f906118bc565b60405180910390fd5b6000600260003373ffffffffffffffffffffffffffffffffffffffff1673ffffffffffffffffffffffffffffffffffffffff16815260200190815260200160002060006101000a81548160ff02191690836004811115610e0b57610e0a611242565b5b021790555060036000610e1d83610acf565b6004811115610e2f57610e2e611242565b5b6004811115610e4157610e40611242565b5b8152602001908152602001600020339080600181540180825580915050600190039060005260206000200160009091909190916101000a81548173ffffffffffffffffffffffffffffffffffffffff021916908373ffffffffffffffffffffffffffffffffffffffff16021790555050565b600080fd5b600080fd5b600073ffffffffffffffffffffffffffffffffffffffff82169050919050565b6000610ee882610ebd565b9050919050565b610ef881610edd565b8114610f0357600080fd5b50565b600081359050610f1581610eef565b92915050565b60058110610f2857600080fd5b50565b600081359050610f3a81610f1b565b92915050565b60008060408385031215610f5757610f56610eb3565b5b6000610f6585828601610f06565b9250506020610f7685828601610f2b565b9150509250929050565b60008115159050919050565b610f9581610f80565b82525050565b6000602082019050610fb06000830184610f8c565b92915050565b600060208284031215610fcc57610fcb610eb3565b5b6000610fda84828501610f06565b91505092915050565b600081519050919050565b600082825260208201905092915050565b60005b8381101561101d578082015181840152602081019050611002565b60008484015250505050565b6000601f19601f8301169050919050565b600061104582610fe3565b61104f8185610fee565b935061105f818560208601610fff565b61106881611029565b840191505092915050565b6000602082019050818103600083015261108d818461103a565b905092915050565b61109e81610edd565b82525050565b60006020820190506110b96000830184611095565b92915050565b6000819050919050565b6110d2816110bf565b81146110dd57600080fd5b50565b6000813590506110ef816110c9565b92915050565b6000806040838503121561110c5761110b610eb3565b5b600061111a85828601610f2b565b925050602061112b858286016110e0565b9150509250929050565b60006020828403121561114b5761114a610eb3565b5b600061115984828501610f2b565b91505092915050565b600081519050919050565b600082825260208201905092915050565b6000819050602082019050919050565b61119781610edd565b82525050565b60006111a9838361118e565b60208301905092915050565b6000602082019050919050565b60006111cd82611162565b6111d7818561116d565b93506111e28361117e565b8060005b838110156112135781516111fa888261119d565b9750611205836111b5565b9250506001810190506111e6565b5085935050505092915050565b6000602082019050818103600083015261123a81846111c2565b905092915050565b7f4e487b7100000000000000000000000000000000000000000000000000000000600052602160045260246000fd5b6005811061128257611281611242565b5b50565b600081905061129382611271565b919050565b60006112a382611285565b9050919050565b6112b381611298565b82525050565b60006020820190506112ce60008301846112aa565b92915050565b600080fd5b600080fd5b600080fd5b60008083601f8401126112f9576112f86112d4565b5b8235905067ffffffffffffffff811115611316576113156112d9565b5b602083019150836001820283011115611332576113316112de565b5b9250929050565b600080602083850312156113505761134f610eb3565b5b600083013567ffffffffffffffff81111561136e5761136d610eb8565b5b61137a858286016112e3565b92509250509250929050565b60008151905061139581610f1b565b92915050565b6000602082840312156113b1576113b0610eb3565b5b60006113bf84828501611386565b91505092915050565b7f63616c6c6572206d757374206265206f776e6572000000000000000000000000600082015250565b60006113fe601483610fee565b9150611409826113c8565b602082019050919050565b6000602082019050818103600083015261142d816113f1565b9050919050565b7f4e487b7100000000000000000000000000000000000000000000000000000000600052602260045260246000fd5b6000600282049050600182168061147b57607f821691505b60208210810361148e5761148d611434565b5b50919050565b7f4e487b7100000000000000000000000000000000000000000000000000000000600052603260045260246000fd5b7f4e487b7100000000000000000000000000000000000000000000000000000000600052601260045260246000fd5b60006114fd826110bf565b9150611508836110bf565b925082611518576115176114c3565b5b828206905092915050565b7f4e487b7100000000000000000000000000000000000000000000000000000000600052601160045260246000fd5b600061155d826110bf565b9150611568836110bf565b92508282039050818111156115805761157f611523565b5b92915050565b6000611591826110bf565b915061159c836110bf565b92508282019050808211156115b4576115b3611523565b5b92915050565b600082905092915050565b7f4e487b7100000000000000000000000000000000000000000000000000000000600052604160045260246000fd5b60008190508160005260206000209050919050565b60006020601f8301049050919050565b600082821b905092915050565b6000600883026116567fffffffffffffffffffffffffffffffffffffffffffffffffffffffffffffffff82611619565b6116608683611619565b95508019841693508086168417925050509392505050565b6000819050919050565b600061169d611698611693846110bf565b611678565b6110bf565b9050919050565b6000819050919050565b6116b783611682565b6116cb6116c3826116a4565b848454611626565b825550505050565b600090565b6116e06116d3565b6116eb8184846116ae565b505050565b5b8181101561170f576117046000826116d8565b6001810190506116f1565b5050565b601f82111561175457611725816115f4565b61172e84611609565b8101602085101561173d578190505b61175161174985611609565b8301826116f0565b50505b505050565b600082821c905092915050565b600061177760001984600802611759565b1980831691505092915050565b60006117908383611766565b9150826002028217905092915050565b6117aa83836115ba565b67ffffffffffffffff8111156117c3576117c26115c5565b5b6117cd8254611463565b6117d8828285611713565b6000601f83116001811461180757600084156117f5578287013590505b6117ff8582611784565b865550611867565b601f198416611815866115f4565b60005b8281101561183d57848901358255600182019150602085019450602081019050611818565b8683101561185a5784890135611856601f891682611766565b8355505b6001600288020188555050505b50505050505050565b7f526571756573746f72206973206e6f7420612063616e6469646174652e000000600082015250565b60006118a6601d83610fee565b91506118b182611870565b602082019050919050565b600060208201905081810360008301526118d581611899565b905091905056fea26469706673582212201e49cc821c9dcd5c67fb6b00b2c68b377df37e43cb6c8cc98ced778e929aef3964736f6c6343000812003360806040523480156200001157600080fd5b5060405162001ebd38038062001ebd83398181016040528101906200003791906200034e565b336000806101000a81548173ffffffffffffffffffffffffffffffffffffffff021916908373ffffffffffffffffffffffffffffffffffffffff16021790555080600160006101000a81548173ffffffffffffffffffffffffffffffffffffffff021916908373ffffffffffffffffffffffffffffffffffffffff1602179055508460059081620000c9919062000674565b50836007819055508260069081620000e2919062000674565b508160089081620000f4919062000674565b506001600460006101000a81548160ff02191690831515021790555050505050506200075b565b6000604051905090565b600080fd5b600080fd5b600080fd5b600080fd5b6000601f19601f8301169050919050565b7f4e487b7100000000000000000000000000000000000000000000000000000000600052604160045260246000fd5b620001848262000139565b810181811067ffffffffffffffff82111715620001a657620001a56200014a565b5b80604052505050565b6000620001bb6200011b565b9050620001c9828262000179565b919050565b600067ffffffffffffffff821115620001ec57620001eb6200014a565b5b620001f78262000139565b9050602081019050919050565b60005b838110156200022457808201518184015260208101905062000207565b60008484015250505050565b6000620002476200024184620001ce565b620001af565b90508281526020810184848401111562000266576200026562000134565b5b6200027384828562000204565b509392505050565b600082601f8301126200029357620002926200012f565b5b8151620002a584826020860162000230565b91505092915050565b6000819050919050565b620002c381620002ae565b8114620002cf57600080fd5b50565b600081519050620002e381620002b8565b92915050565b600073ffffffffffffffffffffffffffffffffffffffff82169050919050565b60006200031682620002e9565b9050919050565b620003288162000309565b81146200033457600080fd5b50565b60008151905062000348816200031d565b92915050565b600080600080600060a086880312156200036d576200036c62000125565b5b600086015167ffffffffffffffff8111156200038e576200038d6200012a565b5b6200039c888289016200027b565b9550506020620003af88828901620002d2565b945050604086015167ffffffffffffffff811115620003d357620003d26200012a565b5b620003e1888289016200027b565b935050606086015167ffffffffffffffff8111156200040557620004046200012a565b5b62000413888289016200027b565b9250506080620004268882890162000337565b9150509295509295909350565b600081519050919050565b7f4e487b7100000000000000000000000000000000000000000000000000000000600052602260045260246000fd5b600060028204905060018216806200048657607f821691505b6020821081036200049c576200049b6200043e565b5b50919050565b60008190508160005260206000209050919050565b60006020601f8301049050919050565b600082821b905092915050565b600060088302620005067fffffffffffffffffffffffffffffffffffffffffffffffffffffffffffffffff82620004c7565b620005128683620004c7565b95508019841693508086168417925050509392505050565b6000819050919050565b6000620005556200054f6200054984620002ae565b6200052a565b620002ae565b9050919050565b6000819050919050565b620005718362000534565b6200058962000580826200055c565b848454620004d4565b825550505050565b600090565b620005a062000591565b620005ad81848462000566565b505050565b5b81811015620005d557620005c960008262000596565b600181019050620005b3565b5050565b601f8211156200062457620005ee81620004a2565b620005f984620004b7565b8101602085101562000609578190505b620006216200061885620004b7565b830182620005b2565b50505b505050565b600082821c905092915050565b6000620006496000198460080262000629565b1980831691505092915050565b600062000664838362000636565b9150826002028217905092915050565b6200067f8262000433565b67ffffffffffffffff8111156200069b576200069a6200014a565b5b620006a782546200046d565b620006b4828285620005d9565b600060209050601f831160018114620006ec5760008415620006d7578287015190505b620006e3858262000656565b86555062000753565b601f198416620006fc86620004a2565b60005b828110156200072657848901518255600182019150602085019450602081019050620006ff565b8683101562000746578489015162000742601f89168262000636565b8355505b6001600288020188555050505b505050505050565b611752806200076b6000396000f3fe608060405234801561001057600080fd5b506004361061012c5760003560e01c80638da5cb5b116100ad578063de80276111610071578063de80276114610335578063e6ca297714610365578063f39f05f714610383578063fbeaa42f146103b3578063fc107720146103d15761012c565b80638da5cb5b1461027b5780639407921c14610299578063c524e7f6146102c9578063ca9d2c6b146102e7578063caa4fbbd146103175761012c565b806355c1c478116100f457806355c1c478146101e95780635f891d98146102075780636947a020146102235780637b9f19761461023f5780637d2cb98d1461025d5761012c565b80630fbdd52114610131578063101d4fb914610161578063244ded7a1461019157806328a3d83a146101ad578063481fd6b5146101cb575b600080fd5b61014b600480360381019061014691906110be565b6103ed565b6040516101589190611119565b60405180910390f35b61017b600480360381019061017691906110be565b61061f565b6040516101889190611119565b60405180910390f35b6101ab60048036038101906101a69190611134565b61069c565b005b6101b561076d565b6040516101c2919061121f565b60405180910390f35b6101d3610831565b6040516101e091906112d1565b60405180910390f35b6101f16108c3565b6040516101fe9190611302565b60405180910390f35b610221600480360381019061021c9190611353565b6108ed565b005b61023d600480360381019061023891906110be565b610967565b005b6102476109d2565b60405161025491906113a2565b60405180910390f35b6102656109dc565b604051610272919061121f565b60405180910390f35b610283610aa0565b6040516102909190611302565b60405180910390f35b6102b360048036038101906102ae91906113bd565b610ac4565b6040516102c0919061121f565b60405180910390f35b6102d1610b89565b6040516102de91906112d1565b60405180910390f35b61030160048036038101906102fc91906113bd565b610c1b565b60405161030e9190611461565b60405180910390f35b61031f610c96565b60405161032c9190611119565b60405180910390f35b61034f600480360381019061034a9190611353565b610cad565b60405161035c9190611302565b60405180910390f35b61036d610cfb565b60405161037a919061121f565b60405180910390f35b61039d60048036038101906103989190611134565b610dbf565b6040516103aa9190611461565b60405180910390f35b6103bb610ddf565b6040516103c891906112d1565b60405180910390f35b6103eb60048036038101906103e691906113bd565b610e71565b005b6000808390506103fc83610c1b565b600481111561040e5761040d6113ea565b5b8173ffffffffffffffffffffffffffffffffffffffff1663f39f05f7306040518263ffffffff1660e01b81526004016104479190611302565b602060405180830381865afa158015610464573d6000803e3d6000fd5b505050506040513d601f19601f820116820180604052508101906104889190611491565b600481111561049a576104996113ea565b5b036105ac57600360008460048111156104b6576104b56113ea565b5b60048111156104c8576104c76113ea565b5b8152602001908152602001600020849080600181540180825580915050600190039060005260206000200160009091909190916101000a81548173ffffffffffffffffffffffffffffffffffffffff021916908373ffffffffffffffffffffffffffffffffffffffff1602179055508073ffffffffffffffffffffffffffffffffffffffff1663fc107720846040518263ffffffff1660e01b81526004016105709190611461565b600060405180830381600087803b15801561058a57600080fd5b505af115801561059e573d6000803e3d6000fd5b505050506001915050610619565b82600260008673ffffffffffffffffffffffffffffffffffffffff1673ffffffffffffffffffffffffffffffffffffffff16815260200190815260200160002060006101000a81548160ff0219169083600481111561060e5761060d6113ea565b5b021790555060009150505b92915050565b6000816004811115610634576106336113ea565b5b600260008573ffffffffffffffffffffffffffffffffffffffff1673ffffffffffffffffffffffffffffffffffffffff16815260200190815260200160002060009054906101000a900460ff166004811115610693576106926113ea565b5b14905092915050565b60008054906101000a900473ffffffffffffffffffffffffffffffffffffffff1673ffffffffffffffffffffffffffffffffffffffff163373ffffffffffffffffffffffffffffffffffffffff161461072a576040517f08c379a00000000000000000000000000000000000000000000000000000000081526004016107219061150a565b60405180910390fd5b806000806101000a81548173ffffffffffffffffffffffffffffffffffffffff021916908373ffffffffffffffffffffffffffffffffffffffff16021790555050565b60606003600060026004811115610787576107866113ea565b5b6004811115610799576107986113ea565b5b815260200190815260200160002080548060200260200160405190810160405280929190818152602001828054801561082757602002820191906000526020600020905b8160009054906101000a900473ffffffffffffffffffffffffffffffffffffffff1673ffffffffffffffffffffffffffffffffffffffff16815260200190600101908083116107dd575b5050505050905090565b60606005805461084090611559565b80601f016020809104026020016040519081016040528092919081815260200182805461086c90611559565b80156108b95780601f1061088e576101008083540402835291602001916108b9565b820191906000526020600020905b81548152906001019060200180831161089c57829003601f168201915b5050505050905090565b6000600160009054906101000a900473ffffffffffffffffffffffffffffffffffffffff16905090565b60036000836004811115610904576109036113ea565b5b6004811115610916576109156113ea565b5b815260200190815260200160002081815481106109365761093561158a565b5b9060005260206000200160006101000a81549073ffffffffffffffffffffffffffffffffffffffff02191690555050565b80600260008473ffffffffffffffffffffffffffffffffffffffff1673ffffffffffffffffffffffffffffffffffffffff16815260200190815260200160002060006101000a81548160ff021916908360048111156109c9576109c86113ea565b5b02179055505050565b6000600754905090565b606060036000600160048111156109f6576109f56113ea565b5b6004811115610a0857610a076113ea565b5b8152602001908152602001600020805480602002602001604051908101604052809291908181526020018280548015610a9657602002820191906000526020600020905b8160009054906101000a900473ffffffffffffffffffffffffffffffffffffffff1673ffffffffffffffffffffffffffffffffffffffff1681526020019060010190808311610a4c575b5050505050905090565b60008054906101000a900473ffffffffffffffffffffffffffffffffffffffff1681565b606060036000836004811115610add57610adc6113ea565b5b6004811115610aef57610aee6113ea565b5b8152602001908152602001600020805480602002602001604051908101604052809291908181526020018280548015610b7d57602002820191906000526020600020905b8160009054906101000a900473ffffffffffffffffffffffffffffffffffffffff1673ffffffffffffffffffffffffffffffffffffffff1681526020019060010190808311610b33575b50505050509050919050565b606060068054610b9890611559565b80601f0160208091040260200160405190810160405280929190818152602001828054610bc490611559565b8015610c115780601f10610be657610100808354040283529160200191610c11565b820191906000526020600020905b815481529060010190602001808311610bf457829003601f168201915b5050505050905090565b600080826004811115610c3157610c306113ea565b5b90506000600282610c4291906115e8565b03610c6e57600181610c549190611648565b6004811115610c6657610c656113ea565b5b915050610c91565b600181610c7b919061167c565b6004811115610c8d57610c8c6113ea565b5b9150505b919050565b6000600460009054906101000a900460ff16905090565b60036020528160005260406000208181548110610cc957600080fd5b906000526020600020016000915091509054906101000a900473ffffffffffffffffffffffffffffffffffffffff1681565b60606003600060036004811115610d1557610d146113ea565b5b6004811115610d2757610d266113ea565b5b8152602001908152602001600020805480602002602001604051908101604052809291908181526020018280548015610db557602002820191906000526020600020905b8160009054906101000a900473ffffffffffffffffffffffffffffffffffffffff1673ffffffffffffffffffffffffffffffffffffffff1681526020019060010190808311610d6b575b5050505050905090565b60026020528060005260406000206000915054906101000a900460ff1681565b606060088054610dee90611559565b80601f0160208091040260200160405190810160405280929190818152602001828054610e1a90611559565b8015610e675780601f10610e3c57610100808354040283529160200191610e67565b820191906000526020600020905b815481529060010190602001808311610e4a57829003601f168201915b5050505050905090565b610e7a81610c1b565b6004811115610e8c57610e8b6113ea565b5b600260003373ffffffffffffffffffffffffffffffffffffffff1673ffffffffffffffffffffffffffffffffffffffff16815260200190815260200160002060009054906101000a900460ff166004811115610eeb57610eea6113ea565b5b14610f2b576040517f08c379a0000000000000000000000000000000000000000000000000000000008152600401610f22906116fc565b60405180910390fd5b6000600260003373ffffffffffffffffffffffffffffffffffffffff1673ffffffffffffffffffffffffffffffffffffffff16815260200190815260200160002060006101000a81548160ff02191690836004811115610f8e57610f8d6113ea565b5b021790555060036000610fa083610c1b565b6004811115610fb257610fb16113ea565b5b6004811115610fc457610fc36113ea565b5b8152602001908152602001600020339080600181540180825580915050600190039060005260206000200160009091909190916101000a81548173ffffffffffffffffffffffffffffffffffffffff021916908373ffffffffffffffffffffffffffffffffffffffff16021790555050565b600080fd5b600073ffffffffffffffffffffffffffffffffffffffff82169050919050565b60006110668261103b565b9050919050565b6110768161105b565b811461108157600080fd5b50565b6000813590506110938161106d565b92915050565b600581106110a657600080fd5b50565b6000813590506110b881611099565b92915050565b600080604083850312156110d5576110d4611036565b5b60006110e385828601611084565b92505060206110f4858286016110a9565b9150509250929050565b60008115159050919050565b611113816110fe565b82525050565b600060208201905061112e600083018461110a565b92915050565b60006020828403121561114a57611149611036565b5b600061115884828501611084565b91505092915050565b600081519050919050565b600082825260208201905092915050565b6000819050602082019050919050565b6111968161105b565b82525050565b60006111a8838361118d565b60208301905092915050565b6000602082019050919050565b60006111cc82611161565b6111d6818561116c565b93506111e18361117d565b8060005b838110156112125781516111f9888261119c565b9750611204836111b4565b9250506001810190506111e5565b5085935050505092915050565b6000602082019050818103600083015261123981846111c1565b905092915050565b600081519050919050565b600082825260208201905092915050565b60005b8381101561127b578082015181840152602081019050611260565b60008484015250505050565b6000601f19601f8301169050919050565b60006112a382611241565b6112ad818561124c565b93506112bd81856020860161125d565b6112c681611287565b840191505092915050565b600060208201905081810360008301526112eb8184611298565b905092915050565b6112fc8161105b565b82525050565b600060208201905061131760008301846112f3565b92915050565b6000819050919050565b6113308161131d565b811461133b57600080fd5b50565b60008135905061134d81611327565b92915050565b6000806040838503121561136a57611369611036565b5b6000611378858286016110a9565b92505060206113898582860161133e565b9150509250929050565b61139c8161131d565b82525050565b60006020820190506113b76000830184611393565b92915050565b6000602082840312156113d3576113d2611036565b5b60006113e1848285016110a9565b91505092915050565b7f4e487b7100000000000000000000000000000000000000000000000000000000600052602160045260246000fd5b6005811061142a576114296113ea565b5b50565b600081905061143b82611419565b919050565b600061144b8261142d565b9050919050565b61145b81611440565b82525050565b60006020820190506114766000830184611452565b92915050565b60008151905061148b81611099565b92915050565b6000602082840312156114a7576114a6611036565b5b60006114b58482850161147c565b91505092915050565b7f63616c6c6572206d757374206265206f776e6572000000000000000000000000600082015250565b60006114f460148361124c565b91506114ff826114be565b602082019050919050565b60006020820190508181036000830152611523816114e7565b9050919050565b7f4e487b7100000000000000000000000000000000000000000000000000000000600052602260045260246000fd5b6000600282049050600182168061157157607f821691505b6020821081036115845761158361152a565b5b50919050565b7f4e487b7100000000000000000000000000000000000000000000000000000000600052603260045260246000fd5b7f4e487b7100000000000000000000000000000000000000000000000000000000600052601260045260246000fd5b60006115f38261131d565b91506115fe8361131d565b92508261160e5761160d6115b9565b5b828206905092915050565b7f4e487b7100000000000000000000000000000000000000000000000000000000600052601160045260246000fd5b60006116538261131d565b915061165e8361131d565b925082820390508181111561167657611675611619565b5b92915050565b60006116878261131d565b91506116928361131d565b92508282019050808211156116aa576116a9611619565b5b92915050565b7f526571756573746f72206973206e6f7420612063616e6469646174652e000000600082015250565b60006116e6601d8361124c565b91506116f1826116b0565b602082019050919050565b60006020820190508181036000830152611715816116d9565b905091905056fea264697066735822122052e70f388f6adfbcb2eef948c421ac54412a027f5a4abf838d6cf1218e2a61ac64736f6c63430008120033a2646970667358221220175eb03b8ab598874af3c10cdf4500812f56f7da02ee25401ba582daded6f38964736f6c63430008120033",
			"opcodes": "PUSH1 0x80 PUSH1 0x40 MSTORE CALLVALUE DUP1 ISZERO PUSH2 0x10 JUMPI PUSH1 0x0 DUP1 REVERT JUMPDEST POP PUSH2 0x5AC4 DUP1 PUSH2 0x20 PUSH1 0x0 CODECOPY PUSH1 0x0 RETURN INVALID PUSH1 0x80 PUSH1 0x40 MSTORE CALLVALUE DUP1 ISZERO PUSH3 0x11 JUMPI PUSH1 0x0 DUP1 REVERT JUMPDEST POP PUSH1 0x4 CALLDATASIZE LT PUSH3 0x5E JUMPI PUSH1 0x0 CALLDATALOAD PUSH1 0xE0 SHR DUP1 PUSH4 0x28A249B0 EQ PUSH3 0x63 JUMPI DUP1 PUSH4 0x70C4B461 EQ PUSH3 0x9C JUMPI DUP1 PUSH4 0xC258067A EQ PUSH3 0xD2 JUMPI DUP1 PUSH4 0xD626B60F EQ PUSH3 0x108 JUMPI DUP1 PUSH4 0xD9ABA9CE EQ PUSH3 0x13E JUMPI JUMPDEST PUSH1 0x0 DUP1 REVERT JUMPDEST PUSH3 0x81 PUSH1 0x4 DUP1 CALLDATASIZE SUB DUP2 ADD SWAP1 PUSH3 0x7B SWAP2 SWAP1 PUSH3 0xE46 JUMP JUMPDEST PUSH3 0x17A JUMP JUMPDEST PUSH1 0x40 MLOAD PUSH3 0x93 SWAP5 SWAP4 SWAP3 SWAP2 SWAP1 PUSH3 0xFE0 JUMP JUMPDEST PUSH1 0x40 MLOAD DUP1 SWAP2 SUB SWAP1 RETURN JUMPDEST PUSH3 0xBA PUSH1 0x4 DUP1 CALLDATASIZE SUB DUP2 ADD SWAP1 PUSH3 0xB4 SWAP2 SWAP1 PUSH3 0x1275 JUMP JUMPDEST PUSH3 0x3D0 JUMP JUMPDEST PUSH1 0x40 MLOAD PUSH3 0xC9 SWAP2 SWAP1 PUSH3 0x1374 JUMP JUMPDEST PUSH1 0x40 MLOAD DUP1 SWAP2 SUB SWAP1 RETURN JUMPDEST PUSH3 0xF0 PUSH1 0x4 DUP1 CALLDATASIZE SUB DUP2 ADD SWAP1 PUSH3 0xEA SWAP2 SWAP1 PUSH3 0x13B9 JUMP JUMPDEST PUSH3 0x5BE JUMP JUMPDEST PUSH1 0x40 MLOAD PUSH3 0xFF SWAP2 SWAP1 PUSH3 0x146B JUMP JUMPDEST PUSH1 0x40 MLOAD DUP1 SWAP2 SUB SWAP1 RETURN JUMPDEST PUSH3 0x126 PUSH1 0x4 DUP1 CALLDATASIZE SUB DUP2 ADD SWAP1 PUSH3 0x120 SWAP2 SWAP1 PUSH3 0x1527 JUMP JUMPDEST PUSH3 0x6FB JUMP JUMPDEST PUSH1 0x40 MLOAD PUSH3 0x135 SWAP2 SWAP1 PUSH3 0x1374 JUMP JUMPDEST PUSH1 0x40 MLOAD DUP1 SWAP2 SUB SWAP1 RETURN JUMPDEST PUSH3 0x15C PUSH1 0x4 DUP1 CALLDATASIZE SUB DUP2 ADD SWAP1 PUSH3 0x156 SWAP2 SWAP1 PUSH3 0xE46 JUMP JUMPDEST PUSH3 0x9EC JUMP JUMPDEST PUSH1 0x40 MLOAD PUSH3 0x171 SWAP8 SWAP7 SWAP6 SWAP5 SWAP4 SWAP3 SWAP2 SWAP1 PUSH3 0x16AD JUMP JUMPDEST PUSH1 0x40 MLOAD DUP1 SWAP2 SUB SWAP1 RETURN JUMPDEST PUSH1 0x60 DUP1 PUSH1 0x60 DUP1 PUSH1 0x0 PUSH1 0x1 PUSH1 0x0 DUP8 PUSH20 0xFFFFFFFFFFFFFFFFFFFFFFFFFFFFFFFFFFFFFFFF AND PUSH20 0xFFFFFFFFFFFFFFFFFFFFFFFFFFFFFFFFFFFFFFFF AND DUP2 MSTORE PUSH1 0x20 ADD SWAP1 DUP2 MSTORE PUSH1 0x20 ADD PUSH1 0x0 KECCAK256 PUSH1 0x0 SWAP1 SLOAD SWAP1 PUSH2 0x100 EXP SWAP1 DIV PUSH20 0xFFFFFFFFFFFFFFFFFFFFFFFFFFFFFFFFFFFFFFFF AND SWAP1 POP DUP1 PUSH20 0xFFFFFFFFFFFFFFFFFFFFFFFFFFFFFFFFFFFFFFFF AND PUSH4 0x481FD6B5 PUSH1 0x40 MLOAD DUP2 PUSH4 0xFFFFFFFF AND PUSH1 0xE0 SHL DUP2 MSTORE PUSH1 0x4 ADD PUSH1 0x0 PUSH1 0x40 MLOAD DUP1 DUP4 SUB DUP2 DUP7 GAS STATICCALL ISZERO DUP1 ISZERO PUSH3 0x230 JUMPI RETURNDATASIZE PUSH1 0x0 DUP1 RETURNDATACOPY RETURNDATASIZE PUSH1 0x0 REVERT JUMPDEST POP POP POP POP PUSH1 0x40 MLOAD RETURNDATASIZE PUSH1 0x0 DUP3 RETURNDATACOPY RETURNDATASIZE PUSH1 0x1F NOT PUSH1 0x1F DUP3 ADD AND DUP3 ADD DUP1 PUSH1 0x40 MSTORE POP DUP2 ADD SWAP1 PUSH3 0x25B SWAP2 SWAP1 PUSH3 0x17D2 JUMP JUMPDEST DUP2 PUSH20 0xFFFFFFFFFFFFFFFFFFFFFFFFFFFFFFFFFFFFFFFF AND PUSH4 0xB1D90809 PUSH1 0x40 MLOAD DUP2 PUSH4 0xFFFFFFFF AND PUSH1 0xE0 SHL DUP2 MSTORE PUSH1 0x4 ADD PUSH1 0x0 PUSH1 0x40 MLOAD DUP1 DUP4 SUB DUP2 DUP7 GAS STATICCALL ISZERO DUP1 ISZERO PUSH3 0x2A7 JUMPI RETURNDATASIZE PUSH1 0x0 DUP1 RETURNDATACOPY RETURNDATASIZE PUSH1 0x0 REVERT JUMPDEST POP POP POP POP PUSH1 0x40 MLOAD RETURNDATASIZE PUSH1 0x0 DUP3 RETURNDATACOPY RETURNDATASIZE PUSH1 0x1F NOT PUSH1 0x1F DUP3 ADD AND DUP3 ADD DUP1 PUSH1 0x40 MSTORE POP DUP2 ADD SWAP1 PUSH3 0x2D2 SWAP2 SWAP1 PUSH3 0x18E1 JUMP JUMPDEST DUP3 PUSH20 0xFFFFFFFFFFFFFFFFFFFFFFFFFFFFFFFFFFFFFFFF AND PUSH4 0xC524E7F6 PUSH1 0x40 MLOAD DUP2 PUSH4 0xFFFFFFFF AND PUSH1 0xE0 SHL DUP2 MSTORE PUSH1 0x4 ADD PUSH1 0x0 PUSH1 0x40 MLOAD DUP1 DUP4 SUB DUP2 DUP7 GAS STATICCALL ISZERO DUP1 ISZERO PUSH3 0x31E JUMPI RETURNDATASIZE PUSH1 0x0 DUP1 RETURNDATACOPY RETURNDATASIZE PUSH1 0x0 REVERT JUMPDEST POP POP POP POP PUSH1 0x40 MLOAD RETURNDATASIZE PUSH1 0x0 DUP3 RETURNDATACOPY RETURNDATASIZE PUSH1 0x1F NOT PUSH1 0x1F DUP3 ADD AND DUP3 ADD DUP1 PUSH1 0x40 MSTORE POP DUP2 ADD SWAP1 PUSH3 0x349 SWAP2 SWAP1 PUSH3 0x17D2 JUMP JUMPDEST DUP4 PUSH20 0xFFFFFFFFFFFFFFFFFFFFFFFFFFFFFFFFFFFFFFFF AND PUSH4 0xFBEAA42F PUSH1 0x40 MLOAD DUP2 PUSH4 0xFFFFFFFF AND PUSH1 0xE0 SHL DUP2 MSTORE PUSH1 0x4 ADD PUSH1 0x0 PUSH1 0x40 MLOAD DUP1 DUP4 SUB DUP2 DUP7 GAS STATICCALL ISZERO DUP1 ISZERO PUSH3 0x395 JUMPI RETURNDATASIZE PUSH1 0x0 DUP1 RETURNDATACOPY RETURNDATASIZE PUSH1 0x0 REVERT JUMPDEST POP POP POP POP PUSH1 0x40 MLOAD RETURNDATASIZE PUSH1 0x0 DUP3 RETURNDATACOPY RETURNDATASIZE PUSH1 0x1F NOT PUSH1 0x1F DUP3 ADD AND DUP3 ADD DUP1 PUSH1 0x40 MSTORE POP DUP2 ADD SWAP1 PUSH3 0x3C0 SWAP2 SWAP1 PUSH3 0x17D2 JUMP JUMPDEST SWAP5 POP SWAP5 POP SWAP5 POP SWAP5 POP POP SWAP2 SWAP4 POP SWAP2 SWAP4 JUMP JUMPDEST PUSH1 0x0 DUP1 DUP6 DUP4 CALLER PUSH1 0x40 MLOAD PUSH3 0x3E4 SWAP1 PUSH3 0xDB1 JUMP JUMPDEST PUSH3 0x3F2 SWAP4 SWAP3 SWAP2 SWAP1 PUSH3 0x1932 JUMP JUMPDEST PUSH1 0x40 MLOAD DUP1 SWAP2 SUB SWAP1 PUSH1 0x0 CREATE DUP1 ISZERO DUP1 ISZERO PUSH3 0x40F JUMPI RETURNDATASIZE PUSH1 0x0 DUP1 RETURNDATACOPY RETURNDATASIZE PUSH1 0x0 REVERT JUMPDEST POP SWAP1 POP PUSH1 0x0 JUMPDEST DUP6 MLOAD DUP2 LT ISZERO PUSH3 0x4C4 JUMPI DUP2 PUSH20 0xFFFFFFFFFFFFFFFFFFFFFFFFFFFFFFFFFFFFFFFF AND PUSH4 0x6947A020 DUP8 DUP4 DUP2 MLOAD DUP2 LT PUSH3 0x451 JUMPI PUSH3 0x450 PUSH3 0x197D JUMP JUMPDEST JUMPDEST PUSH1 0x20 MUL PUSH1 0x20 ADD ADD MLOAD PUSH1 0x4 PUSH1 0x40 MLOAD DUP4 PUSH4 0xFFFFFFFF AND PUSH1 0xE0 SHL DUP2 MSTORE PUSH1 0x4 ADD PUSH3 0x47A SWAP3 SWAP2 SWAP1 PUSH3 0x1A2C JUMP JUMPDEST PUSH1 0x0 PUSH1 0x40 MLOAD DUP1 DUP4 SUB DUP2 PUSH1 0x0 DUP8 DUP1 EXTCODESIZE ISZERO DUP1 ISZERO PUSH3 0x495 JUMPI PUSH1 0x0 DUP1 REVERT JUMPDEST POP GAS CALL ISZERO DUP1 ISZERO PUSH3 0x4AA JUMPI RETURNDATASIZE PUSH1 0x0 DUP1 RETURNDATACOPY RETURNDATASIZE PUSH1 0x0 REVERT JUMPDEST POP POP POP POP DUP1 DUP1 PUSH3 0x4BB SWAP1 PUSH3 0x1A88 JUMP JUMPDEST SWAP2 POP POP PUSH3 0x415 JUMP JUMPDEST POP DUP1 PUSH20 0xFFFFFFFFFFFFFFFFFFFFFFFFFFFFFFFFFFFFFFFF AND PUSH4 0xE5AB27E3 DUP6 PUSH1 0x40 MLOAD DUP3 PUSH4 0xFFFFFFFF AND PUSH1 0xE0 SHL DUP2 MSTORE PUSH1 0x4 ADD PUSH3 0x500 SWAP2 SWAP1 PUSH3 0x1AD5 JUMP JUMPDEST PUSH1 0x0 PUSH1 0x40 MLOAD DUP1 DUP4 SUB DUP2 PUSH1 0x0 DUP8 DUP1 EXTCODESIZE ISZERO DUP1 ISZERO PUSH3 0x51B JUMPI PUSH1 0x0 DUP1 REVERT JUMPDEST POP GAS CALL ISZERO DUP1 ISZERO PUSH3 0x530 JUMPI RETURNDATASIZE PUSH1 0x0 DUP1 RETURNDATACOPY RETURNDATASIZE PUSH1 0x0 REVERT JUMPDEST POP POP POP POP DUP1 PUSH1 0x1 PUSH1 0x0 DUP4 PUSH20 0xFFFFFFFFFFFFFFFFFFFFFFFFFFFFFFFFFFFFFFFF AND PUSH20 0xFFFFFFFFFFFFFFFFFFFFFFFFFFFFFFFFFFFFFFFF AND DUP2 MSTORE PUSH1 0x20 ADD SWAP1 DUP2 MSTORE PUSH1 0x20 ADD PUSH1 0x0 KECCAK256 PUSH1 0x0 PUSH2 0x100 EXP DUP2 SLOAD DUP2 PUSH20 0xFFFFFFFFFFFFFFFFFFFFFFFFFFFFFFFFFFFFFFFF MUL NOT AND SWAP1 DUP4 PUSH20 0xFFFFFFFFFFFFFFFFFFFFFFFFFFFFFFFFFFFFFFFF AND MUL OR SWAP1 SSTORE POP DUP1 SWAP2 POP POP SWAP5 SWAP4 POP POP POP POP JUMP JUMPDEST PUSH1 0x0 PUSH1 0x3 PUSH1 0x4 DUP2 GT ISZERO PUSH3 0x5D7 JUMPI PUSH3 0x5D6 PUSH3 0x19AC JUMP JUMPDEST JUMPDEST DUP3 PUSH1 0x4 DUP2 GT ISZERO PUSH3 0x5ED JUMPI PUSH3 0x5EC PUSH3 0x19AC JUMP JUMPDEST JUMPDEST SUB PUSH3 0x65B JUMPI PUSH1 0x1 PUSH1 0x0 DUP5 PUSH20 0xFFFFFFFFFFFFFFFFFFFFFFFFFFFFFFFFFFFFFFFF AND PUSH20 0xFFFFFFFFFFFFFFFFFFFFFFFFFFFFFFFFFFFFFFFF AND DUP2 MSTORE PUSH1 0x20 ADD SWAP1 DUP2 MSTORE PUSH1 0x20 ADD PUSH1 0x0 KECCAK256 PUSH1 0x0 SWAP1 SLOAD SWAP1 PUSH2 0x100 EXP SWAP1 DIV PUSH20 0xFFFFFFFFFFFFFFFFFFFFFFFFFFFFFFFFFFFFFFFF AND SWAP1 POP PUSH3 0x6F5 JUMP JUMPDEST PUSH1 0x4 DUP1 DUP2 GT ISZERO PUSH3 0x671 JUMPI PUSH3 0x670 PUSH3 0x19AC JUMP JUMPDEST JUMPDEST DUP3 PUSH1 0x4 DUP2 GT ISZERO PUSH3 0x687 JUMPI PUSH3 0x686 PUSH3 0x19AC JUMP JUMPDEST JUMPDEST SUB PUSH3 0x6F4 JUMPI PUSH1 0x0 DUP1 DUP5 PUSH20 0xFFFFFFFFFFFFFFFFFFFFFFFFFFFFFFFFFFFFFFFF AND PUSH20 0xFFFFFFFFFFFFFFFFFFFFFFFFFFFFFFFFFFFFFFFF AND DUP2 MSTORE PUSH1 0x20 ADD SWAP1 DUP2 MSTORE PUSH1 0x20 ADD PUSH1 0x0 KECCAK256 PUSH1 0x0 SWAP1 SLOAD SWAP1 PUSH2 0x100 EXP SWAP1 DIV PUSH20 0xFFFFFFFFFFFFFFFFFFFFFFFFFFFFFFFFFFFFFFFF AND SWAP1 POP PUSH3 0x6F5 JUMP JUMPDEST JUMPDEST SWAP3 SWAP2 POP POP JUMP JUMPDEST PUSH1 0x0 DUP1 DUP11 DUP11 DUP8 DUP8 DUP8 DUP8 CALLER PUSH1 0x40 MLOAD PUSH3 0x713 SWAP1 PUSH3 0xDBF JUMP JUMPDEST PUSH3 0x725 SWAP8 SWAP7 SWAP6 SWAP5 SWAP4 SWAP3 SWAP2 SWAP1 PUSH3 0x1B2C JUMP JUMPDEST PUSH1 0x40 MLOAD DUP1 SWAP2 SUB SWAP1 PUSH1 0x0 CREATE DUP1 ISZERO DUP1 ISZERO PUSH3 0x742 JUMPI RETURNDATASIZE PUSH1 0x0 DUP1 RETURNDATACOPY RETURNDATASIZE PUSH1 0x0 REVERT JUMPDEST POP SWAP1 POP PUSH1 0x0 JUMPDEST DUP10 MLOAD DUP2 LT ISZERO PUSH3 0x7F7 JUMPI DUP2 PUSH20 0xFFFFFFFFFFFFFFFFFFFFFFFFFFFFFFFFFFFFFFFF AND PUSH4 0x6947A020 DUP12 DUP4 DUP2 MLOAD DUP2 LT PUSH3 0x784 JUMPI PUSH3 0x783 PUSH3 0x197D JUMP JUMPDEST JUMPDEST PUSH1 0x20 MUL PUSH1 0x20 ADD ADD MLOAD PUSH1 0x3 PUSH1 0x40 MLOAD DUP4 PUSH4 0xFFFFFFFF AND PUSH1 0xE0 SHL DUP2 MSTORE PUSH1 0x4 ADD PUSH3 0x7AD SWAP3 SWAP2 SWAP1 PUSH3 0x1A2C JUMP JUMPDEST PUSH1 0x0 PUSH1 0x40 MLOAD DUP1 DUP4 SUB DUP2 PUSH1 0x0 DUP8 DUP1 EXTCODESIZE ISZERO DUP1 ISZERO PUSH3 0x7C8 JUMPI PUSH1 0x0 DUP1 REVERT JUMPDEST POP GAS CALL ISZERO DUP1 ISZERO PUSH3 0x7DD JUMPI RETURNDATASIZE PUSH1 0x0 DUP1 RETURNDATACOPY RETURNDATASIZE PUSH1 0x0 REVERT JUMPDEST POP POP POP POP DUP1 DUP1 PUSH3 0x7EE SWAP1 PUSH3 0x1A88 JUMP JUMPDEST SWAP2 POP POP PUSH3 0x748 JUMP JUMPDEST POP PUSH1 0x0 JUMPDEST DUP9 MLOAD DUP2 LT ISZERO PUSH3 0x8AA JUMPI DUP2 PUSH20 0xFFFFFFFFFFFFFFFFFFFFFFFFFFFFFFFFFFFFFFFF AND PUSH4 0x6947A020 DUP11 DUP4 DUP2 MLOAD DUP2 LT PUSH3 0x837 JUMPI PUSH3 0x836 PUSH3 0x197D JUMP JUMPDEST JUMPDEST PUSH1 0x20 MUL PUSH1 0x20 ADD ADD MLOAD PUSH1 0x2 PUSH1 0x40 MLOAD DUP4 PUSH4 0xFFFFFFFF AND PUSH1 0xE0 SHL DUP2 MSTORE PUSH1 0x4 ADD PUSH3 0x860 SWAP3 SWAP2 SWAP1 PUSH3 0x1A2C JUMP JUMPDEST PUSH1 0x0 PUSH1 0x40 MLOAD DUP1 DUP4 SUB DUP2 PUSH1 0x0 DUP8 DUP1 EXTCODESIZE ISZERO DUP1 ISZERO PUSH3 0x87B JUMPI PUSH1 0x0 DUP1 REVERT JUMPDEST POP GAS CALL ISZERO DUP1 ISZERO PUSH3 0x890 JUMPI RETURNDATASIZE PUSH1 0x0 DUP1 RETURNDATACOPY RETURNDATASIZE PUSH1 0x0 REVERT JUMPDEST POP POP POP POP DUP1 DUP1 PUSH3 0x8A1 SWAP1 PUSH3 0x1A88 JUMP JUMPDEST SWAP2 POP POP PUSH3 0x7FB JUMP JUMPDEST POP PUSH1 0x0 JUMPDEST DUP8 MLOAD DUP2 LT ISZERO PUSH3 0x95D JUMPI DUP2 PUSH20 0xFFFFFFFFFFFFFFFFFFFFFFFFFFFFFFFFFFFFFFFF AND PUSH4 0x6947A020 DUP10 DUP4 DUP2 MLOAD DUP2 LT PUSH3 0x8EA JUMPI PUSH3 0x8E9 PUSH3 0x197D JUMP JUMPDEST JUMPDEST PUSH1 0x20 MUL PUSH1 0x20 ADD ADD MLOAD PUSH1 0x1 PUSH1 0x40 MLOAD DUP4 PUSH4 0xFFFFFFFF AND PUSH1 0xE0 SHL DUP2 MSTORE PUSH1 0x4 ADD PUSH3 0x913 SWAP3 SWAP2 SWAP1 PUSH3 0x1A2C JUMP JUMPDEST PUSH1 0x0 PUSH1 0x40 MLOAD DUP1 DUP4 SUB DUP2 PUSH1 0x0 DUP8 DUP1 EXTCODESIZE ISZERO DUP1 ISZERO PUSH3 0x92E JUMPI PUSH1 0x0 DUP1 REVERT JUMPDEST POP GAS CALL ISZERO DUP1 ISZERO PUSH3 0x943 JUMPI RETURNDATASIZE PUSH1 0x0 DUP1 RETURNDATACOPY RETURNDATASIZE PUSH1 0x0 REVERT JUMPDEST POP POP POP POP DUP1 DUP1 PUSH3 0x954 SWAP1 PUSH3 0x1A88 JUMP JUMPDEST SWAP2 POP POP PUSH3 0x8AE JUMP JUMPDEST POP DUP1 PUSH1 0x0 DUP1 DUP4 PUSH20 0xFFFFFFFFFFFFFFFFFFFFFFFFFFFFFFFFFFFFFFFF AND PUSH20 0xFFFFFFFFFFFFFFFFFFFFFFFFFFFFFFFFFFFFFFFF AND DUP2 MSTORE PUSH1 0x20 ADD SWAP1 DUP2 MSTORE PUSH1 0x20 ADD PUSH1 0x0 KECCAK256 PUSH1 0x0 PUSH2 0x100 EXP DUP2 SLOAD DUP2 PUSH20 0xFFFFFFFFFFFFFFFFFFFFFFFFFFFFFFFFFFFFFFFF MUL NOT AND SWAP1 DUP4 PUSH20 0xFFFFFFFFFFFFFFFFFFFFFFFFFFFFFFFFFFFFFFFF AND MUL OR SWAP1 SSTORE POP DUP1 SWAP2 POP POP SWAP10 SWAP9 POP POP POP POP POP POP POP POP POP JUMP JUMPDEST PUSH1 0x60 PUSH1 0x0 PUSH1 0x60 DUP1 PUSH1 0x60 DUP1 PUSH1 0x60 PUSH1 0x0 DUP1 PUSH1 0x0 DUP11 PUSH20 0xFFFFFFFFFFFFFFFFFFFFFFFFFFFFFFFFFFFFFFFF AND PUSH20 0xFFFFFFFFFFFFFFFFFFFFFFFFFFFFFFFFFFFFFFFF AND DUP2 MSTORE PUSH1 0x20 ADD SWAP1 DUP2 MSTORE PUSH1 0x20 ADD PUSH1 0x0 KECCAK256 PUSH1 0x0 SWAP1 SLOAD SWAP1 PUSH2 0x100 EXP SWAP1 DIV PUSH20 0xFFFFFFFFFFFFFFFFFFFFFFFFFFFFFFFFFFFFFFFF AND SWAP1 POP DUP1 PUSH20 0xFFFFFFFFFFFFFFFFFFFFFFFFFFFFFFFFFFFFFFFF AND PUSH4 0x481FD6B5 PUSH1 0x40 MLOAD DUP2 PUSH4 0xFFFFFFFF AND PUSH1 0xE0 SHL DUP2 MSTORE PUSH1 0x4 ADD PUSH1 0x0 PUSH1 0x40 MLOAD DUP1 DUP4 SUB DUP2 DUP7 GAS STATICCALL ISZERO DUP1 ISZERO PUSH3 0xAA7 JUMPI RETURNDATASIZE PUSH1 0x0 DUP1 RETURNDATACOPY RETURNDATASIZE PUSH1 0x0 REVERT JUMPDEST POP POP POP POP PUSH1 0x40 MLOAD RETURNDATASIZE PUSH1 0x0 DUP3 RETURNDATACOPY RETURNDATASIZE PUSH1 0x1F NOT PUSH1 0x1F DUP3 ADD AND DUP3 ADD DUP1 PUSH1 0x40 MSTORE POP DUP2 ADD SWAP1 PUSH3 0xAD2 SWAP2 SWAP1 PUSH3 0x17D2 JUMP JUMPDEST DUP2 PUSH20 0xFFFFFFFFFFFFFFFFFFFFFFFFFFFFFFFFFFFFFFFF AND PUSH4 0x7B9F1976 PUSH1 0x40 MLOAD DUP2 PUSH4 0xFFFFFFFF AND PUSH1 0xE0 SHL DUP2 MSTORE PUSH1 0x4 ADD PUSH1 0x20 PUSH1 0x40 MLOAD DUP1 DUP4 SUB DUP2 DUP7 GAS STATICCALL ISZERO DUP1 ISZERO PUSH3 0xB1E JUMPI RETURNDATASIZE PUSH1 0x0 DUP1 RETURNDATACOPY RETURNDATASIZE PUSH1 0x0 REVERT JUMPDEST POP POP POP POP PUSH1 0x40 MLOAD RETURNDATASIZE PUSH1 0x1F NOT PUSH1 0x1F DUP3 ADD AND DUP3 ADD DUP1 PUSH1 0x40 MSTORE POP DUP2 ADD SWAP1 PUSH3 0xB44 SWAP2 SWAP1 PUSH3 0x1BB9 JUMP JUMPDEST DUP3 PUSH20 0xFFFFFFFFFFFFFFFFFFFFFFFFFFFFFFFFFFFFFFFF AND PUSH4 0xC524E7F6 PUSH1 0x40 MLOAD DUP2 PUSH4 0xFFFFFFFF AND PUSH1 0xE0 SHL DUP2 MSTORE PUSH1 0x4 ADD PUSH1 0x0 PUSH1 0x40 MLOAD DUP1 DUP4 SUB DUP2 DUP7 GAS STATICCALL ISZERO DUP1 ISZERO PUSH3 0xB90 JUMPI RETURNDATASIZE PUSH1 0x0 DUP1 RETURNDATACOPY RETURNDATASIZE PUSH1 0x0 REVERT JUMPDEST POP POP POP POP PUSH1 0x40 MLOAD RETURNDATASIZE PUSH1 0x0 DUP3 RETURNDATACOPY RETURNDATASIZE PUSH1 0x1F NOT PUSH1 0x1F DUP3 ADD AND DUP3 ADD DUP1 PUSH1 0x40 MSTORE POP DUP2 ADD SWAP1 PUSH3 0xBBB SWAP2 SWAP1 PUSH3 0x17D2 JUMP JUMPDEST DUP4 PUSH20 0xFFFFFFFFFFFFFFFFFFFFFFFFFFFFFFFFFFFFFFFF AND PUSH4 0xFBEAA42F PUSH1 0x40 MLOAD DUP2 PUSH4 0xFFFFFFFF AND PUSH1 0xE0 SHL DUP2 MSTORE PUSH1 0x4 ADD PUSH1 0x0 PUSH1 0x40 MLOAD DUP1 DUP4 SUB DUP2 DUP7 GAS STATICCALL ISZERO DUP1 ISZERO PUSH3 0xC07 JUMPI RETURNDATASIZE PUSH1 0x0 DUP1 RETURNDATACOPY RETURNDATASIZE PUSH1 0x0 REVERT JUMPDEST POP POP POP POP PUSH1 0x40 MLOAD RETURNDATASIZE PUSH1 0x0 DUP3 RETURNDATACOPY RETURNDATASIZE PUSH1 0x1F NOT PUSH1 0x1F DUP3 ADD AND DUP3 ADD DUP1 PUSH1 0x40 MSTORE POP DUP2 ADD SWAP1 PUSH3 0xC32 SWAP2 SWAP1 PUSH3 0x17D2 JUMP JUMPDEST DUP5 PUSH20 0xFFFFFFFFFFFFFFFFFFFFFFFFFFFFFFFFFFFFFFFF AND PUSH4 0xE6CA2977 PUSH1 0x40 MLOAD DUP2 PUSH4 0xFFFFFFFF AND PUSH1 0xE0 SHL DUP2 MSTORE PUSH1 0x4 ADD PUSH1 0x0 PUSH1 0x40 MLOAD DUP1 DUP4 SUB DUP2 DUP7 GAS STATICCALL ISZERO DUP1 ISZERO PUSH3 0xC7E JUMPI RETURNDATASIZE PUSH1 0x0 DUP1 RETURNDATACOPY RETURNDATASIZE PUSH1 0x0 REVERT JUMPDEST POP POP POP POP PUSH1 0x40 MLOAD RETURNDATASIZE PUSH1 0x0 DUP3 RETURNDATACOPY RETURNDATASIZE PUSH1 0x1F NOT PUSH1 0x1F DUP3 ADD AND DUP3 ADD DUP1 PUSH1 0x40 MSTORE POP DUP2 ADD SWAP1 PUSH3 0xCA9 SWAP2 SWAP1 PUSH3 0x18E1 JUMP JUMPDEST DUP6 PUSH20 0xFFFFFFFFFFFFFFFFFFFFFFFFFFFFFFFFFFFFFFFF AND PUSH4 0x7D2CB98D PUSH1 0x40 MLOAD DUP2 PUSH4 0xFFFFFFFF AND PUSH1 0xE0 SHL DUP2 MSTORE PUSH1 0x4 ADD PUSH1 0x0 PUSH1 0x40 MLOAD DUP1 DUP4 SUB DUP2 DUP7 GAS STATICCALL ISZERO DUP1 ISZERO PUSH3 0xCF5 JUMPI RETURNDATASIZE PUSH1 0x0 DUP1 RETURNDATACOPY RETURNDATASIZE PUSH1 0x0 REVERT JUMPDEST POP POP POP POP PUSH1 0x40 MLOAD RETURNDATASIZE PUSH1 0x0 DUP3 RETURNDATACOPY RETURNDATASIZE PUSH1 0x1F NOT PUSH1 0x1F DUP3 ADD AND DUP3 ADD DUP1 PUSH1 0x40 MSTORE POP DUP2 ADD SWAP1 PUSH3 0xD20 SWAP2 SWAP1 PUSH3 0x18E1 JUMP JUMPDEST DUP7 PUSH20 0xFFFFFFFFFFFFFFFFFFFFFFFFFFFFFFFFFFFFFFFF AND PUSH4 0x28A3D83A PUSH1 0x40 MLOAD DUP2 PUSH4 0xFFFFFFFF AND PUSH1 0xE0 SHL DUP2 MSTORE PUSH1 0x4 ADD PUSH1 0x0 PUSH1 0x40 MLOAD DUP1 DUP4 SUB DUP2 DUP7 GAS STATICCALL ISZERO DUP1 ISZERO PUSH3 0xD6C JUMPI RETURNDATASIZE PUSH1 0x0 DUP1 RETURNDATACOPY RETURNDATASIZE PUSH1 0x0 REVERT JUMPDEST POP POP POP POP PUSH1 0x40 MLOAD RETURNDATASIZE PUSH1 0x0 DUP3 RETURNDATACOPY RETURNDATASIZE PUSH1 0x1F NOT PUSH1 0x1F DUP3 ADD AND DUP3 ADD DUP1 PUSH1 0x40 MSTORE POP DUP2 ADD SWAP1 PUSH3 0xD97 SWAP2 SWAP1 PUSH3 0x18E1 JUMP JUMPDEST SWAP8 POP SWAP8 POP SWAP8 POP SWAP8 POP SWAP8 POP SWAP8 POP SWAP8 POP POP SWAP2 SWAP4 SWAP6 SWAP8 SWAP1 SWAP3 SWAP5 SWAP7 POP JUMP JUMPDEST PUSH2 0x1FE6 DUP1 PUSH3 0x1BEC DUP4 CODECOPY ADD SWAP1 JUMP JUMPDEST PUSH2 0x1EBD DUP1 PUSH3 0x3BD2 DUP4 CODECOPY ADD SWAP1 JUMP JUMPDEST PUSH1 0x0 PUSH1 0x40 MLOAD SWAP1 POP SWAP1 JUMP JUMPDEST PUSH1 0x0 DUP1 REVERT JUMPDEST PUSH1 0x0 DUP1 REVERT JUMPDEST PUSH1 0x0 PUSH20 0xFFFFFFFFFFFFFFFFFFFFFFFFFFFFFFFFFFFFFFFF DUP3 AND SWAP1 POP SWAP2 SWAP1 POP JUMP JUMPDEST PUSH1 0x0 PUSH3 0xE0E DUP3 PUSH3 0xDE1 JUMP JUMPDEST SWAP1 POP SWAP2 SWAP1 POP JUMP JUMPDEST PUSH3 0xE20 DUP2 PUSH3 0xE01 JUMP JUMPDEST DUP2 EQ PUSH3 0xE2C JUMPI PUSH1 0x0 DUP1 REVERT JUMPDEST POP JUMP JUMPDEST PUSH1 0x0 DUP2 CALLDATALOAD SWAP1 POP PUSH3 0xE40 DUP2 PUSH3 0xE15 JUMP JUMPDEST SWAP3 SWAP2 POP POP JUMP JUMPDEST PUSH1 0x0 PUSH1 0x20 DUP3 DUP5 SUB SLT ISZERO PUSH3 0xE5F JUMPI PUSH3 0xE5E PUSH3 0xDD7 JUMP JUMPDEST JUMPDEST PUSH1 0x0 PUSH3 0xE6F DUP5 DUP3 DUP6 ADD PUSH3 0xE2F JUMP JUMPDEST SWAP2 POP POP SWAP3 SWAP2 POP POP JUMP JUMPDEST PUSH1 0x0 DUP2 MLOAD SWAP1 POP SWAP2 SWAP1 POP JUMP JUMPDEST PUSH1 0x0 DUP3 DUP3 MSTORE PUSH1 0x20 DUP3 ADD SWAP1 POP SWAP3 SWAP2 POP POP JUMP JUMPDEST PUSH1 0x0 JUMPDEST DUP4 DUP2 LT ISZERO PUSH3 0xEB4 JUMPI DUP1 DUP3 ADD MLOAD DUP2 DUP5 ADD MSTORE PUSH1 0x20 DUP2 ADD SWAP1 POP PUSH3 0xE97 JUMP JUMPDEST PUSH1 0x0 DUP5 DUP5 ADD MSTORE POP POP POP POP JUMP JUMPDEST PUSH1 0x0 PUSH1 0x1F NOT PUSH1 0x1F DUP4 ADD AND SWAP1 POP SWAP2 SWAP1 POP JUMP JUMPDEST PUSH1 0x0 PUSH3 0xEDE DUP3 PUSH3 0xE78 JUMP JUMPDEST PUSH3 0xEEA DUP2 DUP6 PUSH3 0xE83 JUMP JUMPDEST SWAP4 POP PUSH3 0xEFC DUP2 DUP6 PUSH1 0x20 DUP7 ADD PUSH3 0xE94 JUMP JUMPDEST PUSH3 0xF07 DUP2 PUSH3 0xEC0 JUMP JUMPDEST DUP5 ADD SWAP2 POP POP SWAP3 SWAP2 POP POP JUMP JUMPDEST PUSH1 0x0 DUP2 MLOAD SWAP1 POP SWAP2 SWAP1 POP JUMP JUMPDEST PUSH1 0x0 DUP3 DUP3 MSTORE PUSH1 0x20 DUP3 ADD SWAP1 POP SWAP3 SWAP2 POP POP JUMP JUMPDEST PUSH1 0x0 DUP2 SWAP1 POP PUSH1 0x20 DUP3 ADD SWAP1 POP SWAP2 SWAP1 POP JUMP JUMPDEST PUSH3 0xF49 DUP2 PUSH3 0xE01 JUMP JUMPDEST DUP3 MSTORE POP POP JUMP JUMPDEST PUSH1 0x0 PUSH3 0xF5D DUP4 DUP4 PUSH3 0xF3E JUMP JUMPDEST PUSH1 0x20 DUP4 ADD SWAP1 POP SWAP3 SWAP2 POP POP JUMP JUMPDEST PUSH1 0x0 PUSH1 0x20 DUP3 ADD SWAP1 POP SWAP2 SWAP1 POP JUMP JUMPDEST PUSH1 0x0 PUSH3 0xF83 DUP3 PUSH3 0xF12 JUMP JUMPDEST PUSH3 0xF8F DUP2 DUP6 PUSH3 0xF1D JUMP JUMPDEST SWAP4 POP PUSH3 0xF9C DUP4 PUSH3 0xF2E JUMP JUMPDEST DUP1 PUSH1 0x0 JUMPDEST DUP4 DUP2 LT ISZERO PUSH3 0xFD3 JUMPI DUP2 MLOAD PUSH3 0xFB7 DUP9 DUP3 PUSH3 0xF4F JUMP JUMPDEST SWAP8 POP PUSH3 0xFC4 DUP4 PUSH3 0xF69 JUMP JUMPDEST SWAP3 POP POP PUSH1 0x1 DUP2 ADD SWAP1 POP PUSH3 0xFA0 JUMP JUMPDEST POP DUP6 SWAP4 POP POP POP POP SWAP3 SWAP2 POP POP JUMP JUMPDEST PUSH1 0x0 PUSH1 0x80 DUP3 ADD SWAP1 POP DUP2 DUP2 SUB PUSH1 0x0 DUP4 ADD MSTORE PUSH3 0xFFC DUP2 DUP8 PUSH3 0xED1 JUMP JUMPDEST SWAP1 POP DUP2 DUP2 SUB PUSH1 0x20 DUP4 ADD MSTORE PUSH3 0x1012 DUP2 DUP7 PUSH3 0xF76 JUMP JUMPDEST SWAP1 POP DUP2 DUP2 SUB PUSH1 0x40 DUP4 ADD MSTORE PUSH3 0x1028 DUP2 DUP6 PUSH3 0xED1 JUMP JUMPDEST SWAP1 POP DUP2 DUP2 SUB PUSH1 0x60 DUP4 ADD MSTORE PUSH3 0x103E DUP2 DUP5 PUSH3 0xED1 JUMP JUMPDEST SWAP1 POP SWAP6 SWAP5 POP POP POP POP POP JUMP JUMPDEST PUSH1 0x0 DUP1 REVERT JUMPDEST PUSH1 0x0 DUP1 REVERT JUMPDEST PUSH32 0x4E487B7100000000000000000000000000000000000000000000000000000000 PUSH1 0x0 MSTORE PUSH1 0x41 PUSH1 0x4 MSTORE PUSH1 0x24 PUSH1 0x0 REVERT JUMPDEST PUSH3 0x108D DUP3 PUSH3 0xEC0 JUMP JUMPDEST DUP2 ADD DUP2 DUP2 LT PUSH8 0xFFFFFFFFFFFFFFFF DUP3 GT OR ISZERO PUSH3 0x10AF JUMPI PUSH3 0x10AE PUSH3 0x1053 JUMP JUMPDEST JUMPDEST DUP1 PUSH1 0x40 MSTORE POP POP POP JUMP JUMPDEST PUSH1 0x0 PUSH3 0x10C4 PUSH3 0xDCD JUMP JUMPDEST SWAP1 POP PUSH3 0x10D2 DUP3 DUP3 PUSH3 0x1082 JUMP JUMPDEST SWAP2 SWAP1 POP JUMP JUMPDEST PUSH1 0x0 PUSH8 0xFFFFFFFFFFFFFFFF DUP3 GT ISZERO PUSH3 0x10F5 JUMPI PUSH3 0x10F4 PUSH3 0x1053 JUMP JUMPDEST JUMPDEST PUSH3 0x1100 DUP3 PUSH3 0xEC0 JUMP JUMPDEST SWAP1 POP PUSH1 0x20 DUP2 ADD SWAP1 POP SWAP2 SWAP1 POP JUMP JUMPDEST DUP3 DUP2 DUP4 CALLDATACOPY PUSH1 0x0 DUP4 DUP4 ADD MSTORE POP POP POP JUMP JUMPDEST PUSH1 0x0 PUSH3 0x1133 PUSH3 0x112D DUP5 PUSH3 0x10D7 JUMP JUMPDEST PUSH3 0x10B8 JUMP JUMPDEST SWAP1 POP DUP3 DUP2 MSTORE PUSH1 0x20 DUP2 ADD DUP5 DUP5 DUP5 ADD GT ISZERO PUSH3 0x1152 JUMPI PUSH3 0x1151 PUSH3 0x104E JUMP JUMPDEST JUMPDEST PUSH3 0x115F DUP5 DUP3 DUP6 PUSH3 0x110D JUMP JUMPDEST POP SWAP4 SWAP3 POP POP POP JUMP JUMPDEST PUSH1 0x0 DUP3 PUSH1 0x1F DUP4 ADD SLT PUSH3 0x117F JUMPI PUSH3 0x117E PUSH3 0x1049 JUMP JUMPDEST JUMPDEST DUP2 CALLDATALOAD PUSH3 0x1191 DUP5 DUP3 PUSH1 0x20 DUP7 ADD PUSH3 0x111C JUMP JUMPDEST SWAP2 POP POP SWAP3 SWAP2 POP POP JUMP JUMPDEST PUSH1 0x0 PUSH8 0xFFFFFFFFFFFFFFFF DUP3 GT ISZERO PUSH3 0x11B8 JUMPI PUSH3 0x11B7 PUSH3 0x1053 JUMP JUMPDEST JUMPDEST PUSH1 0x20 DUP3 MUL SWAP1 POP PUSH1 0x20 DUP2 ADD SWAP1 POP SWAP2 SWAP1 POP JUMP JUMPDEST PUSH1 0x0 DUP1 REVERT JUMPDEST PUSH1 0x0 PUSH3 0x11E5 PUSH3 0x11DF DUP5 PUSH3 0x119A JUMP JUMPDEST PUSH3 0x10B8 JUMP JUMPDEST SWAP1 POP DUP1 DUP4 DUP3 MSTORE PUSH1 0x20 DUP3 ADD SWAP1 POP PUSH1 0x20 DUP5 MUL DUP4 ADD DUP6 DUP2 GT ISZERO PUSH3 0x120B JUMPI PUSH3 0x120A PUSH3 0x11C9 JUMP JUMPDEST JUMPDEST DUP4 JUMPDEST DUP2 DUP2 LT ISZERO PUSH3 0x1238 JUMPI DUP1 PUSH3 0x1223 DUP9 DUP3 PUSH3 0xE2F JUMP JUMPDEST DUP5 MSTORE PUSH1 0x20 DUP5 ADD SWAP4 POP POP PUSH1 0x20 DUP2 ADD SWAP1 POP PUSH3 0x120D JUMP JUMPDEST POP POP POP SWAP4 SWAP3 POP POP POP JUMP JUMPDEST PUSH1 0x0 DUP3 PUSH1 0x1F DUP4 ADD SLT PUSH3 0x125A JUMPI PUSH3 0x1259 PUSH3 0x1049 JUMP JUMPDEST JUMPDEST DUP2 CALLDATALOAD PUSH3 0x126C DUP5 DUP3 PUSH1 0x20 DUP7 ADD PUSH3 0x11CE JUMP JUMPDEST SWAP2 POP POP SWAP3 SWAP2 POP POP JUMP JUMPDEST PUSH1 0x0 DUP1 PUSH1 0x0 DUP1 PUSH1 0x80 DUP6 DUP8 SUB SLT ISZERO PUSH3 0x1292 JUMPI PUSH3 0x1291 PUSH3 0xDD7 JUMP JUMPDEST JUMPDEST PUSH1 0x0 DUP6 ADD CALLDATALOAD PUSH8 0xFFFFFFFFFFFFFFFF DUP2 GT ISZERO PUSH3 0x12B3 JUMPI PUSH3 0x12B2 PUSH3 0xDDC JUMP JUMPDEST JUMPDEST PUSH3 0x12C1 DUP8 DUP3 DUP9 ADD PUSH3 0x1167 JUMP JUMPDEST SWAP5 POP POP PUSH1 0x20 DUP6 ADD CALLDATALOAD PUSH8 0xFFFFFFFFFFFFFFFF DUP2 GT ISZERO PUSH3 0x12E5 JUMPI PUSH3 0x12E4 PUSH3 0xDDC JUMP JUMPDEST JUMPDEST PUSH3 0x12F3 DUP8 DUP3 DUP9 ADD PUSH3 0x1242 JUMP JUMPDEST SWAP4 POP POP PUSH1 0x40 DUP6 ADD CALLDATALOAD PUSH8 0xFFFFFFFFFFFFFFFF DUP2 GT ISZERO PUSH3 0x1317 JUMPI PUSH3 0x1316 PUSH3 0xDDC JUMP JUMPDEST JUMPDEST PUSH3 0x1325 DUP8 DUP3 DUP9 ADD PUSH3 0x1167 JUMP JUMPDEST SWAP3 POP POP PUSH1 0x60 DUP6 ADD CALLDATALOAD PUSH8 0xFFFFFFFFFFFFFFFF DUP2 GT ISZERO PUSH3 0x1349 JUMPI PUSH3 0x1348 PUSH3 0xDDC JUMP JUMPDEST JUMPDEST PUSH3 0x1357 DUP8 DUP3 DUP9 ADD PUSH3 0x1167 JUMP JUMPDEST SWAP2 POP POP SWAP3 SWAP6 SWAP2 SWAP5 POP SWAP3 POP JUMP JUMPDEST PUSH3 0x136E DUP2 PUSH3 0xE01 JUMP JUMPDEST DUP3 MSTORE POP POP JUMP JUMPDEST PUSH1 0x0 PUSH1 0x20 DUP3 ADD SWAP1 POP PUSH3 0x138B PUSH1 0x0 DUP4 ADD DUP5 PUSH3 0x1363 JUMP JUMPDEST SWAP3 SWAP2 POP POP JUMP JUMPDEST PUSH1 0x5 DUP2 LT PUSH3 0x139F JUMPI PUSH1 0x0 DUP1 REVERT JUMPDEST POP JUMP JUMPDEST PUSH1 0x0 DUP2 CALLDATALOAD SWAP1 POP PUSH3 0x13B3 DUP2 PUSH3 0x1391 JUMP JUMPDEST SWAP3 SWAP2 POP POP JUMP JUMPDEST PUSH1 0x0 DUP1 PUSH1 0x40 DUP4 DUP6 SUB SLT ISZERO PUSH3 0x13D3 JUMPI PUSH3 0x13D2 PUSH3 0xDD7 JUMP JUMPDEST JUMPDEST PUSH1 0x0 PUSH3 0x13E3 DUP6 DUP3 DUP7 ADD PUSH3 0xE2F JUMP JUMPDEST SWAP3 POP POP PUSH1 0x20 PUSH3 0x13F6 DUP6 DUP3 DUP7 ADD PUSH3 0x13A2 JUMP JUMPDEST SWAP2 POP POP SWAP3 POP SWAP3 SWAP1 POP JUMP JUMPDEST PUSH1 0x0 DUP2 SWAP1 POP SWAP2 SWAP1 POP JUMP JUMPDEST PUSH1 0x0 PUSH3 0x142B PUSH3 0x1425 PUSH3 0x141F DUP5 PUSH3 0xDE1 JUMP JUMPDEST PUSH3 0x1400 JUMP JUMPDEST PUSH3 0xDE1 JUMP JUMPDEST SWAP1 POP SWAP2 SWAP1 POP JUMP JUMPDEST PUSH1 0x0 PUSH3 0x143F DUP3 PUSH3 0x140A JUMP JUMPDEST SWAP1 POP SWAP2 SWAP1 POP JUMP JUMPDEST PUSH1 0x0 PUSH3 0x1453 DUP3 PUSH3 0x1432 JUMP JUMPDEST SWAP1 POP SWAP2 SWAP1 POP JUMP JUMPDEST PUSH3 0x1465 DUP2 PUSH3 0x1446 JUMP JUMPDEST DUP3 MSTORE POP POP JUMP JUMPDEST PUSH1 0x0 PUSH1 0x20 DUP3 ADD SWAP1 POP PUSH3 0x1482 PUSH1 0x0 DUP4 ADD DUP5 PUSH3 0x145A JUMP JUMPDEST SWAP3 SWAP2 POP POP JUMP JUMPDEST PUSH1 0x0 DUP2 SWAP1 POP SWAP2 SWAP1 POP JUMP JUMPDEST PUSH3 0x149D DUP2 PUSH3 0x1488 JUMP JUMPDEST DUP2 EQ PUSH3 0x14A9 JUMPI PUSH1 0x0 DUP1 REVERT JUMPDEST POP JUMP JUMPDEST PUSH1 0x0 DUP2 CALLDATALOAD SWAP1 POP PUSH3 0x14BD DUP2 PUSH3 0x1492 JUMP JUMPDEST SWAP3 SWAP2 POP POP JUMP JUMPDEST PUSH1 0x0 DUP1 REVERT JUMPDEST PUSH1 0x0 DUP1 DUP4 PUSH1 0x1F DUP5 ADD SLT PUSH3 0x14E1 JUMPI PUSH3 0x14E0 PUSH3 0x1049 JUMP JUMPDEST JUMPDEST DUP3 CALLDATALOAD SWAP1 POP PUSH8 0xFFFFFFFFFFFFFFFF DUP2 GT ISZERO PUSH3 0x1501 JUMPI PUSH3 0x1500 PUSH3 0x14C3 JUMP JUMPDEST JUMPDEST PUSH1 0x20 DUP4 ADD SWAP2 POP DUP4 PUSH1 0x1 DUP3 MUL DUP4 ADD GT ISZERO PUSH3 0x1520 JUMPI PUSH3 0x151F PUSH3 0x11C9 JUMP JUMPDEST JUMPDEST SWAP3 POP SWAP3 SWAP1 POP JUMP JUMPDEST PUSH1 0x0 DUP1 PUSH1 0x0 DUP1 PUSH1 0x0 DUP1 PUSH1 0x0 DUP1 PUSH1 0x0 PUSH1 0xE0 DUP11 DUP13 SUB SLT ISZERO PUSH3 0x154C JUMPI PUSH3 0x154B PUSH3 0xDD7 JUMP JUMPDEST JUMPDEST PUSH1 0x0 DUP11 ADD CALLDATALOAD PUSH8 0xFFFFFFFFFFFFFFFF DUP2 GT ISZERO PUSH3 0x156D JUMPI PUSH3 0x156C PUSH3 0xDDC JUMP JUMPDEST JUMPDEST PUSH3 0x157B DUP13 DUP3 DUP14 ADD PUSH3 0x1167 JUMP JUMPDEST SWAP10 POP POP PUSH1 0x20 PUSH3 0x158E DUP13 DUP3 DUP14 ADD PUSH3 0x14AC JUMP JUMPDEST SWAP9 POP POP PUSH1 0x40 DUP11 ADD CALLDATALOAD PUSH8 0xFFFFFFFFFFFFFFFF DUP2 GT ISZERO PUSH3 0x15B2 JUMPI PUSH3 0x15B1 PUSH3 0xDDC JUMP JUMPDEST JUMPDEST PUSH3 0x15C0 DUP13 DUP3 DUP14 ADD PUSH3 0x1242 JUMP JUMPDEST SWAP8 POP POP PUSH1 0x60 DUP11 ADD CALLDATALOAD PUSH8 0xFFFFFFFFFFFFFFFF DUP2 GT ISZERO PUSH3 0x15E4 JUMPI PUSH3 0x15E3 PUSH3 0xDDC JUMP JUMPDEST JUMPDEST PUSH3 0x15F2 DUP13 DUP3 DUP14 ADD PUSH3 0x1242 JUMP JUMPDEST SWAP7 POP POP PUSH1 0x80 DUP11 ADD CALLDATALOAD PUSH8 0xFFFFFFFFFFFFFFFF DUP2 GT ISZERO PUSH3 0x1616 JUMPI PUSH3 0x1615 PUSH3 0xDDC JUMP JUMPDEST JUMPDEST PUSH3 0x1624 DUP13 DUP3 DUP14 ADD PUSH3 0x1242 JUMP JUMPDEST SWAP6 POP POP PUSH1 0xA0 DUP11 ADD CALLDATALOAD PUSH8 0xFFFFFFFFFFFFFFFF DUP2 GT ISZERO PUSH3 0x1648 JUMPI PUSH3 0x1647 PUSH3 0xDDC JUMP JUMPDEST JUMPDEST PUSH3 0x1656 DUP13 DUP3 DUP14 ADD PUSH3 0x14C8 JUMP JUMPDEST SWAP5 POP SWAP5 POP POP PUSH1 0xC0 DUP11 ADD CALLDATALOAD PUSH8 0xFFFFFFFFFFFFFFFF DUP2 GT ISZERO PUSH3 0x167C JUMPI PUSH3 0x167B PUSH3 0xDDC JUMP JUMPDEST JUMPDEST PUSH3 0x168A DUP13 DUP3 DUP14 ADD PUSH3 0x14C8 JUMP JUMPDEST SWAP3 POP SWAP3 POP POP SWAP3 SWAP6 SWAP9 POP SWAP3 SWAP6 SWAP9 POP SWAP3 SWAP6 SWAP9 JUMP JUMPDEST PUSH3 0x16A7 DUP2 PUSH3 0x1488 JUMP JUMPDEST DUP3 MSTORE POP POP JUMP JUMPDEST PUSH1 0x0 PUSH1 0xE0 DUP3 ADD SWAP1 POP DUP2 DUP2 SUB PUSH1 0x0 DUP4 ADD MSTORE PUSH3 0x16C9 DUP2 DUP11 PUSH3 0xED1 JUMP JUMPDEST SWAP1 POP PUSH3 0x16DA PUSH1 0x20 DUP4 ADD DUP10 PUSH3 0x169C JUMP JUMPDEST DUP2 DUP2 SUB PUSH1 0x40 DUP4 ADD MSTORE PUSH3 0x16EE DUP2 DUP9 PUSH3 0xED1 JUMP JUMPDEST SWAP1 POP DUP2 DUP2 SUB PUSH1 0x60 DUP4 ADD MSTORE PUSH3 0x1704 DUP2 DUP8 PUSH3 0xED1 JUMP JUMPDEST SWAP1 POP DUP2 DUP2 SUB PUSH1 0x80 DUP4 ADD MSTORE PUSH3 0x171A DUP2 DUP7 PUSH3 0xF76 JUMP JUMPDEST SWAP1 POP DUP2 DUP2 SUB PUSH1 0xA0 DUP4 ADD MSTORE PUSH3 0x1730 DUP2 DUP6 PUSH3 0xF76 JUMP JUMPDEST SWAP1 POP DUP2 DUP2 SUB PUSH1 0xC0 DUP4 ADD MSTORE PUSH3 0x1746 DUP2 DUP5 PUSH3 0xF76 JUMP JUMPDEST SWAP1 POP SWAP9 SWAP8 POP POP POP POP POP POP POP POP JUMP JUMPDEST PUSH1 0x0 PUSH3 0x176B PUSH3 0x1765 DUP5 PUSH3 0x10D7 JUMP JUMPDEST PUSH3 0x10B8 JUMP JUMPDEST SWAP1 POP DUP3 DUP2 MSTORE PUSH1 0x20 DUP2 ADD DUP5 DUP5 DUP5 ADD GT ISZERO PUSH3 0x178A JUMPI PUSH3 0x1789 PUSH3 0x104E JUMP JUMPDEST JUMPDEST PUSH3 0x1797 DUP5 DUP3 DUP6 PUSH3 0xE94 JUMP JUMPDEST POP SWAP4 SWAP3 POP POP POP JUMP JUMPDEST PUSH1 0x0 DUP3 PUSH1 0x1F DUP4 ADD SLT PUSH3 0x17B7 JUMPI PUSH3 0x17B6 PUSH3 0x1049 JUMP JUMPDEST JUMPDEST DUP2 MLOAD PUSH3 0x17C9 DUP5 DUP3 PUSH1 0x20 DUP7 ADD PUSH3 0x1754 JUMP JUMPDEST SWAP2 POP POP SWAP3 SWAP2 POP POP JUMP JUMPDEST PUSH1 0x0 PUSH1 0x20 DUP3 DUP5 SUB SLT ISZERO PUSH3 0x17EB JUMPI PUSH3 0x17EA PUSH3 0xDD7 JUMP JUMPDEST JUMPDEST PUSH1 0x0 DUP3 ADD MLOAD PUSH8 0xFFFFFFFFFFFFFFFF DUP2 GT ISZERO PUSH3 0x180C JUMPI PUSH3 0x180B PUSH3 0xDDC JUMP JUMPDEST JUMPDEST PUSH3 0x181A DUP5 DUP3 DUP6 ADD PUSH3 0x179F JUMP JUMPDEST SWAP2 POP POP SWAP3 SWAP2 POP POP JUMP JUMPDEST PUSH1 0x0 DUP2 MLOAD SWAP1 POP PUSH3 0x1834 DUP2 PUSH3 0xE15 JUMP JUMPDEST SWAP3 SWAP2 POP POP JUMP JUMPDEST PUSH1 0x0 PUSH3 0x1851 PUSH3 0x184B DUP5 PUSH3 0x119A JUMP JUMPDEST PUSH3 0x10B8 JUMP JUMPDEST SWAP1 POP DUP1 DUP4 DUP3 MSTORE PUSH1 0x20 DUP3 ADD SWAP1 POP PUSH1 0x20 DUP5 MUL DUP4 ADD DUP6 DUP2 GT ISZERO PUSH3 0x1877 JUMPI PUSH3 0x1876 PUSH3 0x11C9 JUMP JUMPDEST JUMPDEST DUP4 JUMPDEST DUP2 DUP2 LT ISZERO PUSH3 0x18A4 JUMPI DUP1 PUSH3 0x188F DUP9 DUP3 PUSH3 0x1823 JUMP JUMPDEST DUP5 MSTORE PUSH1 0x20 DUP5 ADD SWAP4 POP POP PUSH1 0x20 DUP2 ADD SWAP1 POP PUSH3 0x1879 JUMP JUMPDEST POP POP POP SWAP4 SWAP3 POP POP POP JUMP JUMPDEST PUSH1 0x0 DUP3 PUSH1 0x1F DUP4 ADD SLT PUSH3 0x18C6 JUMPI PUSH3 0x18C5 PUSH3 0x1049 JUMP JUMPDEST JUMPDEST DUP2 MLOAD PUSH3 0x18D8 DUP5 DUP3 PUSH1 0x20 DUP7 ADD PUSH3 0x183A JUMP JUMPDEST SWAP2 POP POP SWAP3 SWAP2 POP POP JUMP JUMPDEST PUSH1 0x0 PUSH1 0x20 DUP3 DUP5 SUB SLT ISZERO PUSH3 0x18FA JUMPI PUSH3 0x18F9 PUSH3 0xDD7 JUMP JUMPDEST JUMPDEST PUSH1 0x0 DUP3 ADD MLOAD PUSH8 0xFFFFFFFFFFFFFFFF DUP2 GT ISZERO PUSH3 0x191B JUMPI PUSH3 0x191A PUSH3 0xDDC JUMP JUMPDEST JUMPDEST PUSH3 0x1929 DUP5 DUP3 DUP6 ADD PUSH3 0x18AE JUMP JUMPDEST SWAP2 POP POP SWAP3 SWAP2 POP POP JUMP JUMPDEST PUSH1 0x0 PUSH1 0x60 DUP3 ADD SWAP1 POP DUP2 DUP2 SUB PUSH1 0x0 DUP4 ADD MSTORE PUSH3 0x194E DUP2 DUP7 PUSH3 0xED1 JUMP JUMPDEST SWAP1 POP DUP2 DUP2 SUB PUSH1 0x20 DUP4 ADD MSTORE PUSH3 0x1964 DUP2 DUP6 PUSH3 0xED1 JUMP JUMPDEST SWAP1 POP PUSH3 0x1975 PUSH1 0x40 DUP4 ADD DUP5 PUSH3 0x1363 JUMP JUMPDEST SWAP5 SWAP4 POP POP POP POP JUMP JUMPDEST PUSH32 0x4E487B7100000000000000000000000000000000000000000000000000000000 PUSH1 0x0 MSTORE PUSH1 0x32 PUSH1 0x4 MSTORE PUSH1 0x24 PUSH1 0x0 REVERT JUMPDEST PUSH32 0x4E487B7100000000000000000000000000000000000000000000000000000000 PUSH1 0x0 MSTORE PUSH1 0x21 PUSH1 0x4 MSTORE PUSH1 0x24 PUSH1 0x0 REVERT JUMPDEST PUSH1 0x5 DUP2 LT PUSH3 0x19EF JUMPI PUSH3 0x19EE PUSH3 0x19AC JUMP JUMPDEST JUMPDEST POP JUMP JUMPDEST PUSH1 0x0 DUP2 SWAP1 POP PUSH3 0x1A02 DUP3 PUSH3 0x19DB JUMP JUMPDEST SWAP2 SWAP1 POP JUMP JUMPDEST PUSH1 0x0 PUSH3 0x1A14 DUP3 PUSH3 0x19F2 JUMP JUMPDEST SWAP1 POP SWAP2 SWAP1 POP JUMP JUMPDEST PUSH3 0x1A26 DUP2 PUSH3 0x1A07 JUMP JUMPDEST DUP3 MSTORE POP POP JUMP JUMPDEST PUSH1 0x0 PUSH1 0x40 DUP3 ADD SWAP1 POP PUSH3 0x1A43 PUSH1 0x0 DUP4 ADD DUP6 PUSH3 0x1363 JUMP JUMPDEST PUSH3 0x1A52 PUSH1 0x20 DUP4 ADD DUP5 PUSH3 0x1A1B JUMP JUMPDEST SWAP4 SWAP3 POP POP POP JUMP JUMPDEST PUSH32 0x4E487B7100000000000000000000000000000000000000000000000000000000 PUSH1 0x0 MSTORE PUSH1 0x11 PUSH1 0x4 MSTORE PUSH1 0x24 PUSH1 0x0 REVERT JUMPDEST PUSH1 0x0 PUSH3 0x1A95 DUP3 PUSH3 0x1488 JUMP JUMPDEST SWAP2 POP PUSH32 0xFFFFFFFFFFFFFFFFFFFFFFFFFFFFFFFFFFFFFFFFFFFFFFFFFFFFFFFFFFFFFFFF DUP3 SUB PUSH3 0x1ACA JUMPI PUSH3 0x1AC9 PUSH3 0x1A59 JUMP JUMPDEST JUMPDEST PUSH1 0x1 DUP3 ADD SWAP1 POP SWAP2 SWAP1 POP JUMP JUMPDEST PUSH1 0x0 PUSH1 0x20 DUP3 ADD SWAP1 POP DUP2 DUP2 SUB PUSH1 0x0 DUP4 ADD MSTORE PUSH3 0x1AF1 DUP2 DUP5 PUSH3 0xED1 JUMP JUMPDEST SWAP1 POP SWAP3 SWAP2 POP POP JUMP JUMPDEST PUSH1 0x0 PUSH3 0x1B07 DUP4 DUP6 PUSH3 0xE83 JUMP JUMPDEST SWAP4 POP PUSH3 0x1B16 DUP4 DUP6 DUP5 PUSH3 0x110D JUMP JUMPDEST PUSH3 0x1B21 DUP4 PUSH3 0xEC0 JUMP JUMPDEST DUP5 ADD SWAP1 POP SWAP4 SWAP3 POP POP POP JUMP JUMPDEST PUSH1 0x0 PUSH1 0xA0 DUP3 ADD SWAP1 POP DUP2 DUP2 SUB PUSH1 0x0 DUP4 ADD MSTORE PUSH3 0x1B48 DUP2 DUP11 PUSH3 0xED1 JUMP JUMPDEST SWAP1 POP PUSH3 0x1B59 PUSH1 0x20 DUP4 ADD DUP10 PUSH3 0x169C JUMP JUMPDEST DUP2 DUP2 SUB PUSH1 0x40 DUP4 ADD MSTORE PUSH3 0x1B6E DUP2 DUP8 DUP10 PUSH3 0x1AF9 JUMP JUMPDEST SWAP1 POP DUP2 DUP2 SUB PUSH1 0x60 DUP4 ADD MSTORE PUSH3 0x1B85 DUP2 DUP6 DUP8 PUSH3 0x1AF9 JUMP JUMPDEST SWAP1 POP PUSH3 0x1B96 PUSH1 0x80 DUP4 ADD DUP5 PUSH3 0x1363 JUMP JUMPDEST SWAP9 SWAP8 POP POP POP POP POP POP POP POP JUMP JUMPDEST PUSH1 0x0 DUP2 MLOAD SWAP1 POP PUSH3 0x1BB3 DUP2 PUSH3 0x1492 JUMP JUMPDEST SWAP3 SWAP2 POP POP JUMP JUMPDEST PUSH1 0x0 PUSH1 0x20 DUP3 DUP5 SUB SLT ISZERO PUSH3 0x1BD2 JUMPI PUSH3 0x1BD1 PUSH3 0xDD7 JUMP JUMPDEST JUMPDEST PUSH1 0x0 PUSH3 0x1BE2 DUP5 DUP3 DUP6 ADD PUSH3 0x1BA2 JUMP JUMPDEST SWAP2 POP POP SWAP3 SWAP2 POP POP JUMP INVALID PUSH1 0x80 PUSH1 0x40 MSTORE CALLVALUE DUP1 ISZERO PUSH3 0x11 JUMPI PUSH1 0x0 DUP1 REVERT JUMPDEST POP PUSH1 0x40 MLOAD PUSH3 0x1FE6 CODESIZE SUB DUP1 PUSH3 0x1FE6 DUP4 CODECOPY DUP2 DUP2 ADD PUSH1 0x40 MSTORE DUP2 ADD SWAP1 PUSH3 0x37 SWAP2 SWAP1 PUSH3 0x2F8 JUMP JUMPDEST CALLER PUSH1 0x0 DUP1 PUSH2 0x100 EXP DUP2 SLOAD DUP2 PUSH20 0xFFFFFFFFFFFFFFFFFFFFFFFFFFFFFFFFFFFFFFFF MUL NOT AND SWAP1 DUP4 PUSH20 0xFFFFFFFFFFFFFFFFFFFFFFFFFFFFFFFFFFFFFFFF AND MUL OR SWAP1 SSTORE POP DUP1 PUSH1 0x1 PUSH1 0x0 PUSH2 0x100 EXP DUP2 SLOAD DUP2 PUSH20 0xFFFFFFFFFFFFFFFFFFFFFFFFFFFFFFFFFFFFFFFF MUL NOT AND SWAP1 DUP4 PUSH20 0xFFFFFFFFFFFFFFFFFFFFFFFFFFFFFFFFFFFFFFFF AND MUL OR SWAP1 SSTORE POP DUP3 PUSH1 0x5 SWAP1 DUP2 PUSH3 0xC9 SWAP2 SWAP1 PUSH3 0x5DD JUMP JUMPDEST POP DUP2 PUSH1 0x7 SWAP1 DUP2 PUSH3 0xDB SWAP2 SWAP1 PUSH3 0x5DD JUMP JUMPDEST POP PUSH1 0x1 PUSH1 0x4 PUSH1 0x0 PUSH2 0x100 EXP DUP2 SLOAD DUP2 PUSH1 0xFF MUL NOT AND SWAP1 DUP4 ISZERO ISZERO MUL OR SWAP1 SSTORE POP POP POP POP PUSH3 0x6C4 JUMP JUMPDEST PUSH1 0x0 PUSH1 0x40 MLOAD SWAP1 POP SWAP1 JUMP JUMPDEST PUSH1 0x0 DUP1 REVERT JUMPDEST PUSH1 0x0 DUP1 REVERT JUMPDEST PUSH1 0x0 DUP1 REVERT JUMPDEST PUSH1 0x0 DUP1 REVERT JUMPDEST PUSH1 0x0 PUSH1 0x1F NOT PUSH1 0x1F DUP4 ADD AND SWAP1 POP SWAP2 SWAP1 POP JUMP JUMPDEST PUSH32 0x4E487B7100000000000000000000000000000000000000000000000000000000 PUSH1 0x0 MSTORE PUSH1 0x41 PUSH1 0x4 MSTORE PUSH1 0x24 PUSH1 0x0 REVERT JUMPDEST PUSH3 0x169 DUP3 PUSH3 0x11E JUMP JUMPDEST DUP2 ADD DUP2 DUP2 LT PUSH8 0xFFFFFFFFFFFFFFFF DUP3 GT OR ISZERO PUSH3 0x18B JUMPI PUSH3 0x18A PUSH3 0x12F JUMP JUMPDEST JUMPDEST DUP1 PUSH1 0x40 MSTORE POP POP POP JUMP JUMPDEST PUSH1 0x0 PUSH3 0x1A0 PUSH3 0x100 JUMP JUMPDEST SWAP1 POP PUSH3 0x1AE DUP3 DUP3 PUSH3 0x15E JUMP JUMPDEST SWAP2 SWAP1 POP JUMP JUMPDEST PUSH1 0x0 PUSH8 0xFFFFFFFFFFFFFFFF DUP3 GT ISZERO PUSH3 0x1D1 JUMPI PUSH3 0x1D0 PUSH3 0x12F JUMP JUMPDEST JUMPDEST PUSH3 0x1DC DUP3 PUSH3 0x11E JUMP JUMPDEST SWAP1 POP PUSH1 0x20 DUP2 ADD SWAP1 POP SWAP2 SWAP1 POP JUMP JUMPDEST PUSH1 0x0 JUMPDEST DUP4 DUP2 LT ISZERO PUSH3 0x209 JUMPI DUP1 DUP3 ADD MLOAD DUP2 DUP5 ADD MSTORE PUSH1 0x20 DUP2 ADD SWAP1 POP PUSH3 0x1EC JUMP JUMPDEST PUSH1 0x0 DUP5 DUP5 ADD MSTORE POP POP POP POP JUMP JUMPDEST PUSH1 0x0 PUSH3 0x22C PUSH3 0x226 DUP5 PUSH3 0x1B3 JUMP JUMPDEST PUSH3 0x194 JUMP JUMPDEST SWAP1 POP DUP3 DUP2 MSTORE PUSH1 0x20 DUP2 ADD DUP5 DUP5 DUP5 ADD GT ISZERO PUSH3 0x24B JUMPI PUSH3 0x24A PUSH3 0x119 JUMP JUMPDEST JUMPDEST PUSH3 0x258 DUP5 DUP3 DUP6 PUSH3 0x1E9 JUMP JUMPDEST POP SWAP4 SWAP3 POP POP POP JUMP JUMPDEST PUSH1 0x0 DUP3 PUSH1 0x1F DUP4 ADD SLT PUSH3 0x278 JUMPI PUSH3 0x277 PUSH3 0x114 JUMP JUMPDEST JUMPDEST DUP2 MLOAD PUSH3 0x28A DUP5 DUP3 PUSH1 0x20 DUP7 ADD PUSH3 0x215 JUMP JUMPDEST SWAP2 POP POP SWAP3 SWAP2 POP POP JUMP JUMPDEST PUSH1 0x0 PUSH20 0xFFFFFFFFFFFFFFFFFFFFFFFFFFFFFFFFFFFFFFFF DUP3 AND SWAP1 POP SWAP2 SWAP1 POP JUMP JUMPDEST PUSH1 0x0 PUSH3 0x2C0 DUP3 PUSH3 0x293 JUMP JUMPDEST SWAP1 POP SWAP2 SWAP1 POP JUMP JUMPDEST PUSH3 0x2D2 DUP2 PUSH3 0x2B3 JUMP JUMPDEST DUP2 EQ PUSH3 0x2DE JUMPI PUSH1 0x0 DUP1 REVERT JUMPDEST POP JUMP JUMPDEST PUSH1 0x0 DUP2 MLOAD SWAP1 POP PUSH3 0x2F2 DUP2 PUSH3 0x2C7 JUMP JUMPDEST SWAP3 SWAP2 POP POP JUMP JUMPDEST PUSH1 0x0 DUP1 PUSH1 0x0 PUSH1 0x60 DUP5 DUP7 SUB SLT ISZERO PUSH3 0x314 JUMPI PUSH3 0x313 PUSH3 0x10A JUMP JUMPDEST JUMPDEST PUSH1 0x0 DUP5 ADD MLOAD PUSH8 0xFFFFFFFFFFFFFFFF DUP2 GT ISZERO PUSH3 0x335 JUMPI PUSH3 0x334 PUSH3 0x10F JUMP JUMPDEST JUMPDEST PUSH3 0x343 DUP7 DUP3 DUP8 ADD PUSH3 0x260 JUMP JUMPDEST SWAP4 POP POP PUSH1 0x20 DUP5 ADD MLOAD PUSH8 0xFFFFFFFFFFFFFFFF DUP2 GT ISZERO PUSH3 0x367 JUMPI PUSH3 0x366 PUSH3 0x10F JUMP JUMPDEST JUMPDEST PUSH3 0x375 DUP7 DUP3 DUP8 ADD PUSH3 0x260 JUMP JUMPDEST SWAP3 POP POP PUSH1 0x40 PUSH3 0x388 DUP7 DUP3 DUP8 ADD PUSH3 0x2E1 JUMP JUMPDEST SWAP2 POP POP SWAP3 POP SWAP3 POP SWAP3 JUMP JUMPDEST PUSH1 0x0 DUP2 MLOAD SWAP1 POP SWAP2 SWAP1 POP JUMP JUMPDEST PUSH32 0x4E487B7100000000000000000000000000000000000000000000000000000000 PUSH1 0x0 MSTORE PUSH1 0x22 PUSH1 0x4 MSTORE PUSH1 0x24 PUSH1 0x0 REVERT JUMPDEST PUSH1 0x0 PUSH1 0x2 DUP3 DIV SWAP1 POP PUSH1 0x1 DUP3 AND DUP1 PUSH3 0x3E5 JUMPI PUSH1 0x7F DUP3 AND SWAP2 POP JUMPDEST PUSH1 0x20 DUP3 LT DUP2 SUB PUSH3 0x3FB JUMPI PUSH3 0x3FA PUSH3 0x39D JUMP JUMPDEST JUMPDEST POP SWAP2 SWAP1 POP JUMP JUMPDEST PUSH1 0x0 DUP2 SWAP1 POP DUP2 PUSH1 0x0 MSTORE PUSH1 0x20 PUSH1 0x0 KECCAK256 SWAP1 POP SWAP2 SWAP1 POP JUMP JUMPDEST PUSH1 0x0 PUSH1 0x20 PUSH1 0x1F DUP4 ADD DIV SWAP1 POP SWAP2 SWAP1 POP JUMP JUMPDEST PUSH1 0x0 DUP3 DUP3 SHL SWAP1 POP SWAP3 SWAP2 POP POP JUMP JUMPDEST PUSH1 0x0 PUSH1 0x8 DUP4 MUL PUSH3 0x465 PUSH32 0xFFFFFFFFFFFFFFFFFFFFFFFFFFFFFFFFFFFFFFFFFFFFFFFFFFFFFFFFFFFFFFFF DUP3 PUSH3 0x426 JUMP JUMPDEST PUSH3 0x471 DUP7 DUP4 PUSH3 0x426 JUMP JUMPDEST SWAP6 POP DUP1 NOT DUP5 AND SWAP4 POP DUP1 DUP7 AND DUP5 OR SWAP3 POP POP POP SWAP4 SWAP3 POP POP POP JUMP JUMPDEST PUSH1 0x0 DUP2 SWAP1 POP SWAP2 SWAP1 POP JUMP JUMPDEST PUSH1 0x0 DUP2 SWAP1 POP SWAP2 SWAP1 POP JUMP JUMPDEST PUSH1 0x0 PUSH3 0x4BE PUSH3 0x4B8 PUSH3 0x4B2 DUP5 PUSH3 0x489 JUMP JUMPDEST PUSH3 0x493 JUMP JUMPDEST PUSH3 0x489 JUMP JUMPDEST SWAP1 POP SWAP2 SWAP1 POP JUMP JUMPDEST PUSH1 0x0 DUP2 SWAP1 POP SWAP2 SWAP1 POP JUMP JUMPDEST PUSH3 0x4DA DUP4 PUSH3 0x49D JUMP JUMPDEST PUSH3 0x4F2 PUSH3 0x4E9 DUP3 PUSH3 0x4C5 JUMP JUMPDEST DUP5 DUP5 SLOAD PUSH3 0x433 JUMP JUMPDEST DUP3 SSTORE POP POP POP POP JUMP JUMPDEST PUSH1 0x0 SWAP1 JUMP JUMPDEST PUSH3 0x509 PUSH3 0x4FA JUMP JUMPDEST PUSH3 0x516 DUP2 DUP5 DUP5 PUSH3 0x4CF JUMP JUMPDEST POP POP POP JUMP JUMPDEST JUMPDEST DUP2 DUP2 LT ISZERO PUSH3 0x53E JUMPI PUSH3 0x532 PUSH1 0x0 DUP3 PUSH3 0x4FF JUMP JUMPDEST PUSH1 0x1 DUP2 ADD SWAP1 POP PUSH3 0x51C JUMP JUMPDEST POP POP JUMP JUMPDEST PUSH1 0x1F DUP3 GT ISZERO PUSH3 0x58D JUMPI PUSH3 0x557 DUP2 PUSH3 0x401 JUMP JUMPDEST PUSH3 0x562 DUP5 PUSH3 0x416 JUMP JUMPDEST DUP2 ADD PUSH1 0x20 DUP6 LT ISZERO PUSH3 0x572 JUMPI DUP2 SWAP1 POP JUMPDEST PUSH3 0x58A PUSH3 0x581 DUP6 PUSH3 0x416 JUMP JUMPDEST DUP4 ADD DUP3 PUSH3 0x51B JUMP JUMPDEST POP POP JUMPDEST POP POP POP JUMP JUMPDEST PUSH1 0x0 DUP3 DUP3 SHR SWAP1 POP SWAP3 SWAP2 POP POP JUMP JUMPDEST PUSH1 0x0 PUSH3 0x5B2 PUSH1 0x0 NOT DUP5 PUSH1 0x8 MUL PUSH3 0x592 JUMP JUMPDEST NOT DUP1 DUP4 AND SWAP2 POP POP SWAP3 SWAP2 POP POP JUMP JUMPDEST PUSH1 0x0 PUSH3 0x5CD DUP4 DUP4 PUSH3 0x59F JUMP JUMPDEST SWAP2 POP DUP3 PUSH1 0x2 MUL DUP3 OR SWAP1 POP SWAP3 SWAP2 POP POP JUMP JUMPDEST PUSH3 0x5E8 DUP3 PUSH3 0x392 JUMP JUMPDEST PUSH8 0xFFFFFFFFFFFFFFFF DUP2 GT ISZERO PUSH3 0x604 JUMPI PUSH3 0x603 PUSH3 0x12F JUMP JUMPDEST JUMPDEST PUSH3 0x610 DUP3 SLOAD PUSH3 0x3CC JUMP JUMPDEST PUSH3 0x61D DUP3 DUP3 DUP6 PUSH3 0x542 JUMP JUMPDEST PUSH1 0x0 PUSH1 0x20 SWAP1 POP PUSH1 0x1F DUP4 GT PUSH1 0x1 DUP2 EQ PUSH3 0x655 JUMPI PUSH1 0x0 DUP5 ISZERO PUSH3 0x640 JUMPI DUP3 DUP8 ADD MLOAD SWAP1 POP JUMPDEST PUSH3 0x64C DUP6 DUP3 PUSH3 0x5BF JUMP JUMPDEST DUP7 SSTORE POP PUSH3 0x6BC JUMP JUMPDEST PUSH1 0x1F NOT DUP5 AND PUSH3 0x665 DUP7 PUSH3 0x401 JUMP JUMPDEST PUSH1 0x0 JUMPDEST DUP3 DUP2 LT ISZERO PUSH3 0x68F JUMPI DUP5 DUP10 ADD MLOAD DUP3 SSTORE PUSH1 0x1 DUP3 ADD SWAP2 POP PUSH1 0x20 DUP6 ADD SWAP5 POP PUSH1 0x20 DUP2 ADD SWAP1 POP PUSH3 0x668 JUMP JUMPDEST DUP7 DUP4 LT ISZERO PUSH3 0x6AF JUMPI DUP5 DUP10 ADD MLOAD PUSH3 0x6AB PUSH1 0x1F DUP10 AND DUP3 PUSH3 0x59F JUMP JUMPDEST DUP4 SSTORE POP JUMPDEST PUSH1 0x1 PUSH1 0x2 DUP9 MUL ADD DUP9 SSTORE POP POP POP JUMPDEST POP POP POP POP POP POP JUMP JUMPDEST PUSH2 0x1912 DUP1 PUSH3 0x6D4 PUSH1 0x0 CODECOPY PUSH1 0x0 RETURN INVALID PUSH1 0x80 PUSH1 0x40 MSTORE CALLVALUE DUP1 ISZERO PUSH2 0x10 JUMPI PUSH1 0x0 DUP1 REVERT JUMPDEST POP PUSH1 0x4 CALLDATASIZE LT PUSH2 0x10B JUMPI PUSH1 0x0 CALLDATALOAD PUSH1 0xE0 SHR DUP1 PUSH4 0x9407921C GT PUSH2 0xA2 JUMPI DUP1 PUSH4 0xDE802761 GT PUSH2 0x71 JUMPI DUP1 PUSH4 0xDE802761 EQ PUSH2 0x2BA JUMPI DUP1 PUSH4 0xE5AB27E3 EQ PUSH2 0x2EA JUMPI DUP1 PUSH4 0xF39F05F7 EQ PUSH2 0x306 JUMPI DUP1 PUSH4 0xFBEAA42F EQ PUSH2 0x336 JUMPI DUP1 PUSH4 0xFC107720 EQ PUSH2 0x354 JUMPI PUSH2 0x10B JUMP JUMPDEST DUP1 PUSH4 0x9407921C EQ PUSH2 0x21E JUMPI DUP1 PUSH4 0xB1D90809 EQ PUSH2 0x24E JUMPI DUP1 PUSH4 0xC524E7F6 EQ PUSH2 0x26C JUMPI DUP1 PUSH4 0xCA9D2C6B EQ PUSH2 0x28A JUMPI PUSH2 0x10B JUMP JUMPDEST DUP1 PUSH4 0x55C1C478 GT PUSH2 0xDE JUMPI DUP1 PUSH4 0x55C1C478 EQ PUSH2 0x1AA JUMPI DUP1 PUSH4 0x5F891D98 EQ PUSH2 0x1C8 JUMPI DUP1 PUSH4 0x6947A020 EQ PUSH2 0x1E4 JUMPI DUP1 PUSH4 0x8DA5CB5B EQ PUSH2 0x200 JUMPI PUSH2 0x10B JUMP JUMPDEST DUP1 PUSH4 0xFBDD521 EQ PUSH2 0x110 JUMPI DUP1 PUSH4 0x101D4FB9 EQ PUSH2 0x140 JUMPI DUP1 PUSH4 0x244DED7A EQ PUSH2 0x170 JUMPI DUP1 PUSH4 0x481FD6B5 EQ PUSH2 0x18C JUMPI JUMPDEST PUSH1 0x0 DUP1 REVERT JUMPDEST PUSH2 0x12A PUSH1 0x4 DUP1 CALLDATASIZE SUB DUP2 ADD SWAP1 PUSH2 0x125 SWAP2 SWAP1 PUSH2 0xF40 JUMP JUMPDEST PUSH2 0x370 JUMP JUMPDEST PUSH1 0x40 MLOAD PUSH2 0x137 SWAP2 SWAP1 PUSH2 0xF9B JUMP JUMPDEST PUSH1 0x40 MLOAD DUP1 SWAP2 SUB SWAP1 RETURN JUMPDEST PUSH2 0x15A PUSH1 0x4 DUP1 CALLDATASIZE SUB DUP2 ADD SWAP1 PUSH2 0x155 SWAP2 SWAP1 PUSH2 0xF40 JUMP JUMPDEST PUSH2 0x5A2 JUMP JUMPDEST PUSH1 0x40 MLOAD PUSH2 0x167 SWAP2 SWAP1 PUSH2 0xF9B JUMP JUMPDEST PUSH1 0x40 MLOAD DUP1 SWAP2 SUB SWAP1 RETURN JUMPDEST PUSH2 0x18A PUSH1 0x4 DUP1 CALLDATASIZE SUB DUP2 ADD SWAP1 PUSH2 0x185 SWAP2 SWAP1 PUSH2 0xFB6 JUMP JUMPDEST PUSH2 0x61F JUMP JUMPDEST STOP JUMPDEST PUSH2 0x194 PUSH2 0x6F0 JUMP JUMPDEST PUSH1 0x40 MLOAD PUSH2 0x1A1 SWAP2 SWAP1 PUSH2 0x1073 JUMP JUMPDEST PUSH1 0x40 MLOAD DUP1 SWAP2 SUB SWAP1 RETURN JUMPDEST PUSH2 0x1B2 PUSH2 0x782 JUMP JUMPDEST PUSH1 0x40 MLOAD PUSH2 0x1BF SWAP2 SWAP1 PUSH2 0x10A4 JUMP JUMPDEST PUSH1 0x40 MLOAD DUP1 SWAP2 SUB SWAP1 RETURN JUMPDEST PUSH2 0x1E2 PUSH1 0x4 DUP1 CALLDATASIZE SUB DUP2 ADD SWAP1 PUSH2 0x1DD SWAP2 SWAP1 PUSH2 0x10F5 JUMP JUMPDEST PUSH2 0x7AC JUMP JUMPDEST STOP JUMPDEST PUSH2 0x1FE PUSH1 0x4 DUP1 CALLDATASIZE SUB DUP2 ADD SWAP1 PUSH2 0x1F9 SWAP2 SWAP1 PUSH2 0xF40 JUMP JUMPDEST PUSH2 0x826 JUMP JUMPDEST STOP JUMPDEST PUSH2 0x208 PUSH2 0x891 JUMP JUMPDEST PUSH1 0x40 MLOAD PUSH2 0x215 SWAP2 SWAP1 PUSH2 0x10A4 JUMP JUMPDEST PUSH1 0x40 MLOAD DUP1 SWAP2 SUB SWAP1 RETURN JUMPDEST PUSH2 0x238 PUSH1 0x4 DUP1 CALLDATASIZE SUB DUP2 ADD SWAP1 PUSH2 0x233 SWAP2 SWAP1 PUSH2 0x1135 JUMP JUMPDEST PUSH2 0x8B5 JUMP JUMPDEST PUSH1 0x40 MLOAD PUSH2 0x245 SWAP2 SWAP1 PUSH2 0x1220 JUMP JUMPDEST PUSH1 0x40 MLOAD DUP1 SWAP2 SUB SWAP1 RETURN JUMPDEST PUSH2 0x256 PUSH2 0x97A JUMP JUMPDEST PUSH1 0x40 MLOAD PUSH2 0x263 SWAP2 SWAP1 PUSH2 0x1220 JUMP JUMPDEST PUSH1 0x40 MLOAD DUP1 SWAP2 SUB SWAP1 RETURN JUMPDEST PUSH2 0x274 PUSH2 0xA3D JUMP JUMPDEST PUSH1 0x40 MLOAD PUSH2 0x281 SWAP2 SWAP1 PUSH2 0x1073 JUMP JUMPDEST PUSH1 0x40 MLOAD DUP1 SWAP2 SUB SWAP1 RETURN JUMPDEST PUSH2 0x2A4 PUSH1 0x4 DUP1 CALLDATASIZE SUB DUP2 ADD SWAP1 PUSH2 0x29F SWAP2 SWAP1 PUSH2 0x1135 JUMP JUMPDEST PUSH2 0xACF JUMP JUMPDEST PUSH1 0x40 MLOAD PUSH2 0x2B1 SWAP2 SWAP1 PUSH2 0x12B9 JUMP JUMPDEST PUSH1 0x40 MLOAD DUP1 SWAP2 SUB SWAP1 RETURN JUMPDEST PUSH2 0x2D4 PUSH1 0x4 DUP1 CALLDATASIZE SUB DUP2 ADD SWAP1 PUSH2 0x2CF SWAP2 SWAP1 PUSH2 0x10F5 JUMP JUMPDEST PUSH2 0xB4A JUMP JUMPDEST PUSH1 0x40 MLOAD PUSH2 0x2E1 SWAP2 SWAP1 PUSH2 0x10A4 JUMP JUMPDEST PUSH1 0x40 MLOAD DUP1 SWAP2 SUB SWAP1 RETURN JUMPDEST PUSH2 0x304 PUSH1 0x4 DUP1 CALLDATASIZE SUB DUP2 ADD SWAP1 PUSH2 0x2FF SWAP2 SWAP1 PUSH2 0x1339 JUMP JUMPDEST PUSH2 0xB98 JUMP JUMPDEST STOP JUMPDEST PUSH2 0x320 PUSH1 0x4 DUP1 CALLDATASIZE SUB DUP2 ADD SWAP1 PUSH2 0x31B SWAP2 SWAP1 PUSH2 0xFB6 JUMP JUMPDEST PUSH2 0xC3C JUMP JUMPDEST PUSH1 0x40 MLOAD PUSH2 0x32D SWAP2 SWAP1 PUSH2 0x12B9 JUMP JUMPDEST PUSH1 0x40 MLOAD DUP1 SWAP2 SUB SWAP1 RETURN JUMPDEST PUSH2 0x33E PUSH2 0xC5C JUMP JUMPDEST PUSH1 0x40 MLOAD PUSH2 0x34B SWAP2 SWAP1 PUSH2 0x1073 JUMP JUMPDEST PUSH1 0x40 MLOAD DUP1 SWAP2 SUB SWAP1 RETURN JUMPDEST PUSH2 0x36E PUSH1 0x4 DUP1 CALLDATASIZE SUB DUP2 ADD SWAP1 PUSH2 0x369 SWAP2 SWAP1 PUSH2 0x1135 JUMP JUMPDEST PUSH2 0xCEE JUMP JUMPDEST STOP JUMPDEST PUSH1 0x0 DUP1 DUP4 SWAP1 POP PUSH2 0x37F DUP4 PUSH2 0xACF JUMP JUMPDEST PUSH1 0x4 DUP2 GT ISZERO PUSH2 0x391 JUMPI PUSH2 0x390 PUSH2 0x1242 JUMP JUMPDEST JUMPDEST DUP2 PUSH20 0xFFFFFFFFFFFFFFFFFFFFFFFFFFFFFFFFFFFFFFFF AND PUSH4 0xF39F05F7 ADDRESS PUSH1 0x40 MLOAD DUP3 PUSH4 0xFFFFFFFF AND PUSH1 0xE0 SHL DUP2 MSTORE PUSH1 0x4 ADD PUSH2 0x3CA SWAP2 SWAP1 PUSH2 0x10A4 JUMP JUMPDEST PUSH1 0x20 PUSH1 0x40 MLOAD DUP1 DUP4 SUB DUP2 DUP7 GAS STATICCALL ISZERO DUP1 ISZERO PUSH2 0x3E7 JUMPI RETURNDATASIZE PUSH1 0x0 DUP1 RETURNDATACOPY RETURNDATASIZE PUSH1 0x0 REVERT JUMPDEST POP POP POP POP PUSH1 0x40 MLOAD RETURNDATASIZE PUSH1 0x1F NOT PUSH1 0x1F DUP3 ADD AND DUP3 ADD DUP1 PUSH1 0x40 MSTORE POP DUP2 ADD SWAP1 PUSH2 0x40B SWAP2 SWAP1 PUSH2 0x139B JUMP JUMPDEST PUSH1 0x4 DUP2 GT ISZERO PUSH2 0x41D JUMPI PUSH2 0x41C PUSH2 0x1242 JUMP JUMPDEST JUMPDEST SUB PUSH2 0x52F JUMPI PUSH1 0x3 PUSH1 0x0 DUP5 PUSH1 0x4 DUP2 GT ISZERO PUSH2 0x439 JUMPI PUSH2 0x438 PUSH2 0x1242 JUMP JUMPDEST JUMPDEST PUSH1 0x4 DUP2 GT ISZERO PUSH2 0x44B JUMPI PUSH2 0x44A PUSH2 0x1242 JUMP JUMPDEST JUMPDEST DUP2 MSTORE PUSH1 0x20 ADD SWAP1 DUP2 MSTORE PUSH1 0x20 ADD PUSH1 0x0 KECCAK256 DUP5 SWAP1 DUP1 PUSH1 0x1 DUP2 SLOAD ADD DUP1 DUP3 SSTORE DUP1 SWAP2 POP POP PUSH1 0x1 SWAP1 SUB SWAP1 PUSH1 0x0 MSTORE PUSH1 0x20 PUSH1 0x0 KECCAK256 ADD PUSH1 0x0 SWAP1 SWAP2 SWAP1 SWAP2 SWAP1 SWAP2 PUSH2 0x100 EXP DUP2 SLOAD DUP2 PUSH20 0xFFFFFFFFFFFFFFFFFFFFFFFFFFFFFFFFFFFFFFFF MUL NOT AND SWAP1 DUP4 PUSH20 0xFFFFFFFFFFFFFFFFFFFFFFFFFFFFFFFFFFFFFFFF AND MUL OR SWAP1 SSTORE POP DUP1 PUSH20 0xFFFFFFFFFFFFFFFFFFFFFFFFFFFFFFFFFFFFFFFF AND PUSH4 0xFC107720 DUP5 PUSH1 0x40 MLOAD DUP3 PUSH4 0xFFFFFFFF AND PUSH1 0xE0 SHL DUP2 MSTORE PUSH1 0x4 ADD PUSH2 0x4F3 SWAP2 SWAP1 PUSH2 0x12B9 JUMP JUMPDEST PUSH1 0x0 PUSH1 0x40 MLOAD DUP1 DUP4 SUB DUP2 PUSH1 0x0 DUP8 DUP1 EXTCODESIZE ISZERO DUP1 ISZERO PUSH2 0x50D JUMPI PUSH1 0x0 DUP1 REVERT JUMPDEST POP GAS CALL ISZERO DUP1 ISZERO PUSH2 0x521 JUMPI RETURNDATASIZE PUSH1 0x0 DUP1 RETURNDATACOPY RETURNDATASIZE PUSH1 0x0 REVERT JUMPDEST POP POP POP POP PUSH1 0x1 SWAP2 POP POP PUSH2 0x59C JUMP JUMPDEST DUP3 PUSH1 0x2 PUSH1 0x0 DUP7 PUSH20 0xFFFFFFFFFFFFFFFFFFFFFFFFFFFFFFFFFFFFFFFF AND PUSH20 0xFFFFFFFFFFFFFFFFFFFFFFFFFFFFFFFFFFFFFFFF AND DUP2 MSTORE PUSH1 0x20 ADD SWAP1 DUP2 MSTORE PUSH1 0x20 ADD PUSH1 0x0 KECCAK256 PUSH1 0x0 PUSH2 0x100 EXP DUP2 SLOAD DUP2 PUSH1 0xFF MUL NOT AND SWAP1 DUP4 PUSH1 0x4 DUP2 GT ISZERO PUSH2 0x591 JUMPI PUSH2 0x590 PUSH2 0x1242 JUMP JUMPDEST JUMPDEST MUL OR SWAP1 SSTORE POP PUSH1 0x0 SWAP2 POP POP JUMPDEST SWAP3 SWAP2 POP POP JUMP JUMPDEST PUSH1 0x0 DUP2 PUSH1 0x4 DUP2 GT ISZERO PUSH2 0x5B7 JUMPI PUSH2 0x5B6 PUSH2 0x1242 JUMP JUMPDEST JUMPDEST PUSH1 0x2 PUSH1 0x0 DUP6 PUSH20 0xFFFFFFFFFFFFFFFFFFFFFFFFFFFFFFFFFFFFFFFF AND PUSH20 0xFFFFFFFFFFFFFFFFFFFFFFFFFFFFFFFFFFFFFFFF AND DUP2 MSTORE PUSH1 0x20 ADD SWAP1 DUP2 MSTORE PUSH1 0x20 ADD PUSH1 0x0 KECCAK256 PUSH1 0x0 SWAP1 SLOAD SWAP1 PUSH2 0x100 EXP SWAP1 DIV PUSH1 0xFF AND PUSH1 0x4 DUP2 GT ISZERO PUSH2 0x616 JUMPI PUSH2 0x615 PUSH2 0x1242 JUMP JUMPDEST JUMPDEST EQ SWAP1 POP SWAP3 SWAP2 POP POP JUMP JUMPDEST PUSH1 0x0 DUP1 SLOAD SWAP1 PUSH2 0x100 EXP SWAP1 DIV PUSH20 0xFFFFFFFFFFFFFFFFFFFFFFFFFFFFFFFFFFFFFFFF AND PUSH20 0xFFFFFFFFFFFFFFFFFFFFFFFFFFFFFFFFFFFFFFFF AND CALLER PUSH20 0xFFFFFFFFFFFFFFFFFFFFFFFFFFFFFFFFFFFFFFFF AND EQ PUSH2 0x6AD JUMPI PUSH1 0x40 MLOAD PUSH32 0x8C379A000000000000000000000000000000000000000000000000000000000 DUP2 MSTORE PUSH1 0x4 ADD PUSH2 0x6A4 SWAP1 PUSH2 0x1414 JUMP JUMPDEST PUSH1 0x40 MLOAD DUP1 SWAP2 SUB SWAP1 REVERT JUMPDEST DUP1 PUSH1 0x0 DUP1 PUSH2 0x100 EXP DUP2 SLOAD DUP2 PUSH20 0xFFFFFFFFFFFFFFFFFFFFFFFFFFFFFFFFFFFFFFFF MUL NOT AND SWAP1 DUP4 PUSH20 0xFFFFFFFFFFFFFFFFFFFFFFFFFFFFFFFFFFFFFFFF AND MUL OR SWAP1 SSTORE POP POP JUMP JUMPDEST PUSH1 0x60 PUSH1 0x5 DUP1 SLOAD PUSH2 0x6FF SWAP1 PUSH2 0x1463 JUMP JUMPDEST DUP1 PUSH1 0x1F ADD PUSH1 0x20 DUP1 SWAP2 DIV MUL PUSH1 0x20 ADD PUSH1 0x40 MLOAD SWAP1 DUP2 ADD PUSH1 0x40 MSTORE DUP1 SWAP3 SWAP2 SWAP1 DUP2 DUP2 MSTORE PUSH1 0x20 ADD DUP3 DUP1 SLOAD PUSH2 0x72B SWAP1 PUSH2 0x1463 JUMP JUMPDEST DUP1 ISZERO PUSH2 0x778 JUMPI DUP1 PUSH1 0x1F LT PUSH2 0x74D JUMPI PUSH2 0x100 DUP1 DUP4 SLOAD DIV MUL DUP4 MSTORE SWAP2 PUSH1 0x20 ADD SWAP2 PUSH2 0x778 JUMP JUMPDEST DUP3 ADD SWAP2 SWAP1 PUSH1 0x0 MSTORE PUSH1 0x20 PUSH1 0x0 KECCAK256 SWAP1 JUMPDEST DUP2 SLOAD DUP2 MSTORE SWAP1 PUSH1 0x1 ADD SWAP1 PUSH1 0x20 ADD DUP1 DUP4 GT PUSH2 0x75B JUMPI DUP3 SWAP1 SUB PUSH1 0x1F AND DUP3 ADD SWAP2 JUMPDEST POP POP POP POP POP SWAP1 POP SWAP1 JUMP JUMPDEST PUSH1 0x0 PUSH1 0x1 PUSH1 0x0 SWAP1 SLOAD SWAP1 PUSH2 0x100 EXP SWAP1 DIV PUSH20 0xFFFFFFFFFFFFFFFFFFFFFFFFFFFFFFFFFFFFFFFF AND SWAP1 POP SWAP1 JUMP JUMPDEST PUSH1 0x3 PUSH1 0x0 DUP4 PUSH1 0x4 DUP2 GT ISZERO PUSH2 0x7C3 JUMPI PUSH2 0x7C2 PUSH2 0x1242 JUMP JUMPDEST JUMPDEST PUSH1 0x4 DUP2 GT ISZERO PUSH2 0x7D5 JUMPI PUSH2 0x7D4 PUSH2 0x1242 JUMP JUMPDEST JUMPDEST DUP2 MSTORE PUSH1 0x20 ADD SWAP1 DUP2 MSTORE PUSH1 0x20 ADD PUSH1 0x0 KECCAK256 DUP2 DUP2 SLOAD DUP2 LT PUSH2 0x7F5 JUMPI PUSH2 0x7F4 PUSH2 0x1494 JUMP JUMPDEST JUMPDEST SWAP1 PUSH1 0x0 MSTORE PUSH1 0x20 PUSH1 0x0 KECCAK256 ADD PUSH1 0x0 PUSH2 0x100 EXP DUP2 SLOAD SWAP1 PUSH20 0xFFFFFFFFFFFFFFFFFFFFFFFFFFFFFFFFFFFFFFFF MUL NOT AND SWAP1 SSTORE POP POP JUMP JUMPDEST DUP1 PUSH1 0x2 PUSH1 0x0 DUP5 PUSH20 0xFFFFFFFFFFFFFFFFFFFFFFFFFFFFFFFFFFFFFFFF AND PUSH20 0xFFFFFFFFFFFFFFFFFFFFFFFFFFFFFFFFFFFFFFFF AND DUP2 MSTORE PUSH1 0x20 ADD SWAP1 DUP2 MSTORE PUSH1 0x20 ADD PUSH1 0x0 KECCAK256 PUSH1 0x0 PUSH2 0x100 EXP DUP2 SLOAD DUP2 PUSH1 0xFF MUL NOT AND SWAP1 DUP4 PUSH1 0x4 DUP2 GT ISZERO PUSH2 0x888 JUMPI PUSH2 0x887 PUSH2 0x1242 JUMP JUMPDEST JUMPDEST MUL OR SWAP1 SSTORE POP POP POP JUMP JUMPDEST PUSH1 0x0 DUP1 SLOAD SWAP1 PUSH2 0x100 EXP SWAP1 DIV PUSH20 0xFFFFFFFFFFFFFFFFFFFFFFFFFFFFFFFFFFFFFFFF AND DUP2 JUMP JUMPDEST PUSH1 0x60 PUSH1 0x3 PUSH1 0x0 DUP4 PUSH1 0x4 DUP2 GT ISZERO PUSH2 0x8CE JUMPI PUSH2 0x8CD PUSH2 0x1242 JUMP JUMPDEST JUMPDEST PUSH1 0x4 DUP2 GT ISZERO PUSH2 0x8E0 JUMPI PUSH2 0x8DF PUSH2 0x1242 JUMP JUMPDEST JUMPDEST DUP2 MSTORE PUSH1 0x20 ADD SWAP1 DUP2 MSTORE PUSH1 0x20 ADD PUSH1 0x0 KECCAK256 DUP1 SLOAD DUP1 PUSH1 0x20 MUL PUSH1 0x20 ADD PUSH1 0x40 MLOAD SWAP1 DUP2 ADD PUSH1 0x40 MSTORE DUP1 SWAP3 SWAP2 SWAP1 DUP2 DUP2 MSTORE PUSH1 0x20 ADD DUP3 DUP1 SLOAD DUP1 ISZERO PUSH2 0x96E JUMPI PUSH1 0x20 MUL DUP3 ADD SWAP2 SWAP1 PUSH1 0x0 MSTORE PUSH1 0x20 PUSH1 0x0 KECCAK256 SWAP1 JUMPDEST DUP2 PUSH1 0x0 SWAP1 SLOAD SWAP1 PUSH2 0x100 EXP SWAP1 DIV PUSH20 0xFFFFFFFFFFFFFFFFFFFFFFFFFFFFFFFFFFFFFFFF AND PUSH20 0xFFFFFFFFFFFFFFFFFFFFFFFFFFFFFFFFFFFFFFFF AND DUP2 MSTORE PUSH1 0x20 ADD SWAP1 PUSH1 0x1 ADD SWAP1 DUP1 DUP4 GT PUSH2 0x924 JUMPI JUMPDEST POP POP POP POP POP SWAP1 POP SWAP2 SWAP1 POP JUMP JUMPDEST PUSH1 0x60 PUSH1 0x3 PUSH1 0x0 PUSH1 0x4 DUP1 DUP2 GT ISZERO PUSH2 0x993 JUMPI PUSH2 0x992 PUSH2 0x1242 JUMP JUMPDEST JUMPDEST PUSH1 0x4 DUP2 GT ISZERO PUSH2 0x9A5 JUMPI PUSH2 0x9A4 PUSH2 0x1242 JUMP JUMPDEST JUMPDEST DUP2 MSTORE PUSH1 0x20 ADD SWAP1 DUP2 MSTORE PUSH1 0x20 ADD PUSH1 0x0 KECCAK256 DUP1 SLOAD DUP1 PUSH1 0x20 MUL PUSH1 0x20 ADD PUSH1 0x40 MLOAD SWAP1 DUP2 ADD PUSH1 0x40 MSTORE DUP1 SWAP3 SWAP2 SWAP1 DUP2 DUP2 MSTORE PUSH1 0x20 ADD DUP3 DUP1 SLOAD DUP1 ISZERO PUSH2 0xA33 JUMPI PUSH1 0x20 MUL DUP3 ADD SWAP2 SWAP1 PUSH1 0x0 MSTORE PUSH1 0x20 PUSH1 0x0 KECCAK256 SWAP1 JUMPDEST DUP2 PUSH1 0x0 SWAP1 SLOAD SWAP1 PUSH2 0x100 EXP SWAP1 DIV PUSH20 0xFFFFFFFFFFFFFFFFFFFFFFFFFFFFFFFFFFFFFFFF AND PUSH20 0xFFFFFFFFFFFFFFFFFFFFFFFFFFFFFFFFFFFFFFFF AND DUP2 MSTORE PUSH1 0x20 ADD SWAP1 PUSH1 0x1 ADD SWAP1 DUP1 DUP4 GT PUSH2 0x9E9 JUMPI JUMPDEST POP POP POP POP POP SWAP1 POP SWAP1 JUMP JUMPDEST PUSH1 0x60 PUSH1 0x6 DUP1 SLOAD PUSH2 0xA4C SWAP1 PUSH2 0x1463 JUMP JUMPDEST DUP1 PUSH1 0x1F ADD PUSH1 0x20 DUP1 SWAP2 DIV MUL PUSH1 0x20 ADD PUSH1 0x40 MLOAD SWAP1 DUP2 ADD PUSH1 0x40 MSTORE DUP1 SWAP3 SWAP2 SWAP1 DUP2 DUP2 MSTORE PUSH1 0x20 ADD DUP3 DUP1 SLOAD PUSH2 0xA78 SWAP1 PUSH2 0x1463 JUMP JUMPDEST DUP1 ISZERO PUSH2 0xAC5 JUMPI DUP1 PUSH1 0x1F LT PUSH2 0xA9A JUMPI PUSH2 0x100 DUP1 DUP4 SLOAD DIV MUL DUP4 MSTORE SWAP2 PUSH1 0x20 ADD SWAP2 PUSH2 0xAC5 JUMP JUMPDEST DUP3 ADD SWAP2 SWAP1 PUSH1 0x0 MSTORE PUSH1 0x20 PUSH1 0x0 KECCAK256 SWAP1 JUMPDEST DUP2 SLOAD DUP2 MSTORE SWAP1 PUSH1 0x1 ADD SWAP1 PUSH1 0x20 ADD DUP1 DUP4 GT PUSH2 0xAA8 JUMPI DUP3 SWAP1 SUB PUSH1 0x1F AND DUP3 ADD SWAP2 JUMPDEST POP POP POP POP POP SWAP1 POP SWAP1 JUMP JUMPDEST PUSH1 0x0 DUP1 DUP3 PUSH1 0x4 DUP2 GT ISZERO PUSH2 0xAE5 JUMPI PUSH2 0xAE4 PUSH2 0x1242 JUMP JUMPDEST JUMPDEST SWAP1 POP PUSH1 0x0 PUSH1 0x2 DUP3 PUSH2 0xAF6 SWAP2 SWAP1 PUSH2 0x14F2 JUMP JUMPDEST SUB PUSH2 0xB22 JUMPI PUSH1 0x1 DUP2 PUSH2 0xB08 SWAP2 SWAP1 PUSH2 0x1552 JUMP JUMPDEST PUSH1 0x4 DUP2 GT ISZERO PUSH2 0xB1A JUMPI PUSH2 0xB19 PUSH2 0x1242 JUMP JUMPDEST JUMPDEST SWAP2 POP POP PUSH2 0xB45 JUMP JUMPDEST PUSH1 0x1 DUP2 PUSH2 0xB2F SWAP2 SWAP1 PUSH2 0x1586 JUMP JUMPDEST PUSH1 0x4 DUP2 GT ISZERO PUSH2 0xB41 JUMPI PUSH2 0xB40 PUSH2 0x1242 JUMP JUMPDEST JUMPDEST SWAP2 POP POP JUMPDEST SWAP2 SWAP1 POP JUMP JUMPDEST PUSH1 0x3 PUSH1 0x20 MSTORE DUP2 PUSH1 0x0 MSTORE PUSH1 0x40 PUSH1 0x0 KECCAK256 DUP2 DUP2 SLOAD DUP2 LT PUSH2 0xB66 JUMPI PUSH1 0x0 DUP1 REVERT JUMPDEST SWAP1 PUSH1 0x0 MSTORE PUSH1 0x20 PUSH1 0x0 KECCAK256 ADD PUSH1 0x0 SWAP2 POP SWAP2 POP SWAP1 SLOAD SWAP1 PUSH2 0x100 EXP SWAP1 DIV PUSH20 0xFFFFFFFFFFFFFFFFFFFFFFFFFFFFFFFFFFFFFFFF AND DUP2 JUMP JUMPDEST PUSH1 0x0 DUP1 SLOAD SWAP1 PUSH2 0x100 EXP SWAP1 DIV PUSH20 0xFFFFFFFFFFFFFFFFFFFFFFFFFFFFFFFFFFFFFFFF AND PUSH20 0xFFFFFFFFFFFFFFFFFFFFFFFFFFFFFFFFFFFFFFFF AND CALLER PUSH20 0xFFFFFFFFFFFFFFFFFFFFFFFFFFFFFFFFFFFFFFFF AND EQ PUSH2 0xC26 JUMPI PUSH1 0x40 MLOAD PUSH32 0x8C379A000000000000000000000000000000000000000000000000000000000 DUP2 MSTORE PUSH1 0x4 ADD PUSH2 0xC1D SWAP1 PUSH2 0x1414 JUMP JUMPDEST PUSH1 0x40 MLOAD DUP1 SWAP2 SUB SWAP1 REVERT JUMPDEST DUP2 DUP2 PUSH1 0x6 SWAP2 DUP3 PUSH2 0xC37 SWAP3 SWAP2 SWAP1 PUSH2 0x17A0 JUMP JUMPDEST POP POP POP JUMP JUMPDEST PUSH1 0x2 PUSH1 0x20 MSTORE DUP1 PUSH1 0x0 MSTORE PUSH1 0x40 PUSH1 0x0 KECCAK256 PUSH1 0x0 SWAP2 POP SLOAD SWAP1 PUSH2 0x100 EXP SWAP1 DIV PUSH1 0xFF AND DUP2 JUMP JUMPDEST PUSH1 0x60 PUSH1 0x7 DUP1 SLOAD PUSH2 0xC6B SWAP1 PUSH2 0x1463 JUMP JUMPDEST DUP1 PUSH1 0x1F ADD PUSH1 0x20 DUP1 SWAP2 DIV MUL PUSH1 0x20 ADD PUSH1 0x40 MLOAD SWAP1 DUP2 ADD PUSH1 0x40 MSTORE DUP1 SWAP3 SWAP2 SWAP1 DUP2 DUP2 MSTORE PUSH1 0x20 ADD DUP3 DUP1 SLOAD PUSH2 0xC97 SWAP1 PUSH2 0x1463 JUMP JUMPDEST DUP1 ISZERO PUSH2 0xCE4 JUMPI DUP1 PUSH1 0x1F LT PUSH2 0xCB9 JUMPI PUSH2 0x100 DUP1 DUP4 SLOAD DIV MUL DUP4 MSTORE SWAP2 PUSH1 0x20 ADD SWAP2 PUSH2 0xCE4 JUMP JUMPDEST DUP3 ADD SWAP2 SWAP1 PUSH1 0x0 MSTORE PUSH1 0x20 PUSH1 0x0 KECCAK256 SWAP1 JUMPDEST DUP2 SLOAD DUP2 MSTORE SWAP1 PUSH1 0x1 ADD SWAP1 PUSH1 0x20 ADD DUP1 DUP4 GT PUSH2 0xCC7 JUMPI DUP3 SWAP1 SUB PUSH1 0x1F AND DUP3 ADD SWAP2 JUMPDEST POP POP POP POP POP SWAP1 POP SWAP1 JUMP JUMPDEST PUSH2 0xCF7 DUP2 PUSH2 0xACF JUMP JUMPDEST PUSH1 0x4 DUP2 GT ISZERO PUSH2 0xD09 JUMPI PUSH2 0xD08 PUSH2 0x1242 JUMP JUMPDEST JUMPDEST PUSH1 0x2 PUSH1 0x0 CALLER PUSH20 0xFFFFFFFFFFFFFFFFFFFFFFFFFFFFFFFFFFFFFFFF AND PUSH20 0xFFFFFFFFFFFFFFFFFFFFFFFFFFFFFFFFFFFFFFFF AND DUP2 MSTORE PUSH1 0x20 ADD SWAP1 DUP2 MSTORE PUSH1 0x20 ADD PUSH1 0x0 KECCAK256 PUSH1 0x0 SWAP1 SLOAD SWAP1 PUSH2 0x100 EXP SWAP1 DIV PUSH1 0xFF AND PUSH1 0x4 DUP2 GT ISZERO PUSH2 0xD68 JUMPI PUSH2 0xD67 PUSH2 0x1242 JUMP JUMPDEST JUMPDEST EQ PUSH2 0xDA8 JUMPI PUSH1 0x40 MLOAD PUSH32 0x8C379A000000000000000000000000000000000000000000000000000000000 DUP2 MSTORE PUSH1 0x4 ADD PUSH2 0xD9F SWAP1 PUSH2 0x18BC JUMP JUMPDEST PUSH1 0x40 MLOAD DUP1 SWAP2 SUB SWAP1 REVERT JUMPDEST PUSH1 0x0 PUSH1 0x2 PUSH1 0x0 CALLER PUSH20 0xFFFFFFFFFFFFFFFFFFFFFFFFFFFFFFFFFFFFFFFF AND PUSH20 0xFFFFFFFFFFFFFFFFFFFFFFFFFFFFFFFFFFFFFFFF AND DUP2 MSTORE PUSH1 0x20 ADD SWAP1 DUP2 MSTORE PUSH1 0x20 ADD PUSH1 0x0 KECCAK256 PUSH1 0x0 PUSH2 0x100 EXP DUP2 SLOAD DUP2 PUSH1 0xFF MUL NOT AND SWAP1 DUP4 PUSH1 0x4 DUP2 GT ISZERO PUSH2 0xE0B JUMPI PUSH2 0xE0A PUSH2 0x1242 JUMP JUMPDEST JUMPDEST MUL OR SWAP1 SSTORE POP PUSH1 0x3 PUSH1 0x0 PUSH2 0xE1D DUP4 PUSH2 0xACF JUMP JUMPDEST PUSH1 0x4 DUP2 GT ISZERO PUSH2 0xE2F JUMPI PUSH2 0xE2E PUSH2 0x1242 JUMP JUMPDEST JUMPDEST PUSH1 0x4 DUP2 GT ISZERO PUSH2 0xE41 JUMPI PUSH2 0xE40 PUSH2 0x1242 JUMP JUMPDEST JUMPDEST DUP2 MSTORE PUSH1 0x20 ADD SWAP1 DUP2 MSTORE PUSH1 0x20 ADD PUSH1 0x0 KECCAK256 CALLER SWAP1 DUP1 PUSH1 0x1 DUP2 SLOAD ADD DUP1 DUP3 SSTORE DUP1 SWAP2 POP POP PUSH1 0x1 SWAP1 SUB SWAP1 PUSH1 0x0 MSTORE PUSH1 0x20 PUSH1 0x0 KECCAK256 ADD PUSH1 0x0 SWAP1 SWAP2 SWAP1 SWAP2 SWAP1 SWAP2 PUSH2 0x100 EXP DUP2 SLOAD DUP2 PUSH20 0xFFFFFFFFFFFFFFFFFFFFFFFFFFFFFFFFFFFFFFFF MUL NOT AND SWAP1 DUP4 PUSH20 0xFFFFFFFFFFFFFFFFFFFFFFFFFFFFFFFFFFFFFFFF AND MUL OR SWAP1 SSTORE POP POP JUMP JUMPDEST PUSH1 0x0 DUP1 REVERT JUMPDEST PUSH1 0x0 DUP1 REVERT JUMPDEST PUSH1 0x0 PUSH20 0xFFFFFFFFFFFFFFFFFFFFFFFFFFFFFFFFFFFFFFFF DUP3 AND SWAP1 POP SWAP2 SWAP1 POP JUMP JUMPDEST PUSH1 0x0 PUSH2 0xEE8 DUP3 PUSH2 0xEBD JUMP JUMPDEST SWAP1 POP SWAP2 SWAP1 POP JUMP JUMPDEST PUSH2 0xEF8 DUP2 PUSH2 0xEDD JUMP JUMPDEST DUP2 EQ PUSH2 0xF03 JUMPI PUSH1 0x0 DUP1 REVERT JUMPDEST POP JUMP JUMPDEST PUSH1 0x0 DUP2 CALLDATALOAD SWAP1 POP PUSH2 0xF15 DUP2 PUSH2 0xEEF JUMP JUMPDEST SWAP3 SWAP2 POP POP JUMP JUMPDEST PUSH1 0x5 DUP2 LT PUSH2 0xF28 JUMPI PUSH1 0x0 DUP1 REVERT JUMPDEST POP JUMP JUMPDEST PUSH1 0x0 DUP2 CALLDATALOAD SWAP1 POP PUSH2 0xF3A DUP2 PUSH2 0xF1B JUMP JUMPDEST SWAP3 SWAP2 POP POP JUMP JUMPDEST PUSH1 0x0 DUP1 PUSH1 0x40 DUP4 DUP6 SUB SLT ISZERO PUSH2 0xF57 JUMPI PUSH2 0xF56 PUSH2 0xEB3 JUMP JUMPDEST JUMPDEST PUSH1 0x0 PUSH2 0xF65 DUP6 DUP3 DUP7 ADD PUSH2 0xF06 JUMP JUMPDEST SWAP3 POP POP PUSH1 0x20 PUSH2 0xF76 DUP6 DUP3 DUP7 ADD PUSH2 0xF2B JUMP JUMPDEST SWAP2 POP POP SWAP3 POP SWAP3 SWAP1 POP JUMP JUMPDEST PUSH1 0x0 DUP2 ISZERO ISZERO SWAP1 POP SWAP2 SWAP1 POP JUMP JUMPDEST PUSH2 0xF95 DUP2 PUSH2 0xF80 JUMP JUMPDEST DUP3 MSTORE POP POP JUMP JUMPDEST PUSH1 0x0 PUSH1 0x20 DUP3 ADD SWAP1 POP PUSH2 0xFB0 PUSH1 0x0 DUP4 ADD DUP5 PUSH2 0xF8C JUMP JUMPDEST SWAP3 SWAP2 POP POP JUMP JUMPDEST PUSH1 0x0 PUSH1 0x20 DUP3 DUP5 SUB SLT ISZERO PUSH2 0xFCC JUMPI PUSH2 0xFCB PUSH2 0xEB3 JUMP JUMPDEST JUMPDEST PUSH1 0x0 PUSH2 0xFDA DUP5 DUP3 DUP6 ADD PUSH2 0xF06 JUMP JUMPDEST SWAP2 POP POP SWAP3 SWAP2 POP POP JUMP JUMPDEST PUSH1 0x0 DUP2 MLOAD SWAP1 POP SWAP2 SWAP1 POP JUMP JUMPDEST PUSH1 0x0 DUP3 DUP3 MSTORE PUSH1 0x20 DUP3 ADD SWAP1 POP SWAP3 SWAP2 POP POP JUMP JUMPDEST PUSH1 0x0 JUMPDEST DUP4 DUP2 LT ISZERO PUSH2 0x101D JUMPI DUP1 DUP3 ADD MLOAD DUP2 DUP5 ADD MSTORE PUSH1 0x20 DUP2 ADD SWAP1 POP PUSH2 0x1002 JUMP JUMPDEST PUSH1 0x0 DUP5 DUP5 ADD MSTORE POP POP POP POP JUMP JUMPDEST PUSH1 0x0 PUSH1 0x1F NOT PUSH1 0x1F DUP4 ADD AND SWAP1 POP SWAP2 SWAP1 POP JUMP JUMPDEST PUSH1 0x0 PUSH2 0x1045 DUP3 PUSH2 0xFE3 JUMP JUMPDEST PUSH2 0x104F DUP2 DUP6 PUSH2 0xFEE JUMP JUMPDEST SWAP4 POP PUSH2 0x105F DUP2 DUP6 PUSH1 0x20 DUP7 ADD PUSH2 0xFFF JUMP JUMPDEST PUSH2 0x1068 DUP2 PUSH2 0x1029 JUMP JUMPDEST DUP5 ADD SWAP2 POP POP SWAP3 SWAP2 POP POP JUMP JUMPDEST PUSH1 0x0 PUSH1 0x20 DUP3 ADD SWAP1 POP DUP2 DUP2 SUB PUSH1 0x0 DUP4 ADD MSTORE PUSH2 0x108D DUP2 DUP5 PUSH2 0x103A JUMP JUMPDEST SWAP1 POP SWAP3 SWAP2 POP POP JUMP JUMPDEST PUSH2 0x109E DUP2 PUSH2 0xEDD JUMP JUMPDEST DUP3 MSTORE POP POP JUMP JUMPDEST PUSH1 0x0 PUSH1 0x20 DUP3 ADD SWAP1 POP PUSH2 0x10B9 PUSH1 0x0 DUP4 ADD DUP5 PUSH2 0x1095 JUMP JUMPDEST SWAP3 SWAP2 POP POP JUMP JUMPDEST PUSH1 0x0 DUP2 SWAP1 POP SWAP2 SWAP1 POP JUMP JUMPDEST PUSH2 0x10D2 DUP2 PUSH2 0x10BF JUMP JUMPDEST DUP2 EQ PUSH2 0x10DD JUMPI PUSH1 0x0 DUP1 REVERT JUMPDEST POP JUMP JUMPDEST PUSH1 0x0 DUP2 CALLDATALOAD SWAP1 POP PUSH2 0x10EF DUP2 PUSH2 0x10C9 JUMP JUMPDEST SWAP3 SWAP2 POP POP JUMP JUMPDEST PUSH1 0x0 DUP1 PUSH1 0x40 DUP4 DUP6 SUB SLT ISZERO PUSH2 0x110C JUMPI PUSH2 0x110B PUSH2 0xEB3 JUMP JUMPDEST JUMPDEST PUSH1 0x0 PUSH2 0x111A DUP6 DUP3 DUP7 ADD PUSH2 0xF2B JUMP JUMPDEST SWAP3 POP POP PUSH1 0x20 PUSH2 0x112B DUP6 DUP3 DUP7 ADD PUSH2 0x10E0 JUMP JUMPDEST SWAP2 POP POP SWAP3 POP SWAP3 SWAP1 POP JUMP JUMPDEST PUSH1 0x0 PUSH1 0x20 DUP3 DUP5 SUB SLT ISZERO PUSH2 0x114B JUMPI PUSH2 0x114A PUSH2 0xEB3 JUMP JUMPDEST JUMPDEST PUSH1 0x0 PUSH2 0x1159 DUP5 DUP3 DUP6 ADD PUSH2 0xF2B JUMP JUMPDEST SWAP2 POP POP SWAP3 SWAP2 POP POP JUMP JUMPDEST PUSH1 0x0 DUP2 MLOAD SWAP1 POP SWAP2 SWAP1 POP JUMP JUMPDEST PUSH1 0x0 DUP3 DUP3 MSTORE PUSH1 0x20 DUP3 ADD SWAP1 POP SWAP3 SWAP2 POP POP JUMP JUMPDEST PUSH1 0x0 DUP2 SWAP1 POP PUSH1 0x20 DUP3 ADD SWAP1 POP SWAP2 SWAP1 POP JUMP JUMPDEST PUSH2 0x1197 DUP2 PUSH2 0xEDD JUMP JUMPDEST DUP3 MSTORE POP POP JUMP JUMPDEST PUSH1 0x0 PUSH2 0x11A9 DUP4 DUP4 PUSH2 0x118E JUMP JUMPDEST PUSH1 0x20 DUP4 ADD SWAP1 POP SWAP3 SWAP2 POP POP JUMP JUMPDEST PUSH1 0x0 PUSH1 0x20 DUP3 ADD SWAP1 POP SWAP2 SWAP1 POP JUMP JUMPDEST PUSH1 0x0 PUSH2 0x11CD DUP3 PUSH2 0x1162 JUMP JUMPDEST PUSH2 0x11D7 DUP2 DUP6 PUSH2 0x116D JUMP JUMPDEST SWAP4 POP PUSH2 0x11E2 DUP4 PUSH2 0x117E JUMP JUMPDEST DUP1 PUSH1 0x0 JUMPDEST DUP4 DUP2 LT ISZERO PUSH2 0x1213 JUMPI DUP2 MLOAD PUSH2 0x11FA DUP9 DUP3 PUSH2 0x119D JUMP JUMPDEST SWAP8 POP PUSH2 0x1205 DUP4 PUSH2 0x11B5 JUMP JUMPDEST SWAP3 POP POP PUSH1 0x1 DUP2 ADD SWAP1 POP PUSH2 0x11E6 JUMP JUMPDEST POP DUP6 SWAP4 POP POP POP POP SWAP3 SWAP2 POP POP JUMP JUMPDEST PUSH1 0x0 PUSH1 0x20 DUP3 ADD SWAP1 POP DUP2 DUP2 SUB PUSH1 0x0 DUP4 ADD MSTORE PUSH2 0x123A DUP2 DUP5 PUSH2 0x11C2 JUMP JUMPDEST SWAP1 POP SWAP3 SWAP2 POP POP JUMP JUMPDEST PUSH32 0x4E487B7100000000000000000000000000000000000000000000000000000000 PUSH1 0x0 MSTORE PUSH1 0x21 PUSH1 0x4 MSTORE PUSH1 0x24 PUSH1 0x0 REVERT JUMPDEST PUSH1 0x5 DUP2 LT PUSH2 0x1282 JUMPI PUSH2 0x1281 PUSH2 0x1242 JUMP JUMPDEST JUMPDEST POP JUMP JUMPDEST PUSH1 0x0 DUP2 SWAP1 POP PUSH2 0x1293 DUP3 PUSH2 0x1271 JUMP JUMPDEST SWAP2 SWAP1 POP JUMP JUMPDEST PUSH1 0x0 PUSH2 0x12A3 DUP3 PUSH2 0x1285 JUMP JUMPDEST SWAP1 POP SWAP2 SWAP1 POP JUMP JUMPDEST PUSH2 0x12B3 DUP2 PUSH2 0x1298 JUMP JUMPDEST DUP3 MSTORE POP POP JUMP JUMPDEST PUSH1 0x0 PUSH1 0x20 DUP3 ADD SWAP1 POP PUSH2 0x12CE PUSH1 0x0 DUP4 ADD DUP5 PUSH2 0x12AA JUMP JUMPDEST SWAP3 SWAP2 POP POP JUMP JUMPDEST PUSH1 0x0 DUP1 REVERT JUMPDEST PUSH1 0x0 DUP1 REVERT JUMPDEST PUSH1 0x0 DUP1 REVERT JUMPDEST PUSH1 0x0 DUP1 DUP4 PUSH1 0x1F DUP5 ADD SLT PUSH2 0x12F9 JUMPI PUSH2 0x12F8 PUSH2 0x12D4 JUMP JUMPDEST JUMPDEST DUP3 CALLDATALOAD SWAP1 POP PUSH8 0xFFFFFFFFFFFFFFFF DUP2 GT ISZERO PUSH2 0x1316 JUMPI PUSH2 0x1315 PUSH2 0x12D9 JUMP JUMPDEST JUMPDEST PUSH1 0x20 DUP4 ADD SWAP2 POP DUP4 PUSH1 0x1 DUP3 MUL DUP4 ADD GT ISZERO PUSH2 0x1332 JUMPI PUSH2 0x1331 PUSH2 0x12DE JUMP JUMPDEST JUMPDEST SWAP3 POP SWAP3 SWAP1 POP JUMP JUMPDEST PUSH1 0x0 DUP1 PUSH1 0x20 DUP4 DUP6 SUB SLT ISZERO PUSH2 0x1350 JUMPI PUSH2 0x134F PUSH2 0xEB3 JUMP JUMPDEST JUMPDEST PUSH1 0x0 DUP4 ADD CALLDATALOAD PUSH8 0xFFFFFFFFFFFFFFFF DUP2 GT ISZERO PUSH2 0x136E JUMPI PUSH2 0x136D PUSH2 0xEB8 JUMP JUMPDEST JUMPDEST PUSH2 0x137A DUP6 DUP3 DUP7 ADD PUSH2 0x12E3 JUMP JUMPDEST SWAP3 POP SWAP3 POP POP SWAP3 POP SWAP3 SWAP1 POP JUMP JUMPDEST PUSH1 0x0 DUP2 MLOAD SWAP1 POP PUSH2 0x1395 DUP2 PUSH2 0xF1B JUMP JUMPDEST SWAP3 SWAP2 POP POP JUMP JUMPDEST PUSH1 0x0 PUSH1 0x20 DUP3 DUP5 SUB SLT ISZERO PUSH2 0x13B1 JUMPI PUSH2 0x13B0 PUSH2 0xEB3 JUMP JUMPDEST JUMPDEST PUSH1 0x0 PUSH2 0x13BF DUP5 DUP3 DUP6 ADD PUSH2 0x1386 JUMP JUMPDEST SWAP2 POP POP SWAP3 SWAP2 POP POP JUMP JUMPDEST PUSH32 0x63616C6C6572206D757374206265206F776E6572000000000000000000000000 PUSH1 0x0 DUP3 ADD MSTORE POP JUMP JUMPDEST PUSH1 0x0 PUSH2 0x13FE PUSH1 0x14 DUP4 PUSH2 0xFEE JUMP JUMPDEST SWAP2 POP PUSH2 0x1409 DUP3 PUSH2 0x13C8 JUMP JUMPDEST PUSH1 0x20 DUP3 ADD SWAP1 POP SWAP2 SWAP1 POP JUMP JUMPDEST PUSH1 0x0 PUSH1 0x20 DUP3 ADD SWAP1 POP DUP2 DUP2 SUB PUSH1 0x0 DUP4 ADD MSTORE PUSH2 0x142D DUP2 PUSH2 0x13F1 JUMP JUMPDEST SWAP1 POP SWAP2 SWAP1 POP JUMP JUMPDEST PUSH32 0x4E487B7100000000000000000000000000000000000000000000000000000000 PUSH1 0x0 MSTORE PUSH1 0x22 PUSH1 0x4 MSTORE PUSH1 0x24 PUSH1 0x0 REVERT JUMPDEST PUSH1 0x0 PUSH1 0x2 DUP3 DIV SWAP1 POP PUSH1 0x1 DUP3 AND DUP1 PUSH2 0x147B JUMPI PUSH1 0x7F DUP3 AND SWAP2 POP JUMPDEST PUSH1 0x20 DUP3 LT DUP2 SUB PUSH2 0x148E JUMPI PUSH2 0x148D PUSH2 0x1434 JUMP JUMPDEST JUMPDEST POP SWAP2 SWAP1 POP JUMP JUMPDEST PUSH32 0x4E487B7100000000000000000000000000000000000000000000000000000000 PUSH1 0x0 MSTORE PUSH1 0x32 PUSH1 0x4 MSTORE PUSH1 0x24 PUSH1 0x0 REVERT JUMPDEST PUSH32 0x4E487B7100000000000000000000000000000000000000000000000000000000 PUSH1 0x0 MSTORE PUSH1 0x12 PUSH1 0x4 MSTORE PUSH1 0x24 PUSH1 0x0 REVERT JUMPDEST PUSH1 0x0 PUSH2 0x14FD DUP3 PUSH2 0x10BF JUMP JUMPDEST SWAP2 POP PUSH2 0x1508 DUP4 PUSH2 0x10BF JUMP JUMPDEST SWAP3 POP DUP3 PUSH2 0x1518 JUMPI PUSH2 0x1517 PUSH2 0x14C3 JUMP JUMPDEST JUMPDEST DUP3 DUP3 MOD SWAP1 POP SWAP3 SWAP2 POP POP JUMP JUMPDEST PUSH32 0x4E487B7100000000000000000000000000000000000000000000000000000000 PUSH1 0x0 MSTORE PUSH1 0x11 PUSH1 0x4 MSTORE PUSH1 0x24 PUSH1 0x0 REVERT JUMPDEST PUSH1 0x0 PUSH2 0x155D DUP3 PUSH2 0x10BF JUMP JUMPDEST SWAP2 POP PUSH2 0x1568 DUP4 PUSH2 0x10BF JUMP JUMPDEST SWAP3 POP DUP3 DUP3 SUB SWAP1 POP DUP2 DUP2 GT ISZERO PUSH2 0x1580 JUMPI PUSH2 0x157F PUSH2 0x1523 JUMP JUMPDEST JUMPDEST SWAP3 SWAP2 POP POP JUMP JUMPDEST PUSH1 0x0 PUSH2 0x1591 DUP3 PUSH2 0x10BF JUMP JUMPDEST SWAP2 POP PUSH2 0x159C DUP4 PUSH2 0x10BF JUMP JUMPDEST SWAP3 POP DUP3 DUP3 ADD SWAP1 POP DUP1 DUP3 GT ISZERO PUSH2 0x15B4 JUMPI PUSH2 0x15B3 PUSH2 0x1523 JUMP JUMPDEST JUMPDEST SWAP3 SWAP2 POP POP JUMP JUMPDEST PUSH1 0x0 DUP3 SWAP1 POP SWAP3 SWAP2 POP POP JUMP JUMPDEST PUSH32 0x4E487B7100000000000000000000000000000000000000000000000000000000 PUSH1 0x0 MSTORE PUSH1 0x41 PUSH1 0x4 MSTORE PUSH1 0x24 PUSH1 0x0 REVERT JUMPDEST PUSH1 0x0 DUP2 SWAP1 POP DUP2 PUSH1 0x0 MSTORE PUSH1 0x20 PUSH1 0x0 KECCAK256 SWAP1 POP SWAP2 SWAP1 POP JUMP JUMPDEST PUSH1 0x0 PUSH1 0x20 PUSH1 0x1F DUP4 ADD DIV SWAP1 POP SWAP2 SWAP1 POP JUMP JUMPDEST PUSH1 0x0 DUP3 DUP3 SHL SWAP1 POP SWAP3 SWAP2 POP POP JUMP JUMPDEST PUSH1 0x0 PUSH1 0x8 DUP4 MUL PUSH2 0x1656 PUSH32 0xFFFFFFFFFFFFFFFFFFFFFFFFFFFFFFFFFFFFFFFFFFFFFFFFFFFFFFFFFFFFFFFF DUP3 PUSH2 0x1619 JUMP JUMPDEST PUSH2 0x1660 DUP7 DUP4 PUSH2 0x1619 JUMP JUMPDEST SWAP6 POP DUP1 NOT DUP5 AND SWAP4 POP DUP1 DUP7 AND DUP5 OR SWAP3 POP POP POP SWAP4 SWAP3 POP POP POP JUMP JUMPDEST PUSH1 0x0 DUP2 SWAP1 POP SWAP2 SWAP1 POP JUMP JUMPDEST PUSH1 0x0 PUSH2 0x169D PUSH2 0x1698 PUSH2 0x1693 DUP5 PUSH2 0x10BF JUMP JUMPDEST PUSH2 0x1678 JUMP JUMPDEST PUSH2 0x10BF JUMP JUMPDEST SWAP1 POP SWAP2 SWAP1 POP JUMP JUMPDEST PUSH1 0x0 DUP2 SWAP1 POP SWAP2 SWAP1 POP JUMP JUMPDEST PUSH2 0x16B7 DUP4 PUSH2 0x1682 JUMP JUMPDEST PUSH2 0x16CB PUSH2 0x16C3 DUP3 PUSH2 0x16A4 JUMP JUMPDEST DUP5 DUP5 SLOAD PUSH2 0x1626 JUMP JUMPDEST DUP3 SSTORE POP POP POP POP JUMP JUMPDEST PUSH1 0x0 SWAP1 JUMP JUMPDEST PUSH2 0x16E0 PUSH2 0x16D3 JUMP JUMPDEST PUSH2 0x16EB DUP2 DUP5 DUP5 PUSH2 0x16AE JUMP JUMPDEST POP POP POP JUMP JUMPDEST JUMPDEST DUP2 DUP2 LT ISZERO PUSH2 0x170F JUMPI PUSH2 0x1704 PUSH1 0x0 DUP3 PUSH2 0x16D8 JUMP JUMPDEST PUSH1 0x1 DUP2 ADD SWAP1 POP PUSH2 0x16F1 JUMP JUMPDEST POP POP JUMP JUMPDEST PUSH1 0x1F DUP3 GT ISZERO PUSH2 0x1754 JUMPI PUSH2 0x1725 DUP2 PUSH2 0x15F4 JUMP JUMPDEST PUSH2 0x172E DUP5 PUSH2 0x1609 JUMP JUMPDEST DUP2 ADD PUSH1 0x20 DUP6 LT ISZERO PUSH2 0x173D JUMPI DUP2 SWAP1 POP JUMPDEST PUSH2 0x1751 PUSH2 0x1749 DUP6 PUSH2 0x1609 JUMP JUMPDEST DUP4 ADD DUP3 PUSH2 0x16F0 JUMP JUMPDEST POP POP JUMPDEST POP POP POP JUMP JUMPDEST PUSH1 0x0 DUP3 DUP3 SHR SWAP1 POP SWAP3 SWAP2 POP POP JUMP JUMPDEST PUSH1 0x0 PUSH2 0x1777 PUSH1 0x0 NOT DUP5 PUSH1 0x8 MUL PUSH2 0x1759 JUMP JUMPDEST NOT DUP1 DUP4 AND SWAP2 POP POP SWAP3 SWAP2 POP POP JUMP JUMPDEST PUSH1 0x0 PUSH2 0x1790 DUP4 DUP4 PUSH2 0x1766 JUMP JUMPDEST SWAP2 POP DUP3 PUSH1 0x2 MUL DUP3 OR SWAP1 POP SWAP3 SWAP2 POP POP JUMP JUMPDEST PUSH2 0x17AA DUP4 DUP4 PUSH2 0x15BA JUMP JUMPDEST PUSH8 0xFFFFFFFFFFFFFFFF DUP2 GT ISZERO PUSH2 0x17C3 JUMPI PUSH2 0x17C2 PUSH2 0x15C5 JUMP JUMPDEST JUMPDEST PUSH2 0x17CD DUP3 SLOAD PUSH2 0x1463 JUMP JUMPDEST PUSH2 0x17D8 DUP3 DUP3 DUP6 PUSH2 0x1713 JUMP JUMPDEST PUSH1 0x0 PUSH1 0x1F DUP4 GT PUSH1 0x1 DUP2 EQ PUSH2 0x1807 JUMPI PUSH1 0x0 DUP5 ISZERO PUSH2 0x17F5 JUMPI DUP3 DUP8 ADD CALLDATALOAD SWAP1 POP JUMPDEST PUSH2 0x17FF DUP6 DUP3 PUSH2 0x1784 JUMP JUMPDEST DUP7 SSTORE POP PUSH2 0x1867 JUMP JUMPDEST PUSH1 0x1F NOT DUP5 AND PUSH2 0x1815 DUP7 PUSH2 0x15F4 JUMP JUMPDEST PUSH1 0x0 JUMPDEST DUP3 DUP2 LT ISZERO PUSH2 0x183D JUMPI DUP5 DUP10 ADD CALLDATALOAD DUP3 SSTORE PUSH1 0x1 DUP3 ADD SWAP2 POP PUSH1 0x20 DUP6 ADD SWAP5 POP PUSH1 0x20 DUP2 ADD SWAP1 POP PUSH2 0x1818 JUMP JUMPDEST DUP7 DUP4 LT ISZERO PUSH2 0x185A JUMPI DUP5 DUP10 ADD CALLDATALOAD PUSH2 0x1856 PUSH1 0x1F DUP10 AND DUP3 PUSH2 0x1766 JUMP JUMPDEST DUP4 SSTORE POP JUMPDEST PUSH1 0x1 PUSH1 0x2 DUP9 MUL ADD DUP9 SSTORE POP POP POP JUMPDEST POP POP POP POP POP POP POP JUMP JUMPDEST PUSH32 0x526571756573746F72206973206E6F7420612063616E6469646174652E000000 PUSH1 0x0 DUP3 ADD MSTORE POP JUMP JUMPDEST PUSH1 0x0 PUSH2 0x18A6 PUSH1 0x1D DUP4 PUSH2 0xFEE JUMP JUMPDEST SWAP2 POP PUSH2 0x18B1 DUP3 PUSH2 0x1870 JUMP JUMPDEST PUSH1 0x20 DUP3 ADD SWAP1 POP SWAP2 SWAP1 POP JUMP JUMPDEST PUSH1 0x0 PUSH1 0x20 DUP3 ADD SWAP1 POP DUP2 DUP2 SUB PUSH1 0x0 DUP4 ADD MSTORE PUSH2 0x18D5 DUP2 PUSH2 0x1899 JUMP JUMPDEST SWAP1 POP SWAP2 SWAP1 POP JUMP INVALID LOG2 PUSH5 0x6970667358 0x22 SLT KECCAK256 0x1E 0x49 0xCC DUP3 SHR SWAP14 0xCD 0x5C PUSH8 0xFB6B00B2C68B377D RETURN PUSH31 0x43CB6C8CC98CED778E929AEF3964736F6C6343000812003360806040523480 ISZERO PUSH3 0x11 JUMPI PUSH1 0x0 DUP1 REVERT JUMPDEST POP PUSH1 0x40 MLOAD PUSH3 0x1EBD CODESIZE SUB DUP1 PUSH3 0x1EBD DUP4 CODECOPY DUP2 DUP2 ADD PUSH1 0x40 MSTORE DUP2 ADD SWAP1 PUSH3 0x37 SWAP2 SWAP1 PUSH3 0x34E JUMP JUMPDEST CALLER PUSH1 0x0 DUP1 PUSH2 0x100 EXP DUP2 SLOAD DUP2 PUSH20 0xFFFFFFFFFFFFFFFFFFFFFFFFFFFFFFFFFFFFFFFF MUL NOT AND SWAP1 DUP4 PUSH20 0xFFFFFFFFFFFFFFFFFFFFFFFFFFFFFFFFFFFFFFFF AND MUL OR SWAP1 SSTORE POP DUP1 PUSH1 0x1 PUSH1 0x0 PUSH2 0x100 EXP DUP2 SLOAD DUP2 PUSH20 0xFFFFFFFFFFFFFFFFFFFFFFFFFFFFFFFFFFFFFFFF MUL NOT AND SWAP1 DUP4 PUSH20 0xFFFFFFFFFFFFFFFFFFFFFFFFFFFFFFFFFFFFFFFF AND MUL OR SWAP1 SSTORE POP DUP5 PUSH1 0x5 SWAP1 DUP2 PUSH3 0xC9 SWAP2 SWAP1 PUSH3 0x674 JUMP JUMPDEST POP DUP4 PUSH1 0x7 DUP2 SWAP1 SSTORE POP DUP3 PUSH1 0x6 SWAP1 DUP2 PUSH3 0xE2 SWAP2 SWAP1 PUSH3 0x674 JUMP JUMPDEST POP DUP2 PUSH1 0x8 SWAP1 DUP2 PUSH3 0xF4 SWAP2 SWAP1 PUSH3 0x674 JUMP JUMPDEST POP PUSH1 0x1 PUSH1 0x4 PUSH1 0x0 PUSH2 0x100 EXP DUP2 SLOAD DUP2 PUSH1 0xFF MUL NOT AND SWAP1 DUP4 ISZERO ISZERO MUL OR SWAP1 SSTORE POP POP POP POP POP POP PUSH3 0x75B JUMP JUMPDEST PUSH1 0x0 PUSH1 0x40 MLOAD SWAP1 POP SWAP1 JUMP JUMPDEST PUSH1 0x0 DUP1 REVERT JUMPDEST PUSH1 0x0 DUP1 REVERT JUMPDEST PUSH1 0x0 DUP1 REVERT JUMPDEST PUSH1 0x0 DUP1 REVERT JUMPDEST PUSH1 0x0 PUSH1 0x1F NOT PUSH1 0x1F DUP4 ADD AND SWAP1 POP SWAP2 SWAP1 POP JUMP JUMPDEST PUSH32 0x4E487B7100000000000000000000000000000000000000000000000000000000 PUSH1 0x0 MSTORE PUSH1 0x41 PUSH1 0x4 MSTORE PUSH1 0x24 PUSH1 0x0 REVERT JUMPDEST PUSH3 0x184 DUP3 PUSH3 0x139 JUMP JUMPDEST DUP2 ADD DUP2 DUP2 LT PUSH8 0xFFFFFFFFFFFFFFFF DUP3 GT OR ISZERO PUSH3 0x1A6 JUMPI PUSH3 0x1A5 PUSH3 0x14A JUMP JUMPDEST JUMPDEST DUP1 PUSH1 0x40 MSTORE POP POP POP JUMP JUMPDEST PUSH1 0x0 PUSH3 0x1BB PUSH3 0x11B JUMP JUMPDEST SWAP1 POP PUSH3 0x1C9 DUP3 DUP3 PUSH3 0x179 JUMP JUMPDEST SWAP2 SWAP1 POP JUMP JUMPDEST PUSH1 0x0 PUSH8 0xFFFFFFFFFFFFFFFF DUP3 GT ISZERO PUSH3 0x1EC JUMPI PUSH3 0x1EB PUSH3 0x14A JUMP JUMPDEST JUMPDEST PUSH3 0x1F7 DUP3 PUSH3 0x139 JUMP JUMPDEST SWAP1 POP PUSH1 0x20 DUP2 ADD SWAP1 POP SWAP2 SWAP1 POP JUMP JUMPDEST PUSH1 0x0 JUMPDEST DUP4 DUP2 LT ISZERO PUSH3 0x224 JUMPI DUP1 DUP3 ADD MLOAD DUP2 DUP5 ADD MSTORE PUSH1 0x20 DUP2 ADD SWAP1 POP PUSH3 0x207 JUMP JUMPDEST PUSH1 0x0 DUP5 DUP5 ADD MSTORE POP POP POP POP JUMP JUMPDEST PUSH1 0x0 PUSH3 0x247 PUSH3 0x241 DUP5 PUSH3 0x1CE JUMP JUMPDEST PUSH3 0x1AF JUMP JUMPDEST SWAP1 POP DUP3 DUP2 MSTORE PUSH1 0x20 DUP2 ADD DUP5 DUP5 DUP5 ADD GT ISZERO PUSH3 0x266 JUMPI PUSH3 0x265 PUSH3 0x134 JUMP JUMPDEST JUMPDEST PUSH3 0x273 DUP5 DUP3 DUP6 PUSH3 0x204 JUMP JUMPDEST POP SWAP4 SWAP3 POP POP POP JUMP JUMPDEST PUSH1 0x0 DUP3 PUSH1 0x1F DUP4 ADD SLT PUSH3 0x293 JUMPI PUSH3 0x292 PUSH3 0x12F JUMP JUMPDEST JUMPDEST DUP2 MLOAD PUSH3 0x2A5 DUP5 DUP3 PUSH1 0x20 DUP7 ADD PUSH3 0x230 JUMP JUMPDEST SWAP2 POP POP SWAP3 SWAP2 POP POP JUMP JUMPDEST PUSH1 0x0 DUP2 SWAP1 POP SWAP2 SWAP1 POP JUMP JUMPDEST PUSH3 0x2C3 DUP2 PUSH3 0x2AE JUMP JUMPDEST DUP2 EQ PUSH3 0x2CF JUMPI PUSH1 0x0 DUP1 REVERT JUMPDEST POP JUMP JUMPDEST PUSH1 0x0 DUP2 MLOAD SWAP1 POP PUSH3 0x2E3 DUP2 PUSH3 0x2B8 JUMP JUMPDEST SWAP3 SWAP2 POP POP JUMP JUMPDEST PUSH1 0x0 PUSH20 0xFFFFFFFFFFFFFFFFFFFFFFFFFFFFFFFFFFFFFFFF DUP3 AND SWAP1 POP SWAP2 SWAP1 POP JUMP JUMPDEST PUSH1 0x0 PUSH3 0x316 DUP3 PUSH3 0x2E9 JUMP JUMPDEST SWAP1 POP SWAP2 SWAP1 POP JUMP JUMPDEST PUSH3 0x328 DUP2 PUSH3 0x309 JUMP JUMPDEST DUP2 EQ PUSH3 0x334 JUMPI PUSH1 0x0 DUP1 REVERT JUMPDEST POP JUMP JUMPDEST PUSH1 0x0 DUP2 MLOAD SWAP1 POP PUSH3 0x348 DUP2 PUSH3 0x31D JUMP JUMPDEST SWAP3 SWAP2 POP POP JUMP JUMPDEST PUSH1 0x0 DUP1 PUSH1 0x0 DUP1 PUSH1 0x0 PUSH1 0xA0 DUP7 DUP9 SUB SLT ISZERO PUSH3 0x36D JUMPI PUSH3 0x36C PUSH3 0x125 JUMP JUMPDEST JUMPDEST PUSH1 0x0 DUP7 ADD MLOAD PUSH8 0xFFFFFFFFFFFFFFFF DUP2 GT ISZERO PUSH3 0x38E JUMPI PUSH3 0x38D PUSH3 0x12A JUMP JUMPDEST JUMPDEST PUSH3 0x39C DUP9 DUP3 DUP10 ADD PUSH3 0x27B JUMP JUMPDEST SWAP6 POP POP PUSH1 0x20 PUSH3 0x3AF DUP9 DUP3 DUP10 ADD PUSH3 0x2D2 JUMP JUMPDEST SWAP5 POP POP PUSH1 0x40 DUP7 ADD MLOAD PUSH8 0xFFFFFFFFFFFFFFFF DUP2 GT ISZERO PUSH3 0x3D3 JUMPI PUSH3 0x3D2 PUSH3 0x12A JUMP JUMPDEST JUMPDEST PUSH3 0x3E1 DUP9 DUP3 DUP10 ADD PUSH3 0x27B JUMP JUMPDEST SWAP4 POP POP PUSH1 0x60 DUP7 ADD MLOAD PUSH8 0xFFFFFFFFFFFFFFFF DUP2 GT ISZERO PUSH3 0x405 JUMPI PUSH3 0x404 PUSH3 0x12A JUMP JUMPDEST JUMPDEST PUSH3 0x413 DUP9 DUP3 DUP10 ADD PUSH3 0x27B JUMP JUMPDEST SWAP3 POP POP PUSH1 0x80 PUSH3 0x426 DUP9 DUP3 DUP10 ADD PUSH3 0x337 JUMP JUMPDEST SWAP2 POP POP SWAP3 SWAP6 POP SWAP3 SWAP6 SWAP1 SWAP4 POP JUMP JUMPDEST PUSH1 0x0 DUP2 MLOAD SWAP1 POP SWAP2 SWAP1 POP JUMP JUMPDEST PUSH32 0x4E487B7100000000000000000000000000000000000000000000000000000000 PUSH1 0x0 MSTORE PUSH1 0x22 PUSH1 0x4 MSTORE PUSH1 0x24 PUSH1 0x0 REVERT JUMPDEST PUSH1 0x0 PUSH1 0x2 DUP3 DIV SWAP1 POP PUSH1 0x1 DUP3 AND DUP1 PUSH3 0x486 JUMPI PUSH1 0x7F DUP3 AND SWAP2 POP JUMPDEST PUSH1 0x20 DUP3 LT DUP2 SUB PUSH3 0x49C JUMPI PUSH3 0x49B PUSH3 0x43E JUMP JUMPDEST JUMPDEST POP SWAP2 SWAP1 POP JUMP JUMPDEST PUSH1 0x0 DUP2 SWAP1 POP DUP2 PUSH1 0x0 MSTORE PUSH1 0x20 PUSH1 0x0 KECCAK256 SWAP1 POP SWAP2 SWAP1 POP JUMP JUMPDEST PUSH1 0x0 PUSH1 0x20 PUSH1 0x1F DUP4 ADD DIV SWAP1 POP SWAP2 SWAP1 POP JUMP JUMPDEST PUSH1 0x0 DUP3 DUP3 SHL SWAP1 POP SWAP3 SWAP2 POP POP JUMP JUMPDEST PUSH1 0x0 PUSH1 0x8 DUP4 MUL PUSH3 0x506 PUSH32 0xFFFFFFFFFFFFFFFFFFFFFFFFFFFFFFFFFFFFFFFFFFFFFFFFFFFFFFFFFFFFFFFF DUP3 PUSH3 0x4C7 JUMP JUMPDEST PUSH3 0x512 DUP7 DUP4 PUSH3 0x4C7 JUMP JUMPDEST SWAP6 POP DUP1 NOT DUP5 AND SWAP4 POP DUP1 DUP7 AND DUP5 OR SWAP3 POP POP POP SWAP4 SWAP3 POP POP POP JUMP JUMPDEST PUSH1 0x0 DUP2 SWAP1 POP SWAP2 SWAP1 POP JUMP JUMPDEST PUSH1 0x0 PUSH3 0x555 PUSH3 0x54F PUSH3 0x549 DUP5 PUSH3 0x2AE JUMP JUMPDEST PUSH3 0x52A JUMP JUMPDEST PUSH3 0x2AE JUMP JUMPDEST SWAP1 POP SWAP2 SWAP1 POP JUMP JUMPDEST PUSH1 0x0 DUP2 SWAP1 POP SWAP2 SWAP1 POP JUMP JUMPDEST PUSH3 0x571 DUP4 PUSH3 0x534 JUMP JUMPDEST PUSH3 0x589 PUSH3 0x580 DUP3 PUSH3 0x55C JUMP JUMPDEST DUP5 DUP5 SLOAD PUSH3 0x4D4 JUMP JUMPDEST DUP3 SSTORE POP POP POP POP JUMP JUMPDEST PUSH1 0x0 SWAP1 JUMP JUMPDEST PUSH3 0x5A0 PUSH3 0x591 JUMP JUMPDEST PUSH3 0x5AD DUP2 DUP5 DUP5 PUSH3 0x566 JUMP JUMPDEST POP POP POP JUMP JUMPDEST JUMPDEST DUP2 DUP2 LT ISZERO PUSH3 0x5D5 JUMPI PUSH3 0x5C9 PUSH1 0x0 DUP3 PUSH3 0x596 JUMP JUMPDEST PUSH1 0x1 DUP2 ADD SWAP1 POP PUSH3 0x5B3 JUMP JUMPDEST POP POP JUMP JUMPDEST PUSH1 0x1F DUP3 GT ISZERO PUSH3 0x624 JUMPI PUSH3 0x5EE DUP2 PUSH3 0x4A2 JUMP JUMPDEST PUSH3 0x5F9 DUP5 PUSH3 0x4B7 JUMP JUMPDEST DUP2 ADD PUSH1 0x20 DUP6 LT ISZERO PUSH3 0x609 JUMPI DUP2 SWAP1 POP JUMPDEST PUSH3 0x621 PUSH3 0x618 DUP6 PUSH3 0x4B7 JUMP JUMPDEST DUP4 ADD DUP3 PUSH3 0x5B2 JUMP JUMPDEST POP POP JUMPDEST POP POP POP JUMP JUMPDEST PUSH1 0x0 DUP3 DUP3 SHR SWAP1 POP SWAP3 SWAP2 POP POP JUMP JUMPDEST PUSH1 0x0 PUSH3 0x649 PUSH1 0x0 NOT DUP5 PUSH1 0x8 MUL PUSH3 0x629 JUMP JUMPDEST NOT DUP1 DUP4 AND SWAP2 POP POP SWAP3 SWAP2 POP POP JUMP JUMPDEST PUSH1 0x0 PUSH3 0x664 DUP4 DUP4 PUSH3 0x636 JUMP JUMPDEST SWAP2 POP DUP3 PUSH1 0x2 MUL DUP3 OR SWAP1 POP SWAP3 SWAP2 POP POP JUMP JUMPDEST PUSH3 0x67F DUP3 PUSH3 0x433 JUMP JUMPDEST PUSH8 0xFFFFFFFFFFFFFFFF DUP2 GT ISZERO PUSH3 0x69B JUMPI PUSH3 0x69A PUSH3 0x14A JUMP JUMPDEST JUMPDEST PUSH3 0x6A7 DUP3 SLOAD PUSH3 0x46D JUMP JUMPDEST PUSH3 0x6B4 DUP3 DUP3 DUP6 PUSH3 0x5D9 JUMP JUMPDEST PUSH1 0x0 PUSH1 0x20 SWAP1 POP PUSH1 0x1F DUP4 GT PUSH1 0x1 DUP2 EQ PUSH3 0x6EC JUMPI PUSH1 0x0 DUP5 ISZERO PUSH3 0x6D7 JUMPI DUP3 DUP8 ADD MLOAD SWAP1 POP JUMPDEST PUSH3 0x6E3 DUP6 DUP3 PUSH3 0x656 JUMP JUMPDEST DUP7 SSTORE POP PUSH3 0x753 JUMP JUMPDEST PUSH1 0x1F NOT DUP5 AND PUSH3 0x6FC DUP7 PUSH3 0x4A2 JUMP JUMPDEST PUSH1 0x0 JUMPDEST DUP3 DUP2 LT ISZERO PUSH3 0x726 JUMPI DUP5 DUP10 ADD MLOAD DUP3 SSTORE PUSH1 0x1 DUP3 ADD SWAP2 POP PUSH1 0x20 DUP6 ADD SWAP5 POP PUSH1 0x20 DUP2 ADD SWAP1 POP PUSH3 0x6FF JUMP JUMPDEST DUP7 DUP4 LT ISZERO PUSH3 0x746 JUMPI DUP5 DUP10 ADD MLOAD PUSH3 0x742 PUSH1 0x1F DUP10 AND DUP3 PUSH3 0x636 JUMP JUMPDEST DUP4 SSTORE POP JUMPDEST PUSH1 0x1 PUSH1 0x2 DUP9 MUL ADD DUP9 SSTORE POP POP POP JUMPDEST POP POP POP POP POP POP JUMP JUMPDEST PUSH2 0x1752 DUP1 PUSH3 0x76B PUSH1 0x0 CODECOPY PUSH1 0x0 RETURN INVALID PUSH1 0x80 PUSH1 0x40 MSTORE CALLVALUE DUP1 ISZERO PUSH2 0x10 JUMPI PUSH1 0x0 DUP1 REVERT JUMPDEST POP PUSH1 0x4 CALLDATASIZE LT PUSH2 0x12C JUMPI PUSH1 0x0 CALLDATALOAD PUSH1 0xE0 SHR DUP1 PUSH4 0x8DA5CB5B GT PUSH2 0xAD JUMPI DUP1 PUSH4 0xDE802761 GT PUSH2 0x71 JUMPI DUP1 PUSH4 0xDE802761 EQ PUSH2 0x335 JUMPI DUP1 PUSH4 0xE6CA2977 EQ PUSH2 0x365 JUMPI DUP1 PUSH4 0xF39F05F7 EQ PUSH2 0x383 JUMPI DUP1 PUSH4 0xFBEAA42F EQ PUSH2 0x3B3 JUMPI DUP1 PUSH4 0xFC107720 EQ PUSH2 0x3D1 JUMPI PUSH2 0x12C JUMP JUMPDEST DUP1 PUSH4 0x8DA5CB5B EQ PUSH2 0x27B JUMPI DUP1 PUSH4 0x9407921C EQ PUSH2 0x299 JUMPI DUP1 PUSH4 0xC524E7F6 EQ PUSH2 0x2C9 JUMPI DUP1 PUSH4 0xCA9D2C6B EQ PUSH2 0x2E7 JUMPI DUP1 PUSH4 0xCAA4FBBD EQ PUSH2 0x317 JUMPI PUSH2 0x12C JUMP JUMPDEST DUP1 PUSH4 0x55C1C478 GT PUSH2 0xF4 JUMPI DUP1 PUSH4 0x55C1C478 EQ PUSH2 0x1E9 JUMPI DUP1 PUSH4 0x5F891D98 EQ PUSH2 0x207 JUMPI DUP1 PUSH4 0x6947A020 EQ PUSH2 0x223 JUMPI DUP1 PUSH4 0x7B9F1976 EQ PUSH2 0x23F JUMPI DUP1 PUSH4 0x7D2CB98D EQ PUSH2 0x25D JUMPI PUSH2 0x12C JUMP JUMPDEST DUP1 PUSH4 0xFBDD521 EQ PUSH2 0x131 JUMPI DUP1 PUSH4 0x101D4FB9 EQ PUSH2 0x161 JUMPI DUP1 PUSH4 0x244DED7A EQ PUSH2 0x191 JUMPI DUP1 PUSH4 0x28A3D83A EQ PUSH2 0x1AD JUMPI DUP1 PUSH4 0x481FD6B5 EQ PUSH2 0x1CB JUMPI JUMPDEST PUSH1 0x0 DUP1 REVERT JUMPDEST PUSH2 0x14B PUSH1 0x4 DUP1 CALLDATASIZE SUB DUP2 ADD SWAP1 PUSH2 0x146 SWAP2 SWAP1 PUSH2 0x10BE JUMP JUMPDEST PUSH2 0x3ED JUMP JUMPDEST PUSH1 0x40 MLOAD PUSH2 0x158 SWAP2 SWAP1 PUSH2 0x1119 JUMP JUMPDEST PUSH1 0x40 MLOAD DUP1 SWAP2 SUB SWAP1 RETURN JUMPDEST PUSH2 0x17B PUSH1 0x4 DUP1 CALLDATASIZE SUB DUP2 ADD SWAP1 PUSH2 0x176 SWAP2 SWAP1 PUSH2 0x10BE JUMP JUMPDEST PUSH2 0x61F JUMP JUMPDEST PUSH1 0x40 MLOAD PUSH2 0x188 SWAP2 SWAP1 PUSH2 0x1119 JUMP JUMPDEST PUSH1 0x40 MLOAD DUP1 SWAP2 SUB SWAP1 RETURN JUMPDEST PUSH2 0x1AB PUSH1 0x4 DUP1 CALLDATASIZE SUB DUP2 ADD SWAP1 PUSH2 0x1A6 SWAP2 SWAP1 PUSH2 0x1134 JUMP JUMPDEST PUSH2 0x69C JUMP JUMPDEST STOP JUMPDEST PUSH2 0x1B5 PUSH2 0x76D JUMP JUMPDEST PUSH1 0x40 MLOAD PUSH2 0x1C2 SWAP2 SWAP1 PUSH2 0x121F JUMP JUMPDEST PUSH1 0x40 MLOAD DUP1 SWAP2 SUB SWAP1 RETURN JUMPDEST PUSH2 0x1D3 PUSH2 0x831 JUMP JUMPDEST PUSH1 0x40 MLOAD PUSH2 0x1E0 SWAP2 SWAP1 PUSH2 0x12D1 JUMP JUMPDEST PUSH1 0x40 MLOAD DUP1 SWAP2 SUB SWAP1 RETURN JUMPDEST PUSH2 0x1F1 PUSH2 0x8C3 JUMP JUMPDEST PUSH1 0x40 MLOAD PUSH2 0x1FE SWAP2 SWAP1 PUSH2 0x1302 JUMP JUMPDEST PUSH1 0x40 MLOAD DUP1 SWAP2 SUB SWAP1 RETURN JUMPDEST PUSH2 0x221 PUSH1 0x4 DUP1 CALLDATASIZE SUB DUP2 ADD SWAP1 PUSH2 0x21C SWAP2 SWAP1 PUSH2 0x1353 JUMP JUMPDEST PUSH2 0x8ED JUMP JUMPDEST STOP JUMPDEST PUSH2 0x23D PUSH1 0x4 DUP1 CALLDATASIZE SUB DUP2 ADD SWAP1 PUSH2 0x238 SWAP2 SWAP1 PUSH2 0x10BE JUMP JUMPDEST PUSH2 0x967 JUMP JUMPDEST STOP JUMPDEST PUSH2 0x247 PUSH2 0x9D2 JUMP JUMPDEST PUSH1 0x40 MLOAD PUSH2 0x254 SWAP2 SWAP1 PUSH2 0x13A2 JUMP JUMPDEST PUSH1 0x40 MLOAD DUP1 SWAP2 SUB SWAP1 RETURN JUMPDEST PUSH2 0x265 PUSH2 0x9DC JUMP JUMPDEST PUSH1 0x40 MLOAD PUSH2 0x272 SWAP2 SWAP1 PUSH2 0x121F JUMP JUMPDEST PUSH1 0x40 MLOAD DUP1 SWAP2 SUB SWAP1 RETURN JUMPDEST PUSH2 0x283 PUSH2 0xAA0 JUMP JUMPDEST PUSH1 0x40 MLOAD PUSH2 0x290 SWAP2 SWAP1 PUSH2 0x1302 JUMP JUMPDEST PUSH1 0x40 MLOAD DUP1 SWAP2 SUB SWAP1 RETURN JUMPDEST PUSH2 0x2B3 PUSH1 0x4 DUP1 CALLDATASIZE SUB DUP2 ADD SWAP1 PUSH2 0x2AE SWAP2 SWAP1 PUSH2 0x13BD JUMP JUMPDEST PUSH2 0xAC4 JUMP JUMPDEST PUSH1 0x40 MLOAD PUSH2 0x2C0 SWAP2 SWAP1 PUSH2 0x121F JUMP JUMPDEST PUSH1 0x40 MLOAD DUP1 SWAP2 SUB SWAP1 RETURN JUMPDEST PUSH2 0x2D1 PUSH2 0xB89 JUMP JUMPDEST PUSH1 0x40 MLOAD PUSH2 0x2DE SWAP2 SWAP1 PUSH2 0x12D1 JUMP JUMPDEST PUSH1 0x40 MLOAD DUP1 SWAP2 SUB SWAP1 RETURN JUMPDEST PUSH2 0x301 PUSH1 0x4 DUP1 CALLDATASIZE SUB DUP2 ADD SWAP1 PUSH2 0x2FC SWAP2 SWAP1 PUSH2 0x13BD JUMP JUMPDEST PUSH2 0xC1B JUMP JUMPDEST PUSH1 0x40 MLOAD PUSH2 0x30E SWAP2 SWAP1 PUSH2 0x1461 JUMP JUMPDEST PUSH1 0x40 MLOAD DUP1 SWAP2 SUB SWAP1 RETURN JUMPDEST PUSH2 0x31F PUSH2 0xC96 JUMP JUMPDEST PUSH1 0x40 MLOAD PUSH2 0x32C SWAP2 SWAP1 PUSH2 0x1119 JUMP JUMPDEST PUSH1 0x40 MLOAD DUP1 SWAP2 SUB SWAP1 RETURN JUMPDEST PUSH2 0x34F PUSH1 0x4 DUP1 CALLDATASIZE SUB DUP2 ADD SWAP1 PUSH2 0x34A SWAP2 SWAP1 PUSH2 0x1353 JUMP JUMPDEST PUSH2 0xCAD JUMP JUMPDEST PUSH1 0x40 MLOAD PUSH2 0x35C SWAP2 SWAP1 PUSH2 0x1302 JUMP JUMPDEST PUSH1 0x40 MLOAD DUP1 SWAP2 SUB SWAP1 RETURN JUMPDEST PUSH2 0x36D PUSH2 0xCFB JUMP JUMPDEST PUSH1 0x40 MLOAD PUSH2 0x37A SWAP2 SWAP1 PUSH2 0x121F JUMP JUMPDEST PUSH1 0x40 MLOAD DUP1 SWAP2 SUB SWAP1 RETURN JUMPDEST PUSH2 0x39D PUSH1 0x4 DUP1 CALLDATASIZE SUB DUP2 ADD SWAP1 PUSH2 0x398 SWAP2 SWAP1 PUSH2 0x1134 JUMP JUMPDEST PUSH2 0xDBF JUMP JUMPDEST PUSH1 0x40 MLOAD PUSH2 0x3AA SWAP2 SWAP1 PUSH2 0x1461 JUMP JUMPDEST PUSH1 0x40 MLOAD DUP1 SWAP2 SUB SWAP1 RETURN JUMPDEST PUSH2 0x3BB PUSH2 0xDDF JUMP JUMPDEST PUSH1 0x40 MLOAD PUSH2 0x3C8 SWAP2 SWAP1 PUSH2 0x12D1 JUMP JUMPDEST PUSH1 0x40 MLOAD DUP1 SWAP2 SUB SWAP1 RETURN JUMPDEST PUSH2 0x3EB PUSH1 0x4 DUP1 CALLDATASIZE SUB DUP2 ADD SWAP1 PUSH2 0x3E6 SWAP2 SWAP1 PUSH2 0x13BD JUMP JUMPDEST PUSH2 0xE71 JUMP JUMPDEST STOP JUMPDEST PUSH1 0x0 DUP1 DUP4 SWAP1 POP PUSH2 0x3FC DUP4 PUSH2 0xC1B JUMP JUMPDEST PUSH1 0x4 DUP2 GT ISZERO PUSH2 0x40E JUMPI PUSH2 0x40D PUSH2 0x13EA JUMP JUMPDEST JUMPDEST DUP2 PUSH20 0xFFFFFFFFFFFFFFFFFFFFFFFFFFFFFFFFFFFFFFFF AND PUSH4 0xF39F05F7 ADDRESS PUSH1 0x40 MLOAD DUP3 PUSH4 0xFFFFFFFF AND PUSH1 0xE0 SHL DUP2 MSTORE PUSH1 0x4 ADD PUSH2 0x447 SWAP2 SWAP1 PUSH2 0x1302 JUMP JUMPDEST PUSH1 0x20 PUSH1 0x40 MLOAD DUP1 DUP4 SUB DUP2 DUP7 GAS STATICCALL ISZERO DUP1 ISZERO PUSH2 0x464 JUMPI RETURNDATASIZE PUSH1 0x0 DUP1 RETURNDATACOPY RETURNDATASIZE PUSH1 0x0 REVERT JUMPDEST POP POP POP POP PUSH1 0x40 MLOAD RETURNDATASIZE PUSH1 0x1F NOT PUSH1 0x1F DUP3 ADD AND DUP3 ADD DUP1 PUSH1 0x40 MSTORE POP DUP2 ADD SWAP1 PUSH2 0x488 SWAP2 SWAP1 PUSH2 0x1491 JUMP JUMPDEST PUSH1 0x4 DUP2 GT ISZERO PUSH2 0x49A JUMPI PUSH2 0x499 PUSH2 0x13EA JUMP JUMPDEST JUMPDEST SUB PUSH2 0x5AC JUMPI PUSH1 0x3 PUSH1 0x0 DUP5 PUSH1 0x4 DUP2 GT ISZERO PUSH2 0x4B6 JUMPI PUSH2 0x4B5 PUSH2 0x13EA JUMP JUMPDEST JUMPDEST PUSH1 0x4 DUP2 GT ISZERO PUSH2 0x4C8 JUMPI PUSH2 0x4C7 PUSH2 0x13EA JUMP JUMPDEST JUMPDEST DUP2 MSTORE PUSH1 0x20 ADD SWAP1 DUP2 MSTORE PUSH1 0x20 ADD PUSH1 0x0 KECCAK256 DUP5 SWAP1 DUP1 PUSH1 0x1 DUP2 SLOAD ADD DUP1 DUP3 SSTORE DUP1 SWAP2 POP POP PUSH1 0x1 SWAP1 SUB SWAP1 PUSH1 0x0 MSTORE PUSH1 0x20 PUSH1 0x0 KECCAK256 ADD PUSH1 0x0 SWAP1 SWAP2 SWAP1 SWAP2 SWAP1 SWAP2 PUSH2 0x100 EXP DUP2 SLOAD DUP2 PUSH20 0xFFFFFFFFFFFFFFFFFFFFFFFFFFFFFFFFFFFFFFFF MUL NOT AND SWAP1 DUP4 PUSH20 0xFFFFFFFFFFFFFFFFFFFFFFFFFFFFFFFFFFFFFFFF AND MUL OR SWAP1 SSTORE POP DUP1 PUSH20 0xFFFFFFFFFFFFFFFFFFFFFFFFFFFFFFFFFFFFFFFF AND PUSH4 0xFC107720 DUP5 PUSH1 0x40 MLOAD DUP3 PUSH4 0xFFFFFFFF AND PUSH1 0xE0 SHL DUP2 MSTORE PUSH1 0x4 ADD PUSH2 0x570 SWAP2 SWAP1 PUSH2 0x1461 JUMP JUMPDEST PUSH1 0x0 PUSH1 0x40 MLOAD DUP1 DUP4 SUB DUP2 PUSH1 0x0 DUP8 DUP1 EXTCODESIZE ISZERO DUP1 ISZERO PUSH2 0x58A JUMPI PUSH1 0x0 DUP1 REVERT JUMPDEST POP GAS CALL ISZERO DUP1 ISZERO PUSH2 0x59E JUMPI RETURNDATASIZE PUSH1 0x0 DUP1 RETURNDATACOPY RETURNDATASIZE PUSH1 0x0 REVERT JUMPDEST POP POP POP POP PUSH1 0x1 SWAP2 POP POP PUSH2 0x619 JUMP JUMPDEST DUP3 PUSH1 0x2 PUSH1 0x0 DUP7 PUSH20 0xFFFFFFFFFFFFFFFFFFFFFFFFFFFFFFFFFFFFFFFF AND PUSH20 0xFFFFFFFFFFFFFFFFFFFFFFFFFFFFFFFFFFFFFFFF AND DUP2 MSTORE PUSH1 0x20 ADD SWAP1 DUP2 MSTORE PUSH1 0x20 ADD PUSH1 0x0 KECCAK256 PUSH1 0x0 PUSH2 0x100 EXP DUP2 SLOAD DUP2 PUSH1 0xFF MUL NOT AND SWAP1 DUP4 PUSH1 0x4 DUP2 GT ISZERO PUSH2 0x60E JUMPI PUSH2 0x60D PUSH2 0x13EA JUMP JUMPDEST JUMPDEST MUL OR SWAP1 SSTORE POP PUSH1 0x0 SWAP2 POP POP JUMPDEST SWAP3 SWAP2 POP POP JUMP JUMPDEST PUSH1 0x0 DUP2 PUSH1 0x4 DUP2 GT ISZERO PUSH2 0x634 JUMPI PUSH2 0x633 PUSH2 0x13EA JUMP JUMPDEST JUMPDEST PUSH1 0x2 PUSH1 0x0 DUP6 PUSH20 0xFFFFFFFFFFFFFFFFFFFFFFFFFFFFFFFFFFFFFFFF AND PUSH20 0xFFFFFFFFFFFFFFFFFFFFFFFFFFFFFFFFFFFFFFFF AND DUP2 MSTORE PUSH1 0x20 ADD SWAP1 DUP2 MSTORE PUSH1 0x20 ADD PUSH1 0x0 KECCAK256 PUSH1 0x0 SWAP1 SLOAD SWAP1 PUSH2 0x100 EXP SWAP1 DIV PUSH1 0xFF AND PUSH1 0x4 DUP2 GT ISZERO PUSH2 0x693 JUMPI PUSH2 0x692 PUSH2 0x13EA JUMP JUMPDEST JUMPDEST EQ SWAP1 POP SWAP3 SWAP2 POP POP JUMP JUMPDEST PUSH1 0x0 DUP1 SLOAD SWAP1 PUSH2 0x100 EXP SWAP1 DIV PUSH20 0xFFFFFFFFFFFFFFFFFFFFFFFFFFFFFFFFFFFFFFFF AND PUSH20 0xFFFFFFFFFFFFFFFFFFFFFFFFFFFFFFFFFFFFFFFF AND CALLER PUSH20 0xFFFFFFFFFFFFFFFFFFFFFFFFFFFFFFFFFFFFFFFF AND EQ PUSH2 0x72A JUMPI PUSH1 0x40 MLOAD PUSH32 0x8C379A000000000000000000000000000000000000000000000000000000000 DUP2 MSTORE PUSH1 0x4 ADD PUSH2 0x721 SWAP1 PUSH2 0x150A JUMP JUMPDEST PUSH1 0x40 MLOAD DUP1 SWAP2 SUB SWAP1 REVERT JUMPDEST DUP1 PUSH1 0x0 DUP1 PUSH2 0x100 EXP DUP2 SLOAD DUP2 PUSH20 0xFFFFFFFFFFFFFFFFFFFFFFFFFFFFFFFFFFFFFFFF MUL NOT AND SWAP1 DUP4 PUSH20 0xFFFFFFFFFFFFFFFFFFFFFFFFFFFFFFFFFFFFFFFF AND MUL OR SWAP1 SSTORE POP POP JUMP JUMPDEST PUSH1 0x60 PUSH1 0x3 PUSH1 0x0 PUSH1 0x2 PUSH1 0x4 DUP2 GT ISZERO PUSH2 0x787 JUMPI PUSH2 0x786 PUSH2 0x13EA JUMP JUMPDEST JUMPDEST PUSH1 0x4 DUP2 GT ISZERO PUSH2 0x799 JUMPI PUSH2 0x798 PUSH2 0x13EA JUMP JUMPDEST JUMPDEST DUP2 MSTORE PUSH1 0x20 ADD SWAP1 DUP2 MSTORE PUSH1 0x20 ADD PUSH1 0x0 KECCAK256 DUP1 SLOAD DUP1 PUSH1 0x20 MUL PUSH1 0x20 ADD PUSH1 0x40 MLOAD SWAP1 DUP2 ADD PUSH1 0x40 MSTORE DUP1 SWAP3 SWAP2 SWAP1 DUP2 DUP2 MSTORE PUSH1 0x20 ADD DUP3 DUP1 SLOAD DUP1 ISZERO PUSH2 0x827 JUMPI PUSH1 0x20 MUL DUP3 ADD SWAP2 SWAP1 PUSH1 0x0 MSTORE PUSH1 0x20 PUSH1 0x0 KECCAK256 SWAP1 JUMPDEST DUP2 PUSH1 0x0 SWAP1 SLOAD SWAP1 PUSH2 0x100 EXP SWAP1 DIV PUSH20 0xFFFFFFFFFFFFFFFFFFFFFFFFFFFFFFFFFFFFFFFF AND PUSH20 0xFFFFFFFFFFFFFFFFFFFFFFFFFFFFFFFFFFFFFFFF AND DUP2 MSTORE PUSH1 0x20 ADD SWAP1 PUSH1 0x1 ADD SWAP1 DUP1 DUP4 GT PUSH2 0x7DD JUMPI JUMPDEST POP POP POP POP POP SWAP1 POP SWAP1 JUMP JUMPDEST PUSH1 0x60 PUSH1 0x5 DUP1 SLOAD PUSH2 0x840 SWAP1 PUSH2 0x1559 JUMP JUMPDEST DUP1 PUSH1 0x1F ADD PUSH1 0x20 DUP1 SWAP2 DIV MUL PUSH1 0x20 ADD PUSH1 0x40 MLOAD SWAP1 DUP2 ADD PUSH1 0x40 MSTORE DUP1 SWAP3 SWAP2 SWAP1 DUP2 DUP2 MSTORE PUSH1 0x20 ADD DUP3 DUP1 SLOAD PUSH2 0x86C SWAP1 PUSH2 0x1559 JUMP JUMPDEST DUP1 ISZERO PUSH2 0x8B9 JUMPI DUP1 PUSH1 0x1F LT PUSH2 0x88E JUMPI PUSH2 0x100 DUP1 DUP4 SLOAD DIV MUL DUP4 MSTORE SWAP2 PUSH1 0x20 ADD SWAP2 PUSH2 0x8B9 JUMP JUMPDEST DUP3 ADD SWAP2 SWAP1 PUSH1 0x0 MSTORE PUSH1 0x20 PUSH1 0x0 KECCAK256 SWAP1 JUMPDEST DUP2 SLOAD DUP2 MSTORE SWAP1 PUSH1 0x1 ADD SWAP1 PUSH1 0x20 ADD DUP1 DUP4 GT PUSH2 0x89C JUMPI DUP3 SWAP1 SUB PUSH1 0x1F AND DUP3 ADD SWAP2 JUMPDEST POP POP POP POP POP SWAP1 POP SWAP1 JUMP JUMPDEST PUSH1 0x0 PUSH1 0x1 PUSH1 0x0 SWAP1 SLOAD SWAP1 PUSH2 0x100 EXP SWAP1 DIV PUSH20 0xFFFFFFFFFFFFFFFFFFFFFFFFFFFFFFFFFFFFFFFF AND SWAP1 POP SWAP1 JUMP JUMPDEST PUSH1 0x3 PUSH1 0x0 DUP4 PUSH1 0x4 DUP2 GT ISZERO PUSH2 0x904 JUMPI PUSH2 0x903 PUSH2 0x13EA JUMP JUMPDEST JUMPDEST PUSH1 0x4 DUP2 GT ISZERO PUSH2 0x916 JUMPI PUSH2 0x915 PUSH2 0x13EA JUMP JUMPDEST JUMPDEST DUP2 MSTORE PUSH1 0x20 ADD SWAP1 DUP2 MSTORE PUSH1 0x20 ADD PUSH1 0x0 KECCAK256 DUP2 DUP2 SLOAD DUP2 LT PUSH2 0x936 JUMPI PUSH2 0x935 PUSH2 0x158A JUMP JUMPDEST JUMPDEST SWAP1 PUSH1 0x0 MSTORE PUSH1 0x20 PUSH1 0x0 KECCAK256 ADD PUSH1 0x0 PUSH2 0x100 EXP DUP2 SLOAD SWAP1 PUSH20 0xFFFFFFFFFFFFFFFFFFFFFFFFFFFFFFFFFFFFFFFF MUL NOT AND SWAP1 SSTORE POP POP JUMP JUMPDEST DUP1 PUSH1 0x2 PUSH1 0x0 DUP5 PUSH20 0xFFFFFFFFFFFFFFFFFFFFFFFFFFFFFFFFFFFFFFFF AND PUSH20 0xFFFFFFFFFFFFFFFFFFFFFFFFFFFFFFFFFFFFFFFF AND DUP2 MSTORE PUSH1 0x20 ADD SWAP1 DUP2 MSTORE PUSH1 0x20 ADD PUSH1 0x0 KECCAK256 PUSH1 0x0 PUSH2 0x100 EXP DUP2 SLOAD DUP2 PUSH1 0xFF MUL NOT AND SWAP1 DUP4 PUSH1 0x4 DUP2 GT ISZERO PUSH2 0x9C9 JUMPI PUSH2 0x9C8 PUSH2 0x13EA JUMP JUMPDEST JUMPDEST MUL OR SWAP1 SSTORE POP POP POP JUMP JUMPDEST PUSH1 0x0 PUSH1 0x7 SLOAD SWAP1 POP SWAP1 JUMP JUMPDEST PUSH1 0x60 PUSH1 0x3 PUSH1 0x0 PUSH1 0x1 PUSH1 0x4 DUP2 GT ISZERO PUSH2 0x9F6 JUMPI PUSH2 0x9F5 PUSH2 0x13EA JUMP JUMPDEST JUMPDEST PUSH1 0x4 DUP2 GT ISZERO PUSH2 0xA08 JUMPI PUSH2 0xA07 PUSH2 0x13EA JUMP JUMPDEST JUMPDEST DUP2 MSTORE PUSH1 0x20 ADD SWAP1 DUP2 MSTORE PUSH1 0x20 ADD PUSH1 0x0 KECCAK256 DUP1 SLOAD DUP1 PUSH1 0x20 MUL PUSH1 0x20 ADD PUSH1 0x40 MLOAD SWAP1 DUP2 ADD PUSH1 0x40 MSTORE DUP1 SWAP3 SWAP2 SWAP1 DUP2 DUP2 MSTORE PUSH1 0x20 ADD DUP3 DUP1 SLOAD DUP1 ISZERO PUSH2 0xA96 JUMPI PUSH1 0x20 MUL DUP3 ADD SWAP2 SWAP1 PUSH1 0x0 MSTORE PUSH1 0x20 PUSH1 0x0 KECCAK256 SWAP1 JUMPDEST DUP2 PUSH1 0x0 SWAP1 SLOAD SWAP1 PUSH2 0x100 EXP SWAP1 DIV PUSH20 0xFFFFFFFFFFFFFFFFFFFFFFFFFFFFFFFFFFFFFFFF AND PUSH20 0xFFFFFFFFFFFFFFFFFFFFFFFFFFFFFFFFFFFFFFFF AND DUP2 MSTORE PUSH1 0x20 ADD SWAP1 PUSH1 0x1 ADD SWAP1 DUP1 DUP4 GT PUSH2 0xA4C JUMPI JUMPDEST POP POP POP POP POP SWAP1 POP SWAP1 JUMP JUMPDEST PUSH1 0x0 DUP1 SLOAD SWAP1 PUSH2 0x100 EXP SWAP1 DIV PUSH20 0xFFFFFFFFFFFFFFFFFFFFFFFFFFFFFFFFFFFFFFFF AND DUP2 JUMP JUMPDEST PUSH1 0x60 PUSH1 0x3 PUSH1 0x0 DUP4 PUSH1 0x4 DUP2 GT ISZERO PUSH2 0xADD JUMPI PUSH2 0xADC PUSH2 0x13EA JUMP JUMPDEST JUMPDEST PUSH1 0x4 DUP2 GT ISZERO PUSH2 0xAEF JUMPI PUSH2 0xAEE PUSH2 0x13EA JUMP JUMPDEST JUMPDEST DUP2 MSTORE PUSH1 0x20 ADD SWAP1 DUP2 MSTORE PUSH1 0x20 ADD PUSH1 0x0 KECCAK256 DUP1 SLOAD DUP1 PUSH1 0x20 MUL PUSH1 0x20 ADD PUSH1 0x40 MLOAD SWAP1 DUP2 ADD PUSH1 0x40 MSTORE DUP1 SWAP3 SWAP2 SWAP1 DUP2 DUP2 MSTORE PUSH1 0x20 ADD DUP3 DUP1 SLOAD DUP1 ISZERO PUSH2 0xB7D JUMPI PUSH1 0x20 MUL DUP3 ADD SWAP2 SWAP1 PUSH1 0x0 MSTORE PUSH1 0x20 PUSH1 0x0 KECCAK256 SWAP1 JUMPDEST DUP2 PUSH1 0x0 SWAP1 SLOAD SWAP1 PUSH2 0x100 EXP SWAP1 DIV PUSH20 0xFFFFFFFFFFFFFFFFFFFFFFFFFFFFFFFFFFFFFFFF AND PUSH20 0xFFFFFFFFFFFFFFFFFFFFFFFFFFFFFFFFFFFFFFFF AND DUP2 MSTORE PUSH1 0x20 ADD SWAP1 PUSH1 0x1 ADD SWAP1 DUP1 DUP4 GT PUSH2 0xB33 JUMPI JUMPDEST POP POP POP POP POP SWAP1 POP SWAP2 SWAP1 POP JUMP JUMPDEST PUSH1 0x60 PUSH1 0x6 DUP1 SLOAD PUSH2 0xB98 SWAP1 PUSH2 0x1559 JUMP JUMPDEST DUP1 PUSH1 0x1F ADD PUSH1 0x20 DUP1 SWAP2 DIV MUL PUSH1 0x20 ADD PUSH1 0x40 MLOAD SWAP1 DUP2 ADD PUSH1 0x40 MSTORE DUP1 SWAP3 SWAP2 SWAP1 DUP2 DUP2 MSTORE PUSH1 0x20 ADD DUP3 DUP1 SLOAD PUSH2 0xBC4 SWAP1 PUSH2 0x1559 JUMP JUMPDEST DUP1 ISZERO PUSH2 0xC11 JUMPI DUP1 PUSH1 0x1F LT PUSH2 0xBE6 JUMPI PUSH2 0x100 DUP1 DUP4 SLOAD DIV MUL DUP4 MSTORE SWAP2 PUSH1 0x20 ADD SWAP2 PUSH2 0xC11 JUMP JUMPDEST DUP3 ADD SWAP2 SWAP1 PUSH1 0x0 MSTORE PUSH1 0x20 PUSH1 0x0 KECCAK256 SWAP1 JUMPDEST DUP2 SLOAD DUP2 MSTORE SWAP1 PUSH1 0x1 ADD SWAP1 PUSH1 0x20 ADD DUP1 DUP4 GT PUSH2 0xBF4 JUMPI DUP3 SWAP1 SUB PUSH1 0x1F AND DUP3 ADD SWAP2 JUMPDEST POP POP POP POP POP SWAP1 POP SWAP1 JUMP JUMPDEST PUSH1 0x0 DUP1 DUP3 PUSH1 0x4 DUP2 GT ISZERO PUSH2 0xC31 JUMPI PUSH2 0xC30 PUSH2 0x13EA JUMP JUMPDEST JUMPDEST SWAP1 POP PUSH1 0x0 PUSH1 0x2 DUP3 PUSH2 0xC42 SWAP2 SWAP1 PUSH2 0x15E8 JUMP JUMPDEST SUB PUSH2 0xC6E JUMPI PUSH1 0x1 DUP2 PUSH2 0xC54 SWAP2 SWAP1 PUSH2 0x1648 JUMP JUMPDEST PUSH1 0x4 DUP2 GT ISZERO PUSH2 0xC66 JUMPI PUSH2 0xC65 PUSH2 0x13EA JUMP JUMPDEST JUMPDEST SWAP2 POP POP PUSH2 0xC91 JUMP JUMPDEST PUSH1 0x1 DUP2 PUSH2 0xC7B SWAP2 SWAP1 PUSH2 0x167C JUMP JUMPDEST PUSH1 0x4 DUP2 GT ISZERO PUSH2 0xC8D JUMPI PUSH2 0xC8C PUSH2 0x13EA JUMP JUMPDEST JUMPDEST SWAP2 POP POP JUMPDEST SWAP2 SWAP1 POP JUMP JUMPDEST PUSH1 0x0 PUSH1 0x4 PUSH1 0x0 SWAP1 SLOAD SWAP1 PUSH2 0x100 EXP SWAP1 DIV PUSH1 0xFF AND SWAP1 POP SWAP1 JUMP JUMPDEST PUSH1 0x3 PUSH1 0x20 MSTORE DUP2 PUSH1 0x0 MSTORE PUSH1 0x40 PUSH1 0x0 KECCAK256 DUP2 DUP2 SLOAD DUP2 LT PUSH2 0xCC9 JUMPI PUSH1 0x0 DUP1 REVERT JUMPDEST SWAP1 PUSH1 0x0 MSTORE PUSH1 0x20 PUSH1 0x0 KECCAK256 ADD PUSH1 0x0 SWAP2 POP SWAP2 POP SWAP1 SLOAD SWAP1 PUSH2 0x100 EXP SWAP1 DIV PUSH20 0xFFFFFFFFFFFFFFFFFFFFFFFFFFFFFFFFFFFFFFFF AND DUP2 JUMP JUMPDEST PUSH1 0x60 PUSH1 0x3 PUSH1 0x0 PUSH1 0x3 PUSH1 0x4 DUP2 GT ISZERO PUSH2 0xD15 JUMPI PUSH2 0xD14 PUSH2 0x13EA JUMP JUMPDEST JUMPDEST PUSH1 0x4 DUP2 GT ISZERO PUSH2 0xD27 JUMPI PUSH2 0xD26 PUSH2 0x13EA JUMP JUMPDEST JUMPDEST DUP2 MSTORE PUSH1 0x20 ADD SWAP1 DUP2 MSTORE PUSH1 0x20 ADD PUSH1 0x0 KECCAK256 DUP1 SLOAD DUP1 PUSH1 0x20 MUL PUSH1 0x20 ADD PUSH1 0x40 MLOAD SWAP1 DUP2 ADD PUSH1 0x40 MSTORE DUP1 SWAP3 SWAP2 SWAP1 DUP2 DUP2 MSTORE PUSH1 0x20 ADD DUP3 DUP1 SLOAD DUP1 ISZERO PUSH2 0xDB5 JUMPI PUSH1 0x20 MUL DUP3 ADD SWAP2 SWAP1 PUSH1 0x0 MSTORE PUSH1 0x20 PUSH1 0x0 KECCAK256 SWAP1 JUMPDEST DUP2 PUSH1 0x0 SWAP1 SLOAD SWAP1 PUSH2 0x100 EXP SWAP1 DIV PUSH20 0xFFFFFFFFFFFFFFFFFFFFFFFFFFFFFFFFFFFFFFFF AND PUSH20 0xFFFFFFFFFFFFFFFFFFFFFFFFFFFFFFFFFFFFFFFF AND DUP2 MSTORE PUSH1 0x20 ADD SWAP1 PUSH1 0x1 ADD SWAP1 DUP1 DUP4 GT PUSH2 0xD6B JUMPI JUMPDEST POP POP POP POP POP SWAP1 POP SWAP1 JUMP JUMPDEST PUSH1 0x2 PUSH1 0x20 MSTORE DUP1 PUSH1 0x0 MSTORE PUSH1 0x40 PUSH1 0x0 KECCAK256 PUSH1 0x0 SWAP2 POP SLOAD SWAP1 PUSH2 0x100 EXP SWAP1 DIV PUSH1 0xFF AND DUP2 JUMP JUMPDEST PUSH1 0x60 PUSH1 0x8 DUP1 SLOAD PUSH2 0xDEE SWAP1 PUSH2 0x1559 JUMP JUMPDEST DUP1 PUSH1 0x1F ADD PUSH1 0x20 DUP1 SWAP2 DIV MUL PUSH1 0x20 ADD PUSH1 0x40 MLOAD SWAP1 DUP2 ADD PUSH1 0x40 MSTORE DUP1 SWAP3 SWAP2 SWAP1 DUP2 DUP2 MSTORE PUSH1 0x20 ADD DUP3 DUP1 SLOAD PUSH2 0xE1A SWAP1 PUSH2 0x1559 JUMP JUMPDEST DUP1 ISZERO PUSH2 0xE67 JUMPI DUP1 PUSH1 0x1F LT PUSH2 0xE3C JUMPI PUSH2 0x100 DUP1 DUP4 SLOAD DIV MUL DUP4 MSTORE SWAP2 PUSH1 0x20 ADD SWAP2 PUSH2 0xE67 JUMP JUMPDEST DUP3 ADD SWAP2 SWAP1 PUSH1 0x0 MSTORE PUSH1 0x20 PUSH1 0x0 KECCAK256 SWAP1 JUMPDEST DUP2 SLOAD DUP2 MSTORE SWAP1 PUSH1 0x1 ADD SWAP1 PUSH1 0x20 ADD DUP1 DUP4 GT PUSH2 0xE4A JUMPI DUP3 SWAP1 SUB PUSH1 0x1F AND DUP3 ADD SWAP2 JUMPDEST POP POP POP POP POP SWAP1 POP SWAP1 JUMP JUMPDEST PUSH2 0xE7A DUP2 PUSH2 0xC1B JUMP JUMPDEST PUSH1 0x4 DUP2 GT ISZERO PUSH2 0xE8C JUMPI PUSH2 0xE8B PUSH2 0x13EA JUMP JUMPDEST JUMPDEST PUSH1 0x2 PUSH1 0x0 CALLER PUSH20 0xFFFFFFFFFFFFFFFFFFFFFFFFFFFFFFFFFFFFFFFF AND PUSH20 0xFFFFFFFFFFFFFFFFFFFFFFFFFFFFFFFFFFFFFFFF AND DUP2 MSTORE PUSH1 0x20 ADD SWAP1 DUP2 MSTORE PUSH1 0x20 ADD PUSH1 0x0 KECCAK256 PUSH1 0x0 SWAP1 SLOAD SWAP1 PUSH2 0x100 EXP SWAP1 DIV PUSH1 0xFF AND PUSH1 0x4 DUP2 GT ISZERO PUSH2 0xEEB JUMPI PUSH2 0xEEA PUSH2 0x13EA JUMP JUMPDEST JUMPDEST EQ PUSH2 0xF2B JUMPI PUSH1 0x40 MLOAD PUSH32 0x8C379A000000000000000000000000000000000000000000000000000000000 DUP2 MSTORE PUSH1 0x4 ADD PUSH2 0xF22 SWAP1 PUSH2 0x16FC JUMP JUMPDEST PUSH1 0x40 MLOAD DUP1 SWAP2 SUB SWAP1 REVERT JUMPDEST PUSH1 0x0 PUSH1 0x2 PUSH1 0x0 CALLER PUSH20 0xFFFFFFFFFFFFFFFFFFFFFFFFFFFFFFFFFFFFFFFF AND PUSH20 0xFFFFFFFFFFFFFFFFFFFFFFFFFFFFFFFFFFFFFFFF AND DUP2 MSTORE PUSH1 0x20 ADD SWAP1 DUP2 MSTORE PUSH1 0x20 ADD PUSH1 0x0 KECCAK256 PUSH1 0x0 PUSH2 0x100 EXP DUP2 SLOAD DUP2 PUSH1 0xFF MUL NOT AND SWAP1 DUP4 PUSH1 0x4 DUP2 GT ISZERO PUSH2 0xF8E JUMPI PUSH2 0xF8D PUSH2 0x13EA JUMP JUMPDEST JUMPDEST MUL OR SWAP1 SSTORE POP PUSH1 0x3 PUSH1 0x0 PUSH2 0xFA0 DUP4 PUSH2 0xC1B JUMP JUMPDEST PUSH1 0x4 DUP2 GT ISZERO PUSH2 0xFB2 JUMPI PUSH2 0xFB1 PUSH2 0x13EA JUMP JUMPDEST JUMPDEST PUSH1 0x4 DUP2 GT ISZERO PUSH2 0xFC4 JUMPI PUSH2 0xFC3 PUSH2 0x13EA JUMP JUMPDEST JUMPDEST DUP2 MSTORE PUSH1 0x20 ADD SWAP1 DUP2 MSTORE PUSH1 0x20 ADD PUSH1 0x0 KECCAK256 CALLER SWAP1 DUP1 PUSH1 0x1 DUP2 SLOAD ADD DUP1 DUP3 SSTORE DUP1 SWAP2 POP POP PUSH1 0x1 SWAP1 SUB SWAP1 PUSH1 0x0 MSTORE PUSH1 0x20 PUSH1 0x0 KECCAK256 ADD PUSH1 0x0 SWAP1 SWAP2 SWAP1 SWAP2 SWAP1 SWAP2 PUSH2 0x100 EXP DUP2 SLOAD DUP2 PUSH20 0xFFFFFFFFFFFFFFFFFFFFFFFFFFFFFFFFFFFFFFFF MUL NOT AND SWAP1 DUP4 PUSH20 0xFFFFFFFFFFFFFFFFFFFFFFFFFFFFFFFFFFFFFFFF AND MUL OR SWAP1 SSTORE POP POP JUMP JUMPDEST PUSH1 0x0 DUP1 REVERT JUMPDEST PUSH1 0x0 PUSH20 0xFFFFFFFFFFFFFFFFFFFFFFFFFFFFFFFFFFFFFFFF DUP3 AND SWAP1 POP SWAP2 SWAP1 POP JUMP JUMPDEST PUSH1 0x0 PUSH2 0x1066 DUP3 PUSH2 0x103B JUMP JUMPDEST SWAP1 POP SWAP2 SWAP1 POP JUMP JUMPDEST PUSH2 0x1076 DUP2 PUSH2 0x105B JUMP JUMPDEST DUP2 EQ PUSH2 0x1081 JUMPI PUSH1 0x0 DUP1 REVERT JUMPDEST POP JUMP JUMPDEST PUSH1 0x0 DUP2 CALLDATALOAD SWAP1 POP PUSH2 0x1093 DUP2 PUSH2 0x106D JUMP JUMPDEST SWAP3 SWAP2 POP POP JUMP JUMPDEST PUSH1 0x5 DUP2 LT PUSH2 0x10A6 JUMPI PUSH1 0x0 DUP1 REVERT JUMPDEST POP JUMP JUMPDEST PUSH1 0x0 DUP2 CALLDATALOAD SWAP1 POP PUSH2 0x10B8 DUP2 PUSH2 0x1099 JUMP JUMPDEST SWAP3 SWAP2 POP POP JUMP JUMPDEST PUSH1 0x0 DUP1 PUSH1 0x40 DUP4 DUP6 SUB SLT ISZERO PUSH2 0x10D5 JUMPI PUSH2 0x10D4 PUSH2 0x1036 JUMP JUMPDEST JUMPDEST PUSH1 0x0 PUSH2 0x10E3 DUP6 DUP3 DUP7 ADD PUSH2 0x1084 JUMP JUMPDEST SWAP3 POP POP PUSH1 0x20 PUSH2 0x10F4 DUP6 DUP3 DUP7 ADD PUSH2 0x10A9 JUMP JUMPDEST SWAP2 POP POP SWAP3 POP SWAP3 SWAP1 POP JUMP JUMPDEST PUSH1 0x0 DUP2 ISZERO ISZERO SWAP1 POP SWAP2 SWAP1 POP JUMP JUMPDEST PUSH2 0x1113 DUP2 PUSH2 0x10FE JUMP JUMPDEST DUP3 MSTORE POP POP JUMP JUMPDEST PUSH1 0x0 PUSH1 0x20 DUP3 ADD SWAP1 POP PUSH2 0x112E PUSH1 0x0 DUP4 ADD DUP5 PUSH2 0x110A JUMP JUMPDEST SWAP3 SWAP2 POP POP JUMP JUMPDEST PUSH1 0x0 PUSH1 0x20 DUP3 DUP5 SUB SLT ISZERO PUSH2 0x114A JUMPI PUSH2 0x1149 PUSH2 0x1036 JUMP JUMPDEST JUMPDEST PUSH1 0x0 PUSH2 0x1158 DUP5 DUP3 DUP6 ADD PUSH2 0x1084 JUMP JUMPDEST SWAP2 POP POP SWAP3 SWAP2 POP POP JUMP JUMPDEST PUSH1 0x0 DUP2 MLOAD SWAP1 POP SWAP2 SWAP1 POP JUMP JUMPDEST PUSH1 0x0 DUP3 DUP3 MSTORE PUSH1 0x20 DUP3 ADD SWAP1 POP SWAP3 SWAP2 POP POP JUMP JUMPDEST PUSH1 0x0 DUP2 SWAP1 POP PUSH1 0x20 DUP3 ADD SWAP1 POP SWAP2 SWAP1 POP JUMP JUMPDEST PUSH2 0x1196 DUP2 PUSH2 0x105B JUMP JUMPDEST DUP3 MSTORE POP POP JUMP JUMPDEST PUSH1 0x0 PUSH2 0x11A8 DUP4 DUP4 PUSH2 0x118D JUMP JUMPDEST PUSH1 0x20 DUP4 ADD SWAP1 POP SWAP3 SWAP2 POP POP JUMP JUMPDEST PUSH1 0x0 PUSH1 0x20 DUP3 ADD SWAP1 POP SWAP2 SWAP1 POP JUMP JUMPDEST PUSH1 0x0 PUSH2 0x11CC DUP3 PUSH2 0x1161 JUMP JUMPDEST PUSH2 0x11D6 DUP2 DUP6 PUSH2 0x116C JUMP JUMPDEST SWAP4 POP PUSH2 0x11E1 DUP4 PUSH2 0x117D JUMP JUMPDEST DUP1 PUSH1 0x0 JUMPDEST DUP4 DUP2 LT ISZERO PUSH2 0x1212 JUMPI DUP2 MLOAD PUSH2 0x11F9 DUP9 DUP3 PUSH2 0x119C JUMP JUMPDEST SWAP8 POP PUSH2 0x1204 DUP4 PUSH2 0x11B4 JUMP JUMPDEST SWAP3 POP POP PUSH1 0x1 DUP2 ADD SWAP1 POP PUSH2 0x11E5 JUMP JUMPDEST POP DUP6 SWAP4 POP POP POP POP SWAP3 SWAP2 POP POP JUMP JUMPDEST PUSH1 0x0 PUSH1 0x20 DUP3 ADD SWAP1 POP DUP2 DUP2 SUB PUSH1 0x0 DUP4 ADD MSTORE PUSH2 0x1239 DUP2 DUP5 PUSH2 0x11C1 JUMP JUMPDEST SWAP1 POP SWAP3 SWAP2 POP POP JUMP JUMPDEST PUSH1 0x0 DUP2 MLOAD SWAP1 POP SWAP2 SWAP1 POP JUMP JUMPDEST PUSH1 0x0 DUP3 DUP3 MSTORE PUSH1 0x20 DUP3 ADD SWAP1 POP SWAP3 SWAP2 POP POP JUMP JUMPDEST PUSH1 0x0 JUMPDEST DUP4 DUP2 LT ISZERO PUSH2 0x127B JUMPI DUP1 DUP3 ADD MLOAD DUP2 DUP5 ADD MSTORE PUSH1 0x20 DUP2 ADD SWAP1 POP PUSH2 0x1260 JUMP JUMPDEST PUSH1 0x0 DUP5 DUP5 ADD MSTORE POP POP POP POP JUMP JUMPDEST PUSH1 0x0 PUSH1 0x1F NOT PUSH1 0x1F DUP4 ADD AND SWAP1 POP SWAP2 SWAP1 POP JUMP JUMPDEST PUSH1 0x0 PUSH2 0x12A3 DUP3 PUSH2 0x1241 JUMP JUMPDEST PUSH2 0x12AD DUP2 DUP6 PUSH2 0x124C JUMP JUMPDEST SWAP4 POP PUSH2 0x12BD DUP2 DUP6 PUSH1 0x20 DUP7 ADD PUSH2 0x125D JUMP JUMPDEST PUSH2 0x12C6 DUP2 PUSH2 0x1287 JUMP JUMPDEST DUP5 ADD SWAP2 POP POP SWAP3 SWAP2 POP POP JUMP JUMPDEST PUSH1 0x0 PUSH1 0x20 DUP3 ADD SWAP1 POP DUP2 DUP2 SUB PUSH1 0x0 DUP4 ADD MSTORE PUSH2 0x12EB DUP2 DUP5 PUSH2 0x1298 JUMP JUMPDEST SWAP1 POP SWAP3 SWAP2 POP POP JUMP JUMPDEST PUSH2 0x12FC DUP2 PUSH2 0x105B JUMP JUMPDEST DUP3 MSTORE POP POP JUMP JUMPDEST PUSH1 0x0 PUSH1 0x20 DUP3 ADD SWAP1 POP PUSH2 0x1317 PUSH1 0x0 DUP4 ADD DUP5 PUSH2 0x12F3 JUMP JUMPDEST SWAP3 SWAP2 POP POP JUMP JUMPDEST PUSH1 0x0 DUP2 SWAP1 POP SWAP2 SWAP1 POP JUMP JUMPDEST PUSH2 0x1330 DUP2 PUSH2 0x131D JUMP JUMPDEST DUP2 EQ PUSH2 0x133B JUMPI PUSH1 0x0 DUP1 REVERT JUMPDEST POP JUMP JUMPDEST PUSH1 0x0 DUP2 CALLDATALOAD SWAP1 POP PUSH2 0x134D DUP2 PUSH2 0x1327 JUMP JUMPDEST SWAP3 SWAP2 POP POP JUMP JUMPDEST PUSH1 0x0 DUP1 PUSH1 0x40 DUP4 DUP6 SUB SLT ISZERO PUSH2 0x136A JUMPI PUSH2 0x1369 PUSH2 0x1036 JUMP JUMPDEST JUMPDEST PUSH1 0x0 PUSH2 0x1378 DUP6 DUP3 DUP7 ADD PUSH2 0x10A9 JUMP JUMPDEST SWAP3 POP POP PUSH1 0x20 PUSH2 0x1389 DUP6 DUP3 DUP7 ADD PUSH2 0x133E JUMP JUMPDEST SWAP2 POP POP SWAP3 POP SWAP3 SWAP1 POP JUMP JUMPDEST PUSH2 0x139C DUP2 PUSH2 0x131D JUMP JUMPDEST DUP3 MSTORE POP POP JUMP JUMPDEST PUSH1 0x0 PUSH1 0x20 DUP3 ADD SWAP1 POP PUSH2 0x13B7 PUSH1 0x0 DUP4 ADD DUP5 PUSH2 0x1393 JUMP JUMPDEST SWAP3 SWAP2 POP POP JUMP JUMPDEST PUSH1 0x0 PUSH1 0x20 DUP3 DUP5 SUB SLT ISZERO PUSH2 0x13D3 JUMPI PUSH2 0x13D2 PUSH2 0x1036 JUMP JUMPDEST JUMPDEST PUSH1 0x0 PUSH2 0x13E1 DUP5 DUP3 DUP6 ADD PUSH2 0x10A9 JUMP JUMPDEST SWAP2 POP POP SWAP3 SWAP2 POP POP JUMP JUMPDEST PUSH32 0x4E487B7100000000000000000000000000000000000000000000000000000000 PUSH1 0x0 MSTORE PUSH1 0x21 PUSH1 0x4 MSTORE PUSH1 0x24 PUSH1 0x0 REVERT JUMPDEST PUSH1 0x5 DUP2 LT PUSH2 0x142A JUMPI PUSH2 0x1429 PUSH2 0x13EA JUMP JUMPDEST JUMPDEST POP JUMP JUMPDEST PUSH1 0x0 DUP2 SWAP1 POP PUSH2 0x143B DUP3 PUSH2 0x1419 JUMP JUMPDEST SWAP2 SWAP1 POP JUMP JUMPDEST PUSH1 0x0 PUSH2 0x144B DUP3 PUSH2 0x142D JUMP JUMPDEST SWAP1 POP SWAP2 SWAP1 POP JUMP JUMPDEST PUSH2 0x145B DUP2 PUSH2 0x1440 JUMP JUMPDEST DUP3 MSTORE POP POP JUMP JUMPDEST PUSH1 0x0 PUSH1 0x20 DUP3 ADD SWAP1 POP PUSH2 0x1476 PUSH1 0x0 DUP4 ADD DUP5 PUSH2 0x1452 JUMP JUMPDEST SWAP3 SWAP2 POP POP JUMP JUMPDEST PUSH1 0x0 DUP2 MLOAD SWAP1 POP PUSH2 0x148B DUP2 PUSH2 0x1099 JUMP JUMPDEST SWAP3 SWAP2 POP POP JUMP JUMPDEST PUSH1 0x0 PUSH1 0x20 DUP3 DUP5 SUB SLT ISZERO PUSH2 0x14A7 JUMPI PUSH2 0x14A6 PUSH2 0x1036 JUMP JUMPDEST JUMPDEST PUSH1 0x0 PUSH2 0x14B5 DUP5 DUP3 DUP6 ADD PUSH2 0x147C JUMP JUMPDEST SWAP2 POP POP SWAP3 SWAP2 POP POP JUMP JUMPDEST PUSH32 0x63616C6C6572206D757374206265206F776E6572000000000000000000000000 PUSH1 0x0 DUP3 ADD MSTORE POP JUMP JUMPDEST PUSH1 0x0 PUSH2 0x14F4 PUSH1 0x14 DUP4 PUSH2 0x124C JUMP JUMPDEST SWAP2 POP PUSH2 0x14FF DUP3 PUSH2 0x14BE JUMP JUMPDEST PUSH1 0x20 DUP3 ADD SWAP1 POP SWAP2 SWAP1 POP JUMP JUMPDEST PUSH1 0x0 PUSH1 0x20 DUP3 ADD SWAP1 POP DUP2 DUP2 SUB PUSH1 0x0 DUP4 ADD MSTORE PUSH2 0x1523 DUP2 PUSH2 0x14E7 JUMP JUMPDEST SWAP1 POP SWAP2 SWAP1 POP JUMP JUMPDEST PUSH32 0x4E487B7100000000000000000000000000000000000000000000000000000000 PUSH1 0x0 MSTORE PUSH1 0x22 PUSH1 0x4 MSTORE PUSH1 0x24 PUSH1 0x0 REVERT JUMPDEST PUSH1 0x0 PUSH1 0x2 DUP3 DIV SWAP1 POP PUSH1 0x1 DUP3 AND DUP1 PUSH2 0x1571 JUMPI PUSH1 0x7F DUP3 AND SWAP2 POP JUMPDEST PUSH1 0x20 DUP3 LT DUP2 SUB PUSH2 0x1584 JUMPI PUSH2 0x1583 PUSH2 0x152A JUMP JUMPDEST JUMPDEST POP SWAP2 SWAP1 POP JUMP JUMPDEST PUSH32 0x4E487B7100000000000000000000000000000000000000000000000000000000 PUSH1 0x0 MSTORE PUSH1 0x32 PUSH1 0x4 MSTORE PUSH1 0x24 PUSH1 0x0 REVERT JUMPDEST PUSH32 0x4E487B7100000000000000000000000000000000000000000000000000000000 PUSH1 0x0 MSTORE PUSH1 0x12 PUSH1 0x4 MSTORE PUSH1 0x24 PUSH1 0x0 REVERT JUMPDEST PUSH1 0x0 PUSH2 0x15F3 DUP3 PUSH2 0x131D JUMP JUMPDEST SWAP2 POP PUSH2 0x15FE DUP4 PUSH2 0x131D JUMP JUMPDEST SWAP3 POP DUP3 PUSH2 0x160E JUMPI PUSH2 0x160D PUSH2 0x15B9 JUMP JUMPDEST JUMPDEST DUP3 DUP3 MOD SWAP1 POP SWAP3 SWAP2 POP POP JUMP JUMPDEST PUSH32 0x4E487B7100000000000000000000000000000000000000000000000000000000 PUSH1 0x0 MSTORE PUSH1 0x11 PUSH1 0x4 MSTORE PUSH1 0x24 PUSH1 0x0 REVERT JUMPDEST PUSH1 0x0 PUSH2 0x1653 DUP3 PUSH2 0x131D JUMP JUMPDEST SWAP2 POP PUSH2 0x165E DUP4 PUSH2 0x131D JUMP JUMPDEST SWAP3 POP DUP3 DUP3 SUB SWAP1 POP DUP2 DUP2 GT ISZERO PUSH2 0x1676 JUMPI PUSH2 0x1675 PUSH2 0x1619 JUMP JUMPDEST JUMPDEST SWAP3 SWAP2 POP POP JUMP JUMPDEST PUSH1 0x0 PUSH2 0x1687 DUP3 PUSH2 0x131D JUMP JUMPDEST SWAP2 POP PUSH2 0x1692 DUP4 PUSH2 0x131D JUMP JUMPDEST SWAP3 POP DUP3 DUP3 ADD SWAP1 POP DUP1 DUP3 GT ISZERO PUSH2 0x16AA JUMPI PUSH2 0x16A9 PUSH2 0x1619 JUMP JUMPDEST JUMPDEST SWAP3 SWAP2 POP POP JUMP JUMPDEST PUSH32 0x526571756573746F72206973206E6F7420612063616E6469646174652E000000 PUSH1 0x0 DUP3 ADD MSTORE POP JUMP JUMPDEST PUSH1 0x0 PUSH2 0x16E6 PUSH1 0x1D DUP4 PUSH2 0x124C JUMP JUMPDEST SWAP2 POP PUSH2 0x16F1 DUP3 PUSH2 0x16B0 JUMP JUMPDEST PUSH1 0x20 DUP3 ADD SWAP1 POP SWAP2 SWAP1 POP JUMP JUMPDEST PUSH1 0x0 PUSH1 0x20 DUP3 ADD SWAP1 POP DUP2 DUP2 SUB PUSH1 0x0 DUP4 ADD MSTORE PUSH2 0x1715 DUP2 PUSH2 0x16D9 JUMP JUMPDEST SWAP1 POP SWAP2 SWAP1 POP JUMP INVALID LOG2 PUSH5 0x6970667358 0x22 SLT KECCAK256 MSTORE 0xE7 0xF CODESIZE DUP16 PUSH11 0xDFBCB2EEF948C421AC5441 0x2A MUL PUSH32 0x5A4ABF838D6CF1218E2A61AC64736F6C63430008120033A26469706673582212 KECCAK256 OR 0x5E 0xB0 EXTCODESIZE DUP11 0xB5 SWAP9 DUP8 0x4A RETURN 0xC1 0xC 0xDF GASLIMIT STOP DUP2 0x2F JUMP 0xF7 0xDA MUL 0xEE 0x25 BLOCKHASH SHL 0xA5 DUP3 0xDA 0xDE 0xD6 RETURN DUP10 PUSH5 0x736F6C6343 STOP ADDMOD SLT STOP CALLER "
		},
		"gasEstimates": {
			"creation": {
				"codeDepositCost": "4647200",
				"executionCost": "5445",
				"totalCost": "4652645"
			},
			"external": {
				"Get_Handshaker(address,uint8)": "infinite",
				"addLabel(string,address[],string,string)": "infinite",
				"addProduct(string,uint256,address[],address[],address[],string,string)": "infinite",
				"getLabel(address)": "infinite",
				"getProduct(address)": "infinite"
			}
		},
		"methodIdentifiers": {
			"Get_Handshaker(address,uint8)": "c258067a",
			"addLabel(string,address[],string,string)": "70c4b461",
			"addProduct(string,uint256,address[],address[],address[],string,string)": "d626b60f",
			"getLabel(address)": "28a249b0",
			"getProduct(address)": "d9aba9ce"
		}
	},
	"abi": [
		{
			"inputs": [
				{
					"internalType": "address",
					"name": "addr",
					"type": "address"
				},
				{
					"internalType": "enum relation",
					"name": "r",
					"type": "uint8"
				}
			],
			"name": "Get_Handshaker",
			"outputs": [
				{
					"internalType": "contract Handshaker",
					"name": "handshaker",
					"type": "address"
				}
			],
			"stateMutability": "view",
			"type": "function"
		},
		{
			"inputs": [
				{
					"internalType": "string",
					"name": "_name",
					"type": "string"
				},
				{
					"internalType": "address[]",
					"name": "_ProductIDs",
					"type": "address[]"
				},
				{
					"internalType": "string",
					"name": "_ipfsAddress",
					"type": "string"
				},
				{
					"internalType": "string",
					"name": "_imageCid",
					"type": "string"
				}
			],
			"name": "addLabel",
			"outputs": [
				{
					"internalType": "address",
					"name": "",
					"type": "address"
				}
			],
			"stateMutability": "nonpayable",
			"type": "function"
		},
		{
			"inputs": [
				{
					"internalType": "string",
					"name": "_name",
					"type": "string"
				},
				{
					"internalType": "uint256",
					"name": "_carbonFootprint",
					"type": "uint256"
				},
				{
					"internalType": "address[]",
					"name": "_labelIDs",
					"type": "address[]"
				},
				{
					"internalType": "address[]",
					"name": "_successors",
					"type": "address[]"
				},
				{
					"internalType": "address[]",
					"name": "_predecessors",
					"type": "address[]"
				},
				{
					"internalType": "string",
					"name": "_ipfsAddress",
					"type": "string"
				},
				{
					"internalType": "string",
					"name": "_imageCid",
					"type": "string"
				}
			],
			"name": "addProduct",
			"outputs": [
				{
					"internalType": "address",
					"name": "",
					"type": "address"
				}
			],
			"stateMutability": "nonpayable",
			"type": "function"
		},
		{
			"inputs": [
				{
					"internalType": "address",
					"name": "_id",
					"type": "address"
				}
			],
			"name": "getLabel",
			"outputs": [
				{
					"internalType": "string",
					"name": "_name",
					"type": "string"
				},
				{
					"internalType": "address[]",
					"name": "_labels",
					"type": "address[]"
				},
				{
					"internalType": "string",
					"name": "_ipfsAddress",
					"type": "string"
				},
				{
					"internalType": "string",
					"name": "_iamgeCid",
					"type": "string"
				}
			],
			"stateMutability": "view",
			"type": "function"
		},
		{
			"inputs": [
				{
					"internalType": "address",
					"name": "_id",
					"type": "address"
				}
			],
			"name": "getProduct",
			"outputs": [
				{
					"internalType": "string",
					"name": "_name",
					"type": "string"
				},
				{
					"internalType": "uint256",
					"name": "carbonFootprint",
					"type": "uint256"
				},
				{
					"internalType": "string",
					"name": "swarmStorageAddress",
					"type": "string"
				},
				{
					"internalType": "string",
					"name": "imageCid",
					"type": "string"
				},
				{
					"internalType": "address[]",
					"name": "_labels",
					"type": "address[]"
				},
				{
					"internalType": "address[]",
					"name": "predecessors",
					"type": "address[]"
				},
				{
					"internalType": "address[]",
					"name": "successors",
					"type": "address[]"
				}
			],
			"stateMutability": "view",
			"type": "function"
		}
	]
}