{
	"contracts/Product.sol": {
		"Product": {
			"abi": [
				{
					"inputs": [
						{
							"internalType": "string",
							"name": "_name",
							"type": "string"
						},
						{
							"internalType": "uint256",
							"name": "_carbonFootprint",
							"type": "uint256"
						}
					],
					"stateMutability": "nonpayable",
					"type": "constructor"
				},
				{
					"inputs": [],
					"name": "Accept_PredecessorCandidate",
					"outputs": [],
					"stateMutability": "nonpayable",
					"type": "function"
				},
				{
					"inputs": [],
					"name": "Accept_SuccessorCandidate",
					"outputs": [],
					"stateMutability": "nonpayable",
					"type": "function"
				},
				{
					"inputs": [
						{
							"internalType": "address",
							"name": "newOwner",
							"type": "address"
						}
					],
					"name": "ChangeOwnership",
					"outputs": [],
					"stateMutability": "nonpayable",
					"type": "function"
				},
				{
					"inputs": [
						{
							"internalType": "address",
							"name": "predecessor_address",
							"type": "address"
						}
					],
					"name": "Do_Handshake_To_Predecessor",
					"outputs": [],
					"stateMutability": "nonpayable",
					"type": "function"
				},
				{
					"inputs": [
						{
							"internalType": "address",
							"name": "successor_address",
							"type": "address"
						}
					],
					"name": "Do_Handshake_To_Successor",
					"outputs": [],
					"stateMutability": "nonpayable",
					"type": "function"
				},
				{
					"inputs": [
						{
							"internalType": "address",
							"name": "predecessorAddress",
							"type": "address"
						}
					],
					"name": "Has_PredecessorCandidate",
					"outputs": [
						{
							"internalType": "bool",
							"name": "",
							"type": "bool"
						}
					],
					"stateMutability": "view",
					"type": "function"
				},
				{
					"inputs": [
						{
							"internalType": "address",
							"name": "successorAddress",
							"type": "address"
						}
					],
					"name": "Has_SuccessorCandidate",
					"outputs": [
						{
							"internalType": "bool",
							"name": "",
							"type": "bool"
						}
					],
					"stateMutability": "view",
					"type": "function"
				},
				{
					"inputs": [
						{
							"internalType": "uint256",
							"name": "new_CarbonFootprint",
							"type": "uint256"
						}
					],
					"name": "Set_CarbonFootPrint",
					"outputs": [],
					"stateMutability": "nonpayable",
					"type": "function"
				},
				{
					"inputs": [
						{
							"internalType": "bool",
							"name": "value",
							"type": "bool"
						}
					],
					"name": "Set_IsValue",
					"outputs": [],
					"stateMutability": "nonpayable",
					"type": "function"
				},
				{
					"inputs": [
						{
							"internalType": "address[]",
							"name": "new_LabelIds",
							"type": "address[]"
						}
					],
					"name": "Set_LabelIds",
					"outputs": [],
					"stateMutability": "nonpayable",
					"type": "function"
				},
				{
					"inputs": [
						{
							"internalType": "string",
							"name": "new_name",
							"type": "string"
						}
					],
					"name": "Set_Name",
					"outputs": [],
					"stateMutability": "nonpayable",
					"type": "function"
				},
				{
					"inputs": [
						{
							"internalType": "address[]",
							"name": "new_predecessorIds",
							"type": "address[]"
						}
					],
					"name": "Set_PredecessorIds",
					"outputs": [],
					"stateMutability": "nonpayable",
					"type": "function"
				},
				{
					"inputs": [
						{
							"internalType": "address[]",
							"name": "new_successorIds",
							"type": "address[]"
						}
					],
					"name": "Set_SuccessorIds",
					"outputs": [],
					"stateMutability": "nonpayable",
					"type": "function"
				},
				{
					"inputs": [],
					"name": "carbonFootprint",
					"outputs": [
						{
							"internalType": "uint256",
							"name": "",
							"type": "uint256"
						}
					],
					"stateMutability": "view",
					"type": "function"
				},
				{
					"inputs": [],
					"name": "isValue",
					"outputs": [
						{
							"internalType": "bool",
							"name": "",
							"type": "bool"
						}
					],
					"stateMutability": "view",
					"type": "function"
				},
				{
					"inputs": [
						{
							"internalType": "uint256",
							"name": "",
							"type": "uint256"
						}
					],
					"name": "labelIds",
					"outputs": [
						{
							"internalType": "address",
							"name": "",
							"type": "address"
						}
					],
					"stateMutability": "view",
					"type": "function"
				},
				{
					"inputs": [],
					"name": "name",
					"outputs": [
						{
							"internalType": "string",
							"name": "",
							"type": "string"
						}
					],
					"stateMutability": "view",
					"type": "function"
				},
				{
					"inputs": [],
					"name": "owner",
					"outputs": [
						{
							"internalType": "address",
							"name": "",
							"type": "address"
						}
					],
					"stateMutability": "view",
					"type": "function"
				},
				{
					"inputs": [
						{
							"internalType": "address",
							"name": "",
							"type": "address"
						}
					],
					"name": "predecessorIdIsHandshakeCandidate",
					"outputs": [
						{
							"internalType": "bool",
							"name": "",
							"type": "bool"
						}
					],
					"stateMutability": "view",
					"type": "function"
				},
				{
					"inputs": [
						{
							"internalType": "uint256",
							"name": "",
							"type": "uint256"
						}
					],
					"name": "predecessorIdToArrayIndex",
					"outputs": [
						{
							"internalType": "uint256",
							"name": "",
							"type": "uint256"
						}
					],
					"stateMutability": "view",
					"type": "function"
				},
				{
					"inputs": [
						{
							"internalType": "uint256",
							"name": "",
							"type": "uint256"
						}
					],
					"name": "predecessorIds",
					"outputs": [
						{
							"internalType": "address",
							"name": "",
							"type": "address"
						}
					],
					"stateMutability": "view",
					"type": "function"
				},
				{
					"inputs": [
						{
							"internalType": "address",
							"name": "",
							"type": "address"
						}
					],
					"name": "successorIdIsHandshakeCandidate",
					"outputs": [
						{
							"internalType": "bool",
							"name": "",
							"type": "bool"
						}
					],
					"stateMutability": "view",
					"type": "function"
				},
				{
					"inputs": [
						{
							"internalType": "uint256",
							"name": "",
							"type": "uint256"
						}
					],
					"name": "successorIdToArrayIndex",
					"outputs": [
						{
							"internalType": "uint256",
							"name": "",
							"type": "uint256"
						}
					],
					"stateMutability": "view",
					"type": "function"
				},
				{
					"inputs": [
						{
							"internalType": "uint256",
							"name": "",
							"type": "uint256"
						}
					],
					"name": "successorIds",
					"outputs": [
						{
							"internalType": "address",
							"name": "",
							"type": "address"
						}
					],
					"stateMutability": "view",
					"type": "function"
				},
				{
					"inputs": [],
					"name": "swarm_storage_address",
					"outputs": [
						{
							"internalType": "string",
							"name": "",
							"type": "string"
						}
					],
					"stateMutability": "view",
					"type": "function"
				}
			],
			"devdoc": {
				"kind": "dev",
				"methods": {},
				"version": 1
			},
			"evm": {
				"assembly": "    /* \"contracts/Product.sol\":87:3088  contract Product is Ownable{... */\n  mstore(0x40, 0x80)\n    /* \"contracts/Product.sol\":150:155  false */\n  0x00\n    /* \"contracts/Product.sol\":127:155  bool public isValue  = false */\n  dup1\n  exp(0x0100, 0x14)\n  dup2\n  sload\n  dup2\n  0xff\n  mul\n  not\n  and\n  swap1\n  dup4\n  iszero\n  iszero\n  mul\n  or\n  swap1\n  sstore\n  pop\n    /* \"contracts/Product.sol\":646:812  constructor(string memory _name, uint _carbonFootprint) Ownable() {... */\n  callvalue\n  dup1\n  iszero\n  tag_1\n  jumpi\n  0x00\n  dup1\n  revert\ntag_1:\n  pop\n  mload(0x40)\n  sub(codesize, bytecodeSize)\n  dup1\n  bytecodeSize\n  dup4\n  codecopy\n  dup2\n  dup2\n  add\n  0x40\n  mstore\n  dup2\n  add\n  swap1\n  tag_2\n  swap2\n  swap1\n  tag_3\n  jump\t// in\ntag_2:\n    /* \"contracts/Ownable.sol\":159:169  msg.sender */\n  caller\n    /* \"contracts/Ownable.sol\":151:156  owner */\n  0x00\n  dup1\n    /* \"contracts/Ownable.sol\":151:169  owner = msg.sender */\n  0x0100\n  exp\n  dup2\n  sload\n  dup2\n  0xffffffffffffffffffffffffffffffffffffffff\n  mul\n  not\n  and\n  swap1\n  dup4\n  0xffffffffffffffffffffffffffffffffffffffff\n  and\n  mul\n  or\n  swap1\n  sstore\n  pop\n    /* \"contracts/Product.sol\":730:735  _name */\n  dup2\n    /* \"contracts/Product.sol\":723:727  name */\n  0x01\n    /* \"contracts/Product.sol\":723:735  name = _name */\n  swap1\n  dup2\n  tag_8\n  swap2\n  swap1\n  tag_9\n  jump\t// in\ntag_8:\n  pop\n    /* \"contracts/Product.sol\":764:780  _carbonFootprint */\n  dup1\n    /* \"contracts/Product.sol\":746:761  carbonFootprint */\n  0x09\n    /* \"contracts/Product.sol\":746:780  carbonFootprint = _carbonFootprint */\n  dup2\n  swap1\n  sstore\n  pop\n    /* \"contracts/Product.sol\":800:804  true */\n  0x01\n    /* \"contracts/Product.sol\":791:798  isValue */\n  0x00\n  0x14\n    /* \"contracts/Product.sol\":791:804  isValue= true */\n  0x0100\n  exp\n  dup2\n  sload\n  dup2\n  0xff\n  mul\n  not\n  and\n  swap1\n  dup4\n  iszero\n  iszero\n  mul\n  or\n  swap1\n  sstore\n  pop\n    /* \"contracts/Product.sol\":646:812  constructor(string memory _name, uint _carbonFootprint) Ownable() {... */\n  pop\n  pop\n    /* \"contracts/Product.sol\":87:3088  contract Product is Ownable{... */\n  jump(tag_10)\n    /* \"#utility.yul\":7:82   */\ntag_11:\n    /* \"#utility.yul\":40:46   */\n  0x00\n    /* \"#utility.yul\":73:75   */\n  0x40\n    /* \"#utility.yul\":67:76   */\n  mload\n    /* \"#utility.yul\":57:76   */\n  swap1\n  pop\n    /* \"#utility.yul\":7:82   */\n  swap1\n  jump\t// out\n    /* \"#utility.yul\":88:205   */\ntag_12:\n    /* \"#utility.yul\":197:198   */\n  0x00\n    /* \"#utility.yul\":194:195   */\n  dup1\n    /* \"#utility.yul\":187:199   */\n  revert\n    /* \"#utility.yul\":211:328   */\ntag_13:\n    /* \"#utility.yul\":320:321   */\n  0x00\n    /* \"#utility.yul\":317:318   */\n  dup1\n    /* \"#utility.yul\":310:322   */\n  revert\n    /* \"#utility.yul\":334:451   */\ntag_14:\n    /* \"#utility.yul\":443:444   */\n  0x00\n    /* \"#utility.yul\":440:441   */\n  dup1\n    /* \"#utility.yul\":433:445   */\n  revert\n    /* \"#utility.yul\":457:574   */\ntag_15:\n    /* \"#utility.yul\":566:567   */\n  0x00\n    /* \"#utility.yul\":563:564   */\n  dup1\n    /* \"#utility.yul\":556:568   */\n  revert\n    /* \"#utility.yul\":580:682   */\ntag_16:\n    /* \"#utility.yul\":621:627   */\n  0x00\n    /* \"#utility.yul\":672:674   */\n  0x1f\n    /* \"#utility.yul\":668:675   */\n  not\n    /* \"#utility.yul\":663:665   */\n  0x1f\n    /* \"#utility.yul\":656:661   */\n  dup4\n    /* \"#utility.yul\":652:666   */\n  add\n    /* \"#utility.yul\":648:676   */\n  and\n    /* \"#utility.yul\":638:676   */\n  swap1\n  pop\n    /* \"#utility.yul\":580:682   */\n  swap2\n  swap1\n  pop\n  jump\t// out\n    /* \"#utility.yul\":688:868   */\ntag_17:\n    /* \"#utility.yul\":736:813   */\n  0x4e487b7100000000000000000000000000000000000000000000000000000000\n    /* \"#utility.yul\":733:734   */\n  0x00\n    /* \"#utility.yul\":726:814   */\n  mstore\n    /* \"#utility.yul\":833:837   */\n  0x41\n    /* \"#utility.yul\":830:831   */\n  0x04\n    /* \"#utility.yul\":823:838   */\n  mstore\n    /* \"#utility.yul\":857:861   */\n  0x24\n    /* \"#utility.yul\":854:855   */\n  0x00\n    /* \"#utility.yul\":847:862   */\n  revert\n    /* \"#utility.yul\":874:1155   */\ntag_18:\n    /* \"#utility.yul\":957:984   */\n  tag_54\n    /* \"#utility.yul\":979:983   */\n  dup3\n    /* \"#utility.yul\":957:984   */\n  tag_16\n  jump\t// in\ntag_54:\n    /* \"#utility.yul\":949:955   */\n  dup2\n    /* \"#utility.yul\":945:985   */\n  add\n    /* \"#utility.yul\":1087:1093   */\n  dup2\n    /* \"#utility.yul\":1075:1085   */\n  dup2\n    /* \"#utility.yul\":1072:1094   */\n  lt\n    /* \"#utility.yul\":1051:1069   */\n  0xffffffffffffffff\n    /* \"#utility.yul\":1039:1049   */\n  dup3\n    /* \"#utility.yul\":1036:1070   */\n  gt\n    /* \"#utility.yul\":1033:1095   */\n  or\n    /* \"#utility.yul\":1030:1118   */\n  iszero\n  tag_55\n  jumpi\n    /* \"#utility.yul\":1098:1116   */\n  tag_56\n  tag_17\n  jump\t// in\ntag_56:\n    /* \"#utility.yul\":1030:1118   */\ntag_55:\n    /* \"#utility.yul\":1138:1148   */\n  dup1\n    /* \"#utility.yul\":1134:1136   */\n  0x40\n    /* \"#utility.yul\":1127:1149   */\n  mstore\n    /* \"#utility.yul\":917:1155   */\n  pop\n    /* \"#utility.yul\":874:1155   */\n  pop\n  pop\n  jump\t// out\n    /* \"#utility.yul\":1161:1290   */\ntag_19:\n    /* \"#utility.yul\":1195:1201   */\n  0x00\n    /* \"#utility.yul\":1222:1242   */\n  tag_58\n  tag_11\n  jump\t// in\ntag_58:\n    /* \"#utility.yul\":1212:1242   */\n  swap1\n  pop\n    /* \"#utility.yul\":1251:1284   */\n  tag_59\n    /* \"#utility.yul\":1279:1283   */\n  dup3\n    /* \"#utility.yul\":1271:1277   */\n  dup3\n    /* \"#utility.yul\":1251:1284   */\n  tag_18\n  jump\t// in\ntag_59:\n    /* \"#utility.yul\":1161:1290   */\n  swap2\n  swap1\n  pop\n  jump\t// out\n    /* \"#utility.yul\":1296:1604   */\ntag_20:\n    /* \"#utility.yul\":1358:1362   */\n  0x00\n    /* \"#utility.yul\":1448:1466   */\n  0xffffffffffffffff\n    /* \"#utility.yul\":1440:1446   */\n  dup3\n    /* \"#utility.yul\":1437:1467   */\n  gt\n    /* \"#utility.yul\":1434:1490   */\n  iszero\n  tag_61\n  jumpi\n    /* \"#utility.yul\":1470:1488   */\n  tag_62\n  tag_17\n  jump\t// in\ntag_62:\n    /* \"#utility.yul\":1434:1490   */\ntag_61:\n    /* \"#utility.yul\":1508:1537   */\n  tag_63\n    /* \"#utility.yul\":1530:1536   */\n  dup3\n    /* \"#utility.yul\":1508:1537   */\n  tag_16\n  jump\t// in\ntag_63:\n    /* \"#utility.yul\":1500:1537   */\n  swap1\n  pop\n    /* \"#utility.yul\":1592:1596   */\n  0x20\n    /* \"#utility.yul\":1586:1590   */\n  dup2\n    /* \"#utility.yul\":1582:1597   */\n  add\n    /* \"#utility.yul\":1574:1597   */\n  swap1\n  pop\n    /* \"#utility.yul\":1296:1604   */\n  swap2\n  swap1\n  pop\n  jump\t// out\n    /* \"#utility.yul\":1610:1856   */\ntag_21:\n    /* \"#utility.yul\":1691:1692   */\n  0x00\n    /* \"#utility.yul\":1701:1814   */\ntag_65:\n    /* \"#utility.yul\":1715:1721   */\n  dup4\n    /* \"#utility.yul\":1712:1713   */\n  dup2\n    /* \"#utility.yul\":1709:1722   */\n  lt\n    /* \"#utility.yul\":1701:1814   */\n  iszero\n  tag_67\n  jumpi\n    /* \"#utility.yul\":1800:1801   */\n  dup1\n    /* \"#utility.yul\":1795:1798   */\n  dup3\n    /* \"#utility.yul\":1791:1802   */\n  add\n    /* \"#utility.yul\":1785:1803   */\n  mload\n    /* \"#utility.yul\":1781:1782   */\n  dup2\n    /* \"#utility.yul\":1776:1779   */\n  dup5\n    /* \"#utility.yul\":1772:1783   */\n  add\n    /* \"#utility.yul\":1765:1804   */\n  mstore\n    /* \"#utility.yul\":1737:1739   */\n  0x20\n    /* \"#utility.yul\":1734:1735   */\n  dup2\n    /* \"#utility.yul\":1730:1740   */\n  add\n    /* \"#utility.yul\":1725:1740   */\n  swap1\n  pop\n    /* \"#utility.yul\":1701:1814   */\n  jump(tag_65)\ntag_67:\n    /* \"#utility.yul\":1848:1849   */\n  0x00\n    /* \"#utility.yul\":1839:1845   */\n  dup5\n    /* \"#utility.yul\":1834:1837   */\n  dup5\n    /* \"#utility.yul\":1830:1846   */\n  add\n    /* \"#utility.yul\":1823:1850   */\n  mstore\n    /* \"#utility.yul\":1672:1856   */\n  pop\n    /* \"#utility.yul\":1610:1856   */\n  pop\n  pop\n  pop\n  jump\t// out\n    /* \"#utility.yul\":1862:2296   */\ntag_22:\n    /* \"#utility.yul\":1951:1956   */\n  0x00\n    /* \"#utility.yul\":1976:2042   */\n  tag_69\n    /* \"#utility.yul\":1992:2041   */\n  tag_70\n    /* \"#utility.yul\":2034:2040   */\n  dup5\n    /* \"#utility.yul\":1992:2041   */\n  tag_20\n  jump\t// in\ntag_70:\n    /* \"#utility.yul\":1976:2042   */\n  tag_19\n  jump\t// in\ntag_69:\n    /* \"#utility.yul\":1967:2042   */\n  swap1\n  pop\n    /* \"#utility.yul\":2065:2071   */\n  dup3\n    /* \"#utility.yul\":2058:2063   */\n  dup2\n    /* \"#utility.yul\":2051:2072   */\n  mstore\n    /* \"#utility.yul\":2103:2107   */\n  0x20\n    /* \"#utility.yul\":2096:2101   */\n  dup2\n    /* \"#utility.yul\":2092:2108   */\n  add\n    /* \"#utility.yul\":2141:2144   */\n  dup5\n    /* \"#utility.yul\":2132:2138   */\n  dup5\n    /* \"#utility.yul\":2127:2130   */\n  dup5\n    /* \"#utility.yul\":2123:2139   */\n  add\n    /* \"#utility.yul\":2120:2145   */\n  gt\n    /* \"#utility.yul\":2117:2229   */\n  iszero\n  tag_71\n  jumpi\n    /* \"#utility.yul\":2148:2227   */\n  tag_72\n  tag_15\n  jump\t// in\ntag_72:\n    /* \"#utility.yul\":2117:2229   */\ntag_71:\n    /* \"#utility.yul\":2238:2290   */\n  tag_73\n    /* \"#utility.yul\":2283:2289   */\n  dup5\n    /* \"#utility.yul\":2278:2281   */\n  dup3\n    /* \"#utility.yul\":2273:2276   */\n  dup6\n    /* \"#utility.yul\":2238:2290   */\n  tag_21\n  jump\t// in\ntag_73:\n    /* \"#utility.yul\":1957:2296   */\n  pop\n    /* \"#utility.yul\":1862:2296   */\n  swap4\n  swap3\n  pop\n  pop\n  pop\n  jump\t// out\n    /* \"#utility.yul\":2316:2671   */\ntag_23:\n    /* \"#utility.yul\":2383:2388   */\n  0x00\n    /* \"#utility.yul\":2432:2435   */\n  dup3\n    /* \"#utility.yul\":2425:2429   */\n  0x1f\n    /* \"#utility.yul\":2417:2423   */\n  dup4\n    /* \"#utility.yul\":2413:2430   */\n  add\n    /* \"#utility.yul\":2409:2436   */\n  slt\n    /* \"#utility.yul\":2399:2521   */\n  tag_75\n  jumpi\n    /* \"#utility.yul\":2440:2519   */\n  tag_76\n  tag_14\n  jump\t// in\ntag_76:\n    /* \"#utility.yul\":2399:2521   */\ntag_75:\n    /* \"#utility.yul\":2550:2556   */\n  dup2\n    /* \"#utility.yul\":2544:2557   */\n  mload\n    /* \"#utility.yul\":2575:2665   */\n  tag_77\n    /* \"#utility.yul\":2661:2664   */\n  dup5\n    /* \"#utility.yul\":2653:2659   */\n  dup3\n    /* \"#utility.yul\":2646:2650   */\n  0x20\n    /* \"#utility.yul\":2638:2644   */\n  dup7\n    /* \"#utility.yul\":2634:2651   */\n  add\n    /* \"#utility.yul\":2575:2665   */\n  tag_22\n  jump\t// in\ntag_77:\n    /* \"#utility.yul\":2566:2665   */\n  swap2\n  pop\n    /* \"#utility.yul\":2389:2671   */\n  pop\n    /* \"#utility.yul\":2316:2671   */\n  swap3\n  swap2\n  pop\n  pop\n  jump\t// out\n    /* \"#utility.yul\":2677:2754   */\ntag_24:\n    /* \"#utility.yul\":2714:2721   */\n  0x00\n    /* \"#utility.yul\":2743:2748   */\n  dup2\n    /* \"#utility.yul\":2732:2748   */\n  swap1\n  pop\n    /* \"#utility.yul\":2677:2754   */\n  swap2\n  swap1\n  pop\n  jump\t// out\n    /* \"#utility.yul\":2760:2882   */\ntag_25:\n    /* \"#utility.yul\":2833:2857   */\n  tag_80\n    /* \"#utility.yul\":2851:2856   */\n  dup2\n    /* \"#utility.yul\":2833:2857   */\n  tag_24\n  jump\t// in\ntag_80:\n    /* \"#utility.yul\":2826:2831   */\n  dup2\n    /* \"#utility.yul\":2823:2858   */\n  eq\n    /* \"#utility.yul\":2813:2876   */\n  tag_81\n  jumpi\n    /* \"#utility.yul\":2872:2873   */\n  0x00\n    /* \"#utility.yul\":2869:2870   */\n  dup1\n    /* \"#utility.yul\":2862:2874   */\n  revert\n    /* \"#utility.yul\":2813:2876   */\ntag_81:\n    /* \"#utility.yul\":2760:2882   */\n  pop\n  jump\t// out\n    /* \"#utility.yul\":2888:3031   */\ntag_26:\n    /* \"#utility.yul\":2945:2950   */\n  0x00\n    /* \"#utility.yul\":2976:2982   */\n  dup2\n    /* \"#utility.yul\":2970:2983   */\n  mload\n    /* \"#utility.yul\":2961:2983   */\n  swap1\n  pop\n    /* \"#utility.yul\":2992:3025   */\n  tag_83\n    /* \"#utility.yul\":3019:3024   */\n  dup2\n    /* \"#utility.yul\":2992:3025   */\n  tag_25\n  jump\t// in\ntag_83:\n    /* \"#utility.yul\":2888:3031   */\n  swap3\n  swap2\n  pop\n  pop\n  jump\t// out\n    /* \"#utility.yul\":3037:3717   */\ntag_3:\n    /* \"#utility.yul\":3126:3132   */\n  0x00\n    /* \"#utility.yul\":3134:3140   */\n  dup1\n    /* \"#utility.yul\":3183:3185   */\n  0x40\n    /* \"#utility.yul\":3171:3180   */\n  dup4\n    /* \"#utility.yul\":3162:3169   */\n  dup6\n    /* \"#utility.yul\":3158:3181   */\n  sub\n    /* \"#utility.yul\":3154:3186   */\n  slt\n    /* \"#utility.yul\":3151:3270   */\n  iszero\n  tag_85\n  jumpi\n    /* \"#utility.yul\":3189:3268   */\n  tag_86\n  tag_12\n  jump\t// in\ntag_86:\n    /* \"#utility.yul\":3151:3270   */\ntag_85:\n    /* \"#utility.yul\":3330:3331   */\n  0x00\n    /* \"#utility.yul\":3319:3328   */\n  dup4\n    /* \"#utility.yul\":3315:3332   */\n  add\n    /* \"#utility.yul\":3309:3333   */\n  mload\n    /* \"#utility.yul\":3360:3378   */\n  0xffffffffffffffff\n    /* \"#utility.yul\":3352:3358   */\n  dup2\n    /* \"#utility.yul\":3349:3379   */\n  gt\n    /* \"#utility.yul\":3346:3463   */\n  iszero\n  tag_87\n  jumpi\n    /* \"#utility.yul\":3382:3461   */\n  tag_88\n  tag_13\n  jump\t// in\ntag_88:\n    /* \"#utility.yul\":3346:3463   */\ntag_87:\n    /* \"#utility.yul\":3487:3561   */\n  tag_89\n    /* \"#utility.yul\":3553:3560   */\n  dup6\n    /* \"#utility.yul\":3544:3550   */\n  dup3\n    /* \"#utility.yul\":3533:3542   */\n  dup7\n    /* \"#utility.yul\":3529:3551   */\n  add\n    /* \"#utility.yul\":3487:3561   */\n  tag_23\n  jump\t// in\ntag_89:\n    /* \"#utility.yul\":3477:3561   */\n  swap3\n  pop\n    /* \"#utility.yul\":3280:3571   */\n  pop\n    /* \"#utility.yul\":3610:3612   */\n  0x20\n    /* \"#utility.yul\":3636:3700   */\n  tag_90\n    /* \"#utility.yul\":3692:3699   */\n  dup6\n    /* \"#utility.yul\":3683:3689   */\n  dup3\n    /* \"#utility.yul\":3672:3681   */\n  dup7\n    /* \"#utility.yul\":3668:3690   */\n  add\n    /* \"#utility.yul\":3636:3700   */\n  tag_26\n  jump\t// in\ntag_90:\n    /* \"#utility.yul\":3626:3700   */\n  swap2\n  pop\n    /* \"#utility.yul\":3581:3710   */\n  pop\n    /* \"#utility.yul\":3037:3717   */\n  swap3\n  pop\n  swap3\n  swap1\n  pop\n  jump\t// out\n    /* \"#utility.yul\":3723:3822   */\ntag_27:\n    /* \"#utility.yul\":3775:3781   */\n  0x00\n    /* \"#utility.yul\":3809:3814   */\n  dup2\n    /* \"#utility.yul\":3803:3815   */\n  mload\n    /* \"#utility.yul\":3793:3815   */\n  swap1\n  pop\n    /* \"#utility.yul\":3723:3822   */\n  swap2\n  swap1\n  pop\n  jump\t// out\n    /* \"#utility.yul\":3828:4008   */\ntag_28:\n    /* \"#utility.yul\":3876:3953   */\n  0x4e487b7100000000000000000000000000000000000000000000000000000000\n    /* \"#utility.yul\":3873:3874   */\n  0x00\n    /* \"#utility.yul\":3866:3954   */\n  mstore\n    /* \"#utility.yul\":3973:3977   */\n  0x22\n    /* \"#utility.yul\":3970:3971   */\n  0x04\n    /* \"#utility.yul\":3963:3978   */\n  mstore\n    /* \"#utility.yul\":3997:4001   */\n  0x24\n    /* \"#utility.yul\":3994:3995   */\n  0x00\n    /* \"#utility.yul\":3987:4002   */\n  revert\n    /* \"#utility.yul\":4014:4334   */\ntag_29:\n    /* \"#utility.yul\":4058:4064   */\n  0x00\n    /* \"#utility.yul\":4095:4096   */\n  0x02\n    /* \"#utility.yul\":4089:4093   */\n  dup3\n    /* \"#utility.yul\":4085:4097   */\n  div\n    /* \"#utility.yul\":4075:4097   */\n  swap1\n  pop\n    /* \"#utility.yul\":4142:4143   */\n  0x01\n    /* \"#utility.yul\":4136:4140   */\n  dup3\n    /* \"#utility.yul\":4132:4144   */\n  and\n    /* \"#utility.yul\":4163:4181   */\n  dup1\n    /* \"#utility.yul\":4153:4234   */\n  tag_94\n  jumpi\n    /* \"#utility.yul\":4219:4223   */\n  0x7f\n    /* \"#utility.yul\":4211:4217   */\n  dup3\n    /* \"#utility.yul\":4207:4224   */\n  and\n    /* \"#utility.yul\":4197:4224   */\n  swap2\n  pop\n    /* \"#utility.yul\":4153:4234   */\ntag_94:\n    /* \"#utility.yul\":4281:4283   */\n  0x20\n    /* \"#utility.yul\":4273:4279   */\n  dup3\n    /* \"#utility.yul\":4270:4284   */\n  lt\n    /* \"#utility.yul\":4250:4268   */\n  dup2\n    /* \"#utility.yul\":4247:4285   */\n  sub\n    /* \"#utility.yul\":4244:4328   */\n  tag_95\n  jumpi\n    /* \"#utility.yul\":4300:4318   */\n  tag_96\n  tag_28\n  jump\t// in\ntag_96:\n    /* \"#utility.yul\":4244:4328   */\ntag_95:\n    /* \"#utility.yul\":4065:4334   */\n  pop\n    /* \"#utility.yul\":4014:4334   */\n  swap2\n  swap1\n  pop\n  jump\t// out\n    /* \"#utility.yul\":4340:4481   */\ntag_30:\n    /* \"#utility.yul\":4389:4393   */\n  0x00\n    /* \"#utility.yul\":4412:4415   */\n  dup2\n    /* \"#utility.yul\":4404:4415   */\n  swap1\n  pop\n    /* \"#utility.yul\":4435:4438   */\n  dup2\n    /* \"#utility.yul\":4432:4433   */\n  0x00\n    /* \"#utility.yul\":4425:4439   */\n  mstore\n    /* \"#utility.yul\":4469:4473   */\n  0x20\n    /* \"#utility.yul\":4466:4467   */\n  0x00\n    /* \"#utility.yul\":4456:4474   */\n  keccak256\n    /* \"#utility.yul\":4448:4474   */\n  swap1\n  pop\n    /* \"#utility.yul\":4340:4481   */\n  swap2\n  swap1\n  pop\n  jump\t// out\n    /* \"#utility.yul\":4487:4580   */\ntag_31:\n    /* \"#utility.yul\":4524:4530   */\n  0x00\n    /* \"#utility.yul\":4571:4573   */\n  0x20\n    /* \"#utility.yul\":4566:4568   */\n  0x1f\n    /* \"#utility.yul\":4559:4564   */\n  dup4\n    /* \"#utility.yul\":4555:4569   */\n  add\n    /* \"#utility.yul\":4551:4574   */\n  div\n    /* \"#utility.yul\":4541:4574   */\n  swap1\n  pop\n    /* \"#utility.yul\":4487:4580   */\n  swap2\n  swap1\n  pop\n  jump\t// out\n    /* \"#utility.yul\":4586:4693   */\ntag_32:\n    /* \"#utility.yul\":4630:4638   */\n  0x00\n    /* \"#utility.yul\":4680:4685   */\n  dup3\n    /* \"#utility.yul\":4674:4678   */\n  dup3\n    /* \"#utility.yul\":4670:4686   */\n  shl\n    /* \"#utility.yul\":4649:4686   */\n  swap1\n  pop\n    /* \"#utility.yul\":4586:4693   */\n  swap3\n  swap2\n  pop\n  pop\n  jump\t// out\n    /* \"#utility.yul\":4699:5092   */\ntag_33:\n    /* \"#utility.yul\":4768:4774   */\n  0x00\n    /* \"#utility.yul\":4818:4819   */\n  0x08\n    /* \"#utility.yul\":4806:4816   */\n  dup4\n    /* \"#utility.yul\":4802:4820   */\n  mul\n    /* \"#utility.yul\":4841:4938   */\n  tag_101\n    /* \"#utility.yul\":4871:4937   */\n  0xffffffffffffffffffffffffffffffffffffffffffffffffffffffffffffffff\n    /* \"#utility.yul\":4860:4869   */\n  dup3\n    /* \"#utility.yul\":4841:4938   */\n  tag_32\n  jump\t// in\ntag_101:\n    /* \"#utility.yul\":4959:4998   */\n  tag_102\n    /* \"#utility.yul\":4989:4997   */\n  dup7\n    /* \"#utility.yul\":4978:4987   */\n  dup4\n    /* \"#utility.yul\":4959:4998   */\n  tag_32\n  jump\t// in\ntag_102:\n    /* \"#utility.yul\":4947:4998   */\n  swap6\n  pop\n    /* \"#utility.yul\":5031:5035   */\n  dup1\n    /* \"#utility.yul\":5027:5036   */\n  not\n    /* \"#utility.yul\":5020:5025   */\n  dup5\n    /* \"#utility.yul\":5016:5037   */\n  and\n    /* \"#utility.yul\":5007:5037   */\n  swap4\n  pop\n    /* \"#utility.yul\":5080:5084   */\n  dup1\n    /* \"#utility.yul\":5070:5078   */\n  dup7\n    /* \"#utility.yul\":5066:5085   */\n  and\n    /* \"#utility.yul\":5059:5064   */\n  dup5\n    /* \"#utility.yul\":5056:5086   */\n  or\n    /* \"#utility.yul\":5046:5086   */\n  swap3\n  pop\n    /* \"#utility.yul\":4775:5092   */\n  pop\n  pop\n    /* \"#utility.yul\":4699:5092   */\n  swap4\n  swap3\n  pop\n  pop\n  pop\n  jump\t// out\n    /* \"#utility.yul\":5098:5158   */\ntag_34:\n    /* \"#utility.yul\":5126:5129   */\n  0x00\n    /* \"#utility.yul\":5147:5152   */\n  dup2\n    /* \"#utility.yul\":5140:5152   */\n  swap1\n  pop\n    /* \"#utility.yul\":5098:5158   */\n  swap2\n  swap1\n  pop\n  jump\t// out\n    /* \"#utility.yul\":5164:5306   */\ntag_35:\n    /* \"#utility.yul\":5214:5223   */\n  0x00\n    /* \"#utility.yul\":5247:5300   */\n  tag_105\n    /* \"#utility.yul\":5265:5299   */\n  tag_106\n    /* \"#utility.yul\":5274:5298   */\n  tag_107\n    /* \"#utility.yul\":5292:5297   */\n  dup5\n    /* \"#utility.yul\":5274:5298   */\n  tag_24\n  jump\t// in\ntag_107:\n    /* \"#utility.yul\":5265:5299   */\n  tag_34\n  jump\t// in\ntag_106:\n    /* \"#utility.yul\":5247:5300   */\n  tag_24\n  jump\t// in\ntag_105:\n    /* \"#utility.yul\":5234:5300   */\n  swap1\n  pop\n    /* \"#utility.yul\":5164:5306   */\n  swap2\n  swap1\n  pop\n  jump\t// out\n    /* \"#utility.yul\":5312:5387   */\ntag_36:\n    /* \"#utility.yul\":5355:5358   */\n  0x00\n    /* \"#utility.yul\":5376:5381   */\n  dup2\n    /* \"#utility.yul\":5369:5381   */\n  swap1\n  pop\n    /* \"#utility.yul\":5312:5387   */\n  swap2\n  swap1\n  pop\n  jump\t// out\n    /* \"#utility.yul\":5393:5662   */\ntag_37:\n    /* \"#utility.yul\":5503:5542   */\n  tag_110\n    /* \"#utility.yul\":5534:5541   */\n  dup4\n    /* \"#utility.yul\":5503:5542   */\n  tag_35\n  jump\t// in\ntag_110:\n    /* \"#utility.yul\":5564:5655   */\n  tag_111\n    /* \"#utility.yul\":5613:5654   */\n  tag_112\n    /* \"#utility.yul\":5637:5653   */\n  dup3\n    /* \"#utility.yul\":5613:5654   */\n  tag_36\n  jump\t// in\ntag_112:\n    /* \"#utility.yul\":5605:5611   */\n  dup5\n    /* \"#utility.yul\":5598:5602   */\n  dup5\n    /* \"#utility.yul\":5592:5603   */\n  sload\n    /* \"#utility.yul\":5564:5655   */\n  tag_33\n  jump\t// in\ntag_111:\n    /* \"#utility.yul\":5558:5562   */\n  dup3\n    /* \"#utility.yul\":5551:5656   */\n  sstore\n    /* \"#utility.yul\":5469:5662   */\n  pop\n    /* \"#utility.yul\":5393:5662   */\n  pop\n  pop\n  pop\n  jump\t// out\n    /* \"#utility.yul\":5668:5741   */\ntag_38:\n    /* \"#utility.yul\":5713:5716   */\n  0x00\n    /* \"#utility.yul\":5668:5741   */\n  swap1\n  jump\t// out\n    /* \"#utility.yul\":5747:5936   */\ntag_39:\n    /* \"#utility.yul\":5824:5856   */\n  tag_115\n  tag_38\n  jump\t// in\ntag_115:\n    /* \"#utility.yul\":5865:5930   */\n  tag_116\n    /* \"#utility.yul\":5923:5929   */\n  dup2\n    /* \"#utility.yul\":5915:5921   */\n  dup5\n    /* \"#utility.yul\":5909:5913   */\n  dup5\n    /* \"#utility.yul\":5865:5930   */\n  tag_37\n  jump\t// in\ntag_116:\n    /* \"#utility.yul\":5800:5936   */\n  pop\n    /* \"#utility.yul\":5747:5936   */\n  pop\n  pop\n  jump\t// out\n    /* \"#utility.yul\":5942:6128   */\ntag_40:\n    /* \"#utility.yul\":6002:6122   */\ntag_118:\n    /* \"#utility.yul\":6019:6022   */\n  dup2\n    /* \"#utility.yul\":6012:6017   */\n  dup2\n    /* \"#utility.yul\":6009:6023   */\n  lt\n    /* \"#utility.yul\":6002:6122   */\n  iszero\n  tag_120\n  jumpi\n    /* \"#utility.yul\":6073:6112   */\n  tag_121\n    /* \"#utility.yul\":6110:6111   */\n  0x00\n    /* \"#utility.yul\":6103:6108   */\n  dup3\n    /* \"#utility.yul\":6073:6112   */\n  tag_39\n  jump\t// in\ntag_121:\n    /* \"#utility.yul\":6046:6047   */\n  0x01\n    /* \"#utility.yul\":6039:6044   */\n  dup2\n    /* \"#utility.yul\":6035:6048   */\n  add\n    /* \"#utility.yul\":6026:6048   */\n  swap1\n  pop\n    /* \"#utility.yul\":6002:6122   */\n  jump(tag_118)\ntag_120:\n    /* \"#utility.yul\":5942:6128   */\n  pop\n  pop\n  jump\t// out\n    /* \"#utility.yul\":6134:6677   */\ntag_41:\n    /* \"#utility.yul\":6235:6237   */\n  0x1f\n    /* \"#utility.yul\":6230:6233   */\n  dup3\n    /* \"#utility.yul\":6227:6238   */\n  gt\n    /* \"#utility.yul\":6224:6670   */\n  iszero\n  tag_123\n  jumpi\n    /* \"#utility.yul\":6269:6307   */\n  tag_124\n    /* \"#utility.yul\":6301:6306   */\n  dup2\n    /* \"#utility.yul\":6269:6307   */\n  tag_30\n  jump\t// in\ntag_124:\n    /* \"#utility.yul\":6353:6382   */\n  tag_125\n    /* \"#utility.yul\":6371:6381   */\n  dup5\n    /* \"#utility.yul\":6353:6382   */\n  tag_31\n  jump\t// in\ntag_125:\n    /* \"#utility.yul\":6343:6351   */\n  dup2\n    /* \"#utility.yul\":6339:6383   */\n  add\n    /* \"#utility.yul\":6536:6538   */\n  0x20\n    /* \"#utility.yul\":6524:6534   */\n  dup6\n    /* \"#utility.yul\":6521:6539   */\n  lt\n    /* \"#utility.yul\":6518:6567   */\n  iszero\n  tag_126\n  jumpi\n    /* \"#utility.yul\":6557:6565   */\n  dup2\n    /* \"#utility.yul\":6542:6565   */\n  swap1\n  pop\n    /* \"#utility.yul\":6518:6567   */\ntag_126:\n    /* \"#utility.yul\":6580:6660   */\n  tag_127\n    /* \"#utility.yul\":6636:6658   */\n  tag_128\n    /* \"#utility.yul\":6654:6657   */\n  dup6\n    /* \"#utility.yul\":6636:6658   */\n  tag_31\n  jump\t// in\ntag_128:\n    /* \"#utility.yul\":6626:6634   */\n  dup4\n    /* \"#utility.yul\":6622:6659   */\n  add\n    /* \"#utility.yul\":6609:6620   */\n  dup3\n    /* \"#utility.yul\":6580:6660   */\n  tag_40\n  jump\t// in\ntag_127:\n    /* \"#utility.yul\":6239:6670   */\n  pop\n  pop\n    /* \"#utility.yul\":6224:6670   */\ntag_123:\n    /* \"#utility.yul\":6134:6677   */\n  pop\n  pop\n  pop\n  jump\t// out\n    /* \"#utility.yul\":6683:6800   */\ntag_42:\n    /* \"#utility.yul\":6737:6745   */\n  0x00\n    /* \"#utility.yul\":6787:6792   */\n  dup3\n    /* \"#utility.yul\":6781:6785   */\n  dup3\n    /* \"#utility.yul\":6777:6793   */\n  shr\n    /* \"#utility.yul\":6756:6793   */\n  swap1\n  pop\n    /* \"#utility.yul\":6683:6800   */\n  swap3\n  swap2\n  pop\n  pop\n  jump\t// out\n    /* \"#utility.yul\":6806:6975   */\ntag_43:\n    /* \"#utility.yul\":6850:6856   */\n  0x00\n    /* \"#utility.yul\":6883:6934   */\n  tag_131\n    /* \"#utility.yul\":6931:6932   */\n  0x00\n    /* \"#utility.yul\":6927:6933   */\n  not\n    /* \"#utility.yul\":6919:6924   */\n  dup5\n    /* \"#utility.yul\":6916:6917   */\n  0x08\n    /* \"#utility.yul\":6912:6925   */\n  mul\n    /* \"#utility.yul\":6883:6934   */\n  tag_42\n  jump\t// in\ntag_131:\n    /* \"#utility.yul\":6879:6935   */\n  not\n    /* \"#utility.yul\":6964:6968   */\n  dup1\n    /* \"#utility.yul\":6958:6962   */\n  dup4\n    /* \"#utility.yul\":6954:6969   */\n  and\n    /* \"#utility.yul\":6944:6969   */\n  swap2\n  pop\n    /* \"#utility.yul\":6857:6975   */\n  pop\n    /* \"#utility.yul\":6806:6975   */\n  swap3\n  swap2\n  pop\n  pop\n  jump\t// out\n    /* \"#utility.yul\":6980:7275   */\ntag_44:\n    /* \"#utility.yul\":7056:7060   */\n  0x00\n    /* \"#utility.yul\":7202:7231   */\n  tag_133\n    /* \"#utility.yul\":7227:7230   */\n  dup4\n    /* \"#utility.yul\":7221:7225   */\n  dup4\n    /* \"#utility.yul\":7202:7231   */\n  tag_43\n  jump\t// in\ntag_133:\n    /* \"#utility.yul\":7194:7231   */\n  swap2\n  pop\n    /* \"#utility.yul\":7264:7267   */\n  dup3\n    /* \"#utility.yul\":7261:7262   */\n  0x02\n    /* \"#utility.yul\":7257:7268   */\n  mul\n    /* \"#utility.yul\":7251:7255   */\n  dup3\n    /* \"#utility.yul\":7248:7269   */\n  or\n    /* \"#utility.yul\":7240:7269   */\n  swap1\n  pop\n    /* \"#utility.yul\":6980:7275   */\n  swap3\n  swap2\n  pop\n  pop\n  jump\t// out\n    /* \"#utility.yul\":7280:8675   */\ntag_9:\n    /* \"#utility.yul\":7397:7434   */\n  tag_135\n    /* \"#utility.yul\":7430:7433   */\n  dup3\n    /* \"#utility.yul\":7397:7434   */\n  tag_27\n  jump\t// in\ntag_135:\n    /* \"#utility.yul\":7499:7517   */\n  0xffffffffffffffff\n    /* \"#utility.yul\":7491:7497   */\n  dup2\n    /* \"#utility.yul\":7488:7518   */\n  gt\n    /* \"#utility.yul\":7485:7541   */\n  iszero\n  tag_136\n  jumpi\n    /* \"#utility.yul\":7521:7539   */\n  tag_137\n  tag_17\n  jump\t// in\ntag_137:\n    /* \"#utility.yul\":7485:7541   */\ntag_136:\n    /* \"#utility.yul\":7565:7603   */\n  tag_138\n    /* \"#utility.yul\":7597:7601   */\n  dup3\n    /* \"#utility.yul\":7591:7602   */\n  sload\n    /* \"#utility.yul\":7565:7603   */\n  tag_29\n  jump\t// in\ntag_138:\n    /* \"#utility.yul\":7650:7717   */\n  tag_139\n    /* \"#utility.yul\":7710:7716   */\n  dup3\n    /* \"#utility.yul\":7702:7708   */\n  dup3\n    /* \"#utility.yul\":7696:7700   */\n  dup6\n    /* \"#utility.yul\":7650:7717   */\n  tag_41\n  jump\t// in\ntag_139:\n    /* \"#utility.yul\":7744:7745   */\n  0x00\n    /* \"#utility.yul\":7768:7772   */\n  0x20\n    /* \"#utility.yul\":7755:7772   */\n  swap1\n  pop\n    /* \"#utility.yul\":7800:7802   */\n  0x1f\n    /* \"#utility.yul\":7792:7798   */\n  dup4\n    /* \"#utility.yul\":7789:7803   */\n  gt\n    /* \"#utility.yul\":7817:7818   */\n  0x01\n    /* \"#utility.yul\":7812:8430   */\n  dup2\n  eq\n  tag_141\n  jumpi\n    /* \"#utility.yul\":8474:8475   */\n  0x00\n    /* \"#utility.yul\":8491:8497   */\n  dup5\n    /* \"#utility.yul\":8488:8565   */\n  iszero\n  tag_142\n  jumpi\n    /* \"#utility.yul\":8540:8549   */\n  dup3\n    /* \"#utility.yul\":8535:8538   */\n  dup8\n    /* \"#utility.yul\":8531:8550   */\n  add\n    /* \"#utility.yul\":8525:8551   */\n  mload\n    /* \"#utility.yul\":8516:8551   */\n  swap1\n  pop\n    /* \"#utility.yul\":8488:8565   */\ntag_142:\n    /* \"#utility.yul\":8591:8658   */\n  tag_143\n    /* \"#utility.yul\":8651:8657   */\n  dup6\n    /* \"#utility.yul\":8644:8649   */\n  dup3\n    /* \"#utility.yul\":8591:8658   */\n  tag_44\n  jump\t// in\ntag_143:\n    /* \"#utility.yul\":8585:8589   */\n  dup7\n    /* \"#utility.yul\":8578:8659   */\n  sstore\n    /* \"#utility.yul\":8447:8669   */\n  pop\n    /* \"#utility.yul\":7782:8669   */\n  jump(tag_140)\n    /* \"#utility.yul\":7812:8430   */\ntag_141:\n    /* \"#utility.yul\":7864:7868   */\n  0x1f\n    /* \"#utility.yul\":7860:7869   */\n  not\n    /* \"#utility.yul\":7852:7858   */\n  dup5\n    /* \"#utility.yul\":7848:7870   */\n  and\n    /* \"#utility.yul\":7898:7935   */\n  tag_144\n    /* \"#utility.yul\":7930:7934   */\n  dup7\n    /* \"#utility.yul\":7898:7935   */\n  tag_30\n  jump\t// in\ntag_144:\n    /* \"#utility.yul\":7957:7958   */\n  0x00\n    /* \"#utility.yul\":7971:8179   */\ntag_145:\n    /* \"#utility.yul\":7985:7992   */\n  dup3\n    /* \"#utility.yul\":7982:7983   */\n  dup2\n    /* \"#utility.yul\":7979:7993   */\n  lt\n    /* \"#utility.yul\":7971:8179   */\n  iszero\n  tag_147\n  jumpi\n    /* \"#utility.yul\":8064:8073   */\n  dup5\n    /* \"#utility.yul\":8059:8062   */\n  dup10\n    /* \"#utility.yul\":8055:8074   */\n  add\n    /* \"#utility.yul\":8049:8075   */\n  mload\n    /* \"#utility.yul\":8041:8047   */\n  dup3\n    /* \"#utility.yul\":8034:8076   */\n  sstore\n    /* \"#utility.yul\":8115:8116   */\n  0x01\n    /* \"#utility.yul\":8107:8113   */\n  dup3\n    /* \"#utility.yul\":8103:8117   */\n  add\n    /* \"#utility.yul\":8093:8117   */\n  swap2\n  pop\n    /* \"#utility.yul\":8162:8164   */\n  0x20\n    /* \"#utility.yul\":8151:8160   */\n  dup6\n    /* \"#utility.yul\":8147:8165   */\n  add\n    /* \"#utility.yul\":8134:8165   */\n  swap5\n  pop\n    /* \"#utility.yul\":8008:8012   */\n  0x20\n    /* \"#utility.yul\":8005:8006   */\n  dup2\n    /* \"#utility.yul\":8001:8013   */\n  add\n    /* \"#utility.yul\":7996:8013   */\n  swap1\n  pop\n    /* \"#utility.yul\":7971:8179   */\n  jump(tag_145)\ntag_147:\n    /* \"#utility.yul\":8207:8213   */\n  dup7\n    /* \"#utility.yul\":8198:8205   */\n  dup4\n    /* \"#utility.yul\":8195:8214   */\n  lt\n    /* \"#utility.yul\":8192:8371   */\n  iszero\n  tag_148\n  jumpi\n    /* \"#utility.yul\":8265:8274   */\n  dup5\n    /* \"#utility.yul\":8260:8263   */\n  dup10\n    /* \"#utility.yul\":8256:8275   */\n  add\n    /* \"#utility.yul\":8250:8276   */\n  mload\n    /* \"#utility.yul\":8308:8356   */\n  tag_149\n    /* \"#utility.yul\":8350:8354   */\n  0x1f\n    /* \"#utility.yul\":8342:8348   */\n  dup10\n    /* \"#utility.yul\":8338:8355   */\n  and\n    /* \"#utility.yul\":8327:8336   */\n  dup3\n    /* \"#utility.yul\":8308:8356   */\n  tag_43\n  jump\t// in\ntag_149:\n    /* \"#utility.yul\":8300:8306   */\n  dup4\n    /* \"#utility.yul\":8293:8357   */\n  sstore\n    /* \"#utility.yul\":8215:8371   */\n  pop\n    /* \"#utility.yul\":8192:8371   */\ntag_148:\n    /* \"#utility.yul\":8417:8418   */\n  0x01\n    /* \"#utility.yul\":8413:8414   */\n  0x02\n    /* \"#utility.yul\":8405:8411   */\n  dup9\n    /* \"#utility.yul\":8401:8415   */\n  mul\n    /* \"#utility.yul\":8397:8419   */\n  add\n    /* \"#utility.yul\":8391:8395   */\n  dup9\n    /* \"#utility.yul\":8384:8420   */\n  sstore\n    /* \"#utility.yul\":7819:8430   */\n  pop\n  pop\n  pop\n    /* \"#utility.yul\":7782:8669   */\ntag_140:\n  pop\n    /* \"#utility.yul\":7372:8675   */\n  pop\n  pop\n  pop\n    /* \"#utility.yul\":7280:8675   */\n  pop\n  pop\n  jump\t// out\n    /* \"contracts/Product.sol\":87:3088  contract Product is Ownable{... */\ntag_10:\n  dataSize(sub_0)\n  dup1\n  dataOffset(sub_0)\n  0x00\n  codecopy\n  0x00\n  return\nstop\n\nsub_0: assembly {\n        /* \"contracts/Product.sol\":87:3088  contract Product is Ownable{... */\n      mstore(0x40, 0x80)\n      callvalue\n      dup1\n      iszero\n      tag_1\n      jumpi\n      0x00\n      dup1\n      revert\n    tag_1:\n      pop\n      jumpi(tag_2, lt(calldatasize, 0x04))\n      shr(0xe0, calldataload(0x00))\n      dup1\n      0x8da5cb5b\n      gt\n      tag_28\n      jumpi\n      dup1\n      0xc1f4f855\n      gt\n      tag_29\n      jumpi\n      dup1\n      0xd4f6c1ff\n      gt\n      tag_30\n      jumpi\n      dup1\n      0xd4f6c1ff\n      eq\n      tag_24\n      jumpi\n      dup1\n      0xd7a1ab3c\n      eq\n      tag_25\n      jumpi\n      dup1\n      0xe6e210ba\n      eq\n      tag_26\n      jumpi\n      dup1\n      0xf2940a43\n      eq\n      tag_27\n      jumpi\n      jump(tag_2)\n    tag_30:\n      dup1\n      0xc1f4f855\n      eq\n      tag_21\n      jumpi\n      dup1\n      0xc28388fa\n      eq\n      tag_22\n      jumpi\n      dup1\n      0xcae5f950\n      eq\n      tag_23\n      jumpi\n      jump(tag_2)\n    tag_29:\n      dup1\n      0x8da5cb5b\n      eq\n      tag_15\n      jumpi\n      dup1\n      0x9155e45b\n      eq\n      tag_16\n      jumpi\n      dup1\n      0x9f285f06\n      eq\n      tag_17\n      jumpi\n      dup1\n      0x9f79e280\n      eq\n      tag_18\n      jumpi\n      dup1\n      0xa022be05\n      eq\n      tag_19\n      jumpi\n      dup1\n      0xbed2aefe\n      eq\n      tag_20\n      jumpi\n      jump(tag_2)\n    tag_28:\n      dup1\n      0x27757d40\n      gt\n      tag_31\n      jumpi\n      dup1\n      0x27757d40\n      eq\n      tag_9\n      jumpi\n      dup1\n      0x2b6952e6\n      eq\n      tag_10\n      jumpi\n      dup1\n      0x3fad4a37\n      eq\n      tag_11\n      jumpi\n      dup1\n      0x5789726a\n      eq\n      tag_12\n      jumpi\n      dup1\n      0x76efa463\n      eq\n      tag_13\n      jumpi\n      dup1\n      0x78fb654a\n      eq\n      tag_14\n      jumpi\n      jump(tag_2)\n    tag_31:\n      dup1\n      0x0373e405\n      eq\n      tag_3\n      jumpi\n      dup1\n      0x04a3f393\n      eq\n      tag_4\n      jumpi\n      dup1\n      0x06079551\n      eq\n      tag_5\n      jumpi\n      dup1\n      0x06fdde03\n      eq\n      tag_6\n      jumpi\n      dup1\n      0x0b940f6a\n      eq\n      tag_7\n      jumpi\n      dup1\n      0x244ded7a\n      eq\n      tag_8\n      jumpi\n    tag_2:\n      0x00\n      dup1\n      revert\n        /* \"contracts/Product.sol\":2754:3085  function Do_Handshake_To_Predecessor(address predecessor_address) public{... */\n    tag_3:\n      tag_32\n      0x04\n      dup1\n      calldatasize\n      sub\n      dup2\n      add\n      swap1\n      tag_33\n      swap2\n      swap1\n      tag_34\n      jump\t// in\n    tag_33:\n      tag_35\n      jump\t// in\n    tag_32:\n      stop\n        /* \"contracts/Product.sol\":1327:1454  function Set_CarbonFootPrint(uint new_CarbonFootprint) public onlyOwner{... */\n    tag_4:\n      tag_36\n      0x04\n      dup1\n      calldatasize\n      sub\n      dup2\n      add\n      swap1\n      tag_37\n      swap2\n      swap1\n      tag_38\n      jump\t// in\n    tag_37:\n      tag_39\n      jump\t// in\n    tag_36:\n      stop\n        /* \"contracts/Product.sol\":392:446  mapping(uint => uint) public predecessorIdToArrayIndex */\n    tag_5:\n      tag_40\n      0x04\n      dup1\n      calldatasize\n      sub\n      dup2\n      add\n      swap1\n      tag_41\n      swap2\n      swap1\n      tag_38\n      jump\t// in\n    tag_41:\n      tag_42\n      jump\t// in\n    tag_40:\n      mload(0x40)\n      tag_43\n      swap2\n      swap1\n      tag_44\n      jump\t// in\n    tag_43:\n      mload(0x40)\n      dup1\n      swap2\n      sub\n      swap1\n      return\n        /* \"contracts/Product.sol\":162:180  string public name */\n    tag_6:\n      tag_45\n      tag_46\n      jump\t// in\n    tag_45:\n      mload(0x40)\n      tag_47\n      swap2\n      swap1\n      tag_48\n      jump\t// in\n    tag_47:\n      mload(0x40)\n      dup1\n      swap2\n      sub\n      swap1\n      return\n        /* \"contracts/Product.sol\":602:637  string public swarm_storage_address */\n    tag_7:\n      tag_49\n      tag_50\n      jump\t// in\n    tag_49:\n      mload(0x40)\n      tag_51\n      swap2\n      swap1\n      tag_48\n      jump\t// in\n    tag_51:\n      mload(0x40)\n      dup1\n      swap2\n      sub\n      swap1\n      return\n        /* \"contracts/Ownable.sol\":295:390  function ChangeOwnership(address newOwner) public  onlyOwner{... */\n    tag_8:\n      tag_52\n      0x04\n      dup1\n      calldatasize\n      sub\n      dup2\n      add\n      swap1\n      tag_53\n      swap2\n      swap1\n      tag_34\n      jump\t// in\n    tag_53:\n      tag_54\n      jump\t// in\n    tag_52:\n      stop\n        /* \"contracts/Product.sol\":455:484  address[] public successorIds */\n    tag_9:\n      tag_55\n      0x04\n      dup1\n      calldatasize\n      sub\n      dup2\n      add\n      swap1\n      tag_56\n      swap2\n      swap1\n      tag_38\n      jump\t// in\n    tag_56:\n      tag_57\n      jump\t// in\n    tag_55:\n      mload(0x40)\n      tag_58\n      swap2\n      swap1\n      tag_59\n      jump\t// in\n    tag_58:\n      mload(0x40)\n      dup1\n      swap2\n      sub\n      swap1\n      return\n        /* \"contracts/Product.sol\":532:557  address[] public labelIds */\n    tag_10:\n      tag_60\n      0x04\n      dup1\n      calldatasize\n      sub\n      dup2\n      add\n      swap1\n      tag_61\n      swap2\n      swap1\n      tag_38\n      jump\t// in\n    tag_61:\n      tag_62\n      jump\t// in\n    tag_60:\n      mload(0x40)\n      tag_63\n      swap2\n      swap1\n      tag_59\n      jump\t// in\n    tag_63:\n      mload(0x40)\n      dup1\n      swap2\n      sub\n      swap1\n      return\n        /* \"contracts/Product.sol\":1921:2163  function Accept_SuccessorCandidate() external {... */\n    tag_11:\n      tag_64\n      tag_65\n      jump\t// in\n    tag_64:\n      stop\n        /* \"contracts/Product.sol\":1202:1319  function Set_LabelIds(address[] calldata new_LabelIds) public onlyOwner{... */\n    tag_12:\n      tag_66\n      0x04\n      dup1\n      calldatasize\n      sub\n      dup2\n      add\n      swap1\n      tag_67\n      swap2\n      swap1\n      tag_68\n      jump\t// in\n    tag_67:\n      tag_69\n      jump\t// in\n    tag_66:\n      stop\n        /* \"contracts/Product.sol\":2171:2419  function Accept_PredecessorCandidate() external {... */\n    tag_13:\n      tag_70\n      tag_71\n      jump\t// in\n    tag_70:\n      stop\n        /* \"contracts/Product.sol\":1462:1545  function Set_IsValue(bool value) public onlyOwner{... */\n    tag_14:\n      tag_72\n      0x04\n      dup1\n      calldatasize\n      sub\n      dup2\n      add\n      swap1\n      tag_73\n      swap2\n      swap1\n      tag_74\n      jump\t// in\n    tag_73:\n      tag_75\n      jump\t// in\n    tag_72:\n      stop\n        /* \"contracts/Ownable.sol\":97:117  address public owner */\n    tag_15:\n      tag_76\n      tag_77\n      jump\t// in\n    tag_76:\n      mload(0x40)\n      tag_78\n      swap2\n      swap1\n      tag_59\n      jump\t// in\n    tag_78:\n      mload(0x40)\n      dup1\n      swap2\n      sub\n      swap1\n      return\n        /* \"contracts/Product.sol\":820:914  function Set_Name(string calldata new_name) public onlyOwner{... */\n    tag_16:\n      tag_79\n      0x04\n      dup1\n      calldatasize\n      sub\n      dup2\n      add\n      swap1\n      tag_80\n      swap2\n      swap1\n      tag_81\n      jump\t// in\n    tag_80:\n      tag_82\n      jump\t// in\n    tag_79:\n      stop\n        /* \"contracts/Product.sol\":259:324  mapping(address => bool) public predecessorIdIsHandshakeCandidate */\n    tag_17:\n      tag_83\n      0x04\n      dup1\n      calldatasize\n      sub\n      dup2\n      add\n      swap1\n      tag_84\n      swap2\n      swap1\n      tag_34\n      jump\t// in\n    tag_84:\n      tag_85\n      jump\t// in\n    tag_83:\n      mload(0x40)\n      tag_86\n      swap2\n      swap1\n      tag_87\n      jump\t// in\n    tag_86:\n      mload(0x40)\n      dup1\n      swap2\n      sub\n      swap1\n      return\n        /* \"contracts/Product.sol\":333:385  mapping(uint => uint) public successorIdToArrayIndex */\n    tag_18:\n      tag_88\n      0x04\n      dup1\n      calldatasize\n      sub\n      dup2\n      add\n      swap1\n      tag_89\n      swap2\n      swap1\n      tag_38\n      jump\t// in\n    tag_89:\n      tag_90\n      jump\t// in\n    tag_88:\n      mload(0x40)\n      tag_91\n      swap2\n      swap1\n      tag_44\n      jump\t// in\n    tag_91:\n      mload(0x40)\n      dup1\n      swap2\n      sub\n      swap1\n      return\n        /* \"contracts/Product.sol\":922:1051  function Set_SuccessorIds(address[] calldata new_successorIds) public onlyOwner{... */\n    tag_19:\n      tag_92\n      0x04\n      dup1\n      calldatasize\n      sub\n      dup2\n      add\n      swap1\n      tag_93\n      swap2\n      swap1\n      tag_68\n      jump\t// in\n    tag_93:\n      tag_94\n      jump\t// in\n    tag_92:\n      stop\n        /* \"contracts/Product.sol\":2427:2742  function Do_Handshake_To_Successor(address successor_address) public{... */\n    tag_20:\n      tag_95\n      0x04\n      dup1\n      calldatasize\n      sub\n      dup2\n      add\n      swap1\n      tag_96\n      swap2\n      swap1\n      tag_34\n      jump\t// in\n    tag_96:\n      tag_97\n      jump\t// in\n    tag_95:\n      stop\n        /* \"contracts/Product.sol\":492:523  address[] public predecessorIds */\n    tag_21:\n      tag_98\n      0x04\n      dup1\n      calldatasize\n      sub\n      dup2\n      add\n      swap1\n      tag_99\n      swap2\n      swap1\n      tag_38\n      jump\t// in\n    tag_99:\n      tag_100\n      jump\t// in\n    tag_98:\n      mload(0x40)\n      tag_101\n      swap2\n      swap1\n      tag_59\n      jump\t// in\n    tag_101:\n      mload(0x40)\n      dup1\n      swap2\n      sub\n      swap1\n      return\n        /* \"contracts/Product.sol\":1059:1194  function Set_PredecessorIds(address[] calldata new_predecessorIds) public onlyOwner{... */\n    tag_22:\n      tag_102\n      0x04\n      dup1\n      calldatasize\n      sub\n      dup2\n      add\n      swap1\n      tag_103\n      swap2\n      swap1\n      tag_68\n      jump\t// in\n    tag_103:\n      tag_104\n      jump\t// in\n    tag_102:\n      stop\n        /* \"contracts/Product.sol\":1719:1883  function Has_PredecessorCandidate(address predecessorAddress) public view returns(bool){... */\n    tag_23:\n      tag_105\n      0x04\n      dup1\n      calldatasize\n      sub\n      dup2\n      add\n      swap1\n      tag_106\n      swap2\n      swap1\n      tag_34\n      jump\t// in\n    tag_106:\n      tag_107\n      jump\t// in\n    tag_105:\n      mload(0x40)\n      tag_108\n      swap2\n      swap1\n      tag_87\n      jump\t// in\n    tag_108:\n      mload(0x40)\n      dup1\n      swap2\n      sub\n      swap1\n      return\n        /* \"contracts/Product.sol\":1553:1711  function Has_SuccessorCandidate(address successorAddress) public view returns(bool){... */\n    tag_24:\n      tag_109\n      0x04\n      dup1\n      calldatasize\n      sub\n      dup2\n      add\n      swap1\n      tag_110\n      swap2\n      swap1\n      tag_34\n      jump\t// in\n    tag_110:\n      tag_111\n      jump\t// in\n    tag_109:\n      mload(0x40)\n      tag_112\n      swap2\n      swap1\n      tag_87\n      jump\t// in\n    tag_112:\n      mload(0x40)\n      dup1\n      swap2\n      sub\n      swap1\n      return\n        /* \"contracts/Product.sol\":566:593  uint public carbonFootprint */\n    tag_25:\n      tag_113\n      tag_114\n      jump\t// in\n    tag_113:\n      mload(0x40)\n      tag_115\n      swap2\n      swap1\n      tag_44\n      jump\t// in\n    tag_115:\n      mload(0x40)\n      dup1\n      swap2\n      sub\n      swap1\n      return\n        /* \"contracts/Product.sol\":189:252  mapping(address => bool) public successorIdIsHandshakeCandidate */\n    tag_26:\n      tag_116\n      0x04\n      dup1\n      calldatasize\n      sub\n      dup2\n      add\n      swap1\n      tag_117\n      swap2\n      swap1\n      tag_34\n      jump\t// in\n    tag_117:\n      tag_118\n      jump\t// in\n    tag_116:\n      mload(0x40)\n      tag_119\n      swap2\n      swap1\n      tag_87\n      jump\t// in\n    tag_119:\n      mload(0x40)\n      dup1\n      swap2\n      sub\n      swap1\n      return\n        /* \"contracts/Product.sol\":127:155  bool public isValue  = false */\n    tag_27:\n      tag_120\n      tag_121\n      jump\t// in\n    tag_120:\n      mload(0x40)\n      tag_122\n      swap2\n      swap1\n      tag_87\n      jump\t// in\n    tag_122:\n      mload(0x40)\n      dup1\n      swap2\n      sub\n      swap1\n      return\n        /* \"contracts/Product.sol\":2754:3085  function Do_Handshake_To_Predecessor(address predecessor_address) public{... */\n    tag_35:\n        /* \"contracts/Product.sol\":2837:2856  Product predecessor */\n      0x00\n        /* \"contracts/Product.sol\":2867:2886  predecessor_address */\n      dup2\n        /* \"contracts/Product.sol\":2837:2887  Product predecessor = Product(predecessor_address) */\n      swap1\n      pop\n        /* \"contracts/Product.sol\":2903:2914  predecessor */\n      dup1\n        /* \"contracts/Product.sol\":2903:2939  predecessor.Has_PredecessorCandidate */\n      0xffffffffffffffffffffffffffffffffffffffff\n      and\n      0xcae5f950\n        /* \"contracts/Product.sol\":2948:2952  this */\n      address\n        /* \"contracts/Product.sol\":2903:2954  predecessor.Has_PredecessorCandidate(address(this)) */\n      mload(0x40)\n      dup3\n      0xffffffff\n      and\n      0xe0\n      shl\n      dup2\n      mstore\n      0x04\n      add\n      tag_124\n      swap2\n      swap1\n      tag_59\n      jump\t// in\n    tag_124:\n      0x20\n      mload(0x40)\n      dup1\n      dup4\n      sub\n      dup2\n      dup7\n      gas\n      staticcall\n      iszero\n      dup1\n      iszero\n      tag_126\n      jumpi\n      returndatasize\n      0x00\n      dup1\n      returndatacopy\n      revert(0x00, returndatasize)\n    tag_126:\n      pop\n      pop\n      pop\n      pop\n      mload(0x40)\n      returndatasize\n      not(0x1f)\n      0x1f\n      dup3\n      add\n      and\n      dup3\n      add\n      dup1\n      0x40\n      mstore\n      pop\n      dup2\n      add\n      swap1\n      tag_127\n      swap2\n      swap1\n      tag_128\n      jump\t// in\n    tag_127:\n        /* \"contracts/Product.sol\":2900:3078  if(predecessor.Has_PredecessorCandidate(address(this))){... */\n      iszero\n      tag_129\n      jumpi\n        /* \"contracts/Product.sol\":2970:2984  predecessorIds */\n      0x07\n        /* \"contracts/Product.sol\":2990:3009  predecessor_address */\n      dup3\n        /* \"contracts/Product.sol\":2970:3010  predecessorIds.push(predecessor_address) */\n      swap1\n      dup1\n      0x01\n      dup2\n      sload\n      add\n      dup1\n      dup3\n      sstore\n      dup1\n      swap2\n      pop\n      pop\n      0x01\n      swap1\n      sub\n      swap1\n      0x00\n      mstore\n      keccak256(0x00, 0x20)\n      add\n      0x00\n      swap1\n      swap2\n      swap1\n      swap2\n      swap1\n      swap2\n      0x0100\n      exp\n      dup2\n      sload\n      dup2\n      0xffffffffffffffffffffffffffffffffffffffff\n      mul\n      not\n      and\n      swap1\n      dup4\n      0xffffffffffffffffffffffffffffffffffffffff\n      and\n      mul\n      or\n      swap1\n      sstore\n      pop\n        /* \"contracts/Product.sol\":3025:3036  predecessor */\n      dup1\n        /* \"contracts/Product.sol\":3025:3064  predecessor.Accept_PredecessorCandidate */\n      0xffffffffffffffffffffffffffffffffffffffff\n      and\n      0x76efa463\n        /* \"contracts/Product.sol\":3025:3066  predecessor.Accept_PredecessorCandidate() */\n      mload(0x40)\n      dup2\n      0xffffffff\n      and\n      0xe0\n      shl\n      dup2\n      mstore\n      0x04\n      add\n      0x00\n      mload(0x40)\n      dup1\n      dup4\n      sub\n      dup2\n      0x00\n      dup8\n      dup1\n      extcodesize\n      iszero\n      dup1\n      iszero\n      tag_131\n      jumpi\n      0x00\n      dup1\n      revert\n    tag_131:\n      pop\n      gas\n      call\n      iszero\n      dup1\n      iszero\n      tag_133\n      jumpi\n      returndatasize\n      0x00\n      dup1\n      returndatacopy\n      revert(0x00, returndatasize)\n    tag_133:\n      pop\n      pop\n      pop\n      pop\n        /* \"contracts/Product.sol\":2900:3078  if(predecessor.Has_PredecessorCandidate(address(this))){... */\n    tag_129:\n        /* \"contracts/Product.sol\":2826:3085  {... */\n      pop\n        /* \"contracts/Product.sol\":2754:3085  function Do_Handshake_To_Predecessor(address predecessor_address) public{... */\n      pop\n      jump\t// out\n        /* \"contracts/Product.sol\":1327:1454  function Set_CarbonFootPrint(uint new_CarbonFootprint) public onlyOwner{... */\n    tag_39:\n        /* \"contracts/Ownable.sol\":237:242  owner */\n      0x00\n      dup1\n      sload\n      swap1\n      0x0100\n      exp\n      swap1\n      div\n      0xffffffffffffffffffffffffffffffffffffffff\n      and\n        /* \"contracts/Ownable.sol\":223:242  msg.sender == owner */\n      0xffffffffffffffffffffffffffffffffffffffff\n      and\n        /* \"contracts/Ownable.sol\":223:233  msg.sender */\n      caller\n        /* \"contracts/Ownable.sol\":223:242  msg.sender == owner */\n      0xffffffffffffffffffffffffffffffffffffffff\n      and\n      eq\n        /* \"contracts/Ownable.sol\":215:267  require(msg.sender == owner, 'caller must be owner') */\n      tag_135\n      jumpi\n      mload(0x40)\n      0x08c379a000000000000000000000000000000000000000000000000000000000\n      dup2\n      mstore\n      0x04\n      add\n      tag_136\n      swap1\n      tag_137\n      jump\t// in\n    tag_136:\n      mload(0x40)\n      dup1\n      swap2\n      sub\n      swap1\n      revert\n    tag_135:\n        /* \"contracts/Product.sol\":1427:1446  new_CarbonFootprint */\n      dup1\n        /* \"contracts/Product.sol\":1409:1424  carbonFootprint */\n      0x09\n        /* \"contracts/Product.sol\":1409:1446  carbonFootprint = new_CarbonFootprint */\n      dup2\n      swap1\n      sstore\n      pop\n        /* \"contracts/Product.sol\":1327:1454  function Set_CarbonFootPrint(uint new_CarbonFootprint) public onlyOwner{... */\n      pop\n      jump\t// out\n        /* \"contracts/Product.sol\":392:446  mapping(uint => uint) public predecessorIdToArrayIndex */\n    tag_42:\n      mstore(0x20, 0x05)\n      dup1\n      0x00\n      mstore\n      keccak256(0x00, 0x40)\n      0x00\n      swap2\n      pop\n      swap1\n      pop\n      sload\n      dup2\n      jump\t// out\n        /* \"contracts/Product.sol\":162:180  string public name */\n    tag_46:\n      0x01\n      dup1\n      sload\n      tag_139\n      swap1\n      tag_140\n      jump\t// in\n    tag_139:\n      dup1\n      0x1f\n      add\n      0x20\n      dup1\n      swap2\n      div\n      mul\n      0x20\n      add\n      mload(0x40)\n      swap1\n      dup2\n      add\n      0x40\n      mstore\n      dup1\n      swap3\n      swap2\n      swap1\n      dup2\n      dup2\n      mstore\n      0x20\n      add\n      dup3\n      dup1\n      sload\n      tag_141\n      swap1\n      tag_140\n      jump\t// in\n    tag_141:\n      dup1\n      iszero\n      tag_142\n      jumpi\n      dup1\n      0x1f\n      lt\n      tag_143\n      jumpi\n      0x0100\n      dup1\n      dup4\n      sload\n      div\n      mul\n      dup4\n      mstore\n      swap2\n      0x20\n      add\n      swap2\n      jump(tag_142)\n    tag_143:\n      dup3\n      add\n      swap2\n      swap1\n      0x00\n      mstore\n      keccak256(0x00, 0x20)\n      swap1\n    tag_144:\n      dup2\n      sload\n      dup2\n      mstore\n      swap1\n      0x01\n      add\n      swap1\n      0x20\n      add\n      dup1\n      dup4\n      gt\n      tag_144\n      jumpi\n      dup3\n      swap1\n      sub\n      0x1f\n      and\n      dup3\n      add\n      swap2\n    tag_142:\n      pop\n      pop\n      pop\n      pop\n      pop\n      dup2\n      jump\t// out\n        /* \"contracts/Product.sol\":602:637  string public swarm_storage_address */\n    tag_50:\n      0x0a\n      dup1\n      sload\n      tag_145\n      swap1\n      tag_140\n      jump\t// in\n    tag_145:\n      dup1\n      0x1f\n      add\n      0x20\n      dup1\n      swap2\n      div\n      mul\n      0x20\n      add\n      mload(0x40)\n      swap1\n      dup2\n      add\n      0x40\n      mstore\n      dup1\n      swap3\n      swap2\n      swap1\n      dup2\n      dup2\n      mstore\n      0x20\n      add\n      dup3\n      dup1\n      sload\n      tag_146\n      swap1\n      tag_140\n      jump\t// in\n    tag_146:\n      dup1\n      iszero\n      tag_147\n      jumpi\n      dup1\n      0x1f\n      lt\n      tag_148\n      jumpi\n      0x0100\n      dup1\n      dup4\n      sload\n      div\n      mul\n      dup4\n      mstore\n      swap2\n      0x20\n      add\n      swap2\n      jump(tag_147)\n    tag_148:\n      dup3\n      add\n      swap2\n      swap1\n      0x00\n      mstore\n      keccak256(0x00, 0x20)\n      swap1\n    tag_149:\n      dup2\n      sload\n      dup2\n      mstore\n      swap1\n      0x01\n      add\n      swap1\n      0x20\n      add\n      dup1\n      dup4\n      gt\n      tag_149\n      jumpi\n      dup3\n      swap1\n      sub\n      0x1f\n      and\n      dup3\n      add\n      swap2\n    tag_147:\n      pop\n      pop\n      pop\n      pop\n      pop\n      dup2\n      jump\t// out\n        /* \"contracts/Ownable.sol\":295:390  function ChangeOwnership(address newOwner) public  onlyOwner{... */\n    tag_54:\n        /* \"contracts/Ownable.sol\":237:242  owner */\n      0x00\n      dup1\n      sload\n      swap1\n      0x0100\n      exp\n      swap1\n      div\n      0xffffffffffffffffffffffffffffffffffffffff\n      and\n        /* \"contracts/Ownable.sol\":223:242  msg.sender == owner */\n      0xffffffffffffffffffffffffffffffffffffffff\n      and\n        /* \"contracts/Ownable.sol\":223:233  msg.sender */\n      caller\n        /* \"contracts/Ownable.sol\":223:242  msg.sender == owner */\n      0xffffffffffffffffffffffffffffffffffffffff\n      and\n      eq\n        /* \"contracts/Ownable.sol\":215:267  require(msg.sender == owner, 'caller must be owner') */\n      tag_151\n      jumpi\n      mload(0x40)\n      0x08c379a000000000000000000000000000000000000000000000000000000000\n      dup2\n      mstore\n      0x04\n      add\n      tag_152\n      swap1\n      tag_137\n      jump\t// in\n    tag_152:\n      mload(0x40)\n      dup1\n      swap2\n      sub\n      swap1\n      revert\n    tag_151:\n        /* \"contracts/Ownable.sol\":374:382  newOwner */\n      dup1\n        /* \"contracts/Ownable.sol\":366:371  owner */\n      0x00\n      dup1\n        /* \"contracts/Ownable.sol\":366:382  owner = newOwner */\n      0x0100\n      exp\n      dup2\n      sload\n      dup2\n      0xffffffffffffffffffffffffffffffffffffffff\n      mul\n      not\n      and\n      swap1\n      dup4\n      0xffffffffffffffffffffffffffffffffffffffff\n      and\n      mul\n      or\n      swap1\n      sstore\n      pop\n        /* \"contracts/Ownable.sol\":295:390  function ChangeOwnership(address newOwner) public  onlyOwner{... */\n      pop\n      jump\t// out\n        /* \"contracts/Product.sol\":455:484  address[] public successorIds */\n    tag_57:\n      0x06\n      dup2\n      dup2\n      sload\n      dup2\n      lt\n      tag_154\n      jumpi\n      0x00\n      dup1\n      revert\n    tag_154:\n      swap1\n      0x00\n      mstore\n      keccak256(0x00, 0x20)\n      add\n      0x00\n      swap2\n      pop\n      sload\n      swap1\n      0x0100\n      exp\n      swap1\n      div\n      0xffffffffffffffffffffffffffffffffffffffff\n      and\n      dup2\n      jump\t// out\n        /* \"contracts/Product.sol\":532:557  address[] public labelIds */\n    tag_62:\n      0x08\n      dup2\n      dup2\n      sload\n      dup2\n      lt\n      tag_156\n      jumpi\n      0x00\n      dup1\n      revert\n    tag_156:\n      swap1\n      0x00\n      mstore\n      keccak256(0x00, 0x20)\n      add\n      0x00\n      swap2\n      pop\n      sload\n      swap1\n      0x0100\n      exp\n      swap1\n      div\n      0xffffffffffffffffffffffffffffffffffffffff\n      and\n      dup2\n      jump\t// out\n        /* \"contracts/Product.sol\":1921:2163  function Accept_SuccessorCandidate() external {... */\n    tag_65:\n        /* \"contracts/Product.sol\":2033:2037  true */\n      0x01\n        /* \"contracts/Product.sol\":1986:2037  successorIdIsHandshakeCandidate[msg.sender] == true */\n      iszero\n      iszero\n        /* \"contracts/Product.sol\":1986:2017  successorIdIsHandshakeCandidate */\n      0x02\n        /* \"contracts/Product.sol\":1986:2029  successorIdIsHandshakeCandidate[msg.sender] */\n      0x00\n        /* \"contracts/Product.sol\":2018:2028  msg.sender */\n      caller\n        /* \"contracts/Product.sol\":1986:2029  successorIdIsHandshakeCandidate[msg.sender] */\n      0xffffffffffffffffffffffffffffffffffffffff\n      and\n      0xffffffffffffffffffffffffffffffffffffffff\n      and\n      dup2\n      mstore\n      0x20\n      add\n      swap1\n      dup2\n      mstore\n      0x20\n      add\n      0x00\n      keccak256\n      0x00\n      swap1\n      sload\n      swap1\n      0x0100\n      exp\n      swap1\n      div\n      0xff\n      and\n        /* \"contracts/Product.sol\":1986:2037  successorIdIsHandshakeCandidate[msg.sender] == true */\n      iszero\n      iszero\n      eq\n        /* \"contracts/Product.sol\":1978:2089  require(successorIdIsHandshakeCandidate[msg.sender] == true, \"Requestor is not a candidate for successorship.\") */\n      tag_159\n      jumpi\n      mload(0x40)\n      0x08c379a000000000000000000000000000000000000000000000000000000000\n      dup2\n      mstore\n      0x04\n      add\n      tag_160\n      swap1\n      tag_161\n      jump\t// in\n    tag_160:\n      mload(0x40)\n      dup1\n      swap2\n      sub\n      swap1\n      revert\n    tag_159:\n        /* \"contracts/Product.sol\":2148:2153  false */\n      0x00\n        /* \"contracts/Product.sol\":2102:2133  successorIdIsHandshakeCandidate */\n      0x02\n        /* \"contracts/Product.sol\":2102:2145  successorIdIsHandshakeCandidate[msg.sender] */\n      0x00\n        /* \"contracts/Product.sol\":2134:2144  msg.sender */\n      caller\n        /* \"contracts/Product.sol\":2102:2145  successorIdIsHandshakeCandidate[msg.sender] */\n      0xffffffffffffffffffffffffffffffffffffffff\n      and\n      0xffffffffffffffffffffffffffffffffffffffff\n      and\n      dup2\n      mstore\n      0x20\n      add\n      swap1\n      dup2\n      mstore\n      0x20\n      add\n      0x00\n      keccak256\n      0x00\n        /* \"contracts/Product.sol\":2102:2153  successorIdIsHandshakeCandidate[msg.sender] = false */\n      0x0100\n      exp\n      dup2\n      sload\n      dup2\n      0xff\n      mul\n      not\n      and\n      swap1\n      dup4\n      iszero\n      iszero\n      mul\n      or\n      swap1\n      sstore\n      pop\n        /* \"contracts/Product.sol\":1921:2163  function Accept_SuccessorCandidate() external {... */\n      jump\t// out\n        /* \"contracts/Product.sol\":1202:1319  function Set_LabelIds(address[] calldata new_LabelIds) public onlyOwner{... */\n    tag_69:\n        /* \"contracts/Ownable.sol\":237:242  owner */\n      0x00\n      dup1\n      sload\n      swap1\n      0x0100\n      exp\n      swap1\n      div\n      0xffffffffffffffffffffffffffffffffffffffff\n      and\n        /* \"contracts/Ownable.sol\":223:242  msg.sender == owner */\n      0xffffffffffffffffffffffffffffffffffffffff\n      and\n        /* \"contracts/Ownable.sol\":223:233  msg.sender */\n      caller\n        /* \"contracts/Ownable.sol\":223:242  msg.sender == owner */\n      0xffffffffffffffffffffffffffffffffffffffff\n      and\n      eq\n        /* \"contracts/Ownable.sol\":215:267  require(msg.sender == owner, 'caller must be owner') */\n      tag_163\n      jumpi\n      mload(0x40)\n      0x08c379a000000000000000000000000000000000000000000000000000000000\n      dup2\n      mstore\n      0x04\n      add\n      tag_164\n      swap1\n      tag_137\n      jump\t// in\n    tag_164:\n      mload(0x40)\n      dup1\n      swap2\n      sub\n      swap1\n      revert\n    tag_163:\n        /* \"contracts/Product.sol\":1299:1311  new_LabelIds */\n      dup2\n      dup2\n        /* \"contracts/Product.sol\":1284:1296  successorIds */\n      0x06\n        /* \"contracts/Product.sol\":1284:1311  successorIds = new_LabelIds */\n      swap2\n      swap1\n      tag_166\n      swap3\n      swap2\n      swap1\n      tag_167\n      jump\t// in\n    tag_166:\n      pop\n        /* \"contracts/Product.sol\":1202:1319  function Set_LabelIds(address[] calldata new_LabelIds) public onlyOwner{... */\n      pop\n      pop\n      jump\t// out\n        /* \"contracts/Product.sol\":2171:2419  function Accept_PredecessorCandidate() external {... */\n    tag_71:\n        /* \"contracts/Product.sol\":2287:2291  true */\n      0x01\n        /* \"contracts/Product.sol\":2238:2291  predecessorIdIsHandshakeCandidate[msg.sender] == true */\n      iszero\n      iszero\n        /* \"contracts/Product.sol\":2238:2271  predecessorIdIsHandshakeCandidate */\n      0x03\n        /* \"contracts/Product.sol\":2238:2283  predecessorIdIsHandshakeCandidate[msg.sender] */\n      0x00\n        /* \"contracts/Product.sol\":2272:2282  msg.sender */\n      caller\n        /* \"contracts/Product.sol\":2238:2283  predecessorIdIsHandshakeCandidate[msg.sender] */\n      0xffffffffffffffffffffffffffffffffffffffff\n      and\n      0xffffffffffffffffffffffffffffffffffffffff\n      and\n      dup2\n      mstore\n      0x20\n      add\n      swap1\n      dup2\n      mstore\n      0x20\n      add\n      0x00\n      keccak256\n      0x00\n      swap1\n      sload\n      swap1\n      0x0100\n      exp\n      swap1\n      div\n      0xff\n      and\n        /* \"contracts/Product.sol\":2238:2291  predecessorIdIsHandshakeCandidate[msg.sender] == true */\n      iszero\n      iszero\n      eq\n        /* \"contracts/Product.sol\":2230:2345  require(predecessorIdIsHandshakeCandidate[msg.sender] == true, \"Requestor is not a candidate for predecessorship.\") */\n      tag_169\n      jumpi\n      mload(0x40)\n      0x08c379a000000000000000000000000000000000000000000000000000000000\n      dup2\n      mstore\n      0x04\n      add\n      tag_170\n      swap1\n      tag_171\n      jump\t// in\n    tag_170:\n      mload(0x40)\n      dup1\n      swap2\n      sub\n      swap1\n      revert\n    tag_169:\n        /* \"contracts/Product.sol\":2406:2411  false */\n      0x00\n        /* \"contracts/Product.sol\":2358:2391  predecessorIdIsHandshakeCandidate */\n      0x03\n        /* \"contracts/Product.sol\":2358:2403  predecessorIdIsHandshakeCandidate[msg.sender] */\n      0x00\n        /* \"contracts/Product.sol\":2392:2402  msg.sender */\n      caller\n        /* \"contracts/Product.sol\":2358:2403  predecessorIdIsHandshakeCandidate[msg.sender] */\n      0xffffffffffffffffffffffffffffffffffffffff\n      and\n      0xffffffffffffffffffffffffffffffffffffffff\n      and\n      dup2\n      mstore\n      0x20\n      add\n      swap1\n      dup2\n      mstore\n      0x20\n      add\n      0x00\n      keccak256\n      0x00\n        /* \"contracts/Product.sol\":2358:2411  predecessorIdIsHandshakeCandidate[msg.sender] = false */\n      0x0100\n      exp\n      dup2\n      sload\n      dup2\n      0xff\n      mul\n      not\n      and\n      swap1\n      dup4\n      iszero\n      iszero\n      mul\n      or\n      swap1\n      sstore\n      pop\n        /* \"contracts/Product.sol\":2171:2419  function Accept_PredecessorCandidate() external {... */\n      jump\t// out\n        /* \"contracts/Product.sol\":1462:1545  function Set_IsValue(bool value) public onlyOwner{... */\n    tag_75:\n        /* \"contracts/Ownable.sol\":237:242  owner */\n      0x00\n      dup1\n      sload\n      swap1\n      0x0100\n      exp\n      swap1\n      div\n      0xffffffffffffffffffffffffffffffffffffffff\n      and\n        /* \"contracts/Ownable.sol\":223:242  msg.sender == owner */\n      0xffffffffffffffffffffffffffffffffffffffff\n      and\n        /* \"contracts/Ownable.sol\":223:233  msg.sender */\n      caller\n        /* \"contracts/Ownable.sol\":223:242  msg.sender == owner */\n      0xffffffffffffffffffffffffffffffffffffffff\n      and\n      eq\n        /* \"contracts/Ownable.sol\":215:267  require(msg.sender == owner, 'caller must be owner') */\n      tag_173\n      jumpi\n      mload(0x40)\n      0x08c379a000000000000000000000000000000000000000000000000000000000\n      dup2\n      mstore\n      0x04\n      add\n      tag_174\n      swap1\n      tag_137\n      jump\t// in\n    tag_174:\n      mload(0x40)\n      dup1\n      swap2\n      sub\n      swap1\n      revert\n    tag_173:\n        /* \"contracts/Product.sol\":1532:1537  value */\n      dup1\n        /* \"contracts/Product.sol\":1522:1529  isValue */\n      0x00\n      0x14\n        /* \"contracts/Product.sol\":1522:1537  isValue = value */\n      0x0100\n      exp\n      dup2\n      sload\n      dup2\n      0xff\n      mul\n      not\n      and\n      swap1\n      dup4\n      iszero\n      iszero\n      mul\n      or\n      swap1\n      sstore\n      pop\n        /* \"contracts/Product.sol\":1462:1545  function Set_IsValue(bool value) public onlyOwner{... */\n      pop\n      jump\t// out\n        /* \"contracts/Ownable.sol\":97:117  address public owner */\n    tag_77:\n      0x00\n      dup1\n      sload\n      swap1\n      0x0100\n      exp\n      swap1\n      div\n      0xffffffffffffffffffffffffffffffffffffffff\n      and\n      dup2\n      jump\t// out\n        /* \"contracts/Product.sol\":820:914  function Set_Name(string calldata new_name) public onlyOwner{... */\n    tag_82:\n        /* \"contracts/Ownable.sol\":237:242  owner */\n      0x00\n      dup1\n      sload\n      swap1\n      0x0100\n      exp\n      swap1\n      div\n      0xffffffffffffffffffffffffffffffffffffffff\n      and\n        /* \"contracts/Ownable.sol\":223:242  msg.sender == owner */\n      0xffffffffffffffffffffffffffffffffffffffff\n      and\n        /* \"contracts/Ownable.sol\":223:233  msg.sender */\n      caller\n        /* \"contracts/Ownable.sol\":223:242  msg.sender == owner */\n      0xffffffffffffffffffffffffffffffffffffffff\n      and\n      eq\n        /* \"contracts/Ownable.sol\":215:267  require(msg.sender == owner, 'caller must be owner') */\n      tag_177\n      jumpi\n      mload(0x40)\n      0x08c379a000000000000000000000000000000000000000000000000000000000\n      dup2\n      mstore\n      0x04\n      add\n      tag_178\n      swap1\n      tag_137\n      jump\t// in\n    tag_178:\n      mload(0x40)\n      dup1\n      swap2\n      sub\n      swap1\n      revert\n    tag_177:\n        /* \"contracts/Product.sol\":898:906  new_name */\n      dup2\n      dup2\n        /* \"contracts/Product.sol\":891:895  name */\n      0x01\n        /* \"contracts/Product.sol\":891:906  name = new_name */\n      swap2\n      dup3\n      tag_180\n      swap3\n      swap2\n      swap1\n      tag_181\n      jump\t// in\n    tag_180:\n      pop\n        /* \"contracts/Product.sol\":820:914  function Set_Name(string calldata new_name) public onlyOwner{... */\n      pop\n      pop\n      jump\t// out\n        /* \"contracts/Product.sol\":259:324  mapping(address => bool) public predecessorIdIsHandshakeCandidate */\n    tag_85:\n      mstore(0x20, 0x03)\n      dup1\n      0x00\n      mstore\n      keccak256(0x00, 0x40)\n      0x00\n      swap2\n      pop\n      sload\n      swap1\n      0x0100\n      exp\n      swap1\n      div\n      0xff\n      and\n      dup2\n      jump\t// out\n        /* \"contracts/Product.sol\":333:385  mapping(uint => uint) public successorIdToArrayIndex */\n    tag_90:\n      mstore(0x20, 0x04)\n      dup1\n      0x00\n      mstore\n      keccak256(0x00, 0x40)\n      0x00\n      swap2\n      pop\n      swap1\n      pop\n      sload\n      dup2\n      jump\t// out\n        /* \"contracts/Product.sol\":922:1051  function Set_SuccessorIds(address[] calldata new_successorIds) public onlyOwner{... */\n    tag_94:\n        /* \"contracts/Ownable.sol\":237:242  owner */\n      0x00\n      dup1\n      sload\n      swap1\n      0x0100\n      exp\n      swap1\n      div\n      0xffffffffffffffffffffffffffffffffffffffff\n      and\n        /* \"contracts/Ownable.sol\":223:242  msg.sender == owner */\n      0xffffffffffffffffffffffffffffffffffffffff\n      and\n        /* \"contracts/Ownable.sol\":223:233  msg.sender */\n      caller\n        /* \"contracts/Ownable.sol\":223:242  msg.sender == owner */\n      0xffffffffffffffffffffffffffffffffffffffff\n      and\n      eq\n        /* \"contracts/Ownable.sol\":215:267  require(msg.sender == owner, 'caller must be owner') */\n      tag_183\n      jumpi\n      mload(0x40)\n      0x08c379a000000000000000000000000000000000000000000000000000000000\n      dup2\n      mstore\n      0x04\n      add\n      tag_184\n      swap1\n      tag_137\n      jump\t// in\n    tag_184:\n      mload(0x40)\n      dup1\n      swap2\n      sub\n      swap1\n      revert\n    tag_183:\n        /* \"contracts/Product.sol\":1027:1043  new_successorIds */\n      dup2\n      dup2\n        /* \"contracts/Product.sol\":1012:1024  successorIds */\n      0x06\n        /* \"contracts/Product.sol\":1012:1043  successorIds = new_successorIds */\n      swap2\n      swap1\n      tag_186\n      swap3\n      swap2\n      swap1\n      tag_167\n      jump\t// in\n    tag_186:\n      pop\n        /* \"contracts/Product.sol\":922:1051  function Set_SuccessorIds(address[] calldata new_successorIds) public onlyOwner{... */\n      pop\n      pop\n      jump\t// out\n        /* \"contracts/Product.sol\":2427:2742  function Do_Handshake_To_Successor(address successor_address) public{... */\n    tag_97:\n        /* \"contracts/Product.sol\":2506:2523  Product successor */\n      0x00\n        /* \"contracts/Product.sol\":2534:2551  successor_address */\n      dup2\n        /* \"contracts/Product.sol\":2506:2552  Product successor = Product(successor_address) */\n      swap1\n      pop\n        /* \"contracts/Product.sol\":2568:2577  successor */\n      dup1\n        /* \"contracts/Product.sol\":2568:2602  successor.Has_PredecessorCandidate */\n      0xffffffffffffffffffffffffffffffffffffffff\n      and\n      0xcae5f950\n        /* \"contracts/Product.sol\":2611:2615  this */\n      address\n        /* \"contracts/Product.sol\":2568:2617  successor.Has_PredecessorCandidate(address(this)) */\n      mload(0x40)\n      dup3\n      0xffffffff\n      and\n      0xe0\n      shl\n      dup2\n      mstore\n      0x04\n      add\n      tag_188\n      swap2\n      swap1\n      tag_59\n      jump\t// in\n    tag_188:\n      0x20\n      mload(0x40)\n      dup1\n      dup4\n      sub\n      dup2\n      dup7\n      gas\n      staticcall\n      iszero\n      dup1\n      iszero\n      tag_190\n      jumpi\n      returndatasize\n      0x00\n      dup1\n      returndatacopy\n      revert(0x00, returndatasize)\n    tag_190:\n      pop\n      pop\n      pop\n      pop\n      mload(0x40)\n      returndatasize\n      not(0x1f)\n      0x1f\n      dup3\n      add\n      and\n      dup3\n      add\n      dup1\n      0x40\n      mstore\n      pop\n      dup2\n      add\n      swap1\n      tag_191\n      swap2\n      swap1\n      tag_128\n      jump\t// in\n    tag_191:\n        /* \"contracts/Product.sol\":2565:2735  if(successor.Has_PredecessorCandidate(address(this))){... */\n      iszero\n      tag_192\n      jumpi\n        /* \"contracts/Product.sol\":2633:2645  successorIds */\n      0x06\n        /* \"contracts/Product.sol\":2651:2668  successor_address */\n      dup3\n        /* \"contracts/Product.sol\":2633:2669  successorIds.push(successor_address) */\n      swap1\n      dup1\n      0x01\n      dup2\n      sload\n      add\n      dup1\n      dup3\n      sstore\n      dup1\n      swap2\n      pop\n      pop\n      0x01\n      swap1\n      sub\n      swap1\n      0x00\n      mstore\n      keccak256(0x00, 0x20)\n      add\n      0x00\n      swap1\n      swap2\n      swap1\n      swap2\n      swap1\n      swap2\n      0x0100\n      exp\n      dup2\n      sload\n      dup2\n      0xffffffffffffffffffffffffffffffffffffffff\n      mul\n      not\n      and\n      swap1\n      dup4\n      0xffffffffffffffffffffffffffffffffffffffff\n      and\n      mul\n      or\n      swap1\n      sstore\n      pop\n        /* \"contracts/Product.sol\":2684:2693  successor */\n      dup1\n        /* \"contracts/Product.sol\":2684:2721  successor.Accept_PredecessorCandidate */\n      0xffffffffffffffffffffffffffffffffffffffff\n      and\n      0x76efa463\n        /* \"contracts/Product.sol\":2684:2723  successor.Accept_PredecessorCandidate() */\n      mload(0x40)\n      dup2\n      0xffffffff\n      and\n      0xe0\n      shl\n      dup2\n      mstore\n      0x04\n      add\n      0x00\n      mload(0x40)\n      dup1\n      dup4\n      sub\n      dup2\n      0x00\n      dup8\n      dup1\n      extcodesize\n      iszero\n      dup1\n      iszero\n      tag_194\n      jumpi\n      0x00\n      dup1\n      revert\n    tag_194:\n      pop\n      gas\n      call\n      iszero\n      dup1\n      iszero\n      tag_196\n      jumpi\n      returndatasize\n      0x00\n      dup1\n      returndatacopy\n      revert(0x00, returndatasize)\n    tag_196:\n      pop\n      pop\n      pop\n      pop\n        /* \"contracts/Product.sol\":2565:2735  if(successor.Has_PredecessorCandidate(address(this))){... */\n    tag_192:\n        /* \"contracts/Product.sol\":2495:2742  {... */\n      pop\n        /* \"contracts/Product.sol\":2427:2742  function Do_Handshake_To_Successor(address successor_address) public{... */\n      pop\n      jump\t// out\n        /* \"contracts/Product.sol\":492:523  address[] public predecessorIds */\n    tag_100:\n      0x07\n      dup2\n      dup2\n      sload\n      dup2\n      lt\n      tag_197\n      jumpi\n      0x00\n      dup1\n      revert\n    tag_197:\n      swap1\n      0x00\n      mstore\n      keccak256(0x00, 0x20)\n      add\n      0x00\n      swap2\n      pop\n      sload\n      swap1\n      0x0100\n      exp\n      swap1\n      div\n      0xffffffffffffffffffffffffffffffffffffffff\n      and\n      dup2\n      jump\t// out\n        /* \"contracts/Product.sol\":1059:1194  function Set_PredecessorIds(address[] calldata new_predecessorIds) public onlyOwner{... */\n    tag_104:\n        /* \"contracts/Ownable.sol\":237:242  owner */\n      0x00\n      dup1\n      sload\n      swap1\n      0x0100\n      exp\n      swap1\n      div\n      0xffffffffffffffffffffffffffffffffffffffff\n      and\n        /* \"contracts/Ownable.sol\":223:242  msg.sender == owner */\n      0xffffffffffffffffffffffffffffffffffffffff\n      and\n        /* \"contracts/Ownable.sol\":223:233  msg.sender */\n      caller\n        /* \"contracts/Ownable.sol\":223:242  msg.sender == owner */\n      0xffffffffffffffffffffffffffffffffffffffff\n      and\n      eq\n        /* \"contracts/Ownable.sol\":215:267  require(msg.sender == owner, 'caller must be owner') */\n      tag_200\n      jumpi\n      mload(0x40)\n      0x08c379a000000000000000000000000000000000000000000000000000000000\n      dup2\n      mstore\n      0x04\n      add\n      tag_201\n      swap1\n      tag_137\n      jump\t// in\n    tag_201:\n      mload(0x40)\n      dup1\n      swap2\n      sub\n      swap1\n      revert\n    tag_200:\n        /* \"contracts/Product.sol\":1168:1186  new_predecessorIds */\n      dup2\n      dup2\n        /* \"contracts/Product.sol\":1153:1165  successorIds */\n      0x06\n        /* \"contracts/Product.sol\":1153:1186  successorIds = new_predecessorIds */\n      swap2\n      swap1\n      tag_203\n      swap3\n      swap2\n      swap1\n      tag_167\n      jump\t// in\n    tag_203:\n      pop\n        /* \"contracts/Product.sol\":1059:1194  function Set_PredecessorIds(address[] calldata new_predecessorIds) public onlyOwner{... */\n      pop\n      pop\n      jump\t// out\n        /* \"contracts/Product.sol\":1719:1883  function Has_PredecessorCandidate(address predecessorAddress) public view returns(bool){... */\n    tag_107:\n        /* \"contracts/Product.sol\":1801:1805  bool */\n      0x00\n        /* \"contracts/Product.sol\":1824:1855  successorIdIsHandshakeCandidate */\n      0x02\n        /* \"contracts/Product.sol\":1824:1875  successorIdIsHandshakeCandidate[predecessorAddress] */\n      0x00\n        /* \"contracts/Product.sol\":1856:1874  predecessorAddress */\n      dup4\n        /* \"contracts/Product.sol\":1824:1875  successorIdIsHandshakeCandidate[predecessorAddress] */\n      0xffffffffffffffffffffffffffffffffffffffff\n      and\n      0xffffffffffffffffffffffffffffffffffffffff\n      and\n      dup2\n      mstore\n      0x20\n      add\n      swap1\n      dup2\n      mstore\n      0x20\n      add\n      0x00\n      keccak256\n      0x00\n      swap1\n      sload\n      swap1\n      0x0100\n      exp\n      swap1\n      div\n      0xff\n      and\n        /* \"contracts/Product.sol\":1817:1875  return successorIdIsHandshakeCandidate[predecessorAddress] */\n      swap1\n      pop\n        /* \"contracts/Product.sol\":1719:1883  function Has_PredecessorCandidate(address predecessorAddress) public view returns(bool){... */\n      swap2\n      swap1\n      pop\n      jump\t// out\n        /* \"contracts/Product.sol\":1553:1711  function Has_SuccessorCandidate(address successorAddress) public view returns(bool){... */\n    tag_111:\n        /* \"contracts/Product.sol\":1631:1635  bool */\n      0x00\n        /* \"contracts/Product.sol\":1654:1685  successorIdIsHandshakeCandidate */\n      0x02\n        /* \"contracts/Product.sol\":1654:1703  successorIdIsHandshakeCandidate[successorAddress] */\n      0x00\n        /* \"contracts/Product.sol\":1686:1702  successorAddress */\n      dup4\n        /* \"contracts/Product.sol\":1654:1703  successorIdIsHandshakeCandidate[successorAddress] */\n      0xffffffffffffffffffffffffffffffffffffffff\n      and\n      0xffffffffffffffffffffffffffffffffffffffff\n      and\n      dup2\n      mstore\n      0x20\n      add\n      swap1\n      dup2\n      mstore\n      0x20\n      add\n      0x00\n      keccak256\n      0x00\n      swap1\n      sload\n      swap1\n      0x0100\n      exp\n      swap1\n      div\n      0xff\n      and\n        /* \"contracts/Product.sol\":1647:1703  return successorIdIsHandshakeCandidate[successorAddress] */\n      swap1\n      pop\n        /* \"contracts/Product.sol\":1553:1711  function Has_SuccessorCandidate(address successorAddress) public view returns(bool){... */\n      swap2\n      swap1\n      pop\n      jump\t// out\n        /* \"contracts/Product.sol\":566:593  uint public carbonFootprint */\n    tag_114:\n      sload(0x09)\n      dup2\n      jump\t// out\n        /* \"contracts/Product.sol\":189:252  mapping(address => bool) public successorIdIsHandshakeCandidate */\n    tag_118:\n      mstore(0x20, 0x02)\n      dup1\n      0x00\n      mstore\n      keccak256(0x00, 0x40)\n      0x00\n      swap2\n      pop\n      sload\n      swap1\n      0x0100\n      exp\n      swap1\n      div\n      0xff\n      and\n      dup2\n      jump\t// out\n        /* \"contracts/Product.sol\":127:155  bool public isValue  = false */\n    tag_121:\n      0x00\n      0x14\n      swap1\n      sload\n      swap1\n      0x0100\n      exp\n      swap1\n      div\n      0xff\n      and\n      dup2\n      jump\t// out\n    tag_167:\n      dup3\n      dup1\n      sload\n      dup3\n      dup3\n      sstore\n      swap1\n      0x00\n      mstore\n      keccak256(0x00, 0x20)\n      swap1\n      dup2\n      add\n      swap3\n      dup3\n      iszero\n      tag_206\n      jumpi\n      swap2\n      0x20\n      mul\n      dup3\n      add\n    tag_207:\n      dup3\n      dup2\n      gt\n      iszero\n      tag_208\n      jumpi\n      dup3\n      calldataload\n      0xffffffffffffffffffffffffffffffffffffffff\n      and\n      dup3\n      exp(0x0100, 0x00)\n      dup2\n      sload\n      dup2\n      0xffffffffffffffffffffffffffffffffffffffff\n      mul\n      not\n      and\n      swap1\n      dup4\n      0xffffffffffffffffffffffffffffffffffffffff\n      and\n      mul\n      or\n      swap1\n      sstore\n      pop\n      swap2\n      0x20\n      add\n      swap2\n      swap1\n      0x01\n      add\n      swap1\n      jump(tag_207)\n    tag_208:\n    tag_206:\n      pop\n      swap1\n      pop\n      tag_209\n      swap2\n      swap1\n      tag_210\n      jump\t// in\n    tag_209:\n      pop\n      swap1\n      jump\t// out\n    tag_210:\n    tag_211:\n      dup1\n      dup3\n      gt\n      iszero\n      tag_212\n      jumpi\n      0x00\n      dup2\n      0x00\n      swap1\n      sstore\n      pop\n      0x01\n      add\n      jump(tag_211)\n    tag_212:\n      pop\n      swap1\n      jump\t// out\n        /* \"#utility.yul\":88:205   */\n    tag_214:\n        /* \"#utility.yul\":197:198   */\n      0x00\n        /* \"#utility.yul\":194:195   */\n      dup1\n        /* \"#utility.yul\":187:199   */\n      revert\n        /* \"#utility.yul\":211:328   */\n    tag_215:\n        /* \"#utility.yul\":320:321   */\n      0x00\n        /* \"#utility.yul\":317:318   */\n      dup1\n        /* \"#utility.yul\":310:322   */\n      revert\n        /* \"#utility.yul\":334:460   */\n    tag_216:\n        /* \"#utility.yul\":371:378   */\n      0x00\n        /* \"#utility.yul\":411:453   */\n      0xffffffffffffffffffffffffffffffffffffffff\n        /* \"#utility.yul\":404:409   */\n      dup3\n        /* \"#utility.yul\":400:454   */\n      and\n        /* \"#utility.yul\":389:454   */\n      swap1\n      pop\n        /* \"#utility.yul\":334:460   */\n      swap2\n      swap1\n      pop\n      jump\t// out\n        /* \"#utility.yul\":466:562   */\n    tag_217:\n        /* \"#utility.yul\":503:510   */\n      0x00\n        /* \"#utility.yul\":532:556   */\n      tag_270\n        /* \"#utility.yul\":550:555   */\n      dup3\n        /* \"#utility.yul\":532:556   */\n      tag_216\n      jump\t// in\n    tag_270:\n        /* \"#utility.yul\":521:556   */\n      swap1\n      pop\n        /* \"#utility.yul\":466:562   */\n      swap2\n      swap1\n      pop\n      jump\t// out\n        /* \"#utility.yul\":568:690   */\n    tag_218:\n        /* \"#utility.yul\":641:665   */\n      tag_272\n        /* \"#utility.yul\":659:664   */\n      dup2\n        /* \"#utility.yul\":641:665   */\n      tag_217\n      jump\t// in\n    tag_272:\n        /* \"#utility.yul\":634:639   */\n      dup2\n        /* \"#utility.yul\":631:666   */\n      eq\n        /* \"#utility.yul\":621:684   */\n      tag_273\n      jumpi\n        /* \"#utility.yul\":680:681   */\n      0x00\n        /* \"#utility.yul\":677:678   */\n      dup1\n        /* \"#utility.yul\":670:682   */\n      revert\n        /* \"#utility.yul\":621:684   */\n    tag_273:\n        /* \"#utility.yul\":568:690   */\n      pop\n      jump\t// out\n        /* \"#utility.yul\":696:835   */\n    tag_219:\n        /* \"#utility.yul\":742:747   */\n      0x00\n        /* \"#utility.yul\":780:786   */\n      dup2\n        /* \"#utility.yul\":767:787   */\n      calldataload\n        /* \"#utility.yul\":758:787   */\n      swap1\n      pop\n        /* \"#utility.yul\":796:829   */\n      tag_275\n        /* \"#utility.yul\":823:828   */\n      dup2\n        /* \"#utility.yul\":796:829   */\n      tag_218\n      jump\t// in\n    tag_275:\n        /* \"#utility.yul\":696:835   */\n      swap3\n      swap2\n      pop\n      pop\n      jump\t// out\n        /* \"#utility.yul\":841:1170   */\n    tag_34:\n        /* \"#utility.yul\":900:906   */\n      0x00\n        /* \"#utility.yul\":949:951   */\n      0x20\n        /* \"#utility.yul\":937:946   */\n      dup3\n        /* \"#utility.yul\":928:935   */\n      dup5\n        /* \"#utility.yul\":924:947   */\n      sub\n        /* \"#utility.yul\":920:952   */\n      slt\n        /* \"#utility.yul\":917:1036   */\n      iszero\n      tag_277\n      jumpi\n        /* \"#utility.yul\":955:1034   */\n      tag_278\n      tag_214\n      jump\t// in\n    tag_278:\n        /* \"#utility.yul\":917:1036   */\n    tag_277:\n        /* \"#utility.yul\":1075:1076   */\n      0x00\n        /* \"#utility.yul\":1100:1153   */\n      tag_279\n        /* \"#utility.yul\":1145:1152   */\n      dup5\n        /* \"#utility.yul\":1136:1142   */\n      dup3\n        /* \"#utility.yul\":1125:1134   */\n      dup6\n        /* \"#utility.yul\":1121:1143   */\n      add\n        /* \"#utility.yul\":1100:1153   */\n      tag_219\n      jump\t// in\n    tag_279:\n        /* \"#utility.yul\":1090:1153   */\n      swap2\n      pop\n        /* \"#utility.yul\":1046:1163   */\n      pop\n        /* \"#utility.yul\":841:1170   */\n      swap3\n      swap2\n      pop\n      pop\n      jump\t// out\n        /* \"#utility.yul\":1176:1253   */\n    tag_220:\n        /* \"#utility.yul\":1213:1220   */\n      0x00\n        /* \"#utility.yul\":1242:1247   */\n      dup2\n        /* \"#utility.yul\":1231:1247   */\n      swap1\n      pop\n        /* \"#utility.yul\":1176:1253   */\n      swap2\n      swap1\n      pop\n      jump\t// out\n        /* \"#utility.yul\":1259:1381   */\n    tag_221:\n        /* \"#utility.yul\":1332:1356   */\n      tag_282\n        /* \"#utility.yul\":1350:1355   */\n      dup2\n        /* \"#utility.yul\":1332:1356   */\n      tag_220\n      jump\t// in\n    tag_282:\n        /* \"#utility.yul\":1325:1330   */\n      dup2\n        /* \"#utility.yul\":1322:1357   */\n      eq\n        /* \"#utility.yul\":1312:1375   */\n      tag_283\n      jumpi\n        /* \"#utility.yul\":1371:1372   */\n      0x00\n        /* \"#utility.yul\":1368:1369   */\n      dup1\n        /* \"#utility.yul\":1361:1373   */\n      revert\n        /* \"#utility.yul\":1312:1375   */\n    tag_283:\n        /* \"#utility.yul\":1259:1381   */\n      pop\n      jump\t// out\n        /* \"#utility.yul\":1387:1526   */\n    tag_222:\n        /* \"#utility.yul\":1433:1438   */\n      0x00\n        /* \"#utility.yul\":1471:1477   */\n      dup2\n        /* \"#utility.yul\":1458:1478   */\n      calldataload\n        /* \"#utility.yul\":1449:1478   */\n      swap1\n      pop\n        /* \"#utility.yul\":1487:1520   */\n      tag_285\n        /* \"#utility.yul\":1514:1519   */\n      dup2\n        /* \"#utility.yul\":1487:1520   */\n      tag_221\n      jump\t// in\n    tag_285:\n        /* \"#utility.yul\":1387:1526   */\n      swap3\n      swap2\n      pop\n      pop\n      jump\t// out\n        /* \"#utility.yul\":1532:1861   */\n    tag_38:\n        /* \"#utility.yul\":1591:1597   */\n      0x00\n        /* \"#utility.yul\":1640:1642   */\n      0x20\n        /* \"#utility.yul\":1628:1637   */\n      dup3\n        /* \"#utility.yul\":1619:1626   */\n      dup5\n        /* \"#utility.yul\":1615:1638   */\n      sub\n        /* \"#utility.yul\":1611:1643   */\n      slt\n        /* \"#utility.yul\":1608:1727   */\n      iszero\n      tag_287\n      jumpi\n        /* \"#utility.yul\":1646:1725   */\n      tag_288\n      tag_214\n      jump\t// in\n    tag_288:\n        /* \"#utility.yul\":1608:1727   */\n    tag_287:\n        /* \"#utility.yul\":1766:1767   */\n      0x00\n        /* \"#utility.yul\":1791:1844   */\n      tag_289\n        /* \"#utility.yul\":1836:1843   */\n      dup5\n        /* \"#utility.yul\":1827:1833   */\n      dup3\n        /* \"#utility.yul\":1816:1825   */\n      dup6\n        /* \"#utility.yul\":1812:1834   */\n      add\n        /* \"#utility.yul\":1791:1844   */\n      tag_222\n      jump\t// in\n    tag_289:\n        /* \"#utility.yul\":1781:1844   */\n      swap2\n      pop\n        /* \"#utility.yul\":1737:1854   */\n      pop\n        /* \"#utility.yul\":1532:1861   */\n      swap3\n      swap2\n      pop\n      pop\n      jump\t// out\n        /* \"#utility.yul\":1867:1985   */\n    tag_223:\n        /* \"#utility.yul\":1954:1978   */\n      tag_291\n        /* \"#utility.yul\":1972:1977   */\n      dup2\n        /* \"#utility.yul\":1954:1978   */\n      tag_220\n      jump\t// in\n    tag_291:\n        /* \"#utility.yul\":1949:1952   */\n      dup3\n        /* \"#utility.yul\":1942:1979   */\n      mstore\n        /* \"#utility.yul\":1867:1985   */\n      pop\n      pop\n      jump\t// out\n        /* \"#utility.yul\":1991:2213   */\n    tag_44:\n        /* \"#utility.yul\":2084:2088   */\n      0x00\n        /* \"#utility.yul\":2122:2124   */\n      0x20\n        /* \"#utility.yul\":2111:2120   */\n      dup3\n        /* \"#utility.yul\":2107:2125   */\n      add\n        /* \"#utility.yul\":2099:2125   */\n      swap1\n      pop\n        /* \"#utility.yul\":2135:2206   */\n      tag_293\n        /* \"#utility.yul\":2203:2204   */\n      0x00\n        /* \"#utility.yul\":2192:2201   */\n      dup4\n        /* \"#utility.yul\":2188:2205   */\n      add\n        /* \"#utility.yul\":2179:2185   */\n      dup5\n        /* \"#utility.yul\":2135:2206   */\n      tag_223\n      jump\t// in\n    tag_293:\n        /* \"#utility.yul\":1991:2213   */\n      swap3\n      swap2\n      pop\n      pop\n      jump\t// out\n        /* \"#utility.yul\":2219:2318   */\n    tag_224:\n        /* \"#utility.yul\":2271:2277   */\n      0x00\n        /* \"#utility.yul\":2305:2310   */\n      dup2\n        /* \"#utility.yul\":2299:2311   */\n      mload\n        /* \"#utility.yul\":2289:2311   */\n      swap1\n      pop\n        /* \"#utility.yul\":2219:2318   */\n      swap2\n      swap1\n      pop\n      jump\t// out\n        /* \"#utility.yul\":2324:2493   */\n    tag_225:\n        /* \"#utility.yul\":2408:2419   */\n      0x00\n        /* \"#utility.yul\":2442:2448   */\n      dup3\n        /* \"#utility.yul\":2437:2440   */\n      dup3\n        /* \"#utility.yul\":2430:2449   */\n      mstore\n        /* \"#utility.yul\":2482:2486   */\n      0x20\n        /* \"#utility.yul\":2477:2480   */\n      dup3\n        /* \"#utility.yul\":2473:2487   */\n      add\n        /* \"#utility.yul\":2458:2487   */\n      swap1\n      pop\n        /* \"#utility.yul\":2324:2493   */\n      swap3\n      swap2\n      pop\n      pop\n      jump\t// out\n        /* \"#utility.yul\":2499:2745   */\n    tag_226:\n        /* \"#utility.yul\":2580:2581   */\n      0x00\n        /* \"#utility.yul\":2590:2703   */\n    tag_297:\n        /* \"#utility.yul\":2604:2610   */\n      dup4\n        /* \"#utility.yul\":2601:2602   */\n      dup2\n        /* \"#utility.yul\":2598:2611   */\n      lt\n        /* \"#utility.yul\":2590:2703   */\n      iszero\n      tag_299\n      jumpi\n        /* \"#utility.yul\":2689:2690   */\n      dup1\n        /* \"#utility.yul\":2684:2687   */\n      dup3\n        /* \"#utility.yul\":2680:2691   */\n      add\n        /* \"#utility.yul\":2674:2692   */\n      mload\n        /* \"#utility.yul\":2670:2671   */\n      dup2\n        /* \"#utility.yul\":2665:2668   */\n      dup5\n        /* \"#utility.yul\":2661:2672   */\n      add\n        /* \"#utility.yul\":2654:2693   */\n      mstore\n        /* \"#utility.yul\":2626:2628   */\n      0x20\n        /* \"#utility.yul\":2623:2624   */\n      dup2\n        /* \"#utility.yul\":2619:2629   */\n      add\n        /* \"#utility.yul\":2614:2629   */\n      swap1\n      pop\n        /* \"#utility.yul\":2590:2703   */\n      jump(tag_297)\n    tag_299:\n        /* \"#utility.yul\":2737:2738   */\n      0x00\n        /* \"#utility.yul\":2728:2734   */\n      dup5\n        /* \"#utility.yul\":2723:2726   */\n      dup5\n        /* \"#utility.yul\":2719:2735   */\n      add\n        /* \"#utility.yul\":2712:2739   */\n      mstore\n        /* \"#utility.yul\":2561:2745   */\n      pop\n        /* \"#utility.yul\":2499:2745   */\n      pop\n      pop\n      pop\n      jump\t// out\n        /* \"#utility.yul\":2751:2853   */\n    tag_227:\n        /* \"#utility.yul\":2792:2798   */\n      0x00\n        /* \"#utility.yul\":2843:2845   */\n      0x1f\n        /* \"#utility.yul\":2839:2846   */\n      not\n        /* \"#utility.yul\":2834:2836   */\n      0x1f\n        /* \"#utility.yul\":2827:2832   */\n      dup4\n        /* \"#utility.yul\":2823:2837   */\n      add\n        /* \"#utility.yul\":2819:2847   */\n      and\n        /* \"#utility.yul\":2809:2847   */\n      swap1\n      pop\n        /* \"#utility.yul\":2751:2853   */\n      swap2\n      swap1\n      pop\n      jump\t// out\n        /* \"#utility.yul\":2859:3236   */\n    tag_228:\n        /* \"#utility.yul\":2947:2950   */\n      0x00\n        /* \"#utility.yul\":2975:3014   */\n      tag_302\n        /* \"#utility.yul\":3008:3013   */\n      dup3\n        /* \"#utility.yul\":2975:3014   */\n      tag_224\n      jump\t// in\n    tag_302:\n        /* \"#utility.yul\":3030:3101   */\n      tag_303\n        /* \"#utility.yul\":3094:3100   */\n      dup2\n        /* \"#utility.yul\":3089:3092   */\n      dup6\n        /* \"#utility.yul\":3030:3101   */\n      tag_225\n      jump\t// in\n    tag_303:\n        /* \"#utility.yul\":3023:3101   */\n      swap4\n      pop\n        /* \"#utility.yul\":3110:3175   */\n      tag_304\n        /* \"#utility.yul\":3168:3174   */\n      dup2\n        /* \"#utility.yul\":3163:3166   */\n      dup6\n        /* \"#utility.yul\":3156:3160   */\n      0x20\n        /* \"#utility.yul\":3149:3154   */\n      dup7\n        /* \"#utility.yul\":3145:3161   */\n      add\n        /* \"#utility.yul\":3110:3175   */\n      tag_226\n      jump\t// in\n    tag_304:\n        /* \"#utility.yul\":3200:3229   */\n      tag_305\n        /* \"#utility.yul\":3222:3228   */\n      dup2\n        /* \"#utility.yul\":3200:3229   */\n      tag_227\n      jump\t// in\n    tag_305:\n        /* \"#utility.yul\":3195:3198   */\n      dup5\n        /* \"#utility.yul\":3191:3230   */\n      add\n        /* \"#utility.yul\":3184:3230   */\n      swap2\n      pop\n        /* \"#utility.yul\":2951:3236   */\n      pop\n        /* \"#utility.yul\":2859:3236   */\n      swap3\n      swap2\n      pop\n      pop\n      jump\t// out\n        /* \"#utility.yul\":3242:3555   */\n    tag_48:\n        /* \"#utility.yul\":3355:3359   */\n      0x00\n        /* \"#utility.yul\":3393:3395   */\n      0x20\n        /* \"#utility.yul\":3382:3391   */\n      dup3\n        /* \"#utility.yul\":3378:3396   */\n      add\n        /* \"#utility.yul\":3370:3396   */\n      swap1\n      pop\n        /* \"#utility.yul\":3442:3451   */\n      dup2\n        /* \"#utility.yul\":3436:3440   */\n      dup2\n        /* \"#utility.yul\":3432:3452   */\n      sub\n        /* \"#utility.yul\":3428:3429   */\n      0x00\n        /* \"#utility.yul\":3417:3426   */\n      dup4\n        /* \"#utility.yul\":3413:3430   */\n      add\n        /* \"#utility.yul\":3406:3453   */\n      mstore\n        /* \"#utility.yul\":3470:3548   */\n      tag_307\n        /* \"#utility.yul\":3543:3547   */\n      dup2\n        /* \"#utility.yul\":3534:3540   */\n      dup5\n        /* \"#utility.yul\":3470:3548   */\n      tag_228\n      jump\t// in\n    tag_307:\n        /* \"#utility.yul\":3462:3548   */\n      swap1\n      pop\n        /* \"#utility.yul\":3242:3555   */\n      swap3\n      swap2\n      pop\n      pop\n      jump\t// out\n        /* \"#utility.yul\":3561:3679   */\n    tag_229:\n        /* \"#utility.yul\":3648:3672   */\n      tag_309\n        /* \"#utility.yul\":3666:3671   */\n      dup2\n        /* \"#utility.yul\":3648:3672   */\n      tag_217\n      jump\t// in\n    tag_309:\n        /* \"#utility.yul\":3643:3646   */\n      dup3\n        /* \"#utility.yul\":3636:3673   */\n      mstore\n        /* \"#utility.yul\":3561:3679   */\n      pop\n      pop\n      jump\t// out\n        /* \"#utility.yul\":3685:3907   */\n    tag_59:\n        /* \"#utility.yul\":3778:3782   */\n      0x00\n        /* \"#utility.yul\":3816:3818   */\n      0x20\n        /* \"#utility.yul\":3805:3814   */\n      dup3\n        /* \"#utility.yul\":3801:3819   */\n      add\n        /* \"#utility.yul\":3793:3819   */\n      swap1\n      pop\n        /* \"#utility.yul\":3829:3900   */\n      tag_311\n        /* \"#utility.yul\":3897:3898   */\n      0x00\n        /* \"#utility.yul\":3886:3895   */\n      dup4\n        /* \"#utility.yul\":3882:3899   */\n      add\n        /* \"#utility.yul\":3873:3879   */\n      dup5\n        /* \"#utility.yul\":3829:3900   */\n      tag_229\n      jump\t// in\n    tag_311:\n        /* \"#utility.yul\":3685:3907   */\n      swap3\n      swap2\n      pop\n      pop\n      jump\t// out\n        /* \"#utility.yul\":3913:4030   */\n    tag_230:\n        /* \"#utility.yul\":4022:4023   */\n      0x00\n        /* \"#utility.yul\":4019:4020   */\n      dup1\n        /* \"#utility.yul\":4012:4024   */\n      revert\n        /* \"#utility.yul\":4036:4153   */\n    tag_231:\n        /* \"#utility.yul\":4145:4146   */\n      0x00\n        /* \"#utility.yul\":4142:4143   */\n      dup1\n        /* \"#utility.yul\":4135:4147   */\n      revert\n        /* \"#utility.yul\":4159:4276   */\n    tag_232:\n        /* \"#utility.yul\":4268:4269   */\n      0x00\n        /* \"#utility.yul\":4265:4266   */\n      dup1\n        /* \"#utility.yul\":4258:4270   */\n      revert\n        /* \"#utility.yul\":4299:4867   */\n    tag_233:\n        /* \"#utility.yul\":4372:4380   */\n      0x00\n        /* \"#utility.yul\":4382:4388   */\n      dup1\n        /* \"#utility.yul\":4432:4435   */\n      dup4\n        /* \"#utility.yul\":4425:4429   */\n      0x1f\n        /* \"#utility.yul\":4417:4423   */\n      dup5\n        /* \"#utility.yul\":4413:4430   */\n      add\n        /* \"#utility.yul\":4409:4436   */\n      slt\n        /* \"#utility.yul\":4399:4521   */\n      tag_316\n      jumpi\n        /* \"#utility.yul\":4440:4519   */\n      tag_317\n      tag_230\n      jump\t// in\n    tag_317:\n        /* \"#utility.yul\":4399:4521   */\n    tag_316:\n        /* \"#utility.yul\":4553:4559   */\n      dup3\n        /* \"#utility.yul\":4540:4560   */\n      calldataload\n        /* \"#utility.yul\":4530:4560   */\n      swap1\n      pop\n        /* \"#utility.yul\":4583:4601   */\n      0xffffffffffffffff\n        /* \"#utility.yul\":4575:4581   */\n      dup2\n        /* \"#utility.yul\":4572:4602   */\n      gt\n        /* \"#utility.yul\":4569:4686   */\n      iszero\n      tag_318\n      jumpi\n        /* \"#utility.yul\":4605:4684   */\n      tag_319\n      tag_231\n      jump\t// in\n    tag_319:\n        /* \"#utility.yul\":4569:4686   */\n    tag_318:\n        /* \"#utility.yul\":4719:4723   */\n      0x20\n        /* \"#utility.yul\":4711:4717   */\n      dup4\n        /* \"#utility.yul\":4707:4724   */\n      add\n        /* \"#utility.yul\":4695:4724   */\n      swap2\n      pop\n        /* \"#utility.yul\":4773:4776   */\n      dup4\n        /* \"#utility.yul\":4765:4769   */\n      0x20\n        /* \"#utility.yul\":4757:4763   */\n      dup3\n        /* \"#utility.yul\":4753:4770   */\n      mul\n        /* \"#utility.yul\":4743:4751   */\n      dup4\n        /* \"#utility.yul\":4739:4771   */\n      add\n        /* \"#utility.yul\":4736:4777   */\n      gt\n        /* \"#utility.yul\":4733:4861   */\n      iszero\n      tag_320\n      jumpi\n        /* \"#utility.yul\":4780:4859   */\n      tag_321\n      tag_232\n      jump\t// in\n    tag_321:\n        /* \"#utility.yul\":4733:4861   */\n    tag_320:\n        /* \"#utility.yul\":4299:4867   */\n      swap3\n      pop\n      swap3\n      swap1\n      pop\n      jump\t// out\n        /* \"#utility.yul\":4873:5432   */\n    tag_68:\n        /* \"#utility.yul\":4959:4965   */\n      0x00\n        /* \"#utility.yul\":4967:4973   */\n      dup1\n        /* \"#utility.yul\":5016:5018   */\n      0x20\n        /* \"#utility.yul\":5004:5013   */\n      dup4\n        /* \"#utility.yul\":4995:5002   */\n      dup6\n        /* \"#utility.yul\":4991:5014   */\n      sub\n        /* \"#utility.yul\":4987:5019   */\n      slt\n        /* \"#utility.yul\":4984:5103   */\n      iszero\n      tag_323\n      jumpi\n        /* \"#utility.yul\":5022:5101   */\n      tag_324\n      tag_214\n      jump\t// in\n    tag_324:\n        /* \"#utility.yul\":4984:5103   */\n    tag_323:\n        /* \"#utility.yul\":5170:5171   */\n      0x00\n        /* \"#utility.yul\":5159:5168   */\n      dup4\n        /* \"#utility.yul\":5155:5172   */\n      add\n        /* \"#utility.yul\":5142:5173   */\n      calldataload\n        /* \"#utility.yul\":5200:5218   */\n      0xffffffffffffffff\n        /* \"#utility.yul\":5192:5198   */\n      dup2\n        /* \"#utility.yul\":5189:5219   */\n      gt\n        /* \"#utility.yul\":5186:5303   */\n      iszero\n      tag_325\n      jumpi\n        /* \"#utility.yul\":5222:5301   */\n      tag_326\n      tag_215\n      jump\t// in\n    tag_326:\n        /* \"#utility.yul\":5186:5303   */\n    tag_325:\n        /* \"#utility.yul\":5335:5415   */\n      tag_327\n        /* \"#utility.yul\":5407:5414   */\n      dup6\n        /* \"#utility.yul\":5398:5404   */\n      dup3\n        /* \"#utility.yul\":5387:5396   */\n      dup7\n        /* \"#utility.yul\":5383:5405   */\n      add\n        /* \"#utility.yul\":5335:5415   */\n      tag_233\n      jump\t// in\n    tag_327:\n        /* \"#utility.yul\":5317:5415   */\n      swap3\n      pop\n      swap3\n      pop\n        /* \"#utility.yul\":5113:5425   */\n      pop\n        /* \"#utility.yul\":4873:5432   */\n      swap3\n      pop\n      swap3\n      swap1\n      pop\n      jump\t// out\n        /* \"#utility.yul\":5438:5528   */\n    tag_234:\n        /* \"#utility.yul\":5472:5479   */\n      0x00\n        /* \"#utility.yul\":5515:5520   */\n      dup2\n        /* \"#utility.yul\":5508:5521   */\n      iszero\n        /* \"#utility.yul\":5501:5522   */\n      iszero\n        /* \"#utility.yul\":5490:5522   */\n      swap1\n      pop\n        /* \"#utility.yul\":5438:5528   */\n      swap2\n      swap1\n      pop\n      jump\t// out\n        /* \"#utility.yul\":5534:5650   */\n    tag_235:\n        /* \"#utility.yul\":5604:5625   */\n      tag_330\n        /* \"#utility.yul\":5619:5624   */\n      dup2\n        /* \"#utility.yul\":5604:5625   */\n      tag_234\n      jump\t// in\n    tag_330:\n        /* \"#utility.yul\":5597:5602   */\n      dup2\n        /* \"#utility.yul\":5594:5626   */\n      eq\n        /* \"#utility.yul\":5584:5644   */\n      tag_331\n      jumpi\n        /* \"#utility.yul\":5640:5641   */\n      0x00\n        /* \"#utility.yul\":5637:5638   */\n      dup1\n        /* \"#utility.yul\":5630:5642   */\n      revert\n        /* \"#utility.yul\":5584:5644   */\n    tag_331:\n        /* \"#utility.yul\":5534:5650   */\n      pop\n      jump\t// out\n        /* \"#utility.yul\":5656:5789   */\n    tag_236:\n        /* \"#utility.yul\":5699:5704   */\n      0x00\n        /* \"#utility.yul\":5737:5743   */\n      dup2\n        /* \"#utility.yul\":5724:5744   */\n      calldataload\n        /* \"#utility.yul\":5715:5744   */\n      swap1\n      pop\n        /* \"#utility.yul\":5753:5783   */\n      tag_333\n        /* \"#utility.yul\":5777:5782   */\n      dup2\n        /* \"#utility.yul\":5753:5783   */\n      tag_235\n      jump\t// in\n    tag_333:\n        /* \"#utility.yul\":5656:5789   */\n      swap3\n      swap2\n      pop\n      pop\n      jump\t// out\n        /* \"#utility.yul\":5795:6118   */\n    tag_74:\n        /* \"#utility.yul\":5851:5857   */\n      0x00\n        /* \"#utility.yul\":5900:5902   */\n      0x20\n        /* \"#utility.yul\":5888:5897   */\n      dup3\n        /* \"#utility.yul\":5879:5886   */\n      dup5\n        /* \"#utility.yul\":5875:5898   */\n      sub\n        /* \"#utility.yul\":5871:5903   */\n      slt\n        /* \"#utility.yul\":5868:5987   */\n      iszero\n      tag_335\n      jumpi\n        /* \"#utility.yul\":5906:5985   */\n      tag_336\n      tag_214\n      jump\t// in\n    tag_336:\n        /* \"#utility.yul\":5868:5987   */\n    tag_335:\n        /* \"#utility.yul\":6026:6027   */\n      0x00\n        /* \"#utility.yul\":6051:6101   */\n      tag_337\n        /* \"#utility.yul\":6093:6100   */\n      dup5\n        /* \"#utility.yul\":6084:6090   */\n      dup3\n        /* \"#utility.yul\":6073:6082   */\n      dup6\n        /* \"#utility.yul\":6069:6091   */\n      add\n        /* \"#utility.yul\":6051:6101   */\n      tag_236\n      jump\t// in\n    tag_337:\n        /* \"#utility.yul\":6041:6101   */\n      swap2\n      pop\n        /* \"#utility.yul\":5997:6111   */\n      pop\n        /* \"#utility.yul\":5795:6118   */\n      swap3\n      swap2\n      pop\n      pop\n      jump\t// out\n        /* \"#utility.yul\":6138:6691   */\n    tag_237:\n        /* \"#utility.yul\":6196:6204   */\n      0x00\n        /* \"#utility.yul\":6206:6212   */\n      dup1\n        /* \"#utility.yul\":6256:6259   */\n      dup4\n        /* \"#utility.yul\":6249:6253   */\n      0x1f\n        /* \"#utility.yul\":6241:6247   */\n      dup5\n        /* \"#utility.yul\":6237:6254   */\n      add\n        /* \"#utility.yul\":6233:6260   */\n      slt\n        /* \"#utility.yul\":6223:6345   */\n      tag_339\n      jumpi\n        /* \"#utility.yul\":6264:6343   */\n      tag_340\n      tag_230\n      jump\t// in\n    tag_340:\n        /* \"#utility.yul\":6223:6345   */\n    tag_339:\n        /* \"#utility.yul\":6377:6383   */\n      dup3\n        /* \"#utility.yul\":6364:6384   */\n      calldataload\n        /* \"#utility.yul\":6354:6384   */\n      swap1\n      pop\n        /* \"#utility.yul\":6407:6425   */\n      0xffffffffffffffff\n        /* \"#utility.yul\":6399:6405   */\n      dup2\n        /* \"#utility.yul\":6396:6426   */\n      gt\n        /* \"#utility.yul\":6393:6510   */\n      iszero\n      tag_341\n      jumpi\n        /* \"#utility.yul\":6429:6508   */\n      tag_342\n      tag_231\n      jump\t// in\n    tag_342:\n        /* \"#utility.yul\":6393:6510   */\n    tag_341:\n        /* \"#utility.yul\":6543:6547   */\n      0x20\n        /* \"#utility.yul\":6535:6541   */\n      dup4\n        /* \"#utility.yul\":6531:6548   */\n      add\n        /* \"#utility.yul\":6519:6548   */\n      swap2\n      pop\n        /* \"#utility.yul\":6597:6600   */\n      dup4\n        /* \"#utility.yul\":6589:6593   */\n      0x01\n        /* \"#utility.yul\":6581:6587   */\n      dup3\n        /* \"#utility.yul\":6577:6594   */\n      mul\n        /* \"#utility.yul\":6567:6575   */\n      dup4\n        /* \"#utility.yul\":6563:6595   */\n      add\n        /* \"#utility.yul\":6560:6601   */\n      gt\n        /* \"#utility.yul\":6557:6685   */\n      iszero\n      tag_343\n      jumpi\n        /* \"#utility.yul\":6604:6683   */\n      tag_344\n      tag_232\n      jump\t// in\n    tag_344:\n        /* \"#utility.yul\":6557:6685   */\n    tag_343:\n        /* \"#utility.yul\":6138:6691   */\n      swap3\n      pop\n      swap3\n      swap1\n      pop\n      jump\t// out\n        /* \"#utility.yul\":6697:7226   */\n    tag_81:\n        /* \"#utility.yul\":6768:6774   */\n      0x00\n        /* \"#utility.yul\":6776:6782   */\n      dup1\n        /* \"#utility.yul\":6825:6827   */\n      0x20\n        /* \"#utility.yul\":6813:6822   */\n      dup4\n        /* \"#utility.yul\":6804:6811   */\n      dup6\n        /* \"#utility.yul\":6800:6823   */\n      sub\n        /* \"#utility.yul\":6796:6828   */\n      slt\n        /* \"#utility.yul\":6793:6912   */\n      iszero\n      tag_346\n      jumpi\n        /* \"#utility.yul\":6831:6910   */\n      tag_347\n      tag_214\n      jump\t// in\n    tag_347:\n        /* \"#utility.yul\":6793:6912   */\n    tag_346:\n        /* \"#utility.yul\":6979:6980   */\n      0x00\n        /* \"#utility.yul\":6968:6977   */\n      dup4\n        /* \"#utility.yul\":6964:6981   */\n      add\n        /* \"#utility.yul\":6951:6982   */\n      calldataload\n        /* \"#utility.yul\":7009:7027   */\n      0xffffffffffffffff\n        /* \"#utility.yul\":7001:7007   */\n      dup2\n        /* \"#utility.yul\":6998:7028   */\n      gt\n        /* \"#utility.yul\":6995:7112   */\n      iszero\n      tag_348\n      jumpi\n        /* \"#utility.yul\":7031:7110   */\n      tag_349\n      tag_215\n      jump\t// in\n    tag_349:\n        /* \"#utility.yul\":6995:7112   */\n    tag_348:\n        /* \"#utility.yul\":7144:7209   */\n      tag_350\n        /* \"#utility.yul\":7201:7208   */\n      dup6\n        /* \"#utility.yul\":7192:7198   */\n      dup3\n        /* \"#utility.yul\":7181:7190   */\n      dup7\n        /* \"#utility.yul\":7177:7199   */\n      add\n        /* \"#utility.yul\":7144:7209   */\n      tag_237\n      jump\t// in\n    tag_350:\n        /* \"#utility.yul\":7126:7209   */\n      swap3\n      pop\n      swap3\n      pop\n        /* \"#utility.yul\":6922:7219   */\n      pop\n        /* \"#utility.yul\":6697:7226   */\n      swap3\n      pop\n      swap3\n      swap1\n      pop\n      jump\t// out\n        /* \"#utility.yul\":7232:7341   */\n    tag_238:\n        /* \"#utility.yul\":7313:7334   */\n      tag_352\n        /* \"#utility.yul\":7328:7333   */\n      dup2\n        /* \"#utility.yul\":7313:7334   */\n      tag_234\n      jump\t// in\n    tag_352:\n        /* \"#utility.yul\":7308:7311   */\n      dup3\n        /* \"#utility.yul\":7301:7335   */\n      mstore\n        /* \"#utility.yul\":7232:7341   */\n      pop\n      pop\n      jump\t// out\n        /* \"#utility.yul\":7347:7557   */\n    tag_87:\n        /* \"#utility.yul\":7434:7438   */\n      0x00\n        /* \"#utility.yul\":7472:7474   */\n      0x20\n        /* \"#utility.yul\":7461:7470   */\n      dup3\n        /* \"#utility.yul\":7457:7475   */\n      add\n        /* \"#utility.yul\":7449:7475   */\n      swap1\n      pop\n        /* \"#utility.yul\":7485:7550   */\n      tag_354\n        /* \"#utility.yul\":7547:7548   */\n      0x00\n        /* \"#utility.yul\":7536:7545   */\n      dup4\n        /* \"#utility.yul\":7532:7549   */\n      add\n        /* \"#utility.yul\":7523:7529   */\n      dup5\n        /* \"#utility.yul\":7485:7550   */\n      tag_238\n      jump\t// in\n    tag_354:\n        /* \"#utility.yul\":7347:7557   */\n      swap3\n      swap2\n      pop\n      pop\n      jump\t// out\n        /* \"#utility.yul\":7563:7700   */\n    tag_239:\n        /* \"#utility.yul\":7617:7622   */\n      0x00\n        /* \"#utility.yul\":7648:7654   */\n      dup2\n        /* \"#utility.yul\":7642:7655   */\n      mload\n        /* \"#utility.yul\":7633:7655   */\n      swap1\n      pop\n        /* \"#utility.yul\":7664:7694   */\n      tag_356\n        /* \"#utility.yul\":7688:7693   */\n      dup2\n        /* \"#utility.yul\":7664:7694   */\n      tag_235\n      jump\t// in\n    tag_356:\n        /* \"#utility.yul\":7563:7700   */\n      swap3\n      swap2\n      pop\n      pop\n      jump\t// out\n        /* \"#utility.yul\":7706:8051   */\n    tag_128:\n        /* \"#utility.yul\":7773:7779   */\n      0x00\n        /* \"#utility.yul\":7822:7824   */\n      0x20\n        /* \"#utility.yul\":7810:7819   */\n      dup3\n        /* \"#utility.yul\":7801:7808   */\n      dup5\n        /* \"#utility.yul\":7797:7820   */\n      sub\n        /* \"#utility.yul\":7793:7825   */\n      slt\n        /* \"#utility.yul\":7790:7909   */\n      iszero\n      tag_358\n      jumpi\n        /* \"#utility.yul\":7828:7907   */\n      tag_359\n      tag_214\n      jump\t// in\n    tag_359:\n        /* \"#utility.yul\":7790:7909   */\n    tag_358:\n        /* \"#utility.yul\":7948:7949   */\n      0x00\n        /* \"#utility.yul\":7973:8034   */\n      tag_360\n        /* \"#utility.yul\":8026:8033   */\n      dup5\n        /* \"#utility.yul\":8017:8023   */\n      dup3\n        /* \"#utility.yul\":8006:8015   */\n      dup6\n        /* \"#utility.yul\":8002:8024   */\n      add\n        /* \"#utility.yul\":7973:8034   */\n      tag_239\n      jump\t// in\n    tag_360:\n        /* \"#utility.yul\":7963:8034   */\n      swap2\n      pop\n        /* \"#utility.yul\":7919:8044   */\n      pop\n        /* \"#utility.yul\":7706:8051   */\n      swap3\n      swap2\n      pop\n      pop\n      jump\t// out\n        /* \"#utility.yul\":8057:8227   */\n    tag_240:\n        /* \"#utility.yul\":8197:8219   */\n      0x63616c6c6572206d757374206265206f776e6572000000000000000000000000\n        /* \"#utility.yul\":8193:8194   */\n      0x00\n        /* \"#utility.yul\":8185:8191   */\n      dup3\n        /* \"#utility.yul\":8181:8195   */\n      add\n        /* \"#utility.yul\":8174:8220   */\n      mstore\n        /* \"#utility.yul\":8057:8227   */\n      pop\n      jump\t// out\n        /* \"#utility.yul\":8233:8599   */\n    tag_241:\n        /* \"#utility.yul\":8375:8378   */\n      0x00\n        /* \"#utility.yul\":8396:8463   */\n      tag_363\n        /* \"#utility.yul\":8460:8462   */\n      0x14\n        /* \"#utility.yul\":8455:8458   */\n      dup4\n        /* \"#utility.yul\":8396:8463   */\n      tag_225\n      jump\t// in\n    tag_363:\n        /* \"#utility.yul\":8389:8463   */\n      swap2\n      pop\n        /* \"#utility.yul\":8472:8565   */\n      tag_364\n        /* \"#utility.yul\":8561:8564   */\n      dup3\n        /* \"#utility.yul\":8472:8565   */\n      tag_240\n      jump\t// in\n    tag_364:\n        /* \"#utility.yul\":8590:8592   */\n      0x20\n        /* \"#utility.yul\":8585:8588   */\n      dup3\n        /* \"#utility.yul\":8581:8593   */\n      add\n        /* \"#utility.yul\":8574:8593   */\n      swap1\n      pop\n        /* \"#utility.yul\":8233:8599   */\n      swap2\n      swap1\n      pop\n      jump\t// out\n        /* \"#utility.yul\":8605:9024   */\n    tag_137:\n        /* \"#utility.yul\":8771:8775   */\n      0x00\n        /* \"#utility.yul\":8809:8811   */\n      0x20\n        /* \"#utility.yul\":8798:8807   */\n      dup3\n        /* \"#utility.yul\":8794:8812   */\n      add\n        /* \"#utility.yul\":8786:8812   */\n      swap1\n      pop\n        /* \"#utility.yul\":8858:8867   */\n      dup2\n        /* \"#utility.yul\":8852:8856   */\n      dup2\n        /* \"#utility.yul\":8848:8868   */\n      sub\n        /* \"#utility.yul\":8844:8845   */\n      0x00\n        /* \"#utility.yul\":8833:8842   */\n      dup4\n        /* \"#utility.yul\":8829:8846   */\n      add\n        /* \"#utility.yul\":8822:8869   */\n      mstore\n        /* \"#utility.yul\":8886:9017   */\n      tag_366\n        /* \"#utility.yul\":9012:9016   */\n      dup2\n        /* \"#utility.yul\":8886:9017   */\n      tag_241\n      jump\t// in\n    tag_366:\n        /* \"#utility.yul\":8878:9017   */\n      swap1\n      pop\n        /* \"#utility.yul\":8605:9024   */\n      swap2\n      swap1\n      pop\n      jump\t// out\n        /* \"#utility.yul\":9030:9210   */\n    tag_242:\n        /* \"#utility.yul\":9078:9155   */\n      0x4e487b7100000000000000000000000000000000000000000000000000000000\n        /* \"#utility.yul\":9075:9076   */\n      0x00\n        /* \"#utility.yul\":9068:9156   */\n      mstore\n        /* \"#utility.yul\":9175:9179   */\n      0x22\n        /* \"#utility.yul\":9172:9173   */\n      0x04\n        /* \"#utility.yul\":9165:9180   */\n      mstore\n        /* \"#utility.yul\":9199:9203   */\n      0x24\n        /* \"#utility.yul\":9196:9197   */\n      0x00\n        /* \"#utility.yul\":9189:9204   */\n      revert\n        /* \"#utility.yul\":9216:9536   */\n    tag_140:\n        /* \"#utility.yul\":9260:9266   */\n      0x00\n        /* \"#utility.yul\":9297:9298   */\n      0x02\n        /* \"#utility.yul\":9291:9295   */\n      dup3\n        /* \"#utility.yul\":9287:9299   */\n      div\n        /* \"#utility.yul\":9277:9299   */\n      swap1\n      pop\n        /* \"#utility.yul\":9344:9345   */\n      0x01\n        /* \"#utility.yul\":9338:9342   */\n      dup3\n        /* \"#utility.yul\":9334:9346   */\n      and\n        /* \"#utility.yul\":9365:9383   */\n      dup1\n        /* \"#utility.yul\":9355:9436   */\n      tag_369\n      jumpi\n        /* \"#utility.yul\":9421:9425   */\n      0x7f\n        /* \"#utility.yul\":9413:9419   */\n      dup3\n        /* \"#utility.yul\":9409:9426   */\n      and\n        /* \"#utility.yul\":9399:9426   */\n      swap2\n      pop\n        /* \"#utility.yul\":9355:9436   */\n    tag_369:\n        /* \"#utility.yul\":9483:9485   */\n      0x20\n        /* \"#utility.yul\":9475:9481   */\n      dup3\n        /* \"#utility.yul\":9472:9486   */\n      lt\n        /* \"#utility.yul\":9452:9470   */\n      dup2\n        /* \"#utility.yul\":9449:9487   */\n      sub\n        /* \"#utility.yul\":9446:9530   */\n      tag_370\n      jumpi\n        /* \"#utility.yul\":9502:9520   */\n      tag_371\n      tag_242\n      jump\t// in\n    tag_371:\n        /* \"#utility.yul\":9446:9530   */\n    tag_370:\n        /* \"#utility.yul\":9267:9536   */\n      pop\n        /* \"#utility.yul\":9216:9536   */\n      swap2\n      swap1\n      pop\n      jump\t// out\n        /* \"#utility.yul\":9542:9776   */\n    tag_243:\n        /* \"#utility.yul\":9682:9716   */\n      0x526571756573746f72206973206e6f7420612063616e64696461746520666f72\n        /* \"#utility.yul\":9678:9679   */\n      0x00\n        /* \"#utility.yul\":9670:9676   */\n      dup3\n        /* \"#utility.yul\":9666:9680   */\n      add\n        /* \"#utility.yul\":9659:9717   */\n      mstore\n        /* \"#utility.yul\":9751:9768   */\n      0x20737563636573736f72736869702e0000000000000000000000000000000000\n        /* \"#utility.yul\":9746:9748   */\n      0x20\n        /* \"#utility.yul\":9738:9744   */\n      dup3\n        /* \"#utility.yul\":9734:9749   */\n      add\n        /* \"#utility.yul\":9727:9769   */\n      mstore\n        /* \"#utility.yul\":9542:9776   */\n      pop\n      jump\t// out\n        /* \"#utility.yul\":9782:10148   */\n    tag_244:\n        /* \"#utility.yul\":9924:9927   */\n      0x00\n        /* \"#utility.yul\":9945:10012   */\n      tag_374\n        /* \"#utility.yul\":10009:10011   */\n      0x2f\n        /* \"#utility.yul\":10004:10007   */\n      dup4\n        /* \"#utility.yul\":9945:10012   */\n      tag_225\n      jump\t// in\n    tag_374:\n        /* \"#utility.yul\":9938:10012   */\n      swap2\n      pop\n        /* \"#utility.yul\":10021:10114   */\n      tag_375\n        /* \"#utility.yul\":10110:10113   */\n      dup3\n        /* \"#utility.yul\":10021:10114   */\n      tag_243\n      jump\t// in\n    tag_375:\n        /* \"#utility.yul\":10139:10141   */\n      0x40\n        /* \"#utility.yul\":10134:10137   */\n      dup3\n        /* \"#utility.yul\":10130:10142   */\n      add\n        /* \"#utility.yul\":10123:10142   */\n      swap1\n      pop\n        /* \"#utility.yul\":9782:10148   */\n      swap2\n      swap1\n      pop\n      jump\t// out\n        /* \"#utility.yul\":10154:10573   */\n    tag_161:\n        /* \"#utility.yul\":10320:10324   */\n      0x00\n        /* \"#utility.yul\":10358:10360   */\n      0x20\n        /* \"#utility.yul\":10347:10356   */\n      dup3\n        /* \"#utility.yul\":10343:10361   */\n      add\n        /* \"#utility.yul\":10335:10361   */\n      swap1\n      pop\n        /* \"#utility.yul\":10407:10416   */\n      dup2\n        /* \"#utility.yul\":10401:10405   */\n      dup2\n        /* \"#utility.yul\":10397:10417   */\n      sub\n        /* \"#utility.yul\":10393:10394   */\n      0x00\n        /* \"#utility.yul\":10382:10391   */\n      dup4\n        /* \"#utility.yul\":10378:10395   */\n      add\n        /* \"#utility.yul\":10371:10418   */\n      mstore\n        /* \"#utility.yul\":10435:10566   */\n      tag_377\n        /* \"#utility.yul\":10561:10565   */\n      dup2\n        /* \"#utility.yul\":10435:10566   */\n      tag_244\n      jump\t// in\n    tag_377:\n        /* \"#utility.yul\":10427:10566   */\n      swap1\n      pop\n        /* \"#utility.yul\":10154:10573   */\n      swap2\n      swap1\n      pop\n      jump\t// out\n        /* \"#utility.yul\":10579:10815   */\n    tag_245:\n        /* \"#utility.yul\":10719:10753   */\n      0x526571756573746f72206973206e6f7420612063616e64696461746520666f72\n        /* \"#utility.yul\":10715:10716   */\n      0x00\n        /* \"#utility.yul\":10707:10713   */\n      dup3\n        /* \"#utility.yul\":10703:10717   */\n      add\n        /* \"#utility.yul\":10696:10754   */\n      mstore\n        /* \"#utility.yul\":10788:10807   */\n      0x207072656465636573736f72736869702e000000000000000000000000000000\n        /* \"#utility.yul\":10783:10785   */\n      0x20\n        /* \"#utility.yul\":10775:10781   */\n      dup3\n        /* \"#utility.yul\":10771:10786   */\n      add\n        /* \"#utility.yul\":10764:10808   */\n      mstore\n        /* \"#utility.yul\":10579:10815   */\n      pop\n      jump\t// out\n        /* \"#utility.yul\":10821:11187   */\n    tag_246:\n        /* \"#utility.yul\":10963:10966   */\n      0x00\n        /* \"#utility.yul\":10984:11051   */\n      tag_380\n        /* \"#utility.yul\":11048:11050   */\n      0x31\n        /* \"#utility.yul\":11043:11046   */\n      dup4\n        /* \"#utility.yul\":10984:11051   */\n      tag_225\n      jump\t// in\n    tag_380:\n        /* \"#utility.yul\":10977:11051   */\n      swap2\n      pop\n        /* \"#utility.yul\":11060:11153   */\n      tag_381\n        /* \"#utility.yul\":11149:11152   */\n      dup3\n        /* \"#utility.yul\":11060:11153   */\n      tag_245\n      jump\t// in\n    tag_381:\n        /* \"#utility.yul\":11178:11180   */\n      0x40\n        /* \"#utility.yul\":11173:11176   */\n      dup3\n        /* \"#utility.yul\":11169:11181   */\n      add\n        /* \"#utility.yul\":11162:11181   */\n      swap1\n      pop\n        /* \"#utility.yul\":10821:11187   */\n      swap2\n      swap1\n      pop\n      jump\t// out\n        /* \"#utility.yul\":11193:11612   */\n    tag_171:\n        /* \"#utility.yul\":11359:11363   */\n      0x00\n        /* \"#utility.yul\":11397:11399   */\n      0x20\n        /* \"#utility.yul\":11386:11395   */\n      dup3\n        /* \"#utility.yul\":11382:11400   */\n      add\n        /* \"#utility.yul\":11374:11400   */\n      swap1\n      pop\n        /* \"#utility.yul\":11446:11455   */\n      dup2\n        /* \"#utility.yul\":11440:11444   */\n      dup2\n        /* \"#utility.yul\":11436:11456   */\n      sub\n        /* \"#utility.yul\":11432:11433   */\n      0x00\n        /* \"#utility.yul\":11421:11430   */\n      dup4\n        /* \"#utility.yul\":11417:11434   */\n      add\n        /* \"#utility.yul\":11410:11457   */\n      mstore\n        /* \"#utility.yul\":11474:11605   */\n      tag_383\n        /* \"#utility.yul\":11600:11604   */\n      dup2\n        /* \"#utility.yul\":11474:11605   */\n      tag_246\n      jump\t// in\n    tag_383:\n        /* \"#utility.yul\":11466:11605   */\n      swap1\n      pop\n        /* \"#utility.yul\":11193:11612   */\n      swap2\n      swap1\n      pop\n      jump\t// out\n        /* \"#utility.yul\":11618:11715   */\n    tag_247:\n        /* \"#utility.yul\":11677:11683   */\n      0x00\n        /* \"#utility.yul\":11705:11708   */\n      dup3\n        /* \"#utility.yul\":11695:11708   */\n      swap1\n      pop\n        /* \"#utility.yul\":11618:11715   */\n      swap3\n      swap2\n      pop\n      pop\n      jump\t// out\n        /* \"#utility.yul\":11721:11901   */\n    tag_248:\n        /* \"#utility.yul\":11769:11846   */\n      0x4e487b7100000000000000000000000000000000000000000000000000000000\n        /* \"#utility.yul\":11766:11767   */\n      0x00\n        /* \"#utility.yul\":11759:11847   */\n      mstore\n        /* \"#utility.yul\":11866:11870   */\n      0x41\n        /* \"#utility.yul\":11863:11864   */\n      0x04\n        /* \"#utility.yul\":11856:11871   */\n      mstore\n        /* \"#utility.yul\":11890:11894   */\n      0x24\n        /* \"#utility.yul\":11887:11888   */\n      0x00\n        /* \"#utility.yul\":11880:11895   */\n      revert\n        /* \"#utility.yul\":11907:12048   */\n    tag_249:\n        /* \"#utility.yul\":11956:11960   */\n      0x00\n        /* \"#utility.yul\":11979:11982   */\n      dup2\n        /* \"#utility.yul\":11971:11982   */\n      swap1\n      pop\n        /* \"#utility.yul\":12002:12005   */\n      dup2\n        /* \"#utility.yul\":11999:12000   */\n      0x00\n        /* \"#utility.yul\":11992:12006   */\n      mstore\n        /* \"#utility.yul\":12036:12040   */\n      0x20\n        /* \"#utility.yul\":12033:12034   */\n      0x00\n        /* \"#utility.yul\":12023:12041   */\n      keccak256\n        /* \"#utility.yul\":12015:12041   */\n      swap1\n      pop\n        /* \"#utility.yul\":11907:12048   */\n      swap2\n      swap1\n      pop\n      jump\t// out\n        /* \"#utility.yul\":12054:12147   */\n    tag_250:\n        /* \"#utility.yul\":12091:12097   */\n      0x00\n        /* \"#utility.yul\":12138:12140   */\n      0x20\n        /* \"#utility.yul\":12133:12135   */\n      0x1f\n        /* \"#utility.yul\":12126:12131   */\n      dup4\n        /* \"#utility.yul\":12122:12136   */\n      add\n        /* \"#utility.yul\":12118:12141   */\n      div\n        /* \"#utility.yul\":12108:12141   */\n      swap1\n      pop\n        /* \"#utility.yul\":12054:12147   */\n      swap2\n      swap1\n      pop\n      jump\t// out\n        /* \"#utility.yul\":12153:12260   */\n    tag_251:\n        /* \"#utility.yul\":12197:12205   */\n      0x00\n        /* \"#utility.yul\":12247:12252   */\n      dup3\n        /* \"#utility.yul\":12241:12245   */\n      dup3\n        /* \"#utility.yul\":12237:12253   */\n      shl\n        /* \"#utility.yul\":12216:12253   */\n      swap1\n      pop\n        /* \"#utility.yul\":12153:12260   */\n      swap3\n      swap2\n      pop\n      pop\n      jump\t// out\n        /* \"#utility.yul\":12266:12659   */\n    tag_252:\n        /* \"#utility.yul\":12335:12341   */\n      0x00\n        /* \"#utility.yul\":12385:12386   */\n      0x08\n        /* \"#utility.yul\":12373:12383   */\n      dup4\n        /* \"#utility.yul\":12369:12387   */\n      mul\n        /* \"#utility.yul\":12408:12505   */\n      tag_390\n        /* \"#utility.yul\":12438:12504   */\n      0xffffffffffffffffffffffffffffffffffffffffffffffffffffffffffffffff\n        /* \"#utility.yul\":12427:12436   */\n      dup3\n        /* \"#utility.yul\":12408:12505   */\n      tag_251\n      jump\t// in\n    tag_390:\n        /* \"#utility.yul\":12526:12565   */\n      tag_391\n        /* \"#utility.yul\":12556:12564   */\n      dup7\n        /* \"#utility.yul\":12545:12554   */\n      dup4\n        /* \"#utility.yul\":12526:12565   */\n      tag_251\n      jump\t// in\n    tag_391:\n        /* \"#utility.yul\":12514:12565   */\n      swap6\n      pop\n        /* \"#utility.yul\":12598:12602   */\n      dup1\n        /* \"#utility.yul\":12594:12603   */\n      not\n        /* \"#utility.yul\":12587:12592   */\n      dup5\n        /* \"#utility.yul\":12583:12604   */\n      and\n        /* \"#utility.yul\":12574:12604   */\n      swap4\n      pop\n        /* \"#utility.yul\":12647:12651   */\n      dup1\n        /* \"#utility.yul\":12637:12645   */\n      dup7\n        /* \"#utility.yul\":12633:12652   */\n      and\n        /* \"#utility.yul\":12626:12631   */\n      dup5\n        /* \"#utility.yul\":12623:12653   */\n      or\n        /* \"#utility.yul\":12613:12653   */\n      swap3\n      pop\n        /* \"#utility.yul\":12342:12659   */\n      pop\n      pop\n        /* \"#utility.yul\":12266:12659   */\n      swap4\n      swap3\n      pop\n      pop\n      pop\n      jump\t// out\n        /* \"#utility.yul\":12665:12725   */\n    tag_253:\n        /* \"#utility.yul\":12693:12696   */\n      0x00\n        /* \"#utility.yul\":12714:12719   */\n      dup2\n        /* \"#utility.yul\":12707:12719   */\n      swap1\n      pop\n        /* \"#utility.yul\":12665:12725   */\n      swap2\n      swap1\n      pop\n      jump\t// out\n        /* \"#utility.yul\":12731:12873   */\n    tag_254:\n        /* \"#utility.yul\":12781:12790   */\n      0x00\n        /* \"#utility.yul\":12814:12867   */\n      tag_394\n        /* \"#utility.yul\":12832:12866   */\n      tag_395\n        /* \"#utility.yul\":12841:12865   */\n      tag_396\n        /* \"#utility.yul\":12859:12864   */\n      dup5\n        /* \"#utility.yul\":12841:12865   */\n      tag_220\n      jump\t// in\n    tag_396:\n        /* \"#utility.yul\":12832:12866   */\n      tag_253\n      jump\t// in\n    tag_395:\n        /* \"#utility.yul\":12814:12867   */\n      tag_220\n      jump\t// in\n    tag_394:\n        /* \"#utility.yul\":12801:12867   */\n      swap1\n      pop\n        /* \"#utility.yul\":12731:12873   */\n      swap2\n      swap1\n      pop\n      jump\t// out\n        /* \"#utility.yul\":12879:12954   */\n    tag_255:\n        /* \"#utility.yul\":12922:12925   */\n      0x00\n        /* \"#utility.yul\":12943:12948   */\n      dup2\n        /* \"#utility.yul\":12936:12948   */\n      swap1\n      pop\n        /* \"#utility.yul\":12879:12954   */\n      swap2\n      swap1\n      pop\n      jump\t// out\n        /* \"#utility.yul\":12960:13229   */\n    tag_256:\n        /* \"#utility.yul\":13070:13109   */\n      tag_399\n        /* \"#utility.yul\":13101:13108   */\n      dup4\n        /* \"#utility.yul\":13070:13109   */\n      tag_254\n      jump\t// in\n    tag_399:\n        /* \"#utility.yul\":13131:13222   */\n      tag_400\n        /* \"#utility.yul\":13180:13221   */\n      tag_401\n        /* \"#utility.yul\":13204:13220   */\n      dup3\n        /* \"#utility.yul\":13180:13221   */\n      tag_255\n      jump\t// in\n    tag_401:\n        /* \"#utility.yul\":13172:13178   */\n      dup5\n        /* \"#utility.yul\":13165:13169   */\n      dup5\n        /* \"#utility.yul\":13159:13170   */\n      sload\n        /* \"#utility.yul\":13131:13222   */\n      tag_252\n      jump\t// in\n    tag_400:\n        /* \"#utility.yul\":13125:13129   */\n      dup3\n        /* \"#utility.yul\":13118:13223   */\n      sstore\n        /* \"#utility.yul\":13036:13229   */\n      pop\n        /* \"#utility.yul\":12960:13229   */\n      pop\n      pop\n      pop\n      jump\t// out\n        /* \"#utility.yul\":13235:13308   */\n    tag_257:\n        /* \"#utility.yul\":13280:13283   */\n      0x00\n        /* \"#utility.yul\":13235:13308   */\n      swap1\n      jump\t// out\n        /* \"#utility.yul\":13314:13503   */\n    tag_258:\n        /* \"#utility.yul\":13391:13423   */\n      tag_404\n      tag_257\n      jump\t// in\n    tag_404:\n        /* \"#utility.yul\":13432:13497   */\n      tag_405\n        /* \"#utility.yul\":13490:13496   */\n      dup2\n        /* \"#utility.yul\":13482:13488   */\n      dup5\n        /* \"#utility.yul\":13476:13480   */\n      dup5\n        /* \"#utility.yul\":13432:13497   */\n      tag_256\n      jump\t// in\n    tag_405:\n        /* \"#utility.yul\":13367:13503   */\n      pop\n        /* \"#utility.yul\":13314:13503   */\n      pop\n      pop\n      jump\t// out\n        /* \"#utility.yul\":13509:13695   */\n    tag_259:\n        /* \"#utility.yul\":13569:13689   */\n    tag_407:\n        /* \"#utility.yul\":13586:13589   */\n      dup2\n        /* \"#utility.yul\":13579:13584   */\n      dup2\n        /* \"#utility.yul\":13576:13590   */\n      lt\n        /* \"#utility.yul\":13569:13689   */\n      iszero\n      tag_409\n      jumpi\n        /* \"#utility.yul\":13640:13679   */\n      tag_410\n        /* \"#utility.yul\":13677:13678   */\n      0x00\n        /* \"#utility.yul\":13670:13675   */\n      dup3\n        /* \"#utility.yul\":13640:13679   */\n      tag_258\n      jump\t// in\n    tag_410:\n        /* \"#utility.yul\":13613:13614   */\n      0x01\n        /* \"#utility.yul\":13606:13611   */\n      dup2\n        /* \"#utility.yul\":13602:13615   */\n      add\n        /* \"#utility.yul\":13593:13615   */\n      swap1\n      pop\n        /* \"#utility.yul\":13569:13689   */\n      jump(tag_407)\n    tag_409:\n        /* \"#utility.yul\":13509:13695   */\n      pop\n      pop\n      jump\t// out\n        /* \"#utility.yul\":13701:14244   */\n    tag_260:\n        /* \"#utility.yul\":13802:13804   */\n      0x1f\n        /* \"#utility.yul\":13797:13800   */\n      dup3\n        /* \"#utility.yul\":13794:13805   */\n      gt\n        /* \"#utility.yul\":13791:14237   */\n      iszero\n      tag_412\n      jumpi\n        /* \"#utility.yul\":13836:13874   */\n      tag_413\n        /* \"#utility.yul\":13868:13873   */\n      dup2\n        /* \"#utility.yul\":13836:13874   */\n      tag_249\n      jump\t// in\n    tag_413:\n        /* \"#utility.yul\":13920:13949   */\n      tag_414\n        /* \"#utility.yul\":13938:13948   */\n      dup5\n        /* \"#utility.yul\":13920:13949   */\n      tag_250\n      jump\t// in\n    tag_414:\n        /* \"#utility.yul\":13910:13918   */\n      dup2\n        /* \"#utility.yul\":13906:13950   */\n      add\n        /* \"#utility.yul\":14103:14105   */\n      0x20\n        /* \"#utility.yul\":14091:14101   */\n      dup6\n        /* \"#utility.yul\":14088:14106   */\n      lt\n        /* \"#utility.yul\":14085:14134   */\n      iszero\n      tag_415\n      jumpi\n        /* \"#utility.yul\":14124:14132   */\n      dup2\n        /* \"#utility.yul\":14109:14132   */\n      swap1\n      pop\n        /* \"#utility.yul\":14085:14134   */\n    tag_415:\n        /* \"#utility.yul\":14147:14227   */\n      tag_416\n        /* \"#utility.yul\":14203:14225   */\n      tag_417\n        /* \"#utility.yul\":14221:14224   */\n      dup6\n        /* \"#utility.yul\":14203:14225   */\n      tag_250\n      jump\t// in\n    tag_417:\n        /* \"#utility.yul\":14193:14201   */\n      dup4\n        /* \"#utility.yul\":14189:14226   */\n      add\n        /* \"#utility.yul\":14176:14187   */\n      dup3\n        /* \"#utility.yul\":14147:14227   */\n      tag_259\n      jump\t// in\n    tag_416:\n        /* \"#utility.yul\":13806:14237   */\n      pop\n      pop\n        /* \"#utility.yul\":13791:14237   */\n    tag_412:\n        /* \"#utility.yul\":13701:14244   */\n      pop\n      pop\n      pop\n      jump\t// out\n        /* \"#utility.yul\":14250:14367   */\n    tag_261:\n        /* \"#utility.yul\":14304:14312   */\n      0x00\n        /* \"#utility.yul\":14354:14359   */\n      dup3\n        /* \"#utility.yul\":14348:14352   */\n      dup3\n        /* \"#utility.yul\":14344:14360   */\n      shr\n        /* \"#utility.yul\":14323:14360   */\n      swap1\n      pop\n        /* \"#utility.yul\":14250:14367   */\n      swap3\n      swap2\n      pop\n      pop\n      jump\t// out\n        /* \"#utility.yul\":14373:14542   */\n    tag_262:\n        /* \"#utility.yul\":14417:14423   */\n      0x00\n        /* \"#utility.yul\":14450:14501   */\n      tag_420\n        /* \"#utility.yul\":14498:14499   */\n      0x00\n        /* \"#utility.yul\":14494:14500   */\n      not\n        /* \"#utility.yul\":14486:14491   */\n      dup5\n        /* \"#utility.yul\":14483:14484   */\n      0x08\n        /* \"#utility.yul\":14479:14492   */\n      mul\n        /* \"#utility.yul\":14450:14501   */\n      tag_261\n      jump\t// in\n    tag_420:\n        /* \"#utility.yul\":14446:14502   */\n      not\n        /* \"#utility.yul\":14531:14535   */\n      dup1\n        /* \"#utility.yul\":14525:14529   */\n      dup4\n        /* \"#utility.yul\":14521:14536   */\n      and\n        /* \"#utility.yul\":14511:14536   */\n      swap2\n      pop\n        /* \"#utility.yul\":14424:14542   */\n      pop\n        /* \"#utility.yul\":14373:14542   */\n      swap3\n      swap2\n      pop\n      pop\n      jump\t// out\n        /* \"#utility.yul\":14547:14842   */\n    tag_263:\n        /* \"#utility.yul\":14623:14627   */\n      0x00\n        /* \"#utility.yul\":14769:14798   */\n      tag_422\n        /* \"#utility.yul\":14794:14797   */\n      dup4\n        /* \"#utility.yul\":14788:14792   */\n      dup4\n        /* \"#utility.yul\":14769:14798   */\n      tag_262\n      jump\t// in\n    tag_422:\n        /* \"#utility.yul\":14761:14798   */\n      swap2\n      pop\n        /* \"#utility.yul\":14831:14834   */\n      dup3\n        /* \"#utility.yul\":14828:14829   */\n      0x02\n        /* \"#utility.yul\":14824:14835   */\n      mul\n        /* \"#utility.yul\":14818:14822   */\n      dup3\n        /* \"#utility.yul\":14815:14836   */\n      or\n        /* \"#utility.yul\":14807:14836   */\n      swap1\n      pop\n        /* \"#utility.yul\":14547:14842   */\n      swap3\n      swap2\n      pop\n      pop\n      jump\t// out\n        /* \"#utility.yul\":14847:16250   */\n    tag_181:\n        /* \"#utility.yul\":14971:15015   */\n      tag_424\n        /* \"#utility.yul\":15011:15014   */\n      dup4\n        /* \"#utility.yul\":15006:15009   */\n      dup4\n        /* \"#utility.yul\":14971:15015   */\n      tag_247\n      jump\t// in\n    tag_424:\n        /* \"#utility.yul\":15080:15098   */\n      0xffffffffffffffff\n        /* \"#utility.yul\":15072:15078   */\n      dup2\n        /* \"#utility.yul\":15069:15099   */\n      gt\n        /* \"#utility.yul\":15066:15122   */\n      iszero\n      tag_425\n      jumpi\n        /* \"#utility.yul\":15102:15120   */\n      tag_426\n      tag_248\n      jump\t// in\n    tag_426:\n        /* \"#utility.yul\":15066:15122   */\n    tag_425:\n        /* \"#utility.yul\":15146:15184   */\n      tag_427\n        /* \"#utility.yul\":15178:15182   */\n      dup3\n        /* \"#utility.yul\":15172:15183   */\n      sload\n        /* \"#utility.yul\":15146:15184   */\n      tag_140\n      jump\t// in\n    tag_427:\n        /* \"#utility.yul\":15231:15298   */\n      tag_428\n        /* \"#utility.yul\":15291:15297   */\n      dup3\n        /* \"#utility.yul\":15283:15289   */\n      dup3\n        /* \"#utility.yul\":15277:15281   */\n      dup6\n        /* \"#utility.yul\":15231:15298   */\n      tag_260\n      jump\t// in\n    tag_428:\n        /* \"#utility.yul\":15325:15326   */\n      0x00\n        /* \"#utility.yul\":15354:15356   */\n      0x1f\n        /* \"#utility.yul\":15346:15352   */\n      dup4\n        /* \"#utility.yul\":15343:15357   */\n      gt\n        /* \"#utility.yul\":15371:15372   */\n      0x01\n        /* \"#utility.yul\":15366:15998   */\n      dup2\n      eq\n      tag_430\n      jumpi\n        /* \"#utility.yul\":16042:16043   */\n      0x00\n        /* \"#utility.yul\":16059:16065   */\n      dup5\n        /* \"#utility.yul\":16056:16140   */\n      iszero\n      tag_431\n      jumpi\n        /* \"#utility.yul\":16115:16124   */\n      dup3\n        /* \"#utility.yul\":16110:16113   */\n      dup8\n        /* \"#utility.yul\":16106:16125   */\n      add\n        /* \"#utility.yul\":16093:16126   */\n      calldataload\n        /* \"#utility.yul\":16084:16126   */\n      swap1\n      pop\n        /* \"#utility.yul\":16056:16140   */\n    tag_431:\n        /* \"#utility.yul\":16166:16233   */\n      tag_432\n        /* \"#utility.yul\":16226:16232   */\n      dup6\n        /* \"#utility.yul\":16219:16224   */\n      dup3\n        /* \"#utility.yul\":16166:16233   */\n      tag_263\n      jump\t// in\n    tag_432:\n        /* \"#utility.yul\":16160:16164   */\n      dup7\n        /* \"#utility.yul\":16153:16234   */\n      sstore\n        /* \"#utility.yul\":16015:16244   */\n      pop\n        /* \"#utility.yul\":15336:16244   */\n      jump(tag_429)\n        /* \"#utility.yul\":15366:15998   */\n    tag_430:\n        /* \"#utility.yul\":15418:15422   */\n      0x1f\n        /* \"#utility.yul\":15414:15423   */\n      not\n        /* \"#utility.yul\":15406:15412   */\n      dup5\n        /* \"#utility.yul\":15402:15424   */\n      and\n        /* \"#utility.yul\":15452:15489   */\n      tag_433\n        /* \"#utility.yul\":15484:15488   */\n      dup7\n        /* \"#utility.yul\":15452:15489   */\n      tag_249\n      jump\t// in\n    tag_433:\n        /* \"#utility.yul\":15511:15512   */\n      0x00\n        /* \"#utility.yul\":15525:15740   */\n    tag_434:\n        /* \"#utility.yul\":15539:15546   */\n      dup3\n        /* \"#utility.yul\":15536:15537   */\n      dup2\n        /* \"#utility.yul\":15533:15547   */\n      lt\n        /* \"#utility.yul\":15525:15740   */\n      iszero\n      tag_436\n      jumpi\n        /* \"#utility.yul\":15625:15634   */\n      dup5\n        /* \"#utility.yul\":15620:15623   */\n      dup10\n        /* \"#utility.yul\":15616:15635   */\n      add\n        /* \"#utility.yul\":15603:15636   */\n      calldataload\n        /* \"#utility.yul\":15595:15601   */\n      dup3\n        /* \"#utility.yul\":15588:15637   */\n      sstore\n        /* \"#utility.yul\":15676:15677   */\n      0x01\n        /* \"#utility.yul\":15668:15674   */\n      dup3\n        /* \"#utility.yul\":15664:15678   */\n      add\n        /* \"#utility.yul\":15654:15678   */\n      swap2\n      pop\n        /* \"#utility.yul\":15723:15725   */\n      0x20\n        /* \"#utility.yul\":15712:15721   */\n      dup6\n        /* \"#utility.yul\":15708:15726   */\n      add\n        /* \"#utility.yul\":15695:15726   */\n      swap5\n      pop\n        /* \"#utility.yul\":15562:15566   */\n      0x20\n        /* \"#utility.yul\":15559:15560   */\n      dup2\n        /* \"#utility.yul\":15555:15567   */\n      add\n        /* \"#utility.yul\":15550:15567   */\n      swap1\n      pop\n        /* \"#utility.yul\":15525:15740   */\n      jump(tag_434)\n    tag_436:\n        /* \"#utility.yul\":15768:15774   */\n      dup7\n        /* \"#utility.yul\":15759:15766   */\n      dup4\n        /* \"#utility.yul\":15756:15775   */\n      lt\n        /* \"#utility.yul\":15753:15939   */\n      iszero\n      tag_437\n      jumpi\n        /* \"#utility.yul\":15833:15842   */\n      dup5\n        /* \"#utility.yul\":15828:15831   */\n      dup10\n        /* \"#utility.yul\":15824:15843   */\n      add\n        /* \"#utility.yul\":15811:15844   */\n      calldataload\n        /* \"#utility.yul\":15876:15924   */\n      tag_438\n        /* \"#utility.yul\":15918:15922   */\n      0x1f\n        /* \"#utility.yul\":15910:15916   */\n      dup10\n        /* \"#utility.yul\":15906:15923   */\n      and\n        /* \"#utility.yul\":15895:15904   */\n      dup3\n        /* \"#utility.yul\":15876:15924   */\n      tag_262\n      jump\t// in\n    tag_438:\n        /* \"#utility.yul\":15868:15874   */\n      dup4\n        /* \"#utility.yul\":15861:15925   */\n      sstore\n        /* \"#utility.yul\":15776:15939   */\n      pop\n        /* \"#utility.yul\":15753:15939   */\n    tag_437:\n        /* \"#utility.yul\":15985:15986   */\n      0x01\n        /* \"#utility.yul\":15981:15982   */\n      0x02\n        /* \"#utility.yul\":15973:15979   */\n      dup9\n        /* \"#utility.yul\":15969:15983   */\n      mul\n        /* \"#utility.yul\":15965:15987   */\n      add\n        /* \"#utility.yul\":15959:15963   */\n      dup9\n        /* \"#utility.yul\":15952:15988   */\n      sstore\n        /* \"#utility.yul\":15373:15998   */\n      pop\n      pop\n      pop\n        /* \"#utility.yul\":15336:16244   */\n    tag_429:\n      pop\n        /* \"#utility.yul\":14946:16250   */\n      pop\n      pop\n      pop\n        /* \"#utility.yul\":14847:16250   */\n      pop\n      pop\n      pop\n      jump\t// out\n\n    auxdata: 0xa264697066735822122024ecdf7640a8993c07fca8233a6c1780be71323d94b8ac5cf7308efe7b98fac964736f6c63430008120033\n}\n",
				"bytecode": {
					"linkReferences": {},
					"object": "608060405260008060146101000a81548160ff0219169083151502179055503480156200002b57600080fd5b506040516200210c3803806200210c83398181016040528101906200005191906200029b565b336000806101000a81548173ffffffffffffffffffffffffffffffffffffffff021916908373ffffffffffffffffffffffffffffffffffffffff1602179055508160019081620000a2919062000542565b50806009819055506001600060146101000a81548160ff021916908315150217905550505062000629565b6000604051905090565b600080fd5b600080fd5b600080fd5b600080fd5b6000601f19601f8301169050919050565b7f4e487b7100000000000000000000000000000000000000000000000000000000600052604160045260246000fd5b6200013682620000eb565b810181811067ffffffffffffffff82111715620001585762000157620000fc565b5b80604052505050565b60006200016d620000cd565b90506200017b82826200012b565b919050565b600067ffffffffffffffff8211156200019e576200019d620000fc565b5b620001a982620000eb565b9050602081019050919050565b60005b83811015620001d6578082015181840152602081019050620001b9565b60008484015250505050565b6000620001f9620001f38462000180565b62000161565b905082815260208101848484011115620002185762000217620000e6565b5b62000225848285620001b6565b509392505050565b600082601f830112620002455762000244620000e1565b5b815162000257848260208601620001e2565b91505092915050565b6000819050919050565b620002758162000260565b81146200028157600080fd5b50565b60008151905062000295816200026a565b92915050565b60008060408385031215620002b557620002b4620000d7565b5b600083015167ffffffffffffffff811115620002d657620002d5620000dc565b5b620002e4858286016200022d565b9250506020620002f78582860162000284565b9150509250929050565b600081519050919050565b7f4e487b7100000000000000000000000000000000000000000000000000000000600052602260045260246000fd5b600060028204905060018216806200035457607f821691505b6020821081036200036a57620003696200030c565b5b50919050565b60008190508160005260206000209050919050565b60006020601f8301049050919050565b600082821b905092915050565b600060088302620003d47fffffffffffffffffffffffffffffffffffffffffffffffffffffffffffffffff8262000395565b620003e0868362000395565b95508019841693508086168417925050509392505050565b6000819050919050565b6000620004236200041d620004178462000260565b620003f8565b62000260565b9050919050565b6000819050919050565b6200043f8362000402565b620004576200044e826200042a565b848454620003a2565b825550505050565b600090565b6200046e6200045f565b6200047b81848462000434565b505050565b5b81811015620004a3576200049760008262000464565b60018101905062000481565b5050565b601f821115620004f257620004bc8162000370565b620004c78462000385565b81016020851015620004d7578190505b620004ef620004e68562000385565b83018262000480565b50505b505050565b600082821c905092915050565b60006200051760001984600802620004f7565b1980831691505092915050565b600062000532838362000504565b9150826002028217905092915050565b6200054d8262000301565b67ffffffffffffffff811115620005695762000568620000fc565b5b6200057582546200033b565b62000582828285620004a7565b600060209050601f831160018114620005ba5760008415620005a5578287015190505b620005b1858262000524565b86555062000621565b601f198416620005ca8662000370565b60005b82811015620005f457848901518255600182019150602085019450602081019050620005cd565b8683101562000614578489015162000610601f89168262000504565b8355505b6001600288020188555050505b505050505050565b611ad380620006396000396000f3fe608060405234801561001057600080fd5b50600436106101735760003560e01c80638da5cb5b116100de578063c1f4f85511610097578063d4f6c1ff11610071578063d4f6c1ff14610432578063d7a1ab3c14610462578063e6e210ba14610480578063f2940a43146104b057610173565b8063c1f4f855146103b6578063c28388fa146103e6578063cae5f9501461040257610173565b80638da5cb5b146102e45780639155e45b146103025780639f285f061461031e5780639f79e2801461034e578063a022be051461037e578063bed2aefe1461039a57610173565b806327757d401161013057806327757d40146102385780632b6952e6146102685780633fad4a37146102985780635789726a146102a257806376efa463146102be57806378fb654a146102c857610173565b80630373e4051461017857806304a3f3931461019457806306079551146101b057806306fdde03146101e05780630b940f6a146101fe578063244ded7a1461021c575b600080fd5b610192600480360381019061018d919061123b565b6104ce565b005b6101ae60048036038101906101a9919061129e565b61061a565b005b6101ca60048036038101906101c5919061129e565b6106b2565b6040516101d791906112da565b60405180910390f35b6101e86106ca565b6040516101f59190611385565b60405180910390f35b610206610758565b6040516102139190611385565b60405180910390f35b6102366004803603810190610231919061123b565b6107e6565b005b610252600480360381019061024d919061129e565b6108b7565b60405161025f91906113b6565b60405180910390f35b610282600480360381019061027d919061129e565b6108f6565b60405161028f91906113b6565b60405180910390f35b6102a0610935565b005b6102bc60048036038101906102b79190611436565b610a22565b005b6102c6610ac6565b005b6102e260048036038101906102dd91906114bb565b610bb3565b005b6102ec610c5e565b6040516102f991906113b6565b60405180910390f35b61031c6004803603810190610317919061153e565b610c82565b005b6103386004803603810190610333919061123b565b610d26565b604051610345919061159a565b60405180910390f35b6103686004803603810190610363919061129e565b610d46565b60405161037591906112da565b60405180910390f35b61039860048036038101906103939190611436565b610d5e565b005b6103b460048036038101906103af919061123b565b610e02565b005b6103d060048036038101906103cb919061129e565b610f4e565b6040516103dd91906113b6565b60405180910390f35b61040060048036038101906103fb9190611436565b610f8d565b005b61041c6004803603810190610417919061123b565b611031565b604051610429919061159a565b60405180910390f35b61044c6004803603810190610447919061123b565b611087565b604051610459919061159a565b60405180910390f35b61046a6110dd565b60405161047791906112da565b60405180910390f35b61049a6004803603810190610495919061123b565b6110e3565b6040516104a7919061159a565b60405180910390f35b6104b8611103565b6040516104c5919061159a565b60405180910390f35b60008190508073ffffffffffffffffffffffffffffffffffffffff1663cae5f950306040518263ffffffff1660e01b815260040161050c91906113b6565b602060405180830381865afa158015610529573d6000803e3d6000fd5b505050506040513d601f19601f8201168201806040525081019061054d91906115ca565b15610616576007829080600181540180825580915050600190039060005260206000200160009091909190916101000a81548173ffffffffffffffffffffffffffffffffffffffff021916908373ffffffffffffffffffffffffffffffffffffffff1602179055508073ffffffffffffffffffffffffffffffffffffffff166376efa4636040518163ffffffff1660e01b8152600401600060405180830381600087803b1580156105fd57600080fd5b505af1158015610611573d6000803e3d6000fd5b505050505b5050565b60008054906101000a900473ffffffffffffffffffffffffffffffffffffffff1673ffffffffffffffffffffffffffffffffffffffff163373ffffffffffffffffffffffffffffffffffffffff16146106a8576040517f08c379a000000000000000000000000000000000000000000000000000000000815260040161069f90611643565b60405180910390fd5b8060098190555050565b60056020528060005260406000206000915090505481565b600180546106d790611692565b80601f016020809104026020016040519081016040528092919081815260200182805461070390611692565b80156107505780601f1061072557610100808354040283529160200191610750565b820191906000526020600020905b81548152906001019060200180831161073357829003601f168201915b505050505081565b600a805461076590611692565b80601f016020809104026020016040519081016040528092919081815260200182805461079190611692565b80156107de5780601f106107b3576101008083540402835291602001916107de565b820191906000526020600020905b8154815290600101906020018083116107c157829003601f168201915b505050505081565b60008054906101000a900473ffffffffffffffffffffffffffffffffffffffff1673ffffffffffffffffffffffffffffffffffffffff163373ffffffffffffffffffffffffffffffffffffffff1614610874576040517f08c379a000000000000000000000000000000000000000000000000000000000815260040161086b90611643565b60405180910390fd5b806000806101000a81548173ffffffffffffffffffffffffffffffffffffffff021916908373ffffffffffffffffffffffffffffffffffffffff16021790555050565b600681815481106108c757600080fd5b906000526020600020016000915054906101000a900473ffffffffffffffffffffffffffffffffffffffff1681565b6008818154811061090657600080fd5b906000526020600020016000915054906101000a900473ffffffffffffffffffffffffffffffffffffffff1681565b60011515600260003373ffffffffffffffffffffffffffffffffffffffff1673ffffffffffffffffffffffffffffffffffffffff16815260200190815260200160002060009054906101000a900460ff161515146109c8576040517f08c379a00000000000000000000000000000000000000000000000000000000081526004016109bf90611735565b60405180910390fd5b6000600260003373ffffffffffffffffffffffffffffffffffffffff1673ffffffffffffffffffffffffffffffffffffffff16815260200190815260200160002060006101000a81548160ff021916908315150217905550565b60008054906101000a900473ffffffffffffffffffffffffffffffffffffffff1673ffffffffffffffffffffffffffffffffffffffff163373ffffffffffffffffffffffffffffffffffffffff1614610ab0576040517f08c379a0000000000000000000000000000000000000000000000000000000008152600401610aa790611643565b60405180910390fd5b818160069190610ac1929190611116565b505050565b60011515600360003373ffffffffffffffffffffffffffffffffffffffff1673ffffffffffffffffffffffffffffffffffffffff16815260200190815260200160002060009054906101000a900460ff16151514610b59576040517f08c379a0000000000000000000000000000000000000000000000000000000008152600401610b50906117c7565b60405180910390fd5b6000600360003373ffffffffffffffffffffffffffffffffffffffff1673ffffffffffffffffffffffffffffffffffffffff16815260200190815260200160002060006101000a81548160ff021916908315150217905550565b60008054906101000a900473ffffffffffffffffffffffffffffffffffffffff1673ffffffffffffffffffffffffffffffffffffffff163373ffffffffffffffffffffffffffffffffffffffff1614610c41576040517f08c379a0000000000000000000000000000000000000000000000000000000008152600401610c3890611643565b60405180910390fd5b80600060146101000a81548160ff02191690831515021790555050565b60008054906101000a900473ffffffffffffffffffffffffffffffffffffffff1681565b60008054906101000a900473ffffffffffffffffffffffffffffffffffffffff1673ffffffffffffffffffffffffffffffffffffffff163373ffffffffffffffffffffffffffffffffffffffff1614610d10576040517f08c379a0000000000000000000000000000000000000000000000000000000008152600401610d0790611643565b60405180910390fd5b818160019182610d219291906119cd565b505050565b60036020528060005260406000206000915054906101000a900460ff1681565b60046020528060005260406000206000915090505481565b60008054906101000a900473ffffffffffffffffffffffffffffffffffffffff1673ffffffffffffffffffffffffffffffffffffffff163373ffffffffffffffffffffffffffffffffffffffff1614610dec576040517f08c379a0000000000000000000000000000000000000000000000000000000008152600401610de390611643565b60405180910390fd5b818160069190610dfd929190611116565b505050565b60008190508073ffffffffffffffffffffffffffffffffffffffff1663cae5f950306040518263ffffffff1660e01b8152600401610e4091906113b6565b602060405180830381865afa158015610e5d573d6000803e3d6000fd5b505050506040513d601f19601f82011682018060405250810190610e8191906115ca565b15610f4a576006829080600181540180825580915050600190039060005260206000200160009091909190916101000a81548173ffffffffffffffffffffffffffffffffffffffff021916908373ffffffffffffffffffffffffffffffffffffffff1602179055508073ffffffffffffffffffffffffffffffffffffffff166376efa4636040518163ffffffff1660e01b8152600401600060405180830381600087803b158015610f3157600080fd5b505af1158015610f45573d6000803e3d6000fd5b505050505b5050565b60078181548110610f5e57600080fd5b906000526020600020016000915054906101000a900473ffffffffffffffffffffffffffffffffffffffff1681565b60008054906101000a900473ffffffffffffffffffffffffffffffffffffffff1673ffffffffffffffffffffffffffffffffffffffff163373ffffffffffffffffffffffffffffffffffffffff161461101b576040517f08c379a000000000000000000000000000000000000000000000000000000000815260040161101290611643565b60405180910390fd5b81816006919061102c929190611116565b505050565b6000600260008373ffffffffffffffffffffffffffffffffffffffff1673ffffffffffffffffffffffffffffffffffffffff16815260200190815260200160002060009054906101000a900460ff169050919050565b6000600260008373ffffffffffffffffffffffffffffffffffffffff1673ffffffffffffffffffffffffffffffffffffffff16815260200190815260200160002060009054906101000a900460ff169050919050565b60095481565b60026020528060005260406000206000915054906101000a900460ff1681565b600060149054906101000a900460ff1681565b8280548282559060005260206000209081019282156111a5579160200282015b828111156111a457823573ffffffffffffffffffffffffffffffffffffffff168260006101000a81548173ffffffffffffffffffffffffffffffffffffffff021916908373ffffffffffffffffffffffffffffffffffffffff16021790555091602001919060010190611136565b5b5090506111b291906111b6565b5090565b5b808211156111cf5760008160009055506001016111b7565b5090565b600080fd5b600080fd5b600073ffffffffffffffffffffffffffffffffffffffff82169050919050565b6000611208826111dd565b9050919050565b611218816111fd565b811461122357600080fd5b50565b6000813590506112358161120f565b92915050565b600060208284031215611251576112506111d3565b5b600061125f84828501611226565b91505092915050565b6000819050919050565b61127b81611268565b811461128657600080fd5b50565b60008135905061129881611272565b92915050565b6000602082840312156112b4576112b36111d3565b5b60006112c284828501611289565b91505092915050565b6112d481611268565b82525050565b60006020820190506112ef60008301846112cb565b92915050565b600081519050919050565b600082825260208201905092915050565b60005b8381101561132f578082015181840152602081019050611314565b60008484015250505050565b6000601f19601f8301169050919050565b6000611357826112f5565b6113618185611300565b9350611371818560208601611311565b61137a8161133b565b840191505092915050565b6000602082019050818103600083015261139f818461134c565b905092915050565b6113b0816111fd565b82525050565b60006020820190506113cb60008301846113a7565b92915050565b600080fd5b600080fd5b600080fd5b60008083601f8401126113f6576113f56113d1565b5b8235905067ffffffffffffffff811115611413576114126113d6565b5b60208301915083602082028301111561142f5761142e6113db565b5b9250929050565b6000806020838503121561144d5761144c6111d3565b5b600083013567ffffffffffffffff81111561146b5761146a6111d8565b5b611477858286016113e0565b92509250509250929050565b60008115159050919050565b61149881611483565b81146114a357600080fd5b50565b6000813590506114b58161148f565b92915050565b6000602082840312156114d1576114d06111d3565b5b60006114df848285016114a6565b91505092915050565b60008083601f8401126114fe576114fd6113d1565b5b8235905067ffffffffffffffff81111561151b5761151a6113d6565b5b602083019150836001820283011115611537576115366113db565b5b9250929050565b60008060208385031215611555576115546111d3565b5b600083013567ffffffffffffffff811115611573576115726111d8565b5b61157f858286016114e8565b92509250509250929050565b61159481611483565b82525050565b60006020820190506115af600083018461158b565b92915050565b6000815190506115c48161148f565b92915050565b6000602082840312156115e0576115df6111d3565b5b60006115ee848285016115b5565b91505092915050565b7f63616c6c6572206d757374206265206f776e6572000000000000000000000000600082015250565b600061162d601483611300565b9150611638826115f7565b602082019050919050565b6000602082019050818103600083015261165c81611620565b9050919050565b7f4e487b7100000000000000000000000000000000000000000000000000000000600052602260045260246000fd5b600060028204905060018216806116aa57607f821691505b6020821081036116bd576116bc611663565b5b50919050565b7f526571756573746f72206973206e6f7420612063616e64696461746520666f7260008201527f20737563636573736f72736869702e0000000000000000000000000000000000602082015250565b600061171f602f83611300565b915061172a826116c3565b604082019050919050565b6000602082019050818103600083015261174e81611712565b9050919050565b7f526571756573746f72206973206e6f7420612063616e64696461746520666f7260008201527f207072656465636573736f72736869702e000000000000000000000000000000602082015250565b60006117b1603183611300565b91506117bc82611755565b604082019050919050565b600060208201905081810360008301526117e0816117a4565b9050919050565b600082905092915050565b7f4e487b7100000000000000000000000000000000000000000000000000000000600052604160045260246000fd5b60008190508160005260206000209050919050565b60006020601f8301049050919050565b600082821b905092915050565b6000600883026118837fffffffffffffffffffffffffffffffffffffffffffffffffffffffffffffffff82611846565b61188d8683611846565b95508019841693508086168417925050509392505050565b6000819050919050565b60006118ca6118c56118c084611268565b6118a5565b611268565b9050919050565b6000819050919050565b6118e4836118af565b6118f86118f0826118d1565b848454611853565b825550505050565b600090565b61190d611900565b6119188184846118db565b505050565b5b8181101561193c57611931600082611905565b60018101905061191e565b5050565b601f8211156119815761195281611821565b61195b84611836565b8101602085101561196a578190505b61197e61197685611836565b83018261191d565b50505b505050565b600082821c905092915050565b60006119a460001984600802611986565b1980831691505092915050565b60006119bd8383611993565b9150826002028217905092915050565b6119d783836117e7565b67ffffffffffffffff8111156119f0576119ef6117f2565b5b6119fa8254611692565b611a05828285611940565b6000601f831160018114611a345760008415611a22578287013590505b611a2c85826119b1565b865550611a94565b601f198416611a4286611821565b60005b82811015611a6a57848901358255600182019150602085019450602081019050611a45565b86831015611a875784890135611a83601f891682611993565b8355505b6001600288020188555050505b5050505050505056fea264697066735822122024ecdf7640a8993c07fca8233a6c1780be71323d94b8ac5cf7308efe7b98fac964736f6c63430008120033",
					"opcodes": "PUSH1 0x80 PUSH1 0x40 MSTORE PUSH1 0x0 DUP1 PUSH1 0x14 PUSH2 0x100 EXP DUP2 SLOAD DUP2 PUSH1 0xFF MUL NOT AND SWAP1 DUP4 ISZERO ISZERO MUL OR SWAP1 SSTORE POP CALLVALUE DUP1 ISZERO PUSH3 0x2B JUMPI PUSH1 0x0 DUP1 REVERT JUMPDEST POP PUSH1 0x40 MLOAD PUSH3 0x210C CODESIZE SUB DUP1 PUSH3 0x210C DUP4 CODECOPY DUP2 DUP2 ADD PUSH1 0x40 MSTORE DUP2 ADD SWAP1 PUSH3 0x51 SWAP2 SWAP1 PUSH3 0x29B JUMP JUMPDEST CALLER PUSH1 0x0 DUP1 PUSH2 0x100 EXP DUP2 SLOAD DUP2 PUSH20 0xFFFFFFFFFFFFFFFFFFFFFFFFFFFFFFFFFFFFFFFF MUL NOT AND SWAP1 DUP4 PUSH20 0xFFFFFFFFFFFFFFFFFFFFFFFFFFFFFFFFFFFFFFFF AND MUL OR SWAP1 SSTORE POP DUP2 PUSH1 0x1 SWAP1 DUP2 PUSH3 0xA2 SWAP2 SWAP1 PUSH3 0x542 JUMP JUMPDEST POP DUP1 PUSH1 0x9 DUP2 SWAP1 SSTORE POP PUSH1 0x1 PUSH1 0x0 PUSH1 0x14 PUSH2 0x100 EXP DUP2 SLOAD DUP2 PUSH1 0xFF MUL NOT AND SWAP1 DUP4 ISZERO ISZERO MUL OR SWAP1 SSTORE POP POP POP PUSH3 0x629 JUMP JUMPDEST PUSH1 0x0 PUSH1 0x40 MLOAD SWAP1 POP SWAP1 JUMP JUMPDEST PUSH1 0x0 DUP1 REVERT JUMPDEST PUSH1 0x0 DUP1 REVERT JUMPDEST PUSH1 0x0 DUP1 REVERT JUMPDEST PUSH1 0x0 DUP1 REVERT JUMPDEST PUSH1 0x0 PUSH1 0x1F NOT PUSH1 0x1F DUP4 ADD AND SWAP1 POP SWAP2 SWAP1 POP JUMP JUMPDEST PUSH32 0x4E487B7100000000000000000000000000000000000000000000000000000000 PUSH1 0x0 MSTORE PUSH1 0x41 PUSH1 0x4 MSTORE PUSH1 0x24 PUSH1 0x0 REVERT JUMPDEST PUSH3 0x136 DUP3 PUSH3 0xEB JUMP JUMPDEST DUP2 ADD DUP2 DUP2 LT PUSH8 0xFFFFFFFFFFFFFFFF DUP3 GT OR ISZERO PUSH3 0x158 JUMPI PUSH3 0x157 PUSH3 0xFC JUMP JUMPDEST JUMPDEST DUP1 PUSH1 0x40 MSTORE POP POP POP JUMP JUMPDEST PUSH1 0x0 PUSH3 0x16D PUSH3 0xCD JUMP JUMPDEST SWAP1 POP PUSH3 0x17B DUP3 DUP3 PUSH3 0x12B JUMP JUMPDEST SWAP2 SWAP1 POP JUMP JUMPDEST PUSH1 0x0 PUSH8 0xFFFFFFFFFFFFFFFF DUP3 GT ISZERO PUSH3 0x19E JUMPI PUSH3 0x19D PUSH3 0xFC JUMP JUMPDEST JUMPDEST PUSH3 0x1A9 DUP3 PUSH3 0xEB JUMP JUMPDEST SWAP1 POP PUSH1 0x20 DUP2 ADD SWAP1 POP SWAP2 SWAP1 POP JUMP JUMPDEST PUSH1 0x0 JUMPDEST DUP4 DUP2 LT ISZERO PUSH3 0x1D6 JUMPI DUP1 DUP3 ADD MLOAD DUP2 DUP5 ADD MSTORE PUSH1 0x20 DUP2 ADD SWAP1 POP PUSH3 0x1B9 JUMP JUMPDEST PUSH1 0x0 DUP5 DUP5 ADD MSTORE POP POP POP POP JUMP JUMPDEST PUSH1 0x0 PUSH3 0x1F9 PUSH3 0x1F3 DUP5 PUSH3 0x180 JUMP JUMPDEST PUSH3 0x161 JUMP JUMPDEST SWAP1 POP DUP3 DUP2 MSTORE PUSH1 0x20 DUP2 ADD DUP5 DUP5 DUP5 ADD GT ISZERO PUSH3 0x218 JUMPI PUSH3 0x217 PUSH3 0xE6 JUMP JUMPDEST JUMPDEST PUSH3 0x225 DUP5 DUP3 DUP6 PUSH3 0x1B6 JUMP JUMPDEST POP SWAP4 SWAP3 POP POP POP JUMP JUMPDEST PUSH1 0x0 DUP3 PUSH1 0x1F DUP4 ADD SLT PUSH3 0x245 JUMPI PUSH3 0x244 PUSH3 0xE1 JUMP JUMPDEST JUMPDEST DUP2 MLOAD PUSH3 0x257 DUP5 DUP3 PUSH1 0x20 DUP7 ADD PUSH3 0x1E2 JUMP JUMPDEST SWAP2 POP POP SWAP3 SWAP2 POP POP JUMP JUMPDEST PUSH1 0x0 DUP2 SWAP1 POP SWAP2 SWAP1 POP JUMP JUMPDEST PUSH3 0x275 DUP2 PUSH3 0x260 JUMP JUMPDEST DUP2 EQ PUSH3 0x281 JUMPI PUSH1 0x0 DUP1 REVERT JUMPDEST POP JUMP JUMPDEST PUSH1 0x0 DUP2 MLOAD SWAP1 POP PUSH3 0x295 DUP2 PUSH3 0x26A JUMP JUMPDEST SWAP3 SWAP2 POP POP JUMP JUMPDEST PUSH1 0x0 DUP1 PUSH1 0x40 DUP4 DUP6 SUB SLT ISZERO PUSH3 0x2B5 JUMPI PUSH3 0x2B4 PUSH3 0xD7 JUMP JUMPDEST JUMPDEST PUSH1 0x0 DUP4 ADD MLOAD PUSH8 0xFFFFFFFFFFFFFFFF DUP2 GT ISZERO PUSH3 0x2D6 JUMPI PUSH3 0x2D5 PUSH3 0xDC JUMP JUMPDEST JUMPDEST PUSH3 0x2E4 DUP6 DUP3 DUP7 ADD PUSH3 0x22D JUMP JUMPDEST SWAP3 POP POP PUSH1 0x20 PUSH3 0x2F7 DUP6 DUP3 DUP7 ADD PUSH3 0x284 JUMP JUMPDEST SWAP2 POP POP SWAP3 POP SWAP3 SWAP1 POP JUMP JUMPDEST PUSH1 0x0 DUP2 MLOAD SWAP1 POP SWAP2 SWAP1 POP JUMP JUMPDEST PUSH32 0x4E487B7100000000000000000000000000000000000000000000000000000000 PUSH1 0x0 MSTORE PUSH1 0x22 PUSH1 0x4 MSTORE PUSH1 0x24 PUSH1 0x0 REVERT JUMPDEST PUSH1 0x0 PUSH1 0x2 DUP3 DIV SWAP1 POP PUSH1 0x1 DUP3 AND DUP1 PUSH3 0x354 JUMPI PUSH1 0x7F DUP3 AND SWAP2 POP JUMPDEST PUSH1 0x20 DUP3 LT DUP2 SUB PUSH3 0x36A JUMPI PUSH3 0x369 PUSH3 0x30C JUMP JUMPDEST JUMPDEST POP SWAP2 SWAP1 POP JUMP JUMPDEST PUSH1 0x0 DUP2 SWAP1 POP DUP2 PUSH1 0x0 MSTORE PUSH1 0x20 PUSH1 0x0 KECCAK256 SWAP1 POP SWAP2 SWAP1 POP JUMP JUMPDEST PUSH1 0x0 PUSH1 0x20 PUSH1 0x1F DUP4 ADD DIV SWAP1 POP SWAP2 SWAP1 POP JUMP JUMPDEST PUSH1 0x0 DUP3 DUP3 SHL SWAP1 POP SWAP3 SWAP2 POP POP JUMP JUMPDEST PUSH1 0x0 PUSH1 0x8 DUP4 MUL PUSH3 0x3D4 PUSH32 0xFFFFFFFFFFFFFFFFFFFFFFFFFFFFFFFFFFFFFFFFFFFFFFFFFFFFFFFFFFFFFFFF DUP3 PUSH3 0x395 JUMP JUMPDEST PUSH3 0x3E0 DUP7 DUP4 PUSH3 0x395 JUMP JUMPDEST SWAP6 POP DUP1 NOT DUP5 AND SWAP4 POP DUP1 DUP7 AND DUP5 OR SWAP3 POP POP POP SWAP4 SWAP3 POP POP POP JUMP JUMPDEST PUSH1 0x0 DUP2 SWAP1 POP SWAP2 SWAP1 POP JUMP JUMPDEST PUSH1 0x0 PUSH3 0x423 PUSH3 0x41D PUSH3 0x417 DUP5 PUSH3 0x260 JUMP JUMPDEST PUSH3 0x3F8 JUMP JUMPDEST PUSH3 0x260 JUMP JUMPDEST SWAP1 POP SWAP2 SWAP1 POP JUMP JUMPDEST PUSH1 0x0 DUP2 SWAP1 POP SWAP2 SWAP1 POP JUMP JUMPDEST PUSH3 0x43F DUP4 PUSH3 0x402 JUMP JUMPDEST PUSH3 0x457 PUSH3 0x44E DUP3 PUSH3 0x42A JUMP JUMPDEST DUP5 DUP5 SLOAD PUSH3 0x3A2 JUMP JUMPDEST DUP3 SSTORE POP POP POP POP JUMP JUMPDEST PUSH1 0x0 SWAP1 JUMP JUMPDEST PUSH3 0x46E PUSH3 0x45F JUMP JUMPDEST PUSH3 0x47B DUP2 DUP5 DUP5 PUSH3 0x434 JUMP JUMPDEST POP POP POP JUMP JUMPDEST JUMPDEST DUP2 DUP2 LT ISZERO PUSH3 0x4A3 JUMPI PUSH3 0x497 PUSH1 0x0 DUP3 PUSH3 0x464 JUMP JUMPDEST PUSH1 0x1 DUP2 ADD SWAP1 POP PUSH3 0x481 JUMP JUMPDEST POP POP JUMP JUMPDEST PUSH1 0x1F DUP3 GT ISZERO PUSH3 0x4F2 JUMPI PUSH3 0x4BC DUP2 PUSH3 0x370 JUMP JUMPDEST PUSH3 0x4C7 DUP5 PUSH3 0x385 JUMP JUMPDEST DUP2 ADD PUSH1 0x20 DUP6 LT ISZERO PUSH3 0x4D7 JUMPI DUP2 SWAP1 POP JUMPDEST PUSH3 0x4EF PUSH3 0x4E6 DUP6 PUSH3 0x385 JUMP JUMPDEST DUP4 ADD DUP3 PUSH3 0x480 JUMP JUMPDEST POP POP JUMPDEST POP POP POP JUMP JUMPDEST PUSH1 0x0 DUP3 DUP3 SHR SWAP1 POP SWAP3 SWAP2 POP POP JUMP JUMPDEST PUSH1 0x0 PUSH3 0x517 PUSH1 0x0 NOT DUP5 PUSH1 0x8 MUL PUSH3 0x4F7 JUMP JUMPDEST NOT DUP1 DUP4 AND SWAP2 POP POP SWAP3 SWAP2 POP POP JUMP JUMPDEST PUSH1 0x0 PUSH3 0x532 DUP4 DUP4 PUSH3 0x504 JUMP JUMPDEST SWAP2 POP DUP3 PUSH1 0x2 MUL DUP3 OR SWAP1 POP SWAP3 SWAP2 POP POP JUMP JUMPDEST PUSH3 0x54D DUP3 PUSH3 0x301 JUMP JUMPDEST PUSH8 0xFFFFFFFFFFFFFFFF DUP2 GT ISZERO PUSH3 0x569 JUMPI PUSH3 0x568 PUSH3 0xFC JUMP JUMPDEST JUMPDEST PUSH3 0x575 DUP3 SLOAD PUSH3 0x33B JUMP JUMPDEST PUSH3 0x582 DUP3 DUP3 DUP6 PUSH3 0x4A7 JUMP JUMPDEST PUSH1 0x0 PUSH1 0x20 SWAP1 POP PUSH1 0x1F DUP4 GT PUSH1 0x1 DUP2 EQ PUSH3 0x5BA JUMPI PUSH1 0x0 DUP5 ISZERO PUSH3 0x5A5 JUMPI DUP3 DUP8 ADD MLOAD SWAP1 POP JUMPDEST PUSH3 0x5B1 DUP6 DUP3 PUSH3 0x524 JUMP JUMPDEST DUP7 SSTORE POP PUSH3 0x621 JUMP JUMPDEST PUSH1 0x1F NOT DUP5 AND PUSH3 0x5CA DUP7 PUSH3 0x370 JUMP JUMPDEST PUSH1 0x0 JUMPDEST DUP3 DUP2 LT ISZERO PUSH3 0x5F4 JUMPI DUP5 DUP10 ADD MLOAD DUP3 SSTORE PUSH1 0x1 DUP3 ADD SWAP2 POP PUSH1 0x20 DUP6 ADD SWAP5 POP PUSH1 0x20 DUP2 ADD SWAP1 POP PUSH3 0x5CD JUMP JUMPDEST DUP7 DUP4 LT ISZERO PUSH3 0x614 JUMPI DUP5 DUP10 ADD MLOAD PUSH3 0x610 PUSH1 0x1F DUP10 AND DUP3 PUSH3 0x504 JUMP JUMPDEST DUP4 SSTORE POP JUMPDEST PUSH1 0x1 PUSH1 0x2 DUP9 MUL ADD DUP9 SSTORE POP POP POP JUMPDEST POP POP POP POP POP POP JUMP JUMPDEST PUSH2 0x1AD3 DUP1 PUSH3 0x639 PUSH1 0x0 CODECOPY PUSH1 0x0 RETURN INVALID PUSH1 0x80 PUSH1 0x40 MSTORE CALLVALUE DUP1 ISZERO PUSH2 0x10 JUMPI PUSH1 0x0 DUP1 REVERT JUMPDEST POP PUSH1 0x4 CALLDATASIZE LT PUSH2 0x173 JUMPI PUSH1 0x0 CALLDATALOAD PUSH1 0xE0 SHR DUP1 PUSH4 0x8DA5CB5B GT PUSH2 0xDE JUMPI DUP1 PUSH4 0xC1F4F855 GT PUSH2 0x97 JUMPI DUP1 PUSH4 0xD4F6C1FF GT PUSH2 0x71 JUMPI DUP1 PUSH4 0xD4F6C1FF EQ PUSH2 0x432 JUMPI DUP1 PUSH4 0xD7A1AB3C EQ PUSH2 0x462 JUMPI DUP1 PUSH4 0xE6E210BA EQ PUSH2 0x480 JUMPI DUP1 PUSH4 0xF2940A43 EQ PUSH2 0x4B0 JUMPI PUSH2 0x173 JUMP JUMPDEST DUP1 PUSH4 0xC1F4F855 EQ PUSH2 0x3B6 JUMPI DUP1 PUSH4 0xC28388FA EQ PUSH2 0x3E6 JUMPI DUP1 PUSH4 0xCAE5F950 EQ PUSH2 0x402 JUMPI PUSH2 0x173 JUMP JUMPDEST DUP1 PUSH4 0x8DA5CB5B EQ PUSH2 0x2E4 JUMPI DUP1 PUSH4 0x9155E45B EQ PUSH2 0x302 JUMPI DUP1 PUSH4 0x9F285F06 EQ PUSH2 0x31E JUMPI DUP1 PUSH4 0x9F79E280 EQ PUSH2 0x34E JUMPI DUP1 PUSH4 0xA022BE05 EQ PUSH2 0x37E JUMPI DUP1 PUSH4 0xBED2AEFE EQ PUSH2 0x39A JUMPI PUSH2 0x173 JUMP JUMPDEST DUP1 PUSH4 0x27757D40 GT PUSH2 0x130 JUMPI DUP1 PUSH4 0x27757D40 EQ PUSH2 0x238 JUMPI DUP1 PUSH4 0x2B6952E6 EQ PUSH2 0x268 JUMPI DUP1 PUSH4 0x3FAD4A37 EQ PUSH2 0x298 JUMPI DUP1 PUSH4 0x5789726A EQ PUSH2 0x2A2 JUMPI DUP1 PUSH4 0x76EFA463 EQ PUSH2 0x2BE JUMPI DUP1 PUSH4 0x78FB654A EQ PUSH2 0x2C8 JUMPI PUSH2 0x173 JUMP JUMPDEST DUP1 PUSH4 0x373E405 EQ PUSH2 0x178 JUMPI DUP1 PUSH4 0x4A3F393 EQ PUSH2 0x194 JUMPI DUP1 PUSH4 0x6079551 EQ PUSH2 0x1B0 JUMPI DUP1 PUSH4 0x6FDDE03 EQ PUSH2 0x1E0 JUMPI DUP1 PUSH4 0xB940F6A EQ PUSH2 0x1FE JUMPI DUP1 PUSH4 0x244DED7A EQ PUSH2 0x21C JUMPI JUMPDEST PUSH1 0x0 DUP1 REVERT JUMPDEST PUSH2 0x192 PUSH1 0x4 DUP1 CALLDATASIZE SUB DUP2 ADD SWAP1 PUSH2 0x18D SWAP2 SWAP1 PUSH2 0x123B JUMP JUMPDEST PUSH2 0x4CE JUMP JUMPDEST STOP JUMPDEST PUSH2 0x1AE PUSH1 0x4 DUP1 CALLDATASIZE SUB DUP2 ADD SWAP1 PUSH2 0x1A9 SWAP2 SWAP1 PUSH2 0x129E JUMP JUMPDEST PUSH2 0x61A JUMP JUMPDEST STOP JUMPDEST PUSH2 0x1CA PUSH1 0x4 DUP1 CALLDATASIZE SUB DUP2 ADD SWAP1 PUSH2 0x1C5 SWAP2 SWAP1 PUSH2 0x129E JUMP JUMPDEST PUSH2 0x6B2 JUMP JUMPDEST PUSH1 0x40 MLOAD PUSH2 0x1D7 SWAP2 SWAP1 PUSH2 0x12DA JUMP JUMPDEST PUSH1 0x40 MLOAD DUP1 SWAP2 SUB SWAP1 RETURN JUMPDEST PUSH2 0x1E8 PUSH2 0x6CA JUMP JUMPDEST PUSH1 0x40 MLOAD PUSH2 0x1F5 SWAP2 SWAP1 PUSH2 0x1385 JUMP JUMPDEST PUSH1 0x40 MLOAD DUP1 SWAP2 SUB SWAP1 RETURN JUMPDEST PUSH2 0x206 PUSH2 0x758 JUMP JUMPDEST PUSH1 0x40 MLOAD PUSH2 0x213 SWAP2 SWAP1 PUSH2 0x1385 JUMP JUMPDEST PUSH1 0x40 MLOAD DUP1 SWAP2 SUB SWAP1 RETURN JUMPDEST PUSH2 0x236 PUSH1 0x4 DUP1 CALLDATASIZE SUB DUP2 ADD SWAP1 PUSH2 0x231 SWAP2 SWAP1 PUSH2 0x123B JUMP JUMPDEST PUSH2 0x7E6 JUMP JUMPDEST STOP JUMPDEST PUSH2 0x252 PUSH1 0x4 DUP1 CALLDATASIZE SUB DUP2 ADD SWAP1 PUSH2 0x24D SWAP2 SWAP1 PUSH2 0x129E JUMP JUMPDEST PUSH2 0x8B7 JUMP JUMPDEST PUSH1 0x40 MLOAD PUSH2 0x25F SWAP2 SWAP1 PUSH2 0x13B6 JUMP JUMPDEST PUSH1 0x40 MLOAD DUP1 SWAP2 SUB SWAP1 RETURN JUMPDEST PUSH2 0x282 PUSH1 0x4 DUP1 CALLDATASIZE SUB DUP2 ADD SWAP1 PUSH2 0x27D SWAP2 SWAP1 PUSH2 0x129E JUMP JUMPDEST PUSH2 0x8F6 JUMP JUMPDEST PUSH1 0x40 MLOAD PUSH2 0x28F SWAP2 SWAP1 PUSH2 0x13B6 JUMP JUMPDEST PUSH1 0x40 MLOAD DUP1 SWAP2 SUB SWAP1 RETURN JUMPDEST PUSH2 0x2A0 PUSH2 0x935 JUMP JUMPDEST STOP JUMPDEST PUSH2 0x2BC PUSH1 0x4 DUP1 CALLDATASIZE SUB DUP2 ADD SWAP1 PUSH2 0x2B7 SWAP2 SWAP1 PUSH2 0x1436 JUMP JUMPDEST PUSH2 0xA22 JUMP JUMPDEST STOP JUMPDEST PUSH2 0x2C6 PUSH2 0xAC6 JUMP JUMPDEST STOP JUMPDEST PUSH2 0x2E2 PUSH1 0x4 DUP1 CALLDATASIZE SUB DUP2 ADD SWAP1 PUSH2 0x2DD SWAP2 SWAP1 PUSH2 0x14BB JUMP JUMPDEST PUSH2 0xBB3 JUMP JUMPDEST STOP JUMPDEST PUSH2 0x2EC PUSH2 0xC5E JUMP JUMPDEST PUSH1 0x40 MLOAD PUSH2 0x2F9 SWAP2 SWAP1 PUSH2 0x13B6 JUMP JUMPDEST PUSH1 0x40 MLOAD DUP1 SWAP2 SUB SWAP1 RETURN JUMPDEST PUSH2 0x31C PUSH1 0x4 DUP1 CALLDATASIZE SUB DUP2 ADD SWAP1 PUSH2 0x317 SWAP2 SWAP1 PUSH2 0x153E JUMP JUMPDEST PUSH2 0xC82 JUMP JUMPDEST STOP JUMPDEST PUSH2 0x338 PUSH1 0x4 DUP1 CALLDATASIZE SUB DUP2 ADD SWAP1 PUSH2 0x333 SWAP2 SWAP1 PUSH2 0x123B JUMP JUMPDEST PUSH2 0xD26 JUMP JUMPDEST PUSH1 0x40 MLOAD PUSH2 0x345 SWAP2 SWAP1 PUSH2 0x159A JUMP JUMPDEST PUSH1 0x40 MLOAD DUP1 SWAP2 SUB SWAP1 RETURN JUMPDEST PUSH2 0x368 PUSH1 0x4 DUP1 CALLDATASIZE SUB DUP2 ADD SWAP1 PUSH2 0x363 SWAP2 SWAP1 PUSH2 0x129E JUMP JUMPDEST PUSH2 0xD46 JUMP JUMPDEST PUSH1 0x40 MLOAD PUSH2 0x375 SWAP2 SWAP1 PUSH2 0x12DA JUMP JUMPDEST PUSH1 0x40 MLOAD DUP1 SWAP2 SUB SWAP1 RETURN JUMPDEST PUSH2 0x398 PUSH1 0x4 DUP1 CALLDATASIZE SUB DUP2 ADD SWAP1 PUSH2 0x393 SWAP2 SWAP1 PUSH2 0x1436 JUMP JUMPDEST PUSH2 0xD5E JUMP JUMPDEST STOP JUMPDEST PUSH2 0x3B4 PUSH1 0x4 DUP1 CALLDATASIZE SUB DUP2 ADD SWAP1 PUSH2 0x3AF SWAP2 SWAP1 PUSH2 0x123B JUMP JUMPDEST PUSH2 0xE02 JUMP JUMPDEST STOP JUMPDEST PUSH2 0x3D0 PUSH1 0x4 DUP1 CALLDATASIZE SUB DUP2 ADD SWAP1 PUSH2 0x3CB SWAP2 SWAP1 PUSH2 0x129E JUMP JUMPDEST PUSH2 0xF4E JUMP JUMPDEST PUSH1 0x40 MLOAD PUSH2 0x3DD SWAP2 SWAP1 PUSH2 0x13B6 JUMP JUMPDEST PUSH1 0x40 MLOAD DUP1 SWAP2 SUB SWAP1 RETURN JUMPDEST PUSH2 0x400 PUSH1 0x4 DUP1 CALLDATASIZE SUB DUP2 ADD SWAP1 PUSH2 0x3FB SWAP2 SWAP1 PUSH2 0x1436 JUMP JUMPDEST PUSH2 0xF8D JUMP JUMPDEST STOP JUMPDEST PUSH2 0x41C PUSH1 0x4 DUP1 CALLDATASIZE SUB DUP2 ADD SWAP1 PUSH2 0x417 SWAP2 SWAP1 PUSH2 0x123B JUMP JUMPDEST PUSH2 0x1031 JUMP JUMPDEST PUSH1 0x40 MLOAD PUSH2 0x429 SWAP2 SWAP1 PUSH2 0x159A JUMP JUMPDEST PUSH1 0x40 MLOAD DUP1 SWAP2 SUB SWAP1 RETURN JUMPDEST PUSH2 0x44C PUSH1 0x4 DUP1 CALLDATASIZE SUB DUP2 ADD SWAP1 PUSH2 0x447 SWAP2 SWAP1 PUSH2 0x123B JUMP JUMPDEST PUSH2 0x1087 JUMP JUMPDEST PUSH1 0x40 MLOAD PUSH2 0x459 SWAP2 SWAP1 PUSH2 0x159A JUMP JUMPDEST PUSH1 0x40 MLOAD DUP1 SWAP2 SUB SWAP1 RETURN JUMPDEST PUSH2 0x46A PUSH2 0x10DD JUMP JUMPDEST PUSH1 0x40 MLOAD PUSH2 0x477 SWAP2 SWAP1 PUSH2 0x12DA JUMP JUMPDEST PUSH1 0x40 MLOAD DUP1 SWAP2 SUB SWAP1 RETURN JUMPDEST PUSH2 0x49A PUSH1 0x4 DUP1 CALLDATASIZE SUB DUP2 ADD SWAP1 PUSH2 0x495 SWAP2 SWAP1 PUSH2 0x123B JUMP JUMPDEST PUSH2 0x10E3 JUMP JUMPDEST PUSH1 0x40 MLOAD PUSH2 0x4A7 SWAP2 SWAP1 PUSH2 0x159A JUMP JUMPDEST PUSH1 0x40 MLOAD DUP1 SWAP2 SUB SWAP1 RETURN JUMPDEST PUSH2 0x4B8 PUSH2 0x1103 JUMP JUMPDEST PUSH1 0x40 MLOAD PUSH2 0x4C5 SWAP2 SWAP1 PUSH2 0x159A JUMP JUMPDEST PUSH1 0x40 MLOAD DUP1 SWAP2 SUB SWAP1 RETURN JUMPDEST PUSH1 0x0 DUP2 SWAP1 POP DUP1 PUSH20 0xFFFFFFFFFFFFFFFFFFFFFFFFFFFFFFFFFFFFFFFF AND PUSH4 0xCAE5F950 ADDRESS PUSH1 0x40 MLOAD DUP3 PUSH4 0xFFFFFFFF AND PUSH1 0xE0 SHL DUP2 MSTORE PUSH1 0x4 ADD PUSH2 0x50C SWAP2 SWAP1 PUSH2 0x13B6 JUMP JUMPDEST PUSH1 0x20 PUSH1 0x40 MLOAD DUP1 DUP4 SUB DUP2 DUP7 GAS STATICCALL ISZERO DUP1 ISZERO PUSH2 0x529 JUMPI RETURNDATASIZE PUSH1 0x0 DUP1 RETURNDATACOPY RETURNDATASIZE PUSH1 0x0 REVERT JUMPDEST POP POP POP POP PUSH1 0x40 MLOAD RETURNDATASIZE PUSH1 0x1F NOT PUSH1 0x1F DUP3 ADD AND DUP3 ADD DUP1 PUSH1 0x40 MSTORE POP DUP2 ADD SWAP1 PUSH2 0x54D SWAP2 SWAP1 PUSH2 0x15CA JUMP JUMPDEST ISZERO PUSH2 0x616 JUMPI PUSH1 0x7 DUP3 SWAP1 DUP1 PUSH1 0x1 DUP2 SLOAD ADD DUP1 DUP3 SSTORE DUP1 SWAP2 POP POP PUSH1 0x1 SWAP1 SUB SWAP1 PUSH1 0x0 MSTORE PUSH1 0x20 PUSH1 0x0 KECCAK256 ADD PUSH1 0x0 SWAP1 SWAP2 SWAP1 SWAP2 SWAP1 SWAP2 PUSH2 0x100 EXP DUP2 SLOAD DUP2 PUSH20 0xFFFFFFFFFFFFFFFFFFFFFFFFFFFFFFFFFFFFFFFF MUL NOT AND SWAP1 DUP4 PUSH20 0xFFFFFFFFFFFFFFFFFFFFFFFFFFFFFFFFFFFFFFFF AND MUL OR SWAP1 SSTORE POP DUP1 PUSH20 0xFFFFFFFFFFFFFFFFFFFFFFFFFFFFFFFFFFFFFFFF AND PUSH4 0x76EFA463 PUSH1 0x40 MLOAD DUP2 PUSH4 0xFFFFFFFF AND PUSH1 0xE0 SHL DUP2 MSTORE PUSH1 0x4 ADD PUSH1 0x0 PUSH1 0x40 MLOAD DUP1 DUP4 SUB DUP2 PUSH1 0x0 DUP8 DUP1 EXTCODESIZE ISZERO DUP1 ISZERO PUSH2 0x5FD JUMPI PUSH1 0x0 DUP1 REVERT JUMPDEST POP GAS CALL ISZERO DUP1 ISZERO PUSH2 0x611 JUMPI RETURNDATASIZE PUSH1 0x0 DUP1 RETURNDATACOPY RETURNDATASIZE PUSH1 0x0 REVERT JUMPDEST POP POP POP POP JUMPDEST POP POP JUMP JUMPDEST PUSH1 0x0 DUP1 SLOAD SWAP1 PUSH2 0x100 EXP SWAP1 DIV PUSH20 0xFFFFFFFFFFFFFFFFFFFFFFFFFFFFFFFFFFFFFFFF AND PUSH20 0xFFFFFFFFFFFFFFFFFFFFFFFFFFFFFFFFFFFFFFFF AND CALLER PUSH20 0xFFFFFFFFFFFFFFFFFFFFFFFFFFFFFFFFFFFFFFFF AND EQ PUSH2 0x6A8 JUMPI PUSH1 0x40 MLOAD PUSH32 0x8C379A000000000000000000000000000000000000000000000000000000000 DUP2 MSTORE PUSH1 0x4 ADD PUSH2 0x69F SWAP1 PUSH2 0x1643 JUMP JUMPDEST PUSH1 0x40 MLOAD DUP1 SWAP2 SUB SWAP1 REVERT JUMPDEST DUP1 PUSH1 0x9 DUP2 SWAP1 SSTORE POP POP JUMP JUMPDEST PUSH1 0x5 PUSH1 0x20 MSTORE DUP1 PUSH1 0x0 MSTORE PUSH1 0x40 PUSH1 0x0 KECCAK256 PUSH1 0x0 SWAP2 POP SWAP1 POP SLOAD DUP2 JUMP JUMPDEST PUSH1 0x1 DUP1 SLOAD PUSH2 0x6D7 SWAP1 PUSH2 0x1692 JUMP JUMPDEST DUP1 PUSH1 0x1F ADD PUSH1 0x20 DUP1 SWAP2 DIV MUL PUSH1 0x20 ADD PUSH1 0x40 MLOAD SWAP1 DUP2 ADD PUSH1 0x40 MSTORE DUP1 SWAP3 SWAP2 SWAP1 DUP2 DUP2 MSTORE PUSH1 0x20 ADD DUP3 DUP1 SLOAD PUSH2 0x703 SWAP1 PUSH2 0x1692 JUMP JUMPDEST DUP1 ISZERO PUSH2 0x750 JUMPI DUP1 PUSH1 0x1F LT PUSH2 0x725 JUMPI PUSH2 0x100 DUP1 DUP4 SLOAD DIV MUL DUP4 MSTORE SWAP2 PUSH1 0x20 ADD SWAP2 PUSH2 0x750 JUMP JUMPDEST DUP3 ADD SWAP2 SWAP1 PUSH1 0x0 MSTORE PUSH1 0x20 PUSH1 0x0 KECCAK256 SWAP1 JUMPDEST DUP2 SLOAD DUP2 MSTORE SWAP1 PUSH1 0x1 ADD SWAP1 PUSH1 0x20 ADD DUP1 DUP4 GT PUSH2 0x733 JUMPI DUP3 SWAP1 SUB PUSH1 0x1F AND DUP3 ADD SWAP2 JUMPDEST POP POP POP POP POP DUP2 JUMP JUMPDEST PUSH1 0xA DUP1 SLOAD PUSH2 0x765 SWAP1 PUSH2 0x1692 JUMP JUMPDEST DUP1 PUSH1 0x1F ADD PUSH1 0x20 DUP1 SWAP2 DIV MUL PUSH1 0x20 ADD PUSH1 0x40 MLOAD SWAP1 DUP2 ADD PUSH1 0x40 MSTORE DUP1 SWAP3 SWAP2 SWAP1 DUP2 DUP2 MSTORE PUSH1 0x20 ADD DUP3 DUP1 SLOAD PUSH2 0x791 SWAP1 PUSH2 0x1692 JUMP JUMPDEST DUP1 ISZERO PUSH2 0x7DE JUMPI DUP1 PUSH1 0x1F LT PUSH2 0x7B3 JUMPI PUSH2 0x100 DUP1 DUP4 SLOAD DIV MUL DUP4 MSTORE SWAP2 PUSH1 0x20 ADD SWAP2 PUSH2 0x7DE JUMP JUMPDEST DUP3 ADD SWAP2 SWAP1 PUSH1 0x0 MSTORE PUSH1 0x20 PUSH1 0x0 KECCAK256 SWAP1 JUMPDEST DUP2 SLOAD DUP2 MSTORE SWAP1 PUSH1 0x1 ADD SWAP1 PUSH1 0x20 ADD DUP1 DUP4 GT PUSH2 0x7C1 JUMPI DUP3 SWAP1 SUB PUSH1 0x1F AND DUP3 ADD SWAP2 JUMPDEST POP POP POP POP POP DUP2 JUMP JUMPDEST PUSH1 0x0 DUP1 SLOAD SWAP1 PUSH2 0x100 EXP SWAP1 DIV PUSH20 0xFFFFFFFFFFFFFFFFFFFFFFFFFFFFFFFFFFFFFFFF AND PUSH20 0xFFFFFFFFFFFFFFFFFFFFFFFFFFFFFFFFFFFFFFFF AND CALLER PUSH20 0xFFFFFFFFFFFFFFFFFFFFFFFFFFFFFFFFFFFFFFFF AND EQ PUSH2 0x874 JUMPI PUSH1 0x40 MLOAD PUSH32 0x8C379A000000000000000000000000000000000000000000000000000000000 DUP2 MSTORE PUSH1 0x4 ADD PUSH2 0x86B SWAP1 PUSH2 0x1643 JUMP JUMPDEST PUSH1 0x40 MLOAD DUP1 SWAP2 SUB SWAP1 REVERT JUMPDEST DUP1 PUSH1 0x0 DUP1 PUSH2 0x100 EXP DUP2 SLOAD DUP2 PUSH20 0xFFFFFFFFFFFFFFFFFFFFFFFFFFFFFFFFFFFFFFFF MUL NOT AND SWAP1 DUP4 PUSH20 0xFFFFFFFFFFFFFFFFFFFFFFFFFFFFFFFFFFFFFFFF AND MUL OR SWAP1 SSTORE POP POP JUMP JUMPDEST PUSH1 0x6 DUP2 DUP2 SLOAD DUP2 LT PUSH2 0x8C7 JUMPI PUSH1 0x0 DUP1 REVERT JUMPDEST SWAP1 PUSH1 0x0 MSTORE PUSH1 0x20 PUSH1 0x0 KECCAK256 ADD PUSH1 0x0 SWAP2 POP SLOAD SWAP1 PUSH2 0x100 EXP SWAP1 DIV PUSH20 0xFFFFFFFFFFFFFFFFFFFFFFFFFFFFFFFFFFFFFFFF AND DUP2 JUMP JUMPDEST PUSH1 0x8 DUP2 DUP2 SLOAD DUP2 LT PUSH2 0x906 JUMPI PUSH1 0x0 DUP1 REVERT JUMPDEST SWAP1 PUSH1 0x0 MSTORE PUSH1 0x20 PUSH1 0x0 KECCAK256 ADD PUSH1 0x0 SWAP2 POP SLOAD SWAP1 PUSH2 0x100 EXP SWAP1 DIV PUSH20 0xFFFFFFFFFFFFFFFFFFFFFFFFFFFFFFFFFFFFFFFF AND DUP2 JUMP JUMPDEST PUSH1 0x1 ISZERO ISZERO PUSH1 0x2 PUSH1 0x0 CALLER PUSH20 0xFFFFFFFFFFFFFFFFFFFFFFFFFFFFFFFFFFFFFFFF AND PUSH20 0xFFFFFFFFFFFFFFFFFFFFFFFFFFFFFFFFFFFFFFFF AND DUP2 MSTORE PUSH1 0x20 ADD SWAP1 DUP2 MSTORE PUSH1 0x20 ADD PUSH1 0x0 KECCAK256 PUSH1 0x0 SWAP1 SLOAD SWAP1 PUSH2 0x100 EXP SWAP1 DIV PUSH1 0xFF AND ISZERO ISZERO EQ PUSH2 0x9C8 JUMPI PUSH1 0x40 MLOAD PUSH32 0x8C379A000000000000000000000000000000000000000000000000000000000 DUP2 MSTORE PUSH1 0x4 ADD PUSH2 0x9BF SWAP1 PUSH2 0x1735 JUMP JUMPDEST PUSH1 0x40 MLOAD DUP1 SWAP2 SUB SWAP1 REVERT JUMPDEST PUSH1 0x0 PUSH1 0x2 PUSH1 0x0 CALLER PUSH20 0xFFFFFFFFFFFFFFFFFFFFFFFFFFFFFFFFFFFFFFFF AND PUSH20 0xFFFFFFFFFFFFFFFFFFFFFFFFFFFFFFFFFFFFFFFF AND DUP2 MSTORE PUSH1 0x20 ADD SWAP1 DUP2 MSTORE PUSH1 0x20 ADD PUSH1 0x0 KECCAK256 PUSH1 0x0 PUSH2 0x100 EXP DUP2 SLOAD DUP2 PUSH1 0xFF MUL NOT AND SWAP1 DUP4 ISZERO ISZERO MUL OR SWAP1 SSTORE POP JUMP JUMPDEST PUSH1 0x0 DUP1 SLOAD SWAP1 PUSH2 0x100 EXP SWAP1 DIV PUSH20 0xFFFFFFFFFFFFFFFFFFFFFFFFFFFFFFFFFFFFFFFF AND PUSH20 0xFFFFFFFFFFFFFFFFFFFFFFFFFFFFFFFFFFFFFFFF AND CALLER PUSH20 0xFFFFFFFFFFFFFFFFFFFFFFFFFFFFFFFFFFFFFFFF AND EQ PUSH2 0xAB0 JUMPI PUSH1 0x40 MLOAD PUSH32 0x8C379A000000000000000000000000000000000000000000000000000000000 DUP2 MSTORE PUSH1 0x4 ADD PUSH2 0xAA7 SWAP1 PUSH2 0x1643 JUMP JUMPDEST PUSH1 0x40 MLOAD DUP1 SWAP2 SUB SWAP1 REVERT JUMPDEST DUP2 DUP2 PUSH1 0x6 SWAP2 SWAP1 PUSH2 0xAC1 SWAP3 SWAP2 SWAP1 PUSH2 0x1116 JUMP JUMPDEST POP POP POP JUMP JUMPDEST PUSH1 0x1 ISZERO ISZERO PUSH1 0x3 PUSH1 0x0 CALLER PUSH20 0xFFFFFFFFFFFFFFFFFFFFFFFFFFFFFFFFFFFFFFFF AND PUSH20 0xFFFFFFFFFFFFFFFFFFFFFFFFFFFFFFFFFFFFFFFF AND DUP2 MSTORE PUSH1 0x20 ADD SWAP1 DUP2 MSTORE PUSH1 0x20 ADD PUSH1 0x0 KECCAK256 PUSH1 0x0 SWAP1 SLOAD SWAP1 PUSH2 0x100 EXP SWAP1 DIV PUSH1 0xFF AND ISZERO ISZERO EQ PUSH2 0xB59 JUMPI PUSH1 0x40 MLOAD PUSH32 0x8C379A000000000000000000000000000000000000000000000000000000000 DUP2 MSTORE PUSH1 0x4 ADD PUSH2 0xB50 SWAP1 PUSH2 0x17C7 JUMP JUMPDEST PUSH1 0x40 MLOAD DUP1 SWAP2 SUB SWAP1 REVERT JUMPDEST PUSH1 0x0 PUSH1 0x3 PUSH1 0x0 CALLER PUSH20 0xFFFFFFFFFFFFFFFFFFFFFFFFFFFFFFFFFFFFFFFF AND PUSH20 0xFFFFFFFFFFFFFFFFFFFFFFFFFFFFFFFFFFFFFFFF AND DUP2 MSTORE PUSH1 0x20 ADD SWAP1 DUP2 MSTORE PUSH1 0x20 ADD PUSH1 0x0 KECCAK256 PUSH1 0x0 PUSH2 0x100 EXP DUP2 SLOAD DUP2 PUSH1 0xFF MUL NOT AND SWAP1 DUP4 ISZERO ISZERO MUL OR SWAP1 SSTORE POP JUMP JUMPDEST PUSH1 0x0 DUP1 SLOAD SWAP1 PUSH2 0x100 EXP SWAP1 DIV PUSH20 0xFFFFFFFFFFFFFFFFFFFFFFFFFFFFFFFFFFFFFFFF AND PUSH20 0xFFFFFFFFFFFFFFFFFFFFFFFFFFFFFFFFFFFFFFFF AND CALLER PUSH20 0xFFFFFFFFFFFFFFFFFFFFFFFFFFFFFFFFFFFFFFFF AND EQ PUSH2 0xC41 JUMPI PUSH1 0x40 MLOAD PUSH32 0x8C379A000000000000000000000000000000000000000000000000000000000 DUP2 MSTORE PUSH1 0x4 ADD PUSH2 0xC38 SWAP1 PUSH2 0x1643 JUMP JUMPDEST PUSH1 0x40 MLOAD DUP1 SWAP2 SUB SWAP1 REVERT JUMPDEST DUP1 PUSH1 0x0 PUSH1 0x14 PUSH2 0x100 EXP DUP2 SLOAD DUP2 PUSH1 0xFF MUL NOT AND SWAP1 DUP4 ISZERO ISZERO MUL OR SWAP1 SSTORE POP POP JUMP JUMPDEST PUSH1 0x0 DUP1 SLOAD SWAP1 PUSH2 0x100 EXP SWAP1 DIV PUSH20 0xFFFFFFFFFFFFFFFFFFFFFFFFFFFFFFFFFFFFFFFF AND DUP2 JUMP JUMPDEST PUSH1 0x0 DUP1 SLOAD SWAP1 PUSH2 0x100 EXP SWAP1 DIV PUSH20 0xFFFFFFFFFFFFFFFFFFFFFFFFFFFFFFFFFFFFFFFF AND PUSH20 0xFFFFFFFFFFFFFFFFFFFFFFFFFFFFFFFFFFFFFFFF AND CALLER PUSH20 0xFFFFFFFFFFFFFFFFFFFFFFFFFFFFFFFFFFFFFFFF AND EQ PUSH2 0xD10 JUMPI PUSH1 0x40 MLOAD PUSH32 0x8C379A000000000000000000000000000000000000000000000000000000000 DUP2 MSTORE PUSH1 0x4 ADD PUSH2 0xD07 SWAP1 PUSH2 0x1643 JUMP JUMPDEST PUSH1 0x40 MLOAD DUP1 SWAP2 SUB SWAP1 REVERT JUMPDEST DUP2 DUP2 PUSH1 0x1 SWAP2 DUP3 PUSH2 0xD21 SWAP3 SWAP2 SWAP1 PUSH2 0x19CD JUMP JUMPDEST POP POP POP JUMP JUMPDEST PUSH1 0x3 PUSH1 0x20 MSTORE DUP1 PUSH1 0x0 MSTORE PUSH1 0x40 PUSH1 0x0 KECCAK256 PUSH1 0x0 SWAP2 POP SLOAD SWAP1 PUSH2 0x100 EXP SWAP1 DIV PUSH1 0xFF AND DUP2 JUMP JUMPDEST PUSH1 0x4 PUSH1 0x20 MSTORE DUP1 PUSH1 0x0 MSTORE PUSH1 0x40 PUSH1 0x0 KECCAK256 PUSH1 0x0 SWAP2 POP SWAP1 POP SLOAD DUP2 JUMP JUMPDEST PUSH1 0x0 DUP1 SLOAD SWAP1 PUSH2 0x100 EXP SWAP1 DIV PUSH20 0xFFFFFFFFFFFFFFFFFFFFFFFFFFFFFFFFFFFFFFFF AND PUSH20 0xFFFFFFFFFFFFFFFFFFFFFFFFFFFFFFFFFFFFFFFF AND CALLER PUSH20 0xFFFFFFFFFFFFFFFFFFFFFFFFFFFFFFFFFFFFFFFF AND EQ PUSH2 0xDEC JUMPI PUSH1 0x40 MLOAD PUSH32 0x8C379A000000000000000000000000000000000000000000000000000000000 DUP2 MSTORE PUSH1 0x4 ADD PUSH2 0xDE3 SWAP1 PUSH2 0x1643 JUMP JUMPDEST PUSH1 0x40 MLOAD DUP1 SWAP2 SUB SWAP1 REVERT JUMPDEST DUP2 DUP2 PUSH1 0x6 SWAP2 SWAP1 PUSH2 0xDFD SWAP3 SWAP2 SWAP1 PUSH2 0x1116 JUMP JUMPDEST POP POP POP JUMP JUMPDEST PUSH1 0x0 DUP2 SWAP1 POP DUP1 PUSH20 0xFFFFFFFFFFFFFFFFFFFFFFFFFFFFFFFFFFFFFFFF AND PUSH4 0xCAE5F950 ADDRESS PUSH1 0x40 MLOAD DUP3 PUSH4 0xFFFFFFFF AND PUSH1 0xE0 SHL DUP2 MSTORE PUSH1 0x4 ADD PUSH2 0xE40 SWAP2 SWAP1 PUSH2 0x13B6 JUMP JUMPDEST PUSH1 0x20 PUSH1 0x40 MLOAD DUP1 DUP4 SUB DUP2 DUP7 GAS STATICCALL ISZERO DUP1 ISZERO PUSH2 0xE5D JUMPI RETURNDATASIZE PUSH1 0x0 DUP1 RETURNDATACOPY RETURNDATASIZE PUSH1 0x0 REVERT JUMPDEST POP POP POP POP PUSH1 0x40 MLOAD RETURNDATASIZE PUSH1 0x1F NOT PUSH1 0x1F DUP3 ADD AND DUP3 ADD DUP1 PUSH1 0x40 MSTORE POP DUP2 ADD SWAP1 PUSH2 0xE81 SWAP2 SWAP1 PUSH2 0x15CA JUMP JUMPDEST ISZERO PUSH2 0xF4A JUMPI PUSH1 0x6 DUP3 SWAP1 DUP1 PUSH1 0x1 DUP2 SLOAD ADD DUP1 DUP3 SSTORE DUP1 SWAP2 POP POP PUSH1 0x1 SWAP1 SUB SWAP1 PUSH1 0x0 MSTORE PUSH1 0x20 PUSH1 0x0 KECCAK256 ADD PUSH1 0x0 SWAP1 SWAP2 SWAP1 SWAP2 SWAP1 SWAP2 PUSH2 0x100 EXP DUP2 SLOAD DUP2 PUSH20 0xFFFFFFFFFFFFFFFFFFFFFFFFFFFFFFFFFFFFFFFF MUL NOT AND SWAP1 DUP4 PUSH20 0xFFFFFFFFFFFFFFFFFFFFFFFFFFFFFFFFFFFFFFFF AND MUL OR SWAP1 SSTORE POP DUP1 PUSH20 0xFFFFFFFFFFFFFFFFFFFFFFFFFFFFFFFFFFFFFFFF AND PUSH4 0x76EFA463 PUSH1 0x40 MLOAD DUP2 PUSH4 0xFFFFFFFF AND PUSH1 0xE0 SHL DUP2 MSTORE PUSH1 0x4 ADD PUSH1 0x0 PUSH1 0x40 MLOAD DUP1 DUP4 SUB DUP2 PUSH1 0x0 DUP8 DUP1 EXTCODESIZE ISZERO DUP1 ISZERO PUSH2 0xF31 JUMPI PUSH1 0x0 DUP1 REVERT JUMPDEST POP GAS CALL ISZERO DUP1 ISZERO PUSH2 0xF45 JUMPI RETURNDATASIZE PUSH1 0x0 DUP1 RETURNDATACOPY RETURNDATASIZE PUSH1 0x0 REVERT JUMPDEST POP POP POP POP JUMPDEST POP POP JUMP JUMPDEST PUSH1 0x7 DUP2 DUP2 SLOAD DUP2 LT PUSH2 0xF5E JUMPI PUSH1 0x0 DUP1 REVERT JUMPDEST SWAP1 PUSH1 0x0 MSTORE PUSH1 0x20 PUSH1 0x0 KECCAK256 ADD PUSH1 0x0 SWAP2 POP SLOAD SWAP1 PUSH2 0x100 EXP SWAP1 DIV PUSH20 0xFFFFFFFFFFFFFFFFFFFFFFFFFFFFFFFFFFFFFFFF AND DUP2 JUMP JUMPDEST PUSH1 0x0 DUP1 SLOAD SWAP1 PUSH2 0x100 EXP SWAP1 DIV PUSH20 0xFFFFFFFFFFFFFFFFFFFFFFFFFFFFFFFFFFFFFFFF AND PUSH20 0xFFFFFFFFFFFFFFFFFFFFFFFFFFFFFFFFFFFFFFFF AND CALLER PUSH20 0xFFFFFFFFFFFFFFFFFFFFFFFFFFFFFFFFFFFFFFFF AND EQ PUSH2 0x101B JUMPI PUSH1 0x40 MLOAD PUSH32 0x8C379A000000000000000000000000000000000000000000000000000000000 DUP2 MSTORE PUSH1 0x4 ADD PUSH2 0x1012 SWAP1 PUSH2 0x1643 JUMP JUMPDEST PUSH1 0x40 MLOAD DUP1 SWAP2 SUB SWAP1 REVERT JUMPDEST DUP2 DUP2 PUSH1 0x6 SWAP2 SWAP1 PUSH2 0x102C SWAP3 SWAP2 SWAP1 PUSH2 0x1116 JUMP JUMPDEST POP POP POP JUMP JUMPDEST PUSH1 0x0 PUSH1 0x2 PUSH1 0x0 DUP4 PUSH20 0xFFFFFFFFFFFFFFFFFFFFFFFFFFFFFFFFFFFFFFFF AND PUSH20 0xFFFFFFFFFFFFFFFFFFFFFFFFFFFFFFFFFFFFFFFF AND DUP2 MSTORE PUSH1 0x20 ADD SWAP1 DUP2 MSTORE PUSH1 0x20 ADD PUSH1 0x0 KECCAK256 PUSH1 0x0 SWAP1 SLOAD SWAP1 PUSH2 0x100 EXP SWAP1 DIV PUSH1 0xFF AND SWAP1 POP SWAP2 SWAP1 POP JUMP JUMPDEST PUSH1 0x0 PUSH1 0x2 PUSH1 0x0 DUP4 PUSH20 0xFFFFFFFFFFFFFFFFFFFFFFFFFFFFFFFFFFFFFFFF AND PUSH20 0xFFFFFFFFFFFFFFFFFFFFFFFFFFFFFFFFFFFFFFFF AND DUP2 MSTORE PUSH1 0x20 ADD SWAP1 DUP2 MSTORE PUSH1 0x20 ADD PUSH1 0x0 KECCAK256 PUSH1 0x0 SWAP1 SLOAD SWAP1 PUSH2 0x100 EXP SWAP1 DIV PUSH1 0xFF AND SWAP1 POP SWAP2 SWAP1 POP JUMP JUMPDEST PUSH1 0x9 SLOAD DUP2 JUMP JUMPDEST PUSH1 0x2 PUSH1 0x20 MSTORE DUP1 PUSH1 0x0 MSTORE PUSH1 0x40 PUSH1 0x0 KECCAK256 PUSH1 0x0 SWAP2 POP SLOAD SWAP1 PUSH2 0x100 EXP SWAP1 DIV PUSH1 0xFF AND DUP2 JUMP JUMPDEST PUSH1 0x0 PUSH1 0x14 SWAP1 SLOAD SWAP1 PUSH2 0x100 EXP SWAP1 DIV PUSH1 0xFF AND DUP2 JUMP JUMPDEST DUP3 DUP1 SLOAD DUP3 DUP3 SSTORE SWAP1 PUSH1 0x0 MSTORE PUSH1 0x20 PUSH1 0x0 KECCAK256 SWAP1 DUP2 ADD SWAP3 DUP3 ISZERO PUSH2 0x11A5 JUMPI SWAP2 PUSH1 0x20 MUL DUP3 ADD JUMPDEST DUP3 DUP2 GT ISZERO PUSH2 0x11A4 JUMPI DUP3 CALLDATALOAD PUSH20 0xFFFFFFFFFFFFFFFFFFFFFFFFFFFFFFFFFFFFFFFF AND DUP3 PUSH1 0x0 PUSH2 0x100 EXP DUP2 SLOAD DUP2 PUSH20 0xFFFFFFFFFFFFFFFFFFFFFFFFFFFFFFFFFFFFFFFF MUL NOT AND SWAP1 DUP4 PUSH20 0xFFFFFFFFFFFFFFFFFFFFFFFFFFFFFFFFFFFFFFFF AND MUL OR SWAP1 SSTORE POP SWAP2 PUSH1 0x20 ADD SWAP2 SWAP1 PUSH1 0x1 ADD SWAP1 PUSH2 0x1136 JUMP JUMPDEST JUMPDEST POP SWAP1 POP PUSH2 0x11B2 SWAP2 SWAP1 PUSH2 0x11B6 JUMP JUMPDEST POP SWAP1 JUMP JUMPDEST JUMPDEST DUP1 DUP3 GT ISZERO PUSH2 0x11CF JUMPI PUSH1 0x0 DUP2 PUSH1 0x0 SWAP1 SSTORE POP PUSH1 0x1 ADD PUSH2 0x11B7 JUMP JUMPDEST POP SWAP1 JUMP JUMPDEST PUSH1 0x0 DUP1 REVERT JUMPDEST PUSH1 0x0 DUP1 REVERT JUMPDEST PUSH1 0x0 PUSH20 0xFFFFFFFFFFFFFFFFFFFFFFFFFFFFFFFFFFFFFFFF DUP3 AND SWAP1 POP SWAP2 SWAP1 POP JUMP JUMPDEST PUSH1 0x0 PUSH2 0x1208 DUP3 PUSH2 0x11DD JUMP JUMPDEST SWAP1 POP SWAP2 SWAP1 POP JUMP JUMPDEST PUSH2 0x1218 DUP2 PUSH2 0x11FD JUMP JUMPDEST DUP2 EQ PUSH2 0x1223 JUMPI PUSH1 0x0 DUP1 REVERT JUMPDEST POP JUMP JUMPDEST PUSH1 0x0 DUP2 CALLDATALOAD SWAP1 POP PUSH2 0x1235 DUP2 PUSH2 0x120F JUMP JUMPDEST SWAP3 SWAP2 POP POP JUMP JUMPDEST PUSH1 0x0 PUSH1 0x20 DUP3 DUP5 SUB SLT ISZERO PUSH2 0x1251 JUMPI PUSH2 0x1250 PUSH2 0x11D3 JUMP JUMPDEST JUMPDEST PUSH1 0x0 PUSH2 0x125F DUP5 DUP3 DUP6 ADD PUSH2 0x1226 JUMP JUMPDEST SWAP2 POP POP SWAP3 SWAP2 POP POP JUMP JUMPDEST PUSH1 0x0 DUP2 SWAP1 POP SWAP2 SWAP1 POP JUMP JUMPDEST PUSH2 0x127B DUP2 PUSH2 0x1268 JUMP JUMPDEST DUP2 EQ PUSH2 0x1286 JUMPI PUSH1 0x0 DUP1 REVERT JUMPDEST POP JUMP JUMPDEST PUSH1 0x0 DUP2 CALLDATALOAD SWAP1 POP PUSH2 0x1298 DUP2 PUSH2 0x1272 JUMP JUMPDEST SWAP3 SWAP2 POP POP JUMP JUMPDEST PUSH1 0x0 PUSH1 0x20 DUP3 DUP5 SUB SLT ISZERO PUSH2 0x12B4 JUMPI PUSH2 0x12B3 PUSH2 0x11D3 JUMP JUMPDEST JUMPDEST PUSH1 0x0 PUSH2 0x12C2 DUP5 DUP3 DUP6 ADD PUSH2 0x1289 JUMP JUMPDEST SWAP2 POP POP SWAP3 SWAP2 POP POP JUMP JUMPDEST PUSH2 0x12D4 DUP2 PUSH2 0x1268 JUMP JUMPDEST DUP3 MSTORE POP POP JUMP JUMPDEST PUSH1 0x0 PUSH1 0x20 DUP3 ADD SWAP1 POP PUSH2 0x12EF PUSH1 0x0 DUP4 ADD DUP5 PUSH2 0x12CB JUMP JUMPDEST SWAP3 SWAP2 POP POP JUMP JUMPDEST PUSH1 0x0 DUP2 MLOAD SWAP1 POP SWAP2 SWAP1 POP JUMP JUMPDEST PUSH1 0x0 DUP3 DUP3 MSTORE PUSH1 0x20 DUP3 ADD SWAP1 POP SWAP3 SWAP2 POP POP JUMP JUMPDEST PUSH1 0x0 JUMPDEST DUP4 DUP2 LT ISZERO PUSH2 0x132F JUMPI DUP1 DUP3 ADD MLOAD DUP2 DUP5 ADD MSTORE PUSH1 0x20 DUP2 ADD SWAP1 POP PUSH2 0x1314 JUMP JUMPDEST PUSH1 0x0 DUP5 DUP5 ADD MSTORE POP POP POP POP JUMP JUMPDEST PUSH1 0x0 PUSH1 0x1F NOT PUSH1 0x1F DUP4 ADD AND SWAP1 POP SWAP2 SWAP1 POP JUMP JUMPDEST PUSH1 0x0 PUSH2 0x1357 DUP3 PUSH2 0x12F5 JUMP JUMPDEST PUSH2 0x1361 DUP2 DUP6 PUSH2 0x1300 JUMP JUMPDEST SWAP4 POP PUSH2 0x1371 DUP2 DUP6 PUSH1 0x20 DUP7 ADD PUSH2 0x1311 JUMP JUMPDEST PUSH2 0x137A DUP2 PUSH2 0x133B JUMP JUMPDEST DUP5 ADD SWAP2 POP POP SWAP3 SWAP2 POP POP JUMP JUMPDEST PUSH1 0x0 PUSH1 0x20 DUP3 ADD SWAP1 POP DUP2 DUP2 SUB PUSH1 0x0 DUP4 ADD MSTORE PUSH2 0x139F DUP2 DUP5 PUSH2 0x134C JUMP JUMPDEST SWAP1 POP SWAP3 SWAP2 POP POP JUMP JUMPDEST PUSH2 0x13B0 DUP2 PUSH2 0x11FD JUMP JUMPDEST DUP3 MSTORE POP POP JUMP JUMPDEST PUSH1 0x0 PUSH1 0x20 DUP3 ADD SWAP1 POP PUSH2 0x13CB PUSH1 0x0 DUP4 ADD DUP5 PUSH2 0x13A7 JUMP JUMPDEST SWAP3 SWAP2 POP POP JUMP JUMPDEST PUSH1 0x0 DUP1 REVERT JUMPDEST PUSH1 0x0 DUP1 REVERT JUMPDEST PUSH1 0x0 DUP1 REVERT JUMPDEST PUSH1 0x0 DUP1 DUP4 PUSH1 0x1F DUP5 ADD SLT PUSH2 0x13F6 JUMPI PUSH2 0x13F5 PUSH2 0x13D1 JUMP JUMPDEST JUMPDEST DUP3 CALLDATALOAD SWAP1 POP PUSH8 0xFFFFFFFFFFFFFFFF DUP2 GT ISZERO PUSH2 0x1413 JUMPI PUSH2 0x1412 PUSH2 0x13D6 JUMP JUMPDEST JUMPDEST PUSH1 0x20 DUP4 ADD SWAP2 POP DUP4 PUSH1 0x20 DUP3 MUL DUP4 ADD GT ISZERO PUSH2 0x142F JUMPI PUSH2 0x142E PUSH2 0x13DB JUMP JUMPDEST JUMPDEST SWAP3 POP SWAP3 SWAP1 POP JUMP JUMPDEST PUSH1 0x0 DUP1 PUSH1 0x20 DUP4 DUP6 SUB SLT ISZERO PUSH2 0x144D JUMPI PUSH2 0x144C PUSH2 0x11D3 JUMP JUMPDEST JUMPDEST PUSH1 0x0 DUP4 ADD CALLDATALOAD PUSH8 0xFFFFFFFFFFFFFFFF DUP2 GT ISZERO PUSH2 0x146B JUMPI PUSH2 0x146A PUSH2 0x11D8 JUMP JUMPDEST JUMPDEST PUSH2 0x1477 DUP6 DUP3 DUP7 ADD PUSH2 0x13E0 JUMP JUMPDEST SWAP3 POP SWAP3 POP POP SWAP3 POP SWAP3 SWAP1 POP JUMP JUMPDEST PUSH1 0x0 DUP2 ISZERO ISZERO SWAP1 POP SWAP2 SWAP1 POP JUMP JUMPDEST PUSH2 0x1498 DUP2 PUSH2 0x1483 JUMP JUMPDEST DUP2 EQ PUSH2 0x14A3 JUMPI PUSH1 0x0 DUP1 REVERT JUMPDEST POP JUMP JUMPDEST PUSH1 0x0 DUP2 CALLDATALOAD SWAP1 POP PUSH2 0x14B5 DUP2 PUSH2 0x148F JUMP JUMPDEST SWAP3 SWAP2 POP POP JUMP JUMPDEST PUSH1 0x0 PUSH1 0x20 DUP3 DUP5 SUB SLT ISZERO PUSH2 0x14D1 JUMPI PUSH2 0x14D0 PUSH2 0x11D3 JUMP JUMPDEST JUMPDEST PUSH1 0x0 PUSH2 0x14DF DUP5 DUP3 DUP6 ADD PUSH2 0x14A6 JUMP JUMPDEST SWAP2 POP POP SWAP3 SWAP2 POP POP JUMP JUMPDEST PUSH1 0x0 DUP1 DUP4 PUSH1 0x1F DUP5 ADD SLT PUSH2 0x14FE JUMPI PUSH2 0x14FD PUSH2 0x13D1 JUMP JUMPDEST JUMPDEST DUP3 CALLDATALOAD SWAP1 POP PUSH8 0xFFFFFFFFFFFFFFFF DUP2 GT ISZERO PUSH2 0x151B JUMPI PUSH2 0x151A PUSH2 0x13D6 JUMP JUMPDEST JUMPDEST PUSH1 0x20 DUP4 ADD SWAP2 POP DUP4 PUSH1 0x1 DUP3 MUL DUP4 ADD GT ISZERO PUSH2 0x1537 JUMPI PUSH2 0x1536 PUSH2 0x13DB JUMP JUMPDEST JUMPDEST SWAP3 POP SWAP3 SWAP1 POP JUMP JUMPDEST PUSH1 0x0 DUP1 PUSH1 0x20 DUP4 DUP6 SUB SLT ISZERO PUSH2 0x1555 JUMPI PUSH2 0x1554 PUSH2 0x11D3 JUMP JUMPDEST JUMPDEST PUSH1 0x0 DUP4 ADD CALLDATALOAD PUSH8 0xFFFFFFFFFFFFFFFF DUP2 GT ISZERO PUSH2 0x1573 JUMPI PUSH2 0x1572 PUSH2 0x11D8 JUMP JUMPDEST JUMPDEST PUSH2 0x157F DUP6 DUP3 DUP7 ADD PUSH2 0x14E8 JUMP JUMPDEST SWAP3 POP SWAP3 POP POP SWAP3 POP SWAP3 SWAP1 POP JUMP JUMPDEST PUSH2 0x1594 DUP2 PUSH2 0x1483 JUMP JUMPDEST DUP3 MSTORE POP POP JUMP JUMPDEST PUSH1 0x0 PUSH1 0x20 DUP3 ADD SWAP1 POP PUSH2 0x15AF PUSH1 0x0 DUP4 ADD DUP5 PUSH2 0x158B JUMP JUMPDEST SWAP3 SWAP2 POP POP JUMP JUMPDEST PUSH1 0x0 DUP2 MLOAD SWAP1 POP PUSH2 0x15C4 DUP2 PUSH2 0x148F JUMP JUMPDEST SWAP3 SWAP2 POP POP JUMP JUMPDEST PUSH1 0x0 PUSH1 0x20 DUP3 DUP5 SUB SLT ISZERO PUSH2 0x15E0 JUMPI PUSH2 0x15DF PUSH2 0x11D3 JUMP JUMPDEST JUMPDEST PUSH1 0x0 PUSH2 0x15EE DUP5 DUP3 DUP6 ADD PUSH2 0x15B5 JUMP JUMPDEST SWAP2 POP POP SWAP3 SWAP2 POP POP JUMP JUMPDEST PUSH32 0x63616C6C6572206D757374206265206F776E6572000000000000000000000000 PUSH1 0x0 DUP3 ADD MSTORE POP JUMP JUMPDEST PUSH1 0x0 PUSH2 0x162D PUSH1 0x14 DUP4 PUSH2 0x1300 JUMP JUMPDEST SWAP2 POP PUSH2 0x1638 DUP3 PUSH2 0x15F7 JUMP JUMPDEST PUSH1 0x20 DUP3 ADD SWAP1 POP SWAP2 SWAP1 POP JUMP JUMPDEST PUSH1 0x0 PUSH1 0x20 DUP3 ADD SWAP1 POP DUP2 DUP2 SUB PUSH1 0x0 DUP4 ADD MSTORE PUSH2 0x165C DUP2 PUSH2 0x1620 JUMP JUMPDEST SWAP1 POP SWAP2 SWAP1 POP JUMP JUMPDEST PUSH32 0x4E487B7100000000000000000000000000000000000000000000000000000000 PUSH1 0x0 MSTORE PUSH1 0x22 PUSH1 0x4 MSTORE PUSH1 0x24 PUSH1 0x0 REVERT JUMPDEST PUSH1 0x0 PUSH1 0x2 DUP3 DIV SWAP1 POP PUSH1 0x1 DUP3 AND DUP1 PUSH2 0x16AA JUMPI PUSH1 0x7F DUP3 AND SWAP2 POP JUMPDEST PUSH1 0x20 DUP3 LT DUP2 SUB PUSH2 0x16BD JUMPI PUSH2 0x16BC PUSH2 0x1663 JUMP JUMPDEST JUMPDEST POP SWAP2 SWAP1 POP JUMP JUMPDEST PUSH32 0x526571756573746F72206973206E6F7420612063616E64696461746520666F72 PUSH1 0x0 DUP3 ADD MSTORE PUSH32 0x20737563636573736F72736869702E0000000000000000000000000000000000 PUSH1 0x20 DUP3 ADD MSTORE POP JUMP JUMPDEST PUSH1 0x0 PUSH2 0x171F PUSH1 0x2F DUP4 PUSH2 0x1300 JUMP JUMPDEST SWAP2 POP PUSH2 0x172A DUP3 PUSH2 0x16C3 JUMP JUMPDEST PUSH1 0x40 DUP3 ADD SWAP1 POP SWAP2 SWAP1 POP JUMP JUMPDEST PUSH1 0x0 PUSH1 0x20 DUP3 ADD SWAP1 POP DUP2 DUP2 SUB PUSH1 0x0 DUP4 ADD MSTORE PUSH2 0x174E DUP2 PUSH2 0x1712 JUMP JUMPDEST SWAP1 POP SWAP2 SWAP1 POP JUMP JUMPDEST PUSH32 0x526571756573746F72206973206E6F7420612063616E64696461746520666F72 PUSH1 0x0 DUP3 ADD MSTORE PUSH32 0x207072656465636573736F72736869702E000000000000000000000000000000 PUSH1 0x20 DUP3 ADD MSTORE POP JUMP JUMPDEST PUSH1 0x0 PUSH2 0x17B1 PUSH1 0x31 DUP4 PUSH2 0x1300 JUMP JUMPDEST SWAP2 POP PUSH2 0x17BC DUP3 PUSH2 0x1755 JUMP JUMPDEST PUSH1 0x40 DUP3 ADD SWAP1 POP SWAP2 SWAP1 POP JUMP JUMPDEST PUSH1 0x0 PUSH1 0x20 DUP3 ADD SWAP1 POP DUP2 DUP2 SUB PUSH1 0x0 DUP4 ADD MSTORE PUSH2 0x17E0 DUP2 PUSH2 0x17A4 JUMP JUMPDEST SWAP1 POP SWAP2 SWAP1 POP JUMP JUMPDEST PUSH1 0x0 DUP3 SWAP1 POP SWAP3 SWAP2 POP POP JUMP JUMPDEST PUSH32 0x4E487B7100000000000000000000000000000000000000000000000000000000 PUSH1 0x0 MSTORE PUSH1 0x41 PUSH1 0x4 MSTORE PUSH1 0x24 PUSH1 0x0 REVERT JUMPDEST PUSH1 0x0 DUP2 SWAP1 POP DUP2 PUSH1 0x0 MSTORE PUSH1 0x20 PUSH1 0x0 KECCAK256 SWAP1 POP SWAP2 SWAP1 POP JUMP JUMPDEST PUSH1 0x0 PUSH1 0x20 PUSH1 0x1F DUP4 ADD DIV SWAP1 POP SWAP2 SWAP1 POP JUMP JUMPDEST PUSH1 0x0 DUP3 DUP3 SHL SWAP1 POP SWAP3 SWAP2 POP POP JUMP JUMPDEST PUSH1 0x0 PUSH1 0x8 DUP4 MUL PUSH2 0x1883 PUSH32 0xFFFFFFFFFFFFFFFFFFFFFFFFFFFFFFFFFFFFFFFFFFFFFFFFFFFFFFFFFFFFFFFF DUP3 PUSH2 0x1846 JUMP JUMPDEST PUSH2 0x188D DUP7 DUP4 PUSH2 0x1846 JUMP JUMPDEST SWAP6 POP DUP1 NOT DUP5 AND SWAP4 POP DUP1 DUP7 AND DUP5 OR SWAP3 POP POP POP SWAP4 SWAP3 POP POP POP JUMP JUMPDEST PUSH1 0x0 DUP2 SWAP1 POP SWAP2 SWAP1 POP JUMP JUMPDEST PUSH1 0x0 PUSH2 0x18CA PUSH2 0x18C5 PUSH2 0x18C0 DUP5 PUSH2 0x1268 JUMP JUMPDEST PUSH2 0x18A5 JUMP JUMPDEST PUSH2 0x1268 JUMP JUMPDEST SWAP1 POP SWAP2 SWAP1 POP JUMP JUMPDEST PUSH1 0x0 DUP2 SWAP1 POP SWAP2 SWAP1 POP JUMP JUMPDEST PUSH2 0x18E4 DUP4 PUSH2 0x18AF JUMP JUMPDEST PUSH2 0x18F8 PUSH2 0x18F0 DUP3 PUSH2 0x18D1 JUMP JUMPDEST DUP5 DUP5 SLOAD PUSH2 0x1853 JUMP JUMPDEST DUP3 SSTORE POP POP POP POP JUMP JUMPDEST PUSH1 0x0 SWAP1 JUMP JUMPDEST PUSH2 0x190D PUSH2 0x1900 JUMP JUMPDEST PUSH2 0x1918 DUP2 DUP5 DUP5 PUSH2 0x18DB JUMP JUMPDEST POP POP POP JUMP JUMPDEST JUMPDEST DUP2 DUP2 LT ISZERO PUSH2 0x193C JUMPI PUSH2 0x1931 PUSH1 0x0 DUP3 PUSH2 0x1905 JUMP JUMPDEST PUSH1 0x1 DUP2 ADD SWAP1 POP PUSH2 0x191E JUMP JUMPDEST POP POP JUMP JUMPDEST PUSH1 0x1F DUP3 GT ISZERO PUSH2 0x1981 JUMPI PUSH2 0x1952 DUP2 PUSH2 0x1821 JUMP JUMPDEST PUSH2 0x195B DUP5 PUSH2 0x1836 JUMP JUMPDEST DUP2 ADD PUSH1 0x20 DUP6 LT ISZERO PUSH2 0x196A JUMPI DUP2 SWAP1 POP JUMPDEST PUSH2 0x197E PUSH2 0x1976 DUP6 PUSH2 0x1836 JUMP JUMPDEST DUP4 ADD DUP3 PUSH2 0x191D JUMP JUMPDEST POP POP JUMPDEST POP POP POP JUMP JUMPDEST PUSH1 0x0 DUP3 DUP3 SHR SWAP1 POP SWAP3 SWAP2 POP POP JUMP JUMPDEST PUSH1 0x0 PUSH2 0x19A4 PUSH1 0x0 NOT DUP5 PUSH1 0x8 MUL PUSH2 0x1986 JUMP JUMPDEST NOT DUP1 DUP4 AND SWAP2 POP POP SWAP3 SWAP2 POP POP JUMP JUMPDEST PUSH1 0x0 PUSH2 0x19BD DUP4 DUP4 PUSH2 0x1993 JUMP JUMPDEST SWAP2 POP DUP3 PUSH1 0x2 MUL DUP3 OR SWAP1 POP SWAP3 SWAP2 POP POP JUMP JUMPDEST PUSH2 0x19D7 DUP4 DUP4 PUSH2 0x17E7 JUMP JUMPDEST PUSH8 0xFFFFFFFFFFFFFFFF DUP2 GT ISZERO PUSH2 0x19F0 JUMPI PUSH2 0x19EF PUSH2 0x17F2 JUMP JUMPDEST JUMPDEST PUSH2 0x19FA DUP3 SLOAD PUSH2 0x1692 JUMP JUMPDEST PUSH2 0x1A05 DUP3 DUP3 DUP6 PUSH2 0x1940 JUMP JUMPDEST PUSH1 0x0 PUSH1 0x1F DUP4 GT PUSH1 0x1 DUP2 EQ PUSH2 0x1A34 JUMPI PUSH1 0x0 DUP5 ISZERO PUSH2 0x1A22 JUMPI DUP3 DUP8 ADD CALLDATALOAD SWAP1 POP JUMPDEST PUSH2 0x1A2C DUP6 DUP3 PUSH2 0x19B1 JUMP JUMPDEST DUP7 SSTORE POP PUSH2 0x1A94 JUMP JUMPDEST PUSH1 0x1F NOT DUP5 AND PUSH2 0x1A42 DUP7 PUSH2 0x1821 JUMP JUMPDEST PUSH1 0x0 JUMPDEST DUP3 DUP2 LT ISZERO PUSH2 0x1A6A JUMPI DUP5 DUP10 ADD CALLDATALOAD DUP3 SSTORE PUSH1 0x1 DUP3 ADD SWAP2 POP PUSH1 0x20 DUP6 ADD SWAP5 POP PUSH1 0x20 DUP2 ADD SWAP1 POP PUSH2 0x1A45 JUMP JUMPDEST DUP7 DUP4 LT ISZERO PUSH2 0x1A87 JUMPI DUP5 DUP10 ADD CALLDATALOAD PUSH2 0x1A83 PUSH1 0x1F DUP10 AND DUP3 PUSH2 0x1993 JUMP JUMPDEST DUP4 SSTORE POP JUMPDEST PUSH1 0x1 PUSH1 0x2 DUP9 MUL ADD DUP9 SSTORE POP POP POP JUMPDEST POP POP POP POP POP POP POP JUMP INVALID LOG2 PUSH5 0x6970667358 0x22 SLT KECCAK256 0x24 0xEC 0xDF PUSH23 0x40A8993C07FCA8233A6C1780BE71323D94B8AC5CF7308E INVALID PUSH28 0x98FAC964736F6C634300081200330000000000000000000000000000 "
				},
				"gasEstimates": {
					"creation": {
						"codeDepositCost": "1373400",
						"executionCost": "infinite",
						"totalCost": "infinite"
					},
					"external": {
						"Accept_PredecessorCandidate()": "26871",
						"Accept_SuccessorCandidate()": "26827",
						"ChangeOwnership(address)": "27023",
						"Do_Handshake_To_Predecessor(address)": "infinite",
						"Do_Handshake_To_Successor(address)": "infinite",
						"Has_PredecessorCandidate(address)": "2972",
						"Has_SuccessorCandidate(address)": "2927",
						"Set_CarbonFootPrint(uint256)": "24733",
						"Set_IsValue(bool)": "27029",
						"Set_LabelIds(address[])": "infinite",
						"Set_Name(string)": "infinite",
						"Set_PredecessorIds(address[])": "infinite",
						"Set_SuccessorIds(address[])": "infinite",
						"carbonFootprint()": "2495",
						"isValue()": "2631",
						"labelIds(uint256)": "5001",
						"name()": "infinite",
						"owner()": "2534",
						"predecessorIdIsHandshakeCandidate(address)": "2912",
						"predecessorIdToArrayIndex(uint256)": "infinite",
						"predecessorIds(uint256)": "5001",
						"successorIdIsHandshakeCandidate(address)": "2933",
						"successorIdToArrayIndex(uint256)": "infinite",
						"successorIds(uint256)": "4979",
						"swarm_storage_address()": "infinite"
					}
				},
				"methodIdentifiers": {
					"Accept_PredecessorCandidate()": "76efa463",
					"Accept_SuccessorCandidate()": "3fad4a37",
					"ChangeOwnership(address)": "244ded7a",
					"Do_Handshake_To_Predecessor(address)": "0373e405",
					"Do_Handshake_To_Successor(address)": "bed2aefe",
					"Has_PredecessorCandidate(address)": "cae5f950",
					"Has_SuccessorCandidate(address)": "d4f6c1ff",
					"Set_CarbonFootPrint(uint256)": "04a3f393",
					"Set_IsValue(bool)": "78fb654a",
					"Set_LabelIds(address[])": "5789726a",
					"Set_Name(string)": "9155e45b",
					"Set_PredecessorIds(address[])": "c28388fa",
					"Set_SuccessorIds(address[])": "a022be05",
					"carbonFootprint()": "d7a1ab3c",
					"isValue()": "f2940a43",
					"labelIds(uint256)": "2b6952e6",
					"name()": "06fdde03",
					"owner()": "8da5cb5b",
					"predecessorIdIsHandshakeCandidate(address)": "9f285f06",
					"predecessorIdToArrayIndex(uint256)": "06079551",
					"predecessorIds(uint256)": "c1f4f855",
					"successorIdIsHandshakeCandidate(address)": "e6e210ba",
					"successorIdToArrayIndex(uint256)": "9f79e280",
					"successorIds(uint256)": "27757d40",
					"swarm_storage_address()": "0b940f6a"
				}
			},
			"storageLayout": {
				"storage": [
					{
						"astId": 9,
						"contract": "contracts/Product.sol:Product",
						"label": "owner",
						"offset": 0,
						"slot": "0",
						"type": "t_address"
					},
					{
						"astId": 51,
						"contract": "contracts/Product.sol:Product",
						"label": "isValue",
						"offset": 20,
						"slot": "0",
						"type": "t_bool"
					},
					{
						"astId": 53,
						"contract": "contracts/Product.sol:Product",
						"label": "name",
						"offset": 0,
						"slot": "1",
						"type": "t_string_storage"
					},
					{
						"astId": 57,
						"contract": "contracts/Product.sol:Product",
						"label": "successorIdIsHandshakeCandidate",
						"offset": 0,
						"slot": "2",
						"type": "t_mapping(t_address,t_bool)"
					},
					{
						"astId": 61,
						"contract": "contracts/Product.sol:Product",
						"label": "predecessorIdIsHandshakeCandidate",
						"offset": 0,
						"slot": "3",
						"type": "t_mapping(t_address,t_bool)"
					},
					{
						"astId": 65,
						"contract": "contracts/Product.sol:Product",
						"label": "successorIdToArrayIndex",
						"offset": 0,
						"slot": "4",
						"type": "t_mapping(t_uint256,t_uint256)"
					},
					{
						"astId": 69,
						"contract": "contracts/Product.sol:Product",
						"label": "predecessorIdToArrayIndex",
						"offset": 0,
						"slot": "5",
						"type": "t_mapping(t_uint256,t_uint256)"
					},
					{
						"astId": 72,
						"contract": "contracts/Product.sol:Product",
						"label": "successorIds",
						"offset": 0,
						"slot": "6",
						"type": "t_array(t_address)dyn_storage"
					},
					{
						"astId": 75,
						"contract": "contracts/Product.sol:Product",
						"label": "predecessorIds",
						"offset": 0,
						"slot": "7",
						"type": "t_array(t_address)dyn_storage"
					},
					{
						"astId": 78,
						"contract": "contracts/Product.sol:Product",
						"label": "labelIds",
						"offset": 0,
						"slot": "8",
						"type": "t_array(t_address)dyn_storage"
					},
					{
						"astId": 80,
						"contract": "contracts/Product.sol:Product",
						"label": "carbonFootprint",
						"offset": 0,
						"slot": "9",
						"type": "t_uint256"
					},
					{
						"astId": 82,
						"contract": "contracts/Product.sol:Product",
						"label": "swarm_storage_address",
						"offset": 0,
						"slot": "10",
						"type": "t_string_storage"
					}
				],
				"types": {
					"t_address": {
						"encoding": "inplace",
						"label": "address",
						"numberOfBytes": "20"
					},
					"t_array(t_address)dyn_storage": {
						"base": "t_address",
						"encoding": "dynamic_array",
						"label": "address[]",
						"numberOfBytes": "32"
					},
					"t_bool": {
						"encoding": "inplace",
						"label": "bool",
						"numberOfBytes": "1"
					},
					"t_mapping(t_address,t_bool)": {
						"encoding": "mapping",
						"key": "t_address",
						"label": "mapping(address => bool)",
						"numberOfBytes": "32",
						"value": "t_bool"
					},
					"t_mapping(t_uint256,t_uint256)": {
						"encoding": "mapping",
						"key": "t_uint256",
						"label": "mapping(uint256 => uint256)",
						"numberOfBytes": "32",
						"value": "t_uint256"
					},
					"t_string_storage": {
						"encoding": "bytes",
						"label": "string",
						"numberOfBytes": "32"
					},
					"t_uint256": {
						"encoding": "inplace",
						"label": "uint256",
						"numberOfBytes": "32"
					}
				}
			},
			"userdoc": {
				"kind": "user",
				"methods": {},
				"version": 1
			}
		}
	}
}