{
	"contracts/Product.sol": {
		"Product": {
			"abi": [
				{
					"inputs": [
						{
							"internalType": "string",
							"name": "_name",
							"type": "string"
						},
						{
							"internalType": "uint256",
							"name": "_carbonFootprint",
							"type": "uint256"
						},
						{
							"internalType": "address",
							"name": "_owner",
							"type": "address"
						}
					],
					"stateMutability": "nonpayable",
					"type": "constructor"
				},
				{
					"anonymous": false,
					"inputs": [
						{
							"indexed": false,
							"internalType": "string",
							"name": "Name",
							"type": "string"
						},
						{
							"indexed": false,
							"internalType": "bool",
							"name": "Successful",
							"type": "bool"
						}
					],
					"name": "HandShakeDone",
					"type": "event"
				},
				{
					"anonymous": false,
					"inputs": [
						{
							"indexed": true,
							"internalType": "address",
							"name": "productAddress",
							"type": "address"
						}
					],
					"name": "ProductCreated",
					"type": "event"
				},
				{
					"inputs": [],
					"name": "Accept_PredecessorCandidate",
					"outputs": [],
					"stateMutability": "nonpayable",
					"type": "function"
				},
				{
					"inputs": [],
					"name": "Accept_SuccessorCandidate",
					"outputs": [],
					"stateMutability": "nonpayable",
					"type": "function"
				},
				{
					"inputs": [
						{
							"internalType": "address",
							"name": "newOwner",
							"type": "address"
						}
					],
					"name": "ChangeOwnership",
					"outputs": [],
					"stateMutability": "nonpayable",
					"type": "function"
				},
				{
					"inputs": [
						{
							"internalType": "address",
							"name": "predecessor_address",
							"type": "address"
						}
					],
					"name": "Do_Handshake_To_Predecessor",
					"outputs": [
						{
							"internalType": "bool",
							"name": "",
							"type": "bool"
						}
					],
					"stateMutability": "nonpayable",
					"type": "function"
				},
				{
					"inputs": [
						{
							"internalType": "address",
							"name": "successor_address",
							"type": "address"
						}
					],
					"name": "Do_Handshake_To_Successor",
					"outputs": [
						{
							"internalType": "bool",
							"name": "",
							"type": "bool"
						}
					],
					"stateMutability": "nonpayable",
					"type": "function"
				},
				{
					"inputs": [],
					"name": "Get_CarbonFootprint",
					"outputs": [
						{
							"internalType": "uint256",
							"name": "",
							"type": "uint256"
						}
					],
					"stateMutability": "view",
					"type": "function"
				},
				{
					"inputs": [],
					"name": "Get_IpfsAddress",
					"outputs": [
						{
							"internalType": "string",
							"name": "",
							"type": "string"
						}
					],
					"stateMutability": "view",
					"type": "function"
				},
				{
					"inputs": [],
					"name": "Get_IsValue",
					"outputs": [
						{
							"internalType": "bool",
							"name": "",
							"type": "bool"
						}
					],
					"stateMutability": "view",
					"type": "function"
				},
				{
					"inputs": [],
					"name": "Get_LabelIDs",
					"outputs": [
						{
							"internalType": "address[]",
							"name": "",
							"type": "address[]"
						}
					],
					"stateMutability": "view",
					"type": "function"
				},
				{
					"inputs": [],
					"name": "Get_Name",
					"outputs": [
						{
							"internalType": "string",
							"name": "",
							"type": "string"
						}
					],
					"stateMutability": "view",
					"type": "function"
				},
				{
					"inputs": [],
					"name": "Get_Owner",
					"outputs": [
						{
							"internalType": "address",
							"name": "owner",
							"type": "address"
						}
					],
					"stateMutability": "view",
					"type": "function"
				},
				{
					"inputs": [],
					"name": "Get_Predecessor_Count",
					"outputs": [
						{
							"internalType": "uint256",
							"name": "",
							"type": "uint256"
						}
					],
					"stateMutability": "view",
					"type": "function"
				},
				{
					"inputs": [],
					"name": "Get_Predecessors",
					"outputs": [
						{
							"internalType": "address[]",
							"name": "",
							"type": "address[]"
						}
					],
					"stateMutability": "view",
					"type": "function"
				},
				{
					"inputs": [],
					"name": "Get_Successor_Count",
					"outputs": [
						{
							"internalType": "uint256",
							"name": "",
							"type": "uint256"
						}
					],
					"stateMutability": "view",
					"type": "function"
				},
				{
					"inputs": [],
					"name": "Get_Successors",
					"outputs": [
						{
							"internalType": "address[]",
							"name": "",
							"type": "address[]"
						}
					],
					"stateMutability": "view",
					"type": "function"
				},
				{
					"inputs": [
						{
							"internalType": "address",
							"name": "predecessorAddress",
							"type": "address"
						}
					],
					"name": "Has_PredecessorCandidate",
					"outputs": [
						{
							"internalType": "bool",
							"name": "",
							"type": "bool"
						}
					],
					"stateMutability": "view",
					"type": "function"
				},
				{
					"inputs": [
						{
							"internalType": "address",
							"name": "successorAddress",
							"type": "address"
						}
					],
					"name": "Has_SuccessorCandidate",
					"outputs": [
						{
							"internalType": "bool",
							"name": "",
							"type": "bool"
						}
					],
					"stateMutability": "view",
					"type": "function"
				},
				{
					"inputs": [
						{
							"internalType": "uint256",
							"name": "new_CarbonFootprint",
							"type": "uint256"
						}
					],
					"name": "Set_CarbonFootPrint",
					"outputs": [],
					"stateMutability": "nonpayable",
					"type": "function"
				},
				{
					"inputs": [
						{
							"internalType": "string",
							"name": "_ipfsAddress",
							"type": "string"
						}
					],
					"name": "Set_IPFS",
					"outputs": [],
					"stateMutability": "nonpayable",
					"type": "function"
				},
				{
					"inputs": [
						{
							"internalType": "bool",
							"name": "value",
							"type": "bool"
						}
					],
					"name": "Set_IsValue",
					"outputs": [],
					"stateMutability": "nonpayable",
					"type": "function"
				},
				{
					"inputs": [
						{
							"internalType": "address[]",
							"name": "new_LabelIds",
							"type": "address[]"
						}
					],
					"name": "Set_LabelIds",
					"outputs": [],
					"stateMutability": "nonpayable",
					"type": "function"
				},
				{
					"inputs": [
						{
							"internalType": "string",
							"name": "new_name",
							"type": "string"
						}
					],
					"name": "Set_Name",
					"outputs": [],
					"stateMutability": "nonpayable",
					"type": "function"
				},
				{
					"inputs": [
						{
							"internalType": "address[]",
							"name": "new_predecessorIds",
							"type": "address[]"
						}
					],
					"name": "Set_PredecessorCandidateIds",
					"outputs": [],
					"stateMutability": "nonpayable",
					"type": "function"
				},
				{
					"inputs": [
						{
							"internalType": "address[]",
							"name": "new_predecessorIds",
							"type": "address[]"
						}
					],
					"name": "Set_PredecessorIds",
					"outputs": [],
					"stateMutability": "nonpayable",
					"type": "function"
				},
				{
					"inputs": [
						{
							"internalType": "address[]",
							"name": "new_successorIds",
							"type": "address[]"
						}
					],
					"name": "Set_SuccessorCandadiateIds",
					"outputs": [],
					"stateMutability": "nonpayable",
					"type": "function"
				},
				{
					"inputs": [
						{
							"internalType": "address[]",
							"name": "new_successorIds",
							"type": "address[]"
						}
					],
					"name": "Set_SuccessorIds",
					"outputs": [],
					"stateMutability": "nonpayable",
					"type": "function"
				},
				{
					"inputs": [],
					"name": "owner",
					"outputs": [
						{
							"internalType": "address",
							"name": "",
							"type": "address"
						}
					],
					"stateMutability": "view",
					"type": "function"
				},
				{
					"inputs": [
						{
							"internalType": "uint256",
							"name": "",
							"type": "uint256"
						}
					],
					"name": "products",
					"outputs": [
						{
							"internalType": "address",
							"name": "Owner",
							"type": "address"
						},
						{
							"internalType": "bool",
							"name": "IsValue",
							"type": "bool"
						},
						{
							"internalType": "string",
							"name": "Name",
							"type": "string"
						},
						{
							"internalType": "string",
							"name": "Ipfs_Address",
							"type": "string"
						},
						{
							"internalType": "uint256",
							"name": "CarbonFootprint",
							"type": "uint256"
						},
						{
							"internalType": "string",
							"name": "Swarm_storage_address",
							"type": "string"
						}
					],
					"stateMutability": "view",
					"type": "function"
				},
				{
					"inputs": [
						{
							"internalType": "address",
							"name": "",
							"type": "address"
						},
						{
							"internalType": "uint256",
							"name": "",
							"type": "uint256"
						}
					],
					"name": "userProducts",
					"outputs": [
						{
							"internalType": "uint256",
							"name": "",
							"type": "uint256"
						}
					],
					"stateMutability": "view",
					"type": "function"
				}
			],
			"devdoc": {
				"kind": "dev",
				"methods": {},
				"version": 1
			},
			"evm": {
				"assembly": "    /* \"contracts/Product.sol\":87:6340  contract Product is Ownable{... */\n  mstore(0x40, 0x80)\n    /* \"contracts/Product.sol\":982:1264  constructor(string memory _name, uint _carbonFootprint, address _owner) {... */\n  callvalue\n  dup1\n  iszero\n  tag_1\n  jumpi\n  0x00\n  dup1\n  revert\ntag_1:\n  pop\n  mload(0x40)\n  sub(codesize, bytecodeSize)\n  dup1\n  bytecodeSize\n  dup4\n  codecopy\n  dup2\n  dup2\n  add\n  0x40\n  mstore\n  dup2\n  add\n  swap1\n  tag_2\n  swap2\n  swap1\n  tag_3\n  jump\t// in\ntag_2:\n    /* \"contracts/Ownable.sol\":159:169  msg.sender */\n  caller\n    /* \"contracts/Ownable.sol\":151:156  owner */\n  0x00\n  dup1\n    /* \"contracts/Ownable.sol\":151:169  owner = msg.sender */\n  0x0100\n  exp\n  dup2\n  sload\n  dup2\n  0xffffffffffffffffffffffffffffffffffffffff\n  mul\n  not\n  and\n  swap1\n  dup4\n  0xffffffffffffffffffffffffffffffffffffffff\n  and\n  mul\n  or\n  swap1\n  sstore\n  pop\n    /* \"contracts/Product.sol\":1082:1088  _owner */\n  dup1\n    /* \"contracts/Product.sol\":1065:1073  instance */\n  0x03\n    /* \"contracts/Product.sol\":1065:1079  instance.Owner */\n  0x00\n  add\n  0x00\n    /* \"contracts/Product.sol\":1065:1088  instance.Owner = _owner */\n  0x0100\n  exp\n  dup2\n  sload\n  dup2\n  0xffffffffffffffffffffffffffffffffffffffff\n  mul\n  not\n  and\n  swap1\n  dup4\n  0xffffffffffffffffffffffffffffffffffffffff\n  and\n  mul\n  or\n  swap1\n  sstore\n  pop\n    /* \"contracts/Product.sol\":1115:1120  _name */\n  dup3\n    /* \"contracts/Product.sol\":1099:1107  instance */\n  0x03\n    /* \"contracts/Product.sol\":1099:1112  instance.Name */\n  0x01\n  add\n    /* \"contracts/Product.sol\":1099:1120  instance.Name = _name */\n  swap1\n  dup2\n  tag_8\n  swap2\n  swap1\n  tag_9\n  jump\t// in\ntag_8:\n  pop\n    /* \"contracts/Product.sol\":1158:1174  _carbonFootprint */\n  dup2\n    /* \"contracts/Product.sol\":1131:1139  instance */\n  0x03\n    /* \"contracts/Product.sol\":1131:1155  instance.CarbonFootprint */\n  0x0a\n  add\n    /* \"contracts/Product.sol\":1131:1174  instance.CarbonFootprint = _carbonFootprint */\n  dup2\n  swap1\n  sstore\n  pop\n    /* \"contracts/Product.sol\":1203:1207  true */\n  0x01\n    /* \"contracts/Product.sol\":1185:1193  instance */\n  0x03\n    /* \"contracts/Product.sol\":1185:1201  instance.IsValue */\n  0x00\n  add\n  0x14\n    /* \"contracts/Product.sol\":1185:1207  instance.IsValue= true */\n  0x0100\n  exp\n  dup2\n  sload\n  dup2\n  0xff\n  mul\n  not\n  and\n  swap1\n  dup4\n  iszero\n  iszero\n  mul\n  or\n  swap1\n  sstore\n  pop\n    /* \"contracts/Product.sol\":1248:1252  this */\n  address\n    /* \"contracts/Product.sol\":1225:1254  ProductCreated(address(this)) */\n  0xffffffffffffffffffffffffffffffffffffffff\n  and\n  0x8c13150fc78b6c00b60262790df304fd55ef36a935a98feefd67391de7bfa0de\n  mload(0x40)\n  mload(0x40)\n  dup1\n  swap2\n  sub\n  swap1\n  log2\n    /* \"contracts/Product.sol\":982:1264  constructor(string memory _name, uint _carbonFootprint, address _owner) {... */\n  pop\n  pop\n  pop\n    /* \"contracts/Product.sol\":87:6340  contract Product is Ownable{... */\n  jump(tag_10)\n    /* \"#utility.yul\":7:82   */\ntag_11:\n    /* \"#utility.yul\":40:46   */\n  0x00\n    /* \"#utility.yul\":73:75   */\n  0x40\n    /* \"#utility.yul\":67:76   */\n  mload\n    /* \"#utility.yul\":57:76   */\n  swap1\n  pop\n    /* \"#utility.yul\":7:82   */\n  swap1\n  jump\t// out\n    /* \"#utility.yul\":88:205   */\ntag_12:\n    /* \"#utility.yul\":197:198   */\n  0x00\n    /* \"#utility.yul\":194:195   */\n  dup1\n    /* \"#utility.yul\":187:199   */\n  revert\n    /* \"#utility.yul\":211:328   */\ntag_13:\n    /* \"#utility.yul\":320:321   */\n  0x00\n    /* \"#utility.yul\":317:318   */\n  dup1\n    /* \"#utility.yul\":310:322   */\n  revert\n    /* \"#utility.yul\":334:451   */\ntag_14:\n    /* \"#utility.yul\":443:444   */\n  0x00\n    /* \"#utility.yul\":440:441   */\n  dup1\n    /* \"#utility.yul\":433:445   */\n  revert\n    /* \"#utility.yul\":457:574   */\ntag_15:\n    /* \"#utility.yul\":566:567   */\n  0x00\n    /* \"#utility.yul\":563:564   */\n  dup1\n    /* \"#utility.yul\":556:568   */\n  revert\n    /* \"#utility.yul\":580:682   */\ntag_16:\n    /* \"#utility.yul\":621:627   */\n  0x00\n    /* \"#utility.yul\":672:674   */\n  0x1f\n    /* \"#utility.yul\":668:675   */\n  not\n    /* \"#utility.yul\":663:665   */\n  0x1f\n    /* \"#utility.yul\":656:661   */\n  dup4\n    /* \"#utility.yul\":652:666   */\n  add\n    /* \"#utility.yul\":648:676   */\n  and\n    /* \"#utility.yul\":638:676   */\n  swap1\n  pop\n    /* \"#utility.yul\":580:682   */\n  swap2\n  swap1\n  pop\n  jump\t// out\n    /* \"#utility.yul\":688:868   */\ntag_17:\n    /* \"#utility.yul\":736:813   */\n  0x4e487b7100000000000000000000000000000000000000000000000000000000\n    /* \"#utility.yul\":733:734   */\n  0x00\n    /* \"#utility.yul\":726:814   */\n  mstore\n    /* \"#utility.yul\":833:837   */\n  0x41\n    /* \"#utility.yul\":830:831   */\n  0x04\n    /* \"#utility.yul\":823:838   */\n  mstore\n    /* \"#utility.yul\":857:861   */\n  0x24\n    /* \"#utility.yul\":854:855   */\n  0x00\n    /* \"#utility.yul\":847:862   */\n  revert\n    /* \"#utility.yul\":874:1155   */\ntag_18:\n    /* \"#utility.yul\":957:984   */\n  tag_58\n    /* \"#utility.yul\":979:983   */\n  dup3\n    /* \"#utility.yul\":957:984   */\n  tag_16\n  jump\t// in\ntag_58:\n    /* \"#utility.yul\":949:955   */\n  dup2\n    /* \"#utility.yul\":945:985   */\n  add\n    /* \"#utility.yul\":1087:1093   */\n  dup2\n    /* \"#utility.yul\":1075:1085   */\n  dup2\n    /* \"#utility.yul\":1072:1094   */\n  lt\n    /* \"#utility.yul\":1051:1069   */\n  0xffffffffffffffff\n    /* \"#utility.yul\":1039:1049   */\n  dup3\n    /* \"#utility.yul\":1036:1070   */\n  gt\n    /* \"#utility.yul\":1033:1095   */\n  or\n    /* \"#utility.yul\":1030:1118   */\n  iszero\n  tag_59\n  jumpi\n    /* \"#utility.yul\":1098:1116   */\n  tag_60\n  tag_17\n  jump\t// in\ntag_60:\n    /* \"#utility.yul\":1030:1118   */\ntag_59:\n    /* \"#utility.yul\":1138:1148   */\n  dup1\n    /* \"#utility.yul\":1134:1136   */\n  0x40\n    /* \"#utility.yul\":1127:1149   */\n  mstore\n    /* \"#utility.yul\":917:1155   */\n  pop\n    /* \"#utility.yul\":874:1155   */\n  pop\n  pop\n  jump\t// out\n    /* \"#utility.yul\":1161:1290   */\ntag_19:\n    /* \"#utility.yul\":1195:1201   */\n  0x00\n    /* \"#utility.yul\":1222:1242   */\n  tag_62\n  tag_11\n  jump\t// in\ntag_62:\n    /* \"#utility.yul\":1212:1242   */\n  swap1\n  pop\n    /* \"#utility.yul\":1251:1284   */\n  tag_63\n    /* \"#utility.yul\":1279:1283   */\n  dup3\n    /* \"#utility.yul\":1271:1277   */\n  dup3\n    /* \"#utility.yul\":1251:1284   */\n  tag_18\n  jump\t// in\ntag_63:\n    /* \"#utility.yul\":1161:1290   */\n  swap2\n  swap1\n  pop\n  jump\t// out\n    /* \"#utility.yul\":1296:1604   */\ntag_20:\n    /* \"#utility.yul\":1358:1362   */\n  0x00\n    /* \"#utility.yul\":1448:1466   */\n  0xffffffffffffffff\n    /* \"#utility.yul\":1440:1446   */\n  dup3\n    /* \"#utility.yul\":1437:1467   */\n  gt\n    /* \"#utility.yul\":1434:1490   */\n  iszero\n  tag_65\n  jumpi\n    /* \"#utility.yul\":1470:1488   */\n  tag_66\n  tag_17\n  jump\t// in\ntag_66:\n    /* \"#utility.yul\":1434:1490   */\ntag_65:\n    /* \"#utility.yul\":1508:1537   */\n  tag_67\n    /* \"#utility.yul\":1530:1536   */\n  dup3\n    /* \"#utility.yul\":1508:1537   */\n  tag_16\n  jump\t// in\ntag_67:\n    /* \"#utility.yul\":1500:1537   */\n  swap1\n  pop\n    /* \"#utility.yul\":1592:1596   */\n  0x20\n    /* \"#utility.yul\":1586:1590   */\n  dup2\n    /* \"#utility.yul\":1582:1597   */\n  add\n    /* \"#utility.yul\":1574:1597   */\n  swap1\n  pop\n    /* \"#utility.yul\":1296:1604   */\n  swap2\n  swap1\n  pop\n  jump\t// out\n    /* \"#utility.yul\":1610:1856   */\ntag_21:\n    /* \"#utility.yul\":1691:1692   */\n  0x00\n    /* \"#utility.yul\":1701:1814   */\ntag_69:\n    /* \"#utility.yul\":1715:1721   */\n  dup4\n    /* \"#utility.yul\":1712:1713   */\n  dup2\n    /* \"#utility.yul\":1709:1722   */\n  lt\n    /* \"#utility.yul\":1701:1814   */\n  iszero\n  tag_71\n  jumpi\n    /* \"#utility.yul\":1800:1801   */\n  dup1\n    /* \"#utility.yul\":1795:1798   */\n  dup3\n    /* \"#utility.yul\":1791:1802   */\n  add\n    /* \"#utility.yul\":1785:1803   */\n  mload\n    /* \"#utility.yul\":1781:1782   */\n  dup2\n    /* \"#utility.yul\":1776:1779   */\n  dup5\n    /* \"#utility.yul\":1772:1783   */\n  add\n    /* \"#utility.yul\":1765:1804   */\n  mstore\n    /* \"#utility.yul\":1737:1739   */\n  0x20\n    /* \"#utility.yul\":1734:1735   */\n  dup2\n    /* \"#utility.yul\":1730:1740   */\n  add\n    /* \"#utility.yul\":1725:1740   */\n  swap1\n  pop\n    /* \"#utility.yul\":1701:1814   */\n  jump(tag_69)\ntag_71:\n    /* \"#utility.yul\":1848:1849   */\n  0x00\n    /* \"#utility.yul\":1839:1845   */\n  dup5\n    /* \"#utility.yul\":1834:1837   */\n  dup5\n    /* \"#utility.yul\":1830:1846   */\n  add\n    /* \"#utility.yul\":1823:1850   */\n  mstore\n    /* \"#utility.yul\":1672:1856   */\n  pop\n    /* \"#utility.yul\":1610:1856   */\n  pop\n  pop\n  pop\n  jump\t// out\n    /* \"#utility.yul\":1862:2296   */\ntag_22:\n    /* \"#utility.yul\":1951:1956   */\n  0x00\n    /* \"#utility.yul\":1976:2042   */\n  tag_73\n    /* \"#utility.yul\":1992:2041   */\n  tag_74\n    /* \"#utility.yul\":2034:2040   */\n  dup5\n    /* \"#utility.yul\":1992:2041   */\n  tag_20\n  jump\t// in\ntag_74:\n    /* \"#utility.yul\":1976:2042   */\n  tag_19\n  jump\t// in\ntag_73:\n    /* \"#utility.yul\":1967:2042   */\n  swap1\n  pop\n    /* \"#utility.yul\":2065:2071   */\n  dup3\n    /* \"#utility.yul\":2058:2063   */\n  dup2\n    /* \"#utility.yul\":2051:2072   */\n  mstore\n    /* \"#utility.yul\":2103:2107   */\n  0x20\n    /* \"#utility.yul\":2096:2101   */\n  dup2\n    /* \"#utility.yul\":2092:2108   */\n  add\n    /* \"#utility.yul\":2141:2144   */\n  dup5\n    /* \"#utility.yul\":2132:2138   */\n  dup5\n    /* \"#utility.yul\":2127:2130   */\n  dup5\n    /* \"#utility.yul\":2123:2139   */\n  add\n    /* \"#utility.yul\":2120:2145   */\n  gt\n    /* \"#utility.yul\":2117:2229   */\n  iszero\n  tag_75\n  jumpi\n    /* \"#utility.yul\":2148:2227   */\n  tag_76\n  tag_15\n  jump\t// in\ntag_76:\n    /* \"#utility.yul\":2117:2229   */\ntag_75:\n    /* \"#utility.yul\":2238:2290   */\n  tag_77\n    /* \"#utility.yul\":2283:2289   */\n  dup5\n    /* \"#utility.yul\":2278:2281   */\n  dup3\n    /* \"#utility.yul\":2273:2276   */\n  dup6\n    /* \"#utility.yul\":2238:2290   */\n  tag_21\n  jump\t// in\ntag_77:\n    /* \"#utility.yul\":1957:2296   */\n  pop\n    /* \"#utility.yul\":1862:2296   */\n  swap4\n  swap3\n  pop\n  pop\n  pop\n  jump\t// out\n    /* \"#utility.yul\":2316:2671   */\ntag_23:\n    /* \"#utility.yul\":2383:2388   */\n  0x00\n    /* \"#utility.yul\":2432:2435   */\n  dup3\n    /* \"#utility.yul\":2425:2429   */\n  0x1f\n    /* \"#utility.yul\":2417:2423   */\n  dup4\n    /* \"#utility.yul\":2413:2430   */\n  add\n    /* \"#utility.yul\":2409:2436   */\n  slt\n    /* \"#utility.yul\":2399:2521   */\n  tag_79\n  jumpi\n    /* \"#utility.yul\":2440:2519   */\n  tag_80\n  tag_14\n  jump\t// in\ntag_80:\n    /* \"#utility.yul\":2399:2521   */\ntag_79:\n    /* \"#utility.yul\":2550:2556   */\n  dup2\n    /* \"#utility.yul\":2544:2557   */\n  mload\n    /* \"#utility.yul\":2575:2665   */\n  tag_81\n    /* \"#utility.yul\":2661:2664   */\n  dup5\n    /* \"#utility.yul\":2653:2659   */\n  dup3\n    /* \"#utility.yul\":2646:2650   */\n  0x20\n    /* \"#utility.yul\":2638:2644   */\n  dup7\n    /* \"#utility.yul\":2634:2651   */\n  add\n    /* \"#utility.yul\":2575:2665   */\n  tag_22\n  jump\t// in\ntag_81:\n    /* \"#utility.yul\":2566:2665   */\n  swap2\n  pop\n    /* \"#utility.yul\":2389:2671   */\n  pop\n    /* \"#utility.yul\":2316:2671   */\n  swap3\n  swap2\n  pop\n  pop\n  jump\t// out\n    /* \"#utility.yul\":2677:2754   */\ntag_24:\n    /* \"#utility.yul\":2714:2721   */\n  0x00\n    /* \"#utility.yul\":2743:2748   */\n  dup2\n    /* \"#utility.yul\":2732:2748   */\n  swap1\n  pop\n    /* \"#utility.yul\":2677:2754   */\n  swap2\n  swap1\n  pop\n  jump\t// out\n    /* \"#utility.yul\":2760:2882   */\ntag_25:\n    /* \"#utility.yul\":2833:2857   */\n  tag_84\n    /* \"#utility.yul\":2851:2856   */\n  dup2\n    /* \"#utility.yul\":2833:2857   */\n  tag_24\n  jump\t// in\ntag_84:\n    /* \"#utility.yul\":2826:2831   */\n  dup2\n    /* \"#utility.yul\":2823:2858   */\n  eq\n    /* \"#utility.yul\":2813:2876   */\n  tag_85\n  jumpi\n    /* \"#utility.yul\":2872:2873   */\n  0x00\n    /* \"#utility.yul\":2869:2870   */\n  dup1\n    /* \"#utility.yul\":2862:2874   */\n  revert\n    /* \"#utility.yul\":2813:2876   */\ntag_85:\n    /* \"#utility.yul\":2760:2882   */\n  pop\n  jump\t// out\n    /* \"#utility.yul\":2888:3031   */\ntag_26:\n    /* \"#utility.yul\":2945:2950   */\n  0x00\n    /* \"#utility.yul\":2976:2982   */\n  dup2\n    /* \"#utility.yul\":2970:2983   */\n  mload\n    /* \"#utility.yul\":2961:2983   */\n  swap1\n  pop\n    /* \"#utility.yul\":2992:3025   */\n  tag_87\n    /* \"#utility.yul\":3019:3024   */\n  dup2\n    /* \"#utility.yul\":2992:3025   */\n  tag_25\n  jump\t// in\ntag_87:\n    /* \"#utility.yul\":2888:3031   */\n  swap3\n  swap2\n  pop\n  pop\n  jump\t// out\n    /* \"#utility.yul\":3037:3163   */\ntag_27:\n    /* \"#utility.yul\":3074:3081   */\n  0x00\n    /* \"#utility.yul\":3114:3156   */\n  0xffffffffffffffffffffffffffffffffffffffff\n    /* \"#utility.yul\":3107:3112   */\n  dup3\n    /* \"#utility.yul\":3103:3157   */\n  and\n    /* \"#utility.yul\":3092:3157   */\n  swap1\n  pop\n    /* \"#utility.yul\":3037:3163   */\n  swap2\n  swap1\n  pop\n  jump\t// out\n    /* \"#utility.yul\":3169:3265   */\ntag_28:\n    /* \"#utility.yul\":3206:3213   */\n  0x00\n    /* \"#utility.yul\":3235:3259   */\n  tag_90\n    /* \"#utility.yul\":3253:3258   */\n  dup3\n    /* \"#utility.yul\":3235:3259   */\n  tag_27\n  jump\t// in\ntag_90:\n    /* \"#utility.yul\":3224:3259   */\n  swap1\n  pop\n    /* \"#utility.yul\":3169:3265   */\n  swap2\n  swap1\n  pop\n  jump\t// out\n    /* \"#utility.yul\":3271:3393   */\ntag_29:\n    /* \"#utility.yul\":3344:3368   */\n  tag_92\n    /* \"#utility.yul\":3362:3367   */\n  dup2\n    /* \"#utility.yul\":3344:3368   */\n  tag_28\n  jump\t// in\ntag_92:\n    /* \"#utility.yul\":3337:3342   */\n  dup2\n    /* \"#utility.yul\":3334:3369   */\n  eq\n    /* \"#utility.yul\":3324:3387   */\n  tag_93\n  jumpi\n    /* \"#utility.yul\":3383:3384   */\n  0x00\n    /* \"#utility.yul\":3380:3381   */\n  dup1\n    /* \"#utility.yul\":3373:3385   */\n  revert\n    /* \"#utility.yul\":3324:3387   */\ntag_93:\n    /* \"#utility.yul\":3271:3393   */\n  pop\n  jump\t// out\n    /* \"#utility.yul\":3399:3542   */\ntag_30:\n    /* \"#utility.yul\":3456:3461   */\n  0x00\n    /* \"#utility.yul\":3487:3493   */\n  dup2\n    /* \"#utility.yul\":3481:3494   */\n  mload\n    /* \"#utility.yul\":3472:3494   */\n  swap1\n  pop\n    /* \"#utility.yul\":3503:3536   */\n  tag_95\n    /* \"#utility.yul\":3530:3535   */\n  dup2\n    /* \"#utility.yul\":3503:3536   */\n  tag_29\n  jump\t// in\ntag_95:\n    /* \"#utility.yul\":3399:3542   */\n  swap3\n  swap2\n  pop\n  pop\n  jump\t// out\n    /* \"#utility.yul\":3548:4384   */\ntag_3:\n    /* \"#utility.yul\":3646:3652   */\n  0x00\n    /* \"#utility.yul\":3654:3660   */\n  dup1\n    /* \"#utility.yul\":3662:3668   */\n  0x00\n    /* \"#utility.yul\":3711:3713   */\n  0x60\n    /* \"#utility.yul\":3699:3708   */\n  dup5\n    /* \"#utility.yul\":3690:3697   */\n  dup7\n    /* \"#utility.yul\":3686:3709   */\n  sub\n    /* \"#utility.yul\":3682:3714   */\n  slt\n    /* \"#utility.yul\":3679:3798   */\n  iszero\n  tag_97\n  jumpi\n    /* \"#utility.yul\":3717:3796   */\n  tag_98\n  tag_12\n  jump\t// in\ntag_98:\n    /* \"#utility.yul\":3679:3798   */\ntag_97:\n    /* \"#utility.yul\":3858:3859   */\n  0x00\n    /* \"#utility.yul\":3847:3856   */\n  dup5\n    /* \"#utility.yul\":3843:3860   */\n  add\n    /* \"#utility.yul\":3837:3861   */\n  mload\n    /* \"#utility.yul\":3888:3906   */\n  0xffffffffffffffff\n    /* \"#utility.yul\":3880:3886   */\n  dup2\n    /* \"#utility.yul\":3877:3907   */\n  gt\n    /* \"#utility.yul\":3874:3991   */\n  iszero\n  tag_99\n  jumpi\n    /* \"#utility.yul\":3910:3989   */\n  tag_100\n  tag_13\n  jump\t// in\ntag_100:\n    /* \"#utility.yul\":3874:3991   */\ntag_99:\n    /* \"#utility.yul\":4015:4089   */\n  tag_101\n    /* \"#utility.yul\":4081:4088   */\n  dup7\n    /* \"#utility.yul\":4072:4078   */\n  dup3\n    /* \"#utility.yul\":4061:4070   */\n  dup8\n    /* \"#utility.yul\":4057:4079   */\n  add\n    /* \"#utility.yul\":4015:4089   */\n  tag_23\n  jump\t// in\ntag_101:\n    /* \"#utility.yul\":4005:4089   */\n  swap4\n  pop\n    /* \"#utility.yul\":3808:4099   */\n  pop\n    /* \"#utility.yul\":4138:4140   */\n  0x20\n    /* \"#utility.yul\":4164:4228   */\n  tag_102\n    /* \"#utility.yul\":4220:4227   */\n  dup7\n    /* \"#utility.yul\":4211:4217   */\n  dup3\n    /* \"#utility.yul\":4200:4209   */\n  dup8\n    /* \"#utility.yul\":4196:4218   */\n  add\n    /* \"#utility.yul\":4164:4228   */\n  tag_26\n  jump\t// in\ntag_102:\n    /* \"#utility.yul\":4154:4228   */\n  swap3\n  pop\n    /* \"#utility.yul\":4109:4238   */\n  pop\n    /* \"#utility.yul\":4277:4279   */\n  0x40\n    /* \"#utility.yul\":4303:4367   */\n  tag_103\n    /* \"#utility.yul\":4359:4366   */\n  dup7\n    /* \"#utility.yul\":4350:4356   */\n  dup3\n    /* \"#utility.yul\":4339:4348   */\n  dup8\n    /* \"#utility.yul\":4335:4357   */\n  add\n    /* \"#utility.yul\":4303:4367   */\n  tag_30\n  jump\t// in\ntag_103:\n    /* \"#utility.yul\":4293:4367   */\n  swap2\n  pop\n    /* \"#utility.yul\":4248:4377   */\n  pop\n    /* \"#utility.yul\":3548:4384   */\n  swap3\n  pop\n  swap3\n  pop\n  swap3\n  jump\t// out\n    /* \"#utility.yul\":4390:4489   */\ntag_31:\n    /* \"#utility.yul\":4442:4448   */\n  0x00\n    /* \"#utility.yul\":4476:4481   */\n  dup2\n    /* \"#utility.yul\":4470:4482   */\n  mload\n    /* \"#utility.yul\":4460:4482   */\n  swap1\n  pop\n    /* \"#utility.yul\":4390:4489   */\n  swap2\n  swap1\n  pop\n  jump\t// out\n    /* \"#utility.yul\":4495:4675   */\ntag_32:\n    /* \"#utility.yul\":4543:4620   */\n  0x4e487b7100000000000000000000000000000000000000000000000000000000\n    /* \"#utility.yul\":4540:4541   */\n  0x00\n    /* \"#utility.yul\":4533:4621   */\n  mstore\n    /* \"#utility.yul\":4640:4644   */\n  0x22\n    /* \"#utility.yul\":4637:4638   */\n  0x04\n    /* \"#utility.yul\":4630:4645   */\n  mstore\n    /* \"#utility.yul\":4664:4668   */\n  0x24\n    /* \"#utility.yul\":4661:4662   */\n  0x00\n    /* \"#utility.yul\":4654:4669   */\n  revert\n    /* \"#utility.yul\":4681:5001   */\ntag_33:\n    /* \"#utility.yul\":4725:4731   */\n  0x00\n    /* \"#utility.yul\":4762:4763   */\n  0x02\n    /* \"#utility.yul\":4756:4760   */\n  dup3\n    /* \"#utility.yul\":4752:4764   */\n  div\n    /* \"#utility.yul\":4742:4764   */\n  swap1\n  pop\n    /* \"#utility.yul\":4809:4810   */\n  0x01\n    /* \"#utility.yul\":4803:4807   */\n  dup3\n    /* \"#utility.yul\":4799:4811   */\n  and\n    /* \"#utility.yul\":4830:4848   */\n  dup1\n    /* \"#utility.yul\":4820:4901   */\n  tag_107\n  jumpi\n    /* \"#utility.yul\":4886:4890   */\n  0x7f\n    /* \"#utility.yul\":4878:4884   */\n  dup3\n    /* \"#utility.yul\":4874:4891   */\n  and\n    /* \"#utility.yul\":4864:4891   */\n  swap2\n  pop\n    /* \"#utility.yul\":4820:4901   */\ntag_107:\n    /* \"#utility.yul\":4948:4950   */\n  0x20\n    /* \"#utility.yul\":4940:4946   */\n  dup3\n    /* \"#utility.yul\":4937:4951   */\n  lt\n    /* \"#utility.yul\":4917:4935   */\n  dup2\n    /* \"#utility.yul\":4914:4952   */\n  sub\n    /* \"#utility.yul\":4911:4995   */\n  tag_108\n  jumpi\n    /* \"#utility.yul\":4967:4985   */\n  tag_109\n  tag_32\n  jump\t// in\ntag_109:\n    /* \"#utility.yul\":4911:4995   */\ntag_108:\n    /* \"#utility.yul\":4732:5001   */\n  pop\n    /* \"#utility.yul\":4681:5001   */\n  swap2\n  swap1\n  pop\n  jump\t// out\n    /* \"#utility.yul\":5007:5148   */\ntag_34:\n    /* \"#utility.yul\":5056:5060   */\n  0x00\n    /* \"#utility.yul\":5079:5082   */\n  dup2\n    /* \"#utility.yul\":5071:5082   */\n  swap1\n  pop\n    /* \"#utility.yul\":5102:5105   */\n  dup2\n    /* \"#utility.yul\":5099:5100   */\n  0x00\n    /* \"#utility.yul\":5092:5106   */\n  mstore\n    /* \"#utility.yul\":5136:5140   */\n  0x20\n    /* \"#utility.yul\":5133:5134   */\n  0x00\n    /* \"#utility.yul\":5123:5141   */\n  keccak256\n    /* \"#utility.yul\":5115:5141   */\n  swap1\n  pop\n    /* \"#utility.yul\":5007:5148   */\n  swap2\n  swap1\n  pop\n  jump\t// out\n    /* \"#utility.yul\":5154:5247   */\ntag_35:\n    /* \"#utility.yul\":5191:5197   */\n  0x00\n    /* \"#utility.yul\":5238:5240   */\n  0x20\n    /* \"#utility.yul\":5233:5235   */\n  0x1f\n    /* \"#utility.yul\":5226:5231   */\n  dup4\n    /* \"#utility.yul\":5222:5236   */\n  add\n    /* \"#utility.yul\":5218:5241   */\n  div\n    /* \"#utility.yul\":5208:5241   */\n  swap1\n  pop\n    /* \"#utility.yul\":5154:5247   */\n  swap2\n  swap1\n  pop\n  jump\t// out\n    /* \"#utility.yul\":5253:5360   */\ntag_36:\n    /* \"#utility.yul\":5297:5305   */\n  0x00\n    /* \"#utility.yul\":5347:5352   */\n  dup3\n    /* \"#utility.yul\":5341:5345   */\n  dup3\n    /* \"#utility.yul\":5337:5353   */\n  shl\n    /* \"#utility.yul\":5316:5353   */\n  swap1\n  pop\n    /* \"#utility.yul\":5253:5360   */\n  swap3\n  swap2\n  pop\n  pop\n  jump\t// out\n    /* \"#utility.yul\":5366:5759   */\ntag_37:\n    /* \"#utility.yul\":5435:5441   */\n  0x00\n    /* \"#utility.yul\":5485:5486   */\n  0x08\n    /* \"#utility.yul\":5473:5483   */\n  dup4\n    /* \"#utility.yul\":5469:5487   */\n  mul\n    /* \"#utility.yul\":5508:5605   */\n  tag_114\n    /* \"#utility.yul\":5538:5604   */\n  0xffffffffffffffffffffffffffffffffffffffffffffffffffffffffffffffff\n    /* \"#utility.yul\":5527:5536   */\n  dup3\n    /* \"#utility.yul\":5508:5605   */\n  tag_36\n  jump\t// in\ntag_114:\n    /* \"#utility.yul\":5626:5665   */\n  tag_115\n    /* \"#utility.yul\":5656:5664   */\n  dup7\n    /* \"#utility.yul\":5645:5654   */\n  dup4\n    /* \"#utility.yul\":5626:5665   */\n  tag_36\n  jump\t// in\ntag_115:\n    /* \"#utility.yul\":5614:5665   */\n  swap6\n  pop\n    /* \"#utility.yul\":5698:5702   */\n  dup1\n    /* \"#utility.yul\":5694:5703   */\n  not\n    /* \"#utility.yul\":5687:5692   */\n  dup5\n    /* \"#utility.yul\":5683:5704   */\n  and\n    /* \"#utility.yul\":5674:5704   */\n  swap4\n  pop\n    /* \"#utility.yul\":5747:5751   */\n  dup1\n    /* \"#utility.yul\":5737:5745   */\n  dup7\n    /* \"#utility.yul\":5733:5752   */\n  and\n    /* \"#utility.yul\":5726:5731   */\n  dup5\n    /* \"#utility.yul\":5723:5753   */\n  or\n    /* \"#utility.yul\":5713:5753   */\n  swap3\n  pop\n    /* \"#utility.yul\":5442:5759   */\n  pop\n  pop\n    /* \"#utility.yul\":5366:5759   */\n  swap4\n  swap3\n  pop\n  pop\n  pop\n  jump\t// out\n    /* \"#utility.yul\":5765:5825   */\ntag_38:\n    /* \"#utility.yul\":5793:5796   */\n  0x00\n    /* \"#utility.yul\":5814:5819   */\n  dup2\n    /* \"#utility.yul\":5807:5819   */\n  swap1\n  pop\n    /* \"#utility.yul\":5765:5825   */\n  swap2\n  swap1\n  pop\n  jump\t// out\n    /* \"#utility.yul\":5831:5973   */\ntag_39:\n    /* \"#utility.yul\":5881:5890   */\n  0x00\n    /* \"#utility.yul\":5914:5967   */\n  tag_118\n    /* \"#utility.yul\":5932:5966   */\n  tag_119\n    /* \"#utility.yul\":5941:5965   */\n  tag_120\n    /* \"#utility.yul\":5959:5964   */\n  dup5\n    /* \"#utility.yul\":5941:5965   */\n  tag_24\n  jump\t// in\ntag_120:\n    /* \"#utility.yul\":5932:5966   */\n  tag_38\n  jump\t// in\ntag_119:\n    /* \"#utility.yul\":5914:5967   */\n  tag_24\n  jump\t// in\ntag_118:\n    /* \"#utility.yul\":5901:5967   */\n  swap1\n  pop\n    /* \"#utility.yul\":5831:5973   */\n  swap2\n  swap1\n  pop\n  jump\t// out\n    /* \"#utility.yul\":5979:6054   */\ntag_40:\n    /* \"#utility.yul\":6022:6025   */\n  0x00\n    /* \"#utility.yul\":6043:6048   */\n  dup2\n    /* \"#utility.yul\":6036:6048   */\n  swap1\n  pop\n    /* \"#utility.yul\":5979:6054   */\n  swap2\n  swap1\n  pop\n  jump\t// out\n    /* \"#utility.yul\":6060:6329   */\ntag_41:\n    /* \"#utility.yul\":6170:6209   */\n  tag_123\n    /* \"#utility.yul\":6201:6208   */\n  dup4\n    /* \"#utility.yul\":6170:6209   */\n  tag_39\n  jump\t// in\ntag_123:\n    /* \"#utility.yul\":6231:6322   */\n  tag_124\n    /* \"#utility.yul\":6280:6321   */\n  tag_125\n    /* \"#utility.yul\":6304:6320   */\n  dup3\n    /* \"#utility.yul\":6280:6321   */\n  tag_40\n  jump\t// in\ntag_125:\n    /* \"#utility.yul\":6272:6278   */\n  dup5\n    /* \"#utility.yul\":6265:6269   */\n  dup5\n    /* \"#utility.yul\":6259:6270   */\n  sload\n    /* \"#utility.yul\":6231:6322   */\n  tag_37\n  jump\t// in\ntag_124:\n    /* \"#utility.yul\":6225:6229   */\n  dup3\n    /* \"#utility.yul\":6218:6323   */\n  sstore\n    /* \"#utility.yul\":6136:6329   */\n  pop\n    /* \"#utility.yul\":6060:6329   */\n  pop\n  pop\n  pop\n  jump\t// out\n    /* \"#utility.yul\":6335:6408   */\ntag_42:\n    /* \"#utility.yul\":6380:6383   */\n  0x00\n    /* \"#utility.yul\":6335:6408   */\n  swap1\n  jump\t// out\n    /* \"#utility.yul\":6414:6603   */\ntag_43:\n    /* \"#utility.yul\":6491:6523   */\n  tag_128\n  tag_42\n  jump\t// in\ntag_128:\n    /* \"#utility.yul\":6532:6597   */\n  tag_129\n    /* \"#utility.yul\":6590:6596   */\n  dup2\n    /* \"#utility.yul\":6582:6588   */\n  dup5\n    /* \"#utility.yul\":6576:6580   */\n  dup5\n    /* \"#utility.yul\":6532:6597   */\n  tag_41\n  jump\t// in\ntag_129:\n    /* \"#utility.yul\":6467:6603   */\n  pop\n    /* \"#utility.yul\":6414:6603   */\n  pop\n  pop\n  jump\t// out\n    /* \"#utility.yul\":6609:6795   */\ntag_44:\n    /* \"#utility.yul\":6669:6789   */\ntag_131:\n    /* \"#utility.yul\":6686:6689   */\n  dup2\n    /* \"#utility.yul\":6679:6684   */\n  dup2\n    /* \"#utility.yul\":6676:6690   */\n  lt\n    /* \"#utility.yul\":6669:6789   */\n  iszero\n  tag_133\n  jumpi\n    /* \"#utility.yul\":6740:6779   */\n  tag_134\n    /* \"#utility.yul\":6777:6778   */\n  0x00\n    /* \"#utility.yul\":6770:6775   */\n  dup3\n    /* \"#utility.yul\":6740:6779   */\n  tag_43\n  jump\t// in\ntag_134:\n    /* \"#utility.yul\":6713:6714   */\n  0x01\n    /* \"#utility.yul\":6706:6711   */\n  dup2\n    /* \"#utility.yul\":6702:6715   */\n  add\n    /* \"#utility.yul\":6693:6715   */\n  swap1\n  pop\n    /* \"#utility.yul\":6669:6789   */\n  jump(tag_131)\ntag_133:\n    /* \"#utility.yul\":6609:6795   */\n  pop\n  pop\n  jump\t// out\n    /* \"#utility.yul\":6801:7344   */\ntag_45:\n    /* \"#utility.yul\":6902:6904   */\n  0x1f\n    /* \"#utility.yul\":6897:6900   */\n  dup3\n    /* \"#utility.yul\":6894:6905   */\n  gt\n    /* \"#utility.yul\":6891:7337   */\n  iszero\n  tag_136\n  jumpi\n    /* \"#utility.yul\":6936:6974   */\n  tag_137\n    /* \"#utility.yul\":6968:6973   */\n  dup2\n    /* \"#utility.yul\":6936:6974   */\n  tag_34\n  jump\t// in\ntag_137:\n    /* \"#utility.yul\":7020:7049   */\n  tag_138\n    /* \"#utility.yul\":7038:7048   */\n  dup5\n    /* \"#utility.yul\":7020:7049   */\n  tag_35\n  jump\t// in\ntag_138:\n    /* \"#utility.yul\":7010:7018   */\n  dup2\n    /* \"#utility.yul\":7006:7050   */\n  add\n    /* \"#utility.yul\":7203:7205   */\n  0x20\n    /* \"#utility.yul\":7191:7201   */\n  dup6\n    /* \"#utility.yul\":7188:7206   */\n  lt\n    /* \"#utility.yul\":7185:7234   */\n  iszero\n  tag_139\n  jumpi\n    /* \"#utility.yul\":7224:7232   */\n  dup2\n    /* \"#utility.yul\":7209:7232   */\n  swap1\n  pop\n    /* \"#utility.yul\":7185:7234   */\ntag_139:\n    /* \"#utility.yul\":7247:7327   */\n  tag_140\n    /* \"#utility.yul\":7303:7325   */\n  tag_141\n    /* \"#utility.yul\":7321:7324   */\n  dup6\n    /* \"#utility.yul\":7303:7325   */\n  tag_35\n  jump\t// in\ntag_141:\n    /* \"#utility.yul\":7293:7301   */\n  dup4\n    /* \"#utility.yul\":7289:7326   */\n  add\n    /* \"#utility.yul\":7276:7287   */\n  dup3\n    /* \"#utility.yul\":7247:7327   */\n  tag_44\n  jump\t// in\ntag_140:\n    /* \"#utility.yul\":6906:7337   */\n  pop\n  pop\n    /* \"#utility.yul\":6891:7337   */\ntag_136:\n    /* \"#utility.yul\":6801:7344   */\n  pop\n  pop\n  pop\n  jump\t// out\n    /* \"#utility.yul\":7350:7467   */\ntag_46:\n    /* \"#utility.yul\":7404:7412   */\n  0x00\n    /* \"#utility.yul\":7454:7459   */\n  dup3\n    /* \"#utility.yul\":7448:7452   */\n  dup3\n    /* \"#utility.yul\":7444:7460   */\n  shr\n    /* \"#utility.yul\":7423:7460   */\n  swap1\n  pop\n    /* \"#utility.yul\":7350:7467   */\n  swap3\n  swap2\n  pop\n  pop\n  jump\t// out\n    /* \"#utility.yul\":7473:7642   */\ntag_47:\n    /* \"#utility.yul\":7517:7523   */\n  0x00\n    /* \"#utility.yul\":7550:7601   */\n  tag_144\n    /* \"#utility.yul\":7598:7599   */\n  0x00\n    /* \"#utility.yul\":7594:7600   */\n  not\n    /* \"#utility.yul\":7586:7591   */\n  dup5\n    /* \"#utility.yul\":7583:7584   */\n  0x08\n    /* \"#utility.yul\":7579:7592   */\n  mul\n    /* \"#utility.yul\":7550:7601   */\n  tag_46\n  jump\t// in\ntag_144:\n    /* \"#utility.yul\":7546:7602   */\n  not\n    /* \"#utility.yul\":7631:7635   */\n  dup1\n    /* \"#utility.yul\":7625:7629   */\n  dup4\n    /* \"#utility.yul\":7621:7636   */\n  and\n    /* \"#utility.yul\":7611:7636   */\n  swap2\n  pop\n    /* \"#utility.yul\":7524:7642   */\n  pop\n    /* \"#utility.yul\":7473:7642   */\n  swap3\n  swap2\n  pop\n  pop\n  jump\t// out\n    /* \"#utility.yul\":7647:7942   */\ntag_48:\n    /* \"#utility.yul\":7723:7727   */\n  0x00\n    /* \"#utility.yul\":7869:7898   */\n  tag_146\n    /* \"#utility.yul\":7894:7897   */\n  dup4\n    /* \"#utility.yul\":7888:7892   */\n  dup4\n    /* \"#utility.yul\":7869:7898   */\n  tag_47\n  jump\t// in\ntag_146:\n    /* \"#utility.yul\":7861:7898   */\n  swap2\n  pop\n    /* \"#utility.yul\":7931:7934   */\n  dup3\n    /* \"#utility.yul\":7928:7929   */\n  0x02\n    /* \"#utility.yul\":7924:7935   */\n  mul\n    /* \"#utility.yul\":7918:7922   */\n  dup3\n    /* \"#utility.yul\":7915:7936   */\n  or\n    /* \"#utility.yul\":7907:7936   */\n  swap1\n  pop\n    /* \"#utility.yul\":7647:7942   */\n  swap3\n  swap2\n  pop\n  pop\n  jump\t// out\n    /* \"#utility.yul\":7947:9342   */\ntag_9:\n    /* \"#utility.yul\":8064:8101   */\n  tag_148\n    /* \"#utility.yul\":8097:8100   */\n  dup3\n    /* \"#utility.yul\":8064:8101   */\n  tag_31\n  jump\t// in\ntag_148:\n    /* \"#utility.yul\":8166:8184   */\n  0xffffffffffffffff\n    /* \"#utility.yul\":8158:8164   */\n  dup2\n    /* \"#utility.yul\":8155:8185   */\n  gt\n    /* \"#utility.yul\":8152:8208   */\n  iszero\n  tag_149\n  jumpi\n    /* \"#utility.yul\":8188:8206   */\n  tag_150\n  tag_17\n  jump\t// in\ntag_150:\n    /* \"#utility.yul\":8152:8208   */\ntag_149:\n    /* \"#utility.yul\":8232:8270   */\n  tag_151\n    /* \"#utility.yul\":8264:8268   */\n  dup3\n    /* \"#utility.yul\":8258:8269   */\n  sload\n    /* \"#utility.yul\":8232:8270   */\n  tag_33\n  jump\t// in\ntag_151:\n    /* \"#utility.yul\":8317:8384   */\n  tag_152\n    /* \"#utility.yul\":8377:8383   */\n  dup3\n    /* \"#utility.yul\":8369:8375   */\n  dup3\n    /* \"#utility.yul\":8363:8367   */\n  dup6\n    /* \"#utility.yul\":8317:8384   */\n  tag_45\n  jump\t// in\ntag_152:\n    /* \"#utility.yul\":8411:8412   */\n  0x00\n    /* \"#utility.yul\":8435:8439   */\n  0x20\n    /* \"#utility.yul\":8422:8439   */\n  swap1\n  pop\n    /* \"#utility.yul\":8467:8469   */\n  0x1f\n    /* \"#utility.yul\":8459:8465   */\n  dup4\n    /* \"#utility.yul\":8456:8470   */\n  gt\n    /* \"#utility.yul\":8484:8485   */\n  0x01\n    /* \"#utility.yul\":8479:9097   */\n  dup2\n  eq\n  tag_154\n  jumpi\n    /* \"#utility.yul\":9141:9142   */\n  0x00\n    /* \"#utility.yul\":9158:9164   */\n  dup5\n    /* \"#utility.yul\":9155:9232   */\n  iszero\n  tag_155\n  jumpi\n    /* \"#utility.yul\":9207:9216   */\n  dup3\n    /* \"#utility.yul\":9202:9205   */\n  dup8\n    /* \"#utility.yul\":9198:9217   */\n  add\n    /* \"#utility.yul\":9192:9218   */\n  mload\n    /* \"#utility.yul\":9183:9218   */\n  swap1\n  pop\n    /* \"#utility.yul\":9155:9232   */\ntag_155:\n    /* \"#utility.yul\":9258:9325   */\n  tag_156\n    /* \"#utility.yul\":9318:9324   */\n  dup6\n    /* \"#utility.yul\":9311:9316   */\n  dup3\n    /* \"#utility.yul\":9258:9325   */\n  tag_48\n  jump\t// in\ntag_156:\n    /* \"#utility.yul\":9252:9256   */\n  dup7\n    /* \"#utility.yul\":9245:9326   */\n  sstore\n    /* \"#utility.yul\":9114:9336   */\n  pop\n    /* \"#utility.yul\":8449:9336   */\n  jump(tag_153)\n    /* \"#utility.yul\":8479:9097   */\ntag_154:\n    /* \"#utility.yul\":8531:8535   */\n  0x1f\n    /* \"#utility.yul\":8527:8536   */\n  not\n    /* \"#utility.yul\":8519:8525   */\n  dup5\n    /* \"#utility.yul\":8515:8537   */\n  and\n    /* \"#utility.yul\":8565:8602   */\n  tag_157\n    /* \"#utility.yul\":8597:8601   */\n  dup7\n    /* \"#utility.yul\":8565:8602   */\n  tag_34\n  jump\t// in\ntag_157:\n    /* \"#utility.yul\":8624:8625   */\n  0x00\n    /* \"#utility.yul\":8638:8846   */\ntag_158:\n    /* \"#utility.yul\":8652:8659   */\n  dup3\n    /* \"#utility.yul\":8649:8650   */\n  dup2\n    /* \"#utility.yul\":8646:8660   */\n  lt\n    /* \"#utility.yul\":8638:8846   */\n  iszero\n  tag_160\n  jumpi\n    /* \"#utility.yul\":8731:8740   */\n  dup5\n    /* \"#utility.yul\":8726:8729   */\n  dup10\n    /* \"#utility.yul\":8722:8741   */\n  add\n    /* \"#utility.yul\":8716:8742   */\n  mload\n    /* \"#utility.yul\":8708:8714   */\n  dup3\n    /* \"#utility.yul\":8701:8743   */\n  sstore\n    /* \"#utility.yul\":8782:8783   */\n  0x01\n    /* \"#utility.yul\":8774:8780   */\n  dup3\n    /* \"#utility.yul\":8770:8784   */\n  add\n    /* \"#utility.yul\":8760:8784   */\n  swap2\n  pop\n    /* \"#utility.yul\":8829:8831   */\n  0x20\n    /* \"#utility.yul\":8818:8827   */\n  dup6\n    /* \"#utility.yul\":8814:8832   */\n  add\n    /* \"#utility.yul\":8801:8832   */\n  swap5\n  pop\n    /* \"#utility.yul\":8675:8679   */\n  0x20\n    /* \"#utility.yul\":8672:8673   */\n  dup2\n    /* \"#utility.yul\":8668:8680   */\n  add\n    /* \"#utility.yul\":8663:8680   */\n  swap1\n  pop\n    /* \"#utility.yul\":8638:8846   */\n  jump(tag_158)\ntag_160:\n    /* \"#utility.yul\":8874:8880   */\n  dup7\n    /* \"#utility.yul\":8865:8872   */\n  dup4\n    /* \"#utility.yul\":8862:8881   */\n  lt\n    /* \"#utility.yul\":8859:9038   */\n  iszero\n  tag_161\n  jumpi\n    /* \"#utility.yul\":8932:8941   */\n  dup5\n    /* \"#utility.yul\":8927:8930   */\n  dup10\n    /* \"#utility.yul\":8923:8942   */\n  add\n    /* \"#utility.yul\":8917:8943   */\n  mload\n    /* \"#utility.yul\":8975:9023   */\n  tag_162\n    /* \"#utility.yul\":9017:9021   */\n  0x1f\n    /* \"#utility.yul\":9009:9015   */\n  dup10\n    /* \"#utility.yul\":9005:9022   */\n  and\n    /* \"#utility.yul\":8994:9003   */\n  dup3\n    /* \"#utility.yul\":8975:9023   */\n  tag_47\n  jump\t// in\ntag_162:\n    /* \"#utility.yul\":8967:8973   */\n  dup4\n    /* \"#utility.yul\":8960:9024   */\n  sstore\n    /* \"#utility.yul\":8882:9038   */\n  pop\n    /* \"#utility.yul\":8859:9038   */\ntag_161:\n    /* \"#utility.yul\":9084:9085   */\n  0x01\n    /* \"#utility.yul\":9080:9081   */\n  0x02\n    /* \"#utility.yul\":9072:9078   */\n  dup9\n    /* \"#utility.yul\":9068:9082   */\n  mul\n    /* \"#utility.yul\":9064:9086   */\n  add\n    /* \"#utility.yul\":9058:9062   */\n  dup9\n    /* \"#utility.yul\":9051:9087   */\n  sstore\n    /* \"#utility.yul\":8486:9097   */\n  pop\n  pop\n  pop\n    /* \"#utility.yul\":8449:9336   */\ntag_153:\n  pop\n    /* \"#utility.yul\":8039:9342   */\n  pop\n  pop\n  pop\n    /* \"#utility.yul\":7947:9342   */\n  pop\n  pop\n  jump\t// out\n    /* \"contracts/Product.sol\":87:6340  contract Product is Ownable{... */\ntag_10:\n  dataSize(sub_0)\n  dup1\n  dataOffset(sub_0)\n  0x00\n  codecopy\n  0x00\n  return\nstop\n\nsub_0: assembly {\n        /* \"contracts/Product.sol\":87:6340  contract Product is Ownable{... */\n      mstore(0x40, 0x80)\n      callvalue\n      dup1\n      iszero\n      tag_1\n      jumpi\n      0x00\n      dup1\n      revert\n    tag_1:\n      pop\n      jumpi(tag_2, lt(calldatasize, 0x04))\n      shr(0xe0, calldataload(0x00))\n      dup1\n      0x7d2cb98d\n      gt\n      tag_32\n      jumpi\n      dup1\n      0xc524e7f6\n      gt\n      tag_33\n      jumpi\n      dup1\n      0xd4f6c1ff\n      gt\n      tag_34\n      jumpi\n      dup1\n      0xd4f6c1ff\n      eq\n      tag_28\n      jumpi\n      dup1\n      0xe5ab27e3\n      eq\n      tag_29\n      jumpi\n      dup1\n      0xe6ca2977\n      eq\n      tag_30\n      jumpi\n      dup1\n      0xe87ccdda\n      eq\n      tag_31\n      jumpi\n      jump(tag_2)\n    tag_34:\n      dup1\n      0xc524e7f6\n      eq\n      tag_24\n      jumpi\n      dup1\n      0xcaa4fbbd\n      eq\n      tag_25\n      jumpi\n      dup1\n      0xcae5f950\n      eq\n      tag_26\n      jumpi\n      dup1\n      0xd03678cb\n      eq\n      tag_27\n      jumpi\n      jump(tag_2)\n    tag_33:\n      dup1\n      0xa022be05\n      gt\n      tag_35\n      jumpi\n      dup1\n      0xa022be05\n      eq\n      tag_20\n      jumpi\n      dup1\n      0xbed2aefe\n      eq\n      tag_21\n      jumpi\n      dup1\n      0xc172f9b8\n      eq\n      tag_22\n      jumpi\n      dup1\n      0xc28388fa\n      eq\n      tag_23\n      jumpi\n      jump(tag_2)\n    tag_35:\n      dup1\n      0x7d2cb98d\n      eq\n      tag_17\n      jumpi\n      dup1\n      0x8da5cb5b\n      eq\n      tag_18\n      jumpi\n      dup1\n      0x9155e45b\n      eq\n      tag_19\n      jumpi\n      jump(tag_2)\n    tag_32:\n      dup1\n      0x481fd6b5\n      gt\n      tag_36\n      jumpi\n      dup1\n      0x76efa463\n      gt\n      tag_37\n      jumpi\n      dup1\n      0x76efa463\n      eq\n      tag_13\n      jumpi\n      dup1\n      0x78fb654a\n      eq\n      tag_14\n      jumpi\n      dup1\n      0x7acc0b20\n      eq\n      tag_15\n      jumpi\n      dup1\n      0x7b9f1976\n      eq\n      tag_16\n      jumpi\n      jump(tag_2)\n    tag_37:\n      dup1\n      0x481fd6b5\n      eq\n      tag_10\n      jumpi\n      dup1\n      0x55c1c478\n      eq\n      tag_11\n      jumpi\n      dup1\n      0x5789726a\n      eq\n      tag_12\n      jumpi\n      jump(tag_2)\n    tag_36:\n      dup1\n      0x244ded7a\n      gt\n      tag_38\n      jumpi\n      dup1\n      0x244ded7a\n      eq\n      tag_6\n      jumpi\n      dup1\n      0x28a3d83a\n      eq\n      tag_7\n      jumpi\n      dup1\n      0x3d527883\n      eq\n      tag_8\n      jumpi\n      dup1\n      0x3fad4a37\n      eq\n      tag_9\n      jumpi\n      jump(tag_2)\n    tag_38:\n      dup1\n      0x0373e405\n      eq\n      tag_3\n      jumpi\n      dup1\n      0x04a3f393\n      eq\n      tag_4\n      jumpi\n      dup1\n      0x08b008ff\n      eq\n      tag_5\n      jumpi\n    tag_2:\n      0x00\n      dup1\n      revert\n        /* \"contracts/Product.sol\":5664:6310  function Do_Handshake_To_Predecessor(address predecessor_address) public returns(bool){... */\n    tag_3:\n      tag_39\n      0x04\n      dup1\n      calldatasize\n      sub\n      dup2\n      add\n      swap1\n      tag_40\n      swap2\n      swap1\n      tag_41\n      jump\t// in\n    tag_40:\n      tag_42\n      jump\t// in\n    tag_39:\n      mload(0x40)\n      tag_43\n      swap2\n      swap1\n      tag_44\n      jump\t// in\n    tag_43:\n      mload(0x40)\n      dup1\n      swap2\n      sub\n      swap1\n      return\n        /* \"contracts/Product.sol\":2372:2508  function Set_CarbonFootPrint(uint new_CarbonFootprint) public onlyOwner{... */\n    tag_4:\n      tag_45\n      0x04\n      dup1\n      calldatasize\n      sub\n      dup2\n      add\n      swap1\n      tag_46\n      swap2\n      swap1\n      tag_47\n      jump\t// in\n    tag_46:\n      tag_48\n      jump\t// in\n    tag_45:\n      stop\n        /* \"contracts/Product.sol\":1818:2078  function Set_PredecessorCandidateIds(address[] calldata new_predecessorIds) public onlyOwner{... */\n    tag_5:\n      tag_49\n      0x04\n      dup1\n      calldatasize\n      sub\n      dup2\n      add\n      swap1\n      tag_50\n      swap2\n      swap1\n      tag_51\n      jump\t// in\n    tag_50:\n      tag_52\n      jump\t// in\n    tag_49:\n      stop\n        /* \"contracts/Ownable.sol\":295:390  function ChangeOwnership(address newOwner) public  onlyOwner{... */\n    tag_6:\n      tag_53\n      0x04\n      dup1\n      calldatasize\n      sub\n      dup2\n      add\n      swap1\n      tag_54\n      swap2\n      swap1\n      tag_41\n      jump\t// in\n    tag_54:\n      tag_55\n      jump\t// in\n    tag_53:\n      stop\n        /* \"contracts/Product.sol\":3179:3291  function Get_Successors() external view returns(address[] memory){... */\n    tag_7:\n      tag_56\n      tag_57\n      jump\t// in\n    tag_56:\n      mload(0x40)\n      tag_58\n      swap2\n      swap1\n      tag_59\n      jump\t// in\n    tag_58:\n      mload(0x40)\n      dup1\n      swap2\n      sub\n      swap1\n      return\n        /* \"contracts/Product.sol\":738:787  mapping(address => uint256[]) public userProducts */\n    tag_8:\n      tag_60\n      0x04\n      dup1\n      calldatasize\n      sub\n      dup2\n      add\n      swap1\n      tag_61\n      swap2\n      swap1\n      tag_62\n      jump\t// in\n    tag_61:\n      tag_63\n      jump\t// in\n    tag_60:\n      mload(0x40)\n      tag_64\n      swap2\n      swap1\n      tag_65\n      jump\t// in\n    tag_64:\n      mload(0x40)\n      dup1\n      swap2\n      sub\n      swap1\n      return\n        /* \"contracts/Product.sol\":4375:4680  function Accept_SuccessorCandidate() public {... */\n    tag_9:\n      tag_66\n      tag_67\n      jump\t// in\n    tag_66:\n      stop\n        /* \"contracts/Product.sol\":3529:3625  function Get_Name() external view returns (string memory){... */\n    tag_10:\n      tag_68\n      tag_69\n      jump\t// in\n    tag_68:\n      mload(0x40)\n      tag_70\n      swap2\n      swap1\n      tag_71\n      jump\t// in\n    tag_70:\n      mload(0x40)\n      dup1\n      swap2\n      sub\n      swap1\n      return\n        /* \"contracts/Product.sol\":3850:3947  function Get_Owner() external view returns(address owner){... */\n    tag_11:\n      tag_72\n      tag_73\n      jump\t// in\n    tag_72:\n      mload(0x40)\n      tag_74\n      swap2\n      swap1\n      tag_75\n      jump\t// in\n    tag_74:\n      mload(0x40)\n      dup1\n      swap2\n      sub\n      swap1\n      return\n        /* \"contracts/Product.sol\":2238:2364  function Set_LabelIds(address[] calldata new_LabelIds) public onlyOwner{... */\n    tag_12:\n      tag_76\n      0x04\n      dup1\n      calldatasize\n      sub\n      dup2\n      add\n      swap1\n      tag_77\n      swap2\n      swap1\n      tag_51\n      jump\t// in\n    tag_77:\n      tag_78\n      jump\t// in\n    tag_76:\n      stop\n        /* \"contracts/Product.sol\":4688:5001  function Accept_PredecessorCandidate() public {... */\n    tag_13:\n      tag_79\n      tag_80\n      jump\t// in\n    tag_79:\n      stop\n        /* \"contracts/Product.sol\":2516:2608  function Set_IsValue(bool value) public onlyOwner{... */\n    tag_14:\n      tag_81\n      0x04\n      dup1\n      calldatasize\n      sub\n      dup2\n      add\n      swap1\n      tag_82\n      swap2\n      swap1\n      tag_83\n      jump\t// in\n    tag_82:\n      tag_84\n      jump\t// in\n    tag_81:\n      stop\n        /* \"contracts/Product.sol\":687:731  mapping(uint256 => Instance) public products */\n    tag_15:\n      tag_85\n      0x04\n      dup1\n      calldatasize\n      sub\n      dup2\n      add\n      swap1\n      tag_86\n      swap2\n      swap1\n      tag_47\n      jump\t// in\n    tag_86:\n      tag_87\n      jump\t// in\n    tag_85:\n      mload(0x40)\n      tag_88\n      swap7\n      swap6\n      swap5\n      swap4\n      swap3\n      swap2\n      swap1\n      tag_89\n      jump\t// in\n    tag_88:\n      mload(0x40)\n      dup1\n      swap2\n      sub\n      swap1\n      return\n        /* \"contracts/Product.sol\":3733:3842  function Get_CarbonFootprint() external  view returns(uint){... */\n    tag_16:\n      tag_90\n      tag_91\n      jump\t// in\n    tag_90:\n      mload(0x40)\n      tag_92\n      swap2\n      swap1\n      tag_65\n      jump\t// in\n    tag_92:\n      mload(0x40)\n      dup1\n      swap2\n      sub\n      swap1\n      return\n        /* \"contracts/Product.sol\":3057:3173  function Get_Predecessors() external view returns(address[] memory){... */\n    tag_17:\n      tag_93\n      tag_94\n      jump\t// in\n    tag_93:\n      mload(0x40)\n      tag_95\n      swap2\n      swap1\n      tag_59\n      jump\t// in\n    tag_95:\n      mload(0x40)\n      dup1\n      swap2\n      sub\n      swap1\n      return\n        /* \"contracts/Ownable.sol\":97:117  address public owner */\n    tag_18:\n      tag_96\n      tag_97\n      jump\t// in\n    tag_96:\n      mload(0x40)\n      tag_98\n      swap2\n      swap1\n      tag_75\n      jump\t// in\n    tag_98:\n      mload(0x40)\n      dup1\n      swap2\n      sub\n      swap1\n      return\n        /* \"contracts/Product.sol\":1301:1404  function Set_Name(string calldata new_name) public onlyOwner{... */\n    tag_19:\n      tag_99\n      0x04\n      dup1\n      calldatasize\n      sub\n      dup2\n      add\n      swap1\n      tag_100\n      swap2\n      swap1\n      tag_101\n      jump\t// in\n    tag_100:\n      tag_102\n      jump\t// in\n    tag_99:\n      stop\n        /* \"contracts/Product.sol\":1412:1550  function Set_SuccessorIds(address[] calldata new_successorIds) public onlyOwner{... */\n    tag_20:\n      tag_103\n      0x04\n      dup1\n      calldatasize\n      sub\n      dup2\n      add\n      swap1\n      tag_104\n      swap2\n      swap1\n      tag_51\n      jump\t// in\n    tag_104:\n      tag_105\n      jump\t// in\n    tag_103:\n      stop\n        /* \"contracts/Product.sol\":5009:5652  function Do_Handshake_To_Successor(address successor_address) public returns(bool){... */\n    tag_21:\n      tag_106\n      0x04\n      dup1\n      calldatasize\n      sub\n      dup2\n      add\n      swap1\n      tag_107\n      swap2\n      swap1\n      tag_41\n      jump\t// in\n    tag_107:\n      tag_108\n      jump\t// in\n    tag_106:\n      mload(0x40)\n      tag_109\n      swap2\n      swap1\n      tag_44\n      jump\t// in\n    tag_109:\n      mload(0x40)\n      dup1\n      swap2\n      sub\n      swap1\n      return\n        /* \"contracts/Product.sol\":1558:1810  function Set_SuccessorCandadiateIds(address[] calldata new_successorIds) public onlyOwner{... */\n    tag_22:\n      tag_110\n      0x04\n      dup1\n      calldatasize\n      sub\n      dup2\n      add\n      swap1\n      tag_111\n      swap2\n      swap1\n      tag_51\n      jump\t// in\n    tag_111:\n      tag_112\n      jump\t// in\n    tag_110:\n      stop\n        /* \"contracts/Product.sol\":2086:2230  function Set_PredecessorIds(address[] calldata new_predecessorIds) public onlyOwner{... */\n    tag_23:\n      tag_113\n      0x04\n      dup1\n      calldatasize\n      sub\n      dup2\n      add\n      swap1\n      tag_114\n      swap2\n      swap1\n      tag_51\n      jump\t// in\n    tag_114:\n      tag_115\n      jump\t// in\n    tag_113:\n      stop\n        /* \"contracts/Product.sol\":3411:3521  function Get_IpfsAddress() external view returns(string memory){... */\n    tag_24:\n      tag_116\n      tag_117\n      jump\t// in\n    tag_116:\n      mload(0x40)\n      tag_118\n      swap2\n      swap1\n      tag_71\n      jump\t// in\n    tag_118:\n      mload(0x40)\n      dup1\n      swap2\n      sub\n      swap1\n      return\n        /* \"contracts/Product.sol\":3633:3725  function Get_IsValue() external view returns(bool){... */\n    tag_25:\n      tag_119\n      tag_120\n      jump\t// in\n    tag_119:\n      mload(0x40)\n      tag_121\n      swap2\n      swap1\n      tag_44\n      jump\t// in\n    tag_121:\n      mload(0x40)\n      dup1\n      swap2\n      sub\n      swap1\n      return\n        /* \"contracts/Product.sol\":4190:4363  function Has_PredecessorCandidate(address predecessorAddress) public view returns(bool){... */\n    tag_26:\n      tag_122\n      0x04\n      dup1\n      calldatasize\n      sub\n      dup2\n      add\n      swap1\n      tag_123\n      swap2\n      swap1\n      tag_41\n      jump\t// in\n    tag_123:\n      tag_124\n      jump\t// in\n    tag_122:\n      mload(0x40)\n      tag_125\n      swap2\n      swap1\n      tag_44\n      jump\t// in\n    tag_125:\n      mload(0x40)\n      dup1\n      swap2\n      sub\n      swap1\n      return\n        /* \"contracts/Product.sol\":2930:3049  function Get_Predecessor_Count() external view returns(uint256){... */\n    tag_27:\n      tag_126\n      tag_127\n      jump\t// in\n    tag_126:\n      mload(0x40)\n      tag_128\n      swap2\n      swap1\n      tag_65\n      jump\t// in\n    tag_128:\n      mload(0x40)\n      dup1\n      swap2\n      sub\n      swap1\n      return\n        /* \"contracts/Product.sol\":4015:4182  function Has_SuccessorCandidate(address successorAddress) public view returns(bool){... */\n    tag_28:\n      tag_129\n      0x04\n      dup1\n      calldatasize\n      sub\n      dup2\n      add\n      swap1\n      tag_130\n      swap2\n      swap1\n      tag_41\n      jump\t// in\n    tag_130:\n      tag_131\n      jump\t// in\n    tag_129:\n      mload(0x40)\n      tag_132\n      swap2\n      swap1\n      tag_44\n      jump\t// in\n    tag_132:\n      mload(0x40)\n      dup1\n      swap2\n      sub\n      swap1\n      return\n        /* \"contracts/Product.sol\":2616:2735  function Set_IPFS(string calldata _ipfsAddress) public onlyOwner{... */\n    tag_29:\n      tag_133\n      0x04\n      dup1\n      calldatasize\n      sub\n      dup2\n      add\n      swap1\n      tag_134\n      swap2\n      swap1\n      tag_101\n      jump\t// in\n    tag_134:\n      tag_135\n      jump\t// in\n    tag_133:\n      stop\n        /* \"contracts/Product.sol\":3297:3403  function Get_LabelIDs() external view returns(address[] memory){... */\n    tag_30:\n      tag_136\n      tag_137\n      jump\t// in\n    tag_136:\n      mload(0x40)\n      tag_138\n      swap2\n      swap1\n      tag_59\n      jump\t// in\n    tag_138:\n      mload(0x40)\n      dup1\n      swap2\n      sub\n      swap1\n      return\n        /* \"contracts/Product.sol\":2807:2922  function Get_Successor_Count() external view returns(uint256){... */\n    tag_31:\n      tag_139\n      tag_140\n      jump\t// in\n    tag_139:\n      mload(0x40)\n      tag_141\n      swap2\n      swap1\n      tag_65\n      jump\t// in\n    tag_141:\n      mload(0x40)\n      dup1\n      swap2\n      sub\n      swap1\n      return\n        /* \"contracts/Product.sol\":5664:6310  function Do_Handshake_To_Predecessor(address predecessor_address) public returns(bool){... */\n    tag_42:\n        /* \"contracts/Product.sol\":5745:5749  bool */\n      0x00\n        /* \"contracts/Product.sol\":5761:5780  Product predecessor */\n      dup1\n        /* \"contracts/Product.sol\":5791:5810  predecessor_address */\n      dup3\n        /* \"contracts/Product.sol\":5761:5811  Product predecessor = Product(predecessor_address) */\n      swap1\n      pop\n        /* \"contracts/Product.sol\":5827:5838  predecessor */\n      dup1\n        /* \"contracts/Product.sol\":5827:5863  predecessor.Has_PredecessorCandidate */\n      0xffffffffffffffffffffffffffffffffffffffff\n      and\n      0xcae5f950\n        /* \"contracts/Product.sol\":5872:5876  this */\n      address\n        /* \"contracts/Product.sol\":5827:5878  predecessor.Has_PredecessorCandidate(address(this)) */\n      mload(0x40)\n      dup3\n      0xffffffff\n      and\n      0xe0\n      shl\n      dup2\n      mstore\n      0x04\n      add\n      tag_143\n      swap2\n      swap1\n      tag_75\n      jump\t// in\n    tag_143:\n      0x20\n      mload(0x40)\n      dup1\n      dup4\n      sub\n      dup2\n      dup7\n      gas\n      staticcall\n      iszero\n      dup1\n      iszero\n      tag_145\n      jumpi\n      returndatasize\n      0x00\n      dup1\n      returndatacopy\n      revert(0x00, returndatasize)\n    tag_145:\n      pop\n      pop\n      pop\n      pop\n      mload(0x40)\n      returndatasize\n      not(0x1f)\n      0x1f\n      dup3\n      add\n      and\n      dup3\n      add\n      dup1\n      0x40\n      mstore\n      pop\n      dup2\n      add\n      swap1\n      tag_146\n      swap2\n      swap1\n      tag_147\n      jump\t// in\n    tag_146:\n        /* \"contracts/Product.sol\":5824:6303  if(predecessor.Has_PredecessorCandidate(address(this))){... */\n      iszero\n      tag_148\n      jumpi\n        /* \"contracts/Product.sol\":5894:5902  instance */\n      0x03\n        /* \"contracts/Product.sol\":5894:5917  instance.PredecessorIds */\n      0x07\n      add\n        /* \"contracts/Product.sol\":5923:5942  predecessor_address */\n      dup4\n        /* \"contracts/Product.sol\":5894:5943  instance.PredecessorIds.push(predecessor_address) */\n      swap1\n      dup1\n      0x01\n      dup2\n      sload\n      add\n      dup1\n      dup3\n      sstore\n      dup1\n      swap2\n      pop\n      pop\n      0x01\n      swap1\n      sub\n      swap1\n      0x00\n      mstore\n      keccak256(0x00, 0x20)\n      add\n      0x00\n      swap1\n      swap2\n      swap1\n      swap2\n      swap1\n      swap2\n      0x0100\n      exp\n      dup2\n      sload\n      dup2\n      0xffffffffffffffffffffffffffffffffffffffff\n      mul\n      not\n      and\n      swap1\n      dup4\n      0xffffffffffffffffffffffffffffffffffffffff\n      and\n      mul\n      or\n      swap1\n      sstore\n      pop\n        /* \"contracts/Product.sol\":5958:5969  predecessor */\n      dup1\n        /* \"contracts/Product.sol\":5958:5995  predecessor.Accept_SuccessorCandidate */\n      0xffffffffffffffffffffffffffffffffffffffff\n      and\n      0x3fad4a37\n        /* \"contracts/Product.sol\":5958:5997  predecessor.Accept_SuccessorCandidate() */\n      mload(0x40)\n      dup2\n      0xffffffff\n      and\n      0xe0\n      shl\n      dup2\n      mstore\n      0x04\n      add\n      0x00\n      mload(0x40)\n      dup1\n      dup4\n      sub\n      dup2\n      0x00\n      dup8\n      dup1\n      extcodesize\n      iszero\n      dup1\n      iszero\n      tag_150\n      jumpi\n      0x00\n      dup1\n      revert\n    tag_150:\n      pop\n      gas\n      call\n      iszero\n      dup1\n      iszero\n      tag_152\n      jumpi\n      returndatasize\n      0x00\n      dup1\n      returndatacopy\n      revert(0x00, returndatasize)\n    tag_152:\n      pop\n      pop\n      pop\n      pop\n        /* \"contracts/Product.sol\":6031:6065  HandShakeDone(\"Predecessor\", true) */\n      0xbc2e9d8256e6321f63db02bd9af862997b6e16689fdf6ba219d5970fd5a0c447\n        /* \"contracts/Product.sol\":6060:6064  true */\n      0x01\n        /* \"contracts/Product.sol\":6031:6065  HandShakeDone(\"Predecessor\", true) */\n      mload(0x40)\n      tag_153\n      swap2\n      swap1\n      tag_154\n      jump\t// in\n    tag_153:\n      mload(0x40)\n      dup1\n      swap2\n      sub\n      swap1\n      log1\n        /* \"contracts/Product.sol\":6087:6091  true */\n      0x01\n        /* \"contracts/Product.sol\":6080:6091  return true */\n      swap2\n      pop\n      pop\n      jump(tag_142)\n        /* \"contracts/Product.sol\":5824:6303  if(predecessor.Has_PredecessorCandidate(address(this))){... */\n    tag_148:\n        /* \"contracts/Product.sol\":6132:6140  instance */\n      0x03\n        /* \"contracts/Product.sol\":6132:6174  instance.PredecessorIdIsHandshakeCandidate */\n      dup1\n      add\n        /* \"contracts/Product.sol\":6132:6195  instance.PredecessorIdIsHandshakeCandidate[predecessor_address] */\n      0x00\n        /* \"contracts/Product.sol\":6175:6194  predecessor_address */\n      dup5\n        /* \"contracts/Product.sol\":6132:6195  instance.PredecessorIdIsHandshakeCandidate[predecessor_address] */\n      0xffffffffffffffffffffffffffffffffffffffff\n      and\n      0xffffffffffffffffffffffffffffffffffffffff\n      and\n      dup2\n      mstore\n      0x20\n      add\n      swap1\n      dup2\n      mstore\n      0x20\n      add\n      0x00\n      keccak256\n      0x00\n      swap1\n      sload\n      swap1\n      0x0100\n      exp\n      swap1\n      pop\n      pop\n        /* \"contracts/Product.sol\":6229:6264  HandShakeDone(\"Predecessor\", false) */\n      0xbc2e9d8256e6321f63db02bd9af862997b6e16689fdf6ba219d5970fd5a0c447\n        /* \"contracts/Product.sol\":6258:6263  false */\n      0x00\n        /* \"contracts/Product.sol\":6229:6264  HandShakeDone(\"Predecessor\", false) */\n      mload(0x40)\n      tag_156\n      swap2\n      swap1\n      tag_154\n      jump\t// in\n    tag_156:\n      mload(0x40)\n      dup1\n      swap2\n      sub\n      swap1\n      log1\n        /* \"contracts/Product.sol\":6286:6291  false */\n      0x00\n        /* \"contracts/Product.sol\":6279:6291  return false */\n      swap2\n      pop\n      pop\n        /* \"contracts/Product.sol\":5664:6310  function Do_Handshake_To_Predecessor(address predecessor_address) public returns(bool){... */\n    tag_142:\n      swap2\n      swap1\n      pop\n      jump\t// out\n        /* \"contracts/Product.sol\":2372:2508  function Set_CarbonFootPrint(uint new_CarbonFootprint) public onlyOwner{... */\n    tag_48:\n        /* \"contracts/Ownable.sol\":237:242  owner */\n      0x00\n      dup1\n      sload\n      swap1\n      0x0100\n      exp\n      swap1\n      div\n      0xffffffffffffffffffffffffffffffffffffffff\n      and\n        /* \"contracts/Ownable.sol\":223:242  msg.sender == owner */\n      0xffffffffffffffffffffffffffffffffffffffff\n      and\n        /* \"contracts/Ownable.sol\":223:233  msg.sender */\n      caller\n        /* \"contracts/Ownable.sol\":223:242  msg.sender == owner */\n      0xffffffffffffffffffffffffffffffffffffffff\n      and\n      eq\n        /* \"contracts/Ownable.sol\":215:267  require(msg.sender == owner, 'caller must be owner') */\n      tag_158\n      jumpi\n      mload(0x40)\n      0x08c379a000000000000000000000000000000000000000000000000000000000\n      dup2\n      mstore\n      0x04\n      add\n      tag_159\n      swap1\n      tag_160\n      jump\t// in\n    tag_159:\n      mload(0x40)\n      dup1\n      swap2\n      sub\n      swap1\n      revert\n    tag_158:\n        /* \"contracts/Product.sol\":2481:2500  new_CarbonFootprint */\n      dup1\n        /* \"contracts/Product.sol\":2454:2462  instance */\n      0x03\n        /* \"contracts/Product.sol\":2454:2478  instance.CarbonFootprint */\n      0x0a\n      add\n        /* \"contracts/Product.sol\":2454:2500  instance.CarbonFootprint = new_CarbonFootprint */\n      dup2\n      swap1\n      sstore\n      pop\n        /* \"contracts/Product.sol\":2372:2508  function Set_CarbonFootPrint(uint new_CarbonFootprint) public onlyOwner{... */\n      pop\n      jump\t// out\n        /* \"contracts/Product.sol\":1818:2078  function Set_PredecessorCandidateIds(address[] calldata new_predecessorIds) public onlyOwner{... */\n    tag_52:\n        /* \"contracts/Ownable.sol\":237:242  owner */\n      0x00\n      dup1\n      sload\n      swap1\n      0x0100\n      exp\n      swap1\n      div\n      0xffffffffffffffffffffffffffffffffffffffff\n      and\n        /* \"contracts/Ownable.sol\":223:242  msg.sender == owner */\n      0xffffffffffffffffffffffffffffffffffffffff\n      and\n        /* \"contracts/Ownable.sol\":223:233  msg.sender */\n      caller\n        /* \"contracts/Ownable.sol\":223:242  msg.sender == owner */\n      0xffffffffffffffffffffffffffffffffffffffff\n      and\n      eq\n        /* \"contracts/Ownable.sol\":215:267  require(msg.sender == owner, 'caller must be owner') */\n      tag_163\n      jumpi\n      mload(0x40)\n      0x08c379a000000000000000000000000000000000000000000000000000000000\n      dup2\n      mstore\n      0x04\n      add\n      tag_164\n      swap1\n      tag_160\n      jump\t// in\n    tag_164:\n      mload(0x40)\n      dup1\n      swap2\n      sub\n      swap1\n      revert\n    tag_163:\n        /* \"contracts/Product.sol\":1925:1931  uint i */\n      0x00\n        /* \"contracts/Product.sol\":1921:2071  for(uint i = 0; i < new_predecessorIds.length; i++){... */\n    tag_166:\n        /* \"contracts/Product.sol\":1941:1959  new_predecessorIds */\n      dup3\n      dup3\n        /* \"contracts/Product.sol\":1941:1966  new_predecessorIds.length */\n      swap1\n      pop\n        /* \"contracts/Product.sol\":1937:1938  i */\n      dup2\n        /* \"contracts/Product.sol\":1937:1966  i < new_predecessorIds.length */\n      lt\n        /* \"contracts/Product.sol\":1921:2071  for(uint i = 0; i < new_predecessorIds.length; i++){... */\n      iszero\n      tag_167\n      jumpi\n        /* \"contracts/Product.sol\":2055:2059  true */\n      0x01\n        /* \"contracts/Product.sol\":1987:1995  instance */\n      0x03\n        /* \"contracts/Product.sol\":1987:2029  instance.PredecessorIdIsHandshakeCandidate */\n      dup1\n      add\n        /* \"contracts/Product.sol\":1987:2052  instance.PredecessorIdIsHandshakeCandidate[new_predecessorIds[i]] */\n      0x00\n        /* \"contracts/Product.sol\":2030:2048  new_predecessorIds */\n      dup6\n      dup6\n        /* \"contracts/Product.sol\":2049:2050  i */\n      dup6\n        /* \"contracts/Product.sol\":2030:2051  new_predecessorIds[i] */\n      dup2\n      dup2\n      lt\n      tag_169\n      jumpi\n      tag_170\n      tag_171\n      jump\t// in\n    tag_170:\n    tag_169:\n      swap1\n      pop\n      0x20\n      mul\n      add\n      0x20\n      dup2\n      add\n      swap1\n      tag_172\n      swap2\n      swap1\n      tag_41\n      jump\t// in\n    tag_172:\n        /* \"contracts/Product.sol\":1987:2052  instance.PredecessorIdIsHandshakeCandidate[new_predecessorIds[i]] */\n      0xffffffffffffffffffffffffffffffffffffffff\n      and\n      0xffffffffffffffffffffffffffffffffffffffff\n      and\n      dup2\n      mstore\n      0x20\n      add\n      swap1\n      dup2\n      mstore\n      0x20\n      add\n      0x00\n      keccak256\n      0x00\n        /* \"contracts/Product.sol\":1987:2059  instance.PredecessorIdIsHandshakeCandidate[new_predecessorIds[i]] = true */\n      0x0100\n      exp\n      dup2\n      sload\n      dup2\n      0xff\n      mul\n      not\n      and\n      swap1\n      dup4\n      iszero\n      iszero\n      mul\n      or\n      swap1\n      sstore\n      pop\n        /* \"contracts/Product.sol\":1968:1971  i++ */\n      dup1\n      dup1\n      tag_173\n      swap1\n      tag_174\n      jump\t// in\n    tag_173:\n      swap2\n      pop\n      pop\n        /* \"contracts/Product.sol\":1921:2071  for(uint i = 0; i < new_predecessorIds.length; i++){... */\n      jump(tag_166)\n    tag_167:\n      pop\n        /* \"contracts/Product.sol\":1818:2078  function Set_PredecessorCandidateIds(address[] calldata new_predecessorIds) public onlyOwner{... */\n      pop\n      pop\n      jump\t// out\n        /* \"contracts/Ownable.sol\":295:390  function ChangeOwnership(address newOwner) public  onlyOwner{... */\n    tag_55:\n        /* \"contracts/Ownable.sol\":237:242  owner */\n      0x00\n      dup1\n      sload\n      swap1\n      0x0100\n      exp\n      swap1\n      div\n      0xffffffffffffffffffffffffffffffffffffffff\n      and\n        /* \"contracts/Ownable.sol\":223:242  msg.sender == owner */\n      0xffffffffffffffffffffffffffffffffffffffff\n      and\n        /* \"contracts/Ownable.sol\":223:233  msg.sender */\n      caller\n        /* \"contracts/Ownable.sol\":223:242  msg.sender == owner */\n      0xffffffffffffffffffffffffffffffffffffffff\n      and\n      eq\n        /* \"contracts/Ownable.sol\":215:267  require(msg.sender == owner, 'caller must be owner') */\n      tag_176\n      jumpi\n      mload(0x40)\n      0x08c379a000000000000000000000000000000000000000000000000000000000\n      dup2\n      mstore\n      0x04\n      add\n      tag_177\n      swap1\n      tag_160\n      jump\t// in\n    tag_177:\n      mload(0x40)\n      dup1\n      swap2\n      sub\n      swap1\n      revert\n    tag_176:\n        /* \"contracts/Ownable.sol\":374:382  newOwner */\n      dup1\n        /* \"contracts/Ownable.sol\":366:371  owner */\n      0x00\n      dup1\n        /* \"contracts/Ownable.sol\":366:382  owner = newOwner */\n      0x0100\n      exp\n      dup2\n      sload\n      dup2\n      0xffffffffffffffffffffffffffffffffffffffff\n      mul\n      not\n      and\n      swap1\n      dup4\n      0xffffffffffffffffffffffffffffffffffffffff\n      and\n      mul\n      or\n      swap1\n      sstore\n      pop\n        /* \"contracts/Ownable.sol\":295:390  function ChangeOwnership(address newOwner) public  onlyOwner{... */\n      pop\n      jump\t// out\n        /* \"contracts/Product.sol\":3179:3291  function Get_Successors() external view returns(address[] memory){... */\n    tag_57:\n        /* \"contracts/Product.sol\":3227:3243  address[] memory */\n      0x60\n        /* \"contracts/Product.sol\":3262:3270  instance */\n      0x03\n        /* \"contracts/Product.sol\":3262:3283  instance.SuccessorIds */\n      0x06\n      add\n        /* \"contracts/Product.sol\":3255:3283  return instance.SuccessorIds */\n      dup1\n      sload\n      dup1\n      0x20\n      mul\n      0x20\n      add\n      mload(0x40)\n      swap1\n      dup2\n      add\n      0x40\n      mstore\n      dup1\n      swap3\n      swap2\n      swap1\n      dup2\n      dup2\n      mstore\n      0x20\n      add\n      dup3\n      dup1\n      sload\n      dup1\n      iszero\n      tag_180\n      jumpi\n      0x20\n      mul\n      dup3\n      add\n      swap2\n      swap1\n      0x00\n      mstore\n      keccak256(0x00, 0x20)\n      swap1\n    tag_181:\n      dup2\n      0x00\n      swap1\n      sload\n      swap1\n      0x0100\n      exp\n      swap1\n      div\n      0xffffffffffffffffffffffffffffffffffffffff\n      and\n      0xffffffffffffffffffffffffffffffffffffffff\n      and\n      dup2\n      mstore\n      0x20\n      add\n      swap1\n      0x01\n      add\n      swap1\n      dup1\n      dup4\n      gt\n      tag_181\n      jumpi\n    tag_180:\n      pop\n      pop\n      pop\n      pop\n      pop\n      swap1\n      pop\n        /* \"contracts/Product.sol\":3179:3291  function Get_Successors() external view returns(address[] memory){... */\n      swap1\n      jump\t// out\n        /* \"contracts/Product.sol\":738:787  mapping(address => uint256[]) public userProducts */\n    tag_63:\n      mstore(0x20, 0x02)\n      dup2\n      0x00\n      mstore\n      keccak256(0x00, 0x40)\n      dup2\n      dup2\n      sload\n      dup2\n      lt\n      tag_182\n      jumpi\n      0x00\n      dup1\n      revert\n    tag_182:\n      swap1\n      0x00\n      mstore\n      keccak256(0x00, 0x20)\n      add\n      0x00\n      swap2\n      pop\n      swap2\n      pop\n      pop\n      sload\n      dup2\n      jump\t// out\n        /* \"contracts/Product.sol\":4375:4680  function Accept_SuccessorCandidate() public {... */\n    tag_67:\n        /* \"contracts/Product.sol\":4494:4498  true */\n      0x01\n        /* \"contracts/Product.sol\":4438:4498  instance.SuccessorIdIsHandshakeCandidate[msg.sender] == true */\n      iszero\n      iszero\n        /* \"contracts/Product.sol\":4438:4446  instance */\n      0x03\n        /* \"contracts/Product.sol\":4438:4478  instance.SuccessorIdIsHandshakeCandidate */\n      0x02\n      add\n        /* \"contracts/Product.sol\":4438:4490  instance.SuccessorIdIsHandshakeCandidate[msg.sender] */\n      0x00\n        /* \"contracts/Product.sol\":4479:4489  msg.sender */\n      caller\n        /* \"contracts/Product.sol\":4438:4490  instance.SuccessorIdIsHandshakeCandidate[msg.sender] */\n      0xffffffffffffffffffffffffffffffffffffffff\n      and\n      0xffffffffffffffffffffffffffffffffffffffff\n      and\n      dup2\n      mstore\n      0x20\n      add\n      swap1\n      dup2\n      mstore\n      0x20\n      add\n      0x00\n      keccak256\n      0x00\n      swap1\n      sload\n      swap1\n      0x0100\n      exp\n      swap1\n      div\n      0xff\n      and\n        /* \"contracts/Product.sol\":4438:4498  instance.SuccessorIdIsHandshakeCandidate[msg.sender] == true */\n      iszero\n      iszero\n      eq\n        /* \"contracts/Product.sol\":4430:4550  require(instance.SuccessorIdIsHandshakeCandidate[msg.sender] == true, \"Requestor is not a candidate for successorship.\") */\n      tag_185\n      jumpi\n      mload(0x40)\n      0x08c379a000000000000000000000000000000000000000000000000000000000\n      dup2\n      mstore\n      0x04\n      add\n      tag_186\n      swap1\n      tag_187\n      jump\t// in\n    tag_186:\n      mload(0x40)\n      dup1\n      swap2\n      sub\n      swap1\n      revert\n    tag_185:\n        /* \"contracts/Product.sol\":4616:4621  false */\n      0x00\n        /* \"contracts/Product.sol\":4561:4569  instance */\n      0x03\n        /* \"contracts/Product.sol\":4561:4601  instance.SuccessorIdIsHandshakeCandidate */\n      0x02\n      add\n        /* \"contracts/Product.sol\":4561:4613  instance.SuccessorIdIsHandshakeCandidate[msg.sender] */\n      0x00\n        /* \"contracts/Product.sol\":4602:4612  msg.sender */\n      caller\n        /* \"contracts/Product.sol\":4561:4613  instance.SuccessorIdIsHandshakeCandidate[msg.sender] */\n      0xffffffffffffffffffffffffffffffffffffffff\n      and\n      0xffffffffffffffffffffffffffffffffffffffff\n      and\n      dup2\n      mstore\n      0x20\n      add\n      swap1\n      dup2\n      mstore\n      0x20\n      add\n      0x00\n      keccak256\n      0x00\n        /* \"contracts/Product.sol\":4561:4621  instance.SuccessorIdIsHandshakeCandidate[msg.sender] = false */\n      0x0100\n      exp\n      dup2\n      sload\n      dup2\n      0xff\n      mul\n      not\n      and\n      swap1\n      dup4\n      iszero\n      iszero\n      mul\n      or\n      swap1\n      sstore\n      pop\n        /* \"contracts/Product.sol\":4632:4640  instance */\n      0x03\n        /* \"contracts/Product.sol\":4632:4653  instance.SuccessorIds */\n      0x06\n      add\n        /* \"contracts/Product.sol\":4659:4669  msg.sender */\n      caller\n        /* \"contracts/Product.sol\":4632:4670  instance.SuccessorIds.push(msg.sender) */\n      swap1\n      dup1\n      0x01\n      dup2\n      sload\n      add\n      dup1\n      dup3\n      sstore\n      dup1\n      swap2\n      pop\n      pop\n      0x01\n      swap1\n      sub\n      swap1\n      0x00\n      mstore\n      keccak256(0x00, 0x20)\n      add\n      0x00\n      swap1\n      swap2\n      swap1\n      swap2\n      swap1\n      swap2\n      0x0100\n      exp\n      dup2\n      sload\n      dup2\n      0xffffffffffffffffffffffffffffffffffffffff\n      mul\n      not\n      and\n      swap1\n      dup4\n      0xffffffffffffffffffffffffffffffffffffffff\n      and\n      mul\n      or\n      swap1\n      sstore\n      pop\n        /* \"contracts/Product.sol\":4375:4680  function Accept_SuccessorCandidate() public {... */\n      jump\t// out\n        /* \"contracts/Product.sol\":3529:3625  function Get_Name() external view returns (string memory){... */\n    tag_69:\n        /* \"contracts/Product.sol\":3572:3585  string memory */\n      0x60\n        /* \"contracts/Product.sol\":3604:3612  instance */\n      0x03\n        /* \"contracts/Product.sol\":3604:3617  instance.Name */\n      0x01\n      add\n        /* \"contracts/Product.sol\":3597:3617  return instance.Name */\n      dup1\n      sload\n      tag_190\n      swap1\n      tag_191\n      jump\t// in\n    tag_190:\n      dup1\n      0x1f\n      add\n      0x20\n      dup1\n      swap2\n      div\n      mul\n      0x20\n      add\n      mload(0x40)\n      swap1\n      dup2\n      add\n      0x40\n      mstore\n      dup1\n      swap3\n      swap2\n      swap1\n      dup2\n      dup2\n      mstore\n      0x20\n      add\n      dup3\n      dup1\n      sload\n      tag_192\n      swap1\n      tag_191\n      jump\t// in\n    tag_192:\n      dup1\n      iszero\n      tag_193\n      jumpi\n      dup1\n      0x1f\n      lt\n      tag_194\n      jumpi\n      0x0100\n      dup1\n      dup4\n      sload\n      div\n      mul\n      dup4\n      mstore\n      swap2\n      0x20\n      add\n      swap2\n      jump(tag_193)\n    tag_194:\n      dup3\n      add\n      swap2\n      swap1\n      0x00\n      mstore\n      keccak256(0x00, 0x20)\n      swap1\n    tag_195:\n      dup2\n      sload\n      dup2\n      mstore\n      swap1\n      0x01\n      add\n      swap1\n      0x20\n      add\n      dup1\n      dup4\n      gt\n      tag_195\n      jumpi\n      dup3\n      swap1\n      sub\n      0x1f\n      and\n      dup3\n      add\n      swap2\n    tag_193:\n      pop\n      pop\n      pop\n      pop\n      pop\n      swap1\n      pop\n        /* \"contracts/Product.sol\":3529:3625  function Get_Name() external view returns (string memory){... */\n      swap1\n      jump\t// out\n        /* \"contracts/Product.sol\":3850:3947  function Get_Owner() external view returns(address owner){... */\n    tag_73:\n        /* \"contracts/Product.sol\":3893:3906  address owner */\n      0x00\n        /* \"contracts/Product.sol\":3925:3933  instance */\n      0x03\n        /* \"contracts/Product.sol\":3925:3939  instance.Owner */\n      0x00\n      add\n      0x00\n      swap1\n      sload\n      swap1\n      0x0100\n      exp\n      swap1\n      div\n      0xffffffffffffffffffffffffffffffffffffffff\n      and\n        /* \"contracts/Product.sol\":3918:3939  return instance.Owner */\n      swap1\n      pop\n        /* \"contracts/Product.sol\":3850:3947  function Get_Owner() external view returns(address owner){... */\n      swap1\n      jump\t// out\n        /* \"contracts/Product.sol\":2238:2364  function Set_LabelIds(address[] calldata new_LabelIds) public onlyOwner{... */\n    tag_78:\n        /* \"contracts/Ownable.sol\":237:242  owner */\n      0x00\n      dup1\n      sload\n      swap1\n      0x0100\n      exp\n      swap1\n      div\n      0xffffffffffffffffffffffffffffffffffffffff\n      and\n        /* \"contracts/Ownable.sol\":223:242  msg.sender == owner */\n      0xffffffffffffffffffffffffffffffffffffffff\n      and\n        /* \"contracts/Ownable.sol\":223:233  msg.sender */\n      caller\n        /* \"contracts/Ownable.sol\":223:242  msg.sender == owner */\n      0xffffffffffffffffffffffffffffffffffffffff\n      and\n      eq\n        /* \"contracts/Ownable.sol\":215:267  require(msg.sender == owner, 'caller must be owner') */\n      tag_198\n      jumpi\n      mload(0x40)\n      0x08c379a000000000000000000000000000000000000000000000000000000000\n      dup2\n      mstore\n      0x04\n      add\n      tag_199\n      swap1\n      tag_160\n      jump\t// in\n    tag_199:\n      mload(0x40)\n      dup1\n      swap2\n      sub\n      swap1\n      revert\n    tag_198:\n        /* \"contracts/Product.sol\":2344:2356  new_LabelIds */\n      dup2\n      dup2\n        /* \"contracts/Product.sol\":2320:2328  instance */\n      0x03\n        /* \"contracts/Product.sol\":2320:2341  instance.SuccessorIds */\n      0x06\n      add\n        /* \"contracts/Product.sol\":2320:2356  instance.SuccessorIds = new_LabelIds */\n      swap2\n      swap1\n      tag_201\n      swap3\n      swap2\n      swap1\n      tag_202\n      jump\t// in\n    tag_201:\n      pop\n        /* \"contracts/Product.sol\":2238:2364  function Set_LabelIds(address[] calldata new_LabelIds) public onlyOwner{... */\n      pop\n      pop\n      jump\t// out\n        /* \"contracts/Product.sol\":4688:5001  function Accept_PredecessorCandidate() public {... */\n    tag_80:\n        /* \"contracts/Product.sol\":4811:4815  true */\n      0x01\n        /* \"contracts/Product.sol\":4753:4815  instance.PredecessorIdIsHandshakeCandidate[msg.sender] == true */\n      iszero\n      iszero\n        /* \"contracts/Product.sol\":4753:4761  instance */\n      0x03\n        /* \"contracts/Product.sol\":4753:4795  instance.PredecessorIdIsHandshakeCandidate */\n      dup1\n      add\n        /* \"contracts/Product.sol\":4753:4807  instance.PredecessorIdIsHandshakeCandidate[msg.sender] */\n      0x00\n        /* \"contracts/Product.sol\":4796:4806  msg.sender */\n      caller\n        /* \"contracts/Product.sol\":4753:4807  instance.PredecessorIdIsHandshakeCandidate[msg.sender] */\n      0xffffffffffffffffffffffffffffffffffffffff\n      and\n      0xffffffffffffffffffffffffffffffffffffffff\n      and\n      dup2\n      mstore\n      0x20\n      add\n      swap1\n      dup2\n      mstore\n      0x20\n      add\n      0x00\n      keccak256\n      0x00\n      swap1\n      sload\n      swap1\n      0x0100\n      exp\n      swap1\n      div\n      0xff\n      and\n        /* \"contracts/Product.sol\":4753:4815  instance.PredecessorIdIsHandshakeCandidate[msg.sender] == true */\n      iszero\n      iszero\n      eq\n        /* \"contracts/Product.sol\":4745:4869  require(instance.PredecessorIdIsHandshakeCandidate[msg.sender] == true, \"Requestor is not a candidate for predecessorship.\") */\n      tag_204\n      jumpi\n      mload(0x40)\n      0x08c379a000000000000000000000000000000000000000000000000000000000\n      dup2\n      mstore\n      0x04\n      add\n      tag_205\n      swap1\n      tag_206\n      jump\t// in\n    tag_205:\n      mload(0x40)\n      dup1\n      swap2\n      sub\n      swap1\n      revert\n    tag_204:\n        /* \"contracts/Product.sol\":4937:4942  false */\n      0x00\n        /* \"contracts/Product.sol\":4880:4888  instance */\n      0x03\n        /* \"contracts/Product.sol\":4880:4922  instance.PredecessorIdIsHandshakeCandidate */\n      dup1\n      add\n        /* \"contracts/Product.sol\":4880:4934  instance.PredecessorIdIsHandshakeCandidate[msg.sender] */\n      0x00\n        /* \"contracts/Product.sol\":4923:4933  msg.sender */\n      caller\n        /* \"contracts/Product.sol\":4880:4934  instance.PredecessorIdIsHandshakeCandidate[msg.sender] */\n      0xffffffffffffffffffffffffffffffffffffffff\n      and\n      0xffffffffffffffffffffffffffffffffffffffff\n      and\n      dup2\n      mstore\n      0x20\n      add\n      swap1\n      dup2\n      mstore\n      0x20\n      add\n      0x00\n      keccak256\n      0x00\n        /* \"contracts/Product.sol\":4880:4942  instance.PredecessorIdIsHandshakeCandidate[msg.sender] = false */\n      0x0100\n      exp\n      dup2\n      sload\n      dup2\n      0xff\n      mul\n      not\n      and\n      swap1\n      dup4\n      iszero\n      iszero\n      mul\n      or\n      swap1\n      sstore\n      pop\n        /* \"contracts/Product.sol\":4953:4961  instance */\n      0x03\n        /* \"contracts/Product.sol\":4953:4976  instance.PredecessorIds */\n      0x07\n      add\n        /* \"contracts/Product.sol\":4982:4992  msg.sender */\n      caller\n        /* \"contracts/Product.sol\":4953:4993  instance.PredecessorIds.push(msg.sender) */\n      swap1\n      dup1\n      0x01\n      dup2\n      sload\n      add\n      dup1\n      dup3\n      sstore\n      dup1\n      swap2\n      pop\n      pop\n      0x01\n      swap1\n      sub\n      swap1\n      0x00\n      mstore\n      keccak256(0x00, 0x20)\n      add\n      0x00\n      swap1\n      swap2\n      swap1\n      swap2\n      swap1\n      swap2\n      0x0100\n      exp\n      dup2\n      sload\n      dup2\n      0xffffffffffffffffffffffffffffffffffffffff\n      mul\n      not\n      and\n      swap1\n      dup4\n      0xffffffffffffffffffffffffffffffffffffffff\n      and\n      mul\n      or\n      swap1\n      sstore\n      pop\n        /* \"contracts/Product.sol\":4688:5001  function Accept_PredecessorCandidate() public {... */\n      jump\t// out\n        /* \"contracts/Product.sol\":2516:2608  function Set_IsValue(bool value) public onlyOwner{... */\n    tag_84:\n        /* \"contracts/Ownable.sol\":237:242  owner */\n      0x00\n      dup1\n      sload\n      swap1\n      0x0100\n      exp\n      swap1\n      div\n      0xffffffffffffffffffffffffffffffffffffffff\n      and\n        /* \"contracts/Ownable.sol\":223:242  msg.sender == owner */\n      0xffffffffffffffffffffffffffffffffffffffff\n      and\n        /* \"contracts/Ownable.sol\":223:233  msg.sender */\n      caller\n        /* \"contracts/Ownable.sol\":223:242  msg.sender == owner */\n      0xffffffffffffffffffffffffffffffffffffffff\n      and\n      eq\n        /* \"contracts/Ownable.sol\":215:267  require(msg.sender == owner, 'caller must be owner') */\n      tag_209\n      jumpi\n      mload(0x40)\n      0x08c379a000000000000000000000000000000000000000000000000000000000\n      dup2\n      mstore\n      0x04\n      add\n      tag_210\n      swap1\n      tag_160\n      jump\t// in\n    tag_210:\n      mload(0x40)\n      dup1\n      swap2\n      sub\n      swap1\n      revert\n    tag_209:\n        /* \"contracts/Product.sol\":2595:2600  value */\n      dup1\n        /* \"contracts/Product.sol\":2576:2584  instance */\n      0x03\n        /* \"contracts/Product.sol\":2576:2592  instance.IsValue */\n      0x00\n      add\n      0x14\n        /* \"contracts/Product.sol\":2576:2600  instance.IsValue = value */\n      0x0100\n      exp\n      dup2\n      sload\n      dup2\n      0xff\n      mul\n      not\n      and\n      swap1\n      dup4\n      iszero\n      iszero\n      mul\n      or\n      swap1\n      sstore\n      pop\n        /* \"contracts/Product.sol\":2516:2608  function Set_IsValue(bool value) public onlyOwner{... */\n      pop\n      jump\t// out\n        /* \"contracts/Product.sol\":687:731  mapping(uint256 => Instance) public products */\n    tag_87:\n      mstore(0x20, 0x01)\n      dup1\n      0x00\n      mstore\n      keccak256(0x00, 0x40)\n      0x00\n      swap2\n      pop\n      swap1\n      pop\n      dup1\n      0x00\n      add\n      0x00\n      swap1\n      sload\n      swap1\n      0x0100\n      exp\n      swap1\n      div\n      0xffffffffffffffffffffffffffffffffffffffff\n      and\n      swap1\n      dup1\n      0x00\n      add\n      0x14\n      swap1\n      sload\n      swap1\n      0x0100\n      exp\n      swap1\n      div\n      0xff\n      and\n      swap1\n      dup1\n      0x01\n      add\n      dup1\n      sload\n      tag_212\n      swap1\n      tag_191\n      jump\t// in\n    tag_212:\n      dup1\n      0x1f\n      add\n      0x20\n      dup1\n      swap2\n      div\n      mul\n      0x20\n      add\n      mload(0x40)\n      swap1\n      dup2\n      add\n      0x40\n      mstore\n      dup1\n      swap3\n      swap2\n      swap1\n      dup2\n      dup2\n      mstore\n      0x20\n      add\n      dup3\n      dup1\n      sload\n      tag_213\n      swap1\n      tag_191\n      jump\t// in\n    tag_213:\n      dup1\n      iszero\n      tag_214\n      jumpi\n      dup1\n      0x1f\n      lt\n      tag_215\n      jumpi\n      0x0100\n      dup1\n      dup4\n      sload\n      div\n      mul\n      dup4\n      mstore\n      swap2\n      0x20\n      add\n      swap2\n      jump(tag_214)\n    tag_215:\n      dup3\n      add\n      swap2\n      swap1\n      0x00\n      mstore\n      keccak256(0x00, 0x20)\n      swap1\n    tag_216:\n      dup2\n      sload\n      dup2\n      mstore\n      swap1\n      0x01\n      add\n      swap1\n      0x20\n      add\n      dup1\n      dup4\n      gt\n      tag_216\n      jumpi\n      dup3\n      swap1\n      sub\n      0x1f\n      and\n      dup3\n      add\n      swap2\n    tag_214:\n      pop\n      pop\n      pop\n      pop\n      pop\n      swap1\n      dup1\n      0x09\n      add\n      dup1\n      sload\n      tag_217\n      swap1\n      tag_191\n      jump\t// in\n    tag_217:\n      dup1\n      0x1f\n      add\n      0x20\n      dup1\n      swap2\n      div\n      mul\n      0x20\n      add\n      mload(0x40)\n      swap1\n      dup2\n      add\n      0x40\n      mstore\n      dup1\n      swap3\n      swap2\n      swap1\n      dup2\n      dup2\n      mstore\n      0x20\n      add\n      dup3\n      dup1\n      sload\n      tag_218\n      swap1\n      tag_191\n      jump\t// in\n    tag_218:\n      dup1\n      iszero\n      tag_219\n      jumpi\n      dup1\n      0x1f\n      lt\n      tag_220\n      jumpi\n      0x0100\n      dup1\n      dup4\n      sload\n      div\n      mul\n      dup4\n      mstore\n      swap2\n      0x20\n      add\n      swap2\n      jump(tag_219)\n    tag_220:\n      dup3\n      add\n      swap2\n      swap1\n      0x00\n      mstore\n      keccak256(0x00, 0x20)\n      swap1\n    tag_221:\n      dup2\n      sload\n      dup2\n      mstore\n      swap1\n      0x01\n      add\n      swap1\n      0x20\n      add\n      dup1\n      dup4\n      gt\n      tag_221\n      jumpi\n      dup3\n      swap1\n      sub\n      0x1f\n      and\n      dup3\n      add\n      swap2\n    tag_219:\n      pop\n      pop\n      pop\n      pop\n      pop\n      swap1\n      dup1\n      0x0a\n      add\n      sload\n      swap1\n      dup1\n      0x0b\n      add\n      dup1\n      sload\n      tag_222\n      swap1\n      tag_191\n      jump\t// in\n    tag_222:\n      dup1\n      0x1f\n      add\n      0x20\n      dup1\n      swap2\n      div\n      mul\n      0x20\n      add\n      mload(0x40)\n      swap1\n      dup2\n      add\n      0x40\n      mstore\n      dup1\n      swap3\n      swap2\n      swap1\n      dup2\n      dup2\n      mstore\n      0x20\n      add\n      dup3\n      dup1\n      sload\n      tag_223\n      swap1\n      tag_191\n      jump\t// in\n    tag_223:\n      dup1\n      iszero\n      tag_224\n      jumpi\n      dup1\n      0x1f\n      lt\n      tag_225\n      jumpi\n      0x0100\n      dup1\n      dup4\n      sload\n      div\n      mul\n      dup4\n      mstore\n      swap2\n      0x20\n      add\n      swap2\n      jump(tag_224)\n    tag_225:\n      dup3\n      add\n      swap2\n      swap1\n      0x00\n      mstore\n      keccak256(0x00, 0x20)\n      swap1\n    tag_226:\n      dup2\n      sload\n      dup2\n      mstore\n      swap1\n      0x01\n      add\n      swap1\n      0x20\n      add\n      dup1\n      dup4\n      gt\n      tag_226\n      jumpi\n      dup3\n      swap1\n      sub\n      0x1f\n      and\n      dup3\n      add\n      swap2\n    tag_224:\n      pop\n      pop\n      pop\n      pop\n      pop\n      swap1\n      pop\n      dup7\n      jump\t// out\n        /* \"contracts/Product.sol\":3733:3842  function Get_CarbonFootprint() external  view returns(uint){... */\n    tag_91:\n        /* \"contracts/Product.sol\":3787:3791  uint */\n      0x00\n        /* \"contracts/Product.sol\":3810:3818  instance */\n      0x03\n        /* \"contracts/Product.sol\":3810:3834  instance.CarbonFootprint */\n      0x0a\n      add\n      sload\n        /* \"contracts/Product.sol\":3803:3834  return instance.CarbonFootprint */\n      swap1\n      pop\n        /* \"contracts/Product.sol\":3733:3842  function Get_CarbonFootprint() external  view returns(uint){... */\n      swap1\n      jump\t// out\n        /* \"contracts/Product.sol\":3057:3173  function Get_Predecessors() external view returns(address[] memory){... */\n    tag_94:\n        /* \"contracts/Product.sol\":3107:3123  address[] memory */\n      0x60\n        /* \"contracts/Product.sol\":3142:3150  instance */\n      0x03\n        /* \"contracts/Product.sol\":3142:3165  instance.PredecessorIds */\n      0x07\n      add\n        /* \"contracts/Product.sol\":3135:3165  return instance.PredecessorIds */\n      dup1\n      sload\n      dup1\n      0x20\n      mul\n      0x20\n      add\n      mload(0x40)\n      swap1\n      dup2\n      add\n      0x40\n      mstore\n      dup1\n      swap3\n      swap2\n      swap1\n      dup2\n      dup2\n      mstore\n      0x20\n      add\n      dup3\n      dup1\n      sload\n      dup1\n      iszero\n      tag_229\n      jumpi\n      0x20\n      mul\n      dup3\n      add\n      swap2\n      swap1\n      0x00\n      mstore\n      keccak256(0x00, 0x20)\n      swap1\n    tag_230:\n      dup2\n      0x00\n      swap1\n      sload\n      swap1\n      0x0100\n      exp\n      swap1\n      div\n      0xffffffffffffffffffffffffffffffffffffffff\n      and\n      0xffffffffffffffffffffffffffffffffffffffff\n      and\n      dup2\n      mstore\n      0x20\n      add\n      swap1\n      0x01\n      add\n      swap1\n      dup1\n      dup4\n      gt\n      tag_230\n      jumpi\n    tag_229:\n      pop\n      pop\n      pop\n      pop\n      pop\n      swap1\n      pop\n        /* \"contracts/Product.sol\":3057:3173  function Get_Predecessors() external view returns(address[] memory){... */\n      swap1\n      jump\t// out\n        /* \"contracts/Ownable.sol\":97:117  address public owner */\n    tag_97:\n      0x00\n      dup1\n      sload\n      swap1\n      0x0100\n      exp\n      swap1\n      div\n      0xffffffffffffffffffffffffffffffffffffffff\n      and\n      dup2\n      jump\t// out\n        /* \"contracts/Product.sol\":1301:1404  function Set_Name(string calldata new_name) public onlyOwner{... */\n    tag_102:\n        /* \"contracts/Ownable.sol\":237:242  owner */\n      0x00\n      dup1\n      sload\n      swap1\n      0x0100\n      exp\n      swap1\n      div\n      0xffffffffffffffffffffffffffffffffffffffff\n      and\n        /* \"contracts/Ownable.sol\":223:242  msg.sender == owner */\n      0xffffffffffffffffffffffffffffffffffffffff\n      and\n        /* \"contracts/Ownable.sol\":223:233  msg.sender */\n      caller\n        /* \"contracts/Ownable.sol\":223:242  msg.sender == owner */\n      0xffffffffffffffffffffffffffffffffffffffff\n      and\n      eq\n        /* \"contracts/Ownable.sol\":215:267  require(msg.sender == owner, 'caller must be owner') */\n      tag_232\n      jumpi\n      mload(0x40)\n      0x08c379a000000000000000000000000000000000000000000000000000000000\n      dup2\n      mstore\n      0x04\n      add\n      tag_233\n      swap1\n      tag_160\n      jump\t// in\n    tag_233:\n      mload(0x40)\n      dup1\n      swap2\n      sub\n      swap1\n      revert\n    tag_232:\n        /* \"contracts/Product.sol\":1388:1396  new_name */\n      dup2\n      dup2\n        /* \"contracts/Product.sol\":1372:1380  instance */\n      0x03\n        /* \"contracts/Product.sol\":1372:1385  instance.Name */\n      0x01\n      add\n        /* \"contracts/Product.sol\":1372:1396  instance.Name = new_name */\n      swap2\n      dup3\n      tag_235\n      swap3\n      swap2\n      swap1\n      tag_236\n      jump\t// in\n    tag_235:\n      pop\n        /* \"contracts/Product.sol\":1301:1404  function Set_Name(string calldata new_name) public onlyOwner{... */\n      pop\n      pop\n      jump\t// out\n        /* \"contracts/Product.sol\":1412:1550  function Set_SuccessorIds(address[] calldata new_successorIds) public onlyOwner{... */\n    tag_105:\n        /* \"contracts/Ownable.sol\":237:242  owner */\n      0x00\n      dup1\n      sload\n      swap1\n      0x0100\n      exp\n      swap1\n      div\n      0xffffffffffffffffffffffffffffffffffffffff\n      and\n        /* \"contracts/Ownable.sol\":223:242  msg.sender == owner */\n      0xffffffffffffffffffffffffffffffffffffffff\n      and\n        /* \"contracts/Ownable.sol\":223:233  msg.sender */\n      caller\n        /* \"contracts/Ownable.sol\":223:242  msg.sender == owner */\n      0xffffffffffffffffffffffffffffffffffffffff\n      and\n      eq\n        /* \"contracts/Ownable.sol\":215:267  require(msg.sender == owner, 'caller must be owner') */\n      tag_238\n      jumpi\n      mload(0x40)\n      0x08c379a000000000000000000000000000000000000000000000000000000000\n      dup2\n      mstore\n      0x04\n      add\n      tag_239\n      swap1\n      tag_160\n      jump\t// in\n    tag_239:\n      mload(0x40)\n      dup1\n      swap2\n      sub\n      swap1\n      revert\n    tag_238:\n        /* \"contracts/Product.sol\":1526:1542  new_successorIds */\n      dup2\n      dup2\n        /* \"contracts/Product.sol\":1502:1510  instance */\n      0x03\n        /* \"contracts/Product.sol\":1502:1523  instance.SuccessorIds */\n      0x06\n      add\n        /* \"contracts/Product.sol\":1502:1542  instance.SuccessorIds = new_successorIds */\n      swap2\n      swap1\n      tag_241\n      swap3\n      swap2\n      swap1\n      tag_202\n      jump\t// in\n    tag_241:\n      pop\n        /* \"contracts/Product.sol\":1412:1550  function Set_SuccessorIds(address[] calldata new_successorIds) public onlyOwner{... */\n      pop\n      pop\n      jump\t// out\n        /* \"contracts/Product.sol\":5009:5652  function Do_Handshake_To_Successor(address successor_address) public returns(bool){... */\n    tag_108:\n        /* \"contracts/Product.sol\":5086:5090  bool */\n      0x00\n        /* \"contracts/Product.sol\":5102:5119  Product successor */\n      dup1\n        /* \"contracts/Product.sol\":5130:5147  successor_address */\n      dup3\n        /* \"contracts/Product.sol\":5102:5148  Product successor = Product(successor_address) */\n      swap1\n      pop\n        /* \"contracts/Product.sol\":5164:5173  successor */\n      dup1\n        /* \"contracts/Product.sol\":5164:5198  successor.Has_PredecessorCandidate */\n      0xffffffffffffffffffffffffffffffffffffffff\n      and\n      0xcae5f950\n        /* \"contracts/Product.sol\":5207:5211  this */\n      address\n        /* \"contracts/Product.sol\":5164:5213  successor.Has_PredecessorCandidate(address(this)) */\n      mload(0x40)\n      dup3\n      0xffffffff\n      and\n      0xe0\n      shl\n      dup2\n      mstore\n      0x04\n      add\n      tag_243\n      swap2\n      swap1\n      tag_75\n      jump\t// in\n    tag_243:\n      0x20\n      mload(0x40)\n      dup1\n      dup4\n      sub\n      dup2\n      dup7\n      gas\n      staticcall\n      iszero\n      dup1\n      iszero\n      tag_245\n      jumpi\n      returndatasize\n      0x00\n      dup1\n      returndatacopy\n      revert(0x00, returndatasize)\n    tag_245:\n      pop\n      pop\n      pop\n      pop\n      mload(0x40)\n      returndatasize\n      not(0x1f)\n      0x1f\n      dup3\n      add\n      and\n      dup3\n      add\n      dup1\n      0x40\n      mstore\n      pop\n      dup2\n      add\n      swap1\n      tag_246\n      swap2\n      swap1\n      tag_147\n      jump\t// in\n    tag_246:\n        /* \"contracts/Product.sol\":5161:5645  if(successor.Has_PredecessorCandidate(address(this))){... */\n      iszero\n      tag_247\n      jumpi\n        /* \"contracts/Product.sol\":5229:5237  instance */\n      0x03\n        /* \"contracts/Product.sol\":5229:5250  instance.SuccessorIds */\n      0x06\n      add\n        /* \"contracts/Product.sol\":5256:5273  successor_address */\n      dup4\n        /* \"contracts/Product.sol\":5229:5274  instance.SuccessorIds.push(successor_address) */\n      swap1\n      dup1\n      0x01\n      dup2\n      sload\n      add\n      dup1\n      dup3\n      sstore\n      dup1\n      swap2\n      pop\n      pop\n      0x01\n      swap1\n      sub\n      swap1\n      0x00\n      mstore\n      keccak256(0x00, 0x20)\n      add\n      0x00\n      swap1\n      swap2\n      swap1\n      swap2\n      swap1\n      swap2\n      0x0100\n      exp\n      dup2\n      sload\n      dup2\n      0xffffffffffffffffffffffffffffffffffffffff\n      mul\n      not\n      and\n      swap1\n      dup4\n      0xffffffffffffffffffffffffffffffffffffffff\n      and\n      mul\n      or\n      swap1\n      sstore\n      pop\n        /* \"contracts/Product.sol\":5289:5298  successor */\n      dup1\n        /* \"contracts/Product.sol\":5289:5326  successor.Accept_PredecessorCandidate */\n      0xffffffffffffffffffffffffffffffffffffffff\n      and\n      0x76efa463\n        /* \"contracts/Product.sol\":5289:5328  successor.Accept_PredecessorCandidate() */\n      mload(0x40)\n      dup2\n      0xffffffff\n      and\n      0xe0\n      shl\n      dup2\n      mstore\n      0x04\n      add\n      0x00\n      mload(0x40)\n      dup1\n      dup4\n      sub\n      dup2\n      0x00\n      dup8\n      dup1\n      extcodesize\n      iszero\n      dup1\n      iszero\n      tag_249\n      jumpi\n      0x00\n      dup1\n      revert\n    tag_249:\n      pop\n      gas\n      call\n      iszero\n      dup1\n      iszero\n      tag_251\n      jumpi\n      returndatasize\n      0x00\n      dup1\n      returndatacopy\n      revert(0x00, returndatasize)\n    tag_251:\n      pop\n      pop\n      pop\n      pop\n        /* \"contracts/Product.sol\":5362:5394  HandShakeDone(\"Successor\", true) */\n      0xbc2e9d8256e6321f63db02bd9af862997b6e16689fdf6ba219d5970fd5a0c447\n        /* \"contracts/Product.sol\":5389:5393  true */\n      0x01\n        /* \"contracts/Product.sol\":5362:5394  HandShakeDone(\"Successor\", true) */\n      mload(0x40)\n      tag_252\n      swap2\n      swap1\n      tag_253\n      jump\t// in\n    tag_252:\n      mload(0x40)\n      dup1\n      swap2\n      sub\n      swap1\n      log1\n        /* \"contracts/Product.sol\":5416:5420  true */\n      0x01\n        /* \"contracts/Product.sol\":5409:5420  return true */\n      swap2\n      pop\n      pop\n      jump(tag_242)\n        /* \"contracts/Product.sol\":5161:5645  if(successor.Has_PredecessorCandidate(address(this))){... */\n    tag_247:\n        /* \"contracts/Product.sol\":5523:5527  true */\n      0x01\n        /* \"contracts/Product.sol\":5461:5469  instance */\n      0x03\n        /* \"contracts/Product.sol\":5461:5501  instance.SuccessorIdIsHandshakeCandidate */\n      0x02\n      add\n        /* \"contracts/Product.sol\":5461:5520  instance.SuccessorIdIsHandshakeCandidate[successor_address] */\n      0x00\n        /* \"contracts/Product.sol\":5502:5519  successor_address */\n      dup6\n        /* \"contracts/Product.sol\":5461:5520  instance.SuccessorIdIsHandshakeCandidate[successor_address] */\n      0xffffffffffffffffffffffffffffffffffffffff\n      and\n      0xffffffffffffffffffffffffffffffffffffffff\n      and\n      dup2\n      mstore\n      0x20\n      add\n      swap1\n      dup2\n      mstore\n      0x20\n      add\n      0x00\n      keccak256\n      0x00\n        /* \"contracts/Product.sol\":5461:5527  instance.SuccessorIdIsHandshakeCandidate[successor_address] = true */\n      0x0100\n      exp\n      dup2\n      sload\n      dup2\n      0xff\n      mul\n      not\n      and\n      swap1\n      dup4\n      iszero\n      iszero\n      mul\n      or\n      swap1\n      sstore\n      pop\n        /* \"contracts/Product.sol\":5573:5606  HandShakeDone(\"Successor\", false) */\n      0xbc2e9d8256e6321f63db02bd9af862997b6e16689fdf6ba219d5970fd5a0c447\n        /* \"contracts/Product.sol\":5600:5605  false */\n      0x00\n        /* \"contracts/Product.sol\":5573:5606  HandShakeDone(\"Successor\", false) */\n      mload(0x40)\n      tag_255\n      swap2\n      swap1\n      tag_253\n      jump\t// in\n    tag_255:\n      mload(0x40)\n      dup1\n      swap2\n      sub\n      swap1\n      log1\n        /* \"contracts/Product.sol\":5628:5633  false */\n      0x00\n        /* \"contracts/Product.sol\":5621:5633  return false */\n      swap2\n      pop\n      pop\n        /* \"contracts/Product.sol\":5009:5652  function Do_Handshake_To_Successor(address successor_address) public returns(bool){... */\n    tag_242:\n      swap2\n      swap1\n      pop\n      jump\t// out\n        /* \"contracts/Product.sol\":1558:1810  function Set_SuccessorCandadiateIds(address[] calldata new_successorIds) public onlyOwner{... */\n    tag_112:\n        /* \"contracts/Ownable.sol\":237:242  owner */\n      0x00\n      dup1\n      sload\n      swap1\n      0x0100\n      exp\n      swap1\n      div\n      0xffffffffffffffffffffffffffffffffffffffff\n      and\n        /* \"contracts/Ownable.sol\":223:242  msg.sender == owner */\n      0xffffffffffffffffffffffffffffffffffffffff\n      and\n        /* \"contracts/Ownable.sol\":223:233  msg.sender */\n      caller\n        /* \"contracts/Ownable.sol\":223:242  msg.sender == owner */\n      0xffffffffffffffffffffffffffffffffffffffff\n      and\n      eq\n        /* \"contracts/Ownable.sol\":215:267  require(msg.sender == owner, 'caller must be owner') */\n      tag_257\n      jumpi\n      mload(0x40)\n      0x08c379a000000000000000000000000000000000000000000000000000000000\n      dup2\n      mstore\n      0x04\n      add\n      tag_258\n      swap1\n      tag_160\n      jump\t// in\n    tag_258:\n      mload(0x40)\n      dup1\n      swap2\n      sub\n      swap1\n      revert\n    tag_257:\n        /* \"contracts/Product.sol\":1661:1667  uint i */\n      0x00\n        /* \"contracts/Product.sol\":1657:1803  for(uint i = 0; i < new_successorIds.length; i++){... */\n    tag_260:\n        /* \"contracts/Product.sol\":1677:1693  new_successorIds */\n      dup3\n      dup3\n        /* \"contracts/Product.sol\":1677:1700  new_successorIds.length */\n      swap1\n      pop\n        /* \"contracts/Product.sol\":1673:1674  i */\n      dup2\n        /* \"contracts/Product.sol\":1673:1700  i < new_successorIds.length */\n      lt\n        /* \"contracts/Product.sol\":1657:1803  for(uint i = 0; i < new_successorIds.length; i++){... */\n      iszero\n      tag_261\n      jumpi\n        /* \"contracts/Product.sol\":1787:1791  true */\n      0x01\n        /* \"contracts/Product.sol\":1721:1729  instance */\n      0x03\n        /* \"contracts/Product.sol\":1721:1763  instance.PredecessorIdIsHandshakeCandidate */\n      dup1\n      add\n        /* \"contracts/Product.sol\":1721:1784  instance.PredecessorIdIsHandshakeCandidate[new_successorIds[i]] */\n      0x00\n        /* \"contracts/Product.sol\":1764:1780  new_successorIds */\n      dup6\n      dup6\n        /* \"contracts/Product.sol\":1781:1782  i */\n      dup6\n        /* \"contracts/Product.sol\":1764:1783  new_successorIds[i] */\n      dup2\n      dup2\n      lt\n      tag_263\n      jumpi\n      tag_264\n      tag_171\n      jump\t// in\n    tag_264:\n    tag_263:\n      swap1\n      pop\n      0x20\n      mul\n      add\n      0x20\n      dup2\n      add\n      swap1\n      tag_265\n      swap2\n      swap1\n      tag_41\n      jump\t// in\n    tag_265:\n        /* \"contracts/Product.sol\":1721:1784  instance.PredecessorIdIsHandshakeCandidate[new_successorIds[i]] */\n      0xffffffffffffffffffffffffffffffffffffffff\n      and\n      0xffffffffffffffffffffffffffffffffffffffff\n      and\n      dup2\n      mstore\n      0x20\n      add\n      swap1\n      dup2\n      mstore\n      0x20\n      add\n      0x00\n      keccak256\n      0x00\n        /* \"contracts/Product.sol\":1721:1791  instance.PredecessorIdIsHandshakeCandidate[new_successorIds[i]] = true */\n      0x0100\n      exp\n      dup2\n      sload\n      dup2\n      0xff\n      mul\n      not\n      and\n      swap1\n      dup4\n      iszero\n      iszero\n      mul\n      or\n      swap1\n      sstore\n      pop\n        /* \"contracts/Product.sol\":1702:1705  i++ */\n      dup1\n      dup1\n      tag_266\n      swap1\n      tag_174\n      jump\t// in\n    tag_266:\n      swap2\n      pop\n      pop\n        /* \"contracts/Product.sol\":1657:1803  for(uint i = 0; i < new_successorIds.length; i++){... */\n      jump(tag_260)\n    tag_261:\n      pop\n        /* \"contracts/Product.sol\":1558:1810  function Set_SuccessorCandadiateIds(address[] calldata new_successorIds) public onlyOwner{... */\n      pop\n      pop\n      jump\t// out\n        /* \"contracts/Product.sol\":2086:2230  function Set_PredecessorIds(address[] calldata new_predecessorIds) public onlyOwner{... */\n    tag_115:\n        /* \"contracts/Ownable.sol\":237:242  owner */\n      0x00\n      dup1\n      sload\n      swap1\n      0x0100\n      exp\n      swap1\n      div\n      0xffffffffffffffffffffffffffffffffffffffff\n      and\n        /* \"contracts/Ownable.sol\":223:242  msg.sender == owner */\n      0xffffffffffffffffffffffffffffffffffffffff\n      and\n        /* \"contracts/Ownable.sol\":223:233  msg.sender */\n      caller\n        /* \"contracts/Ownable.sol\":223:242  msg.sender == owner */\n      0xffffffffffffffffffffffffffffffffffffffff\n      and\n      eq\n        /* \"contracts/Ownable.sol\":215:267  require(msg.sender == owner, 'caller must be owner') */\n      tag_268\n      jumpi\n      mload(0x40)\n      0x08c379a000000000000000000000000000000000000000000000000000000000\n      dup2\n      mstore\n      0x04\n      add\n      tag_269\n      swap1\n      tag_160\n      jump\t// in\n    tag_269:\n      mload(0x40)\n      dup1\n      swap2\n      sub\n      swap1\n      revert\n    tag_268:\n        /* \"contracts/Product.sol\":2204:2222  new_predecessorIds */\n      dup2\n      dup2\n        /* \"contracts/Product.sol\":2180:2188  instance */\n      0x03\n        /* \"contracts/Product.sol\":2180:2201  instance.SuccessorIds */\n      0x06\n      add\n        /* \"contracts/Product.sol\":2180:2222  instance.SuccessorIds = new_predecessorIds */\n      swap2\n      swap1\n      tag_271\n      swap3\n      swap2\n      swap1\n      tag_202\n      jump\t// in\n    tag_271:\n      pop\n        /* \"contracts/Product.sol\":2086:2230  function Set_PredecessorIds(address[] calldata new_predecessorIds) public onlyOwner{... */\n      pop\n      pop\n      jump\t// out\n        /* \"contracts/Product.sol\":3411:3521  function Get_IpfsAddress() external view returns(string memory){... */\n    tag_117:\n        /* \"contracts/Product.sol\":3460:3473  string memory */\n      0x60\n        /* \"contracts/Product.sol\":3492:3500  instance */\n      0x03\n        /* \"contracts/Product.sol\":3492:3513  instance.Ipfs_Address */\n      0x09\n      add\n        /* \"contracts/Product.sol\":3485:3513  return instance.Ipfs_Address */\n      dup1\n      sload\n      tag_273\n      swap1\n      tag_191\n      jump\t// in\n    tag_273:\n      dup1\n      0x1f\n      add\n      0x20\n      dup1\n      swap2\n      div\n      mul\n      0x20\n      add\n      mload(0x40)\n      swap1\n      dup2\n      add\n      0x40\n      mstore\n      dup1\n      swap3\n      swap2\n      swap1\n      dup2\n      dup2\n      mstore\n      0x20\n      add\n      dup3\n      dup1\n      sload\n      tag_274\n      swap1\n      tag_191\n      jump\t// in\n    tag_274:\n      dup1\n      iszero\n      tag_275\n      jumpi\n      dup1\n      0x1f\n      lt\n      tag_276\n      jumpi\n      0x0100\n      dup1\n      dup4\n      sload\n      div\n      mul\n      dup4\n      mstore\n      swap2\n      0x20\n      add\n      swap2\n      jump(tag_275)\n    tag_276:\n      dup3\n      add\n      swap2\n      swap1\n      0x00\n      mstore\n      keccak256(0x00, 0x20)\n      swap1\n    tag_277:\n      dup2\n      sload\n      dup2\n      mstore\n      swap1\n      0x01\n      add\n      swap1\n      0x20\n      add\n      dup1\n      dup4\n      gt\n      tag_277\n      jumpi\n      dup3\n      swap1\n      sub\n      0x1f\n      and\n      dup3\n      add\n      swap2\n    tag_275:\n      pop\n      pop\n      pop\n      pop\n      pop\n      swap1\n      pop\n        /* \"contracts/Product.sol\":3411:3521  function Get_IpfsAddress() external view returns(string memory){... */\n      swap1\n      jump\t// out\n        /* \"contracts/Product.sol\":3633:3725  function Get_IsValue() external view returns(bool){... */\n    tag_120:\n        /* \"contracts/Product.sol\":3678:3682  bool */\n      0x00\n        /* \"contracts/Product.sol\":3701:3709  instance */\n      0x03\n        /* \"contracts/Product.sol\":3701:3717  instance.IsValue */\n      0x00\n      add\n      0x14\n      swap1\n      sload\n      swap1\n      0x0100\n      exp\n      swap1\n      div\n      0xff\n      and\n        /* \"contracts/Product.sol\":3694:3717  return instance.IsValue */\n      swap1\n      pop\n        /* \"contracts/Product.sol\":3633:3725  function Get_IsValue() external view returns(bool){... */\n      swap1\n      jump\t// out\n        /* \"contracts/Product.sol\":4190:4363  function Has_PredecessorCandidate(address predecessorAddress) public view returns(bool){... */\n    tag_124:\n        /* \"contracts/Product.sol\":4272:4276  bool */\n      0x00\n        /* \"contracts/Product.sol\":4295:4303  instance */\n      0x03\n        /* \"contracts/Product.sol\":4295:4335  instance.SuccessorIdIsHandshakeCandidate */\n      0x02\n      add\n        /* \"contracts/Product.sol\":4295:4355  instance.SuccessorIdIsHandshakeCandidate[predecessorAddress] */\n      0x00\n        /* \"contracts/Product.sol\":4336:4354  predecessorAddress */\n      dup4\n        /* \"contracts/Product.sol\":4295:4355  instance.SuccessorIdIsHandshakeCandidate[predecessorAddress] */\n      0xffffffffffffffffffffffffffffffffffffffff\n      and\n      0xffffffffffffffffffffffffffffffffffffffff\n      and\n      dup2\n      mstore\n      0x20\n      add\n      swap1\n      dup2\n      mstore\n      0x20\n      add\n      0x00\n      keccak256\n      0x00\n      swap1\n      sload\n      swap1\n      0x0100\n      exp\n      swap1\n      div\n      0xff\n      and\n        /* \"contracts/Product.sol\":4288:4355  return instance.SuccessorIdIsHandshakeCandidate[predecessorAddress] */\n      swap1\n      pop\n        /* \"contracts/Product.sol\":4190:4363  function Has_PredecessorCandidate(address predecessorAddress) public view returns(bool){... */\n      swap2\n      swap1\n      pop\n      jump\t// out\n        /* \"contracts/Product.sol\":2930:3049  function Get_Predecessor_Count() external view returns(uint256){... */\n    tag_127:\n        /* \"contracts/Product.sol\":2985:2992  uint256 */\n      0x00\n        /* \"contracts/Product.sol\":3011:3019  instance */\n      0x03\n        /* \"contracts/Product.sol\":3011:3034  instance.PredecessorIds */\n      0x07\n      add\n        /* \"contracts/Product.sol\":3011:3041  instance.PredecessorIds.length */\n      dup1\n      sload\n      swap1\n      pop\n        /* \"contracts/Product.sol\":3004:3041  return instance.PredecessorIds.length */\n      swap1\n      pop\n        /* \"contracts/Product.sol\":2930:3049  function Get_Predecessor_Count() external view returns(uint256){... */\n      swap1\n      jump\t// out\n        /* \"contracts/Product.sol\":4015:4182  function Has_SuccessorCandidate(address successorAddress) public view returns(bool){... */\n    tag_131:\n        /* \"contracts/Product.sol\":4093:4097  bool */\n      0x00\n        /* \"contracts/Product.sol\":4116:4124  instance */\n      0x03\n        /* \"contracts/Product.sol\":4116:4156  instance.SuccessorIdIsHandshakeCandidate */\n      0x02\n      add\n        /* \"contracts/Product.sol\":4116:4174  instance.SuccessorIdIsHandshakeCandidate[successorAddress] */\n      0x00\n        /* \"contracts/Product.sol\":4157:4173  successorAddress */\n      dup4\n        /* \"contracts/Product.sol\":4116:4174  instance.SuccessorIdIsHandshakeCandidate[successorAddress] */\n      0xffffffffffffffffffffffffffffffffffffffff\n      and\n      0xffffffffffffffffffffffffffffffffffffffff\n      and\n      dup2\n      mstore\n      0x20\n      add\n      swap1\n      dup2\n      mstore\n      0x20\n      add\n      0x00\n      keccak256\n      0x00\n      swap1\n      sload\n      swap1\n      0x0100\n      exp\n      swap1\n      div\n      0xff\n      and\n        /* \"contracts/Product.sol\":4109:4174  return instance.SuccessorIdIsHandshakeCandidate[successorAddress] */\n      swap1\n      pop\n        /* \"contracts/Product.sol\":4015:4182  function Has_SuccessorCandidate(address successorAddress) public view returns(bool){... */\n      swap2\n      swap1\n      pop\n      jump\t// out\n        /* \"contracts/Product.sol\":2616:2735  function Set_IPFS(string calldata _ipfsAddress) public onlyOwner{... */\n    tag_135:\n        /* \"contracts/Ownable.sol\":237:242  owner */\n      0x00\n      dup1\n      sload\n      swap1\n      0x0100\n      exp\n      swap1\n      div\n      0xffffffffffffffffffffffffffffffffffffffff\n      and\n        /* \"contracts/Ownable.sol\":223:242  msg.sender == owner */\n      0xffffffffffffffffffffffffffffffffffffffff\n      and\n        /* \"contracts/Ownable.sol\":223:233  msg.sender */\n      caller\n        /* \"contracts/Ownable.sol\":223:242  msg.sender == owner */\n      0xffffffffffffffffffffffffffffffffffffffff\n      and\n      eq\n        /* \"contracts/Ownable.sol\":215:267  require(msg.sender == owner, 'caller must be owner') */\n      tag_283\n      jumpi\n      mload(0x40)\n      0x08c379a000000000000000000000000000000000000000000000000000000000\n      dup2\n      mstore\n      0x04\n      add\n      tag_284\n      swap1\n      tag_160\n      jump\t// in\n    tag_284:\n      mload(0x40)\n      dup1\n      swap2\n      sub\n      swap1\n      revert\n    tag_283:\n        /* \"contracts/Product.sol\":2715:2727  _ipfsAddress */\n      dup2\n      dup2\n        /* \"contracts/Product.sol\":2691:2699  instance */\n      0x03\n        /* \"contracts/Product.sol\":2691:2712  instance.Ipfs_Address */\n      0x09\n      add\n        /* \"contracts/Product.sol\":2691:2727  instance.Ipfs_Address = _ipfsAddress */\n      swap2\n      dup3\n      tag_286\n      swap3\n      swap2\n      swap1\n      tag_236\n      jump\t// in\n    tag_286:\n      pop\n        /* \"contracts/Product.sol\":2616:2735  function Set_IPFS(string calldata _ipfsAddress) public onlyOwner{... */\n      pop\n      pop\n      jump\t// out\n        /* \"contracts/Product.sol\":3297:3403  function Get_LabelIDs() external view returns(address[] memory){... */\n    tag_137:\n        /* \"contracts/Product.sol\":3343:3359  address[] memory */\n      0x60\n        /* \"contracts/Product.sol\":3378:3386  instance */\n      0x03\n        /* \"contracts/Product.sol\":3378:3395  instance.LabelIds */\n      0x08\n      add\n        /* \"contracts/Product.sol\":3371:3395  return instance.LabelIds */\n      dup1\n      sload\n      dup1\n      0x20\n      mul\n      0x20\n      add\n      mload(0x40)\n      swap1\n      dup2\n      add\n      0x40\n      mstore\n      dup1\n      swap3\n      swap2\n      swap1\n      dup2\n      dup2\n      mstore\n      0x20\n      add\n      dup3\n      dup1\n      sload\n      dup1\n      iszero\n      tag_288\n      jumpi\n      0x20\n      mul\n      dup3\n      add\n      swap2\n      swap1\n      0x00\n      mstore\n      keccak256(0x00, 0x20)\n      swap1\n    tag_289:\n      dup2\n      0x00\n      swap1\n      sload\n      swap1\n      0x0100\n      exp\n      swap1\n      div\n      0xffffffffffffffffffffffffffffffffffffffff\n      and\n      0xffffffffffffffffffffffffffffffffffffffff\n      and\n      dup2\n      mstore\n      0x20\n      add\n      swap1\n      0x01\n      add\n      swap1\n      dup1\n      dup4\n      gt\n      tag_289\n      jumpi\n    tag_288:\n      pop\n      pop\n      pop\n      pop\n      pop\n      swap1\n      pop\n        /* \"contracts/Product.sol\":3297:3403  function Get_LabelIDs() external view returns(address[] memory){... */\n      swap1\n      jump\t// out\n        /* \"contracts/Product.sol\":2807:2922  function Get_Successor_Count() external view returns(uint256){... */\n    tag_140:\n        /* \"contracts/Product.sol\":2860:2867  uint256 */\n      0x00\n        /* \"contracts/Product.sol\":2886:2894  instance */\n      0x03\n        /* \"contracts/Product.sol\":2886:2907  instance.SuccessorIds */\n      0x06\n      add\n        /* \"contracts/Product.sol\":2886:2914  instance.SuccessorIds.length */\n      dup1\n      sload\n      swap1\n      pop\n        /* \"contracts/Product.sol\":2879:2914  return instance.SuccessorIds.length */\n      swap1\n      pop\n        /* \"contracts/Product.sol\":2807:2922  function Get_Successor_Count() external view returns(uint256){... */\n      swap1\n      jump\t// out\n    tag_202:\n      dup3\n      dup1\n      sload\n      dup3\n      dup3\n      sstore\n      swap1\n      0x00\n      mstore\n      keccak256(0x00, 0x20)\n      swap1\n      dup2\n      add\n      swap3\n      dup3\n      iszero\n      tag_291\n      jumpi\n      swap2\n      0x20\n      mul\n      dup3\n      add\n    tag_292:\n      dup3\n      dup2\n      gt\n      iszero\n      tag_293\n      jumpi\n      dup3\n      calldataload\n      0xffffffffffffffffffffffffffffffffffffffff\n      and\n      dup3\n      exp(0x0100, 0x00)\n      dup2\n      sload\n      dup2\n      0xffffffffffffffffffffffffffffffffffffffff\n      mul\n      not\n      and\n      swap1\n      dup4\n      0xffffffffffffffffffffffffffffffffffffffff\n      and\n      mul\n      or\n      swap1\n      sstore\n      pop\n      swap2\n      0x20\n      add\n      swap2\n      swap1\n      0x01\n      add\n      swap1\n      jump(tag_292)\n    tag_293:\n    tag_291:\n      pop\n      swap1\n      pop\n      tag_294\n      swap2\n      swap1\n      tag_295\n      jump\t// in\n    tag_294:\n      pop\n      swap1\n      jump\t// out\n    tag_295:\n    tag_296:\n      dup1\n      dup3\n      gt\n      iszero\n      tag_297\n      jumpi\n      0x00\n      dup2\n      0x00\n      swap1\n      sstore\n      pop\n      0x01\n      add\n      jump(tag_296)\n    tag_297:\n      pop\n      swap1\n      jump\t// out\n        /* \"#utility.yul\":88:205   */\n    tag_299:\n        /* \"#utility.yul\":197:198   */\n      0x00\n        /* \"#utility.yul\":194:195   */\n      dup1\n        /* \"#utility.yul\":187:199   */\n      revert\n        /* \"#utility.yul\":211:328   */\n    tag_300:\n        /* \"#utility.yul\":320:321   */\n      0x00\n        /* \"#utility.yul\":317:318   */\n      dup1\n        /* \"#utility.yul\":310:322   */\n      revert\n        /* \"#utility.yul\":334:460   */\n    tag_301:\n        /* \"#utility.yul\":371:378   */\n      0x00\n        /* \"#utility.yul\":411:453   */\n      0xffffffffffffffffffffffffffffffffffffffff\n        /* \"#utility.yul\":404:409   */\n      dup3\n        /* \"#utility.yul\":400:454   */\n      and\n        /* \"#utility.yul\":389:454   */\n      swap1\n      pop\n        /* \"#utility.yul\":334:460   */\n      swap2\n      swap1\n      pop\n      jump\t// out\n        /* \"#utility.yul\":466:562   */\n    tag_302:\n        /* \"#utility.yul\":503:510   */\n      0x00\n        /* \"#utility.yul\":532:556   */\n      tag_367\n        /* \"#utility.yul\":550:555   */\n      dup3\n        /* \"#utility.yul\":532:556   */\n      tag_301\n      jump\t// in\n    tag_367:\n        /* \"#utility.yul\":521:556   */\n      swap1\n      pop\n        /* \"#utility.yul\":466:562   */\n      swap2\n      swap1\n      pop\n      jump\t// out\n        /* \"#utility.yul\":568:690   */\n    tag_303:\n        /* \"#utility.yul\":641:665   */\n      tag_369\n        /* \"#utility.yul\":659:664   */\n      dup2\n        /* \"#utility.yul\":641:665   */\n      tag_302\n      jump\t// in\n    tag_369:\n        /* \"#utility.yul\":634:639   */\n      dup2\n        /* \"#utility.yul\":631:666   */\n      eq\n        /* \"#utility.yul\":621:684   */\n      tag_370\n      jumpi\n        /* \"#utility.yul\":680:681   */\n      0x00\n        /* \"#utility.yul\":677:678   */\n      dup1\n        /* \"#utility.yul\":670:682   */\n      revert\n        /* \"#utility.yul\":621:684   */\n    tag_370:\n        /* \"#utility.yul\":568:690   */\n      pop\n      jump\t// out\n        /* \"#utility.yul\":696:835   */\n    tag_304:\n        /* \"#utility.yul\":742:747   */\n      0x00\n        /* \"#utility.yul\":780:786   */\n      dup2\n        /* \"#utility.yul\":767:787   */\n      calldataload\n        /* \"#utility.yul\":758:787   */\n      swap1\n      pop\n        /* \"#utility.yul\":796:829   */\n      tag_372\n        /* \"#utility.yul\":823:828   */\n      dup2\n        /* \"#utility.yul\":796:829   */\n      tag_303\n      jump\t// in\n    tag_372:\n        /* \"#utility.yul\":696:835   */\n      swap3\n      swap2\n      pop\n      pop\n      jump\t// out\n        /* \"#utility.yul\":841:1170   */\n    tag_41:\n        /* \"#utility.yul\":900:906   */\n      0x00\n        /* \"#utility.yul\":949:951   */\n      0x20\n        /* \"#utility.yul\":937:946   */\n      dup3\n        /* \"#utility.yul\":928:935   */\n      dup5\n        /* \"#utility.yul\":924:947   */\n      sub\n        /* \"#utility.yul\":920:952   */\n      slt\n        /* \"#utility.yul\":917:1036   */\n      iszero\n      tag_374\n      jumpi\n        /* \"#utility.yul\":955:1034   */\n      tag_375\n      tag_299\n      jump\t// in\n    tag_375:\n        /* \"#utility.yul\":917:1036   */\n    tag_374:\n        /* \"#utility.yul\":1075:1076   */\n      0x00\n        /* \"#utility.yul\":1100:1153   */\n      tag_376\n        /* \"#utility.yul\":1145:1152   */\n      dup5\n        /* \"#utility.yul\":1136:1142   */\n      dup3\n        /* \"#utility.yul\":1125:1134   */\n      dup6\n        /* \"#utility.yul\":1121:1143   */\n      add\n        /* \"#utility.yul\":1100:1153   */\n      tag_304\n      jump\t// in\n    tag_376:\n        /* \"#utility.yul\":1090:1153   */\n      swap2\n      pop\n        /* \"#utility.yul\":1046:1163   */\n      pop\n        /* \"#utility.yul\":841:1170   */\n      swap3\n      swap2\n      pop\n      pop\n      jump\t// out\n        /* \"#utility.yul\":1176:1266   */\n    tag_305:\n        /* \"#utility.yul\":1210:1217   */\n      0x00\n        /* \"#utility.yul\":1253:1258   */\n      dup2\n        /* \"#utility.yul\":1246:1259   */\n      iszero\n        /* \"#utility.yul\":1239:1260   */\n      iszero\n        /* \"#utility.yul\":1228:1260   */\n      swap1\n      pop\n        /* \"#utility.yul\":1176:1266   */\n      swap2\n      swap1\n      pop\n      jump\t// out\n        /* \"#utility.yul\":1272:1381   */\n    tag_306:\n        /* \"#utility.yul\":1353:1374   */\n      tag_379\n        /* \"#utility.yul\":1368:1373   */\n      dup2\n        /* \"#utility.yul\":1353:1374   */\n      tag_305\n      jump\t// in\n    tag_379:\n        /* \"#utility.yul\":1348:1351   */\n      dup3\n        /* \"#utility.yul\":1341:1375   */\n      mstore\n        /* \"#utility.yul\":1272:1381   */\n      pop\n      pop\n      jump\t// out\n        /* \"#utility.yul\":1387:1597   */\n    tag_44:\n        /* \"#utility.yul\":1474:1478   */\n      0x00\n        /* \"#utility.yul\":1512:1514   */\n      0x20\n        /* \"#utility.yul\":1501:1510   */\n      dup3\n        /* \"#utility.yul\":1497:1515   */\n      add\n        /* \"#utility.yul\":1489:1515   */\n      swap1\n      pop\n        /* \"#utility.yul\":1525:1590   */\n      tag_381\n        /* \"#utility.yul\":1587:1588   */\n      0x00\n        /* \"#utility.yul\":1576:1585   */\n      dup4\n        /* \"#utility.yul\":1572:1589   */\n      add\n        /* \"#utility.yul\":1563:1569   */\n      dup5\n        /* \"#utility.yul\":1525:1590   */\n      tag_306\n      jump\t// in\n    tag_381:\n        /* \"#utility.yul\":1387:1597   */\n      swap3\n      swap2\n      pop\n      pop\n      jump\t// out\n        /* \"#utility.yul\":1603:1680   */\n    tag_307:\n        /* \"#utility.yul\":1640:1647   */\n      0x00\n        /* \"#utility.yul\":1669:1674   */\n      dup2\n        /* \"#utility.yul\":1658:1674   */\n      swap1\n      pop\n        /* \"#utility.yul\":1603:1680   */\n      swap2\n      swap1\n      pop\n      jump\t// out\n        /* \"#utility.yul\":1686:1808   */\n    tag_308:\n        /* \"#utility.yul\":1759:1783   */\n      tag_384\n        /* \"#utility.yul\":1777:1782   */\n      dup2\n        /* \"#utility.yul\":1759:1783   */\n      tag_307\n      jump\t// in\n    tag_384:\n        /* \"#utility.yul\":1752:1757   */\n      dup2\n        /* \"#utility.yul\":1749:1784   */\n      eq\n        /* \"#utility.yul\":1739:1802   */\n      tag_385\n      jumpi\n        /* \"#utility.yul\":1798:1799   */\n      0x00\n        /* \"#utility.yul\":1795:1796   */\n      dup1\n        /* \"#utility.yul\":1788:1800   */\n      revert\n        /* \"#utility.yul\":1739:1802   */\n    tag_385:\n        /* \"#utility.yul\":1686:1808   */\n      pop\n      jump\t// out\n        /* \"#utility.yul\":1814:1953   */\n    tag_309:\n        /* \"#utility.yul\":1860:1865   */\n      0x00\n        /* \"#utility.yul\":1898:1904   */\n      dup2\n        /* \"#utility.yul\":1885:1905   */\n      calldataload\n        /* \"#utility.yul\":1876:1905   */\n      swap1\n      pop\n        /* \"#utility.yul\":1914:1947   */\n      tag_387\n        /* \"#utility.yul\":1941:1946   */\n      dup2\n        /* \"#utility.yul\":1914:1947   */\n      tag_308\n      jump\t// in\n    tag_387:\n        /* \"#utility.yul\":1814:1953   */\n      swap3\n      swap2\n      pop\n      pop\n      jump\t// out\n        /* \"#utility.yul\":1959:2288   */\n    tag_47:\n        /* \"#utility.yul\":2018:2024   */\n      0x00\n        /* \"#utility.yul\":2067:2069   */\n      0x20\n        /* \"#utility.yul\":2055:2064   */\n      dup3\n        /* \"#utility.yul\":2046:2053   */\n      dup5\n        /* \"#utility.yul\":2042:2065   */\n      sub\n        /* \"#utility.yul\":2038:2070   */\n      slt\n        /* \"#utility.yul\":2035:2154   */\n      iszero\n      tag_389\n      jumpi\n        /* \"#utility.yul\":2073:2152   */\n      tag_390\n      tag_299\n      jump\t// in\n    tag_390:\n        /* \"#utility.yul\":2035:2154   */\n    tag_389:\n        /* \"#utility.yul\":2193:2194   */\n      0x00\n        /* \"#utility.yul\":2218:2271   */\n      tag_391\n        /* \"#utility.yul\":2263:2270   */\n      dup5\n        /* \"#utility.yul\":2254:2260   */\n      dup3\n        /* \"#utility.yul\":2243:2252   */\n      dup6\n        /* \"#utility.yul\":2239:2261   */\n      add\n        /* \"#utility.yul\":2218:2271   */\n      tag_309\n      jump\t// in\n    tag_391:\n        /* \"#utility.yul\":2208:2271   */\n      swap2\n      pop\n        /* \"#utility.yul\":2164:2281   */\n      pop\n        /* \"#utility.yul\":1959:2288   */\n      swap3\n      swap2\n      pop\n      pop\n      jump\t// out\n        /* \"#utility.yul\":2294:2411   */\n    tag_310:\n        /* \"#utility.yul\":2403:2404   */\n      0x00\n        /* \"#utility.yul\":2400:2401   */\n      dup1\n        /* \"#utility.yul\":2393:2405   */\n      revert\n        /* \"#utility.yul\":2417:2534   */\n    tag_311:\n        /* \"#utility.yul\":2526:2527   */\n      0x00\n        /* \"#utility.yul\":2523:2524   */\n      dup1\n        /* \"#utility.yul\":2516:2528   */\n      revert\n        /* \"#utility.yul\":2540:2657   */\n    tag_312:\n        /* \"#utility.yul\":2649:2650   */\n      0x00\n        /* \"#utility.yul\":2646:2647   */\n      dup1\n        /* \"#utility.yul\":2639:2651   */\n      revert\n        /* \"#utility.yul\":2680:3248   */\n    tag_313:\n        /* \"#utility.yul\":2753:2761   */\n      0x00\n        /* \"#utility.yul\":2763:2769   */\n      dup1\n        /* \"#utility.yul\":2813:2816   */\n      dup4\n        /* \"#utility.yul\":2806:2810   */\n      0x1f\n        /* \"#utility.yul\":2798:2804   */\n      dup5\n        /* \"#utility.yul\":2794:2811   */\n      add\n        /* \"#utility.yul\":2790:2817   */\n      slt\n        /* \"#utility.yul\":2780:2902   */\n      tag_396\n      jumpi\n        /* \"#utility.yul\":2821:2900   */\n      tag_397\n      tag_310\n      jump\t// in\n    tag_397:\n        /* \"#utility.yul\":2780:2902   */\n    tag_396:\n        /* \"#utility.yul\":2934:2940   */\n      dup3\n        /* \"#utility.yul\":2921:2941   */\n      calldataload\n        /* \"#utility.yul\":2911:2941   */\n      swap1\n      pop\n        /* \"#utility.yul\":2964:2982   */\n      0xffffffffffffffff\n        /* \"#utility.yul\":2956:2962   */\n      dup2\n        /* \"#utility.yul\":2953:2983   */\n      gt\n        /* \"#utility.yul\":2950:3067   */\n      iszero\n      tag_398\n      jumpi\n        /* \"#utility.yul\":2986:3065   */\n      tag_399\n      tag_311\n      jump\t// in\n    tag_399:\n        /* \"#utility.yul\":2950:3067   */\n    tag_398:\n        /* \"#utility.yul\":3100:3104   */\n      0x20\n        /* \"#utility.yul\":3092:3098   */\n      dup4\n        /* \"#utility.yul\":3088:3105   */\n      add\n        /* \"#utility.yul\":3076:3105   */\n      swap2\n      pop\n        /* \"#utility.yul\":3154:3157   */\n      dup4\n        /* \"#utility.yul\":3146:3150   */\n      0x20\n        /* \"#utility.yul\":3138:3144   */\n      dup3\n        /* \"#utility.yul\":3134:3151   */\n      mul\n        /* \"#utility.yul\":3124:3132   */\n      dup4\n        /* \"#utility.yul\":3120:3152   */\n      add\n        /* \"#utility.yul\":3117:3158   */\n      gt\n        /* \"#utility.yul\":3114:3242   */\n      iszero\n      tag_400\n      jumpi\n        /* \"#utility.yul\":3161:3240   */\n      tag_401\n      tag_312\n      jump\t// in\n    tag_401:\n        /* \"#utility.yul\":3114:3242   */\n    tag_400:\n        /* \"#utility.yul\":2680:3248   */\n      swap3\n      pop\n      swap3\n      swap1\n      pop\n      jump\t// out\n        /* \"#utility.yul\":3254:3813   */\n    tag_51:\n        /* \"#utility.yul\":3340:3346   */\n      0x00\n        /* \"#utility.yul\":3348:3354   */\n      dup1\n        /* \"#utility.yul\":3397:3399   */\n      0x20\n        /* \"#utility.yul\":3385:3394   */\n      dup4\n        /* \"#utility.yul\":3376:3383   */\n      dup6\n        /* \"#utility.yul\":3372:3395   */\n      sub\n        /* \"#utility.yul\":3368:3400   */\n      slt\n        /* \"#utility.yul\":3365:3484   */\n      iszero\n      tag_403\n      jumpi\n        /* \"#utility.yul\":3403:3482   */\n      tag_404\n      tag_299\n      jump\t// in\n    tag_404:\n        /* \"#utility.yul\":3365:3484   */\n    tag_403:\n        /* \"#utility.yul\":3551:3552   */\n      0x00\n        /* \"#utility.yul\":3540:3549   */\n      dup4\n        /* \"#utility.yul\":3536:3553   */\n      add\n        /* \"#utility.yul\":3523:3554   */\n      calldataload\n        /* \"#utility.yul\":3581:3599   */\n      0xffffffffffffffff\n        /* \"#utility.yul\":3573:3579   */\n      dup2\n        /* \"#utility.yul\":3570:3600   */\n      gt\n        /* \"#utility.yul\":3567:3684   */\n      iszero\n      tag_405\n      jumpi\n        /* \"#utility.yul\":3603:3682   */\n      tag_406\n      tag_300\n      jump\t// in\n    tag_406:\n        /* \"#utility.yul\":3567:3684   */\n    tag_405:\n        /* \"#utility.yul\":3716:3796   */\n      tag_407\n        /* \"#utility.yul\":3788:3795   */\n      dup6\n        /* \"#utility.yul\":3779:3785   */\n      dup3\n        /* \"#utility.yul\":3768:3777   */\n      dup7\n        /* \"#utility.yul\":3764:3786   */\n      add\n        /* \"#utility.yul\":3716:3796   */\n      tag_313\n      jump\t// in\n    tag_407:\n        /* \"#utility.yul\":3698:3796   */\n      swap3\n      pop\n      swap3\n      pop\n        /* \"#utility.yul\":3494:3806   */\n      pop\n        /* \"#utility.yul\":3254:3813   */\n      swap3\n      pop\n      swap3\n      swap1\n      pop\n      jump\t// out\n        /* \"#utility.yul\":3819:3933   */\n    tag_314:\n        /* \"#utility.yul\":3886:3892   */\n      0x00\n        /* \"#utility.yul\":3920:3925   */\n      dup2\n        /* \"#utility.yul\":3914:3926   */\n      mload\n        /* \"#utility.yul\":3904:3926   */\n      swap1\n      pop\n        /* \"#utility.yul\":3819:3933   */\n      swap2\n      swap1\n      pop\n      jump\t// out\n        /* \"#utility.yul\":3939:4123   */\n    tag_315:\n        /* \"#utility.yul\":4038:4049   */\n      0x00\n        /* \"#utility.yul\":4072:4078   */\n      dup3\n        /* \"#utility.yul\":4067:4070   */\n      dup3\n        /* \"#utility.yul\":4060:4079   */\n      mstore\n        /* \"#utility.yul\":4112:4116   */\n      0x20\n        /* \"#utility.yul\":4107:4110   */\n      dup3\n        /* \"#utility.yul\":4103:4117   */\n      add\n        /* \"#utility.yul\":4088:4117   */\n      swap1\n      pop\n        /* \"#utility.yul\":3939:4123   */\n      swap3\n      swap2\n      pop\n      pop\n      jump\t// out\n        /* \"#utility.yul\":4129:4261   */\n    tag_316:\n        /* \"#utility.yul\":4196:4200   */\n      0x00\n        /* \"#utility.yul\":4219:4222   */\n      dup2\n        /* \"#utility.yul\":4211:4222   */\n      swap1\n      pop\n        /* \"#utility.yul\":4249:4253   */\n      0x20\n        /* \"#utility.yul\":4244:4247   */\n      dup3\n        /* \"#utility.yul\":4240:4254   */\n      add\n        /* \"#utility.yul\":4232:4254   */\n      swap1\n      pop\n        /* \"#utility.yul\":4129:4261   */\n      swap2\n      swap1\n      pop\n      jump\t// out\n        /* \"#utility.yul\":4267:4375   */\n    tag_317:\n        /* \"#utility.yul\":4344:4368   */\n      tag_412\n        /* \"#utility.yul\":4362:4367   */\n      dup2\n        /* \"#utility.yul\":4344:4368   */\n      tag_302\n      jump\t// in\n    tag_412:\n        /* \"#utility.yul\":4339:4342   */\n      dup3\n        /* \"#utility.yul\":4332:4369   */\n      mstore\n        /* \"#utility.yul\":4267:4375   */\n      pop\n      pop\n      jump\t// out\n        /* \"#utility.yul\":4381:4560   */\n    tag_318:\n        /* \"#utility.yul\":4450:4460   */\n      0x00\n        /* \"#utility.yul\":4471:4517   */\n      tag_414\n        /* \"#utility.yul\":4513:4516   */\n      dup4\n        /* \"#utility.yul\":4505:4511   */\n      dup4\n        /* \"#utility.yul\":4471:4517   */\n      tag_317\n      jump\t// in\n    tag_414:\n        /* \"#utility.yul\":4549:4553   */\n      0x20\n        /* \"#utility.yul\":4544:4547   */\n      dup4\n        /* \"#utility.yul\":4540:4554   */\n      add\n        /* \"#utility.yul\":4526:4554   */\n      swap1\n      pop\n        /* \"#utility.yul\":4381:4560   */\n      swap3\n      swap2\n      pop\n      pop\n      jump\t// out\n        /* \"#utility.yul\":4566:4679   */\n    tag_319:\n        /* \"#utility.yul\":4636:4640   */\n      0x00\n        /* \"#utility.yul\":4668:4672   */\n      0x20\n        /* \"#utility.yul\":4663:4666   */\n      dup3\n        /* \"#utility.yul\":4659:4673   */\n      add\n        /* \"#utility.yul\":4651:4673   */\n      swap1\n      pop\n        /* \"#utility.yul\":4566:4679   */\n      swap2\n      swap1\n      pop\n      jump\t// out\n        /* \"#utility.yul\":4715:5447   */\n    tag_320:\n        /* \"#utility.yul\":4834:4837   */\n      0x00\n        /* \"#utility.yul\":4863:4917   */\n      tag_417\n        /* \"#utility.yul\":4911:4916   */\n      dup3\n        /* \"#utility.yul\":4863:4917   */\n      tag_314\n      jump\t// in\n    tag_417:\n        /* \"#utility.yul\":4933:5019   */\n      tag_418\n        /* \"#utility.yul\":5012:5018   */\n      dup2\n        /* \"#utility.yul\":5007:5010   */\n      dup6\n        /* \"#utility.yul\":4933:5019   */\n      tag_315\n      jump\t// in\n    tag_418:\n        /* \"#utility.yul\":4926:5019   */\n      swap4\n      pop\n        /* \"#utility.yul\":5043:5099   */\n      tag_419\n        /* \"#utility.yul\":5093:5098   */\n      dup4\n        /* \"#utility.yul\":5043:5099   */\n      tag_316\n      jump\t// in\n    tag_419:\n        /* \"#utility.yul\":5122:5129   */\n      dup1\n        /* \"#utility.yul\":5153:5154   */\n      0x00\n        /* \"#utility.yul\":5138:5422   */\n    tag_420:\n        /* \"#utility.yul\":5163:5169   */\n      dup4\n        /* \"#utility.yul\":5160:5161   */\n      dup2\n        /* \"#utility.yul\":5157:5170   */\n      lt\n        /* \"#utility.yul\":5138:5422   */\n      iszero\n      tag_422\n      jumpi\n        /* \"#utility.yul\":5239:5245   */\n      dup2\n        /* \"#utility.yul\":5233:5246   */\n      mload\n        /* \"#utility.yul\":5266:5329   */\n      tag_423\n        /* \"#utility.yul\":5325:5328   */\n      dup9\n        /* \"#utility.yul\":5310:5323   */\n      dup3\n        /* \"#utility.yul\":5266:5329   */\n      tag_318\n      jump\t// in\n    tag_423:\n        /* \"#utility.yul\":5259:5329   */\n      swap8\n      pop\n        /* \"#utility.yul\":5352:5412   */\n      tag_424\n        /* \"#utility.yul\":5405:5411   */\n      dup4\n        /* \"#utility.yul\":5352:5412   */\n      tag_319\n      jump\t// in\n    tag_424:\n        /* \"#utility.yul\":5342:5412   */\n      swap3\n      pop\n        /* \"#utility.yul\":5198:5422   */\n      pop\n        /* \"#utility.yul\":5185:5186   */\n      0x01\n        /* \"#utility.yul\":5182:5183   */\n      dup2\n        /* \"#utility.yul\":5178:5187   */\n      add\n        /* \"#utility.yul\":5173:5187   */\n      swap1\n      pop\n        /* \"#utility.yul\":5138:5422   */\n      jump(tag_420)\n    tag_422:\n        /* \"#utility.yul\":5142:5156   */\n      pop\n        /* \"#utility.yul\":5438:5441   */\n      dup6\n        /* \"#utility.yul\":5431:5441   */\n      swap4\n      pop\n        /* \"#utility.yul\":4839:5447   */\n      pop\n      pop\n      pop\n        /* \"#utility.yul\":4715:5447   */\n      swap3\n      swap2\n      pop\n      pop\n      jump\t// out\n        /* \"#utility.yul\":5453:5826   */\n    tag_59:\n        /* \"#utility.yul\":5596:5600   */\n      0x00\n        /* \"#utility.yul\":5634:5636   */\n      0x20\n        /* \"#utility.yul\":5623:5632   */\n      dup3\n        /* \"#utility.yul\":5619:5637   */\n      add\n        /* \"#utility.yul\":5611:5637   */\n      swap1\n      pop\n        /* \"#utility.yul\":5683:5692   */\n      dup2\n        /* \"#utility.yul\":5677:5681   */\n      dup2\n        /* \"#utility.yul\":5673:5693   */\n      sub\n        /* \"#utility.yul\":5669:5670   */\n      0x00\n        /* \"#utility.yul\":5658:5667   */\n      dup4\n        /* \"#utility.yul\":5654:5671   */\n      add\n        /* \"#utility.yul\":5647:5694   */\n      mstore\n        /* \"#utility.yul\":5711:5819   */\n      tag_426\n        /* \"#utility.yul\":5814:5818   */\n      dup2\n        /* \"#utility.yul\":5805:5811   */\n      dup5\n        /* \"#utility.yul\":5711:5819   */\n      tag_320\n      jump\t// in\n    tag_426:\n        /* \"#utility.yul\":5703:5819   */\n      swap1\n      pop\n        /* \"#utility.yul\":5453:5826   */\n      swap3\n      swap2\n      pop\n      pop\n      jump\t// out\n        /* \"#utility.yul\":5832:6306   */\n    tag_62:\n        /* \"#utility.yul\":5900:5906   */\n      0x00\n        /* \"#utility.yul\":5908:5914   */\n      dup1\n        /* \"#utility.yul\":5957:5959   */\n      0x40\n        /* \"#utility.yul\":5945:5954   */\n      dup4\n        /* \"#utility.yul\":5936:5943   */\n      dup6\n        /* \"#utility.yul\":5932:5955   */\n      sub\n        /* \"#utility.yul\":5928:5960   */\n      slt\n        /* \"#utility.yul\":5925:6044   */\n      iszero\n      tag_428\n      jumpi\n        /* \"#utility.yul\":5963:6042   */\n      tag_429\n      tag_299\n      jump\t// in\n    tag_429:\n        /* \"#utility.yul\":5925:6044   */\n    tag_428:\n        /* \"#utility.yul\":6083:6084   */\n      0x00\n        /* \"#utility.yul\":6108:6161   */\n      tag_430\n        /* \"#utility.yul\":6153:6160   */\n      dup6\n        /* \"#utility.yul\":6144:6150   */\n      dup3\n        /* \"#utility.yul\":6133:6142   */\n      dup7\n        /* \"#utility.yul\":6129:6151   */\n      add\n        /* \"#utility.yul\":6108:6161   */\n      tag_304\n      jump\t// in\n    tag_430:\n        /* \"#utility.yul\":6098:6161   */\n      swap3\n      pop\n        /* \"#utility.yul\":6054:6171   */\n      pop\n        /* \"#utility.yul\":6210:6212   */\n      0x20\n        /* \"#utility.yul\":6236:6289   */\n      tag_431\n        /* \"#utility.yul\":6281:6288   */\n      dup6\n        /* \"#utility.yul\":6272:6278   */\n      dup3\n        /* \"#utility.yul\":6261:6270   */\n      dup7\n        /* \"#utility.yul\":6257:6279   */\n      add\n        /* \"#utility.yul\":6236:6289   */\n      tag_309\n      jump\t// in\n    tag_431:\n        /* \"#utility.yul\":6226:6289   */\n      swap2\n      pop\n        /* \"#utility.yul\":6181:6299   */\n      pop\n        /* \"#utility.yul\":5832:6306   */\n      swap3\n      pop\n      swap3\n      swap1\n      pop\n      jump\t// out\n        /* \"#utility.yul\":6312:6430   */\n    tag_321:\n        /* \"#utility.yul\":6399:6423   */\n      tag_433\n        /* \"#utility.yul\":6417:6422   */\n      dup2\n        /* \"#utility.yul\":6399:6423   */\n      tag_307\n      jump\t// in\n    tag_433:\n        /* \"#utility.yul\":6394:6397   */\n      dup3\n        /* \"#utility.yul\":6387:6424   */\n      mstore\n        /* \"#utility.yul\":6312:6430   */\n      pop\n      pop\n      jump\t// out\n        /* \"#utility.yul\":6436:6658   */\n    tag_65:\n        /* \"#utility.yul\":6529:6533   */\n      0x00\n        /* \"#utility.yul\":6567:6569   */\n      0x20\n        /* \"#utility.yul\":6556:6565   */\n      dup3\n        /* \"#utility.yul\":6552:6570   */\n      add\n        /* \"#utility.yul\":6544:6570   */\n      swap1\n      pop\n        /* \"#utility.yul\":6580:6651   */\n      tag_435\n        /* \"#utility.yul\":6648:6649   */\n      0x00\n        /* \"#utility.yul\":6637:6646   */\n      dup4\n        /* \"#utility.yul\":6633:6650   */\n      add\n        /* \"#utility.yul\":6624:6630   */\n      dup5\n        /* \"#utility.yul\":6580:6651   */\n      tag_321\n      jump\t// in\n    tag_435:\n        /* \"#utility.yul\":6436:6658   */\n      swap3\n      swap2\n      pop\n      pop\n      jump\t// out\n        /* \"#utility.yul\":6664:6763   */\n    tag_322:\n        /* \"#utility.yul\":6716:6722   */\n      0x00\n        /* \"#utility.yul\":6750:6755   */\n      dup2\n        /* \"#utility.yul\":6744:6756   */\n      mload\n        /* \"#utility.yul\":6734:6756   */\n      swap1\n      pop\n        /* \"#utility.yul\":6664:6763   */\n      swap2\n      swap1\n      pop\n      jump\t// out\n        /* \"#utility.yul\":6769:6938   */\n    tag_323:\n        /* \"#utility.yul\":6853:6864   */\n      0x00\n        /* \"#utility.yul\":6887:6893   */\n      dup3\n        /* \"#utility.yul\":6882:6885   */\n      dup3\n        /* \"#utility.yul\":6875:6894   */\n      mstore\n        /* \"#utility.yul\":6927:6931   */\n      0x20\n        /* \"#utility.yul\":6922:6925   */\n      dup3\n        /* \"#utility.yul\":6918:6932   */\n      add\n        /* \"#utility.yul\":6903:6932   */\n      swap1\n      pop\n        /* \"#utility.yul\":6769:6938   */\n      swap3\n      swap2\n      pop\n      pop\n      jump\t// out\n        /* \"#utility.yul\":6944:7190   */\n    tag_324:\n        /* \"#utility.yul\":7025:7026   */\n      0x00\n        /* \"#utility.yul\":7035:7148   */\n    tag_439:\n        /* \"#utility.yul\":7049:7055   */\n      dup4\n        /* \"#utility.yul\":7046:7047   */\n      dup2\n        /* \"#utility.yul\":7043:7056   */\n      lt\n        /* \"#utility.yul\":7035:7148   */\n      iszero\n      tag_441\n      jumpi\n        /* \"#utility.yul\":7134:7135   */\n      dup1\n        /* \"#utility.yul\":7129:7132   */\n      dup3\n        /* \"#utility.yul\":7125:7136   */\n      add\n        /* \"#utility.yul\":7119:7137   */\n      mload\n        /* \"#utility.yul\":7115:7116   */\n      dup2\n        /* \"#utility.yul\":7110:7113   */\n      dup5\n        /* \"#utility.yul\":7106:7117   */\n      add\n        /* \"#utility.yul\":7099:7138   */\n      mstore\n        /* \"#utility.yul\":7071:7073   */\n      0x20\n        /* \"#utility.yul\":7068:7069   */\n      dup2\n        /* \"#utility.yul\":7064:7074   */\n      add\n        /* \"#utility.yul\":7059:7074   */\n      swap1\n      pop\n        /* \"#utility.yul\":7035:7148   */\n      jump(tag_439)\n    tag_441:\n        /* \"#utility.yul\":7182:7183   */\n      0x00\n        /* \"#utility.yul\":7173:7179   */\n      dup5\n        /* \"#utility.yul\":7168:7171   */\n      dup5\n        /* \"#utility.yul\":7164:7180   */\n      add\n        /* \"#utility.yul\":7157:7184   */\n      mstore\n        /* \"#utility.yul\":7006:7190   */\n      pop\n        /* \"#utility.yul\":6944:7190   */\n      pop\n      pop\n      pop\n      jump\t// out\n        /* \"#utility.yul\":7196:7298   */\n    tag_325:\n        /* \"#utility.yul\":7237:7243   */\n      0x00\n        /* \"#utility.yul\":7288:7290   */\n      0x1f\n        /* \"#utility.yul\":7284:7291   */\n      not\n        /* \"#utility.yul\":7279:7281   */\n      0x1f\n        /* \"#utility.yul\":7272:7277   */\n      dup4\n        /* \"#utility.yul\":7268:7282   */\n      add\n        /* \"#utility.yul\":7264:7292   */\n      and\n        /* \"#utility.yul\":7254:7292   */\n      swap1\n      pop\n        /* \"#utility.yul\":7196:7298   */\n      swap2\n      swap1\n      pop\n      jump\t// out\n        /* \"#utility.yul\":7304:7681   */\n    tag_326:\n        /* \"#utility.yul\":7392:7395   */\n      0x00\n        /* \"#utility.yul\":7420:7459   */\n      tag_444\n        /* \"#utility.yul\":7453:7458   */\n      dup3\n        /* \"#utility.yul\":7420:7459   */\n      tag_322\n      jump\t// in\n    tag_444:\n        /* \"#utility.yul\":7475:7546   */\n      tag_445\n        /* \"#utility.yul\":7539:7545   */\n      dup2\n        /* \"#utility.yul\":7534:7537   */\n      dup6\n        /* \"#utility.yul\":7475:7546   */\n      tag_323\n      jump\t// in\n    tag_445:\n        /* \"#utility.yul\":7468:7546   */\n      swap4\n      pop\n        /* \"#utility.yul\":7555:7620   */\n      tag_446\n        /* \"#utility.yul\":7613:7619   */\n      dup2\n        /* \"#utility.yul\":7608:7611   */\n      dup6\n        /* \"#utility.yul\":7601:7605   */\n      0x20\n        /* \"#utility.yul\":7594:7599   */\n      dup7\n        /* \"#utility.yul\":7590:7606   */\n      add\n        /* \"#utility.yul\":7555:7620   */\n      tag_324\n      jump\t// in\n    tag_446:\n        /* \"#utility.yul\":7645:7674   */\n      tag_447\n        /* \"#utility.yul\":7667:7673   */\n      dup2\n        /* \"#utility.yul\":7645:7674   */\n      tag_325\n      jump\t// in\n    tag_447:\n        /* \"#utility.yul\":7640:7643   */\n      dup5\n        /* \"#utility.yul\":7636:7675   */\n      add\n        /* \"#utility.yul\":7629:7675   */\n      swap2\n      pop\n        /* \"#utility.yul\":7396:7681   */\n      pop\n        /* \"#utility.yul\":7304:7681   */\n      swap3\n      swap2\n      pop\n      pop\n      jump\t// out\n        /* \"#utility.yul\":7687:8000   */\n    tag_71:\n        /* \"#utility.yul\":7800:7804   */\n      0x00\n        /* \"#utility.yul\":7838:7840   */\n      0x20\n        /* \"#utility.yul\":7827:7836   */\n      dup3\n        /* \"#utility.yul\":7823:7841   */\n      add\n        /* \"#utility.yul\":7815:7841   */\n      swap1\n      pop\n        /* \"#utility.yul\":7887:7896   */\n      dup2\n        /* \"#utility.yul\":7881:7885   */\n      dup2\n        /* \"#utility.yul\":7877:7897   */\n      sub\n        /* \"#utility.yul\":7873:7874   */\n      0x00\n        /* \"#utility.yul\":7862:7871   */\n      dup4\n        /* \"#utility.yul\":7858:7875   */\n      add\n        /* \"#utility.yul\":7851:7898   */\n      mstore\n        /* \"#utility.yul\":7915:7993   */\n      tag_449\n        /* \"#utility.yul\":7988:7992   */\n      dup2\n        /* \"#utility.yul\":7979:7985   */\n      dup5\n        /* \"#utility.yul\":7915:7993   */\n      tag_326\n      jump\t// in\n    tag_449:\n        /* \"#utility.yul\":7907:7993   */\n      swap1\n      pop\n        /* \"#utility.yul\":7687:8000   */\n      swap3\n      swap2\n      pop\n      pop\n      jump\t// out\n        /* \"#utility.yul\":8006:8124   */\n    tag_327:\n        /* \"#utility.yul\":8093:8117   */\n      tag_451\n        /* \"#utility.yul\":8111:8116   */\n      dup2\n        /* \"#utility.yul\":8093:8117   */\n      tag_302\n      jump\t// in\n    tag_451:\n        /* \"#utility.yul\":8088:8091   */\n      dup3\n        /* \"#utility.yul\":8081:8118   */\n      mstore\n        /* \"#utility.yul\":8006:8124   */\n      pop\n      pop\n      jump\t// out\n        /* \"#utility.yul\":8130:8352   */\n    tag_75:\n        /* \"#utility.yul\":8223:8227   */\n      0x00\n        /* \"#utility.yul\":8261:8263   */\n      0x20\n        /* \"#utility.yul\":8250:8259   */\n      dup3\n        /* \"#utility.yul\":8246:8264   */\n      add\n        /* \"#utility.yul\":8238:8264   */\n      swap1\n      pop\n        /* \"#utility.yul\":8274:8345   */\n      tag_453\n        /* \"#utility.yul\":8342:8343   */\n      0x00\n        /* \"#utility.yul\":8331:8340   */\n      dup4\n        /* \"#utility.yul\":8327:8344   */\n      add\n        /* \"#utility.yul\":8318:8324   */\n      dup5\n        /* \"#utility.yul\":8274:8345   */\n      tag_327\n      jump\t// in\n    tag_453:\n        /* \"#utility.yul\":8130:8352   */\n      swap3\n      swap2\n      pop\n      pop\n      jump\t// out\n        /* \"#utility.yul\":8358:8474   */\n    tag_328:\n        /* \"#utility.yul\":8428:8449   */\n      tag_455\n        /* \"#utility.yul\":8443:8448   */\n      dup2\n        /* \"#utility.yul\":8428:8449   */\n      tag_305\n      jump\t// in\n    tag_455:\n        /* \"#utility.yul\":8421:8426   */\n      dup2\n        /* \"#utility.yul\":8418:8450   */\n      eq\n        /* \"#utility.yul\":8408:8468   */\n      tag_456\n      jumpi\n        /* \"#utility.yul\":8464:8465   */\n      0x00\n        /* \"#utility.yul\":8461:8462   */\n      dup1\n        /* \"#utility.yul\":8454:8466   */\n      revert\n        /* \"#utility.yul\":8408:8468   */\n    tag_456:\n        /* \"#utility.yul\":8358:8474   */\n      pop\n      jump\t// out\n        /* \"#utility.yul\":8480:8613   */\n    tag_329:\n        /* \"#utility.yul\":8523:8528   */\n      0x00\n        /* \"#utility.yul\":8561:8567   */\n      dup2\n        /* \"#utility.yul\":8548:8568   */\n      calldataload\n        /* \"#utility.yul\":8539:8568   */\n      swap1\n      pop\n        /* \"#utility.yul\":8577:8607   */\n      tag_458\n        /* \"#utility.yul\":8601:8606   */\n      dup2\n        /* \"#utility.yul\":8577:8607   */\n      tag_328\n      jump\t// in\n    tag_458:\n        /* \"#utility.yul\":8480:8613   */\n      swap3\n      swap2\n      pop\n      pop\n      jump\t// out\n        /* \"#utility.yul\":8619:8942   */\n    tag_83:\n        /* \"#utility.yul\":8675:8681   */\n      0x00\n        /* \"#utility.yul\":8724:8726   */\n      0x20\n        /* \"#utility.yul\":8712:8721   */\n      dup3\n        /* \"#utility.yul\":8703:8710   */\n      dup5\n        /* \"#utility.yul\":8699:8722   */\n      sub\n        /* \"#utility.yul\":8695:8727   */\n      slt\n        /* \"#utility.yul\":8692:8811   */\n      iszero\n      tag_460\n      jumpi\n        /* \"#utility.yul\":8730:8809   */\n      tag_461\n      tag_299\n      jump\t// in\n    tag_461:\n        /* \"#utility.yul\":8692:8811   */\n    tag_460:\n        /* \"#utility.yul\":8850:8851   */\n      0x00\n        /* \"#utility.yul\":8875:8925   */\n      tag_462\n        /* \"#utility.yul\":8917:8924   */\n      dup5\n        /* \"#utility.yul\":8908:8914   */\n      dup3\n        /* \"#utility.yul\":8897:8906   */\n      dup6\n        /* \"#utility.yul\":8893:8915   */\n      add\n        /* \"#utility.yul\":8875:8925   */\n      tag_329\n      jump\t// in\n    tag_462:\n        /* \"#utility.yul\":8865:8925   */\n      swap2\n      pop\n        /* \"#utility.yul\":8821:8935   */\n      pop\n        /* \"#utility.yul\":8619:8942   */\n      swap3\n      swap2\n      pop\n      pop\n      jump\t// out\n        /* \"#utility.yul\":8948:9984   */\n    tag_89:\n        /* \"#utility.yul\":9235:9239   */\n      0x00\n        /* \"#utility.yul\":9273:9276   */\n      0xc0\n        /* \"#utility.yul\":9262:9271   */\n      dup3\n        /* \"#utility.yul\":9258:9277   */\n      add\n        /* \"#utility.yul\":9250:9277   */\n      swap1\n      pop\n        /* \"#utility.yul\":9287:9358   */\n      tag_464\n        /* \"#utility.yul\":9355:9356   */\n      0x00\n        /* \"#utility.yul\":9344:9353   */\n      dup4\n        /* \"#utility.yul\":9340:9357   */\n      add\n        /* \"#utility.yul\":9331:9337   */\n      dup10\n        /* \"#utility.yul\":9287:9358   */\n      tag_327\n      jump\t// in\n    tag_464:\n        /* \"#utility.yul\":9368:9434   */\n      tag_465\n        /* \"#utility.yul\":9430:9432   */\n      0x20\n        /* \"#utility.yul\":9419:9428   */\n      dup4\n        /* \"#utility.yul\":9415:9433   */\n      add\n        /* \"#utility.yul\":9406:9412   */\n      dup9\n        /* \"#utility.yul\":9368:9434   */\n      tag_306\n      jump\t// in\n    tag_465:\n        /* \"#utility.yul\":9481:9490   */\n      dup2\n        /* \"#utility.yul\":9475:9479   */\n      dup2\n        /* \"#utility.yul\":9471:9491   */\n      sub\n        /* \"#utility.yul\":9466:9468   */\n      0x40\n        /* \"#utility.yul\":9455:9464   */\n      dup4\n        /* \"#utility.yul\":9451:9469   */\n      add\n        /* \"#utility.yul\":9444:9492   */\n      mstore\n        /* \"#utility.yul\":9509:9587   */\n      tag_466\n        /* \"#utility.yul\":9582:9586   */\n      dup2\n        /* \"#utility.yul\":9573:9579   */\n      dup8\n        /* \"#utility.yul\":9509:9587   */\n      tag_326\n      jump\t// in\n    tag_466:\n        /* \"#utility.yul\":9501:9587   */\n      swap1\n      pop\n        /* \"#utility.yul\":9634:9643   */\n      dup2\n        /* \"#utility.yul\":9628:9632   */\n      dup2\n        /* \"#utility.yul\":9624:9644   */\n      sub\n        /* \"#utility.yul\":9619:9621   */\n      0x60\n        /* \"#utility.yul\":9608:9617   */\n      dup4\n        /* \"#utility.yul\":9604:9622   */\n      add\n        /* \"#utility.yul\":9597:9645   */\n      mstore\n        /* \"#utility.yul\":9662:9740   */\n      tag_467\n        /* \"#utility.yul\":9735:9739   */\n      dup2\n        /* \"#utility.yul\":9726:9732   */\n      dup7\n        /* \"#utility.yul\":9662:9740   */\n      tag_326\n      jump\t// in\n    tag_467:\n        /* \"#utility.yul\":9654:9740   */\n      swap1\n      pop\n        /* \"#utility.yul\":9750:9823   */\n      tag_468\n        /* \"#utility.yul\":9818:9821   */\n      0x80\n        /* \"#utility.yul\":9807:9816   */\n      dup4\n        /* \"#utility.yul\":9803:9822   */\n      add\n        /* \"#utility.yul\":9794:9800   */\n      dup6\n        /* \"#utility.yul\":9750:9823   */\n      tag_321\n      jump\t// in\n    tag_468:\n        /* \"#utility.yul\":9871:9880   */\n      dup2\n        /* \"#utility.yul\":9865:9869   */\n      dup2\n        /* \"#utility.yul\":9861:9881   */\n      sub\n        /* \"#utility.yul\":9855:9858   */\n      0xa0\n        /* \"#utility.yul\":9844:9853   */\n      dup4\n        /* \"#utility.yul\":9840:9859   */\n      add\n        /* \"#utility.yul\":9833:9882   */\n      mstore\n        /* \"#utility.yul\":9899:9977   */\n      tag_469\n        /* \"#utility.yul\":9972:9976   */\n      dup2\n        /* \"#utility.yul\":9963:9969   */\n      dup5\n        /* \"#utility.yul\":9899:9977   */\n      tag_326\n      jump\t// in\n    tag_469:\n        /* \"#utility.yul\":9891:9977   */\n      swap1\n      pop\n        /* \"#utility.yul\":8948:9984   */\n      swap8\n      swap7\n      pop\n      pop\n      pop\n      pop\n      pop\n      pop\n      pop\n      jump\t// out\n        /* \"#utility.yul\":10004:10557   */\n    tag_330:\n        /* \"#utility.yul\":10062:10070   */\n      0x00\n        /* \"#utility.yul\":10072:10078   */\n      dup1\n        /* \"#utility.yul\":10122:10125   */\n      dup4\n        /* \"#utility.yul\":10115:10119   */\n      0x1f\n        /* \"#utility.yul\":10107:10113   */\n      dup5\n        /* \"#utility.yul\":10103:10120   */\n      add\n        /* \"#utility.yul\":10099:10126   */\n      slt\n        /* \"#utility.yul\":10089:10211   */\n      tag_471\n      jumpi\n        /* \"#utility.yul\":10130:10209   */\n      tag_472\n      tag_310\n      jump\t// in\n    tag_472:\n        /* \"#utility.yul\":10089:10211   */\n    tag_471:\n        /* \"#utility.yul\":10243:10249   */\n      dup3\n        /* \"#utility.yul\":10230:10250   */\n      calldataload\n        /* \"#utility.yul\":10220:10250   */\n      swap1\n      pop\n        /* \"#utility.yul\":10273:10291   */\n      0xffffffffffffffff\n        /* \"#utility.yul\":10265:10271   */\n      dup2\n        /* \"#utility.yul\":10262:10292   */\n      gt\n        /* \"#utility.yul\":10259:10376   */\n      iszero\n      tag_473\n      jumpi\n        /* \"#utility.yul\":10295:10374   */\n      tag_474\n      tag_311\n      jump\t// in\n    tag_474:\n        /* \"#utility.yul\":10259:10376   */\n    tag_473:\n        /* \"#utility.yul\":10409:10413   */\n      0x20\n        /* \"#utility.yul\":10401:10407   */\n      dup4\n        /* \"#utility.yul\":10397:10414   */\n      add\n        /* \"#utility.yul\":10385:10414   */\n      swap2\n      pop\n        /* \"#utility.yul\":10463:10466   */\n      dup4\n        /* \"#utility.yul\":10455:10459   */\n      0x01\n        /* \"#utility.yul\":10447:10453   */\n      dup3\n        /* \"#utility.yul\":10443:10460   */\n      mul\n        /* \"#utility.yul\":10433:10441   */\n      dup4\n        /* \"#utility.yul\":10429:10461   */\n      add\n        /* \"#utility.yul\":10426:10467   */\n      gt\n        /* \"#utility.yul\":10423:10551   */\n      iszero\n      tag_475\n      jumpi\n        /* \"#utility.yul\":10470:10549   */\n      tag_476\n      tag_312\n      jump\t// in\n    tag_476:\n        /* \"#utility.yul\":10423:10551   */\n    tag_475:\n        /* \"#utility.yul\":10004:10557   */\n      swap3\n      pop\n      swap3\n      swap1\n      pop\n      jump\t// out\n        /* \"#utility.yul\":10563:11092   */\n    tag_101:\n        /* \"#utility.yul\":10634:10640   */\n      0x00\n        /* \"#utility.yul\":10642:10648   */\n      dup1\n        /* \"#utility.yul\":10691:10693   */\n      0x20\n        /* \"#utility.yul\":10679:10688   */\n      dup4\n        /* \"#utility.yul\":10670:10677   */\n      dup6\n        /* \"#utility.yul\":10666:10689   */\n      sub\n        /* \"#utility.yul\":10662:10694   */\n      slt\n        /* \"#utility.yul\":10659:10778   */\n      iszero\n      tag_478\n      jumpi\n        /* \"#utility.yul\":10697:10776   */\n      tag_479\n      tag_299\n      jump\t// in\n    tag_479:\n        /* \"#utility.yul\":10659:10778   */\n    tag_478:\n        /* \"#utility.yul\":10845:10846   */\n      0x00\n        /* \"#utility.yul\":10834:10843   */\n      dup4\n        /* \"#utility.yul\":10830:10847   */\n      add\n        /* \"#utility.yul\":10817:10848   */\n      calldataload\n        /* \"#utility.yul\":10875:10893   */\n      0xffffffffffffffff\n        /* \"#utility.yul\":10867:10873   */\n      dup2\n        /* \"#utility.yul\":10864:10894   */\n      gt\n        /* \"#utility.yul\":10861:10978   */\n      iszero\n      tag_480\n      jumpi\n        /* \"#utility.yul\":10897:10976   */\n      tag_481\n      tag_300\n      jump\t// in\n    tag_481:\n        /* \"#utility.yul\":10861:10978   */\n    tag_480:\n        /* \"#utility.yul\":11010:11075   */\n      tag_482\n        /* \"#utility.yul\":11067:11074   */\n      dup6\n        /* \"#utility.yul\":11058:11064   */\n      dup3\n        /* \"#utility.yul\":11047:11056   */\n      dup7\n        /* \"#utility.yul\":11043:11065   */\n      add\n        /* \"#utility.yul\":11010:11075   */\n      tag_330\n      jump\t// in\n    tag_482:\n        /* \"#utility.yul\":10992:11075   */\n      swap3\n      pop\n      swap3\n      pop\n        /* \"#utility.yul\":10788:11085   */\n      pop\n        /* \"#utility.yul\":10563:11092   */\n      swap3\n      pop\n      swap3\n      swap1\n      pop\n      jump\t// out\n        /* \"#utility.yul\":11098:11235   */\n    tag_331:\n        /* \"#utility.yul\":11152:11157   */\n      0x00\n        /* \"#utility.yul\":11183:11189   */\n      dup2\n        /* \"#utility.yul\":11177:11190   */\n      mload\n        /* \"#utility.yul\":11168:11190   */\n      swap1\n      pop\n        /* \"#utility.yul\":11199:11229   */\n      tag_484\n        /* \"#utility.yul\":11223:11228   */\n      dup2\n        /* \"#utility.yul\":11199:11229   */\n      tag_328\n      jump\t// in\n    tag_484:\n        /* \"#utility.yul\":11098:11235   */\n      swap3\n      swap2\n      pop\n      pop\n      jump\t// out\n        /* \"#utility.yul\":11241:11586   */\n    tag_147:\n        /* \"#utility.yul\":11308:11314   */\n      0x00\n        /* \"#utility.yul\":11357:11359   */\n      0x20\n        /* \"#utility.yul\":11345:11354   */\n      dup3\n        /* \"#utility.yul\":11336:11343   */\n      dup5\n        /* \"#utility.yul\":11332:11355   */\n      sub\n        /* \"#utility.yul\":11328:11360   */\n      slt\n        /* \"#utility.yul\":11325:11444   */\n      iszero\n      tag_486\n      jumpi\n        /* \"#utility.yul\":11363:11442   */\n      tag_487\n      tag_299\n      jump\t// in\n    tag_487:\n        /* \"#utility.yul\":11325:11444   */\n    tag_486:\n        /* \"#utility.yul\":11483:11484   */\n      0x00\n        /* \"#utility.yul\":11508:11569   */\n      tag_488\n        /* \"#utility.yul\":11561:11568   */\n      dup5\n        /* \"#utility.yul\":11552:11558   */\n      dup3\n        /* \"#utility.yul\":11541:11550   */\n      dup6\n        /* \"#utility.yul\":11537:11559   */\n      add\n        /* \"#utility.yul\":11508:11569   */\n      tag_331\n      jump\t// in\n    tag_488:\n        /* \"#utility.yul\":11498:11569   */\n      swap2\n      pop\n        /* \"#utility.yul\":11454:11579   */\n      pop\n        /* \"#utility.yul\":11241:11586   */\n      swap3\n      swap2\n      pop\n      pop\n      jump\t// out\n        /* \"#utility.yul\":11592:11753   */\n    tag_332:\n        /* \"#utility.yul\":11732:11745   */\n      0x5072656465636573736f72000000000000000000000000000000000000000000\n        /* \"#utility.yul\":11728:11729   */\n      0x00\n        /* \"#utility.yul\":11720:11726   */\n      dup3\n        /* \"#utility.yul\":11716:11730   */\n      add\n        /* \"#utility.yul\":11709:11746   */\n      mstore\n        /* \"#utility.yul\":11592:11753   */\n      pop\n      jump\t// out\n        /* \"#utility.yul\":11759:12125   */\n    tag_333:\n        /* \"#utility.yul\":11901:11904   */\n      0x00\n        /* \"#utility.yul\":11922:11989   */\n      tag_491\n        /* \"#utility.yul\":11986:11988   */\n      0x0b\n        /* \"#utility.yul\":11981:11984   */\n      dup4\n        /* \"#utility.yul\":11922:11989   */\n      tag_323\n      jump\t// in\n    tag_491:\n        /* \"#utility.yul\":11915:11989   */\n      swap2\n      pop\n        /* \"#utility.yul\":11998:12091   */\n      tag_492\n        /* \"#utility.yul\":12087:12090   */\n      dup3\n        /* \"#utility.yul\":11998:12091   */\n      tag_332\n      jump\t// in\n    tag_492:\n        /* \"#utility.yul\":12116:12118   */\n      0x20\n        /* \"#utility.yul\":12111:12114   */\n      dup3\n        /* \"#utility.yul\":12107:12119   */\n      add\n        /* \"#utility.yul\":12100:12119   */\n      swap1\n      pop\n        /* \"#utility.yul\":11759:12125   */\n      swap2\n      swap1\n      pop\n      jump\t// out\n        /* \"#utility.yul\":12131:12648   */\n    tag_154:\n        /* \"#utility.yul\":12319:12323   */\n      0x00\n        /* \"#utility.yul\":12357:12359   */\n      0x40\n        /* \"#utility.yul\":12346:12355   */\n      dup3\n        /* \"#utility.yul\":12342:12360   */\n      add\n        /* \"#utility.yul\":12334:12360   */\n      swap1\n      pop\n        /* \"#utility.yul\":12406:12415   */\n      dup2\n        /* \"#utility.yul\":12400:12404   */\n      dup2\n        /* \"#utility.yul\":12396:12416   */\n      sub\n        /* \"#utility.yul\":12392:12393   */\n      0x00\n        /* \"#utility.yul\":12381:12390   */\n      dup4\n        /* \"#utility.yul\":12377:12394   */\n      add\n        /* \"#utility.yul\":12370:12417   */\n      mstore\n        /* \"#utility.yul\":12434:12565   */\n      tag_494\n        /* \"#utility.yul\":12560:12564   */\n      dup2\n        /* \"#utility.yul\":12434:12565   */\n      tag_333\n      jump\t// in\n    tag_494:\n        /* \"#utility.yul\":12426:12565   */\n      swap1\n      pop\n        /* \"#utility.yul\":12575:12641   */\n      tag_495\n        /* \"#utility.yul\":12637:12639   */\n      0x20\n        /* \"#utility.yul\":12626:12635   */\n      dup4\n        /* \"#utility.yul\":12622:12640   */\n      add\n        /* \"#utility.yul\":12613:12619   */\n      dup5\n        /* \"#utility.yul\":12575:12641   */\n      tag_306\n      jump\t// in\n    tag_495:\n        /* \"#utility.yul\":12131:12648   */\n      swap3\n      swap2\n      pop\n      pop\n      jump\t// out\n        /* \"#utility.yul\":12654:12824   */\n    tag_334:\n        /* \"#utility.yul\":12794:12816   */\n      0x63616c6c6572206d757374206265206f776e6572000000000000000000000000\n        /* \"#utility.yul\":12790:12791   */\n      0x00\n        /* \"#utility.yul\":12782:12788   */\n      dup3\n        /* \"#utility.yul\":12778:12792   */\n      add\n        /* \"#utility.yul\":12771:12817   */\n      mstore\n        /* \"#utility.yul\":12654:12824   */\n      pop\n      jump\t// out\n        /* \"#utility.yul\":12830:13196   */\n    tag_335:\n        /* \"#utility.yul\":12972:12975   */\n      0x00\n        /* \"#utility.yul\":12993:13060   */\n      tag_498\n        /* \"#utility.yul\":13057:13059   */\n      0x14\n        /* \"#utility.yul\":13052:13055   */\n      dup4\n        /* \"#utility.yul\":12993:13060   */\n      tag_323\n      jump\t// in\n    tag_498:\n        /* \"#utility.yul\":12986:13060   */\n      swap2\n      pop\n        /* \"#utility.yul\":13069:13162   */\n      tag_499\n        /* \"#utility.yul\":13158:13161   */\n      dup3\n        /* \"#utility.yul\":13069:13162   */\n      tag_334\n      jump\t// in\n    tag_499:\n        /* \"#utility.yul\":13187:13189   */\n      0x20\n        /* \"#utility.yul\":13182:13185   */\n      dup3\n        /* \"#utility.yul\":13178:13190   */\n      add\n        /* \"#utility.yul\":13171:13190   */\n      swap1\n      pop\n        /* \"#utility.yul\":12830:13196   */\n      swap2\n      swap1\n      pop\n      jump\t// out\n        /* \"#utility.yul\":13202:13621   */\n    tag_160:\n        /* \"#utility.yul\":13368:13372   */\n      0x00\n        /* \"#utility.yul\":13406:13408   */\n      0x20\n        /* \"#utility.yul\":13395:13404   */\n      dup3\n        /* \"#utility.yul\":13391:13409   */\n      add\n        /* \"#utility.yul\":13383:13409   */\n      swap1\n      pop\n        /* \"#utility.yul\":13455:13464   */\n      dup2\n        /* \"#utility.yul\":13449:13453   */\n      dup2\n        /* \"#utility.yul\":13445:13465   */\n      sub\n        /* \"#utility.yul\":13441:13442   */\n      0x00\n        /* \"#utility.yul\":13430:13439   */\n      dup4\n        /* \"#utility.yul\":13426:13443   */\n      add\n        /* \"#utility.yul\":13419:13466   */\n      mstore\n        /* \"#utility.yul\":13483:13614   */\n      tag_501\n        /* \"#utility.yul\":13609:13613   */\n      dup2\n        /* \"#utility.yul\":13483:13614   */\n      tag_335\n      jump\t// in\n    tag_501:\n        /* \"#utility.yul\":13475:13614   */\n      swap1\n      pop\n        /* \"#utility.yul\":13202:13621   */\n      swap2\n      swap1\n      pop\n      jump\t// out\n        /* \"#utility.yul\":13627:13807   */\n    tag_171:\n        /* \"#utility.yul\":13675:13752   */\n      0x4e487b7100000000000000000000000000000000000000000000000000000000\n        /* \"#utility.yul\":13672:13673   */\n      0x00\n        /* \"#utility.yul\":13665:13753   */\n      mstore\n        /* \"#utility.yul\":13772:13776   */\n      0x32\n        /* \"#utility.yul\":13769:13770   */\n      0x04\n        /* \"#utility.yul\":13762:13777   */\n      mstore\n        /* \"#utility.yul\":13796:13800   */\n      0x24\n        /* \"#utility.yul\":13793:13794   */\n      0x00\n        /* \"#utility.yul\":13786:13801   */\n      revert\n        /* \"#utility.yul\":13813:13993   */\n    tag_336:\n        /* \"#utility.yul\":13861:13938   */\n      0x4e487b7100000000000000000000000000000000000000000000000000000000\n        /* \"#utility.yul\":13858:13859   */\n      0x00\n        /* \"#utility.yul\":13851:13939   */\n      mstore\n        /* \"#utility.yul\":13958:13962   */\n      0x11\n        /* \"#utility.yul\":13955:13956   */\n      0x04\n        /* \"#utility.yul\":13948:13963   */\n      mstore\n        /* \"#utility.yul\":13982:13986   */\n      0x24\n        /* \"#utility.yul\":13979:13980   */\n      0x00\n        /* \"#utility.yul\":13972:13987   */\n      revert\n        /* \"#utility.yul\":13999:14232   */\n    tag_174:\n        /* \"#utility.yul\":14038:14041   */\n      0x00\n        /* \"#utility.yul\":14061:14085   */\n      tag_505\n        /* \"#utility.yul\":14079:14084   */\n      dup3\n        /* \"#utility.yul\":14061:14085   */\n      tag_307\n      jump\t// in\n    tag_505:\n        /* \"#utility.yul\":14052:14085   */\n      swap2\n      pop\n        /* \"#utility.yul\":14107:14173   */\n      0xffffffffffffffffffffffffffffffffffffffffffffffffffffffffffffffff\n        /* \"#utility.yul\":14100:14105   */\n      dup3\n        /* \"#utility.yul\":14097:14174   */\n      sub\n        /* \"#utility.yul\":14094:14197   */\n      tag_506\n      jumpi\n        /* \"#utility.yul\":14177:14195   */\n      tag_507\n      tag_336\n      jump\t// in\n    tag_507:\n        /* \"#utility.yul\":14094:14197   */\n    tag_506:\n        /* \"#utility.yul\":14224:14225   */\n      0x01\n        /* \"#utility.yul\":14217:14222   */\n      dup3\n        /* \"#utility.yul\":14213:14226   */\n      add\n        /* \"#utility.yul\":14206:14226   */\n      swap1\n      pop\n        /* \"#utility.yul\":13999:14232   */\n      swap2\n      swap1\n      pop\n      jump\t// out\n        /* \"#utility.yul\":14238:14472   */\n    tag_337:\n        /* \"#utility.yul\":14378:14412   */\n      0x526571756573746f72206973206e6f7420612063616e64696461746520666f72\n        /* \"#utility.yul\":14374:14375   */\n      0x00\n        /* \"#utility.yul\":14366:14372   */\n      dup3\n        /* \"#utility.yul\":14362:14376   */\n      add\n        /* \"#utility.yul\":14355:14413   */\n      mstore\n        /* \"#utility.yul\":14447:14464   */\n      0x20737563636573736f72736869702e0000000000000000000000000000000000\n        /* \"#utility.yul\":14442:14444   */\n      0x20\n        /* \"#utility.yul\":14434:14440   */\n      dup3\n        /* \"#utility.yul\":14430:14445   */\n      add\n        /* \"#utility.yul\":14423:14465   */\n      mstore\n        /* \"#utility.yul\":14238:14472   */\n      pop\n      jump\t// out\n        /* \"#utility.yul\":14478:14844   */\n    tag_338:\n        /* \"#utility.yul\":14620:14623   */\n      0x00\n        /* \"#utility.yul\":14641:14708   */\n      tag_510\n        /* \"#utility.yul\":14705:14707   */\n      0x2f\n        /* \"#utility.yul\":14700:14703   */\n      dup4\n        /* \"#utility.yul\":14641:14708   */\n      tag_323\n      jump\t// in\n    tag_510:\n        /* \"#utility.yul\":14634:14708   */\n      swap2\n      pop\n        /* \"#utility.yul\":14717:14810   */\n      tag_511\n        /* \"#utility.yul\":14806:14809   */\n      dup3\n        /* \"#utility.yul\":14717:14810   */\n      tag_337\n      jump\t// in\n    tag_511:\n        /* \"#utility.yul\":14835:14837   */\n      0x40\n        /* \"#utility.yul\":14830:14833   */\n      dup3\n        /* \"#utility.yul\":14826:14838   */\n      add\n        /* \"#utility.yul\":14819:14838   */\n      swap1\n      pop\n        /* \"#utility.yul\":14478:14844   */\n      swap2\n      swap1\n      pop\n      jump\t// out\n        /* \"#utility.yul\":14850:15269   */\n    tag_187:\n        /* \"#utility.yul\":15016:15020   */\n      0x00\n        /* \"#utility.yul\":15054:15056   */\n      0x20\n        /* \"#utility.yul\":15043:15052   */\n      dup3\n        /* \"#utility.yul\":15039:15057   */\n      add\n        /* \"#utility.yul\":15031:15057   */\n      swap1\n      pop\n        /* \"#utility.yul\":15103:15112   */\n      dup2\n        /* \"#utility.yul\":15097:15101   */\n      dup2\n        /* \"#utility.yul\":15093:15113   */\n      sub\n        /* \"#utility.yul\":15089:15090   */\n      0x00\n        /* \"#utility.yul\":15078:15087   */\n      dup4\n        /* \"#utility.yul\":15074:15091   */\n      add\n        /* \"#utility.yul\":15067:15114   */\n      mstore\n        /* \"#utility.yul\":15131:15262   */\n      tag_513\n        /* \"#utility.yul\":15257:15261   */\n      dup2\n        /* \"#utility.yul\":15131:15262   */\n      tag_338\n      jump\t// in\n    tag_513:\n        /* \"#utility.yul\":15123:15262   */\n      swap1\n      pop\n        /* \"#utility.yul\":14850:15269   */\n      swap2\n      swap1\n      pop\n      jump\t// out\n        /* \"#utility.yul\":15275:15455   */\n    tag_339:\n        /* \"#utility.yul\":15323:15400   */\n      0x4e487b7100000000000000000000000000000000000000000000000000000000\n        /* \"#utility.yul\":15320:15321   */\n      0x00\n        /* \"#utility.yul\":15313:15401   */\n      mstore\n        /* \"#utility.yul\":15420:15424   */\n      0x22\n        /* \"#utility.yul\":15417:15418   */\n      0x04\n        /* \"#utility.yul\":15410:15425   */\n      mstore\n        /* \"#utility.yul\":15444:15448   */\n      0x24\n        /* \"#utility.yul\":15441:15442   */\n      0x00\n        /* \"#utility.yul\":15434:15449   */\n      revert\n        /* \"#utility.yul\":15461:15781   */\n    tag_191:\n        /* \"#utility.yul\":15505:15511   */\n      0x00\n        /* \"#utility.yul\":15542:15543   */\n      0x02\n        /* \"#utility.yul\":15536:15540   */\n      dup3\n        /* \"#utility.yul\":15532:15544   */\n      div\n        /* \"#utility.yul\":15522:15544   */\n      swap1\n      pop\n        /* \"#utility.yul\":15589:15590   */\n      0x01\n        /* \"#utility.yul\":15583:15587   */\n      dup3\n        /* \"#utility.yul\":15579:15591   */\n      and\n        /* \"#utility.yul\":15610:15628   */\n      dup1\n        /* \"#utility.yul\":15600:15681   */\n      tag_516\n      jumpi\n        /* \"#utility.yul\":15666:15670   */\n      0x7f\n        /* \"#utility.yul\":15658:15664   */\n      dup3\n        /* \"#utility.yul\":15654:15671   */\n      and\n        /* \"#utility.yul\":15644:15671   */\n      swap2\n      pop\n        /* \"#utility.yul\":15600:15681   */\n    tag_516:\n        /* \"#utility.yul\":15728:15730   */\n      0x20\n        /* \"#utility.yul\":15720:15726   */\n      dup3\n        /* \"#utility.yul\":15717:15731   */\n      lt\n        /* \"#utility.yul\":15697:15715   */\n      dup2\n        /* \"#utility.yul\":15694:15732   */\n      sub\n        /* \"#utility.yul\":15691:15775   */\n      tag_517\n      jumpi\n        /* \"#utility.yul\":15747:15765   */\n      tag_518\n      tag_339\n      jump\t// in\n    tag_518:\n        /* \"#utility.yul\":15691:15775   */\n    tag_517:\n        /* \"#utility.yul\":15512:15781   */\n      pop\n        /* \"#utility.yul\":15461:15781   */\n      swap2\n      swap1\n      pop\n      jump\t// out\n        /* \"#utility.yul\":15787:16023   */\n    tag_340:\n        /* \"#utility.yul\":15927:15961   */\n      0x526571756573746f72206973206e6f7420612063616e64696461746520666f72\n        /* \"#utility.yul\":15923:15924   */\n      0x00\n        /* \"#utility.yul\":15915:15921   */\n      dup3\n        /* \"#utility.yul\":15911:15925   */\n      add\n        /* \"#utility.yul\":15904:15962   */\n      mstore\n        /* \"#utility.yul\":15996:16015   */\n      0x207072656465636573736f72736869702e000000000000000000000000000000\n        /* \"#utility.yul\":15991:15993   */\n      0x20\n        /* \"#utility.yul\":15983:15989   */\n      dup3\n        /* \"#utility.yul\":15979:15994   */\n      add\n        /* \"#utility.yul\":15972:16016   */\n      mstore\n        /* \"#utility.yul\":15787:16023   */\n      pop\n      jump\t// out\n        /* \"#utility.yul\":16029:16395   */\n    tag_341:\n        /* \"#utility.yul\":16171:16174   */\n      0x00\n        /* \"#utility.yul\":16192:16259   */\n      tag_521\n        /* \"#utility.yul\":16256:16258   */\n      0x31\n        /* \"#utility.yul\":16251:16254   */\n      dup4\n        /* \"#utility.yul\":16192:16259   */\n      tag_323\n      jump\t// in\n    tag_521:\n        /* \"#utility.yul\":16185:16259   */\n      swap2\n      pop\n        /* \"#utility.yul\":16268:16361   */\n      tag_522\n        /* \"#utility.yul\":16357:16360   */\n      dup3\n        /* \"#utility.yul\":16268:16361   */\n      tag_340\n      jump\t// in\n    tag_522:\n        /* \"#utility.yul\":16386:16388   */\n      0x40\n        /* \"#utility.yul\":16381:16384   */\n      dup3\n        /* \"#utility.yul\":16377:16389   */\n      add\n        /* \"#utility.yul\":16370:16389   */\n      swap1\n      pop\n        /* \"#utility.yul\":16029:16395   */\n      swap2\n      swap1\n      pop\n      jump\t// out\n        /* \"#utility.yul\":16401:16820   */\n    tag_206:\n        /* \"#utility.yul\":16567:16571   */\n      0x00\n        /* \"#utility.yul\":16605:16607   */\n      0x20\n        /* \"#utility.yul\":16594:16603   */\n      dup3\n        /* \"#utility.yul\":16590:16608   */\n      add\n        /* \"#utility.yul\":16582:16608   */\n      swap1\n      pop\n        /* \"#utility.yul\":16654:16663   */\n      dup2\n        /* \"#utility.yul\":16648:16652   */\n      dup2\n        /* \"#utility.yul\":16644:16664   */\n      sub\n        /* \"#utility.yul\":16640:16641   */\n      0x00\n        /* \"#utility.yul\":16629:16638   */\n      dup4\n        /* \"#utility.yul\":16625:16642   */\n      add\n        /* \"#utility.yul\":16618:16665   */\n      mstore\n        /* \"#utility.yul\":16682:16813   */\n      tag_524\n        /* \"#utility.yul\":16808:16812   */\n      dup2\n        /* \"#utility.yul\":16682:16813   */\n      tag_341\n      jump\t// in\n    tag_524:\n        /* \"#utility.yul\":16674:16813   */\n      swap1\n      pop\n        /* \"#utility.yul\":16401:16820   */\n      swap2\n      swap1\n      pop\n      jump\t// out\n        /* \"#utility.yul\":16826:16923   */\n    tag_342:\n        /* \"#utility.yul\":16885:16891   */\n      0x00\n        /* \"#utility.yul\":16913:16916   */\n      dup3\n        /* \"#utility.yul\":16903:16916   */\n      swap1\n      pop\n        /* \"#utility.yul\":16826:16923   */\n      swap3\n      swap2\n      pop\n      pop\n      jump\t// out\n        /* \"#utility.yul\":16929:17109   */\n    tag_343:\n        /* \"#utility.yul\":16977:17054   */\n      0x4e487b7100000000000000000000000000000000000000000000000000000000\n        /* \"#utility.yul\":16974:16975   */\n      0x00\n        /* \"#utility.yul\":16967:17055   */\n      mstore\n        /* \"#utility.yul\":17074:17078   */\n      0x41\n        /* \"#utility.yul\":17071:17072   */\n      0x04\n        /* \"#utility.yul\":17064:17079   */\n      mstore\n        /* \"#utility.yul\":17098:17102   */\n      0x24\n        /* \"#utility.yul\":17095:17096   */\n      0x00\n        /* \"#utility.yul\":17088:17103   */\n      revert\n        /* \"#utility.yul\":17115:17256   */\n    tag_344:\n        /* \"#utility.yul\":17164:17168   */\n      0x00\n        /* \"#utility.yul\":17187:17190   */\n      dup2\n        /* \"#utility.yul\":17179:17190   */\n      swap1\n      pop\n        /* \"#utility.yul\":17210:17213   */\n      dup2\n        /* \"#utility.yul\":17207:17208   */\n      0x00\n        /* \"#utility.yul\":17200:17214   */\n      mstore\n        /* \"#utility.yul\":17244:17248   */\n      0x20\n        /* \"#utility.yul\":17241:17242   */\n      0x00\n        /* \"#utility.yul\":17231:17249   */\n      keccak256\n        /* \"#utility.yul\":17223:17249   */\n      swap1\n      pop\n        /* \"#utility.yul\":17115:17256   */\n      swap2\n      swap1\n      pop\n      jump\t// out\n        /* \"#utility.yul\":17262:17355   */\n    tag_345:\n        /* \"#utility.yul\":17299:17305   */\n      0x00\n        /* \"#utility.yul\":17346:17348   */\n      0x20\n        /* \"#utility.yul\":17341:17343   */\n      0x1f\n        /* \"#utility.yul\":17334:17339   */\n      dup4\n        /* \"#utility.yul\":17330:17344   */\n      add\n        /* \"#utility.yul\":17326:17349   */\n      div\n        /* \"#utility.yul\":17316:17349   */\n      swap1\n      pop\n        /* \"#utility.yul\":17262:17355   */\n      swap2\n      swap1\n      pop\n      jump\t// out\n        /* \"#utility.yul\":17361:17468   */\n    tag_346:\n        /* \"#utility.yul\":17405:17413   */\n      0x00\n        /* \"#utility.yul\":17455:17460   */\n      dup3\n        /* \"#utility.yul\":17449:17453   */\n      dup3\n        /* \"#utility.yul\":17445:17461   */\n      shl\n        /* \"#utility.yul\":17424:17461   */\n      swap1\n      pop\n        /* \"#utility.yul\":17361:17468   */\n      swap3\n      swap2\n      pop\n      pop\n      jump\t// out\n        /* \"#utility.yul\":17474:17867   */\n    tag_347:\n        /* \"#utility.yul\":17543:17549   */\n      0x00\n        /* \"#utility.yul\":17593:17594   */\n      0x08\n        /* \"#utility.yul\":17581:17591   */\n      dup4\n        /* \"#utility.yul\":17577:17595   */\n      mul\n        /* \"#utility.yul\":17616:17713   */\n      tag_531\n        /* \"#utility.yul\":17646:17712   */\n      0xffffffffffffffffffffffffffffffffffffffffffffffffffffffffffffffff\n        /* \"#utility.yul\":17635:17644   */\n      dup3\n        /* \"#utility.yul\":17616:17713   */\n      tag_346\n      jump\t// in\n    tag_531:\n        /* \"#utility.yul\":17734:17773   */\n      tag_532\n        /* \"#utility.yul\":17764:17772   */\n      dup7\n        /* \"#utility.yul\":17753:17762   */\n      dup4\n        /* \"#utility.yul\":17734:17773   */\n      tag_346\n      jump\t// in\n    tag_532:\n        /* \"#utility.yul\":17722:17773   */\n      swap6\n      pop\n        /* \"#utility.yul\":17806:17810   */\n      dup1\n        /* \"#utility.yul\":17802:17811   */\n      not\n        /* \"#utility.yul\":17795:17800   */\n      dup5\n        /* \"#utility.yul\":17791:17812   */\n      and\n        /* \"#utility.yul\":17782:17812   */\n      swap4\n      pop\n        /* \"#utility.yul\":17855:17859   */\n      dup1\n        /* \"#utility.yul\":17845:17853   */\n      dup7\n        /* \"#utility.yul\":17841:17860   */\n      and\n        /* \"#utility.yul\":17834:17839   */\n      dup5\n        /* \"#utility.yul\":17831:17861   */\n      or\n        /* \"#utility.yul\":17821:17861   */\n      swap3\n      pop\n        /* \"#utility.yul\":17550:17867   */\n      pop\n      pop\n        /* \"#utility.yul\":17474:17867   */\n      swap4\n      swap3\n      pop\n      pop\n      pop\n      jump\t// out\n        /* \"#utility.yul\":17873:17933   */\n    tag_348:\n        /* \"#utility.yul\":17901:17904   */\n      0x00\n        /* \"#utility.yul\":17922:17927   */\n      dup2\n        /* \"#utility.yul\":17915:17927   */\n      swap1\n      pop\n        /* \"#utility.yul\":17873:17933   */\n      swap2\n      swap1\n      pop\n      jump\t// out\n        /* \"#utility.yul\":17939:18081   */\n    tag_349:\n        /* \"#utility.yul\":17989:17998   */\n      0x00\n        /* \"#utility.yul\":18022:18075   */\n      tag_535\n        /* \"#utility.yul\":18040:18074   */\n      tag_536\n        /* \"#utility.yul\":18049:18073   */\n      tag_537\n        /* \"#utility.yul\":18067:18072   */\n      dup5\n        /* \"#utility.yul\":18049:18073   */\n      tag_307\n      jump\t// in\n    tag_537:\n        /* \"#utility.yul\":18040:18074   */\n      tag_348\n      jump\t// in\n    tag_536:\n        /* \"#utility.yul\":18022:18075   */\n      tag_307\n      jump\t// in\n    tag_535:\n        /* \"#utility.yul\":18009:18075   */\n      swap1\n      pop\n        /* \"#utility.yul\":17939:18081   */\n      swap2\n      swap1\n      pop\n      jump\t// out\n        /* \"#utility.yul\":18087:18162   */\n    tag_350:\n        /* \"#utility.yul\":18130:18133   */\n      0x00\n        /* \"#utility.yul\":18151:18156   */\n      dup2\n        /* \"#utility.yul\":18144:18156   */\n      swap1\n      pop\n        /* \"#utility.yul\":18087:18162   */\n      swap2\n      swap1\n      pop\n      jump\t// out\n        /* \"#utility.yul\":18168:18437   */\n    tag_351:\n        /* \"#utility.yul\":18278:18317   */\n      tag_540\n        /* \"#utility.yul\":18309:18316   */\n      dup4\n        /* \"#utility.yul\":18278:18317   */\n      tag_349\n      jump\t// in\n    tag_540:\n        /* \"#utility.yul\":18339:18430   */\n      tag_541\n        /* \"#utility.yul\":18388:18429   */\n      tag_542\n        /* \"#utility.yul\":18412:18428   */\n      dup3\n        /* \"#utility.yul\":18388:18429   */\n      tag_350\n      jump\t// in\n    tag_542:\n        /* \"#utility.yul\":18380:18386   */\n      dup5\n        /* \"#utility.yul\":18373:18377   */\n      dup5\n        /* \"#utility.yul\":18367:18378   */\n      sload\n        /* \"#utility.yul\":18339:18430   */\n      tag_347\n      jump\t// in\n    tag_541:\n        /* \"#utility.yul\":18333:18337   */\n      dup3\n        /* \"#utility.yul\":18326:18431   */\n      sstore\n        /* \"#utility.yul\":18244:18437   */\n      pop\n        /* \"#utility.yul\":18168:18437   */\n      pop\n      pop\n      pop\n      jump\t// out\n        /* \"#utility.yul\":18443:18516   */\n    tag_352:\n        /* \"#utility.yul\":18488:18491   */\n      0x00\n        /* \"#utility.yul\":18443:18516   */\n      swap1\n      jump\t// out\n        /* \"#utility.yul\":18522:18711   */\n    tag_353:\n        /* \"#utility.yul\":18599:18631   */\n      tag_545\n      tag_352\n      jump\t// in\n    tag_545:\n        /* \"#utility.yul\":18640:18705   */\n      tag_546\n        /* \"#utility.yul\":18698:18704   */\n      dup2\n        /* \"#utility.yul\":18690:18696   */\n      dup5\n        /* \"#utility.yul\":18684:18688   */\n      dup5\n        /* \"#utility.yul\":18640:18705   */\n      tag_351\n      jump\t// in\n    tag_546:\n        /* \"#utility.yul\":18575:18711   */\n      pop\n        /* \"#utility.yul\":18522:18711   */\n      pop\n      pop\n      jump\t// out\n        /* \"#utility.yul\":18717:18903   */\n    tag_354:\n        /* \"#utility.yul\":18777:18897   */\n    tag_548:\n        /* \"#utility.yul\":18794:18797   */\n      dup2\n        /* \"#utility.yul\":18787:18792   */\n      dup2\n        /* \"#utility.yul\":18784:18798   */\n      lt\n        /* \"#utility.yul\":18777:18897   */\n      iszero\n      tag_550\n      jumpi\n        /* \"#utility.yul\":18848:18887   */\n      tag_551\n        /* \"#utility.yul\":18885:18886   */\n      0x00\n        /* \"#utility.yul\":18878:18883   */\n      dup3\n        /* \"#utility.yul\":18848:18887   */\n      tag_353\n      jump\t// in\n    tag_551:\n        /* \"#utility.yul\":18821:18822   */\n      0x01\n        /* \"#utility.yul\":18814:18819   */\n      dup2\n        /* \"#utility.yul\":18810:18823   */\n      add\n        /* \"#utility.yul\":18801:18823   */\n      swap1\n      pop\n        /* \"#utility.yul\":18777:18897   */\n      jump(tag_548)\n    tag_550:\n        /* \"#utility.yul\":18717:18903   */\n      pop\n      pop\n      jump\t// out\n        /* \"#utility.yul\":18909:19452   */\n    tag_355:\n        /* \"#utility.yul\":19010:19012   */\n      0x1f\n        /* \"#utility.yul\":19005:19008   */\n      dup3\n        /* \"#utility.yul\":19002:19013   */\n      gt\n        /* \"#utility.yul\":18999:19445   */\n      iszero\n      tag_553\n      jumpi\n        /* \"#utility.yul\":19044:19082   */\n      tag_554\n        /* \"#utility.yul\":19076:19081   */\n      dup2\n        /* \"#utility.yul\":19044:19082   */\n      tag_344\n      jump\t// in\n    tag_554:\n        /* \"#utility.yul\":19128:19157   */\n      tag_555\n        /* \"#utility.yul\":19146:19156   */\n      dup5\n        /* \"#utility.yul\":19128:19157   */\n      tag_345\n      jump\t// in\n    tag_555:\n        /* \"#utility.yul\":19118:19126   */\n      dup2\n        /* \"#utility.yul\":19114:19158   */\n      add\n        /* \"#utility.yul\":19311:19313   */\n      0x20\n        /* \"#utility.yul\":19299:19309   */\n      dup6\n        /* \"#utility.yul\":19296:19314   */\n      lt\n        /* \"#utility.yul\":19293:19342   */\n      iszero\n      tag_556\n      jumpi\n        /* \"#utility.yul\":19332:19340   */\n      dup2\n        /* \"#utility.yul\":19317:19340   */\n      swap1\n      pop\n        /* \"#utility.yul\":19293:19342   */\n    tag_556:\n        /* \"#utility.yul\":19355:19435   */\n      tag_557\n        /* \"#utility.yul\":19411:19433   */\n      tag_558\n        /* \"#utility.yul\":19429:19432   */\n      dup6\n        /* \"#utility.yul\":19411:19433   */\n      tag_345\n      jump\t// in\n    tag_558:\n        /* \"#utility.yul\":19401:19409   */\n      dup4\n        /* \"#utility.yul\":19397:19434   */\n      add\n        /* \"#utility.yul\":19384:19395   */\n      dup3\n        /* \"#utility.yul\":19355:19435   */\n      tag_354\n      jump\t// in\n    tag_557:\n        /* \"#utility.yul\":19014:19445   */\n      pop\n      pop\n        /* \"#utility.yul\":18999:19445   */\n    tag_553:\n        /* \"#utility.yul\":18909:19452   */\n      pop\n      pop\n      pop\n      jump\t// out\n        /* \"#utility.yul\":19458:19575   */\n    tag_356:\n        /* \"#utility.yul\":19512:19520   */\n      0x00\n        /* \"#utility.yul\":19562:19567   */\n      dup3\n        /* \"#utility.yul\":19556:19560   */\n      dup3\n        /* \"#utility.yul\":19552:19568   */\n      shr\n        /* \"#utility.yul\":19531:19568   */\n      swap1\n      pop\n        /* \"#utility.yul\":19458:19575   */\n      swap3\n      swap2\n      pop\n      pop\n      jump\t// out\n        /* \"#utility.yul\":19581:19750   */\n    tag_357:\n        /* \"#utility.yul\":19625:19631   */\n      0x00\n        /* \"#utility.yul\":19658:19709   */\n      tag_561\n        /* \"#utility.yul\":19706:19707   */\n      0x00\n        /* \"#utility.yul\":19702:19708   */\n      not\n        /* \"#utility.yul\":19694:19699   */\n      dup5\n        /* \"#utility.yul\":19691:19692   */\n      0x08\n        /* \"#utility.yul\":19687:19700   */\n      mul\n        /* \"#utility.yul\":19658:19709   */\n      tag_356\n      jump\t// in\n    tag_561:\n        /* \"#utility.yul\":19654:19710   */\n      not\n        /* \"#utility.yul\":19739:19743   */\n      dup1\n        /* \"#utility.yul\":19733:19737   */\n      dup4\n        /* \"#utility.yul\":19729:19744   */\n      and\n        /* \"#utility.yul\":19719:19744   */\n      swap2\n      pop\n        /* \"#utility.yul\":19632:19750   */\n      pop\n        /* \"#utility.yul\":19581:19750   */\n      swap3\n      swap2\n      pop\n      pop\n      jump\t// out\n        /* \"#utility.yul\":19755:20050   */\n    tag_358:\n        /* \"#utility.yul\":19831:19835   */\n      0x00\n        /* \"#utility.yul\":19977:20006   */\n      tag_563\n        /* \"#utility.yul\":20002:20005   */\n      dup4\n        /* \"#utility.yul\":19996:20000   */\n      dup4\n        /* \"#utility.yul\":19977:20006   */\n      tag_357\n      jump\t// in\n    tag_563:\n        /* \"#utility.yul\":19969:20006   */\n      swap2\n      pop\n        /* \"#utility.yul\":20039:20042   */\n      dup3\n        /* \"#utility.yul\":20036:20037   */\n      0x02\n        /* \"#utility.yul\":20032:20043   */\n      mul\n        /* \"#utility.yul\":20026:20030   */\n      dup3\n        /* \"#utility.yul\":20023:20044   */\n      or\n        /* \"#utility.yul\":20015:20044   */\n      swap1\n      pop\n        /* \"#utility.yul\":19755:20050   */\n      swap3\n      swap2\n      pop\n      pop\n      jump\t// out\n        /* \"#utility.yul\":20055:21458   */\n    tag_236:\n        /* \"#utility.yul\":20179:20223   */\n      tag_565\n        /* \"#utility.yul\":20219:20222   */\n      dup4\n        /* \"#utility.yul\":20214:20217   */\n      dup4\n        /* \"#utility.yul\":20179:20223   */\n      tag_342\n      jump\t// in\n    tag_565:\n        /* \"#utility.yul\":20288:20306   */\n      0xffffffffffffffff\n        /* \"#utility.yul\":20280:20286   */\n      dup2\n        /* \"#utility.yul\":20277:20307   */\n      gt\n        /* \"#utility.yul\":20274:20330   */\n      iszero\n      tag_566\n      jumpi\n        /* \"#utility.yul\":20310:20328   */\n      tag_567\n      tag_343\n      jump\t// in\n    tag_567:\n        /* \"#utility.yul\":20274:20330   */\n    tag_566:\n        /* \"#utility.yul\":20354:20392   */\n      tag_568\n        /* \"#utility.yul\":20386:20390   */\n      dup3\n        /* \"#utility.yul\":20380:20391   */\n      sload\n        /* \"#utility.yul\":20354:20392   */\n      tag_191\n      jump\t// in\n    tag_568:\n        /* \"#utility.yul\":20439:20506   */\n      tag_569\n        /* \"#utility.yul\":20499:20505   */\n      dup3\n        /* \"#utility.yul\":20491:20497   */\n      dup3\n        /* \"#utility.yul\":20485:20489   */\n      dup6\n        /* \"#utility.yul\":20439:20506   */\n      tag_355\n      jump\t// in\n    tag_569:\n        /* \"#utility.yul\":20533:20534   */\n      0x00\n        /* \"#utility.yul\":20562:20564   */\n      0x1f\n        /* \"#utility.yul\":20554:20560   */\n      dup4\n        /* \"#utility.yul\":20551:20565   */\n      gt\n        /* \"#utility.yul\":20579:20580   */\n      0x01\n        /* \"#utility.yul\":20574:21206   */\n      dup2\n      eq\n      tag_571\n      jumpi\n        /* \"#utility.yul\":21250:21251   */\n      0x00\n        /* \"#utility.yul\":21267:21273   */\n      dup5\n        /* \"#utility.yul\":21264:21348   */\n      iszero\n      tag_572\n      jumpi\n        /* \"#utility.yul\":21323:21332   */\n      dup3\n        /* \"#utility.yul\":21318:21321   */\n      dup8\n        /* \"#utility.yul\":21314:21333   */\n      add\n        /* \"#utility.yul\":21301:21334   */\n      calldataload\n        /* \"#utility.yul\":21292:21334   */\n      swap1\n      pop\n        /* \"#utility.yul\":21264:21348   */\n    tag_572:\n        /* \"#utility.yul\":21374:21441   */\n      tag_573\n        /* \"#utility.yul\":21434:21440   */\n      dup6\n        /* \"#utility.yul\":21427:21432   */\n      dup3\n        /* \"#utility.yul\":21374:21441   */\n      tag_358\n      jump\t// in\n    tag_573:\n        /* \"#utility.yul\":21368:21372   */\n      dup7\n        /* \"#utility.yul\":21361:21442   */\n      sstore\n        /* \"#utility.yul\":21223:21452   */\n      pop\n        /* \"#utility.yul\":20544:21452   */\n      jump(tag_570)\n        /* \"#utility.yul\":20574:21206   */\n    tag_571:\n        /* \"#utility.yul\":20626:20630   */\n      0x1f\n        /* \"#utility.yul\":20622:20631   */\n      not\n        /* \"#utility.yul\":20614:20620   */\n      dup5\n        /* \"#utility.yul\":20610:20632   */\n      and\n        /* \"#utility.yul\":20660:20697   */\n      tag_574\n        /* \"#utility.yul\":20692:20696   */\n      dup7\n        /* \"#utility.yul\":20660:20697   */\n      tag_344\n      jump\t// in\n    tag_574:\n        /* \"#utility.yul\":20719:20720   */\n      0x00\n        /* \"#utility.yul\":20733:20948   */\n    tag_575:\n        /* \"#utility.yul\":20747:20754   */\n      dup3\n        /* \"#utility.yul\":20744:20745   */\n      dup2\n        /* \"#utility.yul\":20741:20755   */\n      lt\n        /* \"#utility.yul\":20733:20948   */\n      iszero\n      tag_577\n      jumpi\n        /* \"#utility.yul\":20833:20842   */\n      dup5\n        /* \"#utility.yul\":20828:20831   */\n      dup10\n        /* \"#utility.yul\":20824:20843   */\n      add\n        /* \"#utility.yul\":20811:20844   */\n      calldataload\n        /* \"#utility.yul\":20803:20809   */\n      dup3\n        /* \"#utility.yul\":20796:20845   */\n      sstore\n        /* \"#utility.yul\":20884:20885   */\n      0x01\n        /* \"#utility.yul\":20876:20882   */\n      dup3\n        /* \"#utility.yul\":20872:20886   */\n      add\n        /* \"#utility.yul\":20862:20886   */\n      swap2\n      pop\n        /* \"#utility.yul\":20931:20933   */\n      0x20\n        /* \"#utility.yul\":20920:20929   */\n      dup6\n        /* \"#utility.yul\":20916:20934   */\n      add\n        /* \"#utility.yul\":20903:20934   */\n      swap5\n      pop\n        /* \"#utility.yul\":20770:20774   */\n      0x20\n        /* \"#utility.yul\":20767:20768   */\n      dup2\n        /* \"#utility.yul\":20763:20775   */\n      add\n        /* \"#utility.yul\":20758:20775   */\n      swap1\n      pop\n        /* \"#utility.yul\":20733:20948   */\n      jump(tag_575)\n    tag_577:\n        /* \"#utility.yul\":20976:20982   */\n      dup7\n        /* \"#utility.yul\":20967:20974   */\n      dup4\n        /* \"#utility.yul\":20964:20983   */\n      lt\n        /* \"#utility.yul\":20961:21147   */\n      iszero\n      tag_578\n      jumpi\n        /* \"#utility.yul\":21041:21050   */\n      dup5\n        /* \"#utility.yul\":21036:21039   */\n      dup10\n        /* \"#utility.yul\":21032:21051   */\n      add\n        /* \"#utility.yul\":21019:21052   */\n      calldataload\n        /* \"#utility.yul\":21084:21132   */\n      tag_579\n        /* \"#utility.yul\":21126:21130   */\n      0x1f\n        /* \"#utility.yul\":21118:21124   */\n      dup10\n        /* \"#utility.yul\":21114:21131   */\n      and\n        /* \"#utility.yul\":21103:21112   */\n      dup3\n        /* \"#utility.yul\":21084:21132   */\n      tag_357\n      jump\t// in\n    tag_579:\n        /* \"#utility.yul\":21076:21082   */\n      dup4\n        /* \"#utility.yul\":21069:21133   */\n      sstore\n        /* \"#utility.yul\":20984:21147   */\n      pop\n        /* \"#utility.yul\":20961:21147   */\n    tag_578:\n        /* \"#utility.yul\":21193:21194   */\n      0x01\n        /* \"#utility.yul\":21189:21190   */\n      0x02\n        /* \"#utility.yul\":21181:21187   */\n      dup9\n        /* \"#utility.yul\":21177:21191   */\n      mul\n        /* \"#utility.yul\":21173:21195   */\n      add\n        /* \"#utility.yul\":21167:21171   */\n      dup9\n        /* \"#utility.yul\":21160:21196   */\n      sstore\n        /* \"#utility.yul\":20581:21206   */\n      pop\n      pop\n      pop\n        /* \"#utility.yul\":20544:21452   */\n    tag_570:\n      pop\n        /* \"#utility.yul\":20154:21458   */\n      pop\n      pop\n      pop\n        /* \"#utility.yul\":20055:21458   */\n      pop\n      pop\n      pop\n      jump\t// out\n        /* \"#utility.yul\":21464:21623   */\n    tag_359:\n        /* \"#utility.yul\":21604:21615   */\n      0x537563636573736f720000000000000000000000000000000000000000000000\n        /* \"#utility.yul\":21600:21601   */\n      0x00\n        /* \"#utility.yul\":21592:21598   */\n      dup3\n        /* \"#utility.yul\":21588:21602   */\n      add\n        /* \"#utility.yul\":21581:21616   */\n      mstore\n        /* \"#utility.yul\":21464:21623   */\n      pop\n      jump\t// out\n        /* \"#utility.yul\":21629:21994   */\n    tag_360:\n        /* \"#utility.yul\":21771:21774   */\n      0x00\n        /* \"#utility.yul\":21792:21858   */\n      tag_582\n        /* \"#utility.yul\":21856:21857   */\n      0x09\n        /* \"#utility.yul\":21851:21854   */\n      dup4\n        /* \"#utility.yul\":21792:21858   */\n      tag_323\n      jump\t// in\n    tag_582:\n        /* \"#utility.yul\":21785:21858   */\n      swap2\n      pop\n        /* \"#utility.yul\":21867:21960   */\n      tag_583\n        /* \"#utility.yul\":21956:21959   */\n      dup3\n        /* \"#utility.yul\":21867:21960   */\n      tag_359\n      jump\t// in\n    tag_583:\n        /* \"#utility.yul\":21985:21987   */\n      0x20\n        /* \"#utility.yul\":21980:21983   */\n      dup3\n        /* \"#utility.yul\":21976:21988   */\n      add\n        /* \"#utility.yul\":21969:21988   */\n      swap1\n      pop\n        /* \"#utility.yul\":21629:21994   */\n      swap2\n      swap1\n      pop\n      jump\t// out\n        /* \"#utility.yul\":22000:22517   */\n    tag_253:\n        /* \"#utility.yul\":22188:22192   */\n      0x00\n        /* \"#utility.yul\":22226:22228   */\n      0x40\n        /* \"#utility.yul\":22215:22224   */\n      dup3\n        /* \"#utility.yul\":22211:22229   */\n      add\n        /* \"#utility.yul\":22203:22229   */\n      swap1\n      pop\n        /* \"#utility.yul\":22275:22284   */\n      dup2\n        /* \"#utility.yul\":22269:22273   */\n      dup2\n        /* \"#utility.yul\":22265:22285   */\n      sub\n        /* \"#utility.yul\":22261:22262   */\n      0x00\n        /* \"#utility.yul\":22250:22259   */\n      dup4\n        /* \"#utility.yul\":22246:22263   */\n      add\n        /* \"#utility.yul\":22239:22286   */\n      mstore\n        /* \"#utility.yul\":22303:22434   */\n      tag_585\n        /* \"#utility.yul\":22429:22433   */\n      dup2\n        /* \"#utility.yul\":22303:22434   */\n      tag_360\n      jump\t// in\n    tag_585:\n        /* \"#utility.yul\":22295:22434   */\n      swap1\n      pop\n        /* \"#utility.yul\":22444:22510   */\n      tag_586\n        /* \"#utility.yul\":22506:22508   */\n      0x20\n        /* \"#utility.yul\":22495:22504   */\n      dup4\n        /* \"#utility.yul\":22491:22509   */\n      add\n        /* \"#utility.yul\":22482:22488   */\n      dup5\n        /* \"#utility.yul\":22444:22510   */\n      tag_306\n      jump\t// in\n    tag_586:\n        /* \"#utility.yul\":22000:22517   */\n      swap3\n      swap2\n      pop\n      pop\n      jump\t// out\n\n    auxdata: 0xa264697066735822122063db0fb8d609f72dfec621b0a9cbc451bfc1f2b2046bccd7609b6a3d0a27808864736f6c63430008120033\n}\n",
				"bytecode": {
					"linkReferences": {},
					"object": "60806040523480156200001157600080fd5b5060405162002e9e38038062002e9e833981810160405281019062000037919062000377565b336000806101000a81548173ffffffffffffffffffffffffffffffffffffffff021916908373ffffffffffffffffffffffffffffffffffffffff16021790555080600360000160006101000a81548173ffffffffffffffffffffffffffffffffffffffff021916908373ffffffffffffffffffffffffffffffffffffffff1602179055508260036001019081620000cf919062000633565b50816003600a01819055506001600360000160146101000a81548160ff0219169083151502179055503073ffffffffffffffffffffffffffffffffffffffff167f8c13150fc78b6c00b60262790df304fd55ef36a935a98feefd67391de7bfa0de60405160405180910390a25050506200071a565b6000604051905090565b600080fd5b600080fd5b600080fd5b600080fd5b6000601f19601f8301169050919050565b7f4e487b7100000000000000000000000000000000000000000000000000000000600052604160045260246000fd5b620001ad8262000162565b810181811067ffffffffffffffff82111715620001cf57620001ce62000173565b5b80604052505050565b6000620001e462000144565b9050620001f28282620001a2565b919050565b600067ffffffffffffffff82111562000215576200021462000173565b5b620002208262000162565b9050602081019050919050565b60005b838110156200024d57808201518184015260208101905062000230565b60008484015250505050565b6000620002706200026a84620001f7565b620001d8565b9050828152602081018484840111156200028f576200028e6200015d565b5b6200029c8482856200022d565b509392505050565b600082601f830112620002bc57620002bb62000158565b5b8151620002ce84826020860162000259565b91505092915050565b6000819050919050565b620002ec81620002d7565b8114620002f857600080fd5b50565b6000815190506200030c81620002e1565b92915050565b600073ffffffffffffffffffffffffffffffffffffffff82169050919050565b60006200033f8262000312565b9050919050565b620003518162000332565b81146200035d57600080fd5b50565b600081519050620003718162000346565b92915050565b6000806000606084860312156200039357620003926200014e565b5b600084015167ffffffffffffffff811115620003b457620003b362000153565b5b620003c286828701620002a4565b9350506020620003d586828701620002fb565b9250506040620003e88682870162000360565b9150509250925092565b600081519050919050565b7f4e487b7100000000000000000000000000000000000000000000000000000000600052602260045260246000fd5b600060028204905060018216806200044557607f821691505b6020821081036200045b576200045a620003fd565b5b50919050565b60008190508160005260206000209050919050565b60006020601f8301049050919050565b600082821b905092915050565b600060088302620004c57fffffffffffffffffffffffffffffffffffffffffffffffffffffffffffffffff8262000486565b620004d1868362000486565b95508019841693508086168417925050509392505050565b6000819050919050565b6000620005146200050e6200050884620002d7565b620004e9565b620002d7565b9050919050565b6000819050919050565b6200053083620004f3565b620005486200053f826200051b565b84845462000493565b825550505050565b600090565b6200055f62000550565b6200056c81848462000525565b505050565b5b8181101562000594576200058860008262000555565b60018101905062000572565b5050565b601f821115620005e357620005ad8162000461565b620005b88462000476565b81016020851015620005c8578190505b620005e0620005d78562000476565b83018262000571565b50505b505050565b600082821c905092915050565b60006200060860001984600802620005e8565b1980831691505092915050565b6000620006238383620005f5565b9150826002028217905092915050565b6200063e82620003f2565b67ffffffffffffffff8111156200065a576200065962000173565b5b6200066682546200042c565b6200067382828562000598565b600060209050601f831160018114620006ab576000841562000696578287015190505b620006a2858262000615565b86555062000712565b601f198416620006bb8662000461565b60005b82811015620006e557848901518255600182019150602085019450602081019050620006be565b8683101562000705578489015162000701601f891682620005f5565b8355505b6001600288020188555050505b505050505050565b612774806200072a6000396000f3fe608060405234801561001057600080fd5b50600436106101cf5760003560e01c80637d2cb98d11610104578063c524e7f6116100a2578063d4f6c1ff11610071578063d4f6c1ff146104e7578063e5ab27e314610517578063e6ca297714610533578063e87ccdda14610551576101cf565b8063c524e7f61461045d578063caa4fbbd1461047b578063cae5f95014610499578063d03678cb146104c9576101cf565b8063a022be05116100de578063a022be05146103d9578063bed2aefe146103f5578063c172f9b814610425578063c28388fa14610441576101cf565b80637d2cb98d146103815780638da5cb5b1461039f5780639155e45b146103bd576101cf565b8063481fd6b51161017157806376efa4631161014b57806376efa4631461030857806378fb654a146103125780637acc0b201461032e5780637b9f197614610363576101cf565b8063481fd6b5146102b057806355c1c478146102ce5780635789726a146102ec576101cf565b8063244ded7a116101ad578063244ded7a1461023c57806328a3d83a146102585780633d527883146102765780633fad4a37146102a6576101cf565b80630373e405146101d457806304a3f3931461020457806308b008ff14610220575b600080fd5b6101ee60048036038101906101e99190611bac565b61056f565b6040516101fb9190611bf4565b60405180910390f35b61021e60048036038101906102199190611c45565b61078c565b005b61023a60048036038101906102359190611cd7565b610827565b005b61025660048036038101906102519190611bac565b61095c565b005b610260610a2d565b60405161026d9190611de2565b60405180910390f35b610290600480360381019061028b9190611e04565b610abe565b60405161029d9190611e53565b60405180910390f35b6102ae610aef565b005b6102b8610c48565b6040516102c59190611efe565b60405180910390f35b6102d6610cdd565b6040516102e39190611f2f565b60405180910390f35b61030660048036038101906103019190611cd7565b610d0a565b005b610310610db1565b005b61032c60048036038101906103279190611f76565b610f08565b005b61034860048036038101906103439190611c45565b610fb6565b60405161035a96959493929190611fa3565b60405180910390f35b61036b6111b7565b6040516103789190611e53565b60405180910390f35b6103896111c4565b6040516103969190611de2565b60405180910390f35b6103a7611255565b6040516103b49190611f2f565b60405180910390f35b6103d760048036038101906103d2919061206f565b611279565b005b6103f360048036038101906103ee9190611cd7565b611320565b005b61040f600480360381019061040a9190611bac565b6113c7565b60405161041c9190611bf4565b60405180910390f35b61043f600480360381019061043a9190611cd7565b6115f2565b005b61045b60048036038101906104569190611cd7565b611727565b005b6104656117ce565b6040516104729190611efe565b60405180910390f35b610483611863565b6040516104909190611bf4565b60405180910390f35b6104b360048036038101906104ae9190611bac565b61187d565b6040516104c09190611bf4565b60405180910390f35b6104d16118d6565b6040516104de9190611e53565b60405180910390f35b61050160048036038101906104fc9190611bac565b6118e6565b60405161050e9190611bf4565b60405180910390f35b610531600480360381019061052c919061206f565b61193f565b005b61053b6119e6565b6040516105489190611de2565b60405180910390f35b610559611a77565b6040516105669190611e53565b60405180910390f35b6000808290508073ffffffffffffffffffffffffffffffffffffffff1663cae5f950306040518263ffffffff1660e01b81526004016105ae9190611f2f565b602060405180830381865afa1580156105cb573d6000803e3d6000fd5b505050506040513d601f19601f820116820180604052508101906105ef91906120d1565b156106fc576003600701839080600181540180825580915050600190039060005260206000200160009091909190916101000a81548173ffffffffffffffffffffffffffffffffffffffff021916908373ffffffffffffffffffffffffffffffffffffffff1602179055508073ffffffffffffffffffffffffffffffffffffffff16633fad4a376040518163ffffffff1660e01b8152600401600060405180830381600087803b1580156106a257600080fd5b505af11580156106b6573d6000803e3d6000fd5b505050507fbc2e9d8256e6321f63db02bd9af862997b6e16689fdf6ba219d5970fd5a0c44760016040516106ea919061214a565b60405180910390a16001915050610787565b6003800160008473ffffffffffffffffffffffffffffffffffffffff1673ffffffffffffffffffffffffffffffffffffffff16815260200190815260200160002060009054906101000a9050507fbc2e9d8256e6321f63db02bd9af862997b6e16689fdf6ba219d5970fd5a0c4476000604051610779919061214a565b60405180910390a160009150505b919050565b60008054906101000a900473ffffffffffffffffffffffffffffffffffffffff1673ffffffffffffffffffffffffffffffffffffffff163373ffffffffffffffffffffffffffffffffffffffff161461081a576040517f08c379a0000000000000000000000000000000000000000000000000000000008152600401610811906121c4565b60405180910390fd5b806003600a018190555050565b60008054906101000a900473ffffffffffffffffffffffffffffffffffffffff1673ffffffffffffffffffffffffffffffffffffffff163373ffffffffffffffffffffffffffffffffffffffff16146108b5576040517f08c379a00000000000000000000000000000000000000000000000000000000081526004016108ac906121c4565b60405180910390fd5b60005b828290508110156109575760016003800160008585858181106108de576108dd6121e4565b5b90506020020160208101906108f39190611bac565b73ffffffffffffffffffffffffffffffffffffffff1673ffffffffffffffffffffffffffffffffffffffff16815260200190815260200160002060006101000a81548160ff021916908315150217905550808061094f90612242565b9150506108b8565b505050565b60008054906101000a900473ffffffffffffffffffffffffffffffffffffffff1673ffffffffffffffffffffffffffffffffffffffff163373ffffffffffffffffffffffffffffffffffffffff16146109ea576040517f08c379a00000000000000000000000000000000000000000000000000000000081526004016109e1906121c4565b60405180910390fd5b806000806101000a81548173ffffffffffffffffffffffffffffffffffffffff021916908373ffffffffffffffffffffffffffffffffffffffff16021790555050565b60606003600601805480602002602001604051908101604052809291908181526020018280548015610ab457602002820191906000526020600020905b8160009054906101000a900473ffffffffffffffffffffffffffffffffffffffff1673ffffffffffffffffffffffffffffffffffffffff1681526020019060010190808311610a6a575b5050505050905090565b60026020528160005260406000208181548110610ada57600080fd5b90600052602060002001600091509150505481565b60011515600360020160003373ffffffffffffffffffffffffffffffffffffffff1673ffffffffffffffffffffffffffffffffffffffff16815260200190815260200160002060009054906101000a900460ff16151514610b85576040517f08c379a0000000000000000000000000000000000000000000000000000000008152600401610b7c906122fc565b60405180910390fd5b6000600360020160003373ffffffffffffffffffffffffffffffffffffffff1673ffffffffffffffffffffffffffffffffffffffff16815260200190815260200160002060006101000a81548160ff0219169083151502179055506003600601339080600181540180825580915050600190039060005260206000200160009091909190916101000a81548173ffffffffffffffffffffffffffffffffffffffff021916908373ffffffffffffffffffffffffffffffffffffffff160217905550565b606060036001018054610c5a9061234b565b80601f0160208091040260200160405190810160405280929190818152602001828054610c869061234b565b8015610cd35780601f10610ca857610100808354040283529160200191610cd3565b820191906000526020600020905b815481529060010190602001808311610cb657829003601f168201915b5050505050905090565b6000600360000160009054906101000a900473ffffffffffffffffffffffffffffffffffffffff16905090565b60008054906101000a900473ffffffffffffffffffffffffffffffffffffffff1673ffffffffffffffffffffffffffffffffffffffff163373ffffffffffffffffffffffffffffffffffffffff1614610d98576040517f08c379a0000000000000000000000000000000000000000000000000000000008152600401610d8f906121c4565b60405180910390fd5b818160036006019190610dac929190611a87565b505050565b600115156003800160003373ffffffffffffffffffffffffffffffffffffffff1673ffffffffffffffffffffffffffffffffffffffff16815260200190815260200160002060009054906101000a900460ff16151514610e46576040517f08c379a0000000000000000000000000000000000000000000000000000000008152600401610e3d906123ee565b60405180910390fd5b60006003800160003373ffffffffffffffffffffffffffffffffffffffff1673ffffffffffffffffffffffffffffffffffffffff16815260200190815260200160002060006101000a81548160ff0219169083151502179055506003600701339080600181540180825580915050600190039060005260206000200160009091909190916101000a81548173ffffffffffffffffffffffffffffffffffffffff021916908373ffffffffffffffffffffffffffffffffffffffff160217905550565b60008054906101000a900473ffffffffffffffffffffffffffffffffffffffff1673ffffffffffffffffffffffffffffffffffffffff163373ffffffffffffffffffffffffffffffffffffffff1614610f96576040517f08c379a0000000000000000000000000000000000000000000000000000000008152600401610f8d906121c4565b60405180910390fd5b80600360000160146101000a81548160ff02191690831515021790555050565b60016020528060005260406000206000915090508060000160009054906101000a900473ffffffffffffffffffffffffffffffffffffffff16908060000160149054906101000a900460ff16908060010180546110129061234b565b80601f016020809104026020016040519081016040528092919081815260200182805461103e9061234b565b801561108b5780601f106110605761010080835404028352916020019161108b565b820191906000526020600020905b81548152906001019060200180831161106e57829003601f168201915b5050505050908060090180546110a09061234b565b80601f01602080910402602001604051908101604052809291908181526020018280546110cc9061234b565b80156111195780601f106110ee57610100808354040283529160200191611119565b820191906000526020600020905b8154815290600101906020018083116110fc57829003601f168201915b50505050509080600a01549080600b0180546111349061234b565b80601f01602080910402602001604051908101604052809291908181526020018280546111609061234b565b80156111ad5780601f10611182576101008083540402835291602001916111ad565b820191906000526020600020905b81548152906001019060200180831161119057829003601f168201915b5050505050905086565b60006003600a0154905090565b6060600360070180548060200260200160405190810160405280929190818152602001828054801561124b57602002820191906000526020600020905b8160009054906101000a900473ffffffffffffffffffffffffffffffffffffffff1673ffffffffffffffffffffffffffffffffffffffff1681526020019060010190808311611201575b5050505050905090565b60008054906101000a900473ffffffffffffffffffffffffffffffffffffffff1681565b60008054906101000a900473ffffffffffffffffffffffffffffffffffffffff1673ffffffffffffffffffffffffffffffffffffffff163373ffffffffffffffffffffffffffffffffffffffff1614611307576040517f08c379a00000000000000000000000000000000000000000000000000000000081526004016112fe906121c4565b60405180910390fd5b81816003600101918261131b9291906125f4565b505050565b60008054906101000a900473ffffffffffffffffffffffffffffffffffffffff1673ffffffffffffffffffffffffffffffffffffffff163373ffffffffffffffffffffffffffffffffffffffff16146113ae576040517f08c379a00000000000000000000000000000000000000000000000000000000081526004016113a5906121c4565b60405180910390fd5b8181600360060191906113c2929190611a87565b505050565b6000808290508073ffffffffffffffffffffffffffffffffffffffff1663cae5f950306040518263ffffffff1660e01b81526004016114069190611f2f565b602060405180830381865afa158015611423573d6000803e3d6000fd5b505050506040513d601f19601f8201168201806040525081019061144791906120d1565b15611554576003600601839080600181540180825580915050600190039060005260206000200160009091909190916101000a81548173ffffffffffffffffffffffffffffffffffffffff021916908373ffffffffffffffffffffffffffffffffffffffff1602179055508073ffffffffffffffffffffffffffffffffffffffff166376efa4636040518163ffffffff1660e01b8152600401600060405180830381600087803b1580156114fa57600080fd5b505af115801561150e573d6000803e3d6000fd5b505050507fbc2e9d8256e6321f63db02bd9af862997b6e16689fdf6ba219d5970fd5a0c44760016040516115429190612710565b60405180910390a160019150506115ed565b6001600360020160008573ffffffffffffffffffffffffffffffffffffffff1673ffffffffffffffffffffffffffffffffffffffff16815260200190815260200160002060006101000a81548160ff0219169083151502179055507fbc2e9d8256e6321f63db02bd9af862997b6e16689fdf6ba219d5970fd5a0c44760006040516115df9190612710565b60405180910390a160009150505b919050565b60008054906101000a900473ffffffffffffffffffffffffffffffffffffffff1673ffffffffffffffffffffffffffffffffffffffff163373ffffffffffffffffffffffffffffffffffffffff1614611680576040517f08c379a0000000000000000000000000000000000000000000000000000000008152600401611677906121c4565b60405180910390fd5b60005b828290508110156117225760016003800160008585858181106116a9576116a86121e4565b5b90506020020160208101906116be9190611bac565b73ffffffffffffffffffffffffffffffffffffffff1673ffffffffffffffffffffffffffffffffffffffff16815260200190815260200160002060006101000a81548160ff021916908315150217905550808061171a90612242565b915050611683565b505050565b60008054906101000a900473ffffffffffffffffffffffffffffffffffffffff1673ffffffffffffffffffffffffffffffffffffffff163373ffffffffffffffffffffffffffffffffffffffff16146117b5576040517f08c379a00000000000000000000000000000000000000000000000000000000081526004016117ac906121c4565b60405180910390fd5b8181600360060191906117c9929190611a87565b505050565b6060600360090180546117e09061234b565b80601f016020809104026020016040519081016040528092919081815260200182805461180c9061234b565b80156118595780601f1061182e57610100808354040283529160200191611859565b820191906000526020600020905b81548152906001019060200180831161183c57829003601f168201915b5050505050905090565b6000600360000160149054906101000a900460ff16905090565b6000600360020160008373ffffffffffffffffffffffffffffffffffffffff1673ffffffffffffffffffffffffffffffffffffffff16815260200190815260200160002060009054906101000a900460ff169050919050565b6000600360070180549050905090565b6000600360020160008373ffffffffffffffffffffffffffffffffffffffff1673ffffffffffffffffffffffffffffffffffffffff16815260200190815260200160002060009054906101000a900460ff169050919050565b60008054906101000a900473ffffffffffffffffffffffffffffffffffffffff1673ffffffffffffffffffffffffffffffffffffffff163373ffffffffffffffffffffffffffffffffffffffff16146119cd576040517f08c379a00000000000000000000000000000000000000000000000000000000081526004016119c4906121c4565b60405180910390fd5b8181600360090191826119e19291906125f4565b505050565b60606003600801805480602002602001604051908101604052809291908181526020018280548015611a6d57602002820191906000526020600020905b8160009054906101000a900473ffffffffffffffffffffffffffffffffffffffff1673ffffffffffffffffffffffffffffffffffffffff1681526020019060010190808311611a23575b5050505050905090565b6000600360060180549050905090565b828054828255906000526020600020908101928215611b16579160200282015b82811115611b1557823573ffffffffffffffffffffffffffffffffffffffff168260006101000a81548173ffffffffffffffffffffffffffffffffffffffff021916908373ffffffffffffffffffffffffffffffffffffffff16021790555091602001919060010190611aa7565b5b509050611b239190611b27565b5090565b5b80821115611b40576000816000905550600101611b28565b5090565b600080fd5b600080fd5b600073ffffffffffffffffffffffffffffffffffffffff82169050919050565b6000611b7982611b4e565b9050919050565b611b8981611b6e565b8114611b9457600080fd5b50565b600081359050611ba681611b80565b92915050565b600060208284031215611bc257611bc1611b44565b5b6000611bd084828501611b97565b91505092915050565b60008115159050919050565b611bee81611bd9565b82525050565b6000602082019050611c096000830184611be5565b92915050565b6000819050919050565b611c2281611c0f565b8114611c2d57600080fd5b50565b600081359050611c3f81611c19565b92915050565b600060208284031215611c5b57611c5a611b44565b5b6000611c6984828501611c30565b91505092915050565b600080fd5b600080fd5b600080fd5b60008083601f840112611c9757611c96611c72565b5b8235905067ffffffffffffffff811115611cb457611cb3611c77565b5b602083019150836020820283011115611cd057611ccf611c7c565b5b9250929050565b60008060208385031215611cee57611ced611b44565b5b600083013567ffffffffffffffff811115611d0c57611d0b611b49565b5b611d1885828601611c81565b92509250509250929050565b600081519050919050565b600082825260208201905092915050565b6000819050602082019050919050565b611d5981611b6e565b82525050565b6000611d6b8383611d50565b60208301905092915050565b6000602082019050919050565b6000611d8f82611d24565b611d998185611d2f565b9350611da483611d40565b8060005b83811015611dd5578151611dbc8882611d5f565b9750611dc783611d77565b925050600181019050611da8565b5085935050505092915050565b60006020820190508181036000830152611dfc8184611d84565b905092915050565b60008060408385031215611e1b57611e1a611b44565b5b6000611e2985828601611b97565b9250506020611e3a85828601611c30565b9150509250929050565b611e4d81611c0f565b82525050565b6000602082019050611e686000830184611e44565b92915050565b600081519050919050565b600082825260208201905092915050565b60005b83811015611ea8578082015181840152602081019050611e8d565b60008484015250505050565b6000601f19601f8301169050919050565b6000611ed082611e6e565b611eda8185611e79565b9350611eea818560208601611e8a565b611ef381611eb4565b840191505092915050565b60006020820190508181036000830152611f188184611ec5565b905092915050565b611f2981611b6e565b82525050565b6000602082019050611f446000830184611f20565b92915050565b611f5381611bd9565b8114611f5e57600080fd5b50565b600081359050611f7081611f4a565b92915050565b600060208284031215611f8c57611f8b611b44565b5b6000611f9a84828501611f61565b91505092915050565b600060c082019050611fb86000830189611f20565b611fc56020830188611be5565b8181036040830152611fd78187611ec5565b90508181036060830152611feb8186611ec5565b9050611ffa6080830185611e44565b81810360a083015261200c8184611ec5565b9050979650505050505050565b60008083601f84011261202f5761202e611c72565b5b8235905067ffffffffffffffff81111561204c5761204b611c77565b5b60208301915083600182028301111561206857612067611c7c565b5b9250929050565b6000806020838503121561208657612085611b44565b5b600083013567ffffffffffffffff8111156120a4576120a3611b49565b5b6120b085828601612019565b92509250509250929050565b6000815190506120cb81611f4a565b92915050565b6000602082840312156120e7576120e6611b44565b5b60006120f5848285016120bc565b91505092915050565b7f5072656465636573736f72000000000000000000000000000000000000000000600082015250565b6000612134600b83611e79565b915061213f826120fe565b602082019050919050565b6000604082019050818103600083015261216381612127565b90506121726020830184611be5565b92915050565b7f63616c6c6572206d757374206265206f776e6572000000000000000000000000600082015250565b60006121ae601483611e79565b91506121b982612178565b602082019050919050565b600060208201905081810360008301526121dd816121a1565b9050919050565b7f4e487b7100000000000000000000000000000000000000000000000000000000600052603260045260246000fd5b7f4e487b7100000000000000000000000000000000000000000000000000000000600052601160045260246000fd5b600061224d82611c0f565b91507fffffffffffffffffffffffffffffffffffffffffffffffffffffffffffffffff820361227f5761227e612213565b5b600182019050919050565b7f526571756573746f72206973206e6f7420612063616e64696461746520666f7260008201527f20737563636573736f72736869702e0000000000000000000000000000000000602082015250565b60006122e6602f83611e79565b91506122f18261228a565b604082019050919050565b60006020820190508181036000830152612315816122d9565b9050919050565b7f4e487b7100000000000000000000000000000000000000000000000000000000600052602260045260246000fd5b6000600282049050600182168061236357607f821691505b6020821081036123765761237561231c565b5b50919050565b7f526571756573746f72206973206e6f7420612063616e64696461746520666f7260008201527f207072656465636573736f72736869702e000000000000000000000000000000602082015250565b60006123d8603183611e79565b91506123e38261237c565b604082019050919050565b60006020820190508181036000830152612407816123cb565b9050919050565b600082905092915050565b7f4e487b7100000000000000000000000000000000000000000000000000000000600052604160045260246000fd5b60008190508160005260206000209050919050565b60006020601f8301049050919050565b600082821b905092915050565b6000600883026124aa7fffffffffffffffffffffffffffffffffffffffffffffffffffffffffffffffff8261246d565b6124b4868361246d565b95508019841693508086168417925050509392505050565b6000819050919050565b60006124f16124ec6124e784611c0f565b6124cc565b611c0f565b9050919050565b6000819050919050565b61250b836124d6565b61251f612517826124f8565b84845461247a565b825550505050565b600090565b612534612527565b61253f818484612502565b505050565b5b818110156125635761255860008261252c565b600181019050612545565b5050565b601f8211156125a85761257981612448565b6125828461245d565b81016020851015612591578190505b6125a561259d8561245d565b830182612544565b50505b505050565b600082821c905092915050565b60006125cb600019846008026125ad565b1980831691505092915050565b60006125e483836125ba565b9150826002028217905092915050565b6125fe838361240e565b67ffffffffffffffff81111561261757612616612419565b5b612621825461234b565b61262c828285612567565b6000601f83116001811461265b5760008415612649578287013590505b61265385826125d8565b8655506126bb565b601f19841661266986612448565b60005b828110156126915784890135825560018201915060208501945060208101905061266c565b868310156126ae57848901356126aa601f8916826125ba565b8355505b6001600288020188555050505b50505050505050565b7f537563636573736f720000000000000000000000000000000000000000000000600082015250565b60006126fa600983611e79565b9150612705826126c4565b602082019050919050565b60006040820190508181036000830152612729816126ed565b90506127386020830184611be5565b9291505056fea264697066735822122063db0fb8d609f72dfec621b0a9cbc451bfc1f2b2046bccd7609b6a3d0a27808864736f6c63430008120033",
					"opcodes": "PUSH1 0x80 PUSH1 0x40 MSTORE CALLVALUE DUP1 ISZERO PUSH3 0x11 JUMPI PUSH1 0x0 DUP1 REVERT JUMPDEST POP PUSH1 0x40 MLOAD PUSH3 0x2E9E CODESIZE SUB DUP1 PUSH3 0x2E9E DUP4 CODECOPY DUP2 DUP2 ADD PUSH1 0x40 MSTORE DUP2 ADD SWAP1 PUSH3 0x37 SWAP2 SWAP1 PUSH3 0x377 JUMP JUMPDEST CALLER PUSH1 0x0 DUP1 PUSH2 0x100 EXP DUP2 SLOAD DUP2 PUSH20 0xFFFFFFFFFFFFFFFFFFFFFFFFFFFFFFFFFFFFFFFF MUL NOT AND SWAP1 DUP4 PUSH20 0xFFFFFFFFFFFFFFFFFFFFFFFFFFFFFFFFFFFFFFFF AND MUL OR SWAP1 SSTORE POP DUP1 PUSH1 0x3 PUSH1 0x0 ADD PUSH1 0x0 PUSH2 0x100 EXP DUP2 SLOAD DUP2 PUSH20 0xFFFFFFFFFFFFFFFFFFFFFFFFFFFFFFFFFFFFFFFF MUL NOT AND SWAP1 DUP4 PUSH20 0xFFFFFFFFFFFFFFFFFFFFFFFFFFFFFFFFFFFFFFFF AND MUL OR SWAP1 SSTORE POP DUP3 PUSH1 0x3 PUSH1 0x1 ADD SWAP1 DUP2 PUSH3 0xCF SWAP2 SWAP1 PUSH3 0x633 JUMP JUMPDEST POP DUP2 PUSH1 0x3 PUSH1 0xA ADD DUP2 SWAP1 SSTORE POP PUSH1 0x1 PUSH1 0x3 PUSH1 0x0 ADD PUSH1 0x14 PUSH2 0x100 EXP DUP2 SLOAD DUP2 PUSH1 0xFF MUL NOT AND SWAP1 DUP4 ISZERO ISZERO MUL OR SWAP1 SSTORE POP ADDRESS PUSH20 0xFFFFFFFFFFFFFFFFFFFFFFFFFFFFFFFFFFFFFFFF AND PUSH32 0x8C13150FC78B6C00B60262790DF304FD55EF36A935A98FEEFD67391DE7BFA0DE PUSH1 0x40 MLOAD PUSH1 0x40 MLOAD DUP1 SWAP2 SUB SWAP1 LOG2 POP POP POP PUSH3 0x71A JUMP JUMPDEST PUSH1 0x0 PUSH1 0x40 MLOAD SWAP1 POP SWAP1 JUMP JUMPDEST PUSH1 0x0 DUP1 REVERT JUMPDEST PUSH1 0x0 DUP1 REVERT JUMPDEST PUSH1 0x0 DUP1 REVERT JUMPDEST PUSH1 0x0 DUP1 REVERT JUMPDEST PUSH1 0x0 PUSH1 0x1F NOT PUSH1 0x1F DUP4 ADD AND SWAP1 POP SWAP2 SWAP1 POP JUMP JUMPDEST PUSH32 0x4E487B7100000000000000000000000000000000000000000000000000000000 PUSH1 0x0 MSTORE PUSH1 0x41 PUSH1 0x4 MSTORE PUSH1 0x24 PUSH1 0x0 REVERT JUMPDEST PUSH3 0x1AD DUP3 PUSH3 0x162 JUMP JUMPDEST DUP2 ADD DUP2 DUP2 LT PUSH8 0xFFFFFFFFFFFFFFFF DUP3 GT OR ISZERO PUSH3 0x1CF JUMPI PUSH3 0x1CE PUSH3 0x173 JUMP JUMPDEST JUMPDEST DUP1 PUSH1 0x40 MSTORE POP POP POP JUMP JUMPDEST PUSH1 0x0 PUSH3 0x1E4 PUSH3 0x144 JUMP JUMPDEST SWAP1 POP PUSH3 0x1F2 DUP3 DUP3 PUSH3 0x1A2 JUMP JUMPDEST SWAP2 SWAP1 POP JUMP JUMPDEST PUSH1 0x0 PUSH8 0xFFFFFFFFFFFFFFFF DUP3 GT ISZERO PUSH3 0x215 JUMPI PUSH3 0x214 PUSH3 0x173 JUMP JUMPDEST JUMPDEST PUSH3 0x220 DUP3 PUSH3 0x162 JUMP JUMPDEST SWAP1 POP PUSH1 0x20 DUP2 ADD SWAP1 POP SWAP2 SWAP1 POP JUMP JUMPDEST PUSH1 0x0 JUMPDEST DUP4 DUP2 LT ISZERO PUSH3 0x24D JUMPI DUP1 DUP3 ADD MLOAD DUP2 DUP5 ADD MSTORE PUSH1 0x20 DUP2 ADD SWAP1 POP PUSH3 0x230 JUMP JUMPDEST PUSH1 0x0 DUP5 DUP5 ADD MSTORE POP POP POP POP JUMP JUMPDEST PUSH1 0x0 PUSH3 0x270 PUSH3 0x26A DUP5 PUSH3 0x1F7 JUMP JUMPDEST PUSH3 0x1D8 JUMP JUMPDEST SWAP1 POP DUP3 DUP2 MSTORE PUSH1 0x20 DUP2 ADD DUP5 DUP5 DUP5 ADD GT ISZERO PUSH3 0x28F JUMPI PUSH3 0x28E PUSH3 0x15D JUMP JUMPDEST JUMPDEST PUSH3 0x29C DUP5 DUP3 DUP6 PUSH3 0x22D JUMP JUMPDEST POP SWAP4 SWAP3 POP POP POP JUMP JUMPDEST PUSH1 0x0 DUP3 PUSH1 0x1F DUP4 ADD SLT PUSH3 0x2BC JUMPI PUSH3 0x2BB PUSH3 0x158 JUMP JUMPDEST JUMPDEST DUP2 MLOAD PUSH3 0x2CE DUP5 DUP3 PUSH1 0x20 DUP7 ADD PUSH3 0x259 JUMP JUMPDEST SWAP2 POP POP SWAP3 SWAP2 POP POP JUMP JUMPDEST PUSH1 0x0 DUP2 SWAP1 POP SWAP2 SWAP1 POP JUMP JUMPDEST PUSH3 0x2EC DUP2 PUSH3 0x2D7 JUMP JUMPDEST DUP2 EQ PUSH3 0x2F8 JUMPI PUSH1 0x0 DUP1 REVERT JUMPDEST POP JUMP JUMPDEST PUSH1 0x0 DUP2 MLOAD SWAP1 POP PUSH3 0x30C DUP2 PUSH3 0x2E1 JUMP JUMPDEST SWAP3 SWAP2 POP POP JUMP JUMPDEST PUSH1 0x0 PUSH20 0xFFFFFFFFFFFFFFFFFFFFFFFFFFFFFFFFFFFFFFFF DUP3 AND SWAP1 POP SWAP2 SWAP1 POP JUMP JUMPDEST PUSH1 0x0 PUSH3 0x33F DUP3 PUSH3 0x312 JUMP JUMPDEST SWAP1 POP SWAP2 SWAP1 POP JUMP JUMPDEST PUSH3 0x351 DUP2 PUSH3 0x332 JUMP JUMPDEST DUP2 EQ PUSH3 0x35D JUMPI PUSH1 0x0 DUP1 REVERT JUMPDEST POP JUMP JUMPDEST PUSH1 0x0 DUP2 MLOAD SWAP1 POP PUSH3 0x371 DUP2 PUSH3 0x346 JUMP JUMPDEST SWAP3 SWAP2 POP POP JUMP JUMPDEST PUSH1 0x0 DUP1 PUSH1 0x0 PUSH1 0x60 DUP5 DUP7 SUB SLT ISZERO PUSH3 0x393 JUMPI PUSH3 0x392 PUSH3 0x14E JUMP JUMPDEST JUMPDEST PUSH1 0x0 DUP5 ADD MLOAD PUSH8 0xFFFFFFFFFFFFFFFF DUP2 GT ISZERO PUSH3 0x3B4 JUMPI PUSH3 0x3B3 PUSH3 0x153 JUMP JUMPDEST JUMPDEST PUSH3 0x3C2 DUP7 DUP3 DUP8 ADD PUSH3 0x2A4 JUMP JUMPDEST SWAP4 POP POP PUSH1 0x20 PUSH3 0x3D5 DUP7 DUP3 DUP8 ADD PUSH3 0x2FB JUMP JUMPDEST SWAP3 POP POP PUSH1 0x40 PUSH3 0x3E8 DUP7 DUP3 DUP8 ADD PUSH3 0x360 JUMP JUMPDEST SWAP2 POP POP SWAP3 POP SWAP3 POP SWAP3 JUMP JUMPDEST PUSH1 0x0 DUP2 MLOAD SWAP1 POP SWAP2 SWAP1 POP JUMP JUMPDEST PUSH32 0x4E487B7100000000000000000000000000000000000000000000000000000000 PUSH1 0x0 MSTORE PUSH1 0x22 PUSH1 0x4 MSTORE PUSH1 0x24 PUSH1 0x0 REVERT JUMPDEST PUSH1 0x0 PUSH1 0x2 DUP3 DIV SWAP1 POP PUSH1 0x1 DUP3 AND DUP1 PUSH3 0x445 JUMPI PUSH1 0x7F DUP3 AND SWAP2 POP JUMPDEST PUSH1 0x20 DUP3 LT DUP2 SUB PUSH3 0x45B JUMPI PUSH3 0x45A PUSH3 0x3FD JUMP JUMPDEST JUMPDEST POP SWAP2 SWAP1 POP JUMP JUMPDEST PUSH1 0x0 DUP2 SWAP1 POP DUP2 PUSH1 0x0 MSTORE PUSH1 0x20 PUSH1 0x0 KECCAK256 SWAP1 POP SWAP2 SWAP1 POP JUMP JUMPDEST PUSH1 0x0 PUSH1 0x20 PUSH1 0x1F DUP4 ADD DIV SWAP1 POP SWAP2 SWAP1 POP JUMP JUMPDEST PUSH1 0x0 DUP3 DUP3 SHL SWAP1 POP SWAP3 SWAP2 POP POP JUMP JUMPDEST PUSH1 0x0 PUSH1 0x8 DUP4 MUL PUSH3 0x4C5 PUSH32 0xFFFFFFFFFFFFFFFFFFFFFFFFFFFFFFFFFFFFFFFFFFFFFFFFFFFFFFFFFFFFFFFF DUP3 PUSH3 0x486 JUMP JUMPDEST PUSH3 0x4D1 DUP7 DUP4 PUSH3 0x486 JUMP JUMPDEST SWAP6 POP DUP1 NOT DUP5 AND SWAP4 POP DUP1 DUP7 AND DUP5 OR SWAP3 POP POP POP SWAP4 SWAP3 POP POP POP JUMP JUMPDEST PUSH1 0x0 DUP2 SWAP1 POP SWAP2 SWAP1 POP JUMP JUMPDEST PUSH1 0x0 PUSH3 0x514 PUSH3 0x50E PUSH3 0x508 DUP5 PUSH3 0x2D7 JUMP JUMPDEST PUSH3 0x4E9 JUMP JUMPDEST PUSH3 0x2D7 JUMP JUMPDEST SWAP1 POP SWAP2 SWAP1 POP JUMP JUMPDEST PUSH1 0x0 DUP2 SWAP1 POP SWAP2 SWAP1 POP JUMP JUMPDEST PUSH3 0x530 DUP4 PUSH3 0x4F3 JUMP JUMPDEST PUSH3 0x548 PUSH3 0x53F DUP3 PUSH3 0x51B JUMP JUMPDEST DUP5 DUP5 SLOAD PUSH3 0x493 JUMP JUMPDEST DUP3 SSTORE POP POP POP POP JUMP JUMPDEST PUSH1 0x0 SWAP1 JUMP JUMPDEST PUSH3 0x55F PUSH3 0x550 JUMP JUMPDEST PUSH3 0x56C DUP2 DUP5 DUP5 PUSH3 0x525 JUMP JUMPDEST POP POP POP JUMP JUMPDEST JUMPDEST DUP2 DUP2 LT ISZERO PUSH3 0x594 JUMPI PUSH3 0x588 PUSH1 0x0 DUP3 PUSH3 0x555 JUMP JUMPDEST PUSH1 0x1 DUP2 ADD SWAP1 POP PUSH3 0x572 JUMP JUMPDEST POP POP JUMP JUMPDEST PUSH1 0x1F DUP3 GT ISZERO PUSH3 0x5E3 JUMPI PUSH3 0x5AD DUP2 PUSH3 0x461 JUMP JUMPDEST PUSH3 0x5B8 DUP5 PUSH3 0x476 JUMP JUMPDEST DUP2 ADD PUSH1 0x20 DUP6 LT ISZERO PUSH3 0x5C8 JUMPI DUP2 SWAP1 POP JUMPDEST PUSH3 0x5E0 PUSH3 0x5D7 DUP6 PUSH3 0x476 JUMP JUMPDEST DUP4 ADD DUP3 PUSH3 0x571 JUMP JUMPDEST POP POP JUMPDEST POP POP POP JUMP JUMPDEST PUSH1 0x0 DUP3 DUP3 SHR SWAP1 POP SWAP3 SWAP2 POP POP JUMP JUMPDEST PUSH1 0x0 PUSH3 0x608 PUSH1 0x0 NOT DUP5 PUSH1 0x8 MUL PUSH3 0x5E8 JUMP JUMPDEST NOT DUP1 DUP4 AND SWAP2 POP POP SWAP3 SWAP2 POP POP JUMP JUMPDEST PUSH1 0x0 PUSH3 0x623 DUP4 DUP4 PUSH3 0x5F5 JUMP JUMPDEST SWAP2 POP DUP3 PUSH1 0x2 MUL DUP3 OR SWAP1 POP SWAP3 SWAP2 POP POP JUMP JUMPDEST PUSH3 0x63E DUP3 PUSH3 0x3F2 JUMP JUMPDEST PUSH8 0xFFFFFFFFFFFFFFFF DUP2 GT ISZERO PUSH3 0x65A JUMPI PUSH3 0x659 PUSH3 0x173 JUMP JUMPDEST JUMPDEST PUSH3 0x666 DUP3 SLOAD PUSH3 0x42C JUMP JUMPDEST PUSH3 0x673 DUP3 DUP3 DUP6 PUSH3 0x598 JUMP JUMPDEST PUSH1 0x0 PUSH1 0x20 SWAP1 POP PUSH1 0x1F DUP4 GT PUSH1 0x1 DUP2 EQ PUSH3 0x6AB JUMPI PUSH1 0x0 DUP5 ISZERO PUSH3 0x696 JUMPI DUP3 DUP8 ADD MLOAD SWAP1 POP JUMPDEST PUSH3 0x6A2 DUP6 DUP3 PUSH3 0x615 JUMP JUMPDEST DUP7 SSTORE POP PUSH3 0x712 JUMP JUMPDEST PUSH1 0x1F NOT DUP5 AND PUSH3 0x6BB DUP7 PUSH3 0x461 JUMP JUMPDEST PUSH1 0x0 JUMPDEST DUP3 DUP2 LT ISZERO PUSH3 0x6E5 JUMPI DUP5 DUP10 ADD MLOAD DUP3 SSTORE PUSH1 0x1 DUP3 ADD SWAP2 POP PUSH1 0x20 DUP6 ADD SWAP5 POP PUSH1 0x20 DUP2 ADD SWAP1 POP PUSH3 0x6BE JUMP JUMPDEST DUP7 DUP4 LT ISZERO PUSH3 0x705 JUMPI DUP5 DUP10 ADD MLOAD PUSH3 0x701 PUSH1 0x1F DUP10 AND DUP3 PUSH3 0x5F5 JUMP JUMPDEST DUP4 SSTORE POP JUMPDEST PUSH1 0x1 PUSH1 0x2 DUP9 MUL ADD DUP9 SSTORE POP POP POP JUMPDEST POP POP POP POP POP POP JUMP JUMPDEST PUSH2 0x2774 DUP1 PUSH3 0x72A PUSH1 0x0 CODECOPY PUSH1 0x0 RETURN INVALID PUSH1 0x80 PUSH1 0x40 MSTORE CALLVALUE DUP1 ISZERO PUSH2 0x10 JUMPI PUSH1 0x0 DUP1 REVERT JUMPDEST POP PUSH1 0x4 CALLDATASIZE LT PUSH2 0x1CF JUMPI PUSH1 0x0 CALLDATALOAD PUSH1 0xE0 SHR DUP1 PUSH4 0x7D2CB98D GT PUSH2 0x104 JUMPI DUP1 PUSH4 0xC524E7F6 GT PUSH2 0xA2 JUMPI DUP1 PUSH4 0xD4F6C1FF GT PUSH2 0x71 JUMPI DUP1 PUSH4 0xD4F6C1FF EQ PUSH2 0x4E7 JUMPI DUP1 PUSH4 0xE5AB27E3 EQ PUSH2 0x517 JUMPI DUP1 PUSH4 0xE6CA2977 EQ PUSH2 0x533 JUMPI DUP1 PUSH4 0xE87CCDDA EQ PUSH2 0x551 JUMPI PUSH2 0x1CF JUMP JUMPDEST DUP1 PUSH4 0xC524E7F6 EQ PUSH2 0x45D JUMPI DUP1 PUSH4 0xCAA4FBBD EQ PUSH2 0x47B JUMPI DUP1 PUSH4 0xCAE5F950 EQ PUSH2 0x499 JUMPI DUP1 PUSH4 0xD03678CB EQ PUSH2 0x4C9 JUMPI PUSH2 0x1CF JUMP JUMPDEST DUP1 PUSH4 0xA022BE05 GT PUSH2 0xDE JUMPI DUP1 PUSH4 0xA022BE05 EQ PUSH2 0x3D9 JUMPI DUP1 PUSH4 0xBED2AEFE EQ PUSH2 0x3F5 JUMPI DUP1 PUSH4 0xC172F9B8 EQ PUSH2 0x425 JUMPI DUP1 PUSH4 0xC28388FA EQ PUSH2 0x441 JUMPI PUSH2 0x1CF JUMP JUMPDEST DUP1 PUSH4 0x7D2CB98D EQ PUSH2 0x381 JUMPI DUP1 PUSH4 0x8DA5CB5B EQ PUSH2 0x39F JUMPI DUP1 PUSH4 0x9155E45B EQ PUSH2 0x3BD JUMPI PUSH2 0x1CF JUMP JUMPDEST DUP1 PUSH4 0x481FD6B5 GT PUSH2 0x171 JUMPI DUP1 PUSH4 0x76EFA463 GT PUSH2 0x14B JUMPI DUP1 PUSH4 0x76EFA463 EQ PUSH2 0x308 JUMPI DUP1 PUSH4 0x78FB654A EQ PUSH2 0x312 JUMPI DUP1 PUSH4 0x7ACC0B20 EQ PUSH2 0x32E JUMPI DUP1 PUSH4 0x7B9F1976 EQ PUSH2 0x363 JUMPI PUSH2 0x1CF JUMP JUMPDEST DUP1 PUSH4 0x481FD6B5 EQ PUSH2 0x2B0 JUMPI DUP1 PUSH4 0x55C1C478 EQ PUSH2 0x2CE JUMPI DUP1 PUSH4 0x5789726A EQ PUSH2 0x2EC JUMPI PUSH2 0x1CF JUMP JUMPDEST DUP1 PUSH4 0x244DED7A GT PUSH2 0x1AD JUMPI DUP1 PUSH4 0x244DED7A EQ PUSH2 0x23C JUMPI DUP1 PUSH4 0x28A3D83A EQ PUSH2 0x258 JUMPI DUP1 PUSH4 0x3D527883 EQ PUSH2 0x276 JUMPI DUP1 PUSH4 0x3FAD4A37 EQ PUSH2 0x2A6 JUMPI PUSH2 0x1CF JUMP JUMPDEST DUP1 PUSH4 0x373E405 EQ PUSH2 0x1D4 JUMPI DUP1 PUSH4 0x4A3F393 EQ PUSH2 0x204 JUMPI DUP1 PUSH4 0x8B008FF EQ PUSH2 0x220 JUMPI JUMPDEST PUSH1 0x0 DUP1 REVERT JUMPDEST PUSH2 0x1EE PUSH1 0x4 DUP1 CALLDATASIZE SUB DUP2 ADD SWAP1 PUSH2 0x1E9 SWAP2 SWAP1 PUSH2 0x1BAC JUMP JUMPDEST PUSH2 0x56F JUMP JUMPDEST PUSH1 0x40 MLOAD PUSH2 0x1FB SWAP2 SWAP1 PUSH2 0x1BF4 JUMP JUMPDEST PUSH1 0x40 MLOAD DUP1 SWAP2 SUB SWAP1 RETURN JUMPDEST PUSH2 0x21E PUSH1 0x4 DUP1 CALLDATASIZE SUB DUP2 ADD SWAP1 PUSH2 0x219 SWAP2 SWAP1 PUSH2 0x1C45 JUMP JUMPDEST PUSH2 0x78C JUMP JUMPDEST STOP JUMPDEST PUSH2 0x23A PUSH1 0x4 DUP1 CALLDATASIZE SUB DUP2 ADD SWAP1 PUSH2 0x235 SWAP2 SWAP1 PUSH2 0x1CD7 JUMP JUMPDEST PUSH2 0x827 JUMP JUMPDEST STOP JUMPDEST PUSH2 0x256 PUSH1 0x4 DUP1 CALLDATASIZE SUB DUP2 ADD SWAP1 PUSH2 0x251 SWAP2 SWAP1 PUSH2 0x1BAC JUMP JUMPDEST PUSH2 0x95C JUMP JUMPDEST STOP JUMPDEST PUSH2 0x260 PUSH2 0xA2D JUMP JUMPDEST PUSH1 0x40 MLOAD PUSH2 0x26D SWAP2 SWAP1 PUSH2 0x1DE2 JUMP JUMPDEST PUSH1 0x40 MLOAD DUP1 SWAP2 SUB SWAP1 RETURN JUMPDEST PUSH2 0x290 PUSH1 0x4 DUP1 CALLDATASIZE SUB DUP2 ADD SWAP1 PUSH2 0x28B SWAP2 SWAP1 PUSH2 0x1E04 JUMP JUMPDEST PUSH2 0xABE JUMP JUMPDEST PUSH1 0x40 MLOAD PUSH2 0x29D SWAP2 SWAP1 PUSH2 0x1E53 JUMP JUMPDEST PUSH1 0x40 MLOAD DUP1 SWAP2 SUB SWAP1 RETURN JUMPDEST PUSH2 0x2AE PUSH2 0xAEF JUMP JUMPDEST STOP JUMPDEST PUSH2 0x2B8 PUSH2 0xC48 JUMP JUMPDEST PUSH1 0x40 MLOAD PUSH2 0x2C5 SWAP2 SWAP1 PUSH2 0x1EFE JUMP JUMPDEST PUSH1 0x40 MLOAD DUP1 SWAP2 SUB SWAP1 RETURN JUMPDEST PUSH2 0x2D6 PUSH2 0xCDD JUMP JUMPDEST PUSH1 0x40 MLOAD PUSH2 0x2E3 SWAP2 SWAP1 PUSH2 0x1F2F JUMP JUMPDEST PUSH1 0x40 MLOAD DUP1 SWAP2 SUB SWAP1 RETURN JUMPDEST PUSH2 0x306 PUSH1 0x4 DUP1 CALLDATASIZE SUB DUP2 ADD SWAP1 PUSH2 0x301 SWAP2 SWAP1 PUSH2 0x1CD7 JUMP JUMPDEST PUSH2 0xD0A JUMP JUMPDEST STOP JUMPDEST PUSH2 0x310 PUSH2 0xDB1 JUMP JUMPDEST STOP JUMPDEST PUSH2 0x32C PUSH1 0x4 DUP1 CALLDATASIZE SUB DUP2 ADD SWAP1 PUSH2 0x327 SWAP2 SWAP1 PUSH2 0x1F76 JUMP JUMPDEST PUSH2 0xF08 JUMP JUMPDEST STOP JUMPDEST PUSH2 0x348 PUSH1 0x4 DUP1 CALLDATASIZE SUB DUP2 ADD SWAP1 PUSH2 0x343 SWAP2 SWAP1 PUSH2 0x1C45 JUMP JUMPDEST PUSH2 0xFB6 JUMP JUMPDEST PUSH1 0x40 MLOAD PUSH2 0x35A SWAP7 SWAP6 SWAP5 SWAP4 SWAP3 SWAP2 SWAP1 PUSH2 0x1FA3 JUMP JUMPDEST PUSH1 0x40 MLOAD DUP1 SWAP2 SUB SWAP1 RETURN JUMPDEST PUSH2 0x36B PUSH2 0x11B7 JUMP JUMPDEST PUSH1 0x40 MLOAD PUSH2 0x378 SWAP2 SWAP1 PUSH2 0x1E53 JUMP JUMPDEST PUSH1 0x40 MLOAD DUP1 SWAP2 SUB SWAP1 RETURN JUMPDEST PUSH2 0x389 PUSH2 0x11C4 JUMP JUMPDEST PUSH1 0x40 MLOAD PUSH2 0x396 SWAP2 SWAP1 PUSH2 0x1DE2 JUMP JUMPDEST PUSH1 0x40 MLOAD DUP1 SWAP2 SUB SWAP1 RETURN JUMPDEST PUSH2 0x3A7 PUSH2 0x1255 JUMP JUMPDEST PUSH1 0x40 MLOAD PUSH2 0x3B4 SWAP2 SWAP1 PUSH2 0x1F2F JUMP JUMPDEST PUSH1 0x40 MLOAD DUP1 SWAP2 SUB SWAP1 RETURN JUMPDEST PUSH2 0x3D7 PUSH1 0x4 DUP1 CALLDATASIZE SUB DUP2 ADD SWAP1 PUSH2 0x3D2 SWAP2 SWAP1 PUSH2 0x206F JUMP JUMPDEST PUSH2 0x1279 JUMP JUMPDEST STOP JUMPDEST PUSH2 0x3F3 PUSH1 0x4 DUP1 CALLDATASIZE SUB DUP2 ADD SWAP1 PUSH2 0x3EE SWAP2 SWAP1 PUSH2 0x1CD7 JUMP JUMPDEST PUSH2 0x1320 JUMP JUMPDEST STOP JUMPDEST PUSH2 0x40F PUSH1 0x4 DUP1 CALLDATASIZE SUB DUP2 ADD SWAP1 PUSH2 0x40A SWAP2 SWAP1 PUSH2 0x1BAC JUMP JUMPDEST PUSH2 0x13C7 JUMP JUMPDEST PUSH1 0x40 MLOAD PUSH2 0x41C SWAP2 SWAP1 PUSH2 0x1BF4 JUMP JUMPDEST PUSH1 0x40 MLOAD DUP1 SWAP2 SUB SWAP1 RETURN JUMPDEST PUSH2 0x43F PUSH1 0x4 DUP1 CALLDATASIZE SUB DUP2 ADD SWAP1 PUSH2 0x43A SWAP2 SWAP1 PUSH2 0x1CD7 JUMP JUMPDEST PUSH2 0x15F2 JUMP JUMPDEST STOP JUMPDEST PUSH2 0x45B PUSH1 0x4 DUP1 CALLDATASIZE SUB DUP2 ADD SWAP1 PUSH2 0x456 SWAP2 SWAP1 PUSH2 0x1CD7 JUMP JUMPDEST PUSH2 0x1727 JUMP JUMPDEST STOP JUMPDEST PUSH2 0x465 PUSH2 0x17CE JUMP JUMPDEST PUSH1 0x40 MLOAD PUSH2 0x472 SWAP2 SWAP1 PUSH2 0x1EFE JUMP JUMPDEST PUSH1 0x40 MLOAD DUP1 SWAP2 SUB SWAP1 RETURN JUMPDEST PUSH2 0x483 PUSH2 0x1863 JUMP JUMPDEST PUSH1 0x40 MLOAD PUSH2 0x490 SWAP2 SWAP1 PUSH2 0x1BF4 JUMP JUMPDEST PUSH1 0x40 MLOAD DUP1 SWAP2 SUB SWAP1 RETURN JUMPDEST PUSH2 0x4B3 PUSH1 0x4 DUP1 CALLDATASIZE SUB DUP2 ADD SWAP1 PUSH2 0x4AE SWAP2 SWAP1 PUSH2 0x1BAC JUMP JUMPDEST PUSH2 0x187D JUMP JUMPDEST PUSH1 0x40 MLOAD PUSH2 0x4C0 SWAP2 SWAP1 PUSH2 0x1BF4 JUMP JUMPDEST PUSH1 0x40 MLOAD DUP1 SWAP2 SUB SWAP1 RETURN JUMPDEST PUSH2 0x4D1 PUSH2 0x18D6 JUMP JUMPDEST PUSH1 0x40 MLOAD PUSH2 0x4DE SWAP2 SWAP1 PUSH2 0x1E53 JUMP JUMPDEST PUSH1 0x40 MLOAD DUP1 SWAP2 SUB SWAP1 RETURN JUMPDEST PUSH2 0x501 PUSH1 0x4 DUP1 CALLDATASIZE SUB DUP2 ADD SWAP1 PUSH2 0x4FC SWAP2 SWAP1 PUSH2 0x1BAC JUMP JUMPDEST PUSH2 0x18E6 JUMP JUMPDEST PUSH1 0x40 MLOAD PUSH2 0x50E SWAP2 SWAP1 PUSH2 0x1BF4 JUMP JUMPDEST PUSH1 0x40 MLOAD DUP1 SWAP2 SUB SWAP1 RETURN JUMPDEST PUSH2 0x531 PUSH1 0x4 DUP1 CALLDATASIZE SUB DUP2 ADD SWAP1 PUSH2 0x52C SWAP2 SWAP1 PUSH2 0x206F JUMP JUMPDEST PUSH2 0x193F JUMP JUMPDEST STOP JUMPDEST PUSH2 0x53B PUSH2 0x19E6 JUMP JUMPDEST PUSH1 0x40 MLOAD PUSH2 0x548 SWAP2 SWAP1 PUSH2 0x1DE2 JUMP JUMPDEST PUSH1 0x40 MLOAD DUP1 SWAP2 SUB SWAP1 RETURN JUMPDEST PUSH2 0x559 PUSH2 0x1A77 JUMP JUMPDEST PUSH1 0x40 MLOAD PUSH2 0x566 SWAP2 SWAP1 PUSH2 0x1E53 JUMP JUMPDEST PUSH1 0x40 MLOAD DUP1 SWAP2 SUB SWAP1 RETURN JUMPDEST PUSH1 0x0 DUP1 DUP3 SWAP1 POP DUP1 PUSH20 0xFFFFFFFFFFFFFFFFFFFFFFFFFFFFFFFFFFFFFFFF AND PUSH4 0xCAE5F950 ADDRESS PUSH1 0x40 MLOAD DUP3 PUSH4 0xFFFFFFFF AND PUSH1 0xE0 SHL DUP2 MSTORE PUSH1 0x4 ADD PUSH2 0x5AE SWAP2 SWAP1 PUSH2 0x1F2F JUMP JUMPDEST PUSH1 0x20 PUSH1 0x40 MLOAD DUP1 DUP4 SUB DUP2 DUP7 GAS STATICCALL ISZERO DUP1 ISZERO PUSH2 0x5CB JUMPI RETURNDATASIZE PUSH1 0x0 DUP1 RETURNDATACOPY RETURNDATASIZE PUSH1 0x0 REVERT JUMPDEST POP POP POP POP PUSH1 0x40 MLOAD RETURNDATASIZE PUSH1 0x1F NOT PUSH1 0x1F DUP3 ADD AND DUP3 ADD DUP1 PUSH1 0x40 MSTORE POP DUP2 ADD SWAP1 PUSH2 0x5EF SWAP2 SWAP1 PUSH2 0x20D1 JUMP JUMPDEST ISZERO PUSH2 0x6FC JUMPI PUSH1 0x3 PUSH1 0x7 ADD DUP4 SWAP1 DUP1 PUSH1 0x1 DUP2 SLOAD ADD DUP1 DUP3 SSTORE DUP1 SWAP2 POP POP PUSH1 0x1 SWAP1 SUB SWAP1 PUSH1 0x0 MSTORE PUSH1 0x20 PUSH1 0x0 KECCAK256 ADD PUSH1 0x0 SWAP1 SWAP2 SWAP1 SWAP2 SWAP1 SWAP2 PUSH2 0x100 EXP DUP2 SLOAD DUP2 PUSH20 0xFFFFFFFFFFFFFFFFFFFFFFFFFFFFFFFFFFFFFFFF MUL NOT AND SWAP1 DUP4 PUSH20 0xFFFFFFFFFFFFFFFFFFFFFFFFFFFFFFFFFFFFFFFF AND MUL OR SWAP1 SSTORE POP DUP1 PUSH20 0xFFFFFFFFFFFFFFFFFFFFFFFFFFFFFFFFFFFFFFFF AND PUSH4 0x3FAD4A37 PUSH1 0x40 MLOAD DUP2 PUSH4 0xFFFFFFFF AND PUSH1 0xE0 SHL DUP2 MSTORE PUSH1 0x4 ADD PUSH1 0x0 PUSH1 0x40 MLOAD DUP1 DUP4 SUB DUP2 PUSH1 0x0 DUP8 DUP1 EXTCODESIZE ISZERO DUP1 ISZERO PUSH2 0x6A2 JUMPI PUSH1 0x0 DUP1 REVERT JUMPDEST POP GAS CALL ISZERO DUP1 ISZERO PUSH2 0x6B6 JUMPI RETURNDATASIZE PUSH1 0x0 DUP1 RETURNDATACOPY RETURNDATASIZE PUSH1 0x0 REVERT JUMPDEST POP POP POP POP PUSH32 0xBC2E9D8256E6321F63DB02BD9AF862997B6E16689FDF6BA219D5970FD5A0C447 PUSH1 0x1 PUSH1 0x40 MLOAD PUSH2 0x6EA SWAP2 SWAP1 PUSH2 0x214A JUMP JUMPDEST PUSH1 0x40 MLOAD DUP1 SWAP2 SUB SWAP1 LOG1 PUSH1 0x1 SWAP2 POP POP PUSH2 0x787 JUMP JUMPDEST PUSH1 0x3 DUP1 ADD PUSH1 0x0 DUP5 PUSH20 0xFFFFFFFFFFFFFFFFFFFFFFFFFFFFFFFFFFFFFFFF AND PUSH20 0xFFFFFFFFFFFFFFFFFFFFFFFFFFFFFFFFFFFFFFFF AND DUP2 MSTORE PUSH1 0x20 ADD SWAP1 DUP2 MSTORE PUSH1 0x20 ADD PUSH1 0x0 KECCAK256 PUSH1 0x0 SWAP1 SLOAD SWAP1 PUSH2 0x100 EXP SWAP1 POP POP PUSH32 0xBC2E9D8256E6321F63DB02BD9AF862997B6E16689FDF6BA219D5970FD5A0C447 PUSH1 0x0 PUSH1 0x40 MLOAD PUSH2 0x779 SWAP2 SWAP1 PUSH2 0x214A JUMP JUMPDEST PUSH1 0x40 MLOAD DUP1 SWAP2 SUB SWAP1 LOG1 PUSH1 0x0 SWAP2 POP POP JUMPDEST SWAP2 SWAP1 POP JUMP JUMPDEST PUSH1 0x0 DUP1 SLOAD SWAP1 PUSH2 0x100 EXP SWAP1 DIV PUSH20 0xFFFFFFFFFFFFFFFFFFFFFFFFFFFFFFFFFFFFFFFF AND PUSH20 0xFFFFFFFFFFFFFFFFFFFFFFFFFFFFFFFFFFFFFFFF AND CALLER PUSH20 0xFFFFFFFFFFFFFFFFFFFFFFFFFFFFFFFFFFFFFFFF AND EQ PUSH2 0x81A JUMPI PUSH1 0x40 MLOAD PUSH32 0x8C379A000000000000000000000000000000000000000000000000000000000 DUP2 MSTORE PUSH1 0x4 ADD PUSH2 0x811 SWAP1 PUSH2 0x21C4 JUMP JUMPDEST PUSH1 0x40 MLOAD DUP1 SWAP2 SUB SWAP1 REVERT JUMPDEST DUP1 PUSH1 0x3 PUSH1 0xA ADD DUP2 SWAP1 SSTORE POP POP JUMP JUMPDEST PUSH1 0x0 DUP1 SLOAD SWAP1 PUSH2 0x100 EXP SWAP1 DIV PUSH20 0xFFFFFFFFFFFFFFFFFFFFFFFFFFFFFFFFFFFFFFFF AND PUSH20 0xFFFFFFFFFFFFFFFFFFFFFFFFFFFFFFFFFFFFFFFF AND CALLER PUSH20 0xFFFFFFFFFFFFFFFFFFFFFFFFFFFFFFFFFFFFFFFF AND EQ PUSH2 0x8B5 JUMPI PUSH1 0x40 MLOAD PUSH32 0x8C379A000000000000000000000000000000000000000000000000000000000 DUP2 MSTORE PUSH1 0x4 ADD PUSH2 0x8AC SWAP1 PUSH2 0x21C4 JUMP JUMPDEST PUSH1 0x40 MLOAD DUP1 SWAP2 SUB SWAP1 REVERT JUMPDEST PUSH1 0x0 JUMPDEST DUP3 DUP3 SWAP1 POP DUP2 LT ISZERO PUSH2 0x957 JUMPI PUSH1 0x1 PUSH1 0x3 DUP1 ADD PUSH1 0x0 DUP6 DUP6 DUP6 DUP2 DUP2 LT PUSH2 0x8DE JUMPI PUSH2 0x8DD PUSH2 0x21E4 JUMP JUMPDEST JUMPDEST SWAP1 POP PUSH1 0x20 MUL ADD PUSH1 0x20 DUP2 ADD SWAP1 PUSH2 0x8F3 SWAP2 SWAP1 PUSH2 0x1BAC JUMP JUMPDEST PUSH20 0xFFFFFFFFFFFFFFFFFFFFFFFFFFFFFFFFFFFFFFFF AND PUSH20 0xFFFFFFFFFFFFFFFFFFFFFFFFFFFFFFFFFFFFFFFF AND DUP2 MSTORE PUSH1 0x20 ADD SWAP1 DUP2 MSTORE PUSH1 0x20 ADD PUSH1 0x0 KECCAK256 PUSH1 0x0 PUSH2 0x100 EXP DUP2 SLOAD DUP2 PUSH1 0xFF MUL NOT AND SWAP1 DUP4 ISZERO ISZERO MUL OR SWAP1 SSTORE POP DUP1 DUP1 PUSH2 0x94F SWAP1 PUSH2 0x2242 JUMP JUMPDEST SWAP2 POP POP PUSH2 0x8B8 JUMP JUMPDEST POP POP POP JUMP JUMPDEST PUSH1 0x0 DUP1 SLOAD SWAP1 PUSH2 0x100 EXP SWAP1 DIV PUSH20 0xFFFFFFFFFFFFFFFFFFFFFFFFFFFFFFFFFFFFFFFF AND PUSH20 0xFFFFFFFFFFFFFFFFFFFFFFFFFFFFFFFFFFFFFFFF AND CALLER PUSH20 0xFFFFFFFFFFFFFFFFFFFFFFFFFFFFFFFFFFFFFFFF AND EQ PUSH2 0x9EA JUMPI PUSH1 0x40 MLOAD PUSH32 0x8C379A000000000000000000000000000000000000000000000000000000000 DUP2 MSTORE PUSH1 0x4 ADD PUSH2 0x9E1 SWAP1 PUSH2 0x21C4 JUMP JUMPDEST PUSH1 0x40 MLOAD DUP1 SWAP2 SUB SWAP1 REVERT JUMPDEST DUP1 PUSH1 0x0 DUP1 PUSH2 0x100 EXP DUP2 SLOAD DUP2 PUSH20 0xFFFFFFFFFFFFFFFFFFFFFFFFFFFFFFFFFFFFFFFF MUL NOT AND SWAP1 DUP4 PUSH20 0xFFFFFFFFFFFFFFFFFFFFFFFFFFFFFFFFFFFFFFFF AND MUL OR SWAP1 SSTORE POP POP JUMP JUMPDEST PUSH1 0x60 PUSH1 0x3 PUSH1 0x6 ADD DUP1 SLOAD DUP1 PUSH1 0x20 MUL PUSH1 0x20 ADD PUSH1 0x40 MLOAD SWAP1 DUP2 ADD PUSH1 0x40 MSTORE DUP1 SWAP3 SWAP2 SWAP1 DUP2 DUP2 MSTORE PUSH1 0x20 ADD DUP3 DUP1 SLOAD DUP1 ISZERO PUSH2 0xAB4 JUMPI PUSH1 0x20 MUL DUP3 ADD SWAP2 SWAP1 PUSH1 0x0 MSTORE PUSH1 0x20 PUSH1 0x0 KECCAK256 SWAP1 JUMPDEST DUP2 PUSH1 0x0 SWAP1 SLOAD SWAP1 PUSH2 0x100 EXP SWAP1 DIV PUSH20 0xFFFFFFFFFFFFFFFFFFFFFFFFFFFFFFFFFFFFFFFF AND PUSH20 0xFFFFFFFFFFFFFFFFFFFFFFFFFFFFFFFFFFFFFFFF AND DUP2 MSTORE PUSH1 0x20 ADD SWAP1 PUSH1 0x1 ADD SWAP1 DUP1 DUP4 GT PUSH2 0xA6A JUMPI JUMPDEST POP POP POP POP POP SWAP1 POP SWAP1 JUMP JUMPDEST PUSH1 0x2 PUSH1 0x20 MSTORE DUP2 PUSH1 0x0 MSTORE PUSH1 0x40 PUSH1 0x0 KECCAK256 DUP2 DUP2 SLOAD DUP2 LT PUSH2 0xADA JUMPI PUSH1 0x0 DUP1 REVERT JUMPDEST SWAP1 PUSH1 0x0 MSTORE PUSH1 0x20 PUSH1 0x0 KECCAK256 ADD PUSH1 0x0 SWAP2 POP SWAP2 POP POP SLOAD DUP2 JUMP JUMPDEST PUSH1 0x1 ISZERO ISZERO PUSH1 0x3 PUSH1 0x2 ADD PUSH1 0x0 CALLER PUSH20 0xFFFFFFFFFFFFFFFFFFFFFFFFFFFFFFFFFFFFFFFF AND PUSH20 0xFFFFFFFFFFFFFFFFFFFFFFFFFFFFFFFFFFFFFFFF AND DUP2 MSTORE PUSH1 0x20 ADD SWAP1 DUP2 MSTORE PUSH1 0x20 ADD PUSH1 0x0 KECCAK256 PUSH1 0x0 SWAP1 SLOAD SWAP1 PUSH2 0x100 EXP SWAP1 DIV PUSH1 0xFF AND ISZERO ISZERO EQ PUSH2 0xB85 JUMPI PUSH1 0x40 MLOAD PUSH32 0x8C379A000000000000000000000000000000000000000000000000000000000 DUP2 MSTORE PUSH1 0x4 ADD PUSH2 0xB7C SWAP1 PUSH2 0x22FC JUMP JUMPDEST PUSH1 0x40 MLOAD DUP1 SWAP2 SUB SWAP1 REVERT JUMPDEST PUSH1 0x0 PUSH1 0x3 PUSH1 0x2 ADD PUSH1 0x0 CALLER PUSH20 0xFFFFFFFFFFFFFFFFFFFFFFFFFFFFFFFFFFFFFFFF AND PUSH20 0xFFFFFFFFFFFFFFFFFFFFFFFFFFFFFFFFFFFFFFFF AND DUP2 MSTORE PUSH1 0x20 ADD SWAP1 DUP2 MSTORE PUSH1 0x20 ADD PUSH1 0x0 KECCAK256 PUSH1 0x0 PUSH2 0x100 EXP DUP2 SLOAD DUP2 PUSH1 0xFF MUL NOT AND SWAP1 DUP4 ISZERO ISZERO MUL OR SWAP1 SSTORE POP PUSH1 0x3 PUSH1 0x6 ADD CALLER SWAP1 DUP1 PUSH1 0x1 DUP2 SLOAD ADD DUP1 DUP3 SSTORE DUP1 SWAP2 POP POP PUSH1 0x1 SWAP1 SUB SWAP1 PUSH1 0x0 MSTORE PUSH1 0x20 PUSH1 0x0 KECCAK256 ADD PUSH1 0x0 SWAP1 SWAP2 SWAP1 SWAP2 SWAP1 SWAP2 PUSH2 0x100 EXP DUP2 SLOAD DUP2 PUSH20 0xFFFFFFFFFFFFFFFFFFFFFFFFFFFFFFFFFFFFFFFF MUL NOT AND SWAP1 DUP4 PUSH20 0xFFFFFFFFFFFFFFFFFFFFFFFFFFFFFFFFFFFFFFFF AND MUL OR SWAP1 SSTORE POP JUMP JUMPDEST PUSH1 0x60 PUSH1 0x3 PUSH1 0x1 ADD DUP1 SLOAD PUSH2 0xC5A SWAP1 PUSH2 0x234B JUMP JUMPDEST DUP1 PUSH1 0x1F ADD PUSH1 0x20 DUP1 SWAP2 DIV MUL PUSH1 0x20 ADD PUSH1 0x40 MLOAD SWAP1 DUP2 ADD PUSH1 0x40 MSTORE DUP1 SWAP3 SWAP2 SWAP1 DUP2 DUP2 MSTORE PUSH1 0x20 ADD DUP3 DUP1 SLOAD PUSH2 0xC86 SWAP1 PUSH2 0x234B JUMP JUMPDEST DUP1 ISZERO PUSH2 0xCD3 JUMPI DUP1 PUSH1 0x1F LT PUSH2 0xCA8 JUMPI PUSH2 0x100 DUP1 DUP4 SLOAD DIV MUL DUP4 MSTORE SWAP2 PUSH1 0x20 ADD SWAP2 PUSH2 0xCD3 JUMP JUMPDEST DUP3 ADD SWAP2 SWAP1 PUSH1 0x0 MSTORE PUSH1 0x20 PUSH1 0x0 KECCAK256 SWAP1 JUMPDEST DUP2 SLOAD DUP2 MSTORE SWAP1 PUSH1 0x1 ADD SWAP1 PUSH1 0x20 ADD DUP1 DUP4 GT PUSH2 0xCB6 JUMPI DUP3 SWAP1 SUB PUSH1 0x1F AND DUP3 ADD SWAP2 JUMPDEST POP POP POP POP POP SWAP1 POP SWAP1 JUMP JUMPDEST PUSH1 0x0 PUSH1 0x3 PUSH1 0x0 ADD PUSH1 0x0 SWAP1 SLOAD SWAP1 PUSH2 0x100 EXP SWAP1 DIV PUSH20 0xFFFFFFFFFFFFFFFFFFFFFFFFFFFFFFFFFFFFFFFF AND SWAP1 POP SWAP1 JUMP JUMPDEST PUSH1 0x0 DUP1 SLOAD SWAP1 PUSH2 0x100 EXP SWAP1 DIV PUSH20 0xFFFFFFFFFFFFFFFFFFFFFFFFFFFFFFFFFFFFFFFF AND PUSH20 0xFFFFFFFFFFFFFFFFFFFFFFFFFFFFFFFFFFFFFFFF AND CALLER PUSH20 0xFFFFFFFFFFFFFFFFFFFFFFFFFFFFFFFFFFFFFFFF AND EQ PUSH2 0xD98 JUMPI PUSH1 0x40 MLOAD PUSH32 0x8C379A000000000000000000000000000000000000000000000000000000000 DUP2 MSTORE PUSH1 0x4 ADD PUSH2 0xD8F SWAP1 PUSH2 0x21C4 JUMP JUMPDEST PUSH1 0x40 MLOAD DUP1 SWAP2 SUB SWAP1 REVERT JUMPDEST DUP2 DUP2 PUSH1 0x3 PUSH1 0x6 ADD SWAP2 SWAP1 PUSH2 0xDAC SWAP3 SWAP2 SWAP1 PUSH2 0x1A87 JUMP JUMPDEST POP POP POP JUMP JUMPDEST PUSH1 0x1 ISZERO ISZERO PUSH1 0x3 DUP1 ADD PUSH1 0x0 CALLER PUSH20 0xFFFFFFFFFFFFFFFFFFFFFFFFFFFFFFFFFFFFFFFF AND PUSH20 0xFFFFFFFFFFFFFFFFFFFFFFFFFFFFFFFFFFFFFFFF AND DUP2 MSTORE PUSH1 0x20 ADD SWAP1 DUP2 MSTORE PUSH1 0x20 ADD PUSH1 0x0 KECCAK256 PUSH1 0x0 SWAP1 SLOAD SWAP1 PUSH2 0x100 EXP SWAP1 DIV PUSH1 0xFF AND ISZERO ISZERO EQ PUSH2 0xE46 JUMPI PUSH1 0x40 MLOAD PUSH32 0x8C379A000000000000000000000000000000000000000000000000000000000 DUP2 MSTORE PUSH1 0x4 ADD PUSH2 0xE3D SWAP1 PUSH2 0x23EE JUMP JUMPDEST PUSH1 0x40 MLOAD DUP1 SWAP2 SUB SWAP1 REVERT JUMPDEST PUSH1 0x0 PUSH1 0x3 DUP1 ADD PUSH1 0x0 CALLER PUSH20 0xFFFFFFFFFFFFFFFFFFFFFFFFFFFFFFFFFFFFFFFF AND PUSH20 0xFFFFFFFFFFFFFFFFFFFFFFFFFFFFFFFFFFFFFFFF AND DUP2 MSTORE PUSH1 0x20 ADD SWAP1 DUP2 MSTORE PUSH1 0x20 ADD PUSH1 0x0 KECCAK256 PUSH1 0x0 PUSH2 0x100 EXP DUP2 SLOAD DUP2 PUSH1 0xFF MUL NOT AND SWAP1 DUP4 ISZERO ISZERO MUL OR SWAP1 SSTORE POP PUSH1 0x3 PUSH1 0x7 ADD CALLER SWAP1 DUP1 PUSH1 0x1 DUP2 SLOAD ADD DUP1 DUP3 SSTORE DUP1 SWAP2 POP POP PUSH1 0x1 SWAP1 SUB SWAP1 PUSH1 0x0 MSTORE PUSH1 0x20 PUSH1 0x0 KECCAK256 ADD PUSH1 0x0 SWAP1 SWAP2 SWAP1 SWAP2 SWAP1 SWAP2 PUSH2 0x100 EXP DUP2 SLOAD DUP2 PUSH20 0xFFFFFFFFFFFFFFFFFFFFFFFFFFFFFFFFFFFFFFFF MUL NOT AND SWAP1 DUP4 PUSH20 0xFFFFFFFFFFFFFFFFFFFFFFFFFFFFFFFFFFFFFFFF AND MUL OR SWAP1 SSTORE POP JUMP JUMPDEST PUSH1 0x0 DUP1 SLOAD SWAP1 PUSH2 0x100 EXP SWAP1 DIV PUSH20 0xFFFFFFFFFFFFFFFFFFFFFFFFFFFFFFFFFFFFFFFF AND PUSH20 0xFFFFFFFFFFFFFFFFFFFFFFFFFFFFFFFFFFFFFFFF AND CALLER PUSH20 0xFFFFFFFFFFFFFFFFFFFFFFFFFFFFFFFFFFFFFFFF AND EQ PUSH2 0xF96 JUMPI PUSH1 0x40 MLOAD PUSH32 0x8C379A000000000000000000000000000000000000000000000000000000000 DUP2 MSTORE PUSH1 0x4 ADD PUSH2 0xF8D SWAP1 PUSH2 0x21C4 JUMP JUMPDEST PUSH1 0x40 MLOAD DUP1 SWAP2 SUB SWAP1 REVERT JUMPDEST DUP1 PUSH1 0x3 PUSH1 0x0 ADD PUSH1 0x14 PUSH2 0x100 EXP DUP2 SLOAD DUP2 PUSH1 0xFF MUL NOT AND SWAP1 DUP4 ISZERO ISZERO MUL OR SWAP1 SSTORE POP POP JUMP JUMPDEST PUSH1 0x1 PUSH1 0x20 MSTORE DUP1 PUSH1 0x0 MSTORE PUSH1 0x40 PUSH1 0x0 KECCAK256 PUSH1 0x0 SWAP2 POP SWAP1 POP DUP1 PUSH1 0x0 ADD PUSH1 0x0 SWAP1 SLOAD SWAP1 PUSH2 0x100 EXP SWAP1 DIV PUSH20 0xFFFFFFFFFFFFFFFFFFFFFFFFFFFFFFFFFFFFFFFF AND SWAP1 DUP1 PUSH1 0x0 ADD PUSH1 0x14 SWAP1 SLOAD SWAP1 PUSH2 0x100 EXP SWAP1 DIV PUSH1 0xFF AND SWAP1 DUP1 PUSH1 0x1 ADD DUP1 SLOAD PUSH2 0x1012 SWAP1 PUSH2 0x234B JUMP JUMPDEST DUP1 PUSH1 0x1F ADD PUSH1 0x20 DUP1 SWAP2 DIV MUL PUSH1 0x20 ADD PUSH1 0x40 MLOAD SWAP1 DUP2 ADD PUSH1 0x40 MSTORE DUP1 SWAP3 SWAP2 SWAP1 DUP2 DUP2 MSTORE PUSH1 0x20 ADD DUP3 DUP1 SLOAD PUSH2 0x103E SWAP1 PUSH2 0x234B JUMP JUMPDEST DUP1 ISZERO PUSH2 0x108B JUMPI DUP1 PUSH1 0x1F LT PUSH2 0x1060 JUMPI PUSH2 0x100 DUP1 DUP4 SLOAD DIV MUL DUP4 MSTORE SWAP2 PUSH1 0x20 ADD SWAP2 PUSH2 0x108B JUMP JUMPDEST DUP3 ADD SWAP2 SWAP1 PUSH1 0x0 MSTORE PUSH1 0x20 PUSH1 0x0 KECCAK256 SWAP1 JUMPDEST DUP2 SLOAD DUP2 MSTORE SWAP1 PUSH1 0x1 ADD SWAP1 PUSH1 0x20 ADD DUP1 DUP4 GT PUSH2 0x106E JUMPI DUP3 SWAP1 SUB PUSH1 0x1F AND DUP3 ADD SWAP2 JUMPDEST POP POP POP POP POP SWAP1 DUP1 PUSH1 0x9 ADD DUP1 SLOAD PUSH2 0x10A0 SWAP1 PUSH2 0x234B JUMP JUMPDEST DUP1 PUSH1 0x1F ADD PUSH1 0x20 DUP1 SWAP2 DIV MUL PUSH1 0x20 ADD PUSH1 0x40 MLOAD SWAP1 DUP2 ADD PUSH1 0x40 MSTORE DUP1 SWAP3 SWAP2 SWAP1 DUP2 DUP2 MSTORE PUSH1 0x20 ADD DUP3 DUP1 SLOAD PUSH2 0x10CC SWAP1 PUSH2 0x234B JUMP JUMPDEST DUP1 ISZERO PUSH2 0x1119 JUMPI DUP1 PUSH1 0x1F LT PUSH2 0x10EE JUMPI PUSH2 0x100 DUP1 DUP4 SLOAD DIV MUL DUP4 MSTORE SWAP2 PUSH1 0x20 ADD SWAP2 PUSH2 0x1119 JUMP JUMPDEST DUP3 ADD SWAP2 SWAP1 PUSH1 0x0 MSTORE PUSH1 0x20 PUSH1 0x0 KECCAK256 SWAP1 JUMPDEST DUP2 SLOAD DUP2 MSTORE SWAP1 PUSH1 0x1 ADD SWAP1 PUSH1 0x20 ADD DUP1 DUP4 GT PUSH2 0x10FC JUMPI DUP3 SWAP1 SUB PUSH1 0x1F AND DUP3 ADD SWAP2 JUMPDEST POP POP POP POP POP SWAP1 DUP1 PUSH1 0xA ADD SLOAD SWAP1 DUP1 PUSH1 0xB ADD DUP1 SLOAD PUSH2 0x1134 SWAP1 PUSH2 0x234B JUMP JUMPDEST DUP1 PUSH1 0x1F ADD PUSH1 0x20 DUP1 SWAP2 DIV MUL PUSH1 0x20 ADD PUSH1 0x40 MLOAD SWAP1 DUP2 ADD PUSH1 0x40 MSTORE DUP1 SWAP3 SWAP2 SWAP1 DUP2 DUP2 MSTORE PUSH1 0x20 ADD DUP3 DUP1 SLOAD PUSH2 0x1160 SWAP1 PUSH2 0x234B JUMP JUMPDEST DUP1 ISZERO PUSH2 0x11AD JUMPI DUP1 PUSH1 0x1F LT PUSH2 0x1182 JUMPI PUSH2 0x100 DUP1 DUP4 SLOAD DIV MUL DUP4 MSTORE SWAP2 PUSH1 0x20 ADD SWAP2 PUSH2 0x11AD JUMP JUMPDEST DUP3 ADD SWAP2 SWAP1 PUSH1 0x0 MSTORE PUSH1 0x20 PUSH1 0x0 KECCAK256 SWAP1 JUMPDEST DUP2 SLOAD DUP2 MSTORE SWAP1 PUSH1 0x1 ADD SWAP1 PUSH1 0x20 ADD DUP1 DUP4 GT PUSH2 0x1190 JUMPI DUP3 SWAP1 SUB PUSH1 0x1F AND DUP3 ADD SWAP2 JUMPDEST POP POP POP POP POP SWAP1 POP DUP7 JUMP JUMPDEST PUSH1 0x0 PUSH1 0x3 PUSH1 0xA ADD SLOAD SWAP1 POP SWAP1 JUMP JUMPDEST PUSH1 0x60 PUSH1 0x3 PUSH1 0x7 ADD DUP1 SLOAD DUP1 PUSH1 0x20 MUL PUSH1 0x20 ADD PUSH1 0x40 MLOAD SWAP1 DUP2 ADD PUSH1 0x40 MSTORE DUP1 SWAP3 SWAP2 SWAP1 DUP2 DUP2 MSTORE PUSH1 0x20 ADD DUP3 DUP1 SLOAD DUP1 ISZERO PUSH2 0x124B JUMPI PUSH1 0x20 MUL DUP3 ADD SWAP2 SWAP1 PUSH1 0x0 MSTORE PUSH1 0x20 PUSH1 0x0 KECCAK256 SWAP1 JUMPDEST DUP2 PUSH1 0x0 SWAP1 SLOAD SWAP1 PUSH2 0x100 EXP SWAP1 DIV PUSH20 0xFFFFFFFFFFFFFFFFFFFFFFFFFFFFFFFFFFFFFFFF AND PUSH20 0xFFFFFFFFFFFFFFFFFFFFFFFFFFFFFFFFFFFFFFFF AND DUP2 MSTORE PUSH1 0x20 ADD SWAP1 PUSH1 0x1 ADD SWAP1 DUP1 DUP4 GT PUSH2 0x1201 JUMPI JUMPDEST POP POP POP POP POP SWAP1 POP SWAP1 JUMP JUMPDEST PUSH1 0x0 DUP1 SLOAD SWAP1 PUSH2 0x100 EXP SWAP1 DIV PUSH20 0xFFFFFFFFFFFFFFFFFFFFFFFFFFFFFFFFFFFFFFFF AND DUP2 JUMP JUMPDEST PUSH1 0x0 DUP1 SLOAD SWAP1 PUSH2 0x100 EXP SWAP1 DIV PUSH20 0xFFFFFFFFFFFFFFFFFFFFFFFFFFFFFFFFFFFFFFFF AND PUSH20 0xFFFFFFFFFFFFFFFFFFFFFFFFFFFFFFFFFFFFFFFF AND CALLER PUSH20 0xFFFFFFFFFFFFFFFFFFFFFFFFFFFFFFFFFFFFFFFF AND EQ PUSH2 0x1307 JUMPI PUSH1 0x40 MLOAD PUSH32 0x8C379A000000000000000000000000000000000000000000000000000000000 DUP2 MSTORE PUSH1 0x4 ADD PUSH2 0x12FE SWAP1 PUSH2 0x21C4 JUMP JUMPDEST PUSH1 0x40 MLOAD DUP1 SWAP2 SUB SWAP1 REVERT JUMPDEST DUP2 DUP2 PUSH1 0x3 PUSH1 0x1 ADD SWAP2 DUP3 PUSH2 0x131B SWAP3 SWAP2 SWAP1 PUSH2 0x25F4 JUMP JUMPDEST POP POP POP JUMP JUMPDEST PUSH1 0x0 DUP1 SLOAD SWAP1 PUSH2 0x100 EXP SWAP1 DIV PUSH20 0xFFFFFFFFFFFFFFFFFFFFFFFFFFFFFFFFFFFFFFFF AND PUSH20 0xFFFFFFFFFFFFFFFFFFFFFFFFFFFFFFFFFFFFFFFF AND CALLER PUSH20 0xFFFFFFFFFFFFFFFFFFFFFFFFFFFFFFFFFFFFFFFF AND EQ PUSH2 0x13AE JUMPI PUSH1 0x40 MLOAD PUSH32 0x8C379A000000000000000000000000000000000000000000000000000000000 DUP2 MSTORE PUSH1 0x4 ADD PUSH2 0x13A5 SWAP1 PUSH2 0x21C4 JUMP JUMPDEST PUSH1 0x40 MLOAD DUP1 SWAP2 SUB SWAP1 REVERT JUMPDEST DUP2 DUP2 PUSH1 0x3 PUSH1 0x6 ADD SWAP2 SWAP1 PUSH2 0x13C2 SWAP3 SWAP2 SWAP1 PUSH2 0x1A87 JUMP JUMPDEST POP POP POP JUMP JUMPDEST PUSH1 0x0 DUP1 DUP3 SWAP1 POP DUP1 PUSH20 0xFFFFFFFFFFFFFFFFFFFFFFFFFFFFFFFFFFFFFFFF AND PUSH4 0xCAE5F950 ADDRESS PUSH1 0x40 MLOAD DUP3 PUSH4 0xFFFFFFFF AND PUSH1 0xE0 SHL DUP2 MSTORE PUSH1 0x4 ADD PUSH2 0x1406 SWAP2 SWAP1 PUSH2 0x1F2F JUMP JUMPDEST PUSH1 0x20 PUSH1 0x40 MLOAD DUP1 DUP4 SUB DUP2 DUP7 GAS STATICCALL ISZERO DUP1 ISZERO PUSH2 0x1423 JUMPI RETURNDATASIZE PUSH1 0x0 DUP1 RETURNDATACOPY RETURNDATASIZE PUSH1 0x0 REVERT JUMPDEST POP POP POP POP PUSH1 0x40 MLOAD RETURNDATASIZE PUSH1 0x1F NOT PUSH1 0x1F DUP3 ADD AND DUP3 ADD DUP1 PUSH1 0x40 MSTORE POP DUP2 ADD SWAP1 PUSH2 0x1447 SWAP2 SWAP1 PUSH2 0x20D1 JUMP JUMPDEST ISZERO PUSH2 0x1554 JUMPI PUSH1 0x3 PUSH1 0x6 ADD DUP4 SWAP1 DUP1 PUSH1 0x1 DUP2 SLOAD ADD DUP1 DUP3 SSTORE DUP1 SWAP2 POP POP PUSH1 0x1 SWAP1 SUB SWAP1 PUSH1 0x0 MSTORE PUSH1 0x20 PUSH1 0x0 KECCAK256 ADD PUSH1 0x0 SWAP1 SWAP2 SWAP1 SWAP2 SWAP1 SWAP2 PUSH2 0x100 EXP DUP2 SLOAD DUP2 PUSH20 0xFFFFFFFFFFFFFFFFFFFFFFFFFFFFFFFFFFFFFFFF MUL NOT AND SWAP1 DUP4 PUSH20 0xFFFFFFFFFFFFFFFFFFFFFFFFFFFFFFFFFFFFFFFF AND MUL OR SWAP1 SSTORE POP DUP1 PUSH20 0xFFFFFFFFFFFFFFFFFFFFFFFFFFFFFFFFFFFFFFFF AND PUSH4 0x76EFA463 PUSH1 0x40 MLOAD DUP2 PUSH4 0xFFFFFFFF AND PUSH1 0xE0 SHL DUP2 MSTORE PUSH1 0x4 ADD PUSH1 0x0 PUSH1 0x40 MLOAD DUP1 DUP4 SUB DUP2 PUSH1 0x0 DUP8 DUP1 EXTCODESIZE ISZERO DUP1 ISZERO PUSH2 0x14FA JUMPI PUSH1 0x0 DUP1 REVERT JUMPDEST POP GAS CALL ISZERO DUP1 ISZERO PUSH2 0x150E JUMPI RETURNDATASIZE PUSH1 0x0 DUP1 RETURNDATACOPY RETURNDATASIZE PUSH1 0x0 REVERT JUMPDEST POP POP POP POP PUSH32 0xBC2E9D8256E6321F63DB02BD9AF862997B6E16689FDF6BA219D5970FD5A0C447 PUSH1 0x1 PUSH1 0x40 MLOAD PUSH2 0x1542 SWAP2 SWAP1 PUSH2 0x2710 JUMP JUMPDEST PUSH1 0x40 MLOAD DUP1 SWAP2 SUB SWAP1 LOG1 PUSH1 0x1 SWAP2 POP POP PUSH2 0x15ED JUMP JUMPDEST PUSH1 0x1 PUSH1 0x3 PUSH1 0x2 ADD PUSH1 0x0 DUP6 PUSH20 0xFFFFFFFFFFFFFFFFFFFFFFFFFFFFFFFFFFFFFFFF AND PUSH20 0xFFFFFFFFFFFFFFFFFFFFFFFFFFFFFFFFFFFFFFFF AND DUP2 MSTORE PUSH1 0x20 ADD SWAP1 DUP2 MSTORE PUSH1 0x20 ADD PUSH1 0x0 KECCAK256 PUSH1 0x0 PUSH2 0x100 EXP DUP2 SLOAD DUP2 PUSH1 0xFF MUL NOT AND SWAP1 DUP4 ISZERO ISZERO MUL OR SWAP1 SSTORE POP PUSH32 0xBC2E9D8256E6321F63DB02BD9AF862997B6E16689FDF6BA219D5970FD5A0C447 PUSH1 0x0 PUSH1 0x40 MLOAD PUSH2 0x15DF SWAP2 SWAP1 PUSH2 0x2710 JUMP JUMPDEST PUSH1 0x40 MLOAD DUP1 SWAP2 SUB SWAP1 LOG1 PUSH1 0x0 SWAP2 POP POP JUMPDEST SWAP2 SWAP1 POP JUMP JUMPDEST PUSH1 0x0 DUP1 SLOAD SWAP1 PUSH2 0x100 EXP SWAP1 DIV PUSH20 0xFFFFFFFFFFFFFFFFFFFFFFFFFFFFFFFFFFFFFFFF AND PUSH20 0xFFFFFFFFFFFFFFFFFFFFFFFFFFFFFFFFFFFFFFFF AND CALLER PUSH20 0xFFFFFFFFFFFFFFFFFFFFFFFFFFFFFFFFFFFFFFFF AND EQ PUSH2 0x1680 JUMPI PUSH1 0x40 MLOAD PUSH32 0x8C379A000000000000000000000000000000000000000000000000000000000 DUP2 MSTORE PUSH1 0x4 ADD PUSH2 0x1677 SWAP1 PUSH2 0x21C4 JUMP JUMPDEST PUSH1 0x40 MLOAD DUP1 SWAP2 SUB SWAP1 REVERT JUMPDEST PUSH1 0x0 JUMPDEST DUP3 DUP3 SWAP1 POP DUP2 LT ISZERO PUSH2 0x1722 JUMPI PUSH1 0x1 PUSH1 0x3 DUP1 ADD PUSH1 0x0 DUP6 DUP6 DUP6 DUP2 DUP2 LT PUSH2 0x16A9 JUMPI PUSH2 0x16A8 PUSH2 0x21E4 JUMP JUMPDEST JUMPDEST SWAP1 POP PUSH1 0x20 MUL ADD PUSH1 0x20 DUP2 ADD SWAP1 PUSH2 0x16BE SWAP2 SWAP1 PUSH2 0x1BAC JUMP JUMPDEST PUSH20 0xFFFFFFFFFFFFFFFFFFFFFFFFFFFFFFFFFFFFFFFF AND PUSH20 0xFFFFFFFFFFFFFFFFFFFFFFFFFFFFFFFFFFFFFFFF AND DUP2 MSTORE PUSH1 0x20 ADD SWAP1 DUP2 MSTORE PUSH1 0x20 ADD PUSH1 0x0 KECCAK256 PUSH1 0x0 PUSH2 0x100 EXP DUP2 SLOAD DUP2 PUSH1 0xFF MUL NOT AND SWAP1 DUP4 ISZERO ISZERO MUL OR SWAP1 SSTORE POP DUP1 DUP1 PUSH2 0x171A SWAP1 PUSH2 0x2242 JUMP JUMPDEST SWAP2 POP POP PUSH2 0x1683 JUMP JUMPDEST POP POP POP JUMP JUMPDEST PUSH1 0x0 DUP1 SLOAD SWAP1 PUSH2 0x100 EXP SWAP1 DIV PUSH20 0xFFFFFFFFFFFFFFFFFFFFFFFFFFFFFFFFFFFFFFFF AND PUSH20 0xFFFFFFFFFFFFFFFFFFFFFFFFFFFFFFFFFFFFFFFF AND CALLER PUSH20 0xFFFFFFFFFFFFFFFFFFFFFFFFFFFFFFFFFFFFFFFF AND EQ PUSH2 0x17B5 JUMPI PUSH1 0x40 MLOAD PUSH32 0x8C379A000000000000000000000000000000000000000000000000000000000 DUP2 MSTORE PUSH1 0x4 ADD PUSH2 0x17AC SWAP1 PUSH2 0x21C4 JUMP JUMPDEST PUSH1 0x40 MLOAD DUP1 SWAP2 SUB SWAP1 REVERT JUMPDEST DUP2 DUP2 PUSH1 0x3 PUSH1 0x6 ADD SWAP2 SWAP1 PUSH2 0x17C9 SWAP3 SWAP2 SWAP1 PUSH2 0x1A87 JUMP JUMPDEST POP POP POP JUMP JUMPDEST PUSH1 0x60 PUSH1 0x3 PUSH1 0x9 ADD DUP1 SLOAD PUSH2 0x17E0 SWAP1 PUSH2 0x234B JUMP JUMPDEST DUP1 PUSH1 0x1F ADD PUSH1 0x20 DUP1 SWAP2 DIV MUL PUSH1 0x20 ADD PUSH1 0x40 MLOAD SWAP1 DUP2 ADD PUSH1 0x40 MSTORE DUP1 SWAP3 SWAP2 SWAP1 DUP2 DUP2 MSTORE PUSH1 0x20 ADD DUP3 DUP1 SLOAD PUSH2 0x180C SWAP1 PUSH2 0x234B JUMP JUMPDEST DUP1 ISZERO PUSH2 0x1859 JUMPI DUP1 PUSH1 0x1F LT PUSH2 0x182E JUMPI PUSH2 0x100 DUP1 DUP4 SLOAD DIV MUL DUP4 MSTORE SWAP2 PUSH1 0x20 ADD SWAP2 PUSH2 0x1859 JUMP JUMPDEST DUP3 ADD SWAP2 SWAP1 PUSH1 0x0 MSTORE PUSH1 0x20 PUSH1 0x0 KECCAK256 SWAP1 JUMPDEST DUP2 SLOAD DUP2 MSTORE SWAP1 PUSH1 0x1 ADD SWAP1 PUSH1 0x20 ADD DUP1 DUP4 GT PUSH2 0x183C JUMPI DUP3 SWAP1 SUB PUSH1 0x1F AND DUP3 ADD SWAP2 JUMPDEST POP POP POP POP POP SWAP1 POP SWAP1 JUMP JUMPDEST PUSH1 0x0 PUSH1 0x3 PUSH1 0x0 ADD PUSH1 0x14 SWAP1 SLOAD SWAP1 PUSH2 0x100 EXP SWAP1 DIV PUSH1 0xFF AND SWAP1 POP SWAP1 JUMP JUMPDEST PUSH1 0x0 PUSH1 0x3 PUSH1 0x2 ADD PUSH1 0x0 DUP4 PUSH20 0xFFFFFFFFFFFFFFFFFFFFFFFFFFFFFFFFFFFFFFFF AND PUSH20 0xFFFFFFFFFFFFFFFFFFFFFFFFFFFFFFFFFFFFFFFF AND DUP2 MSTORE PUSH1 0x20 ADD SWAP1 DUP2 MSTORE PUSH1 0x20 ADD PUSH1 0x0 KECCAK256 PUSH1 0x0 SWAP1 SLOAD SWAP1 PUSH2 0x100 EXP SWAP1 DIV PUSH1 0xFF AND SWAP1 POP SWAP2 SWAP1 POP JUMP JUMPDEST PUSH1 0x0 PUSH1 0x3 PUSH1 0x7 ADD DUP1 SLOAD SWAP1 POP SWAP1 POP SWAP1 JUMP JUMPDEST PUSH1 0x0 PUSH1 0x3 PUSH1 0x2 ADD PUSH1 0x0 DUP4 PUSH20 0xFFFFFFFFFFFFFFFFFFFFFFFFFFFFFFFFFFFFFFFF AND PUSH20 0xFFFFFFFFFFFFFFFFFFFFFFFFFFFFFFFFFFFFFFFF AND DUP2 MSTORE PUSH1 0x20 ADD SWAP1 DUP2 MSTORE PUSH1 0x20 ADD PUSH1 0x0 KECCAK256 PUSH1 0x0 SWAP1 SLOAD SWAP1 PUSH2 0x100 EXP SWAP1 DIV PUSH1 0xFF AND SWAP1 POP SWAP2 SWAP1 POP JUMP JUMPDEST PUSH1 0x0 DUP1 SLOAD SWAP1 PUSH2 0x100 EXP SWAP1 DIV PUSH20 0xFFFFFFFFFFFFFFFFFFFFFFFFFFFFFFFFFFFFFFFF AND PUSH20 0xFFFFFFFFFFFFFFFFFFFFFFFFFFFFFFFFFFFFFFFF AND CALLER PUSH20 0xFFFFFFFFFFFFFFFFFFFFFFFFFFFFFFFFFFFFFFFF AND EQ PUSH2 0x19CD JUMPI PUSH1 0x40 MLOAD PUSH32 0x8C379A000000000000000000000000000000000000000000000000000000000 DUP2 MSTORE PUSH1 0x4 ADD PUSH2 0x19C4 SWAP1 PUSH2 0x21C4 JUMP JUMPDEST PUSH1 0x40 MLOAD DUP1 SWAP2 SUB SWAP1 REVERT JUMPDEST DUP2 DUP2 PUSH1 0x3 PUSH1 0x9 ADD SWAP2 DUP3 PUSH2 0x19E1 SWAP3 SWAP2 SWAP1 PUSH2 0x25F4 JUMP JUMPDEST POP POP POP JUMP JUMPDEST PUSH1 0x60 PUSH1 0x3 PUSH1 0x8 ADD DUP1 SLOAD DUP1 PUSH1 0x20 MUL PUSH1 0x20 ADD PUSH1 0x40 MLOAD SWAP1 DUP2 ADD PUSH1 0x40 MSTORE DUP1 SWAP3 SWAP2 SWAP1 DUP2 DUP2 MSTORE PUSH1 0x20 ADD DUP3 DUP1 SLOAD DUP1 ISZERO PUSH2 0x1A6D JUMPI PUSH1 0x20 MUL DUP3 ADD SWAP2 SWAP1 PUSH1 0x0 MSTORE PUSH1 0x20 PUSH1 0x0 KECCAK256 SWAP1 JUMPDEST DUP2 PUSH1 0x0 SWAP1 SLOAD SWAP1 PUSH2 0x100 EXP SWAP1 DIV PUSH20 0xFFFFFFFFFFFFFFFFFFFFFFFFFFFFFFFFFFFFFFFF AND PUSH20 0xFFFFFFFFFFFFFFFFFFFFFFFFFFFFFFFFFFFFFFFF AND DUP2 MSTORE PUSH1 0x20 ADD SWAP1 PUSH1 0x1 ADD SWAP1 DUP1 DUP4 GT PUSH2 0x1A23 JUMPI JUMPDEST POP POP POP POP POP SWAP1 POP SWAP1 JUMP JUMPDEST PUSH1 0x0 PUSH1 0x3 PUSH1 0x6 ADD DUP1 SLOAD SWAP1 POP SWAP1 POP SWAP1 JUMP JUMPDEST DUP3 DUP1 SLOAD DUP3 DUP3 SSTORE SWAP1 PUSH1 0x0 MSTORE PUSH1 0x20 PUSH1 0x0 KECCAK256 SWAP1 DUP2 ADD SWAP3 DUP3 ISZERO PUSH2 0x1B16 JUMPI SWAP2 PUSH1 0x20 MUL DUP3 ADD JUMPDEST DUP3 DUP2 GT ISZERO PUSH2 0x1B15 JUMPI DUP3 CALLDATALOAD PUSH20 0xFFFFFFFFFFFFFFFFFFFFFFFFFFFFFFFFFFFFFFFF AND DUP3 PUSH1 0x0 PUSH2 0x100 EXP DUP2 SLOAD DUP2 PUSH20 0xFFFFFFFFFFFFFFFFFFFFFFFFFFFFFFFFFFFFFFFF MUL NOT AND SWAP1 DUP4 PUSH20 0xFFFFFFFFFFFFFFFFFFFFFFFFFFFFFFFFFFFFFFFF AND MUL OR SWAP1 SSTORE POP SWAP2 PUSH1 0x20 ADD SWAP2 SWAP1 PUSH1 0x1 ADD SWAP1 PUSH2 0x1AA7 JUMP JUMPDEST JUMPDEST POP SWAP1 POP PUSH2 0x1B23 SWAP2 SWAP1 PUSH2 0x1B27 JUMP JUMPDEST POP SWAP1 JUMP JUMPDEST JUMPDEST DUP1 DUP3 GT ISZERO PUSH2 0x1B40 JUMPI PUSH1 0x0 DUP2 PUSH1 0x0 SWAP1 SSTORE POP PUSH1 0x1 ADD PUSH2 0x1B28 JUMP JUMPDEST POP SWAP1 JUMP JUMPDEST PUSH1 0x0 DUP1 REVERT JUMPDEST PUSH1 0x0 DUP1 REVERT JUMPDEST PUSH1 0x0 PUSH20 0xFFFFFFFFFFFFFFFFFFFFFFFFFFFFFFFFFFFFFFFF DUP3 AND SWAP1 POP SWAP2 SWAP1 POP JUMP JUMPDEST PUSH1 0x0 PUSH2 0x1B79 DUP3 PUSH2 0x1B4E JUMP JUMPDEST SWAP1 POP SWAP2 SWAP1 POP JUMP JUMPDEST PUSH2 0x1B89 DUP2 PUSH2 0x1B6E JUMP JUMPDEST DUP2 EQ PUSH2 0x1B94 JUMPI PUSH1 0x0 DUP1 REVERT JUMPDEST POP JUMP JUMPDEST PUSH1 0x0 DUP2 CALLDATALOAD SWAP1 POP PUSH2 0x1BA6 DUP2 PUSH2 0x1B80 JUMP JUMPDEST SWAP3 SWAP2 POP POP JUMP JUMPDEST PUSH1 0x0 PUSH1 0x20 DUP3 DUP5 SUB SLT ISZERO PUSH2 0x1BC2 JUMPI PUSH2 0x1BC1 PUSH2 0x1B44 JUMP JUMPDEST JUMPDEST PUSH1 0x0 PUSH2 0x1BD0 DUP5 DUP3 DUP6 ADD PUSH2 0x1B97 JUMP JUMPDEST SWAP2 POP POP SWAP3 SWAP2 POP POP JUMP JUMPDEST PUSH1 0x0 DUP2 ISZERO ISZERO SWAP1 POP SWAP2 SWAP1 POP JUMP JUMPDEST PUSH2 0x1BEE DUP2 PUSH2 0x1BD9 JUMP JUMPDEST DUP3 MSTORE POP POP JUMP JUMPDEST PUSH1 0x0 PUSH1 0x20 DUP3 ADD SWAP1 POP PUSH2 0x1C09 PUSH1 0x0 DUP4 ADD DUP5 PUSH2 0x1BE5 JUMP JUMPDEST SWAP3 SWAP2 POP POP JUMP JUMPDEST PUSH1 0x0 DUP2 SWAP1 POP SWAP2 SWAP1 POP JUMP JUMPDEST PUSH2 0x1C22 DUP2 PUSH2 0x1C0F JUMP JUMPDEST DUP2 EQ PUSH2 0x1C2D JUMPI PUSH1 0x0 DUP1 REVERT JUMPDEST POP JUMP JUMPDEST PUSH1 0x0 DUP2 CALLDATALOAD SWAP1 POP PUSH2 0x1C3F DUP2 PUSH2 0x1C19 JUMP JUMPDEST SWAP3 SWAP2 POP POP JUMP JUMPDEST PUSH1 0x0 PUSH1 0x20 DUP3 DUP5 SUB SLT ISZERO PUSH2 0x1C5B JUMPI PUSH2 0x1C5A PUSH2 0x1B44 JUMP JUMPDEST JUMPDEST PUSH1 0x0 PUSH2 0x1C69 DUP5 DUP3 DUP6 ADD PUSH2 0x1C30 JUMP JUMPDEST SWAP2 POP POP SWAP3 SWAP2 POP POP JUMP JUMPDEST PUSH1 0x0 DUP1 REVERT JUMPDEST PUSH1 0x0 DUP1 REVERT JUMPDEST PUSH1 0x0 DUP1 REVERT JUMPDEST PUSH1 0x0 DUP1 DUP4 PUSH1 0x1F DUP5 ADD SLT PUSH2 0x1C97 JUMPI PUSH2 0x1C96 PUSH2 0x1C72 JUMP JUMPDEST JUMPDEST DUP3 CALLDATALOAD SWAP1 POP PUSH8 0xFFFFFFFFFFFFFFFF DUP2 GT ISZERO PUSH2 0x1CB4 JUMPI PUSH2 0x1CB3 PUSH2 0x1C77 JUMP JUMPDEST JUMPDEST PUSH1 0x20 DUP4 ADD SWAP2 POP DUP4 PUSH1 0x20 DUP3 MUL DUP4 ADD GT ISZERO PUSH2 0x1CD0 JUMPI PUSH2 0x1CCF PUSH2 0x1C7C JUMP JUMPDEST JUMPDEST SWAP3 POP SWAP3 SWAP1 POP JUMP JUMPDEST PUSH1 0x0 DUP1 PUSH1 0x20 DUP4 DUP6 SUB SLT ISZERO PUSH2 0x1CEE JUMPI PUSH2 0x1CED PUSH2 0x1B44 JUMP JUMPDEST JUMPDEST PUSH1 0x0 DUP4 ADD CALLDATALOAD PUSH8 0xFFFFFFFFFFFFFFFF DUP2 GT ISZERO PUSH2 0x1D0C JUMPI PUSH2 0x1D0B PUSH2 0x1B49 JUMP JUMPDEST JUMPDEST PUSH2 0x1D18 DUP6 DUP3 DUP7 ADD PUSH2 0x1C81 JUMP JUMPDEST SWAP3 POP SWAP3 POP POP SWAP3 POP SWAP3 SWAP1 POP JUMP JUMPDEST PUSH1 0x0 DUP2 MLOAD SWAP1 POP SWAP2 SWAP1 POP JUMP JUMPDEST PUSH1 0x0 DUP3 DUP3 MSTORE PUSH1 0x20 DUP3 ADD SWAP1 POP SWAP3 SWAP2 POP POP JUMP JUMPDEST PUSH1 0x0 DUP2 SWAP1 POP PUSH1 0x20 DUP3 ADD SWAP1 POP SWAP2 SWAP1 POP JUMP JUMPDEST PUSH2 0x1D59 DUP2 PUSH2 0x1B6E JUMP JUMPDEST DUP3 MSTORE POP POP JUMP JUMPDEST PUSH1 0x0 PUSH2 0x1D6B DUP4 DUP4 PUSH2 0x1D50 JUMP JUMPDEST PUSH1 0x20 DUP4 ADD SWAP1 POP SWAP3 SWAP2 POP POP JUMP JUMPDEST PUSH1 0x0 PUSH1 0x20 DUP3 ADD SWAP1 POP SWAP2 SWAP1 POP JUMP JUMPDEST PUSH1 0x0 PUSH2 0x1D8F DUP3 PUSH2 0x1D24 JUMP JUMPDEST PUSH2 0x1D99 DUP2 DUP6 PUSH2 0x1D2F JUMP JUMPDEST SWAP4 POP PUSH2 0x1DA4 DUP4 PUSH2 0x1D40 JUMP JUMPDEST DUP1 PUSH1 0x0 JUMPDEST DUP4 DUP2 LT ISZERO PUSH2 0x1DD5 JUMPI DUP2 MLOAD PUSH2 0x1DBC DUP9 DUP3 PUSH2 0x1D5F JUMP JUMPDEST SWAP8 POP PUSH2 0x1DC7 DUP4 PUSH2 0x1D77 JUMP JUMPDEST SWAP3 POP POP PUSH1 0x1 DUP2 ADD SWAP1 POP PUSH2 0x1DA8 JUMP JUMPDEST POP DUP6 SWAP4 POP POP POP POP SWAP3 SWAP2 POP POP JUMP JUMPDEST PUSH1 0x0 PUSH1 0x20 DUP3 ADD SWAP1 POP DUP2 DUP2 SUB PUSH1 0x0 DUP4 ADD MSTORE PUSH2 0x1DFC DUP2 DUP5 PUSH2 0x1D84 JUMP JUMPDEST SWAP1 POP SWAP3 SWAP2 POP POP JUMP JUMPDEST PUSH1 0x0 DUP1 PUSH1 0x40 DUP4 DUP6 SUB SLT ISZERO PUSH2 0x1E1B JUMPI PUSH2 0x1E1A PUSH2 0x1B44 JUMP JUMPDEST JUMPDEST PUSH1 0x0 PUSH2 0x1E29 DUP6 DUP3 DUP7 ADD PUSH2 0x1B97 JUMP JUMPDEST SWAP3 POP POP PUSH1 0x20 PUSH2 0x1E3A DUP6 DUP3 DUP7 ADD PUSH2 0x1C30 JUMP JUMPDEST SWAP2 POP POP SWAP3 POP SWAP3 SWAP1 POP JUMP JUMPDEST PUSH2 0x1E4D DUP2 PUSH2 0x1C0F JUMP JUMPDEST DUP3 MSTORE POP POP JUMP JUMPDEST PUSH1 0x0 PUSH1 0x20 DUP3 ADD SWAP1 POP PUSH2 0x1E68 PUSH1 0x0 DUP4 ADD DUP5 PUSH2 0x1E44 JUMP JUMPDEST SWAP3 SWAP2 POP POP JUMP JUMPDEST PUSH1 0x0 DUP2 MLOAD SWAP1 POP SWAP2 SWAP1 POP JUMP JUMPDEST PUSH1 0x0 DUP3 DUP3 MSTORE PUSH1 0x20 DUP3 ADD SWAP1 POP SWAP3 SWAP2 POP POP JUMP JUMPDEST PUSH1 0x0 JUMPDEST DUP4 DUP2 LT ISZERO PUSH2 0x1EA8 JUMPI DUP1 DUP3 ADD MLOAD DUP2 DUP5 ADD MSTORE PUSH1 0x20 DUP2 ADD SWAP1 POP PUSH2 0x1E8D JUMP JUMPDEST PUSH1 0x0 DUP5 DUP5 ADD MSTORE POP POP POP POP JUMP JUMPDEST PUSH1 0x0 PUSH1 0x1F NOT PUSH1 0x1F DUP4 ADD AND SWAP1 POP SWAP2 SWAP1 POP JUMP JUMPDEST PUSH1 0x0 PUSH2 0x1ED0 DUP3 PUSH2 0x1E6E JUMP JUMPDEST PUSH2 0x1EDA DUP2 DUP6 PUSH2 0x1E79 JUMP JUMPDEST SWAP4 POP PUSH2 0x1EEA DUP2 DUP6 PUSH1 0x20 DUP7 ADD PUSH2 0x1E8A JUMP JUMPDEST PUSH2 0x1EF3 DUP2 PUSH2 0x1EB4 JUMP JUMPDEST DUP5 ADD SWAP2 POP POP SWAP3 SWAP2 POP POP JUMP JUMPDEST PUSH1 0x0 PUSH1 0x20 DUP3 ADD SWAP1 POP DUP2 DUP2 SUB PUSH1 0x0 DUP4 ADD MSTORE PUSH2 0x1F18 DUP2 DUP5 PUSH2 0x1EC5 JUMP JUMPDEST SWAP1 POP SWAP3 SWAP2 POP POP JUMP JUMPDEST PUSH2 0x1F29 DUP2 PUSH2 0x1B6E JUMP JUMPDEST DUP3 MSTORE POP POP JUMP JUMPDEST PUSH1 0x0 PUSH1 0x20 DUP3 ADD SWAP1 POP PUSH2 0x1F44 PUSH1 0x0 DUP4 ADD DUP5 PUSH2 0x1F20 JUMP JUMPDEST SWAP3 SWAP2 POP POP JUMP JUMPDEST PUSH2 0x1F53 DUP2 PUSH2 0x1BD9 JUMP JUMPDEST DUP2 EQ PUSH2 0x1F5E JUMPI PUSH1 0x0 DUP1 REVERT JUMPDEST POP JUMP JUMPDEST PUSH1 0x0 DUP2 CALLDATALOAD SWAP1 POP PUSH2 0x1F70 DUP2 PUSH2 0x1F4A JUMP JUMPDEST SWAP3 SWAP2 POP POP JUMP JUMPDEST PUSH1 0x0 PUSH1 0x20 DUP3 DUP5 SUB SLT ISZERO PUSH2 0x1F8C JUMPI PUSH2 0x1F8B PUSH2 0x1B44 JUMP JUMPDEST JUMPDEST PUSH1 0x0 PUSH2 0x1F9A DUP5 DUP3 DUP6 ADD PUSH2 0x1F61 JUMP JUMPDEST SWAP2 POP POP SWAP3 SWAP2 POP POP JUMP JUMPDEST PUSH1 0x0 PUSH1 0xC0 DUP3 ADD SWAP1 POP PUSH2 0x1FB8 PUSH1 0x0 DUP4 ADD DUP10 PUSH2 0x1F20 JUMP JUMPDEST PUSH2 0x1FC5 PUSH1 0x20 DUP4 ADD DUP9 PUSH2 0x1BE5 JUMP JUMPDEST DUP2 DUP2 SUB PUSH1 0x40 DUP4 ADD MSTORE PUSH2 0x1FD7 DUP2 DUP8 PUSH2 0x1EC5 JUMP JUMPDEST SWAP1 POP DUP2 DUP2 SUB PUSH1 0x60 DUP4 ADD MSTORE PUSH2 0x1FEB DUP2 DUP7 PUSH2 0x1EC5 JUMP JUMPDEST SWAP1 POP PUSH2 0x1FFA PUSH1 0x80 DUP4 ADD DUP6 PUSH2 0x1E44 JUMP JUMPDEST DUP2 DUP2 SUB PUSH1 0xA0 DUP4 ADD MSTORE PUSH2 0x200C DUP2 DUP5 PUSH2 0x1EC5 JUMP JUMPDEST SWAP1 POP SWAP8 SWAP7 POP POP POP POP POP POP POP JUMP JUMPDEST PUSH1 0x0 DUP1 DUP4 PUSH1 0x1F DUP5 ADD SLT PUSH2 0x202F JUMPI PUSH2 0x202E PUSH2 0x1C72 JUMP JUMPDEST JUMPDEST DUP3 CALLDATALOAD SWAP1 POP PUSH8 0xFFFFFFFFFFFFFFFF DUP2 GT ISZERO PUSH2 0x204C JUMPI PUSH2 0x204B PUSH2 0x1C77 JUMP JUMPDEST JUMPDEST PUSH1 0x20 DUP4 ADD SWAP2 POP DUP4 PUSH1 0x1 DUP3 MUL DUP4 ADD GT ISZERO PUSH2 0x2068 JUMPI PUSH2 0x2067 PUSH2 0x1C7C JUMP JUMPDEST JUMPDEST SWAP3 POP SWAP3 SWAP1 POP JUMP JUMPDEST PUSH1 0x0 DUP1 PUSH1 0x20 DUP4 DUP6 SUB SLT ISZERO PUSH2 0x2086 JUMPI PUSH2 0x2085 PUSH2 0x1B44 JUMP JUMPDEST JUMPDEST PUSH1 0x0 DUP4 ADD CALLDATALOAD PUSH8 0xFFFFFFFFFFFFFFFF DUP2 GT ISZERO PUSH2 0x20A4 JUMPI PUSH2 0x20A3 PUSH2 0x1B49 JUMP JUMPDEST JUMPDEST PUSH2 0x20B0 DUP6 DUP3 DUP7 ADD PUSH2 0x2019 JUMP JUMPDEST SWAP3 POP SWAP3 POP POP SWAP3 POP SWAP3 SWAP1 POP JUMP JUMPDEST PUSH1 0x0 DUP2 MLOAD SWAP1 POP PUSH2 0x20CB DUP2 PUSH2 0x1F4A JUMP JUMPDEST SWAP3 SWAP2 POP POP JUMP JUMPDEST PUSH1 0x0 PUSH1 0x20 DUP3 DUP5 SUB SLT ISZERO PUSH2 0x20E7 JUMPI PUSH2 0x20E6 PUSH2 0x1B44 JUMP JUMPDEST JUMPDEST PUSH1 0x0 PUSH2 0x20F5 DUP5 DUP3 DUP6 ADD PUSH2 0x20BC JUMP JUMPDEST SWAP2 POP POP SWAP3 SWAP2 POP POP JUMP JUMPDEST PUSH32 0x5072656465636573736F72000000000000000000000000000000000000000000 PUSH1 0x0 DUP3 ADD MSTORE POP JUMP JUMPDEST PUSH1 0x0 PUSH2 0x2134 PUSH1 0xB DUP4 PUSH2 0x1E79 JUMP JUMPDEST SWAP2 POP PUSH2 0x213F DUP3 PUSH2 0x20FE JUMP JUMPDEST PUSH1 0x20 DUP3 ADD SWAP1 POP SWAP2 SWAP1 POP JUMP JUMPDEST PUSH1 0x0 PUSH1 0x40 DUP3 ADD SWAP1 POP DUP2 DUP2 SUB PUSH1 0x0 DUP4 ADD MSTORE PUSH2 0x2163 DUP2 PUSH2 0x2127 JUMP JUMPDEST SWAP1 POP PUSH2 0x2172 PUSH1 0x20 DUP4 ADD DUP5 PUSH2 0x1BE5 JUMP JUMPDEST SWAP3 SWAP2 POP POP JUMP JUMPDEST PUSH32 0x63616C6C6572206D757374206265206F776E6572000000000000000000000000 PUSH1 0x0 DUP3 ADD MSTORE POP JUMP JUMPDEST PUSH1 0x0 PUSH2 0x21AE PUSH1 0x14 DUP4 PUSH2 0x1E79 JUMP JUMPDEST SWAP2 POP PUSH2 0x21B9 DUP3 PUSH2 0x2178 JUMP JUMPDEST PUSH1 0x20 DUP3 ADD SWAP1 POP SWAP2 SWAP1 POP JUMP JUMPDEST PUSH1 0x0 PUSH1 0x20 DUP3 ADD SWAP1 POP DUP2 DUP2 SUB PUSH1 0x0 DUP4 ADD MSTORE PUSH2 0x21DD DUP2 PUSH2 0x21A1 JUMP JUMPDEST SWAP1 POP SWAP2 SWAP1 POP JUMP JUMPDEST PUSH32 0x4E487B7100000000000000000000000000000000000000000000000000000000 PUSH1 0x0 MSTORE PUSH1 0x32 PUSH1 0x4 MSTORE PUSH1 0x24 PUSH1 0x0 REVERT JUMPDEST PUSH32 0x4E487B7100000000000000000000000000000000000000000000000000000000 PUSH1 0x0 MSTORE PUSH1 0x11 PUSH1 0x4 MSTORE PUSH1 0x24 PUSH1 0x0 REVERT JUMPDEST PUSH1 0x0 PUSH2 0x224D DUP3 PUSH2 0x1C0F JUMP JUMPDEST SWAP2 POP PUSH32 0xFFFFFFFFFFFFFFFFFFFFFFFFFFFFFFFFFFFFFFFFFFFFFFFFFFFFFFFFFFFFFFFF DUP3 SUB PUSH2 0x227F JUMPI PUSH2 0x227E PUSH2 0x2213 JUMP JUMPDEST JUMPDEST PUSH1 0x1 DUP3 ADD SWAP1 POP SWAP2 SWAP1 POP JUMP JUMPDEST PUSH32 0x526571756573746F72206973206E6F7420612063616E64696461746520666F72 PUSH1 0x0 DUP3 ADD MSTORE PUSH32 0x20737563636573736F72736869702E0000000000000000000000000000000000 PUSH1 0x20 DUP3 ADD MSTORE POP JUMP JUMPDEST PUSH1 0x0 PUSH2 0x22E6 PUSH1 0x2F DUP4 PUSH2 0x1E79 JUMP JUMPDEST SWAP2 POP PUSH2 0x22F1 DUP3 PUSH2 0x228A JUMP JUMPDEST PUSH1 0x40 DUP3 ADD SWAP1 POP SWAP2 SWAP1 POP JUMP JUMPDEST PUSH1 0x0 PUSH1 0x20 DUP3 ADD SWAP1 POP DUP2 DUP2 SUB PUSH1 0x0 DUP4 ADD MSTORE PUSH2 0x2315 DUP2 PUSH2 0x22D9 JUMP JUMPDEST SWAP1 POP SWAP2 SWAP1 POP JUMP JUMPDEST PUSH32 0x4E487B7100000000000000000000000000000000000000000000000000000000 PUSH1 0x0 MSTORE PUSH1 0x22 PUSH1 0x4 MSTORE PUSH1 0x24 PUSH1 0x0 REVERT JUMPDEST PUSH1 0x0 PUSH1 0x2 DUP3 DIV SWAP1 POP PUSH1 0x1 DUP3 AND DUP1 PUSH2 0x2363 JUMPI PUSH1 0x7F DUP3 AND SWAP2 POP JUMPDEST PUSH1 0x20 DUP3 LT DUP2 SUB PUSH2 0x2376 JUMPI PUSH2 0x2375 PUSH2 0x231C JUMP JUMPDEST JUMPDEST POP SWAP2 SWAP1 POP JUMP JUMPDEST PUSH32 0x526571756573746F72206973206E6F7420612063616E64696461746520666F72 PUSH1 0x0 DUP3 ADD MSTORE PUSH32 0x207072656465636573736F72736869702E000000000000000000000000000000 PUSH1 0x20 DUP3 ADD MSTORE POP JUMP JUMPDEST PUSH1 0x0 PUSH2 0x23D8 PUSH1 0x31 DUP4 PUSH2 0x1E79 JUMP JUMPDEST SWAP2 POP PUSH2 0x23E3 DUP3 PUSH2 0x237C JUMP JUMPDEST PUSH1 0x40 DUP3 ADD SWAP1 POP SWAP2 SWAP1 POP JUMP JUMPDEST PUSH1 0x0 PUSH1 0x20 DUP3 ADD SWAP1 POP DUP2 DUP2 SUB PUSH1 0x0 DUP4 ADD MSTORE PUSH2 0x2407 DUP2 PUSH2 0x23CB JUMP JUMPDEST SWAP1 POP SWAP2 SWAP1 POP JUMP JUMPDEST PUSH1 0x0 DUP3 SWAP1 POP SWAP3 SWAP2 POP POP JUMP JUMPDEST PUSH32 0x4E487B7100000000000000000000000000000000000000000000000000000000 PUSH1 0x0 MSTORE PUSH1 0x41 PUSH1 0x4 MSTORE PUSH1 0x24 PUSH1 0x0 REVERT JUMPDEST PUSH1 0x0 DUP2 SWAP1 POP DUP2 PUSH1 0x0 MSTORE PUSH1 0x20 PUSH1 0x0 KECCAK256 SWAP1 POP SWAP2 SWAP1 POP JUMP JUMPDEST PUSH1 0x0 PUSH1 0x20 PUSH1 0x1F DUP4 ADD DIV SWAP1 POP SWAP2 SWAP1 POP JUMP JUMPDEST PUSH1 0x0 DUP3 DUP3 SHL SWAP1 POP SWAP3 SWAP2 POP POP JUMP JUMPDEST PUSH1 0x0 PUSH1 0x8 DUP4 MUL PUSH2 0x24AA PUSH32 0xFFFFFFFFFFFFFFFFFFFFFFFFFFFFFFFFFFFFFFFFFFFFFFFFFFFFFFFFFFFFFFFF DUP3 PUSH2 0x246D JUMP JUMPDEST PUSH2 0x24B4 DUP7 DUP4 PUSH2 0x246D JUMP JUMPDEST SWAP6 POP DUP1 NOT DUP5 AND SWAP4 POP DUP1 DUP7 AND DUP5 OR SWAP3 POP POP POP SWAP4 SWAP3 POP POP POP JUMP JUMPDEST PUSH1 0x0 DUP2 SWAP1 POP SWAP2 SWAP1 POP JUMP JUMPDEST PUSH1 0x0 PUSH2 0x24F1 PUSH2 0x24EC PUSH2 0x24E7 DUP5 PUSH2 0x1C0F JUMP JUMPDEST PUSH2 0x24CC JUMP JUMPDEST PUSH2 0x1C0F JUMP JUMPDEST SWAP1 POP SWAP2 SWAP1 POP JUMP JUMPDEST PUSH1 0x0 DUP2 SWAP1 POP SWAP2 SWAP1 POP JUMP JUMPDEST PUSH2 0x250B DUP4 PUSH2 0x24D6 JUMP JUMPDEST PUSH2 0x251F PUSH2 0x2517 DUP3 PUSH2 0x24F8 JUMP JUMPDEST DUP5 DUP5 SLOAD PUSH2 0x247A JUMP JUMPDEST DUP3 SSTORE POP POP POP POP JUMP JUMPDEST PUSH1 0x0 SWAP1 JUMP JUMPDEST PUSH2 0x2534 PUSH2 0x2527 JUMP JUMPDEST PUSH2 0x253F DUP2 DUP5 DUP5 PUSH2 0x2502 JUMP JUMPDEST POP POP POP JUMP JUMPDEST JUMPDEST DUP2 DUP2 LT ISZERO PUSH2 0x2563 JUMPI PUSH2 0x2558 PUSH1 0x0 DUP3 PUSH2 0x252C JUMP JUMPDEST PUSH1 0x1 DUP2 ADD SWAP1 POP PUSH2 0x2545 JUMP JUMPDEST POP POP JUMP JUMPDEST PUSH1 0x1F DUP3 GT ISZERO PUSH2 0x25A8 JUMPI PUSH2 0x2579 DUP2 PUSH2 0x2448 JUMP JUMPDEST PUSH2 0x2582 DUP5 PUSH2 0x245D JUMP JUMPDEST DUP2 ADD PUSH1 0x20 DUP6 LT ISZERO PUSH2 0x2591 JUMPI DUP2 SWAP1 POP JUMPDEST PUSH2 0x25A5 PUSH2 0x259D DUP6 PUSH2 0x245D JUMP JUMPDEST DUP4 ADD DUP3 PUSH2 0x2544 JUMP JUMPDEST POP POP JUMPDEST POP POP POP JUMP JUMPDEST PUSH1 0x0 DUP3 DUP3 SHR SWAP1 POP SWAP3 SWAP2 POP POP JUMP JUMPDEST PUSH1 0x0 PUSH2 0x25CB PUSH1 0x0 NOT DUP5 PUSH1 0x8 MUL PUSH2 0x25AD JUMP JUMPDEST NOT DUP1 DUP4 AND SWAP2 POP POP SWAP3 SWAP2 POP POP JUMP JUMPDEST PUSH1 0x0 PUSH2 0x25E4 DUP4 DUP4 PUSH2 0x25BA JUMP JUMPDEST SWAP2 POP DUP3 PUSH1 0x2 MUL DUP3 OR SWAP1 POP SWAP3 SWAP2 POP POP JUMP JUMPDEST PUSH2 0x25FE DUP4 DUP4 PUSH2 0x240E JUMP JUMPDEST PUSH8 0xFFFFFFFFFFFFFFFF DUP2 GT ISZERO PUSH2 0x2617 JUMPI PUSH2 0x2616 PUSH2 0x2419 JUMP JUMPDEST JUMPDEST PUSH2 0x2621 DUP3 SLOAD PUSH2 0x234B JUMP JUMPDEST PUSH2 0x262C DUP3 DUP3 DUP6 PUSH2 0x2567 JUMP JUMPDEST PUSH1 0x0 PUSH1 0x1F DUP4 GT PUSH1 0x1 DUP2 EQ PUSH2 0x265B JUMPI PUSH1 0x0 DUP5 ISZERO PUSH2 0x2649 JUMPI DUP3 DUP8 ADD CALLDATALOAD SWAP1 POP JUMPDEST PUSH2 0x2653 DUP6 DUP3 PUSH2 0x25D8 JUMP JUMPDEST DUP7 SSTORE POP PUSH2 0x26BB JUMP JUMPDEST PUSH1 0x1F NOT DUP5 AND PUSH2 0x2669 DUP7 PUSH2 0x2448 JUMP JUMPDEST PUSH1 0x0 JUMPDEST DUP3 DUP2 LT ISZERO PUSH2 0x2691 JUMPI DUP5 DUP10 ADD CALLDATALOAD DUP3 SSTORE PUSH1 0x1 DUP3 ADD SWAP2 POP PUSH1 0x20 DUP6 ADD SWAP5 POP PUSH1 0x20 DUP2 ADD SWAP1 POP PUSH2 0x266C JUMP JUMPDEST DUP7 DUP4 LT ISZERO PUSH2 0x26AE JUMPI DUP5 DUP10 ADD CALLDATALOAD PUSH2 0x26AA PUSH1 0x1F DUP10 AND DUP3 PUSH2 0x25BA JUMP JUMPDEST DUP4 SSTORE POP JUMPDEST PUSH1 0x1 PUSH1 0x2 DUP9 MUL ADD DUP9 SSTORE POP POP POP JUMPDEST POP POP POP POP POP POP POP JUMP JUMPDEST PUSH32 0x537563636573736F720000000000000000000000000000000000000000000000 PUSH1 0x0 DUP3 ADD MSTORE POP JUMP JUMPDEST PUSH1 0x0 PUSH2 0x26FA PUSH1 0x9 DUP4 PUSH2 0x1E79 JUMP JUMPDEST SWAP2 POP PUSH2 0x2705 DUP3 PUSH2 0x26C4 JUMP JUMPDEST PUSH1 0x20 DUP3 ADD SWAP1 POP SWAP2 SWAP1 POP JUMP JUMPDEST PUSH1 0x0 PUSH1 0x40 DUP3 ADD SWAP1 POP DUP2 DUP2 SUB PUSH1 0x0 DUP4 ADD MSTORE PUSH2 0x2729 DUP2 PUSH2 0x26ED JUMP JUMPDEST SWAP1 POP PUSH2 0x2738 PUSH1 0x20 DUP4 ADD DUP5 PUSH2 0x1BE5 JUMP JUMPDEST SWAP3 SWAP2 POP POP JUMP INVALID LOG2 PUSH5 0x6970667358 0x22 SLT KECCAK256 PUSH4 0xDB0FB8D6 MULMOD 0xF7 0x2D INVALID 0xC6 0x21 0xB0 0xA9 0xCB 0xC4 MLOAD 0xBF 0xC1 CALLCODE 0xB2 DIV PUSH12 0xCCD7609B6A3D0A2780886473 PUSH16 0x6C634300081200330000000000000000 "
				},
				"gasEstimates": {
					"creation": {
						"codeDepositCost": "2020000",
						"executionCost": "infinite",
						"totalCost": "infinite"
					},
					"external": {
						"Accept_PredecessorCandidate()": "75401",
						"Accept_SuccessorCandidate()": "75468",
						"ChangeOwnership(address)": "26935",
						"Do_Handshake_To_Predecessor(address)": "infinite",
						"Do_Handshake_To_Successor(address)": "infinite",
						"Get_CarbonFootprint()": "2554",
						"Get_IpfsAddress()": "infinite",
						"Get_IsValue()": "2602",
						"Get_LabelIDs()": "infinite",
						"Get_Name()": "infinite",
						"Get_Owner()": "2596",
						"Get_Predecessor_Count()": "2562",
						"Get_Predecessors()": "infinite",
						"Get_Successor_Count()": "2561",
						"Get_Successors()": "infinite",
						"Has_PredecessorCandidate(address)": "2978",
						"Has_SuccessorCandidate(address)": "2933",
						"Set_CarbonFootPrint(uint256)": "24762",
						"Set_IPFS(string)": "infinite",
						"Set_IsValue(bool)": "26969",
						"Set_LabelIds(address[])": "infinite",
						"Set_Name(string)": "infinite",
						"Set_PredecessorCandidateIds(address[])": "infinite",
						"Set_PredecessorIds(address[])": "infinite",
						"Set_SuccessorCandadiateIds(address[])": "infinite",
						"Set_SuccessorIds(address[])": "infinite",
						"owner()": "2579",
						"products(uint256)": "infinite",
						"userProducts(address,uint256)": "infinite"
					}
				},
				"methodIdentifiers": {
					"Accept_PredecessorCandidate()": "76efa463",
					"Accept_SuccessorCandidate()": "3fad4a37",
					"ChangeOwnership(address)": "244ded7a",
					"Do_Handshake_To_Predecessor(address)": "0373e405",
					"Do_Handshake_To_Successor(address)": "bed2aefe",
					"Get_CarbonFootprint()": "7b9f1976",
					"Get_IpfsAddress()": "c524e7f6",
					"Get_IsValue()": "caa4fbbd",
					"Get_LabelIDs()": "e6ca2977",
					"Get_Name()": "481fd6b5",
					"Get_Owner()": "55c1c478",
					"Get_Predecessor_Count()": "d03678cb",
					"Get_Predecessors()": "7d2cb98d",
					"Get_Successor_Count()": "e87ccdda",
					"Get_Successors()": "28a3d83a",
					"Has_PredecessorCandidate(address)": "cae5f950",
					"Has_SuccessorCandidate(address)": "d4f6c1ff",
					"Set_CarbonFootPrint(uint256)": "04a3f393",
					"Set_IPFS(string)": "e5ab27e3",
					"Set_IsValue(bool)": "78fb654a",
					"Set_LabelIds(address[])": "5789726a",
					"Set_Name(string)": "9155e45b",
					"Set_PredecessorCandidateIds(address[])": "08b008ff",
					"Set_PredecessorIds(address[])": "c28388fa",
					"Set_SuccessorCandadiateIds(address[])": "c172f9b8",
					"Set_SuccessorIds(address[])": "a022be05",
					"owner()": "8da5cb5b",
					"products(uint256)": "7acc0b20",
					"userProducts(address,uint256)": "3d527883"
				}
			},
			"storageLayout": {
				"storage": [
					{
						"astId": 3,
						"contract": "contracts/Product.sol:Product",
						"label": "owner",
						"offset": 0,
						"slot": "0",
						"type": "t_address"
					},
					{
						"astId": 85,
						"contract": "contracts/Product.sol:Product",
						"label": "products",
						"offset": 0,
						"slot": "1",
						"type": "t_mapping(t_uint256,t_struct(Instance)80_storage)"
					},
					{
						"astId": 90,
						"contract": "contracts/Product.sol:Product",
						"label": "userProducts",
						"offset": 0,
						"slot": "2",
						"type": "t_mapping(t_address,t_array(t_uint256)dyn_storage)"
					},
					{
						"astId": 93,
						"contract": "contracts/Product.sol:Product",
						"label": "instance",
						"offset": 0,
						"slot": "3",
						"type": "t_struct(Instance)80_storage"
					}
				],
				"types": {
					"t_address": {
						"encoding": "inplace",
						"label": "address",
						"numberOfBytes": "20"
					},
					"t_array(t_address)dyn_storage": {
						"base": "t_address",
						"encoding": "dynamic_array",
						"label": "address[]",
						"numberOfBytes": "32"
					},
					"t_array(t_uint256)dyn_storage": {
						"base": "t_uint256",
						"encoding": "dynamic_array",
						"label": "uint256[]",
						"numberOfBytes": "32"
					},
					"t_bool": {
						"encoding": "inplace",
						"label": "bool",
						"numberOfBytes": "1"
					},
					"t_mapping(t_address,t_array(t_uint256)dyn_storage)": {
						"encoding": "mapping",
						"key": "t_address",
						"label": "mapping(address => uint256[])",
						"numberOfBytes": "32",
						"value": "t_array(t_uint256)dyn_storage"
					},
					"t_mapping(t_address,t_bool)": {
						"encoding": "mapping",
						"key": "t_address",
						"label": "mapping(address => bool)",
						"numberOfBytes": "32",
						"value": "t_bool"
					},
					"t_mapping(t_uint256,t_struct(Instance)80_storage)": {
						"encoding": "mapping",
						"key": "t_uint256",
						"label": "mapping(uint256 => struct Product.Instance)",
						"numberOfBytes": "32",
						"value": "t_struct(Instance)80_storage"
					},
					"t_mapping(t_uint256,t_uint256)": {
						"encoding": "mapping",
						"key": "t_uint256",
						"label": "mapping(uint256 => uint256)",
						"numberOfBytes": "32",
						"value": "t_uint256"
					},
					"t_string_storage": {
						"encoding": "bytes",
						"label": "string",
						"numberOfBytes": "32"
					},
					"t_struct(Instance)80_storage": {
						"encoding": "inplace",
						"label": "struct Product.Instance",
						"members": [
							{
								"astId": 44,
								"contract": "contracts/Product.sol:Product",
								"label": "Owner",
								"offset": 0,
								"slot": "0",
								"type": "t_address"
							},
							{
								"astId": 46,
								"contract": "contracts/Product.sol:Product",
								"label": "IsValue",
								"offset": 20,
								"slot": "0",
								"type": "t_bool"
							},
							{
								"astId": 48,
								"contract": "contracts/Product.sol:Product",
								"label": "Name",
								"offset": 0,
								"slot": "1",
								"type": "t_string_storage"
							},
							{
								"astId": 52,
								"contract": "contracts/Product.sol:Product",
								"label": "SuccessorIdIsHandshakeCandidate",
								"offset": 0,
								"slot": "2",
								"type": "t_mapping(t_address,t_bool)"
							},
							{
								"astId": 56,
								"contract": "contracts/Product.sol:Product",
								"label": "PredecessorIdIsHandshakeCandidate",
								"offset": 0,
								"slot": "3",
								"type": "t_mapping(t_address,t_bool)"
							},
							{
								"astId": 60,
								"contract": "contracts/Product.sol:Product",
								"label": "SuccessorIdToArrayIndex",
								"offset": 0,
								"slot": "4",
								"type": "t_mapping(t_uint256,t_uint256)"
							},
							{
								"astId": 64,
								"contract": "contracts/Product.sol:Product",
								"label": "PredecessorIdToArrayIndex",
								"offset": 0,
								"slot": "5",
								"type": "t_mapping(t_uint256,t_uint256)"
							},
							{
								"astId": 67,
								"contract": "contracts/Product.sol:Product",
								"label": "SuccessorIds",
								"offset": 0,
								"slot": "6",
								"type": "t_array(t_address)dyn_storage"
							},
							{
								"astId": 70,
								"contract": "contracts/Product.sol:Product",
								"label": "PredecessorIds",
								"offset": 0,
								"slot": "7",
								"type": "t_array(t_address)dyn_storage"
							},
							{
								"astId": 73,
								"contract": "contracts/Product.sol:Product",
								"label": "LabelIds",
								"offset": 0,
								"slot": "8",
								"type": "t_array(t_address)dyn_storage"
							},
							{
								"astId": 75,
								"contract": "contracts/Product.sol:Product",
								"label": "Ipfs_Address",
								"offset": 0,
								"slot": "9",
								"type": "t_string_storage"
							},
							{
								"astId": 77,
								"contract": "contracts/Product.sol:Product",
								"label": "CarbonFootprint",
								"offset": 0,
								"slot": "10",
								"type": "t_uint256"
							},
							{
								"astId": 79,
								"contract": "contracts/Product.sol:Product",
								"label": "Swarm_storage_address",
								"offset": 0,
								"slot": "11",
								"type": "t_string_storage"
							}
						],
						"numberOfBytes": "384"
					},
					"t_uint256": {
						"encoding": "inplace",
						"label": "uint256",
						"numberOfBytes": "32"
					}
				}
			},
			"userdoc": {
				"kind": "user",
				"methods": {},
				"version": 1
			}
		}
	}
}