{
	"contracts/Handshaker.sol": {
		"Handshaker": {
			"abi": [
				{
					"inputs": [
						{
							"internalType": "enum relation",
							"name": "r",
							"type": "uint8"
						}
					],
					"name": "Accept_Candidate",
					"outputs": [],
					"stateMutability": "nonpayable",
					"type": "function"
				},
				{
					"inputs": [
						{
							"internalType": "address",
							"name": "",
							"type": "address"
						}
					],
					"name": "Candidates",
					"outputs": [
						{
							"internalType": "enum relation",
							"name": "",
							"type": "uint8"
						}
					],
					"stateMutability": "view",
					"type": "function"
				},
				{
					"inputs": [
						{
							"internalType": "address",
							"name": "newOwner",
							"type": "address"
						}
					],
					"name": "ChangeOwnership",
					"outputs": [],
					"stateMutability": "nonpayable",
					"type": "function"
				},
				{
					"inputs": [
						{
							"internalType": "enum relation",
							"name": "r",
							"type": "uint8"
						},
						{
							"internalType": "uint256",
							"name": "index",
							"type": "uint256"
						}
					],
					"name": "Delete_Id",
					"outputs": [],
					"stateMutability": "nonpayable",
					"type": "function"
				},
				{
					"inputs": [
						{
							"internalType": "address",
							"name": "Address",
							"type": "address"
						},
						{
							"internalType": "enum relation",
							"name": "r",
							"type": "uint8"
						}
					],
					"name": "Do_Handshake",
					"outputs": [
						{
							"internalType": "bool",
							"name": "",
							"type": "bool"
						}
					],
					"stateMutability": "nonpayable",
					"type": "function"
				},
				{
					"inputs": [
						{
							"internalType": "enum relation",
							"name": "r",
							"type": "uint8"
						}
					],
					"name": "Get_Ids",
					"outputs": [
						{
							"internalType": "address[]",
							"name": "",
							"type": "address[]"
						}
					],
					"stateMutability": "view",
					"type": "function"
				},
				{
					"inputs": [],
					"name": "Get_Owner",
					"outputs": [
						{
							"internalType": "address",
							"name": "owner",
							"type": "address"
						}
					],
					"stateMutability": "view",
					"type": "function"
				},
				{
					"inputs": [
						{
							"internalType": "address",
							"name": "candidateAddress",
							"type": "address"
						},
						{
							"internalType": "enum relation",
							"name": "r",
							"type": "uint8"
						}
					],
					"name": "Has_Candidate",
					"outputs": [
						{
							"internalType": "bool",
							"name": "",
							"type": "bool"
						}
					],
					"stateMutability": "view",
					"type": "function"
				},
				{
					"inputs": [
						{
							"internalType": "enum relation",
							"name": "",
							"type": "uint8"
						},
						{
							"internalType": "uint256",
							"name": "",
							"type": "uint256"
						}
					],
					"name": "Ids",
					"outputs": [
						{
							"internalType": "address",
							"name": "",
							"type": "address"
						}
					],
					"stateMutability": "view",
					"type": "function"
				},
				{
					"inputs": [],
					"name": "owner",
					"outputs": [
						{
							"internalType": "address",
							"name": "",
							"type": "address"
						}
					],
					"stateMutability": "view",
					"type": "function"
				},
				{
					"inputs": [
						{
							"internalType": "enum relation",
							"name": "r",
							"type": "uint8"
						}
					],
					"name": "reverseRelation",
					"outputs": [
						{
							"internalType": "enum relation",
							"name": "",
							"type": "uint8"
						}
					],
					"stateMutability": "pure",
					"type": "function"
				}
			],
			"devdoc": {
				"kind": "dev",
				"methods": {},
				"version": 1
			},
			"evm": {
				"assembly": "    /* \"contracts/Handshaker.sol\":158:1788  contract Handshaker is Ownable{... */\n  mstore(0x40, 0x80)\n  callvalue\n  dup1\n  iszero\n  tag_1\n  jumpi\n  0x00\n  dup1\n  revert\ntag_1:\n  pop\n    /* \"contracts/Ownable.sol\":159:169  msg.sender */\n  caller\n    /* \"contracts/Ownable.sol\":151:156  owner */\n  0x00\n  dup1\n    /* \"contracts/Ownable.sol\":151:169  owner = msg.sender */\n  0x0100\n  exp\n  dup2\n  sload\n  dup2\n  0xffffffffffffffffffffffffffffffffffffffff\n  mul\n  not\n  and\n  swap1\n  dup4\n  0xffffffffffffffffffffffffffffffffffffffff\n  and\n  mul\n  or\n  swap1\n  sstore\n  pop\n    /* \"contracts/Handshaker.sol\":158:1788  contract Handshaker is Ownable{... */\n  dataSize(sub_0)\n  dup1\n  dataOffset(sub_0)\n  0x00\n  codecopy\n  0x00\n  return\nstop\n\nsub_0: assembly {\n        /* \"contracts/Handshaker.sol\":158:1788  contract Handshaker is Ownable{... */\n      mstore(0x40, 0x80)\n      callvalue\n      dup1\n      iszero\n      tag_1\n      jumpi\n      0x00\n      dup1\n      revert\n    tag_1:\n      pop\n      jumpi(tag_2, lt(calldatasize, 0x04))\n      shr(0xe0, calldataload(0x00))\n      dup1\n      0x8da5cb5b\n      gt\n      tag_14\n      jumpi\n      dup1\n      0x8da5cb5b\n      eq\n      tag_8\n      jumpi\n      dup1\n      0x9407921c\n      eq\n      tag_9\n      jumpi\n      dup1\n      0xca9d2c6b\n      eq\n      tag_10\n      jumpi\n      dup1\n      0xde802761\n      eq\n      tag_11\n      jumpi\n      dup1\n      0xf39f05f7\n      eq\n      tag_12\n      jumpi\n      dup1\n      0xfc107720\n      eq\n      tag_13\n      jumpi\n      jump(tag_2)\n    tag_14:\n      dup1\n      0x0fbdd521\n      eq\n      tag_3\n      jumpi\n      dup1\n      0x101d4fb9\n      eq\n      tag_4\n      jumpi\n      dup1\n      0x244ded7a\n      eq\n      tag_5\n      jumpi\n      dup1\n      0x55c1c478\n      eq\n      tag_6\n      jumpi\n      dup1\n      0x5f891d98\n      eq\n      tag_7\n      jumpi\n    tag_2:\n      0x00\n      dup1\n      revert\n        /* \"contracts/Handshaker.sol\":1234:1664  function Do_Handshake(address Address, relation r) public returns(bool){... */\n    tag_3:\n      tag_15\n      0x04\n      dup1\n      calldatasize\n      sub\n      dup2\n      add\n      swap1\n      tag_16\n      swap2\n      swap1\n      tag_17\n      jump\t// in\n    tag_16:\n      tag_18\n      jump\t// in\n    tag_15:\n      mload(0x40)\n      tag_19\n      swap2\n      swap1\n      tag_20\n      jump\t// in\n    tag_19:\n      mload(0x40)\n      dup1\n      swap2\n      sub\n      swap1\n      return\n        /* \"contracts/Handshaker.sol\":833:976  function Has_Candidate(address candidateAddress, relation r) public view returns(bool){... */\n    tag_4:\n      tag_21\n      0x04\n      dup1\n      calldatasize\n      sub\n      dup2\n      add\n      swap1\n      tag_22\n      swap2\n      swap1\n      tag_17\n      jump\t// in\n    tag_22:\n      tag_23\n      jump\t// in\n    tag_21:\n      mload(0x40)\n      tag_24\n      swap2\n      swap1\n      tag_20\n      jump\t// in\n    tag_24:\n      mload(0x40)\n      dup1\n      swap2\n      sub\n      swap1\n      return\n        /* \"contracts/Ownable.sol\":295:390  function ChangeOwnership(address newOwner) public  onlyOwner{... */\n    tag_5:\n      tag_25\n      0x04\n      dup1\n      calldatasize\n      sub\n      dup2\n      add\n      swap1\n      tag_26\n      swap2\n      swap1\n      tag_27\n      jump\t// in\n    tag_26:\n      tag_28\n      jump\t// in\n    tag_25:\n      stop\n        /* \"contracts/Handshaker.sol\":613:699  function Get_Owner() external view returns(address owner){... */\n    tag_6:\n      tag_29\n      tag_30\n      jump\t// in\n    tag_29:\n      mload(0x40)\n      tag_31\n      swap2\n      swap1\n      tag_32\n      jump\t// in\n    tag_31:\n      mload(0x40)\n      dup1\n      swap2\n      sub\n      swap1\n      return\n        /* \"contracts/Handshaker.sol\":1670:1757  function Delete_Id(relation r, uint index) public {... */\n    tag_7:\n      tag_33\n      0x04\n      dup1\n      calldatasize\n      sub\n      dup2\n      add\n      swap1\n      tag_34\n      swap2\n      swap1\n      tag_35\n      jump\t// in\n    tag_34:\n      tag_36\n      jump\t// in\n    tag_33:\n      stop\n        /* \"contracts/Ownable.sol\":97:117  address public owner */\n    tag_8:\n      tag_37\n      tag_38\n      jump\t// in\n    tag_37:\n      mload(0x40)\n      tag_39\n      swap2\n      swap1\n      tag_32\n      jump\t// in\n    tag_39:\n      mload(0x40)\n      dup1\n      swap2\n      sub\n      swap1\n      return\n        /* \"contracts/Handshaker.sol\":705:803  function Get_Ids(relation r) external view returns(address[] memory){... */\n    tag_9:\n      tag_40\n      0x04\n      dup1\n      calldatasize\n      sub\n      dup2\n      add\n      swap1\n      tag_41\n      swap2\n      swap1\n      tag_42\n      jump\t// in\n    tag_41:\n      tag_43\n      jump\t// in\n    tag_40:\n      mload(0x40)\n      tag_44\n      swap2\n      swap1\n      tag_45\n      jump\t// in\n    tag_44:\n      mload(0x40)\n      dup1\n      swap2\n      sub\n      swap1\n      return\n        /* \"contracts/Handshaker.sol\":195:478  function reverseRelation(relation r) public pure returns(relation){... */\n    tag_10:\n      tag_46\n      0x04\n      dup1\n      calldatasize\n      sub\n      dup2\n      add\n      swap1\n      tag_47\n      swap2\n      swap1\n      tag_42\n      jump\t// in\n    tag_47:\n      tag_48\n      jump\t// in\n    tag_46:\n      mload(0x40)\n      tag_49\n      swap2\n      swap1\n      tag_50\n      jump\t// in\n    tag_49:\n      mload(0x40)\n      dup1\n      swap2\n      sub\n      swap1\n      return\n        /* \"contracts/Handshaker.sol\":560:601  mapping(relation => address[]) public Ids */\n    tag_11:\n      tag_51\n      0x04\n      dup1\n      calldatasize\n      sub\n      dup2\n      add\n      swap1\n      tag_52\n      swap2\n      swap1\n      tag_35\n      jump\t// in\n    tag_52:\n      tag_53\n      jump\t// in\n    tag_51:\n      mload(0x40)\n      tag_54\n      swap2\n      swap1\n      tag_32\n      jump\t// in\n    tag_54:\n      mload(0x40)\n      dup1\n      swap2\n      sub\n      swap1\n      return\n        /* \"contracts/Handshaker.sol\":508:554  mapping(address => relation) public Candidates */\n    tag_12:\n      tag_55\n      0x04\n      dup1\n      calldatasize\n      sub\n      dup2\n      add\n      swap1\n      tag_56\n      swap2\n      swap1\n      tag_27\n      jump\t// in\n    tag_56:\n      tag_57\n      jump\t// in\n    tag_55:\n      mload(0x40)\n      tag_58\n      swap2\n      swap1\n      tag_50\n      jump\t// in\n    tag_58:\n      mload(0x40)\n      dup1\n      swap2\n      sub\n      swap1\n      return\n        /* \"contracts/Handshaker.sol\":982:1228  function Accept_Candidate(relation r) public {... */\n    tag_13:\n      tag_59\n      0x04\n      dup1\n      calldatasize\n      sub\n      dup2\n      add\n      swap1\n      tag_60\n      swap2\n      swap1\n      tag_42\n      jump\t// in\n    tag_60:\n      tag_61\n      jump\t// in\n    tag_59:\n      stop\n        /* \"contracts/Handshaker.sol\":1234:1664  function Do_Handshake(address Address, relation r) public returns(bool){... */\n    tag_18:\n        /* \"contracts/Handshaker.sol\":1300:1304  bool */\n      0x00\n        /* \"contracts/Handshaker.sol\":1315:1336  Handshaker handshaker */\n      dup1\n        /* \"contracts/Handshaker.sol\":1350:1357  Address */\n      dup4\n        /* \"contracts/Handshaker.sol\":1315:1358  Handshaker handshaker = Handshaker(Address) */\n      swap1\n      pop\n        /* \"contracts/Handshaker.sol\":1412:1430  reverseRelation(r) */\n      tag_63\n        /* \"contracts/Handshaker.sol\":1428:1429  r */\n      dup4\n        /* \"contracts/Handshaker.sol\":1412:1427  reverseRelation */\n      tag_48\n        /* \"contracts/Handshaker.sol\":1412:1430  reverseRelation(r) */\n      jump\t// in\n    tag_63:\n        /* \"contracts/Handshaker.sol\":1372:1430  handshaker.Candidates(address(this)) == reverseRelation(r) */\n      0x04\n      dup2\n      gt\n      iszero\n      tag_64\n      jumpi\n      tag_65\n      tag_66\n      jump\t// in\n    tag_65:\n    tag_64:\n        /* \"contracts/Handshaker.sol\":1372:1382  handshaker */\n      dup2\n        /* \"contracts/Handshaker.sol\":1372:1393  handshaker.Candidates */\n      0xffffffffffffffffffffffffffffffffffffffff\n      and\n      0xf39f05f7\n        /* \"contracts/Handshaker.sol\":1402:1406  this */\n      address\n        /* \"contracts/Handshaker.sol\":1372:1408  handshaker.Candidates(address(this)) */\n      mload(0x40)\n      dup3\n      0xffffffff\n      and\n      0xe0\n      shl\n      dup2\n      mstore\n      0x04\n      add\n      tag_67\n      swap2\n      swap1\n      tag_32\n      jump\t// in\n    tag_67:\n      0x20\n      mload(0x40)\n      dup1\n      dup4\n      sub\n      dup2\n      dup7\n      gas\n      staticcall\n      iszero\n      dup1\n      iszero\n      tag_69\n      jumpi\n      returndatasize\n      0x00\n      dup1\n      returndatacopy\n      revert(0x00, returndatasize)\n    tag_69:\n      pop\n      pop\n      pop\n      pop\n      mload(0x40)\n      returndatasize\n      not(0x1f)\n      0x1f\n      dup3\n      add\n      and\n      dup3\n      add\n      dup1\n      0x40\n      mstore\n      pop\n      dup2\n      add\n      swap1\n      tag_70\n      swap2\n      swap1\n      tag_71\n      jump\t// in\n    tag_70:\n        /* \"contracts/Handshaker.sol\":1372:1430  handshaker.Candidates(address(this)) == reverseRelation(r) */\n      0x04\n      dup2\n      gt\n      iszero\n      tag_72\n      jumpi\n      tag_73\n      tag_66\n      jump\t// in\n    tag_73:\n    tag_72:\n      sub\n        /* \"contracts/Handshaker.sol\":1369:1658  if(handshaker.Candidates(address(this)) == reverseRelation(r)){... */\n      tag_74\n      jumpi\n        /* \"contracts/Handshaker.sol\":1445:1448  Ids */\n      0x03\n        /* \"contracts/Handshaker.sol\":1445:1451  Ids[r] */\n      0x00\n        /* \"contracts/Handshaker.sol\":1449:1450  r */\n      dup5\n        /* \"contracts/Handshaker.sol\":1445:1451  Ids[r] */\n      0x04\n      dup2\n      gt\n      iszero\n      tag_75\n      jumpi\n      tag_76\n      tag_66\n      jump\t// in\n    tag_76:\n    tag_75:\n      0x04\n      dup2\n      gt\n      iszero\n      tag_77\n      jumpi\n      tag_78\n      tag_66\n      jump\t// in\n    tag_78:\n    tag_77:\n      dup2\n      mstore\n      0x20\n      add\n      swap1\n      dup2\n      mstore\n      0x20\n      add\n      0x00\n      keccak256\n        /* \"contracts/Handshaker.sol\":1457:1464  Address */\n      dup5\n        /* \"contracts/Handshaker.sol\":1445:1465  Ids[r].push(Address) */\n      swap1\n      dup1\n      0x01\n      dup2\n      sload\n      add\n      dup1\n      dup3\n      sstore\n      dup1\n      swap2\n      pop\n      pop\n      0x01\n      swap1\n      sub\n      swap1\n      0x00\n      mstore\n      keccak256(0x00, 0x20)\n      add\n      0x00\n      swap1\n      swap2\n      swap1\n      swap2\n      swap1\n      swap2\n      0x0100\n      exp\n      dup2\n      sload\n      dup2\n      0xffffffffffffffffffffffffffffffffffffffff\n      mul\n      not\n      and\n      swap1\n      dup4\n      0xffffffffffffffffffffffffffffffffffffffff\n      and\n      mul\n      or\n      swap1\n      sstore\n      pop\n        /* \"contracts/Handshaker.sol\":1479:1489  handshaker */\n      dup1\n        /* \"contracts/Handshaker.sol\":1479:1506  handshaker.Accept_Candidate */\n      0xffffffffffffffffffffffffffffffffffffffff\n      and\n      0xfc107720\n        /* \"contracts/Handshaker.sol\":1507:1508  r */\n      dup5\n        /* \"contracts/Handshaker.sol\":1479:1509  handshaker.Accept_Candidate(r) */\n      mload(0x40)\n      dup3\n      0xffffffff\n      and\n      0xe0\n      shl\n      dup2\n      mstore\n      0x04\n      add\n      tag_80\n      swap2\n      swap1\n      tag_50\n      jump\t// in\n    tag_80:\n      0x00\n      mload(0x40)\n      dup1\n      dup4\n      sub\n      dup2\n      0x00\n      dup8\n      dup1\n      extcodesize\n      iszero\n      dup1\n      iszero\n      tag_81\n      jumpi\n      0x00\n      dup1\n      revert\n    tag_81:\n      pop\n      gas\n      call\n      iszero\n      dup1\n      iszero\n      tag_83\n      jumpi\n      returndatasize\n      0x00\n      dup1\n      returndatacopy\n      revert(0x00, returndatasize)\n    tag_83:\n      pop\n      pop\n      pop\n      pop\n        /* \"contracts/Handshaker.sol\":1543:1547  true */\n      0x01\n        /* \"contracts/Handshaker.sol\":1536:1547  return true */\n      swap2\n      pop\n      pop\n      jump(tag_62)\n        /* \"contracts/Handshaker.sol\":1369:1658  if(handshaker.Candidates(address(this)) == reverseRelation(r)){... */\n    tag_74:\n        /* \"contracts/Handshaker.sol\":1607:1608  r */\n      dup3\n        /* \"contracts/Handshaker.sol\":1585:1595  Candidates */\n      0x02\n        /* \"contracts/Handshaker.sol\":1585:1604  Candidates[Address] */\n      0x00\n        /* \"contracts/Handshaker.sol\":1596:1603  Address */\n      dup7\n        /* \"contracts/Handshaker.sol\":1585:1604  Candidates[Address] */\n      0xffffffffffffffffffffffffffffffffffffffff\n      and\n      0xffffffffffffffffffffffffffffffffffffffff\n      and\n      dup2\n      mstore\n      0x20\n      add\n      swap1\n      dup2\n      mstore\n      0x20\n      add\n      0x00\n      keccak256\n      0x00\n        /* \"contracts/Handshaker.sol\":1585:1608  Candidates[Address] = r */\n      0x0100\n      exp\n      dup2\n      sload\n      dup2\n      0xff\n      mul\n      not\n      and\n      swap1\n      dup4\n      0x04\n      dup2\n      gt\n      iszero\n      tag_85\n      jumpi\n      tag_86\n      tag_66\n      jump\t// in\n    tag_86:\n    tag_85:\n      mul\n      or\n      swap1\n      sstore\n      pop\n        /* \"contracts/Handshaker.sol\":1642:1647  false */\n      0x00\n        /* \"contracts/Handshaker.sol\":1635:1647  return false */\n      swap2\n      pop\n      pop\n        /* \"contracts/Handshaker.sol\":1234:1664  function Do_Handshake(address Address, relation r) public returns(bool){... */\n    tag_62:\n      swap3\n      swap2\n      pop\n      pop\n      jump\t// out\n        /* \"contracts/Handshaker.sol\":833:976  function Has_Candidate(address candidateAddress, relation r) public view returns(bool){... */\n    tag_23:\n        /* \"contracts/Handshaker.sol\":914:918  bool */\n      0x00\n        /* \"contracts/Handshaker.sol\":968:969  r */\n      dup2\n        /* \"contracts/Handshaker.sol\":936:969  Candidates[candidateAddress] == r */\n      0x04\n      dup2\n      gt\n      iszero\n      tag_88\n      jumpi\n      tag_89\n      tag_66\n      jump\t// in\n    tag_89:\n    tag_88:\n        /* \"contracts/Handshaker.sol\":936:946  Candidates */\n      0x02\n        /* \"contracts/Handshaker.sol\":936:964  Candidates[candidateAddress] */\n      0x00\n        /* \"contracts/Handshaker.sol\":947:963  candidateAddress */\n      dup6\n        /* \"contracts/Handshaker.sol\":936:964  Candidates[candidateAddress] */\n      0xffffffffffffffffffffffffffffffffffffffff\n      and\n      0xffffffffffffffffffffffffffffffffffffffff\n      and\n      dup2\n      mstore\n      0x20\n      add\n      swap1\n      dup2\n      mstore\n      0x20\n      add\n      0x00\n      keccak256\n      0x00\n      swap1\n      sload\n      swap1\n      0x0100\n      exp\n      swap1\n      div\n      0xff\n      and\n        /* \"contracts/Handshaker.sol\":936:969  Candidates[candidateAddress] == r */\n      0x04\n      dup2\n      gt\n      iszero\n      tag_90\n      jumpi\n      tag_91\n      tag_66\n      jump\t// in\n    tag_91:\n    tag_90:\n      eq\n        /* \"contracts/Handshaker.sol\":929:969  return Candidates[candidateAddress] == r */\n      swap1\n      pop\n        /* \"contracts/Handshaker.sol\":833:976  function Has_Candidate(address candidateAddress, relation r) public view returns(bool){... */\n      swap3\n      swap2\n      pop\n      pop\n      jump\t// out\n        /* \"contracts/Ownable.sol\":295:390  function ChangeOwnership(address newOwner) public  onlyOwner{... */\n    tag_28:\n        /* \"contracts/Ownable.sol\":237:242  owner */\n      0x00\n      dup1\n      sload\n      swap1\n      0x0100\n      exp\n      swap1\n      div\n      0xffffffffffffffffffffffffffffffffffffffff\n      and\n        /* \"contracts/Ownable.sol\":223:242  msg.sender == owner */\n      0xffffffffffffffffffffffffffffffffffffffff\n      and\n        /* \"contracts/Ownable.sol\":223:233  msg.sender */\n      caller\n        /* \"contracts/Ownable.sol\":223:242  msg.sender == owner */\n      0xffffffffffffffffffffffffffffffffffffffff\n      and\n      eq\n        /* \"contracts/Ownable.sol\":215:267  require(msg.sender == owner, 'caller must be owner') */\n      tag_93\n      jumpi\n      mload(0x40)\n      0x08c379a000000000000000000000000000000000000000000000000000000000\n      dup2\n      mstore\n      0x04\n      add\n      tag_94\n      swap1\n      tag_95\n      jump\t// in\n    tag_94:\n      mload(0x40)\n      dup1\n      swap2\n      sub\n      swap1\n      revert\n    tag_93:\n        /* \"contracts/Ownable.sol\":374:382  newOwner */\n      dup1\n        /* \"contracts/Ownable.sol\":366:371  owner */\n      0x00\n      dup1\n        /* \"contracts/Ownable.sol\":366:382  owner = newOwner */\n      0x0100\n      exp\n      dup2\n      sload\n      dup2\n      0xffffffffffffffffffffffffffffffffffffffff\n      mul\n      not\n      and\n      swap1\n      dup4\n      0xffffffffffffffffffffffffffffffffffffffff\n      and\n      mul\n      or\n      swap1\n      sstore\n      pop\n        /* \"contracts/Ownable.sol\":295:390  function ChangeOwnership(address newOwner) public  onlyOwner{... */\n      pop\n      jump\t// out\n        /* \"contracts/Handshaker.sol\":613:699  function Get_Owner() external view returns(address owner){... */\n    tag_30:\n        /* \"contracts/Handshaker.sol\":656:669  address owner */\n      0x00\n        /* \"contracts/Handshaker.sol\":687:692  Owner */\n      0x01\n      0x00\n      swap1\n      sload\n      swap1\n      0x0100\n      exp\n      swap1\n      div\n      0xffffffffffffffffffffffffffffffffffffffff\n      and\n        /* \"contracts/Handshaker.sol\":680:692  return Owner */\n      swap1\n      pop\n        /* \"contracts/Handshaker.sol\":613:699  function Get_Owner() external view returns(address owner){... */\n      swap1\n      jump\t// out\n        /* \"contracts/Handshaker.sol\":1670:1757  function Delete_Id(relation r, uint index) public {... */\n    tag_36:\n        /* \"contracts/Handshaker.sol\":1737:1740  Ids */\n      0x03\n        /* \"contracts/Handshaker.sol\":1737:1743  Ids[r] */\n      0x00\n        /* \"contracts/Handshaker.sol\":1741:1742  r */\n      dup4\n        /* \"contracts/Handshaker.sol\":1737:1743  Ids[r] */\n      0x04\n      dup2\n      gt\n      iszero\n      tag_99\n      jumpi\n      tag_100\n      tag_66\n      jump\t// in\n    tag_100:\n    tag_99:\n      0x04\n      dup2\n      gt\n      iszero\n      tag_101\n      jumpi\n      tag_102\n      tag_66\n      jump\t// in\n    tag_102:\n    tag_101:\n      dup2\n      mstore\n      0x20\n      add\n      swap1\n      dup2\n      mstore\n      0x20\n      add\n      0x00\n      keccak256\n        /* \"contracts/Handshaker.sol\":1744:1749  index */\n      dup2\n        /* \"contracts/Handshaker.sol\":1737:1750  Ids[r][index] */\n      dup2\n      sload\n      dup2\n      lt\n      tag_103\n      jumpi\n      tag_104\n      tag_105\n      jump\t// in\n    tag_104:\n    tag_103:\n      swap1\n      0x00\n      mstore\n      keccak256(0x00, 0x20)\n      add\n      0x00\n        /* \"contracts/Handshaker.sol\":1730:1750  delete Ids[r][index] */\n      0x0100\n      exp\n      dup2\n      sload\n      swap1\n      0xffffffffffffffffffffffffffffffffffffffff\n      mul\n      not\n      and\n      swap1\n      sstore\n        /* \"contracts/Handshaker.sol\":1670:1757  function Delete_Id(relation r, uint index) public {... */\n      pop\n      pop\n      jump\t// out\n        /* \"contracts/Ownable.sol\":97:117  address public owner */\n    tag_38:\n      0x00\n      dup1\n      sload\n      swap1\n      0x0100\n      exp\n      swap1\n      div\n      0xffffffffffffffffffffffffffffffffffffffff\n      and\n      dup2\n      jump\t// out\n        /* \"contracts/Handshaker.sol\":705:803  function Get_Ids(relation r) external view returns(address[] memory){... */\n    tag_43:\n        /* \"contracts/Handshaker.sol\":756:772  address[] memory */\n      0x60\n        /* \"contracts/Handshaker.sol\":790:793  Ids */\n      0x03\n        /* \"contracts/Handshaker.sol\":790:796  Ids[r] */\n      0x00\n        /* \"contracts/Handshaker.sol\":794:795  r */\n      dup4\n        /* \"contracts/Handshaker.sol\":790:796  Ids[r] */\n      0x04\n      dup2\n      gt\n      iszero\n      tag_108\n      jumpi\n      tag_109\n      tag_66\n      jump\t// in\n    tag_109:\n    tag_108:\n      0x04\n      dup2\n      gt\n      iszero\n      tag_110\n      jumpi\n      tag_111\n      tag_66\n      jump\t// in\n    tag_111:\n    tag_110:\n      dup2\n      mstore\n      0x20\n      add\n      swap1\n      dup2\n      mstore\n      0x20\n      add\n      0x00\n      keccak256\n        /* \"contracts/Handshaker.sol\":783:796  return Ids[r] */\n      dup1\n      sload\n      dup1\n      0x20\n      mul\n      0x20\n      add\n      mload(0x40)\n      swap1\n      dup2\n      add\n      0x40\n      mstore\n      dup1\n      swap3\n      swap2\n      swap1\n      dup2\n      dup2\n      mstore\n      0x20\n      add\n      dup3\n      dup1\n      sload\n      dup1\n      iszero\n      tag_112\n      jumpi\n      0x20\n      mul\n      dup3\n      add\n      swap2\n      swap1\n      0x00\n      mstore\n      keccak256(0x00, 0x20)\n      swap1\n    tag_113:\n      dup2\n      0x00\n      swap1\n      sload\n      swap1\n      0x0100\n      exp\n      swap1\n      div\n      0xffffffffffffffffffffffffffffffffffffffff\n      and\n      0xffffffffffffffffffffffffffffffffffffffff\n      and\n      dup2\n      mstore\n      0x20\n      add\n      swap1\n      0x01\n      add\n      swap1\n      dup1\n      dup4\n      gt\n      tag_113\n      jumpi\n    tag_112:\n      pop\n      pop\n      pop\n      pop\n      pop\n      swap1\n      pop\n        /* \"contracts/Handshaker.sol\":705:803  function Get_Ids(relation r) external view returns(address[] memory){... */\n      swap2\n      swap1\n      pop\n      jump\t// out\n        /* \"contracts/Handshaker.sol\":195:478  function reverseRelation(relation r) public pure returns(relation){... */\n    tag_48:\n        /* \"contracts/Handshaker.sol\":252:260  relation */\n      0x00\n        /* \"contracts/Handshaker.sol\":271:288  uint relation_int */\n      dup1\n        /* \"contracts/Handshaker.sol\":296:297  r */\n      dup3\n        /* \"contracts/Handshaker.sol\":291:298  uint(r) */\n      0x04\n      dup2\n      gt\n      iszero\n      tag_115\n      jumpi\n      tag_116\n      tag_66\n      jump\t// in\n    tag_116:\n    tag_115:\n        /* \"contracts/Handshaker.sol\":271:298  uint relation_int = uint(r) */\n      swap1\n      pop\n        /* \"contracts/Handshaker.sol\":330:331  0 */\n      0x00\n        /* \"contracts/Handshaker.sol\":325:326  2 */\n      0x02\n        /* \"contracts/Handshaker.sol\":312:324  relation_int */\n      dup3\n        /* \"contracts/Handshaker.sol\":312:326  relation_int%2 */\n      tag_117\n      swap2\n      swap1\n      tag_118\n      jump\t// in\n    tag_117:\n        /* \"contracts/Handshaker.sol\":312:331  relation_int%2 == 0 */\n      sub\n        /* \"contracts/Handshaker.sol\":308:472  if (relation_int%2 == 0){ // if even... */\n      tag_119\n      jumpi\n        /* \"contracts/Handshaker.sol\":388:389  1 */\n      0x01\n        /* \"contracts/Handshaker.sol\":373:385  relation_int */\n      dup2\n        /* \"contracts/Handshaker.sol\":373:389  relation_int - 1 */\n      tag_120\n      swap2\n      swap1\n      tag_121\n      jump\t// in\n    tag_120:\n        /* \"contracts/Handshaker.sol\":364:390  relation(relation_int - 1) */\n      0x04\n      dup2\n      gt\n      iszero\n      tag_122\n      jumpi\n      tag_123\n      tag_66\n      jump\t// in\n    tag_123:\n    tag_122:\n        /* \"contracts/Handshaker.sol\":357:390  return relation(relation_int - 1) */\n      swap2\n      pop\n      pop\n      jump(tag_114)\n        /* \"contracts/Handshaker.sol\":308:472  if (relation_int%2 == 0){ // if even... */\n    tag_119:\n        /* \"contracts/Handshaker.sol\":459:460  1 */\n      0x01\n        /* \"contracts/Handshaker.sol\":444:456  relation_int */\n      dup2\n        /* \"contracts/Handshaker.sol\":444:460  relation_int + 1 */\n      tag_125\n      swap2\n      swap1\n      tag_126\n      jump\t// in\n    tag_125:\n        /* \"contracts/Handshaker.sol\":435:461  relation(relation_int + 1) */\n      0x04\n      dup2\n      gt\n      iszero\n      tag_127\n      jumpi\n      tag_128\n      tag_66\n      jump\t// in\n    tag_128:\n    tag_127:\n        /* \"contracts/Handshaker.sol\":428:461  return relation(relation_int + 1) */\n      swap2\n      pop\n      pop\n        /* \"contracts/Handshaker.sol\":195:478  function reverseRelation(relation r) public pure returns(relation){... */\n    tag_114:\n      swap2\n      swap1\n      pop\n      jump\t// out\n        /* \"contracts/Handshaker.sol\":560:601  mapping(relation => address[]) public Ids */\n    tag_53:\n      mstore(0x20, 0x03)\n      dup2\n      0x00\n      mstore\n      keccak256(0x00, 0x40)\n      dup2\n      dup2\n      sload\n      dup2\n      lt\n      tag_129\n      jumpi\n      0x00\n      dup1\n      revert\n    tag_129:\n      swap1\n      0x00\n      mstore\n      keccak256(0x00, 0x20)\n      add\n      0x00\n      swap2\n      pop\n      swap2\n      pop\n      swap1\n      sload\n      swap1\n      0x0100\n      exp\n      swap1\n      div\n      0xffffffffffffffffffffffffffffffffffffffff\n      and\n      dup2\n      jump\t// out\n        /* \"contracts/Handshaker.sol\":508:554  mapping(address => relation) public Candidates */\n    tag_57:\n      mstore(0x20, 0x02)\n      dup1\n      0x00\n      mstore\n      keccak256(0x00, 0x40)\n      0x00\n      swap2\n      pop\n      sload\n      swap1\n      0x0100\n      exp\n      swap1\n      div\n      0xff\n      and\n      dup2\n      jump\t// out\n        /* \"contracts/Handshaker.sol\":982:1228  function Accept_Candidate(relation r) public {... */\n    tag_61:\n        /* \"contracts/Handshaker.sol\":1071:1089  reverseRelation(r) */\n      tag_132\n        /* \"contracts/Handshaker.sol\":1087:1088  r */\n      dup2\n        /* \"contracts/Handshaker.sol\":1071:1086  reverseRelation */\n      tag_48\n        /* \"contracts/Handshaker.sol\":1071:1089  reverseRelation(r) */\n      jump\t// in\n    tag_132:\n        /* \"contracts/Handshaker.sol\":1045:1089  Candidates[msg.sender] == reverseRelation(r) */\n      0x04\n      dup2\n      gt\n      iszero\n      tag_133\n      jumpi\n      tag_134\n      tag_66\n      jump\t// in\n    tag_134:\n    tag_133:\n        /* \"contracts/Handshaker.sol\":1045:1055  Candidates */\n      0x02\n        /* \"contracts/Handshaker.sol\":1045:1067  Candidates[msg.sender] */\n      0x00\n        /* \"contracts/Handshaker.sol\":1056:1066  msg.sender */\n      caller\n        /* \"contracts/Handshaker.sol\":1045:1067  Candidates[msg.sender] */\n      0xffffffffffffffffffffffffffffffffffffffff\n      and\n      0xffffffffffffffffffffffffffffffffffffffff\n      and\n      dup2\n      mstore\n      0x20\n      add\n      swap1\n      dup2\n      mstore\n      0x20\n      add\n      0x00\n      keccak256\n      0x00\n      swap1\n      sload\n      swap1\n      0x0100\n      exp\n      swap1\n      div\n      0xff\n      and\n        /* \"contracts/Handshaker.sol\":1045:1089  Candidates[msg.sender] == reverseRelation(r) */\n      0x04\n      dup2\n      gt\n      iszero\n      tag_135\n      jumpi\n      tag_136\n      tag_66\n      jump\t// in\n    tag_136:\n    tag_135:\n      eq\n        /* \"contracts/Handshaker.sol\":1037:1123  require(Candidates[msg.sender] == reverseRelation(r), \"Requestor is not a candidate.\") */\n      tag_137\n      jumpi\n      mload(0x40)\n      0x08c379a000000000000000000000000000000000000000000000000000000000\n      dup2\n      mstore\n      0x04\n      add\n      tag_138\n      swap1\n      tag_139\n      jump\t// in\n    tag_138:\n      mload(0x40)\n      dup1\n      swap2\n      sub\n      swap1\n      revert\n    tag_137:\n        /* \"contracts/Handshaker.sol\":1158:1171  relation.NONE */\n      0x00\n        /* \"contracts/Handshaker.sol\":1133:1143  Candidates */\n      0x02\n        /* \"contracts/Handshaker.sol\":1133:1155  Candidates[msg.sender] */\n      0x00\n        /* \"contracts/Handshaker.sol\":1144:1154  msg.sender */\n      caller\n        /* \"contracts/Handshaker.sol\":1133:1155  Candidates[msg.sender] */\n      0xffffffffffffffffffffffffffffffffffffffff\n      and\n      0xffffffffffffffffffffffffffffffffffffffff\n      and\n      dup2\n      mstore\n      0x20\n      add\n      swap1\n      dup2\n      mstore\n      0x20\n      add\n      0x00\n      keccak256\n      0x00\n        /* \"contracts/Handshaker.sol\":1133:1171  Candidates[msg.sender] = relation.NONE */\n      0x0100\n      exp\n      dup2\n      sload\n      dup2\n      0xff\n      mul\n      not\n      and\n      swap1\n      dup4\n      0x04\n      dup2\n      gt\n      iszero\n      tag_140\n      jumpi\n      tag_141\n      tag_66\n      jump\t// in\n    tag_141:\n    tag_140:\n      mul\n      or\n      swap1\n      sstore\n      pop\n        /* \"contracts/Handshaker.sol\":1181:1184  Ids */\n      0x03\n        /* \"contracts/Handshaker.sol\":1181:1204  Ids[reverseRelation(r)] */\n      0x00\n        /* \"contracts/Handshaker.sol\":1185:1203  reverseRelation(r) */\n      tag_142\n        /* \"contracts/Handshaker.sol\":1201:1202  r */\n      dup4\n        /* \"contracts/Handshaker.sol\":1185:1200  reverseRelation */\n      tag_48\n        /* \"contracts/Handshaker.sol\":1185:1203  reverseRelation(r) */\n      jump\t// in\n    tag_142:\n        /* \"contracts/Handshaker.sol\":1181:1204  Ids[reverseRelation(r)] */\n      0x04\n      dup2\n      gt\n      iszero\n      tag_143\n      jumpi\n      tag_144\n      tag_66\n      jump\t// in\n    tag_144:\n    tag_143:\n      0x04\n      dup2\n      gt\n      iszero\n      tag_145\n      jumpi\n      tag_146\n      tag_66\n      jump\t// in\n    tag_146:\n    tag_145:\n      dup2\n      mstore\n      0x20\n      add\n      swap1\n      dup2\n      mstore\n      0x20\n      add\n      0x00\n      keccak256\n        /* \"contracts/Handshaker.sol\":1210:1220  msg.sender */\n      caller\n        /* \"contracts/Handshaker.sol\":1181:1221  Ids[reverseRelation(r)].push(msg.sender) */\n      swap1\n      dup1\n      0x01\n      dup2\n      sload\n      add\n      dup1\n      dup3\n      sstore\n      dup1\n      swap2\n      pop\n      pop\n      0x01\n      swap1\n      sub\n      swap1\n      0x00\n      mstore\n      keccak256(0x00, 0x20)\n      add\n      0x00\n      swap1\n      swap2\n      swap1\n      swap2\n      swap1\n      swap2\n      0x0100\n      exp\n      dup2\n      sload\n      dup2\n      0xffffffffffffffffffffffffffffffffffffffff\n      mul\n      not\n      and\n      swap1\n      dup4\n      0xffffffffffffffffffffffffffffffffffffffff\n      and\n      mul\n      or\n      swap1\n      sstore\n      pop\n        /* \"contracts/Handshaker.sol\":982:1228  function Accept_Candidate(relation r) public {... */\n      pop\n      jump\t// out\n        /* \"#utility.yul\":88:205   */\n    tag_149:\n        /* \"#utility.yul\":197:198   */\n      0x00\n        /* \"#utility.yul\":194:195   */\n      dup1\n        /* \"#utility.yul\":187:199   */\n      revert\n        /* \"#utility.yul\":334:460   */\n    tag_151:\n        /* \"#utility.yul\":371:378   */\n      0x00\n        /* \"#utility.yul\":411:453   */\n      0xffffffffffffffffffffffffffffffffffffffff\n        /* \"#utility.yul\":404:409   */\n      dup3\n        /* \"#utility.yul\":400:454   */\n      and\n        /* \"#utility.yul\":389:454   */\n      swap1\n      pop\n        /* \"#utility.yul\":334:460   */\n      swap2\n      swap1\n      pop\n      jump\t// out\n        /* \"#utility.yul\":466:562   */\n    tag_152:\n        /* \"#utility.yul\":503:510   */\n      0x00\n        /* \"#utility.yul\":532:556   */\n      tag_188\n        /* \"#utility.yul\":550:555   */\n      dup3\n        /* \"#utility.yul\":532:556   */\n      tag_151\n      jump\t// in\n    tag_188:\n        /* \"#utility.yul\":521:556   */\n      swap1\n      pop\n        /* \"#utility.yul\":466:562   */\n      swap2\n      swap1\n      pop\n      jump\t// out\n        /* \"#utility.yul\":568:690   */\n    tag_153:\n        /* \"#utility.yul\":641:665   */\n      tag_190\n        /* \"#utility.yul\":659:664   */\n      dup2\n        /* \"#utility.yul\":641:665   */\n      tag_152\n      jump\t// in\n    tag_190:\n        /* \"#utility.yul\":634:639   */\n      dup2\n        /* \"#utility.yul\":631:666   */\n      eq\n        /* \"#utility.yul\":621:684   */\n      tag_191\n      jumpi\n        /* \"#utility.yul\":680:681   */\n      0x00\n        /* \"#utility.yul\":677:678   */\n      dup1\n        /* \"#utility.yul\":670:682   */\n      revert\n        /* \"#utility.yul\":621:684   */\n    tag_191:\n        /* \"#utility.yul\":568:690   */\n      pop\n      jump\t// out\n        /* \"#utility.yul\":696:835   */\n    tag_154:\n        /* \"#utility.yul\":742:747   */\n      0x00\n        /* \"#utility.yul\":780:786   */\n      dup2\n        /* \"#utility.yul\":767:787   */\n      calldataload\n        /* \"#utility.yul\":758:787   */\n      swap1\n      pop\n        /* \"#utility.yul\":796:829   */\n      tag_193\n        /* \"#utility.yul\":823:828   */\n      dup2\n        /* \"#utility.yul\":796:829   */\n      tag_153\n      jump\t// in\n    tag_193:\n        /* \"#utility.yul\":696:835   */\n      swap3\n      swap2\n      pop\n      pop\n      jump\t// out\n        /* \"#utility.yul\":841:950   */\n    tag_155:\n        /* \"#utility.yul\":924:925   */\n      0x05\n        /* \"#utility.yul\":917:922   */\n      dup2\n        /* \"#utility.yul\":914:926   */\n      lt\n        /* \"#utility.yul\":904:944   */\n      tag_195\n      jumpi\n        /* \"#utility.yul\":940:941   */\n      0x00\n        /* \"#utility.yul\":937:938   */\n      dup1\n        /* \"#utility.yul\":930:942   */\n      revert\n        /* \"#utility.yul\":904:944   */\n    tag_195:\n        /* \"#utility.yul\":841:950   */\n      pop\n      jump\t// out\n        /* \"#utility.yul\":956:1115   */\n    tag_156:\n        /* \"#utility.yul\":1012:1017   */\n      0x00\n        /* \"#utility.yul\":1050:1056   */\n      dup2\n        /* \"#utility.yul\":1037:1057   */\n      calldataload\n        /* \"#utility.yul\":1028:1057   */\n      swap1\n      pop\n        /* \"#utility.yul\":1066:1109   */\n      tag_197\n        /* \"#utility.yul\":1103:1108   */\n      dup2\n        /* \"#utility.yul\":1066:1109   */\n      tag_155\n      jump\t// in\n    tag_197:\n        /* \"#utility.yul\":956:1115   */\n      swap3\n      swap2\n      pop\n      pop\n      jump\t// out\n        /* \"#utility.yul\":1121:1615   */\n    tag_17:\n        /* \"#utility.yul\":1199:1205   */\n      0x00\n        /* \"#utility.yul\":1207:1213   */\n      dup1\n        /* \"#utility.yul\":1256:1258   */\n      0x40\n        /* \"#utility.yul\":1244:1253   */\n      dup4\n        /* \"#utility.yul\":1235:1242   */\n      dup6\n        /* \"#utility.yul\":1231:1254   */\n      sub\n        /* \"#utility.yul\":1227:1259   */\n      slt\n        /* \"#utility.yul\":1224:1343   */\n      iszero\n      tag_199\n      jumpi\n        /* \"#utility.yul\":1262:1341   */\n      tag_200\n      tag_149\n      jump\t// in\n    tag_200:\n        /* \"#utility.yul\":1224:1343   */\n    tag_199:\n        /* \"#utility.yul\":1382:1383   */\n      0x00\n        /* \"#utility.yul\":1407:1460   */\n      tag_201\n        /* \"#utility.yul\":1452:1459   */\n      dup6\n        /* \"#utility.yul\":1443:1449   */\n      dup3\n        /* \"#utility.yul\":1432:1441   */\n      dup7\n        /* \"#utility.yul\":1428:1450   */\n      add\n        /* \"#utility.yul\":1407:1460   */\n      tag_154\n      jump\t// in\n    tag_201:\n        /* \"#utility.yul\":1397:1460   */\n      swap3\n      pop\n        /* \"#utility.yul\":1353:1470   */\n      pop\n        /* \"#utility.yul\":1509:1511   */\n      0x20\n        /* \"#utility.yul\":1535:1598   */\n      tag_202\n        /* \"#utility.yul\":1590:1597   */\n      dup6\n        /* \"#utility.yul\":1581:1587   */\n      dup3\n        /* \"#utility.yul\":1570:1579   */\n      dup7\n        /* \"#utility.yul\":1566:1588   */\n      add\n        /* \"#utility.yul\":1535:1598   */\n      tag_156\n      jump\t// in\n    tag_202:\n        /* \"#utility.yul\":1525:1598   */\n      swap2\n      pop\n        /* \"#utility.yul\":1480:1608   */\n      pop\n        /* \"#utility.yul\":1121:1615   */\n      swap3\n      pop\n      swap3\n      swap1\n      pop\n      jump\t// out\n        /* \"#utility.yul\":1621:1711   */\n    tag_157:\n        /* \"#utility.yul\":1655:1662   */\n      0x00\n        /* \"#utility.yul\":1698:1703   */\n      dup2\n        /* \"#utility.yul\":1691:1704   */\n      iszero\n        /* \"#utility.yul\":1684:1705   */\n      iszero\n        /* \"#utility.yul\":1673:1705   */\n      swap1\n      pop\n        /* \"#utility.yul\":1621:1711   */\n      swap2\n      swap1\n      pop\n      jump\t// out\n        /* \"#utility.yul\":1717:1826   */\n    tag_158:\n        /* \"#utility.yul\":1798:1819   */\n      tag_205\n        /* \"#utility.yul\":1813:1818   */\n      dup2\n        /* \"#utility.yul\":1798:1819   */\n      tag_157\n      jump\t// in\n    tag_205:\n        /* \"#utility.yul\":1793:1796   */\n      dup3\n        /* \"#utility.yul\":1786:1820   */\n      mstore\n        /* \"#utility.yul\":1717:1826   */\n      pop\n      pop\n      jump\t// out\n        /* \"#utility.yul\":1832:2042   */\n    tag_20:\n        /* \"#utility.yul\":1919:1923   */\n      0x00\n        /* \"#utility.yul\":1957:1959   */\n      0x20\n        /* \"#utility.yul\":1946:1955   */\n      dup3\n        /* \"#utility.yul\":1942:1960   */\n      add\n        /* \"#utility.yul\":1934:1960   */\n      swap1\n      pop\n        /* \"#utility.yul\":1970:2035   */\n      tag_207\n        /* \"#utility.yul\":2032:2033   */\n      0x00\n        /* \"#utility.yul\":2021:2030   */\n      dup4\n        /* \"#utility.yul\":2017:2034   */\n      add\n        /* \"#utility.yul\":2008:2014   */\n      dup5\n        /* \"#utility.yul\":1970:2035   */\n      tag_158\n      jump\t// in\n    tag_207:\n        /* \"#utility.yul\":1832:2042   */\n      swap3\n      swap2\n      pop\n      pop\n      jump\t// out\n        /* \"#utility.yul\":2048:2377   */\n    tag_27:\n        /* \"#utility.yul\":2107:2113   */\n      0x00\n        /* \"#utility.yul\":2156:2158   */\n      0x20\n        /* \"#utility.yul\":2144:2153   */\n      dup3\n        /* \"#utility.yul\":2135:2142   */\n      dup5\n        /* \"#utility.yul\":2131:2154   */\n      sub\n        /* \"#utility.yul\":2127:2159   */\n      slt\n        /* \"#utility.yul\":2124:2243   */\n      iszero\n      tag_209\n      jumpi\n        /* \"#utility.yul\":2162:2241   */\n      tag_210\n      tag_149\n      jump\t// in\n    tag_210:\n        /* \"#utility.yul\":2124:2243   */\n    tag_209:\n        /* \"#utility.yul\":2282:2283   */\n      0x00\n        /* \"#utility.yul\":2307:2360   */\n      tag_211\n        /* \"#utility.yul\":2352:2359   */\n      dup5\n        /* \"#utility.yul\":2343:2349   */\n      dup3\n        /* \"#utility.yul\":2332:2341   */\n      dup6\n        /* \"#utility.yul\":2328:2350   */\n      add\n        /* \"#utility.yul\":2307:2360   */\n      tag_154\n      jump\t// in\n    tag_211:\n        /* \"#utility.yul\":2297:2360   */\n      swap2\n      pop\n        /* \"#utility.yul\":2253:2370   */\n      pop\n        /* \"#utility.yul\":2048:2377   */\n      swap3\n      swap2\n      pop\n      pop\n      jump\t// out\n        /* \"#utility.yul\":2383:2501   */\n    tag_159:\n        /* \"#utility.yul\":2470:2494   */\n      tag_213\n        /* \"#utility.yul\":2488:2493   */\n      dup2\n        /* \"#utility.yul\":2470:2494   */\n      tag_152\n      jump\t// in\n    tag_213:\n        /* \"#utility.yul\":2465:2468   */\n      dup3\n        /* \"#utility.yul\":2458:2495   */\n      mstore\n        /* \"#utility.yul\":2383:2501   */\n      pop\n      pop\n      jump\t// out\n        /* \"#utility.yul\":2507:2729   */\n    tag_32:\n        /* \"#utility.yul\":2600:2604   */\n      0x00\n        /* \"#utility.yul\":2638:2640   */\n      0x20\n        /* \"#utility.yul\":2627:2636   */\n      dup3\n        /* \"#utility.yul\":2623:2641   */\n      add\n        /* \"#utility.yul\":2615:2641   */\n      swap1\n      pop\n        /* \"#utility.yul\":2651:2722   */\n      tag_215\n        /* \"#utility.yul\":2719:2720   */\n      0x00\n        /* \"#utility.yul\":2708:2717   */\n      dup4\n        /* \"#utility.yul\":2704:2721   */\n      add\n        /* \"#utility.yul\":2695:2701   */\n      dup5\n        /* \"#utility.yul\":2651:2722   */\n      tag_159\n      jump\t// in\n    tag_215:\n        /* \"#utility.yul\":2507:2729   */\n      swap3\n      swap2\n      pop\n      pop\n      jump\t// out\n        /* \"#utility.yul\":2735:2812   */\n    tag_160:\n        /* \"#utility.yul\":2772:2779   */\n      0x00\n        /* \"#utility.yul\":2801:2806   */\n      dup2\n        /* \"#utility.yul\":2790:2806   */\n      swap1\n      pop\n        /* \"#utility.yul\":2735:2812   */\n      swap2\n      swap1\n      pop\n      jump\t// out\n        /* \"#utility.yul\":2818:2940   */\n    tag_161:\n        /* \"#utility.yul\":2891:2915   */\n      tag_218\n        /* \"#utility.yul\":2909:2914   */\n      dup2\n        /* \"#utility.yul\":2891:2915   */\n      tag_160\n      jump\t// in\n    tag_218:\n        /* \"#utility.yul\":2884:2889   */\n      dup2\n        /* \"#utility.yul\":2881:2916   */\n      eq\n        /* \"#utility.yul\":2871:2934   */\n      tag_219\n      jumpi\n        /* \"#utility.yul\":2930:2931   */\n      0x00\n        /* \"#utility.yul\":2927:2928   */\n      dup1\n        /* \"#utility.yul\":2920:2932   */\n      revert\n        /* \"#utility.yul\":2871:2934   */\n    tag_219:\n        /* \"#utility.yul\":2818:2940   */\n      pop\n      jump\t// out\n        /* \"#utility.yul\":2946:3085   */\n    tag_162:\n        /* \"#utility.yul\":2992:2997   */\n      0x00\n        /* \"#utility.yul\":3030:3036   */\n      dup2\n        /* \"#utility.yul\":3017:3037   */\n      calldataload\n        /* \"#utility.yul\":3008:3037   */\n      swap1\n      pop\n        /* \"#utility.yul\":3046:3079   */\n      tag_221\n        /* \"#utility.yul\":3073:3078   */\n      dup2\n        /* \"#utility.yul\":3046:3079   */\n      tag_161\n      jump\t// in\n    tag_221:\n        /* \"#utility.yul\":2946:3085   */\n      swap3\n      swap2\n      pop\n      pop\n      jump\t// out\n        /* \"#utility.yul\":3091:3585   */\n    tag_35:\n        /* \"#utility.yul\":3169:3175   */\n      0x00\n        /* \"#utility.yul\":3177:3183   */\n      dup1\n        /* \"#utility.yul\":3226:3228   */\n      0x40\n        /* \"#utility.yul\":3214:3223   */\n      dup4\n        /* \"#utility.yul\":3205:3212   */\n      dup6\n        /* \"#utility.yul\":3201:3224   */\n      sub\n        /* \"#utility.yul\":3197:3229   */\n      slt\n        /* \"#utility.yul\":3194:3313   */\n      iszero\n      tag_223\n      jumpi\n        /* \"#utility.yul\":3232:3311   */\n      tag_224\n      tag_149\n      jump\t// in\n    tag_224:\n        /* \"#utility.yul\":3194:3313   */\n    tag_223:\n        /* \"#utility.yul\":3352:3353   */\n      0x00\n        /* \"#utility.yul\":3377:3440   */\n      tag_225\n        /* \"#utility.yul\":3432:3439   */\n      dup6\n        /* \"#utility.yul\":3423:3429   */\n      dup3\n        /* \"#utility.yul\":3412:3421   */\n      dup7\n        /* \"#utility.yul\":3408:3430   */\n      add\n        /* \"#utility.yul\":3377:3440   */\n      tag_156\n      jump\t// in\n    tag_225:\n        /* \"#utility.yul\":3367:3440   */\n      swap3\n      pop\n        /* \"#utility.yul\":3323:3450   */\n      pop\n        /* \"#utility.yul\":3489:3491   */\n      0x20\n        /* \"#utility.yul\":3515:3568   */\n      tag_226\n        /* \"#utility.yul\":3560:3567   */\n      dup6\n        /* \"#utility.yul\":3551:3557   */\n      dup3\n        /* \"#utility.yul\":3540:3549   */\n      dup7\n        /* \"#utility.yul\":3536:3558   */\n      add\n        /* \"#utility.yul\":3515:3568   */\n      tag_162\n      jump\t// in\n    tag_226:\n        /* \"#utility.yul\":3505:3568   */\n      swap2\n      pop\n        /* \"#utility.yul\":3460:3578   */\n      pop\n        /* \"#utility.yul\":3091:3585   */\n      swap3\n      pop\n      swap3\n      swap1\n      pop\n      jump\t// out\n        /* \"#utility.yul\":3591:3940   */\n    tag_42:\n        /* \"#utility.yul\":3660:3666   */\n      0x00\n        /* \"#utility.yul\":3709:3711   */\n      0x20\n        /* \"#utility.yul\":3697:3706   */\n      dup3\n        /* \"#utility.yul\":3688:3695   */\n      dup5\n        /* \"#utility.yul\":3684:3707   */\n      sub\n        /* \"#utility.yul\":3680:3712   */\n      slt\n        /* \"#utility.yul\":3677:3796   */\n      iszero\n      tag_228\n      jumpi\n        /* \"#utility.yul\":3715:3794   */\n      tag_229\n      tag_149\n      jump\t// in\n    tag_229:\n        /* \"#utility.yul\":3677:3796   */\n    tag_228:\n        /* \"#utility.yul\":3835:3836   */\n      0x00\n        /* \"#utility.yul\":3860:3923   */\n      tag_230\n        /* \"#utility.yul\":3915:3922   */\n      dup5\n        /* \"#utility.yul\":3906:3912   */\n      dup3\n        /* \"#utility.yul\":3895:3904   */\n      dup6\n        /* \"#utility.yul\":3891:3913   */\n      add\n        /* \"#utility.yul\":3860:3923   */\n      tag_156\n      jump\t// in\n    tag_230:\n        /* \"#utility.yul\":3850:3923   */\n      swap2\n      pop\n        /* \"#utility.yul\":3806:3933   */\n      pop\n        /* \"#utility.yul\":3591:3940   */\n      swap3\n      swap2\n      pop\n      pop\n      jump\t// out\n        /* \"#utility.yul\":3946:4060   */\n    tag_163:\n        /* \"#utility.yul\":4013:4019   */\n      0x00\n        /* \"#utility.yul\":4047:4052   */\n      dup2\n        /* \"#utility.yul\":4041:4053   */\n      mload\n        /* \"#utility.yul\":4031:4053   */\n      swap1\n      pop\n        /* \"#utility.yul\":3946:4060   */\n      swap2\n      swap1\n      pop\n      jump\t// out\n        /* \"#utility.yul\":4066:4250   */\n    tag_164:\n        /* \"#utility.yul\":4165:4176   */\n      0x00\n        /* \"#utility.yul\":4199:4205   */\n      dup3\n        /* \"#utility.yul\":4194:4197   */\n      dup3\n        /* \"#utility.yul\":4187:4206   */\n      mstore\n        /* \"#utility.yul\":4239:4243   */\n      0x20\n        /* \"#utility.yul\":4234:4237   */\n      dup3\n        /* \"#utility.yul\":4230:4244   */\n      add\n        /* \"#utility.yul\":4215:4244   */\n      swap1\n      pop\n        /* \"#utility.yul\":4066:4250   */\n      swap3\n      swap2\n      pop\n      pop\n      jump\t// out\n        /* \"#utility.yul\":4256:4388   */\n    tag_165:\n        /* \"#utility.yul\":4323:4327   */\n      0x00\n        /* \"#utility.yul\":4346:4349   */\n      dup2\n        /* \"#utility.yul\":4338:4349   */\n      swap1\n      pop\n        /* \"#utility.yul\":4376:4380   */\n      0x20\n        /* \"#utility.yul\":4371:4374   */\n      dup3\n        /* \"#utility.yul\":4367:4381   */\n      add\n        /* \"#utility.yul\":4359:4381   */\n      swap1\n      pop\n        /* \"#utility.yul\":4256:4388   */\n      swap2\n      swap1\n      pop\n      jump\t// out\n        /* \"#utility.yul\":4394:4502   */\n    tag_166:\n        /* \"#utility.yul\":4471:4495   */\n      tag_235\n        /* \"#utility.yul\":4489:4494   */\n      dup2\n        /* \"#utility.yul\":4471:4495   */\n      tag_152\n      jump\t// in\n    tag_235:\n        /* \"#utility.yul\":4466:4469   */\n      dup3\n        /* \"#utility.yul\":4459:4496   */\n      mstore\n        /* \"#utility.yul\":4394:4502   */\n      pop\n      pop\n      jump\t// out\n        /* \"#utility.yul\":4508:4687   */\n    tag_167:\n        /* \"#utility.yul\":4577:4587   */\n      0x00\n        /* \"#utility.yul\":4598:4644   */\n      tag_237\n        /* \"#utility.yul\":4640:4643   */\n      dup4\n        /* \"#utility.yul\":4632:4638   */\n      dup4\n        /* \"#utility.yul\":4598:4644   */\n      tag_166\n      jump\t// in\n    tag_237:\n        /* \"#utility.yul\":4676:4680   */\n      0x20\n        /* \"#utility.yul\":4671:4674   */\n      dup4\n        /* \"#utility.yul\":4667:4681   */\n      add\n        /* \"#utility.yul\":4653:4681   */\n      swap1\n      pop\n        /* \"#utility.yul\":4508:4687   */\n      swap3\n      swap2\n      pop\n      pop\n      jump\t// out\n        /* \"#utility.yul\":4693:4806   */\n    tag_168:\n        /* \"#utility.yul\":4763:4767   */\n      0x00\n        /* \"#utility.yul\":4795:4799   */\n      0x20\n        /* \"#utility.yul\":4790:4793   */\n      dup3\n        /* \"#utility.yul\":4786:4800   */\n      add\n        /* \"#utility.yul\":4778:4800   */\n      swap1\n      pop\n        /* \"#utility.yul\":4693:4806   */\n      swap2\n      swap1\n      pop\n      jump\t// out\n        /* \"#utility.yul\":4842:5574   */\n    tag_169:\n        /* \"#utility.yul\":4961:4964   */\n      0x00\n        /* \"#utility.yul\":4990:5044   */\n      tag_240\n        /* \"#utility.yul\":5038:5043   */\n      dup3\n        /* \"#utility.yul\":4990:5044   */\n      tag_163\n      jump\t// in\n    tag_240:\n        /* \"#utility.yul\":5060:5146   */\n      tag_241\n        /* \"#utility.yul\":5139:5145   */\n      dup2\n        /* \"#utility.yul\":5134:5137   */\n      dup6\n        /* \"#utility.yul\":5060:5146   */\n      tag_164\n      jump\t// in\n    tag_241:\n        /* \"#utility.yul\":5053:5146   */\n      swap4\n      pop\n        /* \"#utility.yul\":5170:5226   */\n      tag_242\n        /* \"#utility.yul\":5220:5225   */\n      dup4\n        /* \"#utility.yul\":5170:5226   */\n      tag_165\n      jump\t// in\n    tag_242:\n        /* \"#utility.yul\":5249:5256   */\n      dup1\n        /* \"#utility.yul\":5280:5281   */\n      0x00\n        /* \"#utility.yul\":5265:5549   */\n    tag_243:\n        /* \"#utility.yul\":5290:5296   */\n      dup4\n        /* \"#utility.yul\":5287:5288   */\n      dup2\n        /* \"#utility.yul\":5284:5297   */\n      lt\n        /* \"#utility.yul\":5265:5549   */\n      iszero\n      tag_245\n      jumpi\n        /* \"#utility.yul\":5366:5372   */\n      dup2\n        /* \"#utility.yul\":5360:5373   */\n      mload\n        /* \"#utility.yul\":5393:5456   */\n      tag_246\n        /* \"#utility.yul\":5452:5455   */\n      dup9\n        /* \"#utility.yul\":5437:5450   */\n      dup3\n        /* \"#utility.yul\":5393:5456   */\n      tag_167\n      jump\t// in\n    tag_246:\n        /* \"#utility.yul\":5386:5456   */\n      swap8\n      pop\n        /* \"#utility.yul\":5479:5539   */\n      tag_247\n        /* \"#utility.yul\":5532:5538   */\n      dup4\n        /* \"#utility.yul\":5479:5539   */\n      tag_168\n      jump\t// in\n    tag_247:\n        /* \"#utility.yul\":5469:5539   */\n      swap3\n      pop\n        /* \"#utility.yul\":5325:5549   */\n      pop\n        /* \"#utility.yul\":5312:5313   */\n      0x01\n        /* \"#utility.yul\":5309:5310   */\n      dup2\n        /* \"#utility.yul\":5305:5314   */\n      add\n        /* \"#utility.yul\":5300:5314   */\n      swap1\n      pop\n        /* \"#utility.yul\":5265:5549   */\n      jump(tag_243)\n    tag_245:\n        /* \"#utility.yul\":5269:5283   */\n      pop\n        /* \"#utility.yul\":5565:5568   */\n      dup6\n        /* \"#utility.yul\":5558:5568   */\n      swap4\n      pop\n        /* \"#utility.yul\":4966:5574   */\n      pop\n      pop\n      pop\n        /* \"#utility.yul\":4842:5574   */\n      swap3\n      swap2\n      pop\n      pop\n      jump\t// out\n        /* \"#utility.yul\":5580:5953   */\n    tag_45:\n        /* \"#utility.yul\":5723:5727   */\n      0x00\n        /* \"#utility.yul\":5761:5763   */\n      0x20\n        /* \"#utility.yul\":5750:5759   */\n      dup3\n        /* \"#utility.yul\":5746:5764   */\n      add\n        /* \"#utility.yul\":5738:5764   */\n      swap1\n      pop\n        /* \"#utility.yul\":5810:5819   */\n      dup2\n        /* \"#utility.yul\":5804:5808   */\n      dup2\n        /* \"#utility.yul\":5800:5820   */\n      sub\n        /* \"#utility.yul\":5796:5797   */\n      0x00\n        /* \"#utility.yul\":5785:5794   */\n      dup4\n        /* \"#utility.yul\":5781:5798   */\n      add\n        /* \"#utility.yul\":5774:5821   */\n      mstore\n        /* \"#utility.yul\":5838:5946   */\n      tag_249\n        /* \"#utility.yul\":5941:5945   */\n      dup2\n        /* \"#utility.yul\":5932:5938   */\n      dup5\n        /* \"#utility.yul\":5838:5946   */\n      tag_169\n      jump\t// in\n    tag_249:\n        /* \"#utility.yul\":5830:5946   */\n      swap1\n      pop\n        /* \"#utility.yul\":5580:5953   */\n      swap3\n      swap2\n      pop\n      pop\n      jump\t// out\n        /* \"#utility.yul\":5959:6139   */\n    tag_66:\n        /* \"#utility.yul\":6007:6084   */\n      0x4e487b7100000000000000000000000000000000000000000000000000000000\n        /* \"#utility.yul\":6004:6005   */\n      0x00\n        /* \"#utility.yul\":5997:6085   */\n      mstore\n        /* \"#utility.yul\":6104:6108   */\n      0x21\n        /* \"#utility.yul\":6101:6102   */\n      0x04\n        /* \"#utility.yul\":6094:6109   */\n      mstore\n        /* \"#utility.yul\":6128:6132   */\n      0x24\n        /* \"#utility.yul\":6125:6126   */\n      0x00\n        /* \"#utility.yul\":6118:6133   */\n      revert\n        /* \"#utility.yul\":6145:6260   */\n    tag_170:\n        /* \"#utility.yul\":6228:6229   */\n      0x05\n        /* \"#utility.yul\":6221:6226   */\n      dup2\n        /* \"#utility.yul\":6218:6230   */\n      lt\n        /* \"#utility.yul\":6208:6254   */\n      tag_252\n      jumpi\n        /* \"#utility.yul\":6234:6252   */\n      tag_253\n      tag_66\n      jump\t// in\n    tag_253:\n        /* \"#utility.yul\":6208:6254   */\n    tag_252:\n        /* \"#utility.yul\":6145:6260   */\n      pop\n      jump\t// out\n        /* \"#utility.yul\":6266:6397   */\n    tag_171:\n        /* \"#utility.yul\":6313:6320   */\n      0x00\n        /* \"#utility.yul\":6342:6347   */\n      dup2\n        /* \"#utility.yul\":6331:6347   */\n      swap1\n      pop\n        /* \"#utility.yul\":6348:6391   */\n      tag_255\n        /* \"#utility.yul\":6385:6390   */\n      dup3\n        /* \"#utility.yul\":6348:6391   */\n      tag_170\n      jump\t// in\n    tag_255:\n        /* \"#utility.yul\":6266:6397   */\n      swap2\n      swap1\n      pop\n      jump\t// out\n        /* \"#utility.yul\":6403:6534   */\n    tag_172:\n        /* \"#utility.yul\":6461:6470   */\n      0x00\n        /* \"#utility.yul\":6494:6528   */\n      tag_257\n        /* \"#utility.yul\":6522:6527   */\n      dup3\n        /* \"#utility.yul\":6494:6528   */\n      tag_171\n      jump\t// in\n    tag_257:\n        /* \"#utility.yul\":6481:6528   */\n      swap1\n      pop\n        /* \"#utility.yul\":6403:6534   */\n      swap2\n      swap1\n      pop\n      jump\t// out\n        /* \"#utility.yul\":6540:6687   */\n    tag_173:\n        /* \"#utility.yul\":6635:6680   */\n      tag_259\n        /* \"#utility.yul\":6674:6679   */\n      dup2\n        /* \"#utility.yul\":6635:6680   */\n      tag_172\n      jump\t// in\n    tag_259:\n        /* \"#utility.yul\":6630:6633   */\n      dup3\n        /* \"#utility.yul\":6623:6681   */\n      mstore\n        /* \"#utility.yul\":6540:6687   */\n      pop\n      pop\n      jump\t// out\n        /* \"#utility.yul\":6693:6931   */\n    tag_50:\n        /* \"#utility.yul\":6794:6798   */\n      0x00\n        /* \"#utility.yul\":6832:6834   */\n      0x20\n        /* \"#utility.yul\":6821:6830   */\n      dup3\n        /* \"#utility.yul\":6817:6835   */\n      add\n        /* \"#utility.yul\":6809:6835   */\n      swap1\n      pop\n        /* \"#utility.yul\":6845:6924   */\n      tag_261\n        /* \"#utility.yul\":6921:6922   */\n      0x00\n        /* \"#utility.yul\":6910:6919   */\n      dup4\n        /* \"#utility.yul\":6906:6923   */\n      add\n        /* \"#utility.yul\":6897:6903   */\n      dup5\n        /* \"#utility.yul\":6845:6924   */\n      tag_173\n      jump\t// in\n    tag_261:\n        /* \"#utility.yul\":6693:6931   */\n      swap3\n      swap2\n      pop\n      pop\n      jump\t// out\n        /* \"#utility.yul\":6937:7100   */\n    tag_174:\n        /* \"#utility.yul\":7004:7009   */\n      0x00\n        /* \"#utility.yul\":7035:7041   */\n      dup2\n        /* \"#utility.yul\":7029:7042   */\n      mload\n        /* \"#utility.yul\":7020:7042   */\n      swap1\n      pop\n        /* \"#utility.yul\":7051:7094   */\n      tag_263\n        /* \"#utility.yul\":7088:7093   */\n      dup2\n        /* \"#utility.yul\":7051:7094   */\n      tag_155\n      jump\t// in\n    tag_263:\n        /* \"#utility.yul\":6937:7100   */\n      swap3\n      swap2\n      pop\n      pop\n      jump\t// out\n        /* \"#utility.yul\":7106:7477   */\n    tag_71:\n        /* \"#utility.yul\":7186:7192   */\n      0x00\n        /* \"#utility.yul\":7235:7237   */\n      0x20\n        /* \"#utility.yul\":7223:7232   */\n      dup3\n        /* \"#utility.yul\":7214:7221   */\n      dup5\n        /* \"#utility.yul\":7210:7233   */\n      sub\n        /* \"#utility.yul\":7206:7238   */\n      slt\n        /* \"#utility.yul\":7203:7322   */\n      iszero\n      tag_265\n      jumpi\n        /* \"#utility.yul\":7241:7320   */\n      tag_266\n      tag_149\n      jump\t// in\n    tag_266:\n        /* \"#utility.yul\":7203:7322   */\n    tag_265:\n        /* \"#utility.yul\":7361:7362   */\n      0x00\n        /* \"#utility.yul\":7386:7460   */\n      tag_267\n        /* \"#utility.yul\":7452:7459   */\n      dup5\n        /* \"#utility.yul\":7443:7449   */\n      dup3\n        /* \"#utility.yul\":7432:7441   */\n      dup6\n        /* \"#utility.yul\":7428:7450   */\n      add\n        /* \"#utility.yul\":7386:7460   */\n      tag_174\n      jump\t// in\n    tag_267:\n        /* \"#utility.yul\":7376:7460   */\n      swap2\n      pop\n        /* \"#utility.yul\":7332:7470   */\n      pop\n        /* \"#utility.yul\":7106:7477   */\n      swap3\n      swap2\n      pop\n      pop\n      jump\t// out\n        /* \"#utility.yul\":7483:7652   */\n    tag_175:\n        /* \"#utility.yul\":7567:7578   */\n      0x00\n        /* \"#utility.yul\":7601:7607   */\n      dup3\n        /* \"#utility.yul\":7596:7599   */\n      dup3\n        /* \"#utility.yul\":7589:7608   */\n      mstore\n        /* \"#utility.yul\":7641:7645   */\n      0x20\n        /* \"#utility.yul\":7636:7639   */\n      dup3\n        /* \"#utility.yul\":7632:7646   */\n      add\n        /* \"#utility.yul\":7617:7646   */\n      swap1\n      pop\n        /* \"#utility.yul\":7483:7652   */\n      swap3\n      swap2\n      pop\n      pop\n      jump\t// out\n        /* \"#utility.yul\":7658:7828   */\n    tag_176:\n        /* \"#utility.yul\":7798:7820   */\n      0x63616c6c6572206d757374206265206f776e6572000000000000000000000000\n        /* \"#utility.yul\":7794:7795   */\n      0x00\n        /* \"#utility.yul\":7786:7792   */\n      dup3\n        /* \"#utility.yul\":7782:7796   */\n      add\n        /* \"#utility.yul\":7775:7821   */\n      mstore\n        /* \"#utility.yul\":7658:7828   */\n      pop\n      jump\t// out\n        /* \"#utility.yul\":7834:8200   */\n    tag_177:\n        /* \"#utility.yul\":7976:7979   */\n      0x00\n        /* \"#utility.yul\":7997:8064   */\n      tag_271\n        /* \"#utility.yul\":8061:8063   */\n      0x14\n        /* \"#utility.yul\":8056:8059   */\n      dup4\n        /* \"#utility.yul\":7997:8064   */\n      tag_175\n      jump\t// in\n    tag_271:\n        /* \"#utility.yul\":7990:8064   */\n      swap2\n      pop\n        /* \"#utility.yul\":8073:8166   */\n      tag_272\n        /* \"#utility.yul\":8162:8165   */\n      dup3\n        /* \"#utility.yul\":8073:8166   */\n      tag_176\n      jump\t// in\n    tag_272:\n        /* \"#utility.yul\":8191:8193   */\n      0x20\n        /* \"#utility.yul\":8186:8189   */\n      dup3\n        /* \"#utility.yul\":8182:8194   */\n      add\n        /* \"#utility.yul\":8175:8194   */\n      swap1\n      pop\n        /* \"#utility.yul\":7834:8200   */\n      swap2\n      swap1\n      pop\n      jump\t// out\n        /* \"#utility.yul\":8206:8625   */\n    tag_95:\n        /* \"#utility.yul\":8372:8376   */\n      0x00\n        /* \"#utility.yul\":8410:8412   */\n      0x20\n        /* \"#utility.yul\":8399:8408   */\n      dup3\n        /* \"#utility.yul\":8395:8413   */\n      add\n        /* \"#utility.yul\":8387:8413   */\n      swap1\n      pop\n        /* \"#utility.yul\":8459:8468   */\n      dup2\n        /* \"#utility.yul\":8453:8457   */\n      dup2\n        /* \"#utility.yul\":8449:8469   */\n      sub\n        /* \"#utility.yul\":8445:8446   */\n      0x00\n        /* \"#utility.yul\":8434:8443   */\n      dup4\n        /* \"#utility.yul\":8430:8447   */\n      add\n        /* \"#utility.yul\":8423:8470   */\n      mstore\n        /* \"#utility.yul\":8487:8618   */\n      tag_274\n        /* \"#utility.yul\":8613:8617   */\n      dup2\n        /* \"#utility.yul\":8487:8618   */\n      tag_177\n      jump\t// in\n    tag_274:\n        /* \"#utility.yul\":8479:8618   */\n      swap1\n      pop\n        /* \"#utility.yul\":8206:8625   */\n      swap2\n      swap1\n      pop\n      jump\t// out\n        /* \"#utility.yul\":8631:8811   */\n    tag_105:\n        /* \"#utility.yul\":8679:8756   */\n      0x4e487b7100000000000000000000000000000000000000000000000000000000\n        /* \"#utility.yul\":8676:8677   */\n      0x00\n        /* \"#utility.yul\":8669:8757   */\n      mstore\n        /* \"#utility.yul\":8776:8780   */\n      0x32\n        /* \"#utility.yul\":8773:8774   */\n      0x04\n        /* \"#utility.yul\":8766:8781   */\n      mstore\n        /* \"#utility.yul\":8800:8804   */\n      0x24\n        /* \"#utility.yul\":8797:8798   */\n      0x00\n        /* \"#utility.yul\":8790:8805   */\n      revert\n        /* \"#utility.yul\":8817:8997   */\n    tag_178:\n        /* \"#utility.yul\":8865:8942   */\n      0x4e487b7100000000000000000000000000000000000000000000000000000000\n        /* \"#utility.yul\":8862:8863   */\n      0x00\n        /* \"#utility.yul\":8855:8943   */\n      mstore\n        /* \"#utility.yul\":8962:8966   */\n      0x12\n        /* \"#utility.yul\":8959:8960   */\n      0x04\n        /* \"#utility.yul\":8952:8967   */\n      mstore\n        /* \"#utility.yul\":8986:8990   */\n      0x24\n        /* \"#utility.yul\":8983:8984   */\n      0x00\n        /* \"#utility.yul\":8976:8991   */\n      revert\n        /* \"#utility.yul\":9003:9179   */\n    tag_118:\n        /* \"#utility.yul\":9035:9036   */\n      0x00\n        /* \"#utility.yul\":9052:9072   */\n      tag_278\n        /* \"#utility.yul\":9070:9071   */\n      dup3\n        /* \"#utility.yul\":9052:9072   */\n      tag_160\n      jump\t// in\n    tag_278:\n        /* \"#utility.yul\":9047:9072   */\n      swap2\n      pop\n        /* \"#utility.yul\":9086:9106   */\n      tag_279\n        /* \"#utility.yul\":9104:9105   */\n      dup4\n        /* \"#utility.yul\":9086:9106   */\n      tag_160\n      jump\t// in\n    tag_279:\n        /* \"#utility.yul\":9081:9106   */\n      swap3\n      pop\n        /* \"#utility.yul\":9125:9126   */\n      dup3\n        /* \"#utility.yul\":9115:9150   */\n      tag_280\n      jumpi\n        /* \"#utility.yul\":9130:9148   */\n      tag_281\n      tag_178\n      jump\t// in\n    tag_281:\n        /* \"#utility.yul\":9115:9150   */\n    tag_280:\n        /* \"#utility.yul\":9171:9172   */\n      dup3\n        /* \"#utility.yul\":9168:9169   */\n      dup3\n        /* \"#utility.yul\":9164:9173   */\n      mod\n        /* \"#utility.yul\":9159:9173   */\n      swap1\n      pop\n        /* \"#utility.yul\":9003:9179   */\n      swap3\n      swap2\n      pop\n      pop\n      jump\t// out\n        /* \"#utility.yul\":9185:9365   */\n    tag_179:\n        /* \"#utility.yul\":9233:9310   */\n      0x4e487b7100000000000000000000000000000000000000000000000000000000\n        /* \"#utility.yul\":9230:9231   */\n      0x00\n        /* \"#utility.yul\":9223:9311   */\n      mstore\n        /* \"#utility.yul\":9330:9334   */\n      0x11\n        /* \"#utility.yul\":9327:9328   */\n      0x04\n        /* \"#utility.yul\":9320:9335   */\n      mstore\n        /* \"#utility.yul\":9354:9358   */\n      0x24\n        /* \"#utility.yul\":9351:9352   */\n      0x00\n        /* \"#utility.yul\":9344:9359   */\n      revert\n        /* \"#utility.yul\":9371:9565   */\n    tag_121:\n        /* \"#utility.yul\":9411:9415   */\n      0x00\n        /* \"#utility.yul\":9431:9451   */\n      tag_284\n        /* \"#utility.yul\":9449:9450   */\n      dup3\n        /* \"#utility.yul\":9431:9451   */\n      tag_160\n      jump\t// in\n    tag_284:\n        /* \"#utility.yul\":9426:9451   */\n      swap2\n      pop\n        /* \"#utility.yul\":9465:9485   */\n      tag_285\n        /* \"#utility.yul\":9483:9484   */\n      dup4\n        /* \"#utility.yul\":9465:9485   */\n      tag_160\n      jump\t// in\n    tag_285:\n        /* \"#utility.yul\":9460:9485   */\n      swap3\n      pop\n        /* \"#utility.yul\":9509:9510   */\n      dup3\n        /* \"#utility.yul\":9506:9507   */\n      dup3\n        /* \"#utility.yul\":9502:9511   */\n      sub\n        /* \"#utility.yul\":9494:9511   */\n      swap1\n      pop\n        /* \"#utility.yul\":9533:9534   */\n      dup2\n        /* \"#utility.yul\":9527:9531   */\n      dup2\n        /* \"#utility.yul\":9524:9535   */\n      gt\n        /* \"#utility.yul\":9521:9558   */\n      iszero\n      tag_286\n      jumpi\n        /* \"#utility.yul\":9538:9556   */\n      tag_287\n      tag_179\n      jump\t// in\n    tag_287:\n        /* \"#utility.yul\":9521:9558   */\n    tag_286:\n        /* \"#utility.yul\":9371:9565   */\n      swap3\n      swap2\n      pop\n      pop\n      jump\t// out\n        /* \"#utility.yul\":9571:9762   */\n    tag_126:\n        /* \"#utility.yul\":9611:9614   */\n      0x00\n        /* \"#utility.yul\":9630:9650   */\n      tag_289\n        /* \"#utility.yul\":9648:9649   */\n      dup3\n        /* \"#utility.yul\":9630:9650   */\n      tag_160\n      jump\t// in\n    tag_289:\n        /* \"#utility.yul\":9625:9650   */\n      swap2\n      pop\n        /* \"#utility.yul\":9664:9684   */\n      tag_290\n        /* \"#utility.yul\":9682:9683   */\n      dup4\n        /* \"#utility.yul\":9664:9684   */\n      tag_160\n      jump\t// in\n    tag_290:\n        /* \"#utility.yul\":9659:9684   */\n      swap3\n      pop\n        /* \"#utility.yul\":9707:9708   */\n      dup3\n        /* \"#utility.yul\":9704:9705   */\n      dup3\n        /* \"#utility.yul\":9700:9709   */\n      add\n        /* \"#utility.yul\":9693:9709   */\n      swap1\n      pop\n        /* \"#utility.yul\":9728:9731   */\n      dup1\n        /* \"#utility.yul\":9725:9726   */\n      dup3\n        /* \"#utility.yul\":9722:9732   */\n      gt\n        /* \"#utility.yul\":9719:9755   */\n      iszero\n      tag_291\n      jumpi\n        /* \"#utility.yul\":9735:9753   */\n      tag_292\n      tag_179\n      jump\t// in\n    tag_292:\n        /* \"#utility.yul\":9719:9755   */\n    tag_291:\n        /* \"#utility.yul\":9571:9762   */\n      swap3\n      swap2\n      pop\n      pop\n      jump\t// out\n        /* \"#utility.yul\":9768:9947   */\n    tag_180:\n        /* \"#utility.yul\":9908:9939   */\n      0x526571756573746f72206973206e6f7420612063616e6469646174652e000000\n        /* \"#utility.yul\":9904:9905   */\n      0x00\n        /* \"#utility.yul\":9896:9902   */\n      dup3\n        /* \"#utility.yul\":9892:9906   */\n      add\n        /* \"#utility.yul\":9885:9940   */\n      mstore\n        /* \"#utility.yul\":9768:9947   */\n      pop\n      jump\t// out\n        /* \"#utility.yul\":9953:10319   */\n    tag_181:\n        /* \"#utility.yul\":10095:10098   */\n      0x00\n        /* \"#utility.yul\":10116:10183   */\n      tag_295\n        /* \"#utility.yul\":10180:10182   */\n      0x1d\n        /* \"#utility.yul\":10175:10178   */\n      dup4\n        /* \"#utility.yul\":10116:10183   */\n      tag_175\n      jump\t// in\n    tag_295:\n        /* \"#utility.yul\":10109:10183   */\n      swap2\n      pop\n        /* \"#utility.yul\":10192:10285   */\n      tag_296\n        /* \"#utility.yul\":10281:10284   */\n      dup3\n        /* \"#utility.yul\":10192:10285   */\n      tag_180\n      jump\t// in\n    tag_296:\n        /* \"#utility.yul\":10310:10312   */\n      0x20\n        /* \"#utility.yul\":10305:10308   */\n      dup3\n        /* \"#utility.yul\":10301:10313   */\n      add\n        /* \"#utility.yul\":10294:10313   */\n      swap1\n      pop\n        /* \"#utility.yul\":9953:10319   */\n      swap2\n      swap1\n      pop\n      jump\t// out\n        /* \"#utility.yul\":10325:10744   */\n    tag_139:\n        /* \"#utility.yul\":10491:10495   */\n      0x00\n        /* \"#utility.yul\":10529:10531   */\n      0x20\n        /* \"#utility.yul\":10518:10527   */\n      dup3\n        /* \"#utility.yul\":10514:10532   */\n      add\n        /* \"#utility.yul\":10506:10532   */\n      swap1\n      pop\n        /* \"#utility.yul\":10578:10587   */\n      dup2\n        /* \"#utility.yul\":10572:10576   */\n      dup2\n        /* \"#utility.yul\":10568:10588   */\n      sub\n        /* \"#utility.yul\":10564:10565   */\n      0x00\n        /* \"#utility.yul\":10553:10562   */\n      dup4\n        /* \"#utility.yul\":10549:10566   */\n      add\n        /* \"#utility.yul\":10542:10589   */\n      mstore\n        /* \"#utility.yul\":10606:10737   */\n      tag_298\n        /* \"#utility.yul\":10732:10736   */\n      dup2\n        /* \"#utility.yul\":10606:10737   */\n      tag_181\n      jump\t// in\n    tag_298:\n        /* \"#utility.yul\":10598:10737   */\n      swap1\n      pop\n        /* \"#utility.yul\":10325:10744   */\n      swap2\n      swap1\n      pop\n      jump\t// out\n\n    auxdata: 0xa26469706673582212209ba9849de4d17ff055dd905816c85ff997d8f6c65107bdd5a5301753a7260e3a64736f6c63430008120033\n}\n",
				"bytecode": {
					"linkReferences": {},
					"object": "608060405234801561001057600080fd5b50336000806101000a81548173ffffffffffffffffffffffffffffffffffffffff021916908373ffffffffffffffffffffffffffffffffffffffff16021790555061100a806100606000396000f3fe608060405234801561001057600080fd5b50600436106100a95760003560e01c80638da5cb5b116100715780638da5cb5b146101645780639407921c14610182578063ca9d2c6b146101b2578063de802761146101e2578063f39f05f714610212578063fc10772014610242576100a9565b80630fbdd521146100ae578063101d4fb9146100de578063244ded7a1461010e57806355c1c4781461012a5780635f891d9814610148575b600080fd5b6100c860048036038101906100c39190610aa1565b61025e565b6040516100d59190610afc565b60405180910390f35b6100f860048036038101906100f39190610aa1565b610490565b6040516101059190610afc565b60405180910390f35b61012860048036038101906101239190610b17565b61050d565b005b6101326105de565b60405161013f9190610b53565b60405180910390f35b610162600480360381019061015d9190610ba4565b610608565b005b61016c610682565b6040516101799190610b53565b60405180910390f35b61019c60048036038101906101979190610be4565b6106a6565b6040516101a99190610ccf565b60405180910390f35b6101cc60048036038101906101c79190610be4565b61076b565b6040516101d99190610d68565b60405180910390f35b6101fc60048036038101906101f79190610ba4565b6107e6565b6040516102099190610b53565b60405180910390f35b61022c60048036038101906102279190610b17565b610834565b6040516102399190610d68565b60405180910390f35b61025c60048036038101906102579190610be4565b610854565b005b60008083905061026d8361076b565b600481111561027f5761027e610cf1565b5b8173ffffffffffffffffffffffffffffffffffffffff1663f39f05f7306040518263ffffffff1660e01b81526004016102b89190610b53565b602060405180830381865afa1580156102d5573d6000803e3d6000fd5b505050506040513d601f19601f820116820180604052508101906102f99190610d98565b600481111561030b5761030a610cf1565b5b0361041d576003600084600481111561032757610326610cf1565b5b600481111561033957610338610cf1565b5b8152602001908152602001600020849080600181540180825580915050600190039060005260206000200160009091909190916101000a81548173ffffffffffffffffffffffffffffffffffffffff021916908373ffffffffffffffffffffffffffffffffffffffff1602179055508073ffffffffffffffffffffffffffffffffffffffff1663fc107720846040518263ffffffff1660e01b81526004016103e19190610d68565b600060405180830381600087803b1580156103fb57600080fd5b505af115801561040f573d6000803e3d6000fd5b50505050600191505061048a565b82600260008673ffffffffffffffffffffffffffffffffffffffff1673ffffffffffffffffffffffffffffffffffffffff16815260200190815260200160002060006101000a81548160ff0219169083600481111561047f5761047e610cf1565b5b021790555060009150505b92915050565b60008160048111156104a5576104a4610cf1565b5b600260008573ffffffffffffffffffffffffffffffffffffffff1673ffffffffffffffffffffffffffffffffffffffff16815260200190815260200160002060009054906101000a900460ff16600481111561050457610503610cf1565b5b14905092915050565b60008054906101000a900473ffffffffffffffffffffffffffffffffffffffff1673ffffffffffffffffffffffffffffffffffffffff163373ffffffffffffffffffffffffffffffffffffffff161461059b576040517f08c379a000000000000000000000000000000000000000000000000000000000815260040161059290610e22565b60405180910390fd5b806000806101000a81548173ffffffffffffffffffffffffffffffffffffffff021916908373ffffffffffffffffffffffffffffffffffffffff16021790555050565b6000600160009054906101000a900473ffffffffffffffffffffffffffffffffffffffff16905090565b6003600083600481111561061f5761061e610cf1565b5b600481111561063157610630610cf1565b5b8152602001908152602001600020818154811061065157610650610e42565b5b9060005260206000200160006101000a81549073ffffffffffffffffffffffffffffffffffffffff02191690555050565b60008054906101000a900473ffffffffffffffffffffffffffffffffffffffff1681565b6060600360008360048111156106bf576106be610cf1565b5b60048111156106d1576106d0610cf1565b5b815260200190815260200160002080548060200260200160405190810160405280929190818152602001828054801561075f57602002820191906000526020600020905b8160009054906101000a900473ffffffffffffffffffffffffffffffffffffffff1673ffffffffffffffffffffffffffffffffffffffff1681526020019060010190808311610715575b50505050509050919050565b60008082600481111561078157610780610cf1565b5b905060006002826107929190610ea0565b036107be576001816107a49190610f00565b60048111156107b6576107b5610cf1565b5b9150506107e1565b6001816107cb9190610f34565b60048111156107dd576107dc610cf1565b5b9150505b919050565b6003602052816000526040600020818154811061080257600080fd5b906000526020600020016000915091509054906101000a900473ffffffffffffffffffffffffffffffffffffffff1681565b60026020528060005260406000206000915054906101000a900460ff1681565b61085d8161076b565b600481111561086f5761086e610cf1565b5b600260003373ffffffffffffffffffffffffffffffffffffffff1673ffffffffffffffffffffffffffffffffffffffff16815260200190815260200160002060009054906101000a900460ff1660048111156108ce576108cd610cf1565b5b1461090e576040517f08c379a000000000000000000000000000000000000000000000000000000000815260040161090590610fb4565b60405180910390fd5b6000600260003373ffffffffffffffffffffffffffffffffffffffff1673ffffffffffffffffffffffffffffffffffffffff16815260200190815260200160002060006101000a81548160ff0219169083600481111561097157610970610cf1565b5b0217905550600360006109838361076b565b600481111561099557610994610cf1565b5b60048111156109a7576109a6610cf1565b5b8152602001908152602001600020339080600181540180825580915050600190039060005260206000200160009091909190916101000a81548173ffffffffffffffffffffffffffffffffffffffff021916908373ffffffffffffffffffffffffffffffffffffffff16021790555050565b600080fd5b600073ffffffffffffffffffffffffffffffffffffffff82169050919050565b6000610a4982610a1e565b9050919050565b610a5981610a3e565b8114610a6457600080fd5b50565b600081359050610a7681610a50565b92915050565b60058110610a8957600080fd5b50565b600081359050610a9b81610a7c565b92915050565b60008060408385031215610ab857610ab7610a19565b5b6000610ac685828601610a67565b9250506020610ad785828601610a8c565b9150509250929050565b60008115159050919050565b610af681610ae1565b82525050565b6000602082019050610b116000830184610aed565b92915050565b600060208284031215610b2d57610b2c610a19565b5b6000610b3b84828501610a67565b91505092915050565b610b4d81610a3e565b82525050565b6000602082019050610b686000830184610b44565b92915050565b6000819050919050565b610b8181610b6e565b8114610b8c57600080fd5b50565b600081359050610b9e81610b78565b92915050565b60008060408385031215610bbb57610bba610a19565b5b6000610bc985828601610a8c565b9250506020610bda85828601610b8f565b9150509250929050565b600060208284031215610bfa57610bf9610a19565b5b6000610c0884828501610a8c565b91505092915050565b600081519050919050565b600082825260208201905092915050565b6000819050602082019050919050565b610c4681610a3e565b82525050565b6000610c588383610c3d565b60208301905092915050565b6000602082019050919050565b6000610c7c82610c11565b610c868185610c1c565b9350610c9183610c2d565b8060005b83811015610cc2578151610ca98882610c4c565b9750610cb483610c64565b925050600181019050610c95565b5085935050505092915050565b60006020820190508181036000830152610ce98184610c71565b905092915050565b7f4e487b7100000000000000000000000000000000000000000000000000000000600052602160045260246000fd5b60058110610d3157610d30610cf1565b5b50565b6000819050610d4282610d20565b919050565b6000610d5282610d34565b9050919050565b610d6281610d47565b82525050565b6000602082019050610d7d6000830184610d59565b92915050565b600081519050610d9281610a7c565b92915050565b600060208284031215610dae57610dad610a19565b5b6000610dbc84828501610d83565b91505092915050565b600082825260208201905092915050565b7f63616c6c6572206d757374206265206f776e6572000000000000000000000000600082015250565b6000610e0c601483610dc5565b9150610e1782610dd6565b602082019050919050565b60006020820190508181036000830152610e3b81610dff565b9050919050565b7f4e487b7100000000000000000000000000000000000000000000000000000000600052603260045260246000fd5b7f4e487b7100000000000000000000000000000000000000000000000000000000600052601260045260246000fd5b6000610eab82610b6e565b9150610eb683610b6e565b925082610ec657610ec5610e71565b5b828206905092915050565b7f4e487b7100000000000000000000000000000000000000000000000000000000600052601160045260246000fd5b6000610f0b82610b6e565b9150610f1683610b6e565b9250828203905081811115610f2e57610f2d610ed1565b5b92915050565b6000610f3f82610b6e565b9150610f4a83610b6e565b9250828201905080821115610f6257610f61610ed1565b5b92915050565b7f526571756573746f72206973206e6f7420612063616e6469646174652e000000600082015250565b6000610f9e601d83610dc5565b9150610fa982610f68565b602082019050919050565b60006020820190508181036000830152610fcd81610f91565b905091905056fea26469706673582212209ba9849de4d17ff055dd905816c85ff997d8f6c65107bdd5a5301753a7260e3a64736f6c63430008120033",
					"opcodes": "PUSH1 0x80 PUSH1 0x40 MSTORE CALLVALUE DUP1 ISZERO PUSH2 0x10 JUMPI PUSH1 0x0 DUP1 REVERT JUMPDEST POP CALLER PUSH1 0x0 DUP1 PUSH2 0x100 EXP DUP2 SLOAD DUP2 PUSH20 0xFFFFFFFFFFFFFFFFFFFFFFFFFFFFFFFFFFFFFFFF MUL NOT AND SWAP1 DUP4 PUSH20 0xFFFFFFFFFFFFFFFFFFFFFFFFFFFFFFFFFFFFFFFF AND MUL OR SWAP1 SSTORE POP PUSH2 0x100A DUP1 PUSH2 0x60 PUSH1 0x0 CODECOPY PUSH1 0x0 RETURN INVALID PUSH1 0x80 PUSH1 0x40 MSTORE CALLVALUE DUP1 ISZERO PUSH2 0x10 JUMPI PUSH1 0x0 DUP1 REVERT JUMPDEST POP PUSH1 0x4 CALLDATASIZE LT PUSH2 0xA9 JUMPI PUSH1 0x0 CALLDATALOAD PUSH1 0xE0 SHR DUP1 PUSH4 0x8DA5CB5B GT PUSH2 0x71 JUMPI DUP1 PUSH4 0x8DA5CB5B EQ PUSH2 0x164 JUMPI DUP1 PUSH4 0x9407921C EQ PUSH2 0x182 JUMPI DUP1 PUSH4 0xCA9D2C6B EQ PUSH2 0x1B2 JUMPI DUP1 PUSH4 0xDE802761 EQ PUSH2 0x1E2 JUMPI DUP1 PUSH4 0xF39F05F7 EQ PUSH2 0x212 JUMPI DUP1 PUSH4 0xFC107720 EQ PUSH2 0x242 JUMPI PUSH2 0xA9 JUMP JUMPDEST DUP1 PUSH4 0xFBDD521 EQ PUSH2 0xAE JUMPI DUP1 PUSH4 0x101D4FB9 EQ PUSH2 0xDE JUMPI DUP1 PUSH4 0x244DED7A EQ PUSH2 0x10E JUMPI DUP1 PUSH4 0x55C1C478 EQ PUSH2 0x12A JUMPI DUP1 PUSH4 0x5F891D98 EQ PUSH2 0x148 JUMPI JUMPDEST PUSH1 0x0 DUP1 REVERT JUMPDEST PUSH2 0xC8 PUSH1 0x4 DUP1 CALLDATASIZE SUB DUP2 ADD SWAP1 PUSH2 0xC3 SWAP2 SWAP1 PUSH2 0xAA1 JUMP JUMPDEST PUSH2 0x25E JUMP JUMPDEST PUSH1 0x40 MLOAD PUSH2 0xD5 SWAP2 SWAP1 PUSH2 0xAFC JUMP JUMPDEST PUSH1 0x40 MLOAD DUP1 SWAP2 SUB SWAP1 RETURN JUMPDEST PUSH2 0xF8 PUSH1 0x4 DUP1 CALLDATASIZE SUB DUP2 ADD SWAP1 PUSH2 0xF3 SWAP2 SWAP1 PUSH2 0xAA1 JUMP JUMPDEST PUSH2 0x490 JUMP JUMPDEST PUSH1 0x40 MLOAD PUSH2 0x105 SWAP2 SWAP1 PUSH2 0xAFC JUMP JUMPDEST PUSH1 0x40 MLOAD DUP1 SWAP2 SUB SWAP1 RETURN JUMPDEST PUSH2 0x128 PUSH1 0x4 DUP1 CALLDATASIZE SUB DUP2 ADD SWAP1 PUSH2 0x123 SWAP2 SWAP1 PUSH2 0xB17 JUMP JUMPDEST PUSH2 0x50D JUMP JUMPDEST STOP JUMPDEST PUSH2 0x132 PUSH2 0x5DE JUMP JUMPDEST PUSH1 0x40 MLOAD PUSH2 0x13F SWAP2 SWAP1 PUSH2 0xB53 JUMP JUMPDEST PUSH1 0x40 MLOAD DUP1 SWAP2 SUB SWAP1 RETURN JUMPDEST PUSH2 0x162 PUSH1 0x4 DUP1 CALLDATASIZE SUB DUP2 ADD SWAP1 PUSH2 0x15D SWAP2 SWAP1 PUSH2 0xBA4 JUMP JUMPDEST PUSH2 0x608 JUMP JUMPDEST STOP JUMPDEST PUSH2 0x16C PUSH2 0x682 JUMP JUMPDEST PUSH1 0x40 MLOAD PUSH2 0x179 SWAP2 SWAP1 PUSH2 0xB53 JUMP JUMPDEST PUSH1 0x40 MLOAD DUP1 SWAP2 SUB SWAP1 RETURN JUMPDEST PUSH2 0x19C PUSH1 0x4 DUP1 CALLDATASIZE SUB DUP2 ADD SWAP1 PUSH2 0x197 SWAP2 SWAP1 PUSH2 0xBE4 JUMP JUMPDEST PUSH2 0x6A6 JUMP JUMPDEST PUSH1 0x40 MLOAD PUSH2 0x1A9 SWAP2 SWAP1 PUSH2 0xCCF JUMP JUMPDEST PUSH1 0x40 MLOAD DUP1 SWAP2 SUB SWAP1 RETURN JUMPDEST PUSH2 0x1CC PUSH1 0x4 DUP1 CALLDATASIZE SUB DUP2 ADD SWAP1 PUSH2 0x1C7 SWAP2 SWAP1 PUSH2 0xBE4 JUMP JUMPDEST PUSH2 0x76B JUMP JUMPDEST PUSH1 0x40 MLOAD PUSH2 0x1D9 SWAP2 SWAP1 PUSH2 0xD68 JUMP JUMPDEST PUSH1 0x40 MLOAD DUP1 SWAP2 SUB SWAP1 RETURN JUMPDEST PUSH2 0x1FC PUSH1 0x4 DUP1 CALLDATASIZE SUB DUP2 ADD SWAP1 PUSH2 0x1F7 SWAP2 SWAP1 PUSH2 0xBA4 JUMP JUMPDEST PUSH2 0x7E6 JUMP JUMPDEST PUSH1 0x40 MLOAD PUSH2 0x209 SWAP2 SWAP1 PUSH2 0xB53 JUMP JUMPDEST PUSH1 0x40 MLOAD DUP1 SWAP2 SUB SWAP1 RETURN JUMPDEST PUSH2 0x22C PUSH1 0x4 DUP1 CALLDATASIZE SUB DUP2 ADD SWAP1 PUSH2 0x227 SWAP2 SWAP1 PUSH2 0xB17 JUMP JUMPDEST PUSH2 0x834 JUMP JUMPDEST PUSH1 0x40 MLOAD PUSH2 0x239 SWAP2 SWAP1 PUSH2 0xD68 JUMP JUMPDEST PUSH1 0x40 MLOAD DUP1 SWAP2 SUB SWAP1 RETURN JUMPDEST PUSH2 0x25C PUSH1 0x4 DUP1 CALLDATASIZE SUB DUP2 ADD SWAP1 PUSH2 0x257 SWAP2 SWAP1 PUSH2 0xBE4 JUMP JUMPDEST PUSH2 0x854 JUMP JUMPDEST STOP JUMPDEST PUSH1 0x0 DUP1 DUP4 SWAP1 POP PUSH2 0x26D DUP4 PUSH2 0x76B JUMP JUMPDEST PUSH1 0x4 DUP2 GT ISZERO PUSH2 0x27F JUMPI PUSH2 0x27E PUSH2 0xCF1 JUMP JUMPDEST JUMPDEST DUP2 PUSH20 0xFFFFFFFFFFFFFFFFFFFFFFFFFFFFFFFFFFFFFFFF AND PUSH4 0xF39F05F7 ADDRESS PUSH1 0x40 MLOAD DUP3 PUSH4 0xFFFFFFFF AND PUSH1 0xE0 SHL DUP2 MSTORE PUSH1 0x4 ADD PUSH2 0x2B8 SWAP2 SWAP1 PUSH2 0xB53 JUMP JUMPDEST PUSH1 0x20 PUSH1 0x40 MLOAD DUP1 DUP4 SUB DUP2 DUP7 GAS STATICCALL ISZERO DUP1 ISZERO PUSH2 0x2D5 JUMPI RETURNDATASIZE PUSH1 0x0 DUP1 RETURNDATACOPY RETURNDATASIZE PUSH1 0x0 REVERT JUMPDEST POP POP POP POP PUSH1 0x40 MLOAD RETURNDATASIZE PUSH1 0x1F NOT PUSH1 0x1F DUP3 ADD AND DUP3 ADD DUP1 PUSH1 0x40 MSTORE POP DUP2 ADD SWAP1 PUSH2 0x2F9 SWAP2 SWAP1 PUSH2 0xD98 JUMP JUMPDEST PUSH1 0x4 DUP2 GT ISZERO PUSH2 0x30B JUMPI PUSH2 0x30A PUSH2 0xCF1 JUMP JUMPDEST JUMPDEST SUB PUSH2 0x41D JUMPI PUSH1 0x3 PUSH1 0x0 DUP5 PUSH1 0x4 DUP2 GT ISZERO PUSH2 0x327 JUMPI PUSH2 0x326 PUSH2 0xCF1 JUMP JUMPDEST JUMPDEST PUSH1 0x4 DUP2 GT ISZERO PUSH2 0x339 JUMPI PUSH2 0x338 PUSH2 0xCF1 JUMP JUMPDEST JUMPDEST DUP2 MSTORE PUSH1 0x20 ADD SWAP1 DUP2 MSTORE PUSH1 0x20 ADD PUSH1 0x0 KECCAK256 DUP5 SWAP1 DUP1 PUSH1 0x1 DUP2 SLOAD ADD DUP1 DUP3 SSTORE DUP1 SWAP2 POP POP PUSH1 0x1 SWAP1 SUB SWAP1 PUSH1 0x0 MSTORE PUSH1 0x20 PUSH1 0x0 KECCAK256 ADD PUSH1 0x0 SWAP1 SWAP2 SWAP1 SWAP2 SWAP1 SWAP2 PUSH2 0x100 EXP DUP2 SLOAD DUP2 PUSH20 0xFFFFFFFFFFFFFFFFFFFFFFFFFFFFFFFFFFFFFFFF MUL NOT AND SWAP1 DUP4 PUSH20 0xFFFFFFFFFFFFFFFFFFFFFFFFFFFFFFFFFFFFFFFF AND MUL OR SWAP1 SSTORE POP DUP1 PUSH20 0xFFFFFFFFFFFFFFFFFFFFFFFFFFFFFFFFFFFFFFFF AND PUSH4 0xFC107720 DUP5 PUSH1 0x40 MLOAD DUP3 PUSH4 0xFFFFFFFF AND PUSH1 0xE0 SHL DUP2 MSTORE PUSH1 0x4 ADD PUSH2 0x3E1 SWAP2 SWAP1 PUSH2 0xD68 JUMP JUMPDEST PUSH1 0x0 PUSH1 0x40 MLOAD DUP1 DUP4 SUB DUP2 PUSH1 0x0 DUP8 DUP1 EXTCODESIZE ISZERO DUP1 ISZERO PUSH2 0x3FB JUMPI PUSH1 0x0 DUP1 REVERT JUMPDEST POP GAS CALL ISZERO DUP1 ISZERO PUSH2 0x40F JUMPI RETURNDATASIZE PUSH1 0x0 DUP1 RETURNDATACOPY RETURNDATASIZE PUSH1 0x0 REVERT JUMPDEST POP POP POP POP PUSH1 0x1 SWAP2 POP POP PUSH2 0x48A JUMP JUMPDEST DUP3 PUSH1 0x2 PUSH1 0x0 DUP7 PUSH20 0xFFFFFFFFFFFFFFFFFFFFFFFFFFFFFFFFFFFFFFFF AND PUSH20 0xFFFFFFFFFFFFFFFFFFFFFFFFFFFFFFFFFFFFFFFF AND DUP2 MSTORE PUSH1 0x20 ADD SWAP1 DUP2 MSTORE PUSH1 0x20 ADD PUSH1 0x0 KECCAK256 PUSH1 0x0 PUSH2 0x100 EXP DUP2 SLOAD DUP2 PUSH1 0xFF MUL NOT AND SWAP1 DUP4 PUSH1 0x4 DUP2 GT ISZERO PUSH2 0x47F JUMPI PUSH2 0x47E PUSH2 0xCF1 JUMP JUMPDEST JUMPDEST MUL OR SWAP1 SSTORE POP PUSH1 0x0 SWAP2 POP POP JUMPDEST SWAP3 SWAP2 POP POP JUMP JUMPDEST PUSH1 0x0 DUP2 PUSH1 0x4 DUP2 GT ISZERO PUSH2 0x4A5 JUMPI PUSH2 0x4A4 PUSH2 0xCF1 JUMP JUMPDEST JUMPDEST PUSH1 0x2 PUSH1 0x0 DUP6 PUSH20 0xFFFFFFFFFFFFFFFFFFFFFFFFFFFFFFFFFFFFFFFF AND PUSH20 0xFFFFFFFFFFFFFFFFFFFFFFFFFFFFFFFFFFFFFFFF AND DUP2 MSTORE PUSH1 0x20 ADD SWAP1 DUP2 MSTORE PUSH1 0x20 ADD PUSH1 0x0 KECCAK256 PUSH1 0x0 SWAP1 SLOAD SWAP1 PUSH2 0x100 EXP SWAP1 DIV PUSH1 0xFF AND PUSH1 0x4 DUP2 GT ISZERO PUSH2 0x504 JUMPI PUSH2 0x503 PUSH2 0xCF1 JUMP JUMPDEST JUMPDEST EQ SWAP1 POP SWAP3 SWAP2 POP POP JUMP JUMPDEST PUSH1 0x0 DUP1 SLOAD SWAP1 PUSH2 0x100 EXP SWAP1 DIV PUSH20 0xFFFFFFFFFFFFFFFFFFFFFFFFFFFFFFFFFFFFFFFF AND PUSH20 0xFFFFFFFFFFFFFFFFFFFFFFFFFFFFFFFFFFFFFFFF AND CALLER PUSH20 0xFFFFFFFFFFFFFFFFFFFFFFFFFFFFFFFFFFFFFFFF AND EQ PUSH2 0x59B JUMPI PUSH1 0x40 MLOAD PUSH32 0x8C379A000000000000000000000000000000000000000000000000000000000 DUP2 MSTORE PUSH1 0x4 ADD PUSH2 0x592 SWAP1 PUSH2 0xE22 JUMP JUMPDEST PUSH1 0x40 MLOAD DUP1 SWAP2 SUB SWAP1 REVERT JUMPDEST DUP1 PUSH1 0x0 DUP1 PUSH2 0x100 EXP DUP2 SLOAD DUP2 PUSH20 0xFFFFFFFFFFFFFFFFFFFFFFFFFFFFFFFFFFFFFFFF MUL NOT AND SWAP1 DUP4 PUSH20 0xFFFFFFFFFFFFFFFFFFFFFFFFFFFFFFFFFFFFFFFF AND MUL OR SWAP1 SSTORE POP POP JUMP JUMPDEST PUSH1 0x0 PUSH1 0x1 PUSH1 0x0 SWAP1 SLOAD SWAP1 PUSH2 0x100 EXP SWAP1 DIV PUSH20 0xFFFFFFFFFFFFFFFFFFFFFFFFFFFFFFFFFFFFFFFF AND SWAP1 POP SWAP1 JUMP JUMPDEST PUSH1 0x3 PUSH1 0x0 DUP4 PUSH1 0x4 DUP2 GT ISZERO PUSH2 0x61F JUMPI PUSH2 0x61E PUSH2 0xCF1 JUMP JUMPDEST JUMPDEST PUSH1 0x4 DUP2 GT ISZERO PUSH2 0x631 JUMPI PUSH2 0x630 PUSH2 0xCF1 JUMP JUMPDEST JUMPDEST DUP2 MSTORE PUSH1 0x20 ADD SWAP1 DUP2 MSTORE PUSH1 0x20 ADD PUSH1 0x0 KECCAK256 DUP2 DUP2 SLOAD DUP2 LT PUSH2 0x651 JUMPI PUSH2 0x650 PUSH2 0xE42 JUMP JUMPDEST JUMPDEST SWAP1 PUSH1 0x0 MSTORE PUSH1 0x20 PUSH1 0x0 KECCAK256 ADD PUSH1 0x0 PUSH2 0x100 EXP DUP2 SLOAD SWAP1 PUSH20 0xFFFFFFFFFFFFFFFFFFFFFFFFFFFFFFFFFFFFFFFF MUL NOT AND SWAP1 SSTORE POP POP JUMP JUMPDEST PUSH1 0x0 DUP1 SLOAD SWAP1 PUSH2 0x100 EXP SWAP1 DIV PUSH20 0xFFFFFFFFFFFFFFFFFFFFFFFFFFFFFFFFFFFFFFFF AND DUP2 JUMP JUMPDEST PUSH1 0x60 PUSH1 0x3 PUSH1 0x0 DUP4 PUSH1 0x4 DUP2 GT ISZERO PUSH2 0x6BF JUMPI PUSH2 0x6BE PUSH2 0xCF1 JUMP JUMPDEST JUMPDEST PUSH1 0x4 DUP2 GT ISZERO PUSH2 0x6D1 JUMPI PUSH2 0x6D0 PUSH2 0xCF1 JUMP JUMPDEST JUMPDEST DUP2 MSTORE PUSH1 0x20 ADD SWAP1 DUP2 MSTORE PUSH1 0x20 ADD PUSH1 0x0 KECCAK256 DUP1 SLOAD DUP1 PUSH1 0x20 MUL PUSH1 0x20 ADD PUSH1 0x40 MLOAD SWAP1 DUP2 ADD PUSH1 0x40 MSTORE DUP1 SWAP3 SWAP2 SWAP1 DUP2 DUP2 MSTORE PUSH1 0x20 ADD DUP3 DUP1 SLOAD DUP1 ISZERO PUSH2 0x75F JUMPI PUSH1 0x20 MUL DUP3 ADD SWAP2 SWAP1 PUSH1 0x0 MSTORE PUSH1 0x20 PUSH1 0x0 KECCAK256 SWAP1 JUMPDEST DUP2 PUSH1 0x0 SWAP1 SLOAD SWAP1 PUSH2 0x100 EXP SWAP1 DIV PUSH20 0xFFFFFFFFFFFFFFFFFFFFFFFFFFFFFFFFFFFFFFFF AND PUSH20 0xFFFFFFFFFFFFFFFFFFFFFFFFFFFFFFFFFFFFFFFF AND DUP2 MSTORE PUSH1 0x20 ADD SWAP1 PUSH1 0x1 ADD SWAP1 DUP1 DUP4 GT PUSH2 0x715 JUMPI JUMPDEST POP POP POP POP POP SWAP1 POP SWAP2 SWAP1 POP JUMP JUMPDEST PUSH1 0x0 DUP1 DUP3 PUSH1 0x4 DUP2 GT ISZERO PUSH2 0x781 JUMPI PUSH2 0x780 PUSH2 0xCF1 JUMP JUMPDEST JUMPDEST SWAP1 POP PUSH1 0x0 PUSH1 0x2 DUP3 PUSH2 0x792 SWAP2 SWAP1 PUSH2 0xEA0 JUMP JUMPDEST SUB PUSH2 0x7BE JUMPI PUSH1 0x1 DUP2 PUSH2 0x7A4 SWAP2 SWAP1 PUSH2 0xF00 JUMP JUMPDEST PUSH1 0x4 DUP2 GT ISZERO PUSH2 0x7B6 JUMPI PUSH2 0x7B5 PUSH2 0xCF1 JUMP JUMPDEST JUMPDEST SWAP2 POP POP PUSH2 0x7E1 JUMP JUMPDEST PUSH1 0x1 DUP2 PUSH2 0x7CB SWAP2 SWAP1 PUSH2 0xF34 JUMP JUMPDEST PUSH1 0x4 DUP2 GT ISZERO PUSH2 0x7DD JUMPI PUSH2 0x7DC PUSH2 0xCF1 JUMP JUMPDEST JUMPDEST SWAP2 POP POP JUMPDEST SWAP2 SWAP1 POP JUMP JUMPDEST PUSH1 0x3 PUSH1 0x20 MSTORE DUP2 PUSH1 0x0 MSTORE PUSH1 0x40 PUSH1 0x0 KECCAK256 DUP2 DUP2 SLOAD DUP2 LT PUSH2 0x802 JUMPI PUSH1 0x0 DUP1 REVERT JUMPDEST SWAP1 PUSH1 0x0 MSTORE PUSH1 0x20 PUSH1 0x0 KECCAK256 ADD PUSH1 0x0 SWAP2 POP SWAP2 POP SWAP1 SLOAD SWAP1 PUSH2 0x100 EXP SWAP1 DIV PUSH20 0xFFFFFFFFFFFFFFFFFFFFFFFFFFFFFFFFFFFFFFFF AND DUP2 JUMP JUMPDEST PUSH1 0x2 PUSH1 0x20 MSTORE DUP1 PUSH1 0x0 MSTORE PUSH1 0x40 PUSH1 0x0 KECCAK256 PUSH1 0x0 SWAP2 POP SLOAD SWAP1 PUSH2 0x100 EXP SWAP1 DIV PUSH1 0xFF AND DUP2 JUMP JUMPDEST PUSH2 0x85D DUP2 PUSH2 0x76B JUMP JUMPDEST PUSH1 0x4 DUP2 GT ISZERO PUSH2 0x86F JUMPI PUSH2 0x86E PUSH2 0xCF1 JUMP JUMPDEST JUMPDEST PUSH1 0x2 PUSH1 0x0 CALLER PUSH20 0xFFFFFFFFFFFFFFFFFFFFFFFFFFFFFFFFFFFFFFFF AND PUSH20 0xFFFFFFFFFFFFFFFFFFFFFFFFFFFFFFFFFFFFFFFF AND DUP2 MSTORE PUSH1 0x20 ADD SWAP1 DUP2 MSTORE PUSH1 0x20 ADD PUSH1 0x0 KECCAK256 PUSH1 0x0 SWAP1 SLOAD SWAP1 PUSH2 0x100 EXP SWAP1 DIV PUSH1 0xFF AND PUSH1 0x4 DUP2 GT ISZERO PUSH2 0x8CE JUMPI PUSH2 0x8CD PUSH2 0xCF1 JUMP JUMPDEST JUMPDEST EQ PUSH2 0x90E JUMPI PUSH1 0x40 MLOAD PUSH32 0x8C379A000000000000000000000000000000000000000000000000000000000 DUP2 MSTORE PUSH1 0x4 ADD PUSH2 0x905 SWAP1 PUSH2 0xFB4 JUMP JUMPDEST PUSH1 0x40 MLOAD DUP1 SWAP2 SUB SWAP1 REVERT JUMPDEST PUSH1 0x0 PUSH1 0x2 PUSH1 0x0 CALLER PUSH20 0xFFFFFFFFFFFFFFFFFFFFFFFFFFFFFFFFFFFFFFFF AND PUSH20 0xFFFFFFFFFFFFFFFFFFFFFFFFFFFFFFFFFFFFFFFF AND DUP2 MSTORE PUSH1 0x20 ADD SWAP1 DUP2 MSTORE PUSH1 0x20 ADD PUSH1 0x0 KECCAK256 PUSH1 0x0 PUSH2 0x100 EXP DUP2 SLOAD DUP2 PUSH1 0xFF MUL NOT AND SWAP1 DUP4 PUSH1 0x4 DUP2 GT ISZERO PUSH2 0x971 JUMPI PUSH2 0x970 PUSH2 0xCF1 JUMP JUMPDEST JUMPDEST MUL OR SWAP1 SSTORE POP PUSH1 0x3 PUSH1 0x0 PUSH2 0x983 DUP4 PUSH2 0x76B JUMP JUMPDEST PUSH1 0x4 DUP2 GT ISZERO PUSH2 0x995 JUMPI PUSH2 0x994 PUSH2 0xCF1 JUMP JUMPDEST JUMPDEST PUSH1 0x4 DUP2 GT ISZERO PUSH2 0x9A7 JUMPI PUSH2 0x9A6 PUSH2 0xCF1 JUMP JUMPDEST JUMPDEST DUP2 MSTORE PUSH1 0x20 ADD SWAP1 DUP2 MSTORE PUSH1 0x20 ADD PUSH1 0x0 KECCAK256 CALLER SWAP1 DUP1 PUSH1 0x1 DUP2 SLOAD ADD DUP1 DUP3 SSTORE DUP1 SWAP2 POP POP PUSH1 0x1 SWAP1 SUB SWAP1 PUSH1 0x0 MSTORE PUSH1 0x20 PUSH1 0x0 KECCAK256 ADD PUSH1 0x0 SWAP1 SWAP2 SWAP1 SWAP2 SWAP1 SWAP2 PUSH2 0x100 EXP DUP2 SLOAD DUP2 PUSH20 0xFFFFFFFFFFFFFFFFFFFFFFFFFFFFFFFFFFFFFFFF MUL NOT AND SWAP1 DUP4 PUSH20 0xFFFFFFFFFFFFFFFFFFFFFFFFFFFFFFFFFFFFFFFF AND MUL OR SWAP1 SSTORE POP POP JUMP JUMPDEST PUSH1 0x0 DUP1 REVERT JUMPDEST PUSH1 0x0 PUSH20 0xFFFFFFFFFFFFFFFFFFFFFFFFFFFFFFFFFFFFFFFF DUP3 AND SWAP1 POP SWAP2 SWAP1 POP JUMP JUMPDEST PUSH1 0x0 PUSH2 0xA49 DUP3 PUSH2 0xA1E JUMP JUMPDEST SWAP1 POP SWAP2 SWAP1 POP JUMP JUMPDEST PUSH2 0xA59 DUP2 PUSH2 0xA3E JUMP JUMPDEST DUP2 EQ PUSH2 0xA64 JUMPI PUSH1 0x0 DUP1 REVERT JUMPDEST POP JUMP JUMPDEST PUSH1 0x0 DUP2 CALLDATALOAD SWAP1 POP PUSH2 0xA76 DUP2 PUSH2 0xA50 JUMP JUMPDEST SWAP3 SWAP2 POP POP JUMP JUMPDEST PUSH1 0x5 DUP2 LT PUSH2 0xA89 JUMPI PUSH1 0x0 DUP1 REVERT JUMPDEST POP JUMP JUMPDEST PUSH1 0x0 DUP2 CALLDATALOAD SWAP1 POP PUSH2 0xA9B DUP2 PUSH2 0xA7C JUMP JUMPDEST SWAP3 SWAP2 POP POP JUMP JUMPDEST PUSH1 0x0 DUP1 PUSH1 0x40 DUP4 DUP6 SUB SLT ISZERO PUSH2 0xAB8 JUMPI PUSH2 0xAB7 PUSH2 0xA19 JUMP JUMPDEST JUMPDEST PUSH1 0x0 PUSH2 0xAC6 DUP6 DUP3 DUP7 ADD PUSH2 0xA67 JUMP JUMPDEST SWAP3 POP POP PUSH1 0x20 PUSH2 0xAD7 DUP6 DUP3 DUP7 ADD PUSH2 0xA8C JUMP JUMPDEST SWAP2 POP POP SWAP3 POP SWAP3 SWAP1 POP JUMP JUMPDEST PUSH1 0x0 DUP2 ISZERO ISZERO SWAP1 POP SWAP2 SWAP1 POP JUMP JUMPDEST PUSH2 0xAF6 DUP2 PUSH2 0xAE1 JUMP JUMPDEST DUP3 MSTORE POP POP JUMP JUMPDEST PUSH1 0x0 PUSH1 0x20 DUP3 ADD SWAP1 POP PUSH2 0xB11 PUSH1 0x0 DUP4 ADD DUP5 PUSH2 0xAED JUMP JUMPDEST SWAP3 SWAP2 POP POP JUMP JUMPDEST PUSH1 0x0 PUSH1 0x20 DUP3 DUP5 SUB SLT ISZERO PUSH2 0xB2D JUMPI PUSH2 0xB2C PUSH2 0xA19 JUMP JUMPDEST JUMPDEST PUSH1 0x0 PUSH2 0xB3B DUP5 DUP3 DUP6 ADD PUSH2 0xA67 JUMP JUMPDEST SWAP2 POP POP SWAP3 SWAP2 POP POP JUMP JUMPDEST PUSH2 0xB4D DUP2 PUSH2 0xA3E JUMP JUMPDEST DUP3 MSTORE POP POP JUMP JUMPDEST PUSH1 0x0 PUSH1 0x20 DUP3 ADD SWAP1 POP PUSH2 0xB68 PUSH1 0x0 DUP4 ADD DUP5 PUSH2 0xB44 JUMP JUMPDEST SWAP3 SWAP2 POP POP JUMP JUMPDEST PUSH1 0x0 DUP2 SWAP1 POP SWAP2 SWAP1 POP JUMP JUMPDEST PUSH2 0xB81 DUP2 PUSH2 0xB6E JUMP JUMPDEST DUP2 EQ PUSH2 0xB8C JUMPI PUSH1 0x0 DUP1 REVERT JUMPDEST POP JUMP JUMPDEST PUSH1 0x0 DUP2 CALLDATALOAD SWAP1 POP PUSH2 0xB9E DUP2 PUSH2 0xB78 JUMP JUMPDEST SWAP3 SWAP2 POP POP JUMP JUMPDEST PUSH1 0x0 DUP1 PUSH1 0x40 DUP4 DUP6 SUB SLT ISZERO PUSH2 0xBBB JUMPI PUSH2 0xBBA PUSH2 0xA19 JUMP JUMPDEST JUMPDEST PUSH1 0x0 PUSH2 0xBC9 DUP6 DUP3 DUP7 ADD PUSH2 0xA8C JUMP JUMPDEST SWAP3 POP POP PUSH1 0x20 PUSH2 0xBDA DUP6 DUP3 DUP7 ADD PUSH2 0xB8F JUMP JUMPDEST SWAP2 POP POP SWAP3 POP SWAP3 SWAP1 POP JUMP JUMPDEST PUSH1 0x0 PUSH1 0x20 DUP3 DUP5 SUB SLT ISZERO PUSH2 0xBFA JUMPI PUSH2 0xBF9 PUSH2 0xA19 JUMP JUMPDEST JUMPDEST PUSH1 0x0 PUSH2 0xC08 DUP5 DUP3 DUP6 ADD PUSH2 0xA8C JUMP JUMPDEST SWAP2 POP POP SWAP3 SWAP2 POP POP JUMP JUMPDEST PUSH1 0x0 DUP2 MLOAD SWAP1 POP SWAP2 SWAP1 POP JUMP JUMPDEST PUSH1 0x0 DUP3 DUP3 MSTORE PUSH1 0x20 DUP3 ADD SWAP1 POP SWAP3 SWAP2 POP POP JUMP JUMPDEST PUSH1 0x0 DUP2 SWAP1 POP PUSH1 0x20 DUP3 ADD SWAP1 POP SWAP2 SWAP1 POP JUMP JUMPDEST PUSH2 0xC46 DUP2 PUSH2 0xA3E JUMP JUMPDEST DUP3 MSTORE POP POP JUMP JUMPDEST PUSH1 0x0 PUSH2 0xC58 DUP4 DUP4 PUSH2 0xC3D JUMP JUMPDEST PUSH1 0x20 DUP4 ADD SWAP1 POP SWAP3 SWAP2 POP POP JUMP JUMPDEST PUSH1 0x0 PUSH1 0x20 DUP3 ADD SWAP1 POP SWAP2 SWAP1 POP JUMP JUMPDEST PUSH1 0x0 PUSH2 0xC7C DUP3 PUSH2 0xC11 JUMP JUMPDEST PUSH2 0xC86 DUP2 DUP6 PUSH2 0xC1C JUMP JUMPDEST SWAP4 POP PUSH2 0xC91 DUP4 PUSH2 0xC2D JUMP JUMPDEST DUP1 PUSH1 0x0 JUMPDEST DUP4 DUP2 LT ISZERO PUSH2 0xCC2 JUMPI DUP2 MLOAD PUSH2 0xCA9 DUP9 DUP3 PUSH2 0xC4C JUMP JUMPDEST SWAP8 POP PUSH2 0xCB4 DUP4 PUSH2 0xC64 JUMP JUMPDEST SWAP3 POP POP PUSH1 0x1 DUP2 ADD SWAP1 POP PUSH2 0xC95 JUMP JUMPDEST POP DUP6 SWAP4 POP POP POP POP SWAP3 SWAP2 POP POP JUMP JUMPDEST PUSH1 0x0 PUSH1 0x20 DUP3 ADD SWAP1 POP DUP2 DUP2 SUB PUSH1 0x0 DUP4 ADD MSTORE PUSH2 0xCE9 DUP2 DUP5 PUSH2 0xC71 JUMP JUMPDEST SWAP1 POP SWAP3 SWAP2 POP POP JUMP JUMPDEST PUSH32 0x4E487B7100000000000000000000000000000000000000000000000000000000 PUSH1 0x0 MSTORE PUSH1 0x21 PUSH1 0x4 MSTORE PUSH1 0x24 PUSH1 0x0 REVERT JUMPDEST PUSH1 0x5 DUP2 LT PUSH2 0xD31 JUMPI PUSH2 0xD30 PUSH2 0xCF1 JUMP JUMPDEST JUMPDEST POP JUMP JUMPDEST PUSH1 0x0 DUP2 SWAP1 POP PUSH2 0xD42 DUP3 PUSH2 0xD20 JUMP JUMPDEST SWAP2 SWAP1 POP JUMP JUMPDEST PUSH1 0x0 PUSH2 0xD52 DUP3 PUSH2 0xD34 JUMP JUMPDEST SWAP1 POP SWAP2 SWAP1 POP JUMP JUMPDEST PUSH2 0xD62 DUP2 PUSH2 0xD47 JUMP JUMPDEST DUP3 MSTORE POP POP JUMP JUMPDEST PUSH1 0x0 PUSH1 0x20 DUP3 ADD SWAP1 POP PUSH2 0xD7D PUSH1 0x0 DUP4 ADD DUP5 PUSH2 0xD59 JUMP JUMPDEST SWAP3 SWAP2 POP POP JUMP JUMPDEST PUSH1 0x0 DUP2 MLOAD SWAP1 POP PUSH2 0xD92 DUP2 PUSH2 0xA7C JUMP JUMPDEST SWAP3 SWAP2 POP POP JUMP JUMPDEST PUSH1 0x0 PUSH1 0x20 DUP3 DUP5 SUB SLT ISZERO PUSH2 0xDAE JUMPI PUSH2 0xDAD PUSH2 0xA19 JUMP JUMPDEST JUMPDEST PUSH1 0x0 PUSH2 0xDBC DUP5 DUP3 DUP6 ADD PUSH2 0xD83 JUMP JUMPDEST SWAP2 POP POP SWAP3 SWAP2 POP POP JUMP JUMPDEST PUSH1 0x0 DUP3 DUP3 MSTORE PUSH1 0x20 DUP3 ADD SWAP1 POP SWAP3 SWAP2 POP POP JUMP JUMPDEST PUSH32 0x63616C6C6572206D757374206265206F776E6572000000000000000000000000 PUSH1 0x0 DUP3 ADD MSTORE POP JUMP JUMPDEST PUSH1 0x0 PUSH2 0xE0C PUSH1 0x14 DUP4 PUSH2 0xDC5 JUMP JUMPDEST SWAP2 POP PUSH2 0xE17 DUP3 PUSH2 0xDD6 JUMP JUMPDEST PUSH1 0x20 DUP3 ADD SWAP1 POP SWAP2 SWAP1 POP JUMP JUMPDEST PUSH1 0x0 PUSH1 0x20 DUP3 ADD SWAP1 POP DUP2 DUP2 SUB PUSH1 0x0 DUP4 ADD MSTORE PUSH2 0xE3B DUP2 PUSH2 0xDFF JUMP JUMPDEST SWAP1 POP SWAP2 SWAP1 POP JUMP JUMPDEST PUSH32 0x4E487B7100000000000000000000000000000000000000000000000000000000 PUSH1 0x0 MSTORE PUSH1 0x32 PUSH1 0x4 MSTORE PUSH1 0x24 PUSH1 0x0 REVERT JUMPDEST PUSH32 0x4E487B7100000000000000000000000000000000000000000000000000000000 PUSH1 0x0 MSTORE PUSH1 0x12 PUSH1 0x4 MSTORE PUSH1 0x24 PUSH1 0x0 REVERT JUMPDEST PUSH1 0x0 PUSH2 0xEAB DUP3 PUSH2 0xB6E JUMP JUMPDEST SWAP2 POP PUSH2 0xEB6 DUP4 PUSH2 0xB6E JUMP JUMPDEST SWAP3 POP DUP3 PUSH2 0xEC6 JUMPI PUSH2 0xEC5 PUSH2 0xE71 JUMP JUMPDEST JUMPDEST DUP3 DUP3 MOD SWAP1 POP SWAP3 SWAP2 POP POP JUMP JUMPDEST PUSH32 0x4E487B7100000000000000000000000000000000000000000000000000000000 PUSH1 0x0 MSTORE PUSH1 0x11 PUSH1 0x4 MSTORE PUSH1 0x24 PUSH1 0x0 REVERT JUMPDEST PUSH1 0x0 PUSH2 0xF0B DUP3 PUSH2 0xB6E JUMP JUMPDEST SWAP2 POP PUSH2 0xF16 DUP4 PUSH2 0xB6E JUMP JUMPDEST SWAP3 POP DUP3 DUP3 SUB SWAP1 POP DUP2 DUP2 GT ISZERO PUSH2 0xF2E JUMPI PUSH2 0xF2D PUSH2 0xED1 JUMP JUMPDEST JUMPDEST SWAP3 SWAP2 POP POP JUMP JUMPDEST PUSH1 0x0 PUSH2 0xF3F DUP3 PUSH2 0xB6E JUMP JUMPDEST SWAP2 POP PUSH2 0xF4A DUP4 PUSH2 0xB6E JUMP JUMPDEST SWAP3 POP DUP3 DUP3 ADD SWAP1 POP DUP1 DUP3 GT ISZERO PUSH2 0xF62 JUMPI PUSH2 0xF61 PUSH2 0xED1 JUMP JUMPDEST JUMPDEST SWAP3 SWAP2 POP POP JUMP JUMPDEST PUSH32 0x526571756573746F72206973206E6F7420612063616E6469646174652E000000 PUSH1 0x0 DUP3 ADD MSTORE POP JUMP JUMPDEST PUSH1 0x0 PUSH2 0xF9E PUSH1 0x1D DUP4 PUSH2 0xDC5 JUMP JUMPDEST SWAP2 POP PUSH2 0xFA9 DUP3 PUSH2 0xF68 JUMP JUMPDEST PUSH1 0x20 DUP3 ADD SWAP1 POP SWAP2 SWAP1 POP JUMP JUMPDEST PUSH1 0x0 PUSH1 0x20 DUP3 ADD SWAP1 POP DUP2 DUP2 SUB PUSH1 0x0 DUP4 ADD MSTORE PUSH2 0xFCD DUP2 PUSH2 0xF91 JUMP JUMPDEST SWAP1 POP SWAP2 SWAP1 POP JUMP INVALID LOG2 PUSH5 0x6970667358 0x22 SLT KECCAK256 SWAP12 0xA9 DUP5 SWAP14 0xE4 0xD1 PUSH32 0xF055DD905816C85FF997D8F6C65107BDD5A5301753A7260E3A64736F6C634300 ADDMOD SLT STOP CALLER "
				},
				"gasEstimates": {
					"creation": {
						"codeDepositCost": "821200",
						"executionCost": "25123",
						"totalCost": "846323"
					},
					"external": {
						"Accept_Candidate(uint8)": "infinite",
						"Candidates(address)": "3022",
						"ChangeOwnership(address)": "26934",
						"Delete_Id(uint8,uint256)": "27177",
						"Do_Handshake(address,uint8)": "infinite",
						"Get_Ids(uint8)": "infinite",
						"Get_Owner()": "2589",
						"Has_Candidate(address,uint8)": "3094",
						"Ids(uint8,uint256)": "5221",
						"owner()": "2511",
						"reverseRelation(uint8)": "infinite"
					}
				},
				"methodIdentifiers": {
					"Accept_Candidate(uint8)": "fc107720",
					"Candidates(address)": "f39f05f7",
					"ChangeOwnership(address)": "244ded7a",
					"Delete_Id(uint8,uint256)": "5f891d98",
					"Do_Handshake(address,uint8)": "0fbdd521",
					"Get_Ids(uint8)": "9407921c",
					"Get_Owner()": "55c1c478",
					"Has_Candidate(address,uint8)": "101d4fb9",
					"Ids(uint8,uint256)": "de802761",
					"owner()": "8da5cb5b",
					"reverseRelation(uint8)": "ca9d2c6b"
				}
			},
			"storageLayout": {
				"storage": [
					{
						"astId": 310,
						"contract": "contracts/Handshaker.sol:Handshaker",
						"label": "owner",
						"offset": 0,
						"slot": "0",
						"type": "t_address"
					},
					{
						"astId": 49,
						"contract": "contracts/Handshaker.sol:Handshaker",
						"label": "Owner",
						"offset": 0,
						"slot": "1",
						"type": "t_address"
					},
					{
						"astId": 54,
						"contract": "contracts/Handshaker.sol:Handshaker",
						"label": "Candidates",
						"offset": 0,
						"slot": "2",
						"type": "t_mapping(t_address,t_enum(relation)8)"
					},
					{
						"astId": 60,
						"contract": "contracts/Handshaker.sol:Handshaker",
						"label": "Ids",
						"offset": 0,
						"slot": "3",
						"type": "t_mapping(t_enum(relation)8,t_array(t_address)dyn_storage)"
					}
				],
				"types": {
					"t_address": {
						"encoding": "inplace",
						"label": "address",
						"numberOfBytes": "20"
					},
					"t_array(t_address)dyn_storage": {
						"base": "t_address",
						"encoding": "dynamic_array",
						"label": "address[]",
						"numberOfBytes": "32"
					},
					"t_enum(relation)8": {
						"encoding": "inplace",
						"label": "enum relation",
						"numberOfBytes": "1"
					},
					"t_mapping(t_address,t_enum(relation)8)": {
						"encoding": "mapping",
						"key": "t_address",
						"label": "mapping(address => enum relation)",
						"numberOfBytes": "32",
						"value": "t_enum(relation)8"
					},
					"t_mapping(t_enum(relation)8,t_array(t_address)dyn_storage)": {
						"encoding": "mapping",
						"key": "t_enum(relation)8",
						"label": "mapping(enum relation => address[])",
						"numberOfBytes": "32",
						"value": "t_array(t_address)dyn_storage"
					}
				}
			},
			"userdoc": {
				"kind": "user",
				"methods": {},
				"version": 1
			}
		}
	}
}