{
	"contracts/Product.sol": {
		"Product": {
			"abi": [
				{
					"inputs": [
						{
							"internalType": "string",
							"name": "_name",
							"type": "string"
						},
						{
							"internalType": "uint256",
							"name": "_carbonFootprint",
							"type": "uint256"
						},
						{
							"internalType": "address",
							"name": "_owner",
							"type": "address"
						}
					],
					"stateMutability": "nonpayable",
					"type": "constructor"
				},
				{
					"inputs": [
						{
							"internalType": "enum relation",
							"name": "r",
							"type": "uint8"
						}
					],
					"name": "Accept_Candidate",
					"outputs": [],
					"stateMutability": "nonpayable",
					"type": "function"
				},
				{
					"inputs": [
						{
							"internalType": "address",
							"name": "addr",
							"type": "address"
						},
						{
							"internalType": "enum relation",
							"name": "r",
							"type": "uint8"
						}
					],
					"name": "Add_Candidate",
					"outputs": [],
					"stateMutability": "nonpayable",
					"type": "function"
				},
				{
					"inputs": [
						{
							"internalType": "address",
							"name": "",
							"type": "address"
						}
					],
					"name": "Candidates",
					"outputs": [
						{
							"internalType": "enum relation",
							"name": "",
							"type": "uint8"
						}
					],
					"stateMutability": "view",
					"type": "function"
				},
				{
					"inputs": [
						{
							"internalType": "address",
							"name": "newOwner",
							"type": "address"
						}
					],
					"name": "ChangeOwnership",
					"outputs": [],
					"stateMutability": "nonpayable",
					"type": "function"
				},
				{
					"inputs": [
						{
							"internalType": "enum relation",
							"name": "r",
							"type": "uint8"
						},
						{
							"internalType": "uint256",
							"name": "index",
							"type": "uint256"
						}
					],
					"name": "Delete_Id",
					"outputs": [],
					"stateMutability": "nonpayable",
					"type": "function"
				},
				{
					"inputs": [
						{
							"internalType": "address",
							"name": "Address",
							"type": "address"
						},
						{
							"internalType": "enum relation",
							"name": "r",
							"type": "uint8"
						}
					],
					"name": "Do_Handshake",
					"outputs": [
						{
							"internalType": "bool",
							"name": "",
							"type": "bool"
						}
					],
					"stateMutability": "nonpayable",
					"type": "function"
				},
				{
					"inputs": [],
					"name": "Get_CarbonFootprint",
					"outputs": [
						{
							"internalType": "uint256",
							"name": "",
							"type": "uint256"
						}
					],
					"stateMutability": "view",
					"type": "function"
				},
				{
					"inputs": [
						{
							"internalType": "enum relation",
							"name": "r",
							"type": "uint8"
						}
					],
					"name": "Get_Ids",
					"outputs": [
						{
							"internalType": "address[]",
							"name": "",
							"type": "address[]"
						}
					],
					"stateMutability": "view",
					"type": "function"
				},
				{
					"inputs": [],
					"name": "Get_IpfsAddress",
					"outputs": [
						{
							"internalType": "string",
							"name": "",
							"type": "string"
						}
					],
					"stateMutability": "view",
					"type": "function"
				},
				{
					"inputs": [],
					"name": "Get_IsValue",
					"outputs": [
						{
							"internalType": "bool",
							"name": "",
							"type": "bool"
						}
					],
					"stateMutability": "view",
					"type": "function"
				},
				{
					"inputs": [],
					"name": "Get_LabelIDs",
					"outputs": [
						{
							"internalType": "address[]",
							"name": "",
							"type": "address[]"
						}
					],
					"stateMutability": "view",
					"type": "function"
				},
				{
					"inputs": [],
					"name": "Get_Name",
					"outputs": [
						{
							"internalType": "string",
							"name": "",
							"type": "string"
						}
					],
					"stateMutability": "view",
					"type": "function"
				},
				{
					"inputs": [],
					"name": "Get_Owner",
					"outputs": [
						{
							"internalType": "address",
							"name": "owner",
							"type": "address"
						}
					],
					"stateMutability": "view",
					"type": "function"
				},
				{
					"inputs": [],
					"name": "Get_Predecessor_Count",
					"outputs": [
						{
							"internalType": "uint256",
							"name": "",
							"type": "uint256"
						}
					],
					"stateMutability": "view",
					"type": "function"
				},
				{
					"inputs": [],
					"name": "Get_Predecessors",
					"outputs": [
						{
							"internalType": "address[]",
							"name": "",
							"type": "address[]"
						}
					],
					"stateMutability": "view",
					"type": "function"
				},
				{
					"inputs": [],
					"name": "Get_Successor_Count",
					"outputs": [
						{
							"internalType": "uint256",
							"name": "",
							"type": "uint256"
						}
					],
					"stateMutability": "view",
					"type": "function"
				},
				{
					"inputs": [],
					"name": "Get_Successors",
					"outputs": [
						{
							"internalType": "address[]",
							"name": "",
							"type": "address[]"
						}
					],
					"stateMutability": "view",
					"type": "function"
				},
				{
					"inputs": [
						{
							"internalType": "address",
							"name": "candidateAddress",
							"type": "address"
						},
						{
							"internalType": "enum relation",
							"name": "r",
							"type": "uint8"
						}
					],
					"name": "Has_Candidate",
					"outputs": [
						{
							"internalType": "bool",
							"name": "",
							"type": "bool"
						}
					],
					"stateMutability": "view",
					"type": "function"
				},
				{
					"inputs": [
						{
							"internalType": "enum relation",
							"name": "",
							"type": "uint8"
						},
						{
							"internalType": "uint256",
							"name": "",
							"type": "uint256"
						}
					],
					"name": "Ids",
					"outputs": [
						{
							"internalType": "address",
							"name": "",
							"type": "address"
						}
					],
					"stateMutability": "view",
					"type": "function"
				},
				{
					"inputs": [
						{
							"internalType": "uint256",
							"name": "new_CarbonFootprint",
							"type": "uint256"
						}
					],
					"name": "Set_CarbonFootPrint",
					"outputs": [],
					"stateMutability": "nonpayable",
					"type": "function"
				},
				{
					"inputs": [
						{
							"internalType": "string",
							"name": "_ipfsAddress",
							"type": "string"
						}
					],
					"name": "Set_IPFS",
					"outputs": [],
					"stateMutability": "nonpayable",
					"type": "function"
				},
				{
					"inputs": [
						{
							"internalType": "bool",
							"name": "value",
							"type": "bool"
						}
					],
					"name": "Set_IsValue",
					"outputs": [],
					"stateMutability": "nonpayable",
					"type": "function"
				},
				{
					"inputs": [
						{
							"internalType": "string",
							"name": "new_name",
							"type": "string"
						}
					],
					"name": "Set_Name",
					"outputs": [],
					"stateMutability": "nonpayable",
					"type": "function"
				},
				{
					"inputs": [],
					"name": "owner",
					"outputs": [
						{
							"internalType": "address",
							"name": "",
							"type": "address"
						}
					],
					"stateMutability": "view",
					"type": "function"
				},
				{
					"inputs": [
						{
							"internalType": "uint256",
							"name": "",
							"type": "uint256"
						}
					],
					"name": "products",
					"outputs": [
						{
							"internalType": "contract Product",
							"name": "",
							"type": "address"
						}
					],
					"stateMutability": "view",
					"type": "function"
				},
				{
					"inputs": [
						{
							"internalType": "enum relation",
							"name": "r",
							"type": "uint8"
						}
					],
					"name": "reverseRelation",
					"outputs": [
						{
							"internalType": "enum relation",
							"name": "",
							"type": "uint8"
						}
					],
					"stateMutability": "pure",
					"type": "function"
				},
				{
					"inputs": [
						{
							"internalType": "address",
							"name": "",
							"type": "address"
						},
						{
							"internalType": "uint256",
							"name": "",
							"type": "uint256"
						}
					],
					"name": "userProducts",
					"outputs": [
						{
							"internalType": "uint256",
							"name": "",
							"type": "uint256"
						}
					],
					"stateMutability": "view",
					"type": "function"
				}
			],
			"devdoc": {
				"kind": "dev",
				"methods": {},
				"version": 1
			},
			"evm": {
				"assembly": "    /* \"contracts/Product.sol\":90:2504  contract Product is Handshaker{... */\n  mstore(0x40, 0x80)\n    /* \"contracts/Product.sol\":382:581  constructor(string memory _name, uint _carbonFootprint, address _owner) {... */\n  callvalue\n  dup1\n  iszero\n  tag_1\n  jumpi\n  0x00\n  dup1\n  revert\ntag_1:\n  pop\n  mload(0x40)\n  sub(codesize, bytecodeSize)\n  dup1\n  bytecodeSize\n  dup4\n  codecopy\n  dup2\n  dup2\n  add\n  0x40\n  mstore\n  dup2\n  add\n  swap1\n  tag_2\n  swap2\n  swap1\n  tag_3\n  jump\t// in\ntag_2:\n    /* \"contracts/Ownable.sol\":159:169  msg.sender */\n  caller\n    /* \"contracts/Ownable.sol\":151:156  owner */\n  0x00\n  dup1\n    /* \"contracts/Ownable.sol\":151:169  owner = msg.sender */\n  0x0100\n  exp\n  dup2\n  sload\n  dup2\n  0xffffffffffffffffffffffffffffffffffffffff\n  mul\n  not\n  and\n  swap1\n  dup4\n  0xffffffffffffffffffffffffffffffffffffffff\n  and\n  mul\n  or\n  swap1\n  sstore\n  pop\n    /* \"contracts/Product.sol\":473:479  _owner */\n  dup1\n    /* \"contracts/Product.sol\":465:470  Owner */\n  0x01\n  0x00\n    /* \"contracts/Product.sol\":465:479  Owner = _owner */\n  0x0100\n  exp\n  dup2\n  sload\n  dup2\n  0xffffffffffffffffffffffffffffffffffffffff\n  mul\n  not\n  and\n  swap1\n  dup4\n  0xffffffffffffffffffffffffffffffffffffffff\n  and\n  mul\n  or\n  swap1\n  sstore\n  pop\n    /* \"contracts/Product.sol\":497:502  _name */\n  dup3\n    /* \"contracts/Product.sol\":490:494  Name */\n  0x05\n    /* \"contracts/Product.sol\":490:502  Name = _name */\n  swap1\n  dup2\n  tag_8\n  swap2\n  swap1\n  tag_9\n  jump\t// in\ntag_8:\n  pop\n    /* \"contracts/Product.sol\":531:547  _carbonFootprint */\n  dup2\n    /* \"contracts/Product.sol\":513:528  CarbonFootprint */\n  0x07\n    /* \"contracts/Product.sol\":513:547  CarbonFootprint = _carbonFootprint */\n  dup2\n  swap1\n  sstore\n  pop\n    /* \"contracts/Product.sol\":567:571  true */\n  0x01\n    /* \"contracts/Product.sol\":558:565  IsValue */\n  0x04\n  0x00\n    /* \"contracts/Product.sol\":558:571  IsValue= true */\n  0x0100\n  exp\n  dup2\n  sload\n  dup2\n  0xff\n  mul\n  not\n  and\n  swap1\n  dup4\n  iszero\n  iszero\n  mul\n  or\n  swap1\n  sstore\n  pop\n    /* \"contracts/Product.sol\":382:581  constructor(string memory _name, uint _carbonFootprint, address _owner) {... */\n  pop\n  pop\n  pop\n    /* \"contracts/Product.sol\":90:2504  contract Product is Handshaker{... */\n  jump(tag_10)\n    /* \"#utility.yul\":7:82   */\ntag_11:\n    /* \"#utility.yul\":40:46   */\n  0x00\n    /* \"#utility.yul\":73:75   */\n  0x40\n    /* \"#utility.yul\":67:76   */\n  mload\n    /* \"#utility.yul\":57:76   */\n  swap1\n  pop\n    /* \"#utility.yul\":7:82   */\n  swap1\n  jump\t// out\n    /* \"#utility.yul\":88:205   */\ntag_12:\n    /* \"#utility.yul\":197:198   */\n  0x00\n    /* \"#utility.yul\":194:195   */\n  dup1\n    /* \"#utility.yul\":187:199   */\n  revert\n    /* \"#utility.yul\":211:328   */\ntag_13:\n    /* \"#utility.yul\":320:321   */\n  0x00\n    /* \"#utility.yul\":317:318   */\n  dup1\n    /* \"#utility.yul\":310:322   */\n  revert\n    /* \"#utility.yul\":334:451   */\ntag_14:\n    /* \"#utility.yul\":443:444   */\n  0x00\n    /* \"#utility.yul\":440:441   */\n  dup1\n    /* \"#utility.yul\":433:445   */\n  revert\n    /* \"#utility.yul\":457:574   */\ntag_15:\n    /* \"#utility.yul\":566:567   */\n  0x00\n    /* \"#utility.yul\":563:564   */\n  dup1\n    /* \"#utility.yul\":556:568   */\n  revert\n    /* \"#utility.yul\":580:682   */\ntag_16:\n    /* \"#utility.yul\":621:627   */\n  0x00\n    /* \"#utility.yul\":672:674   */\n  0x1f\n    /* \"#utility.yul\":668:675   */\n  not\n    /* \"#utility.yul\":663:665   */\n  0x1f\n    /* \"#utility.yul\":656:661   */\n  dup4\n    /* \"#utility.yul\":652:666   */\n  add\n    /* \"#utility.yul\":648:676   */\n  and\n    /* \"#utility.yul\":638:676   */\n  swap1\n  pop\n    /* \"#utility.yul\":580:682   */\n  swap2\n  swap1\n  pop\n  jump\t// out\n    /* \"#utility.yul\":688:868   */\ntag_17:\n    /* \"#utility.yul\":736:813   */\n  0x4e487b7100000000000000000000000000000000000000000000000000000000\n    /* \"#utility.yul\":733:734   */\n  0x00\n    /* \"#utility.yul\":726:814   */\n  mstore\n    /* \"#utility.yul\":833:837   */\n  0x41\n    /* \"#utility.yul\":830:831   */\n  0x04\n    /* \"#utility.yul\":823:838   */\n  mstore\n    /* \"#utility.yul\":857:861   */\n  0x24\n    /* \"#utility.yul\":854:855   */\n  0x00\n    /* \"#utility.yul\":847:862   */\n  revert\n    /* \"#utility.yul\":874:1155   */\ntag_18:\n    /* \"#utility.yul\":957:984   */\n  tag_58\n    /* \"#utility.yul\":979:983   */\n  dup3\n    /* \"#utility.yul\":957:984   */\n  tag_16\n  jump\t// in\ntag_58:\n    /* \"#utility.yul\":949:955   */\n  dup2\n    /* \"#utility.yul\":945:985   */\n  add\n    /* \"#utility.yul\":1087:1093   */\n  dup2\n    /* \"#utility.yul\":1075:1085   */\n  dup2\n    /* \"#utility.yul\":1072:1094   */\n  lt\n    /* \"#utility.yul\":1051:1069   */\n  0xffffffffffffffff\n    /* \"#utility.yul\":1039:1049   */\n  dup3\n    /* \"#utility.yul\":1036:1070   */\n  gt\n    /* \"#utility.yul\":1033:1095   */\n  or\n    /* \"#utility.yul\":1030:1118   */\n  iszero\n  tag_59\n  jumpi\n    /* \"#utility.yul\":1098:1116   */\n  tag_60\n  tag_17\n  jump\t// in\ntag_60:\n    /* \"#utility.yul\":1030:1118   */\ntag_59:\n    /* \"#utility.yul\":1138:1148   */\n  dup1\n    /* \"#utility.yul\":1134:1136   */\n  0x40\n    /* \"#utility.yul\":1127:1149   */\n  mstore\n    /* \"#utility.yul\":917:1155   */\n  pop\n    /* \"#utility.yul\":874:1155   */\n  pop\n  pop\n  jump\t// out\n    /* \"#utility.yul\":1161:1290   */\ntag_19:\n    /* \"#utility.yul\":1195:1201   */\n  0x00\n    /* \"#utility.yul\":1222:1242   */\n  tag_62\n  tag_11\n  jump\t// in\ntag_62:\n    /* \"#utility.yul\":1212:1242   */\n  swap1\n  pop\n    /* \"#utility.yul\":1251:1284   */\n  tag_63\n    /* \"#utility.yul\":1279:1283   */\n  dup3\n    /* \"#utility.yul\":1271:1277   */\n  dup3\n    /* \"#utility.yul\":1251:1284   */\n  tag_18\n  jump\t// in\ntag_63:\n    /* \"#utility.yul\":1161:1290   */\n  swap2\n  swap1\n  pop\n  jump\t// out\n    /* \"#utility.yul\":1296:1604   */\ntag_20:\n    /* \"#utility.yul\":1358:1362   */\n  0x00\n    /* \"#utility.yul\":1448:1466   */\n  0xffffffffffffffff\n    /* \"#utility.yul\":1440:1446   */\n  dup3\n    /* \"#utility.yul\":1437:1467   */\n  gt\n    /* \"#utility.yul\":1434:1490   */\n  iszero\n  tag_65\n  jumpi\n    /* \"#utility.yul\":1470:1488   */\n  tag_66\n  tag_17\n  jump\t// in\ntag_66:\n    /* \"#utility.yul\":1434:1490   */\ntag_65:\n    /* \"#utility.yul\":1508:1537   */\n  tag_67\n    /* \"#utility.yul\":1530:1536   */\n  dup3\n    /* \"#utility.yul\":1508:1537   */\n  tag_16\n  jump\t// in\ntag_67:\n    /* \"#utility.yul\":1500:1537   */\n  swap1\n  pop\n    /* \"#utility.yul\":1592:1596   */\n  0x20\n    /* \"#utility.yul\":1586:1590   */\n  dup2\n    /* \"#utility.yul\":1582:1597   */\n  add\n    /* \"#utility.yul\":1574:1597   */\n  swap1\n  pop\n    /* \"#utility.yul\":1296:1604   */\n  swap2\n  swap1\n  pop\n  jump\t// out\n    /* \"#utility.yul\":1610:1856   */\ntag_21:\n    /* \"#utility.yul\":1691:1692   */\n  0x00\n    /* \"#utility.yul\":1701:1814   */\ntag_69:\n    /* \"#utility.yul\":1715:1721   */\n  dup4\n    /* \"#utility.yul\":1712:1713   */\n  dup2\n    /* \"#utility.yul\":1709:1722   */\n  lt\n    /* \"#utility.yul\":1701:1814   */\n  iszero\n  tag_71\n  jumpi\n    /* \"#utility.yul\":1800:1801   */\n  dup1\n    /* \"#utility.yul\":1795:1798   */\n  dup3\n    /* \"#utility.yul\":1791:1802   */\n  add\n    /* \"#utility.yul\":1785:1803   */\n  mload\n    /* \"#utility.yul\":1781:1782   */\n  dup2\n    /* \"#utility.yul\":1776:1779   */\n  dup5\n    /* \"#utility.yul\":1772:1783   */\n  add\n    /* \"#utility.yul\":1765:1804   */\n  mstore\n    /* \"#utility.yul\":1737:1739   */\n  0x20\n    /* \"#utility.yul\":1734:1735   */\n  dup2\n    /* \"#utility.yul\":1730:1740   */\n  add\n    /* \"#utility.yul\":1725:1740   */\n  swap1\n  pop\n    /* \"#utility.yul\":1701:1814   */\n  jump(tag_69)\ntag_71:\n    /* \"#utility.yul\":1848:1849   */\n  0x00\n    /* \"#utility.yul\":1839:1845   */\n  dup5\n    /* \"#utility.yul\":1834:1837   */\n  dup5\n    /* \"#utility.yul\":1830:1846   */\n  add\n    /* \"#utility.yul\":1823:1850   */\n  mstore\n    /* \"#utility.yul\":1672:1856   */\n  pop\n    /* \"#utility.yul\":1610:1856   */\n  pop\n  pop\n  pop\n  jump\t// out\n    /* \"#utility.yul\":1862:2296   */\ntag_22:\n    /* \"#utility.yul\":1951:1956   */\n  0x00\n    /* \"#utility.yul\":1976:2042   */\n  tag_73\n    /* \"#utility.yul\":1992:2041   */\n  tag_74\n    /* \"#utility.yul\":2034:2040   */\n  dup5\n    /* \"#utility.yul\":1992:2041   */\n  tag_20\n  jump\t// in\ntag_74:\n    /* \"#utility.yul\":1976:2042   */\n  tag_19\n  jump\t// in\ntag_73:\n    /* \"#utility.yul\":1967:2042   */\n  swap1\n  pop\n    /* \"#utility.yul\":2065:2071   */\n  dup3\n    /* \"#utility.yul\":2058:2063   */\n  dup2\n    /* \"#utility.yul\":2051:2072   */\n  mstore\n    /* \"#utility.yul\":2103:2107   */\n  0x20\n    /* \"#utility.yul\":2096:2101   */\n  dup2\n    /* \"#utility.yul\":2092:2108   */\n  add\n    /* \"#utility.yul\":2141:2144   */\n  dup5\n    /* \"#utility.yul\":2132:2138   */\n  dup5\n    /* \"#utility.yul\":2127:2130   */\n  dup5\n    /* \"#utility.yul\":2123:2139   */\n  add\n    /* \"#utility.yul\":2120:2145   */\n  gt\n    /* \"#utility.yul\":2117:2229   */\n  iszero\n  tag_75\n  jumpi\n    /* \"#utility.yul\":2148:2227   */\n  tag_76\n  tag_15\n  jump\t// in\ntag_76:\n    /* \"#utility.yul\":2117:2229   */\ntag_75:\n    /* \"#utility.yul\":2238:2290   */\n  tag_77\n    /* \"#utility.yul\":2283:2289   */\n  dup5\n    /* \"#utility.yul\":2278:2281   */\n  dup3\n    /* \"#utility.yul\":2273:2276   */\n  dup6\n    /* \"#utility.yul\":2238:2290   */\n  tag_21\n  jump\t// in\ntag_77:\n    /* \"#utility.yul\":1957:2296   */\n  pop\n    /* \"#utility.yul\":1862:2296   */\n  swap4\n  swap3\n  pop\n  pop\n  pop\n  jump\t// out\n    /* \"#utility.yul\":2316:2671   */\ntag_23:\n    /* \"#utility.yul\":2383:2388   */\n  0x00\n    /* \"#utility.yul\":2432:2435   */\n  dup3\n    /* \"#utility.yul\":2425:2429   */\n  0x1f\n    /* \"#utility.yul\":2417:2423   */\n  dup4\n    /* \"#utility.yul\":2413:2430   */\n  add\n    /* \"#utility.yul\":2409:2436   */\n  slt\n    /* \"#utility.yul\":2399:2521   */\n  tag_79\n  jumpi\n    /* \"#utility.yul\":2440:2519   */\n  tag_80\n  tag_14\n  jump\t// in\ntag_80:\n    /* \"#utility.yul\":2399:2521   */\ntag_79:\n    /* \"#utility.yul\":2550:2556   */\n  dup2\n    /* \"#utility.yul\":2544:2557   */\n  mload\n    /* \"#utility.yul\":2575:2665   */\n  tag_81\n    /* \"#utility.yul\":2661:2664   */\n  dup5\n    /* \"#utility.yul\":2653:2659   */\n  dup3\n    /* \"#utility.yul\":2646:2650   */\n  0x20\n    /* \"#utility.yul\":2638:2644   */\n  dup7\n    /* \"#utility.yul\":2634:2651   */\n  add\n    /* \"#utility.yul\":2575:2665   */\n  tag_22\n  jump\t// in\ntag_81:\n    /* \"#utility.yul\":2566:2665   */\n  swap2\n  pop\n    /* \"#utility.yul\":2389:2671   */\n  pop\n    /* \"#utility.yul\":2316:2671   */\n  swap3\n  swap2\n  pop\n  pop\n  jump\t// out\n    /* \"#utility.yul\":2677:2754   */\ntag_24:\n    /* \"#utility.yul\":2714:2721   */\n  0x00\n    /* \"#utility.yul\":2743:2748   */\n  dup2\n    /* \"#utility.yul\":2732:2748   */\n  swap1\n  pop\n    /* \"#utility.yul\":2677:2754   */\n  swap2\n  swap1\n  pop\n  jump\t// out\n    /* \"#utility.yul\":2760:2882   */\ntag_25:\n    /* \"#utility.yul\":2833:2857   */\n  tag_84\n    /* \"#utility.yul\":2851:2856   */\n  dup2\n    /* \"#utility.yul\":2833:2857   */\n  tag_24\n  jump\t// in\ntag_84:\n    /* \"#utility.yul\":2826:2831   */\n  dup2\n    /* \"#utility.yul\":2823:2858   */\n  eq\n    /* \"#utility.yul\":2813:2876   */\n  tag_85\n  jumpi\n    /* \"#utility.yul\":2872:2873   */\n  0x00\n    /* \"#utility.yul\":2869:2870   */\n  dup1\n    /* \"#utility.yul\":2862:2874   */\n  revert\n    /* \"#utility.yul\":2813:2876   */\ntag_85:\n    /* \"#utility.yul\":2760:2882   */\n  pop\n  jump\t// out\n    /* \"#utility.yul\":2888:3031   */\ntag_26:\n    /* \"#utility.yul\":2945:2950   */\n  0x00\n    /* \"#utility.yul\":2976:2982   */\n  dup2\n    /* \"#utility.yul\":2970:2983   */\n  mload\n    /* \"#utility.yul\":2961:2983   */\n  swap1\n  pop\n    /* \"#utility.yul\":2992:3025   */\n  tag_87\n    /* \"#utility.yul\":3019:3024   */\n  dup2\n    /* \"#utility.yul\":2992:3025   */\n  tag_25\n  jump\t// in\ntag_87:\n    /* \"#utility.yul\":2888:3031   */\n  swap3\n  swap2\n  pop\n  pop\n  jump\t// out\n    /* \"#utility.yul\":3037:3163   */\ntag_27:\n    /* \"#utility.yul\":3074:3081   */\n  0x00\n    /* \"#utility.yul\":3114:3156   */\n  0xffffffffffffffffffffffffffffffffffffffff\n    /* \"#utility.yul\":3107:3112   */\n  dup3\n    /* \"#utility.yul\":3103:3157   */\n  and\n    /* \"#utility.yul\":3092:3157   */\n  swap1\n  pop\n    /* \"#utility.yul\":3037:3163   */\n  swap2\n  swap1\n  pop\n  jump\t// out\n    /* \"#utility.yul\":3169:3265   */\ntag_28:\n    /* \"#utility.yul\":3206:3213   */\n  0x00\n    /* \"#utility.yul\":3235:3259   */\n  tag_90\n    /* \"#utility.yul\":3253:3258   */\n  dup3\n    /* \"#utility.yul\":3235:3259   */\n  tag_27\n  jump\t// in\ntag_90:\n    /* \"#utility.yul\":3224:3259   */\n  swap1\n  pop\n    /* \"#utility.yul\":3169:3265   */\n  swap2\n  swap1\n  pop\n  jump\t// out\n    /* \"#utility.yul\":3271:3393   */\ntag_29:\n    /* \"#utility.yul\":3344:3368   */\n  tag_92\n    /* \"#utility.yul\":3362:3367   */\n  dup2\n    /* \"#utility.yul\":3344:3368   */\n  tag_28\n  jump\t// in\ntag_92:\n    /* \"#utility.yul\":3337:3342   */\n  dup2\n    /* \"#utility.yul\":3334:3369   */\n  eq\n    /* \"#utility.yul\":3324:3387   */\n  tag_93\n  jumpi\n    /* \"#utility.yul\":3383:3384   */\n  0x00\n    /* \"#utility.yul\":3380:3381   */\n  dup1\n    /* \"#utility.yul\":3373:3385   */\n  revert\n    /* \"#utility.yul\":3324:3387   */\ntag_93:\n    /* \"#utility.yul\":3271:3393   */\n  pop\n  jump\t// out\n    /* \"#utility.yul\":3399:3542   */\ntag_30:\n    /* \"#utility.yul\":3456:3461   */\n  0x00\n    /* \"#utility.yul\":3487:3493   */\n  dup2\n    /* \"#utility.yul\":3481:3494   */\n  mload\n    /* \"#utility.yul\":3472:3494   */\n  swap1\n  pop\n    /* \"#utility.yul\":3503:3536   */\n  tag_95\n    /* \"#utility.yul\":3530:3535   */\n  dup2\n    /* \"#utility.yul\":3503:3536   */\n  tag_29\n  jump\t// in\ntag_95:\n    /* \"#utility.yul\":3399:3542   */\n  swap3\n  swap2\n  pop\n  pop\n  jump\t// out\n    /* \"#utility.yul\":3548:4384   */\ntag_3:\n    /* \"#utility.yul\":3646:3652   */\n  0x00\n    /* \"#utility.yul\":3654:3660   */\n  dup1\n    /* \"#utility.yul\":3662:3668   */\n  0x00\n    /* \"#utility.yul\":3711:3713   */\n  0x60\n    /* \"#utility.yul\":3699:3708   */\n  dup5\n    /* \"#utility.yul\":3690:3697   */\n  dup7\n    /* \"#utility.yul\":3686:3709   */\n  sub\n    /* \"#utility.yul\":3682:3714   */\n  slt\n    /* \"#utility.yul\":3679:3798   */\n  iszero\n  tag_97\n  jumpi\n    /* \"#utility.yul\":3717:3796   */\n  tag_98\n  tag_12\n  jump\t// in\ntag_98:\n    /* \"#utility.yul\":3679:3798   */\ntag_97:\n    /* \"#utility.yul\":3858:3859   */\n  0x00\n    /* \"#utility.yul\":3847:3856   */\n  dup5\n    /* \"#utility.yul\":3843:3860   */\n  add\n    /* \"#utility.yul\":3837:3861   */\n  mload\n    /* \"#utility.yul\":3888:3906   */\n  0xffffffffffffffff\n    /* \"#utility.yul\":3880:3886   */\n  dup2\n    /* \"#utility.yul\":3877:3907   */\n  gt\n    /* \"#utility.yul\":3874:3991   */\n  iszero\n  tag_99\n  jumpi\n    /* \"#utility.yul\":3910:3989   */\n  tag_100\n  tag_13\n  jump\t// in\ntag_100:\n    /* \"#utility.yul\":3874:3991   */\ntag_99:\n    /* \"#utility.yul\":4015:4089   */\n  tag_101\n    /* \"#utility.yul\":4081:4088   */\n  dup7\n    /* \"#utility.yul\":4072:4078   */\n  dup3\n    /* \"#utility.yul\":4061:4070   */\n  dup8\n    /* \"#utility.yul\":4057:4079   */\n  add\n    /* \"#utility.yul\":4015:4089   */\n  tag_23\n  jump\t// in\ntag_101:\n    /* \"#utility.yul\":4005:4089   */\n  swap4\n  pop\n    /* \"#utility.yul\":3808:4099   */\n  pop\n    /* \"#utility.yul\":4138:4140   */\n  0x20\n    /* \"#utility.yul\":4164:4228   */\n  tag_102\n    /* \"#utility.yul\":4220:4227   */\n  dup7\n    /* \"#utility.yul\":4211:4217   */\n  dup3\n    /* \"#utility.yul\":4200:4209   */\n  dup8\n    /* \"#utility.yul\":4196:4218   */\n  add\n    /* \"#utility.yul\":4164:4228   */\n  tag_26\n  jump\t// in\ntag_102:\n    /* \"#utility.yul\":4154:4228   */\n  swap3\n  pop\n    /* \"#utility.yul\":4109:4238   */\n  pop\n    /* \"#utility.yul\":4277:4279   */\n  0x40\n    /* \"#utility.yul\":4303:4367   */\n  tag_103\n    /* \"#utility.yul\":4359:4366   */\n  dup7\n    /* \"#utility.yul\":4350:4356   */\n  dup3\n    /* \"#utility.yul\":4339:4348   */\n  dup8\n    /* \"#utility.yul\":4335:4357   */\n  add\n    /* \"#utility.yul\":4303:4367   */\n  tag_30\n  jump\t// in\ntag_103:\n    /* \"#utility.yul\":4293:4367   */\n  swap2\n  pop\n    /* \"#utility.yul\":4248:4377   */\n  pop\n    /* \"#utility.yul\":3548:4384   */\n  swap3\n  pop\n  swap3\n  pop\n  swap3\n  jump\t// out\n    /* \"#utility.yul\":4390:4489   */\ntag_31:\n    /* \"#utility.yul\":4442:4448   */\n  0x00\n    /* \"#utility.yul\":4476:4481   */\n  dup2\n    /* \"#utility.yul\":4470:4482   */\n  mload\n    /* \"#utility.yul\":4460:4482   */\n  swap1\n  pop\n    /* \"#utility.yul\":4390:4489   */\n  swap2\n  swap1\n  pop\n  jump\t// out\n    /* \"#utility.yul\":4495:4675   */\ntag_32:\n    /* \"#utility.yul\":4543:4620   */\n  0x4e487b7100000000000000000000000000000000000000000000000000000000\n    /* \"#utility.yul\":4540:4541   */\n  0x00\n    /* \"#utility.yul\":4533:4621   */\n  mstore\n    /* \"#utility.yul\":4640:4644   */\n  0x22\n    /* \"#utility.yul\":4637:4638   */\n  0x04\n    /* \"#utility.yul\":4630:4645   */\n  mstore\n    /* \"#utility.yul\":4664:4668   */\n  0x24\n    /* \"#utility.yul\":4661:4662   */\n  0x00\n    /* \"#utility.yul\":4654:4669   */\n  revert\n    /* \"#utility.yul\":4681:5001   */\ntag_33:\n    /* \"#utility.yul\":4725:4731   */\n  0x00\n    /* \"#utility.yul\":4762:4763   */\n  0x02\n    /* \"#utility.yul\":4756:4760   */\n  dup3\n    /* \"#utility.yul\":4752:4764   */\n  div\n    /* \"#utility.yul\":4742:4764   */\n  swap1\n  pop\n    /* \"#utility.yul\":4809:4810   */\n  0x01\n    /* \"#utility.yul\":4803:4807   */\n  dup3\n    /* \"#utility.yul\":4799:4811   */\n  and\n    /* \"#utility.yul\":4830:4848   */\n  dup1\n    /* \"#utility.yul\":4820:4901   */\n  tag_107\n  jumpi\n    /* \"#utility.yul\":4886:4890   */\n  0x7f\n    /* \"#utility.yul\":4878:4884   */\n  dup3\n    /* \"#utility.yul\":4874:4891   */\n  and\n    /* \"#utility.yul\":4864:4891   */\n  swap2\n  pop\n    /* \"#utility.yul\":4820:4901   */\ntag_107:\n    /* \"#utility.yul\":4948:4950   */\n  0x20\n    /* \"#utility.yul\":4940:4946   */\n  dup3\n    /* \"#utility.yul\":4937:4951   */\n  lt\n    /* \"#utility.yul\":4917:4935   */\n  dup2\n    /* \"#utility.yul\":4914:4952   */\n  sub\n    /* \"#utility.yul\":4911:4995   */\n  tag_108\n  jumpi\n    /* \"#utility.yul\":4967:4985   */\n  tag_109\n  tag_32\n  jump\t// in\ntag_109:\n    /* \"#utility.yul\":4911:4995   */\ntag_108:\n    /* \"#utility.yul\":4732:5001   */\n  pop\n    /* \"#utility.yul\":4681:5001   */\n  swap2\n  swap1\n  pop\n  jump\t// out\n    /* \"#utility.yul\":5007:5148   */\ntag_34:\n    /* \"#utility.yul\":5056:5060   */\n  0x00\n    /* \"#utility.yul\":5079:5082   */\n  dup2\n    /* \"#utility.yul\":5071:5082   */\n  swap1\n  pop\n    /* \"#utility.yul\":5102:5105   */\n  dup2\n    /* \"#utility.yul\":5099:5100   */\n  0x00\n    /* \"#utility.yul\":5092:5106   */\n  mstore\n    /* \"#utility.yul\":5136:5140   */\n  0x20\n    /* \"#utility.yul\":5133:5134   */\n  0x00\n    /* \"#utility.yul\":5123:5141   */\n  keccak256\n    /* \"#utility.yul\":5115:5141   */\n  swap1\n  pop\n    /* \"#utility.yul\":5007:5148   */\n  swap2\n  swap1\n  pop\n  jump\t// out\n    /* \"#utility.yul\":5154:5247   */\ntag_35:\n    /* \"#utility.yul\":5191:5197   */\n  0x00\n    /* \"#utility.yul\":5238:5240   */\n  0x20\n    /* \"#utility.yul\":5233:5235   */\n  0x1f\n    /* \"#utility.yul\":5226:5231   */\n  dup4\n    /* \"#utility.yul\":5222:5236   */\n  add\n    /* \"#utility.yul\":5218:5241   */\n  div\n    /* \"#utility.yul\":5208:5241   */\n  swap1\n  pop\n    /* \"#utility.yul\":5154:5247   */\n  swap2\n  swap1\n  pop\n  jump\t// out\n    /* \"#utility.yul\":5253:5360   */\ntag_36:\n    /* \"#utility.yul\":5297:5305   */\n  0x00\n    /* \"#utility.yul\":5347:5352   */\n  dup3\n    /* \"#utility.yul\":5341:5345   */\n  dup3\n    /* \"#utility.yul\":5337:5353   */\n  shl\n    /* \"#utility.yul\":5316:5353   */\n  swap1\n  pop\n    /* \"#utility.yul\":5253:5360   */\n  swap3\n  swap2\n  pop\n  pop\n  jump\t// out\n    /* \"#utility.yul\":5366:5759   */\ntag_37:\n    /* \"#utility.yul\":5435:5441   */\n  0x00\n    /* \"#utility.yul\":5485:5486   */\n  0x08\n    /* \"#utility.yul\":5473:5483   */\n  dup4\n    /* \"#utility.yul\":5469:5487   */\n  mul\n    /* \"#utility.yul\":5508:5605   */\n  tag_114\n    /* \"#utility.yul\":5538:5604   */\n  0xffffffffffffffffffffffffffffffffffffffffffffffffffffffffffffffff\n    /* \"#utility.yul\":5527:5536   */\n  dup3\n    /* \"#utility.yul\":5508:5605   */\n  tag_36\n  jump\t// in\ntag_114:\n    /* \"#utility.yul\":5626:5665   */\n  tag_115\n    /* \"#utility.yul\":5656:5664   */\n  dup7\n    /* \"#utility.yul\":5645:5654   */\n  dup4\n    /* \"#utility.yul\":5626:5665   */\n  tag_36\n  jump\t// in\ntag_115:\n    /* \"#utility.yul\":5614:5665   */\n  swap6\n  pop\n    /* \"#utility.yul\":5698:5702   */\n  dup1\n    /* \"#utility.yul\":5694:5703   */\n  not\n    /* \"#utility.yul\":5687:5692   */\n  dup5\n    /* \"#utility.yul\":5683:5704   */\n  and\n    /* \"#utility.yul\":5674:5704   */\n  swap4\n  pop\n    /* \"#utility.yul\":5747:5751   */\n  dup1\n    /* \"#utility.yul\":5737:5745   */\n  dup7\n    /* \"#utility.yul\":5733:5752   */\n  and\n    /* \"#utility.yul\":5726:5731   */\n  dup5\n    /* \"#utility.yul\":5723:5753   */\n  or\n    /* \"#utility.yul\":5713:5753   */\n  swap3\n  pop\n    /* \"#utility.yul\":5442:5759   */\n  pop\n  pop\n    /* \"#utility.yul\":5366:5759   */\n  swap4\n  swap3\n  pop\n  pop\n  pop\n  jump\t// out\n    /* \"#utility.yul\":5765:5825   */\ntag_38:\n    /* \"#utility.yul\":5793:5796   */\n  0x00\n    /* \"#utility.yul\":5814:5819   */\n  dup2\n    /* \"#utility.yul\":5807:5819   */\n  swap1\n  pop\n    /* \"#utility.yul\":5765:5825   */\n  swap2\n  swap1\n  pop\n  jump\t// out\n    /* \"#utility.yul\":5831:5973   */\ntag_39:\n    /* \"#utility.yul\":5881:5890   */\n  0x00\n    /* \"#utility.yul\":5914:5967   */\n  tag_118\n    /* \"#utility.yul\":5932:5966   */\n  tag_119\n    /* \"#utility.yul\":5941:5965   */\n  tag_120\n    /* \"#utility.yul\":5959:5964   */\n  dup5\n    /* \"#utility.yul\":5941:5965   */\n  tag_24\n  jump\t// in\ntag_120:\n    /* \"#utility.yul\":5932:5966   */\n  tag_38\n  jump\t// in\ntag_119:\n    /* \"#utility.yul\":5914:5967   */\n  tag_24\n  jump\t// in\ntag_118:\n    /* \"#utility.yul\":5901:5967   */\n  swap1\n  pop\n    /* \"#utility.yul\":5831:5973   */\n  swap2\n  swap1\n  pop\n  jump\t// out\n    /* \"#utility.yul\":5979:6054   */\ntag_40:\n    /* \"#utility.yul\":6022:6025   */\n  0x00\n    /* \"#utility.yul\":6043:6048   */\n  dup2\n    /* \"#utility.yul\":6036:6048   */\n  swap1\n  pop\n    /* \"#utility.yul\":5979:6054   */\n  swap2\n  swap1\n  pop\n  jump\t// out\n    /* \"#utility.yul\":6060:6329   */\ntag_41:\n    /* \"#utility.yul\":6170:6209   */\n  tag_123\n    /* \"#utility.yul\":6201:6208   */\n  dup4\n    /* \"#utility.yul\":6170:6209   */\n  tag_39\n  jump\t// in\ntag_123:\n    /* \"#utility.yul\":6231:6322   */\n  tag_124\n    /* \"#utility.yul\":6280:6321   */\n  tag_125\n    /* \"#utility.yul\":6304:6320   */\n  dup3\n    /* \"#utility.yul\":6280:6321   */\n  tag_40\n  jump\t// in\ntag_125:\n    /* \"#utility.yul\":6272:6278   */\n  dup5\n    /* \"#utility.yul\":6265:6269   */\n  dup5\n    /* \"#utility.yul\":6259:6270   */\n  sload\n    /* \"#utility.yul\":6231:6322   */\n  tag_37\n  jump\t// in\ntag_124:\n    /* \"#utility.yul\":6225:6229   */\n  dup3\n    /* \"#utility.yul\":6218:6323   */\n  sstore\n    /* \"#utility.yul\":6136:6329   */\n  pop\n    /* \"#utility.yul\":6060:6329   */\n  pop\n  pop\n  pop\n  jump\t// out\n    /* \"#utility.yul\":6335:6408   */\ntag_42:\n    /* \"#utility.yul\":6380:6383   */\n  0x00\n    /* \"#utility.yul\":6335:6408   */\n  swap1\n  jump\t// out\n    /* \"#utility.yul\":6414:6603   */\ntag_43:\n    /* \"#utility.yul\":6491:6523   */\n  tag_128\n  tag_42\n  jump\t// in\ntag_128:\n    /* \"#utility.yul\":6532:6597   */\n  tag_129\n    /* \"#utility.yul\":6590:6596   */\n  dup2\n    /* \"#utility.yul\":6582:6588   */\n  dup5\n    /* \"#utility.yul\":6576:6580   */\n  dup5\n    /* \"#utility.yul\":6532:6597   */\n  tag_41\n  jump\t// in\ntag_129:\n    /* \"#utility.yul\":6467:6603   */\n  pop\n    /* \"#utility.yul\":6414:6603   */\n  pop\n  pop\n  jump\t// out\n    /* \"#utility.yul\":6609:6795   */\ntag_44:\n    /* \"#utility.yul\":6669:6789   */\ntag_131:\n    /* \"#utility.yul\":6686:6689   */\n  dup2\n    /* \"#utility.yul\":6679:6684   */\n  dup2\n    /* \"#utility.yul\":6676:6690   */\n  lt\n    /* \"#utility.yul\":6669:6789   */\n  iszero\n  tag_133\n  jumpi\n    /* \"#utility.yul\":6740:6779   */\n  tag_134\n    /* \"#utility.yul\":6777:6778   */\n  0x00\n    /* \"#utility.yul\":6770:6775   */\n  dup3\n    /* \"#utility.yul\":6740:6779   */\n  tag_43\n  jump\t// in\ntag_134:\n    /* \"#utility.yul\":6713:6714   */\n  0x01\n    /* \"#utility.yul\":6706:6711   */\n  dup2\n    /* \"#utility.yul\":6702:6715   */\n  add\n    /* \"#utility.yul\":6693:6715   */\n  swap1\n  pop\n    /* \"#utility.yul\":6669:6789   */\n  jump(tag_131)\ntag_133:\n    /* \"#utility.yul\":6609:6795   */\n  pop\n  pop\n  jump\t// out\n    /* \"#utility.yul\":6801:7344   */\ntag_45:\n    /* \"#utility.yul\":6902:6904   */\n  0x1f\n    /* \"#utility.yul\":6897:6900   */\n  dup3\n    /* \"#utility.yul\":6894:6905   */\n  gt\n    /* \"#utility.yul\":6891:7337   */\n  iszero\n  tag_136\n  jumpi\n    /* \"#utility.yul\":6936:6974   */\n  tag_137\n    /* \"#utility.yul\":6968:6973   */\n  dup2\n    /* \"#utility.yul\":6936:6974   */\n  tag_34\n  jump\t// in\ntag_137:\n    /* \"#utility.yul\":7020:7049   */\n  tag_138\n    /* \"#utility.yul\":7038:7048   */\n  dup5\n    /* \"#utility.yul\":7020:7049   */\n  tag_35\n  jump\t// in\ntag_138:\n    /* \"#utility.yul\":7010:7018   */\n  dup2\n    /* \"#utility.yul\":7006:7050   */\n  add\n    /* \"#utility.yul\":7203:7205   */\n  0x20\n    /* \"#utility.yul\":7191:7201   */\n  dup6\n    /* \"#utility.yul\":7188:7206   */\n  lt\n    /* \"#utility.yul\":7185:7234   */\n  iszero\n  tag_139\n  jumpi\n    /* \"#utility.yul\":7224:7232   */\n  dup2\n    /* \"#utility.yul\":7209:7232   */\n  swap1\n  pop\n    /* \"#utility.yul\":7185:7234   */\ntag_139:\n    /* \"#utility.yul\":7247:7327   */\n  tag_140\n    /* \"#utility.yul\":7303:7325   */\n  tag_141\n    /* \"#utility.yul\":7321:7324   */\n  dup6\n    /* \"#utility.yul\":7303:7325   */\n  tag_35\n  jump\t// in\ntag_141:\n    /* \"#utility.yul\":7293:7301   */\n  dup4\n    /* \"#utility.yul\":7289:7326   */\n  add\n    /* \"#utility.yul\":7276:7287   */\n  dup3\n    /* \"#utility.yul\":7247:7327   */\n  tag_44\n  jump\t// in\ntag_140:\n    /* \"#utility.yul\":6906:7337   */\n  pop\n  pop\n    /* \"#utility.yul\":6891:7337   */\ntag_136:\n    /* \"#utility.yul\":6801:7344   */\n  pop\n  pop\n  pop\n  jump\t// out\n    /* \"#utility.yul\":7350:7467   */\ntag_46:\n    /* \"#utility.yul\":7404:7412   */\n  0x00\n    /* \"#utility.yul\":7454:7459   */\n  dup3\n    /* \"#utility.yul\":7448:7452   */\n  dup3\n    /* \"#utility.yul\":7444:7460   */\n  shr\n    /* \"#utility.yul\":7423:7460   */\n  swap1\n  pop\n    /* \"#utility.yul\":7350:7467   */\n  swap3\n  swap2\n  pop\n  pop\n  jump\t// out\n    /* \"#utility.yul\":7473:7642   */\ntag_47:\n    /* \"#utility.yul\":7517:7523   */\n  0x00\n    /* \"#utility.yul\":7550:7601   */\n  tag_144\n    /* \"#utility.yul\":7598:7599   */\n  0x00\n    /* \"#utility.yul\":7594:7600   */\n  not\n    /* \"#utility.yul\":7586:7591   */\n  dup5\n    /* \"#utility.yul\":7583:7584   */\n  0x08\n    /* \"#utility.yul\":7579:7592   */\n  mul\n    /* \"#utility.yul\":7550:7601   */\n  tag_46\n  jump\t// in\ntag_144:\n    /* \"#utility.yul\":7546:7602   */\n  not\n    /* \"#utility.yul\":7631:7635   */\n  dup1\n    /* \"#utility.yul\":7625:7629   */\n  dup4\n    /* \"#utility.yul\":7621:7636   */\n  and\n    /* \"#utility.yul\":7611:7636   */\n  swap2\n  pop\n    /* \"#utility.yul\":7524:7642   */\n  pop\n    /* \"#utility.yul\":7473:7642   */\n  swap3\n  swap2\n  pop\n  pop\n  jump\t// out\n    /* \"#utility.yul\":7647:7942   */\ntag_48:\n    /* \"#utility.yul\":7723:7727   */\n  0x00\n    /* \"#utility.yul\":7869:7898   */\n  tag_146\n    /* \"#utility.yul\":7894:7897   */\n  dup4\n    /* \"#utility.yul\":7888:7892   */\n  dup4\n    /* \"#utility.yul\":7869:7898   */\n  tag_47\n  jump\t// in\ntag_146:\n    /* \"#utility.yul\":7861:7898   */\n  swap2\n  pop\n    /* \"#utility.yul\":7931:7934   */\n  dup3\n    /* \"#utility.yul\":7928:7929   */\n  0x02\n    /* \"#utility.yul\":7924:7935   */\n  mul\n    /* \"#utility.yul\":7918:7922   */\n  dup3\n    /* \"#utility.yul\":7915:7936   */\n  or\n    /* \"#utility.yul\":7907:7936   */\n  swap1\n  pop\n    /* \"#utility.yul\":7647:7942   */\n  swap3\n  swap2\n  pop\n  pop\n  jump\t// out\n    /* \"#utility.yul\":7947:9342   */\ntag_9:\n    /* \"#utility.yul\":8064:8101   */\n  tag_148\n    /* \"#utility.yul\":8097:8100   */\n  dup3\n    /* \"#utility.yul\":8064:8101   */\n  tag_31\n  jump\t// in\ntag_148:\n    /* \"#utility.yul\":8166:8184   */\n  0xffffffffffffffff\n    /* \"#utility.yul\":8158:8164   */\n  dup2\n    /* \"#utility.yul\":8155:8185   */\n  gt\n    /* \"#utility.yul\":8152:8208   */\n  iszero\n  tag_149\n  jumpi\n    /* \"#utility.yul\":8188:8206   */\n  tag_150\n  tag_17\n  jump\t// in\ntag_150:\n    /* \"#utility.yul\":8152:8208   */\ntag_149:\n    /* \"#utility.yul\":8232:8270   */\n  tag_151\n    /* \"#utility.yul\":8264:8268   */\n  dup3\n    /* \"#utility.yul\":8258:8269   */\n  sload\n    /* \"#utility.yul\":8232:8270   */\n  tag_33\n  jump\t// in\ntag_151:\n    /* \"#utility.yul\":8317:8384   */\n  tag_152\n    /* \"#utility.yul\":8377:8383   */\n  dup3\n    /* \"#utility.yul\":8369:8375   */\n  dup3\n    /* \"#utility.yul\":8363:8367   */\n  dup6\n    /* \"#utility.yul\":8317:8384   */\n  tag_45\n  jump\t// in\ntag_152:\n    /* \"#utility.yul\":8411:8412   */\n  0x00\n    /* \"#utility.yul\":8435:8439   */\n  0x20\n    /* \"#utility.yul\":8422:8439   */\n  swap1\n  pop\n    /* \"#utility.yul\":8467:8469   */\n  0x1f\n    /* \"#utility.yul\":8459:8465   */\n  dup4\n    /* \"#utility.yul\":8456:8470   */\n  gt\n    /* \"#utility.yul\":8484:8485   */\n  0x01\n    /* \"#utility.yul\":8479:9097   */\n  dup2\n  eq\n  tag_154\n  jumpi\n    /* \"#utility.yul\":9141:9142   */\n  0x00\n    /* \"#utility.yul\":9158:9164   */\n  dup5\n    /* \"#utility.yul\":9155:9232   */\n  iszero\n  tag_155\n  jumpi\n    /* \"#utility.yul\":9207:9216   */\n  dup3\n    /* \"#utility.yul\":9202:9205   */\n  dup8\n    /* \"#utility.yul\":9198:9217   */\n  add\n    /* \"#utility.yul\":9192:9218   */\n  mload\n    /* \"#utility.yul\":9183:9218   */\n  swap1\n  pop\n    /* \"#utility.yul\":9155:9232   */\ntag_155:\n    /* \"#utility.yul\":9258:9325   */\n  tag_156\n    /* \"#utility.yul\":9318:9324   */\n  dup6\n    /* \"#utility.yul\":9311:9316   */\n  dup3\n    /* \"#utility.yul\":9258:9325   */\n  tag_48\n  jump\t// in\ntag_156:\n    /* \"#utility.yul\":9252:9256   */\n  dup7\n    /* \"#utility.yul\":9245:9326   */\n  sstore\n    /* \"#utility.yul\":9114:9336   */\n  pop\n    /* \"#utility.yul\":8449:9336   */\n  jump(tag_153)\n    /* \"#utility.yul\":8479:9097   */\ntag_154:\n    /* \"#utility.yul\":8531:8535   */\n  0x1f\n    /* \"#utility.yul\":8527:8536   */\n  not\n    /* \"#utility.yul\":8519:8525   */\n  dup5\n    /* \"#utility.yul\":8515:8537   */\n  and\n    /* \"#utility.yul\":8565:8602   */\n  tag_157\n    /* \"#utility.yul\":8597:8601   */\n  dup7\n    /* \"#utility.yul\":8565:8602   */\n  tag_34\n  jump\t// in\ntag_157:\n    /* \"#utility.yul\":8624:8625   */\n  0x00\n    /* \"#utility.yul\":8638:8846   */\ntag_158:\n    /* \"#utility.yul\":8652:8659   */\n  dup3\n    /* \"#utility.yul\":8649:8650   */\n  dup2\n    /* \"#utility.yul\":8646:8660   */\n  lt\n    /* \"#utility.yul\":8638:8846   */\n  iszero\n  tag_160\n  jumpi\n    /* \"#utility.yul\":8731:8740   */\n  dup5\n    /* \"#utility.yul\":8726:8729   */\n  dup10\n    /* \"#utility.yul\":8722:8741   */\n  add\n    /* \"#utility.yul\":8716:8742   */\n  mload\n    /* \"#utility.yul\":8708:8714   */\n  dup3\n    /* \"#utility.yul\":8701:8743   */\n  sstore\n    /* \"#utility.yul\":8782:8783   */\n  0x01\n    /* \"#utility.yul\":8774:8780   */\n  dup3\n    /* \"#utility.yul\":8770:8784   */\n  add\n    /* \"#utility.yul\":8760:8784   */\n  swap2\n  pop\n    /* \"#utility.yul\":8829:8831   */\n  0x20\n    /* \"#utility.yul\":8818:8827   */\n  dup6\n    /* \"#utility.yul\":8814:8832   */\n  add\n    /* \"#utility.yul\":8801:8832   */\n  swap5\n  pop\n    /* \"#utility.yul\":8675:8679   */\n  0x20\n    /* \"#utility.yul\":8672:8673   */\n  dup2\n    /* \"#utility.yul\":8668:8680   */\n  add\n    /* \"#utility.yul\":8663:8680   */\n  swap1\n  pop\n    /* \"#utility.yul\":8638:8846   */\n  jump(tag_158)\ntag_160:\n    /* \"#utility.yul\":8874:8880   */\n  dup7\n    /* \"#utility.yul\":8865:8872   */\n  dup4\n    /* \"#utility.yul\":8862:8881   */\n  lt\n    /* \"#utility.yul\":8859:9038   */\n  iszero\n  tag_161\n  jumpi\n    /* \"#utility.yul\":8932:8941   */\n  dup5\n    /* \"#utility.yul\":8927:8930   */\n  dup10\n    /* \"#utility.yul\":8923:8942   */\n  add\n    /* \"#utility.yul\":8917:8943   */\n  mload\n    /* \"#utility.yul\":8975:9023   */\n  tag_162\n    /* \"#utility.yul\":9017:9021   */\n  0x1f\n    /* \"#utility.yul\":9009:9015   */\n  dup10\n    /* \"#utility.yul\":9005:9022   */\n  and\n    /* \"#utility.yul\":8994:9003   */\n  dup3\n    /* \"#utility.yul\":8975:9023   */\n  tag_47\n  jump\t// in\ntag_162:\n    /* \"#utility.yul\":8967:8973   */\n  dup4\n    /* \"#utility.yul\":8960:9024   */\n  sstore\n    /* \"#utility.yul\":8882:9038   */\n  pop\n    /* \"#utility.yul\":8859:9038   */\ntag_161:\n    /* \"#utility.yul\":9084:9085   */\n  0x01\n    /* \"#utility.yul\":9080:9081   */\n  0x02\n    /* \"#utility.yul\":9072:9078   */\n  dup9\n    /* \"#utility.yul\":9068:9082   */\n  mul\n    /* \"#utility.yul\":9064:9086   */\n  add\n    /* \"#utility.yul\":9058:9062   */\n  dup9\n    /* \"#utility.yul\":9051:9087   */\n  sstore\n    /* \"#utility.yul\":8486:9097   */\n  pop\n  pop\n  pop\n    /* \"#utility.yul\":8449:9336   */\ntag_153:\n  pop\n    /* \"#utility.yul\":8039:9342   */\n  pop\n  pop\n  pop\n    /* \"#utility.yul\":7947:9342   */\n  pop\n  pop\n  jump\t// out\n    /* \"contracts/Product.sol\":90:2504  contract Product is Handshaker{... */\ntag_10:\n  dataSize(sub_0)\n  dup1\n  dataOffset(sub_0)\n  0x00\n  codecopy\n  0x00\n  return\nstop\n\nsub_0: assembly {\n        /* \"contracts/Product.sol\":90:2504  contract Product is Handshaker{... */\n      mstore(0x40, 0x80)\n      callvalue\n      dup1\n      iszero\n      tag_1\n      jumpi\n      0x00\n      dup1\n      revert\n    tag_1:\n      pop\n      jumpi(tag_2, lt(calldatasize, 0x04))\n      shr(0xe0, calldataload(0x00))\n      dup1\n      0x7d2cb98d\n      gt\n      tag_30\n      jumpi\n      dup1\n      0xd03678cb\n      gt\n      tag_31\n      jumpi\n      dup1\n      0xe6ca2977\n      gt\n      tag_32\n      jumpi\n      dup1\n      0xe6ca2977\n      eq\n      tag_26\n      jumpi\n      dup1\n      0xe87ccdda\n      eq\n      tag_27\n      jumpi\n      dup1\n      0xf39f05f7\n      eq\n      tag_28\n      jumpi\n      dup1\n      0xfc107720\n      eq\n      tag_29\n      jumpi\n      jump(tag_2)\n    tag_32:\n      dup1\n      0xd03678cb\n      eq\n      tag_23\n      jumpi\n      dup1\n      0xde802761\n      eq\n      tag_24\n      jumpi\n      dup1\n      0xe5ab27e3\n      eq\n      tag_25\n      jumpi\n      jump(tag_2)\n    tag_31:\n      dup1\n      0x9407921c\n      gt\n      tag_33\n      jumpi\n      dup1\n      0x9407921c\n      eq\n      tag_19\n      jumpi\n      dup1\n      0xc524e7f6\n      eq\n      tag_20\n      jumpi\n      dup1\n      0xca9d2c6b\n      eq\n      tag_21\n      jumpi\n      dup1\n      0xcaa4fbbd\n      eq\n      tag_22\n      jumpi\n      jump(tag_2)\n    tag_33:\n      dup1\n      0x7d2cb98d\n      eq\n      tag_16\n      jumpi\n      dup1\n      0x8da5cb5b\n      eq\n      tag_17\n      jumpi\n      dup1\n      0x9155e45b\n      eq\n      tag_18\n      jumpi\n      jump(tag_2)\n    tag_30:\n      dup1\n      0x481fd6b5\n      gt\n      tag_34\n      jumpi\n      dup1\n      0x6947a020\n      gt\n      tag_35\n      jumpi\n      dup1\n      0x6947a020\n      eq\n      tag_12\n      jumpi\n      dup1\n      0x78fb654a\n      eq\n      tag_13\n      jumpi\n      dup1\n      0x7acc0b20\n      eq\n      tag_14\n      jumpi\n      dup1\n      0x7b9f1976\n      eq\n      tag_15\n      jumpi\n      jump(tag_2)\n    tag_35:\n      dup1\n      0x481fd6b5\n      eq\n      tag_9\n      jumpi\n      dup1\n      0x55c1c478\n      eq\n      tag_10\n      jumpi\n      dup1\n      0x5f891d98\n      eq\n      tag_11\n      jumpi\n      jump(tag_2)\n    tag_34:\n      dup1\n      0x04a3f393\n      eq\n      tag_3\n      jumpi\n      dup1\n      0x0fbdd521\n      eq\n      tag_4\n      jumpi\n      dup1\n      0x101d4fb9\n      eq\n      tag_5\n      jumpi\n      dup1\n      0x244ded7a\n      eq\n      tag_6\n      jumpi\n      dup1\n      0x28a3d83a\n      eq\n      tag_7\n      jumpi\n      dup1\n      0x3d527883\n      eq\n      tag_8\n      jumpi\n    tag_2:\n      0x00\n      dup1\n      revert\n        /* \"contracts/Product.sol\":1045:1172  function Set_CarbonFootPrint(uint new_CarbonFootprint) public onlyOwner{... */\n    tag_3:\n      tag_36\n      0x04\n      dup1\n      calldatasize\n      sub\n      dup2\n      add\n      swap1\n      tag_37\n      swap2\n      swap1\n      tag_38\n      jump\t// in\n    tag_37:\n      tag_39\n      jump\t// in\n    tag_36:\n      stop\n        /* \"contracts/Handshaker.sol\":1333:1763  function Do_Handshake(address Address, relation r) public returns(bool){... */\n    tag_4:\n      tag_40\n      0x04\n      dup1\n      calldatasize\n      sub\n      dup2\n      add\n      swap1\n      tag_41\n      swap2\n      swap1\n      tag_42\n      jump\t// in\n    tag_41:\n      tag_43\n      jump\t// in\n    tag_40:\n      mload(0x40)\n      tag_44\n      swap2\n      swap1\n      tag_45\n      jump\t// in\n    tag_44:\n      mload(0x40)\n      dup1\n      swap2\n      sub\n      swap1\n      return\n        /* \"contracts/Handshaker.sol\":932:1075  function Has_Candidate(address candidateAddress, relation r) public view returns(bool){... */\n    tag_5:\n      tag_46\n      0x04\n      dup1\n      calldatasize\n      sub\n      dup2\n      add\n      swap1\n      tag_47\n      swap2\n      swap1\n      tag_42\n      jump\t// in\n    tag_47:\n      tag_48\n      jump\t// in\n    tag_46:\n      mload(0x40)\n      tag_49\n      swap2\n      swap1\n      tag_45\n      jump\t// in\n    tag_49:\n      mload(0x40)\n      dup1\n      swap2\n      sub\n      swap1\n      return\n        /* \"contracts/Ownable.sol\":295:390  function ChangeOwnership(address newOwner) public  onlyOwner{... */\n    tag_6:\n      tag_50\n      0x04\n      dup1\n      calldatasize\n      sub\n      dup2\n      add\n      swap1\n      tag_51\n      swap2\n      swap1\n      tag_52\n      jump\t// in\n    tag_51:\n      tag_53\n      jump\t// in\n    tag_50:\n      stop\n        /* \"contracts/Product.sol\":1831:1945  function Get_Successors() external view returns(address[] memory){... */\n    tag_7:\n      tag_54\n      tag_55\n      jump\t// in\n    tag_54:\n      mload(0x40)\n      tag_56\n      swap2\n      swap1\n      tag_57\n      jump\t// in\n    tag_56:\n      mload(0x40)\n      dup1\n      swap2\n      sub\n      swap1\n      return\n        /* \"contracts/Product.sol\":322:371  mapping(address => uint256[]) public userProducts */\n    tag_8:\n      tag_58\n      0x04\n      dup1\n      calldatasize\n      sub\n      dup2\n      add\n      swap1\n      tag_59\n      swap2\n      swap1\n      tag_60\n      jump\t// in\n    tag_59:\n      tag_61\n      jump\t// in\n    tag_58:\n      mload(0x40)\n      tag_62\n      swap2\n      swap1\n      tag_63\n      jump\t// in\n    tag_62:\n      mload(0x40)\n      dup1\n      swap2\n      sub\n      swap1\n      return\n        /* \"contracts/Product.sol\":2176:2263  function Get_Name() external view returns (string memory){... */\n    tag_9:\n      tag_64\n      tag_65\n      jump\t// in\n    tag_64:\n      mload(0x40)\n      tag_66\n      swap2\n      swap1\n      tag_67\n      jump\t// in\n    tag_66:\n      mload(0x40)\n      dup1\n      swap2\n      sub\n      swap1\n      return\n        /* \"contracts/Handshaker.sol\":608:694  function Get_Owner() external view returns(address owner){... */\n    tag_10:\n      tag_68\n      tag_69\n      jump\t// in\n    tag_68:\n      mload(0x40)\n      tag_70\n      swap2\n      swap1\n      tag_71\n      jump\t// in\n    tag_70:\n      mload(0x40)\n      dup1\n      swap2\n      sub\n      swap1\n      return\n        /* \"contracts/Handshaker.sol\":1769:1856  function Delete_Id(relation r, uint index) public {... */\n    tag_11:\n      tag_72\n      0x04\n      dup1\n      calldatasize\n      sub\n      dup2\n      add\n      swap1\n      tag_73\n      swap2\n      swap1\n      tag_74\n      jump\t// in\n    tag_73:\n      tag_75\n      jump\t// in\n    tag_72:\n      stop\n        /* \"contracts/Handshaker.sol\":804:902  function Add_Candidate(address addr, relation r) external{... */\n    tag_12:\n      tag_76\n      0x04\n      dup1\n      calldatasize\n      sub\n      dup2\n      add\n      swap1\n      tag_77\n      swap2\n      swap1\n      tag_42\n      jump\t// in\n    tag_77:\n      tag_78\n      jump\t// in\n    tag_76:\n      stop\n        /* \"contracts/Product.sol\":1180:1263  function Set_IsValue(bool value) public onlyOwner{... */\n    tag_13:\n      tag_79\n      0x04\n      dup1\n      calldatasize\n      sub\n      dup2\n      add\n      swap1\n      tag_80\n      swap2\n      swap1\n      tag_81\n      jump\t// in\n    tag_80:\n      tag_82\n      jump\t// in\n    tag_79:\n      stop\n        /* \"contracts/Product.sol\":272:315  mapping(uint256 => Product) public products */\n    tag_14:\n      tag_83\n      0x04\n      dup1\n      calldatasize\n      sub\n      dup2\n      add\n      swap1\n      tag_84\n      swap2\n      swap1\n      tag_38\n      jump\t// in\n    tag_84:\n      tag_85\n      jump\t// in\n    tag_83:\n      mload(0x40)\n      tag_86\n      swap2\n      swap1\n      tag_87\n      jump\t// in\n    tag_86:\n      mload(0x40)\n      dup1\n      swap2\n      sub\n      swap1\n      return\n        /* \"contracts/Product.sol\":2362:2462  function Get_CarbonFootprint() external  view returns(uint){... */\n    tag_15:\n      tag_88\n      tag_89\n      jump\t// in\n    tag_88:\n      mload(0x40)\n      tag_90\n      swap2\n      swap1\n      tag_63\n      jump\t// in\n    tag_90:\n      mload(0x40)\n      dup1\n      swap2\n      sub\n      swap1\n      return\n        /* \"contracts/Product.sol\":1707:1825  function Get_Predecessors() external view returns(address[] memory){... */\n    tag_16:\n      tag_91\n      tag_92\n      jump\t// in\n    tag_91:\n      mload(0x40)\n      tag_93\n      swap2\n      swap1\n      tag_57\n      jump\t// in\n    tag_93:\n      mload(0x40)\n      dup1\n      swap2\n      sub\n      swap1\n      return\n        /* \"contracts/Ownable.sol\":97:117  address public owner */\n    tag_17:\n      tag_94\n      tag_95\n      jump\t// in\n    tag_94:\n      mload(0x40)\n      tag_96\n      swap2\n      swap1\n      tag_71\n      jump\t// in\n    tag_96:\n      mload(0x40)\n      dup1\n      swap2\n      sub\n      swap1\n      return\n        /* \"contracts/Product.sol\":618:712  function Set_Name(string calldata new_name) public onlyOwner{... */\n    tag_18:\n      tag_97\n      0x04\n      dup1\n      calldatasize\n      sub\n      dup2\n      add\n      swap1\n      tag_98\n      swap2\n      swap1\n      tag_99\n      jump\t// in\n    tag_98:\n      tag_100\n      jump\t// in\n    tag_97:\n      stop\n        /* \"contracts/Handshaker.sol\":700:798  function Get_Ids(relation r) external view returns(address[] memory){... */\n    tag_19:\n      tag_101\n      0x04\n      dup1\n      calldatasize\n      sub\n      dup2\n      add\n      swap1\n      tag_102\n      swap2\n      swap1\n      tag_103\n      jump\t// in\n    tag_102:\n      tag_104\n      jump\t// in\n    tag_101:\n      mload(0x40)\n      tag_105\n      swap2\n      swap1\n      tag_57\n      jump\t// in\n    tag_105:\n      mload(0x40)\n      dup1\n      swap2\n      sub\n      swap1\n      return\n        /* \"contracts/Product.sol\":2067:2168  function Get_IpfsAddress() external view returns(string memory){... */\n    tag_20:\n      tag_106\n      tag_107\n      jump\t// in\n    tag_106:\n      mload(0x40)\n      tag_108\n      swap2\n      swap1\n      tag_67\n      jump\t// in\n    tag_108:\n      mload(0x40)\n      dup1\n      swap2\n      sub\n      swap1\n      return\n        /* \"contracts/Handshaker.sol\":195:478  function reverseRelation(relation r) public pure returns(relation){... */\n    tag_21:\n      tag_109\n      0x04\n      dup1\n      calldatasize\n      sub\n      dup2\n      add\n      swap1\n      tag_110\n      swap2\n      swap1\n      tag_103\n      jump\t// in\n    tag_110:\n      tag_111\n      jump\t// in\n    tag_109:\n      mload(0x40)\n      tag_112\n      swap2\n      swap1\n      tag_113\n      jump\t// in\n    tag_112:\n      mload(0x40)\n      dup1\n      swap2\n      sub\n      swap1\n      return\n        /* \"contracts/Product.sol\":2271:2354  function Get_IsValue() external view returns(bool){... */\n    tag_22:\n      tag_114\n      tag_115\n      jump\t// in\n    tag_114:\n      mload(0x40)\n      tag_116\n      swap2\n      swap1\n      tag_45\n      jump\t// in\n    tag_116:\n      mload(0x40)\n      dup1\n      swap2\n      sub\n      swap1\n      return\n        /* \"contracts/Product.sol\":1578:1699  function Get_Predecessor_Count() external view returns(uint256){... */\n    tag_23:\n      tag_117\n      tag_118\n      jump\t// in\n    tag_117:\n      mload(0x40)\n      tag_119\n      swap2\n      swap1\n      tag_63\n      jump\t// in\n    tag_119:\n      mload(0x40)\n      dup1\n      swap2\n      sub\n      swap1\n      return\n        /* \"contracts/Handshaker.sol\":560:601  mapping(relation => address[]) public Ids */\n    tag_24:\n      tag_120\n      0x04\n      dup1\n      calldatasize\n      sub\n      dup2\n      add\n      swap1\n      tag_121\n      swap2\n      swap1\n      tag_74\n      jump\t// in\n    tag_121:\n      tag_122\n      jump\t// in\n    tag_120:\n      mload(0x40)\n      tag_123\n      swap2\n      swap1\n      tag_71\n      jump\t// in\n    tag_123:\n      mload(0x40)\n      dup1\n      swap2\n      sub\n      swap1\n      return\n        /* \"contracts/Product.sol\":1271:1381  function Set_IPFS(string calldata _ipfsAddress) public onlyOwner{... */\n    tag_25:\n      tag_124\n      0x04\n      dup1\n      calldatasize\n      sub\n      dup2\n      add\n      swap1\n      tag_125\n      swap2\n      swap1\n      tag_99\n      jump\t// in\n    tag_125:\n      tag_126\n      jump\t// in\n    tag_124:\n      stop\n        /* \"contracts/Product.sol\":1951:2059  function Get_LabelIDs() external view returns(address[] memory){... */\n    tag_26:\n      tag_127\n      tag_128\n      jump\t// in\n    tag_127:\n      mload(0x40)\n      tag_129\n      swap2\n      swap1\n      tag_57\n      jump\t// in\n    tag_129:\n      mload(0x40)\n      dup1\n      swap2\n      sub\n      swap1\n      return\n        /* \"contracts/Product.sol\":1453:1570  function Get_Successor_Count() external view returns(uint256){... */\n    tag_27:\n      tag_130\n      tag_131\n      jump\t// in\n    tag_130:\n      mload(0x40)\n      tag_132\n      swap2\n      swap1\n      tag_63\n      jump\t// in\n    tag_132:\n      mload(0x40)\n      dup1\n      swap2\n      sub\n      swap1\n      return\n        /* \"contracts/Handshaker.sol\":508:554  mapping(address => relation) public Candidates */\n    tag_28:\n      tag_133\n      0x04\n      dup1\n      calldatasize\n      sub\n      dup2\n      add\n      swap1\n      tag_134\n      swap2\n      swap1\n      tag_52\n      jump\t// in\n    tag_134:\n      tag_135\n      jump\t// in\n    tag_133:\n      mload(0x40)\n      tag_136\n      swap2\n      swap1\n      tag_113\n      jump\t// in\n    tag_136:\n      mload(0x40)\n      dup1\n      swap2\n      sub\n      swap1\n      return\n        /* \"contracts/Handshaker.sol\":1081:1327  function Accept_Candidate(relation r) public {... */\n    tag_29:\n      tag_137\n      0x04\n      dup1\n      calldatasize\n      sub\n      dup2\n      add\n      swap1\n      tag_138\n      swap2\n      swap1\n      tag_103\n      jump\t// in\n    tag_138:\n      tag_139\n      jump\t// in\n    tag_137:\n      stop\n        /* \"contracts/Product.sol\":1045:1172  function Set_CarbonFootPrint(uint new_CarbonFootprint) public onlyOwner{... */\n    tag_39:\n        /* \"contracts/Ownable.sol\":237:242  owner */\n      0x00\n      dup1\n      sload\n      swap1\n      0x0100\n      exp\n      swap1\n      div\n      0xffffffffffffffffffffffffffffffffffffffff\n      and\n        /* \"contracts/Ownable.sol\":223:242  msg.sender == owner */\n      0xffffffffffffffffffffffffffffffffffffffff\n      and\n        /* \"contracts/Ownable.sol\":223:233  msg.sender */\n      caller\n        /* \"contracts/Ownable.sol\":223:242  msg.sender == owner */\n      0xffffffffffffffffffffffffffffffffffffffff\n      and\n      eq\n        /* \"contracts/Ownable.sol\":215:267  require(msg.sender == owner, 'caller must be owner') */\n      tag_141\n      jumpi\n      mload(0x40)\n      0x08c379a000000000000000000000000000000000000000000000000000000000\n      dup2\n      mstore\n      0x04\n      add\n      tag_142\n      swap1\n      tag_143\n      jump\t// in\n    tag_142:\n      mload(0x40)\n      dup1\n      swap2\n      sub\n      swap1\n      revert\n    tag_141:\n        /* \"contracts/Product.sol\":1145:1164  new_CarbonFootprint */\n      dup1\n        /* \"contracts/Product.sol\":1127:1142  CarbonFootprint */\n      0x07\n        /* \"contracts/Product.sol\":1127:1164  CarbonFootprint = new_CarbonFootprint */\n      dup2\n      swap1\n      sstore\n      pop\n        /* \"contracts/Product.sol\":1045:1172  function Set_CarbonFootPrint(uint new_CarbonFootprint) public onlyOwner{... */\n      pop\n      jump\t// out\n        /* \"contracts/Handshaker.sol\":1333:1763  function Do_Handshake(address Address, relation r) public returns(bool){... */\n    tag_43:\n        /* \"contracts/Handshaker.sol\":1399:1403  bool */\n      0x00\n        /* \"contracts/Handshaker.sol\":1414:1435  Handshaker handshaker */\n      dup1\n        /* \"contracts/Handshaker.sol\":1449:1456  Address */\n      dup4\n        /* \"contracts/Handshaker.sol\":1414:1457  Handshaker handshaker = Handshaker(Address) */\n      swap1\n      pop\n        /* \"contracts/Handshaker.sol\":1511:1529  reverseRelation(r) */\n      tag_146\n        /* \"contracts/Handshaker.sol\":1527:1528  r */\n      dup4\n        /* \"contracts/Handshaker.sol\":1511:1526  reverseRelation */\n      tag_111\n        /* \"contracts/Handshaker.sol\":1511:1529  reverseRelation(r) */\n      jump\t// in\n    tag_146:\n        /* \"contracts/Handshaker.sol\":1471:1529  handshaker.Candidates(address(this)) == reverseRelation(r) */\n      0x04\n      dup2\n      gt\n      iszero\n      tag_147\n      jumpi\n      tag_148\n      tag_149\n      jump\t// in\n    tag_148:\n    tag_147:\n        /* \"contracts/Handshaker.sol\":1471:1481  handshaker */\n      dup2\n        /* \"contracts/Handshaker.sol\":1471:1492  handshaker.Candidates */\n      0xffffffffffffffffffffffffffffffffffffffff\n      and\n      0xf39f05f7\n        /* \"contracts/Handshaker.sol\":1501:1505  this */\n      address\n        /* \"contracts/Handshaker.sol\":1471:1507  handshaker.Candidates(address(this)) */\n      mload(0x40)\n      dup3\n      0xffffffff\n      and\n      0xe0\n      shl\n      dup2\n      mstore\n      0x04\n      add\n      tag_150\n      swap2\n      swap1\n      tag_71\n      jump\t// in\n    tag_150:\n      0x20\n      mload(0x40)\n      dup1\n      dup4\n      sub\n      dup2\n      dup7\n      gas\n      staticcall\n      iszero\n      dup1\n      iszero\n      tag_152\n      jumpi\n      returndatasize\n      0x00\n      dup1\n      returndatacopy\n      revert(0x00, returndatasize)\n    tag_152:\n      pop\n      pop\n      pop\n      pop\n      mload(0x40)\n      returndatasize\n      not(0x1f)\n      0x1f\n      dup3\n      add\n      and\n      dup3\n      add\n      dup1\n      0x40\n      mstore\n      pop\n      dup2\n      add\n      swap1\n      tag_153\n      swap2\n      swap1\n      tag_154\n      jump\t// in\n    tag_153:\n        /* \"contracts/Handshaker.sol\":1471:1529  handshaker.Candidates(address(this)) == reverseRelation(r) */\n      0x04\n      dup2\n      gt\n      iszero\n      tag_155\n      jumpi\n      tag_156\n      tag_149\n      jump\t// in\n    tag_156:\n    tag_155:\n      sub\n        /* \"contracts/Handshaker.sol\":1468:1757  if(handshaker.Candidates(address(this)) == reverseRelation(r)){... */\n      tag_157\n      jumpi\n        /* \"contracts/Handshaker.sol\":1544:1547  Ids */\n      0x03\n        /* \"contracts/Handshaker.sol\":1544:1550  Ids[r] */\n      0x00\n        /* \"contracts/Handshaker.sol\":1548:1549  r */\n      dup5\n        /* \"contracts/Handshaker.sol\":1544:1550  Ids[r] */\n      0x04\n      dup2\n      gt\n      iszero\n      tag_158\n      jumpi\n      tag_159\n      tag_149\n      jump\t// in\n    tag_159:\n    tag_158:\n      0x04\n      dup2\n      gt\n      iszero\n      tag_160\n      jumpi\n      tag_161\n      tag_149\n      jump\t// in\n    tag_161:\n    tag_160:\n      dup2\n      mstore\n      0x20\n      add\n      swap1\n      dup2\n      mstore\n      0x20\n      add\n      0x00\n      keccak256\n        /* \"contracts/Handshaker.sol\":1556:1563  Address */\n      dup5\n        /* \"contracts/Handshaker.sol\":1544:1564  Ids[r].push(Address) */\n      swap1\n      dup1\n      0x01\n      dup2\n      sload\n      add\n      dup1\n      dup3\n      sstore\n      dup1\n      swap2\n      pop\n      pop\n      0x01\n      swap1\n      sub\n      swap1\n      0x00\n      mstore\n      keccak256(0x00, 0x20)\n      add\n      0x00\n      swap1\n      swap2\n      swap1\n      swap2\n      swap1\n      swap2\n      0x0100\n      exp\n      dup2\n      sload\n      dup2\n      0xffffffffffffffffffffffffffffffffffffffff\n      mul\n      not\n      and\n      swap1\n      dup4\n      0xffffffffffffffffffffffffffffffffffffffff\n      and\n      mul\n      or\n      swap1\n      sstore\n      pop\n        /* \"contracts/Handshaker.sol\":1578:1588  handshaker */\n      dup1\n        /* \"contracts/Handshaker.sol\":1578:1605  handshaker.Accept_Candidate */\n      0xffffffffffffffffffffffffffffffffffffffff\n      and\n      0xfc107720\n        /* \"contracts/Handshaker.sol\":1606:1607  r */\n      dup5\n        /* \"contracts/Handshaker.sol\":1578:1608  handshaker.Accept_Candidate(r) */\n      mload(0x40)\n      dup3\n      0xffffffff\n      and\n      0xe0\n      shl\n      dup2\n      mstore\n      0x04\n      add\n      tag_163\n      swap2\n      swap1\n      tag_113\n      jump\t// in\n    tag_163:\n      0x00\n      mload(0x40)\n      dup1\n      dup4\n      sub\n      dup2\n      0x00\n      dup8\n      dup1\n      extcodesize\n      iszero\n      dup1\n      iszero\n      tag_164\n      jumpi\n      0x00\n      dup1\n      revert\n    tag_164:\n      pop\n      gas\n      call\n      iszero\n      dup1\n      iszero\n      tag_166\n      jumpi\n      returndatasize\n      0x00\n      dup1\n      returndatacopy\n      revert(0x00, returndatasize)\n    tag_166:\n      pop\n      pop\n      pop\n      pop\n        /* \"contracts/Handshaker.sol\":1642:1646  true */\n      0x01\n        /* \"contracts/Handshaker.sol\":1635:1646  return true */\n      swap2\n      pop\n      pop\n      jump(tag_145)\n        /* \"contracts/Handshaker.sol\":1468:1757  if(handshaker.Candidates(address(this)) == reverseRelation(r)){... */\n    tag_157:\n        /* \"contracts/Handshaker.sol\":1706:1707  r */\n      dup3\n        /* \"contracts/Handshaker.sol\":1684:1694  Candidates */\n      0x02\n        /* \"contracts/Handshaker.sol\":1684:1703  Candidates[Address] */\n      0x00\n        /* \"contracts/Handshaker.sol\":1695:1702  Address */\n      dup7\n        /* \"contracts/Handshaker.sol\":1684:1703  Candidates[Address] */\n      0xffffffffffffffffffffffffffffffffffffffff\n      and\n      0xffffffffffffffffffffffffffffffffffffffff\n      and\n      dup2\n      mstore\n      0x20\n      add\n      swap1\n      dup2\n      mstore\n      0x20\n      add\n      0x00\n      keccak256\n      0x00\n        /* \"contracts/Handshaker.sol\":1684:1707  Candidates[Address] = r */\n      0x0100\n      exp\n      dup2\n      sload\n      dup2\n      0xff\n      mul\n      not\n      and\n      swap1\n      dup4\n      0x04\n      dup2\n      gt\n      iszero\n      tag_168\n      jumpi\n      tag_169\n      tag_149\n      jump\t// in\n    tag_169:\n    tag_168:\n      mul\n      or\n      swap1\n      sstore\n      pop\n        /* \"contracts/Handshaker.sol\":1741:1746  false */\n      0x00\n        /* \"contracts/Handshaker.sol\":1734:1746  return false */\n      swap2\n      pop\n      pop\n        /* \"contracts/Handshaker.sol\":1333:1763  function Do_Handshake(address Address, relation r) public returns(bool){... */\n    tag_145:\n      swap3\n      swap2\n      pop\n      pop\n      jump\t// out\n        /* \"contracts/Handshaker.sol\":932:1075  function Has_Candidate(address candidateAddress, relation r) public view returns(bool){... */\n    tag_48:\n        /* \"contracts/Handshaker.sol\":1013:1017  bool */\n      0x00\n        /* \"contracts/Handshaker.sol\":1067:1068  r */\n      dup2\n        /* \"contracts/Handshaker.sol\":1035:1068  Candidates[candidateAddress] == r */\n      0x04\n      dup2\n      gt\n      iszero\n      tag_171\n      jumpi\n      tag_172\n      tag_149\n      jump\t// in\n    tag_172:\n    tag_171:\n        /* \"contracts/Handshaker.sol\":1035:1045  Candidates */\n      0x02\n        /* \"contracts/Handshaker.sol\":1035:1063  Candidates[candidateAddress] */\n      0x00\n        /* \"contracts/Handshaker.sol\":1046:1062  candidateAddress */\n      dup6\n        /* \"contracts/Handshaker.sol\":1035:1063  Candidates[candidateAddress] */\n      0xffffffffffffffffffffffffffffffffffffffff\n      and\n      0xffffffffffffffffffffffffffffffffffffffff\n      and\n      dup2\n      mstore\n      0x20\n      add\n      swap1\n      dup2\n      mstore\n      0x20\n      add\n      0x00\n      keccak256\n      0x00\n      swap1\n      sload\n      swap1\n      0x0100\n      exp\n      swap1\n      div\n      0xff\n      and\n        /* \"contracts/Handshaker.sol\":1035:1068  Candidates[candidateAddress] == r */\n      0x04\n      dup2\n      gt\n      iszero\n      tag_173\n      jumpi\n      tag_174\n      tag_149\n      jump\t// in\n    tag_174:\n    tag_173:\n      eq\n        /* \"contracts/Handshaker.sol\":1028:1068  return Candidates[candidateAddress] == r */\n      swap1\n      pop\n        /* \"contracts/Handshaker.sol\":932:1075  function Has_Candidate(address candidateAddress, relation r) public view returns(bool){... */\n      swap3\n      swap2\n      pop\n      pop\n      jump\t// out\n        /* \"contracts/Ownable.sol\":295:390  function ChangeOwnership(address newOwner) public  onlyOwner{... */\n    tag_53:\n        /* \"contracts/Ownable.sol\":237:242  owner */\n      0x00\n      dup1\n      sload\n      swap1\n      0x0100\n      exp\n      swap1\n      div\n      0xffffffffffffffffffffffffffffffffffffffff\n      and\n        /* \"contracts/Ownable.sol\":223:242  msg.sender == owner */\n      0xffffffffffffffffffffffffffffffffffffffff\n      and\n        /* \"contracts/Ownable.sol\":223:233  msg.sender */\n      caller\n        /* \"contracts/Ownable.sol\":223:242  msg.sender == owner */\n      0xffffffffffffffffffffffffffffffffffffffff\n      and\n      eq\n        /* \"contracts/Ownable.sol\":215:267  require(msg.sender == owner, 'caller must be owner') */\n      tag_176\n      jumpi\n      mload(0x40)\n      0x08c379a000000000000000000000000000000000000000000000000000000000\n      dup2\n      mstore\n      0x04\n      add\n      tag_177\n      swap1\n      tag_143\n      jump\t// in\n    tag_177:\n      mload(0x40)\n      dup1\n      swap2\n      sub\n      swap1\n      revert\n    tag_176:\n        /* \"contracts/Ownable.sol\":374:382  newOwner */\n      dup1\n        /* \"contracts/Ownable.sol\":366:371  owner */\n      0x00\n      dup1\n        /* \"contracts/Ownable.sol\":366:382  owner = newOwner */\n      0x0100\n      exp\n      dup2\n      sload\n      dup2\n      0xffffffffffffffffffffffffffffffffffffffff\n      mul\n      not\n      and\n      swap1\n      dup4\n      0xffffffffffffffffffffffffffffffffffffffff\n      and\n      mul\n      or\n      swap1\n      sstore\n      pop\n        /* \"contracts/Ownable.sol\":295:390  function ChangeOwnership(address newOwner) public  onlyOwner{... */\n      pop\n      jump\t// out\n        /* \"contracts/Product.sol\":1831:1945  function Get_Successors() external view returns(address[] memory){... */\n    tag_55:\n        /* \"contracts/Product.sol\":1879:1895  address[] memory */\n      0x60\n        /* \"contracts/Product.sol\":1914:1917  Ids */\n      0x03\n        /* \"contracts/Product.sol\":1914:1937  Ids[relation.SUCCESSOR] */\n      0x00\n        /* \"contracts/Product.sol\":1918:1936  relation.SUCCESSOR */\n      0x02\n        /* \"contracts/Product.sol\":1914:1937  Ids[relation.SUCCESSOR] */\n      0x04\n      dup2\n      gt\n      iszero\n      tag_180\n      jumpi\n      tag_181\n      tag_149\n      jump\t// in\n    tag_181:\n    tag_180:\n      0x04\n      dup2\n      gt\n      iszero\n      tag_182\n      jumpi\n      tag_183\n      tag_149\n      jump\t// in\n    tag_183:\n    tag_182:\n      dup2\n      mstore\n      0x20\n      add\n      swap1\n      dup2\n      mstore\n      0x20\n      add\n      0x00\n      keccak256\n        /* \"contracts/Product.sol\":1907:1937  return Ids[relation.SUCCESSOR] */\n      dup1\n      sload\n      dup1\n      0x20\n      mul\n      0x20\n      add\n      mload(0x40)\n      swap1\n      dup2\n      add\n      0x40\n      mstore\n      dup1\n      swap3\n      swap2\n      swap1\n      dup2\n      dup2\n      mstore\n      0x20\n      add\n      dup3\n      dup1\n      sload\n      dup1\n      iszero\n      tag_184\n      jumpi\n      0x20\n      mul\n      dup3\n      add\n      swap2\n      swap1\n      0x00\n      mstore\n      keccak256(0x00, 0x20)\n      swap1\n    tag_185:\n      dup2\n      0x00\n      swap1\n      sload\n      swap1\n      0x0100\n      exp\n      swap1\n      div\n      0xffffffffffffffffffffffffffffffffffffffff\n      and\n      0xffffffffffffffffffffffffffffffffffffffff\n      and\n      dup2\n      mstore\n      0x20\n      add\n      swap1\n      0x01\n      add\n      swap1\n      dup1\n      dup4\n      gt\n      tag_185\n      jumpi\n    tag_184:\n      pop\n      pop\n      pop\n      pop\n      pop\n      swap1\n      pop\n        /* \"contracts/Product.sol\":1831:1945  function Get_Successors() external view returns(address[] memory){... */\n      swap1\n      jump\t// out\n        /* \"contracts/Product.sol\":322:371  mapping(address => uint256[]) public userProducts */\n    tag_61:\n      mstore(0x20, 0x0a)\n      dup2\n      0x00\n      mstore\n      keccak256(0x00, 0x40)\n      dup2\n      dup2\n      sload\n      dup2\n      lt\n      tag_186\n      jumpi\n      0x00\n      dup1\n      revert\n    tag_186:\n      swap1\n      0x00\n      mstore\n      keccak256(0x00, 0x20)\n      add\n      0x00\n      swap2\n      pop\n      swap2\n      pop\n      pop\n      sload\n      dup2\n      jump\t// out\n        /* \"contracts/Product.sol\":2176:2263  function Get_Name() external view returns (string memory){... */\n    tag_65:\n        /* \"contracts/Product.sol\":2219:2232  string memory */\n      0x60\n        /* \"contracts/Product.sol\":2251:2255  Name */\n      0x05\n        /* \"contracts/Product.sol\":2244:2255  return Name */\n      dup1\n      sload\n      tag_189\n      swap1\n      tag_190\n      jump\t// in\n    tag_189:\n      dup1\n      0x1f\n      add\n      0x20\n      dup1\n      swap2\n      div\n      mul\n      0x20\n      add\n      mload(0x40)\n      swap1\n      dup2\n      add\n      0x40\n      mstore\n      dup1\n      swap3\n      swap2\n      swap1\n      dup2\n      dup2\n      mstore\n      0x20\n      add\n      dup3\n      dup1\n      sload\n      tag_191\n      swap1\n      tag_190\n      jump\t// in\n    tag_191:\n      dup1\n      iszero\n      tag_192\n      jumpi\n      dup1\n      0x1f\n      lt\n      tag_193\n      jumpi\n      0x0100\n      dup1\n      dup4\n      sload\n      div\n      mul\n      dup4\n      mstore\n      swap2\n      0x20\n      add\n      swap2\n      jump(tag_192)\n    tag_193:\n      dup3\n      add\n      swap2\n      swap1\n      0x00\n      mstore\n      keccak256(0x00, 0x20)\n      swap1\n    tag_194:\n      dup2\n      sload\n      dup2\n      mstore\n      swap1\n      0x01\n      add\n      swap1\n      0x20\n      add\n      dup1\n      dup4\n      gt\n      tag_194\n      jumpi\n      dup3\n      swap1\n      sub\n      0x1f\n      and\n      dup3\n      add\n      swap2\n    tag_192:\n      pop\n      pop\n      pop\n      pop\n      pop\n      swap1\n      pop\n        /* \"contracts/Product.sol\":2176:2263  function Get_Name() external view returns (string memory){... */\n      swap1\n      jump\t// out\n        /* \"contracts/Handshaker.sol\":608:694  function Get_Owner() external view returns(address owner){... */\n    tag_69:\n        /* \"contracts/Handshaker.sol\":651:664  address owner */\n      0x00\n        /* \"contracts/Handshaker.sol\":682:687  Owner */\n      0x01\n      0x00\n      swap1\n      sload\n      swap1\n      0x0100\n      exp\n      swap1\n      div\n      0xffffffffffffffffffffffffffffffffffffffff\n      and\n        /* \"contracts/Handshaker.sol\":675:687  return Owner */\n      swap1\n      pop\n        /* \"contracts/Handshaker.sol\":608:694  function Get_Owner() external view returns(address owner){... */\n      swap1\n      jump\t// out\n        /* \"contracts/Handshaker.sol\":1769:1856  function Delete_Id(relation r, uint index) public {... */\n    tag_75:\n        /* \"contracts/Handshaker.sol\":1836:1839  Ids */\n      0x03\n        /* \"contracts/Handshaker.sol\":1836:1842  Ids[r] */\n      0x00\n        /* \"contracts/Handshaker.sol\":1840:1841  r */\n      dup4\n        /* \"contracts/Handshaker.sol\":1836:1842  Ids[r] */\n      0x04\n      dup2\n      gt\n      iszero\n      tag_197\n      jumpi\n      tag_198\n      tag_149\n      jump\t// in\n    tag_198:\n    tag_197:\n      0x04\n      dup2\n      gt\n      iszero\n      tag_199\n      jumpi\n      tag_200\n      tag_149\n      jump\t// in\n    tag_200:\n    tag_199:\n      dup2\n      mstore\n      0x20\n      add\n      swap1\n      dup2\n      mstore\n      0x20\n      add\n      0x00\n      keccak256\n        /* \"contracts/Handshaker.sol\":1843:1848  index */\n      dup2\n        /* \"contracts/Handshaker.sol\":1836:1849  Ids[r][index] */\n      dup2\n      sload\n      dup2\n      lt\n      tag_201\n      jumpi\n      tag_202\n      tag_203\n      jump\t// in\n    tag_202:\n    tag_201:\n      swap1\n      0x00\n      mstore\n      keccak256(0x00, 0x20)\n      add\n      0x00\n        /* \"contracts/Handshaker.sol\":1829:1849  delete Ids[r][index] */\n      0x0100\n      exp\n      dup2\n      sload\n      swap1\n      0xffffffffffffffffffffffffffffffffffffffff\n      mul\n      not\n      and\n      swap1\n      sstore\n        /* \"contracts/Handshaker.sol\":1769:1856  function Delete_Id(relation r, uint index) public {... */\n      pop\n      pop\n      jump\t// out\n        /* \"contracts/Handshaker.sol\":804:902  function Add_Candidate(address addr, relation r) external{... */\n    tag_78:\n        /* \"contracts/Handshaker.sol\":894:895  r */\n      dup1\n        /* \"contracts/Handshaker.sol\":875:885  Candidates */\n      0x02\n        /* \"contracts/Handshaker.sol\":875:891  Candidates[addr] */\n      0x00\n        /* \"contracts/Handshaker.sol\":886:890  addr */\n      dup5\n        /* \"contracts/Handshaker.sol\":875:891  Candidates[addr] */\n      0xffffffffffffffffffffffffffffffffffffffff\n      and\n      0xffffffffffffffffffffffffffffffffffffffff\n      and\n      dup2\n      mstore\n      0x20\n      add\n      swap1\n      dup2\n      mstore\n      0x20\n      add\n      0x00\n      keccak256\n      0x00\n        /* \"contracts/Handshaker.sol\":875:895  Candidates[addr] = r */\n      0x0100\n      exp\n      dup2\n      sload\n      dup2\n      0xff\n      mul\n      not\n      and\n      swap1\n      dup4\n      0x04\n      dup2\n      gt\n      iszero\n      tag_206\n      jumpi\n      tag_207\n      tag_149\n      jump\t// in\n    tag_207:\n    tag_206:\n      mul\n      or\n      swap1\n      sstore\n      pop\n        /* \"contracts/Handshaker.sol\":804:902  function Add_Candidate(address addr, relation r) external{... */\n      pop\n      pop\n      jump\t// out\n        /* \"contracts/Product.sol\":1180:1263  function Set_IsValue(bool value) public onlyOwner{... */\n    tag_82:\n        /* \"contracts/Ownable.sol\":237:242  owner */\n      0x00\n      dup1\n      sload\n      swap1\n      0x0100\n      exp\n      swap1\n      div\n      0xffffffffffffffffffffffffffffffffffffffff\n      and\n        /* \"contracts/Ownable.sol\":223:242  msg.sender == owner */\n      0xffffffffffffffffffffffffffffffffffffffff\n      and\n        /* \"contracts/Ownable.sol\":223:233  msg.sender */\n      caller\n        /* \"contracts/Ownable.sol\":223:242  msg.sender == owner */\n      0xffffffffffffffffffffffffffffffffffffffff\n      and\n      eq\n        /* \"contracts/Ownable.sol\":215:267  require(msg.sender == owner, 'caller must be owner') */\n      tag_209\n      jumpi\n      mload(0x40)\n      0x08c379a000000000000000000000000000000000000000000000000000000000\n      dup2\n      mstore\n      0x04\n      add\n      tag_210\n      swap1\n      tag_143\n      jump\t// in\n    tag_210:\n      mload(0x40)\n      dup1\n      swap2\n      sub\n      swap1\n      revert\n    tag_209:\n        /* \"contracts/Product.sol\":1250:1255  value */\n      dup1\n        /* \"contracts/Product.sol\":1240:1247  IsValue */\n      0x04\n      0x00\n        /* \"contracts/Product.sol\":1240:1255  IsValue = value */\n      0x0100\n      exp\n      dup2\n      sload\n      dup2\n      0xff\n      mul\n      not\n      and\n      swap1\n      dup4\n      iszero\n      iszero\n      mul\n      or\n      swap1\n      sstore\n      pop\n        /* \"contracts/Product.sol\":1180:1263  function Set_IsValue(bool value) public onlyOwner{... */\n      pop\n      jump\t// out\n        /* \"contracts/Product.sol\":272:315  mapping(uint256 => Product) public products */\n    tag_85:\n      mstore(0x20, 0x09)\n      dup1\n      0x00\n      mstore\n      keccak256(0x00, 0x40)\n      0x00\n      swap2\n      pop\n      sload\n      swap1\n      0x0100\n      exp\n      swap1\n      div\n      0xffffffffffffffffffffffffffffffffffffffff\n      and\n      dup2\n      jump\t// out\n        /* \"contracts/Product.sol\":2362:2462  function Get_CarbonFootprint() external  view returns(uint){... */\n    tag_89:\n        /* \"contracts/Product.sol\":2416:2420  uint */\n      0x00\n        /* \"contracts/Product.sol\":2439:2454  CarbonFootprint */\n      sload(0x07)\n        /* \"contracts/Product.sol\":2432:2454  return CarbonFootprint */\n      swap1\n      pop\n        /* \"contracts/Product.sol\":2362:2462  function Get_CarbonFootprint() external  view returns(uint){... */\n      swap1\n      jump\t// out\n        /* \"contracts/Product.sol\":1707:1825  function Get_Predecessors() external view returns(address[] memory){... */\n    tag_92:\n        /* \"contracts/Product.sol\":1757:1773  address[] memory */\n      0x60\n        /* \"contracts/Product.sol\":1792:1795  Ids */\n      0x03\n        /* \"contracts/Product.sol\":1792:1817  Ids[relation.PREDECESSOR] */\n      0x00\n        /* \"contracts/Product.sol\":1796:1816  relation.PREDECESSOR */\n      0x01\n        /* \"contracts/Product.sol\":1792:1817  Ids[relation.PREDECESSOR] */\n      0x04\n      dup2\n      gt\n      iszero\n      tag_214\n      jumpi\n      tag_215\n      tag_149\n      jump\t// in\n    tag_215:\n    tag_214:\n      0x04\n      dup2\n      gt\n      iszero\n      tag_216\n      jumpi\n      tag_217\n      tag_149\n      jump\t// in\n    tag_217:\n    tag_216:\n      dup2\n      mstore\n      0x20\n      add\n      swap1\n      dup2\n      mstore\n      0x20\n      add\n      0x00\n      keccak256\n        /* \"contracts/Product.sol\":1785:1817  return Ids[relation.PREDECESSOR] */\n      dup1\n      sload\n      dup1\n      0x20\n      mul\n      0x20\n      add\n      mload(0x40)\n      swap1\n      dup2\n      add\n      0x40\n      mstore\n      dup1\n      swap3\n      swap2\n      swap1\n      dup2\n      dup2\n      mstore\n      0x20\n      add\n      dup3\n      dup1\n      sload\n      dup1\n      iszero\n      tag_218\n      jumpi\n      0x20\n      mul\n      dup3\n      add\n      swap2\n      swap1\n      0x00\n      mstore\n      keccak256(0x00, 0x20)\n      swap1\n    tag_219:\n      dup2\n      0x00\n      swap1\n      sload\n      swap1\n      0x0100\n      exp\n      swap1\n      div\n      0xffffffffffffffffffffffffffffffffffffffff\n      and\n      0xffffffffffffffffffffffffffffffffffffffff\n      and\n      dup2\n      mstore\n      0x20\n      add\n      swap1\n      0x01\n      add\n      swap1\n      dup1\n      dup4\n      gt\n      tag_219\n      jumpi\n    tag_218:\n      pop\n      pop\n      pop\n      pop\n      pop\n      swap1\n      pop\n        /* \"contracts/Product.sol\":1707:1825  function Get_Predecessors() external view returns(address[] memory){... */\n      swap1\n      jump\t// out\n        /* \"contracts/Ownable.sol\":97:117  address public owner */\n    tag_95:\n      0x00\n      dup1\n      sload\n      swap1\n      0x0100\n      exp\n      swap1\n      div\n      0xffffffffffffffffffffffffffffffffffffffff\n      and\n      dup2\n      jump\t// out\n        /* \"contracts/Product.sol\":618:712  function Set_Name(string calldata new_name) public onlyOwner{... */\n    tag_100:\n        /* \"contracts/Ownable.sol\":237:242  owner */\n      0x00\n      dup1\n      sload\n      swap1\n      0x0100\n      exp\n      swap1\n      div\n      0xffffffffffffffffffffffffffffffffffffffff\n      and\n        /* \"contracts/Ownable.sol\":223:242  msg.sender == owner */\n      0xffffffffffffffffffffffffffffffffffffffff\n      and\n        /* \"contracts/Ownable.sol\":223:233  msg.sender */\n      caller\n        /* \"contracts/Ownable.sol\":223:242  msg.sender == owner */\n      0xffffffffffffffffffffffffffffffffffffffff\n      and\n      eq\n        /* \"contracts/Ownable.sol\":215:267  require(msg.sender == owner, 'caller must be owner') */\n      tag_221\n      jumpi\n      mload(0x40)\n      0x08c379a000000000000000000000000000000000000000000000000000000000\n      dup2\n      mstore\n      0x04\n      add\n      tag_222\n      swap1\n      tag_143\n      jump\t// in\n    tag_222:\n      mload(0x40)\n      dup1\n      swap2\n      sub\n      swap1\n      revert\n    tag_221:\n        /* \"contracts/Product.sol\":696:704  new_name */\n      dup2\n      dup2\n        /* \"contracts/Product.sol\":689:693  Name */\n      0x05\n        /* \"contracts/Product.sol\":689:704  Name = new_name */\n      swap2\n      dup3\n      tag_224\n      swap3\n      swap2\n      swap1\n      tag_225\n      jump\t// in\n    tag_224:\n      pop\n        /* \"contracts/Product.sol\":618:712  function Set_Name(string calldata new_name) public onlyOwner{... */\n      pop\n      pop\n      jump\t// out\n        /* \"contracts/Handshaker.sol\":700:798  function Get_Ids(relation r) external view returns(address[] memory){... */\n    tag_104:\n        /* \"contracts/Handshaker.sol\":751:767  address[] memory */\n      0x60\n        /* \"contracts/Handshaker.sol\":785:788  Ids */\n      0x03\n        /* \"contracts/Handshaker.sol\":785:791  Ids[r] */\n      0x00\n        /* \"contracts/Handshaker.sol\":789:790  r */\n      dup4\n        /* \"contracts/Handshaker.sol\":785:791  Ids[r] */\n      0x04\n      dup2\n      gt\n      iszero\n      tag_227\n      jumpi\n      tag_228\n      tag_149\n      jump\t// in\n    tag_228:\n    tag_227:\n      0x04\n      dup2\n      gt\n      iszero\n      tag_229\n      jumpi\n      tag_230\n      tag_149\n      jump\t// in\n    tag_230:\n    tag_229:\n      dup2\n      mstore\n      0x20\n      add\n      swap1\n      dup2\n      mstore\n      0x20\n      add\n      0x00\n      keccak256\n        /* \"contracts/Handshaker.sol\":778:791  return Ids[r] */\n      dup1\n      sload\n      dup1\n      0x20\n      mul\n      0x20\n      add\n      mload(0x40)\n      swap1\n      dup2\n      add\n      0x40\n      mstore\n      dup1\n      swap3\n      swap2\n      swap1\n      dup2\n      dup2\n      mstore\n      0x20\n      add\n      dup3\n      dup1\n      sload\n      dup1\n      iszero\n      tag_231\n      jumpi\n      0x20\n      mul\n      dup3\n      add\n      swap2\n      swap1\n      0x00\n      mstore\n      keccak256(0x00, 0x20)\n      swap1\n    tag_232:\n      dup2\n      0x00\n      swap1\n      sload\n      swap1\n      0x0100\n      exp\n      swap1\n      div\n      0xffffffffffffffffffffffffffffffffffffffff\n      and\n      0xffffffffffffffffffffffffffffffffffffffff\n      and\n      dup2\n      mstore\n      0x20\n      add\n      swap1\n      0x01\n      add\n      swap1\n      dup1\n      dup4\n      gt\n      tag_232\n      jumpi\n    tag_231:\n      pop\n      pop\n      pop\n      pop\n      pop\n      swap1\n      pop\n        /* \"contracts/Handshaker.sol\":700:798  function Get_Ids(relation r) external view returns(address[] memory){... */\n      swap2\n      swap1\n      pop\n      jump\t// out\n        /* \"contracts/Product.sol\":2067:2168  function Get_IpfsAddress() external view returns(string memory){... */\n    tag_107:\n        /* \"contracts/Product.sol\":2116:2129  string memory */\n      0x60\n        /* \"contracts/Product.sol\":2148:2160  Ipfs_Address */\n      0x06\n        /* \"contracts/Product.sol\":2141:2160  return Ipfs_Address */\n      dup1\n      sload\n      tag_234\n      swap1\n      tag_190\n      jump\t// in\n    tag_234:\n      dup1\n      0x1f\n      add\n      0x20\n      dup1\n      swap2\n      div\n      mul\n      0x20\n      add\n      mload(0x40)\n      swap1\n      dup2\n      add\n      0x40\n      mstore\n      dup1\n      swap3\n      swap2\n      swap1\n      dup2\n      dup2\n      mstore\n      0x20\n      add\n      dup3\n      dup1\n      sload\n      tag_235\n      swap1\n      tag_190\n      jump\t// in\n    tag_235:\n      dup1\n      iszero\n      tag_236\n      jumpi\n      dup1\n      0x1f\n      lt\n      tag_237\n      jumpi\n      0x0100\n      dup1\n      dup4\n      sload\n      div\n      mul\n      dup4\n      mstore\n      swap2\n      0x20\n      add\n      swap2\n      jump(tag_236)\n    tag_237:\n      dup3\n      add\n      swap2\n      swap1\n      0x00\n      mstore\n      keccak256(0x00, 0x20)\n      swap1\n    tag_238:\n      dup2\n      sload\n      dup2\n      mstore\n      swap1\n      0x01\n      add\n      swap1\n      0x20\n      add\n      dup1\n      dup4\n      gt\n      tag_238\n      jumpi\n      dup3\n      swap1\n      sub\n      0x1f\n      and\n      dup3\n      add\n      swap2\n    tag_236:\n      pop\n      pop\n      pop\n      pop\n      pop\n      swap1\n      pop\n        /* \"contracts/Product.sol\":2067:2168  function Get_IpfsAddress() external view returns(string memory){... */\n      swap1\n      jump\t// out\n        /* \"contracts/Handshaker.sol\":195:478  function reverseRelation(relation r) public pure returns(relation){... */\n    tag_111:\n        /* \"contracts/Handshaker.sol\":252:260  relation */\n      0x00\n        /* \"contracts/Handshaker.sol\":271:288  uint relation_int */\n      dup1\n        /* \"contracts/Handshaker.sol\":296:297  r */\n      dup3\n        /* \"contracts/Handshaker.sol\":291:298  uint(r) */\n      0x04\n      dup2\n      gt\n      iszero\n      tag_240\n      jumpi\n      tag_241\n      tag_149\n      jump\t// in\n    tag_241:\n    tag_240:\n        /* \"contracts/Handshaker.sol\":271:298  uint relation_int = uint(r) */\n      swap1\n      pop\n        /* \"contracts/Handshaker.sol\":330:331  0 */\n      0x00\n        /* \"contracts/Handshaker.sol\":325:326  2 */\n      0x02\n        /* \"contracts/Handshaker.sol\":312:324  relation_int */\n      dup3\n        /* \"contracts/Handshaker.sol\":312:326  relation_int%2 */\n      tag_242\n      swap2\n      swap1\n      tag_243\n      jump\t// in\n    tag_242:\n        /* \"contracts/Handshaker.sol\":312:331  relation_int%2 == 0 */\n      sub\n        /* \"contracts/Handshaker.sol\":308:472  if (relation_int%2 == 0){ // if even... */\n      tag_244\n      jumpi\n        /* \"contracts/Handshaker.sol\":388:389  1 */\n      0x01\n        /* \"contracts/Handshaker.sol\":373:385  relation_int */\n      dup2\n        /* \"contracts/Handshaker.sol\":373:389  relation_int - 1 */\n      tag_245\n      swap2\n      swap1\n      tag_246\n      jump\t// in\n    tag_245:\n        /* \"contracts/Handshaker.sol\":364:390  relation(relation_int - 1) */\n      0x04\n      dup2\n      gt\n      iszero\n      tag_247\n      jumpi\n      tag_248\n      tag_149\n      jump\t// in\n    tag_248:\n    tag_247:\n        /* \"contracts/Handshaker.sol\":357:390  return relation(relation_int - 1) */\n      swap2\n      pop\n      pop\n      jump(tag_239)\n        /* \"contracts/Handshaker.sol\":308:472  if (relation_int%2 == 0){ // if even... */\n    tag_244:\n        /* \"contracts/Handshaker.sol\":459:460  1 */\n      0x01\n        /* \"contracts/Handshaker.sol\":444:456  relation_int */\n      dup2\n        /* \"contracts/Handshaker.sol\":444:460  relation_int + 1 */\n      tag_250\n      swap2\n      swap1\n      tag_251\n      jump\t// in\n    tag_250:\n        /* \"contracts/Handshaker.sol\":435:461  relation(relation_int + 1) */\n      0x04\n      dup2\n      gt\n      iszero\n      tag_252\n      jumpi\n      tag_253\n      tag_149\n      jump\t// in\n    tag_253:\n    tag_252:\n        /* \"contracts/Handshaker.sol\":428:461  return relation(relation_int + 1) */\n      swap2\n      pop\n      pop\n        /* \"contracts/Handshaker.sol\":195:478  function reverseRelation(relation r) public pure returns(relation){... */\n    tag_239:\n      swap2\n      swap1\n      pop\n      jump\t// out\n        /* \"contracts/Product.sol\":2271:2354  function Get_IsValue() external view returns(bool){... */\n    tag_115:\n        /* \"contracts/Product.sol\":2316:2320  bool */\n      0x00\n        /* \"contracts/Product.sol\":2339:2346  IsValue */\n      0x04\n      0x00\n      swap1\n      sload\n      swap1\n      0x0100\n      exp\n      swap1\n      div\n      0xff\n      and\n        /* \"contracts/Product.sol\":2332:2346  return IsValue */\n      swap1\n      pop\n        /* \"contracts/Product.sol\":2271:2354  function Get_IsValue() external view returns(bool){... */\n      swap1\n      jump\t// out\n        /* \"contracts/Product.sol\":1578:1699  function Get_Predecessor_Count() external view returns(uint256){... */\n    tag_118:\n        /* \"contracts/Product.sol\":1633:1640  uint256 */\n      0x00\n        /* \"contracts/Product.sol\":1659:1662  Ids */\n      0x03\n        /* \"contracts/Product.sol\":1659:1684  Ids[relation.PREDECESSOR] */\n      0x00\n        /* \"contracts/Product.sol\":1663:1683  relation.PREDECESSOR */\n      0x01\n        /* \"contracts/Product.sol\":1659:1684  Ids[relation.PREDECESSOR] */\n      0x04\n      dup2\n      gt\n      iszero\n      tag_256\n      jumpi\n      tag_257\n      tag_149\n      jump\t// in\n    tag_257:\n    tag_256:\n      0x04\n      dup2\n      gt\n      iszero\n      tag_258\n      jumpi\n      tag_259\n      tag_149\n      jump\t// in\n    tag_259:\n    tag_258:\n      dup2\n      mstore\n      0x20\n      add\n      swap1\n      dup2\n      mstore\n      0x20\n      add\n      0x00\n      keccak256\n        /* \"contracts/Product.sol\":1659:1691  Ids[relation.PREDECESSOR].length */\n      dup1\n      sload\n      swap1\n      pop\n        /* \"contracts/Product.sol\":1652:1691  return Ids[relation.PREDECESSOR].length */\n      swap1\n      pop\n        /* \"contracts/Product.sol\":1578:1699  function Get_Predecessor_Count() external view returns(uint256){... */\n      swap1\n      jump\t// out\n        /* \"contracts/Handshaker.sol\":560:601  mapping(relation => address[]) public Ids */\n    tag_122:\n      mstore(0x20, 0x03)\n      dup2\n      0x00\n      mstore\n      keccak256(0x00, 0x40)\n      dup2\n      dup2\n      sload\n      dup2\n      lt\n      tag_260\n      jumpi\n      0x00\n      dup1\n      revert\n    tag_260:\n      swap1\n      0x00\n      mstore\n      keccak256(0x00, 0x20)\n      add\n      0x00\n      swap2\n      pop\n      swap2\n      pop\n      swap1\n      sload\n      swap1\n      0x0100\n      exp\n      swap1\n      div\n      0xffffffffffffffffffffffffffffffffffffffff\n      and\n      dup2\n      jump\t// out\n        /* \"contracts/Product.sol\":1271:1381  function Set_IPFS(string calldata _ipfsAddress) public onlyOwner{... */\n    tag_126:\n        /* \"contracts/Ownable.sol\":237:242  owner */\n      0x00\n      dup1\n      sload\n      swap1\n      0x0100\n      exp\n      swap1\n      div\n      0xffffffffffffffffffffffffffffffffffffffff\n      and\n        /* \"contracts/Ownable.sol\":223:242  msg.sender == owner */\n      0xffffffffffffffffffffffffffffffffffffffff\n      and\n        /* \"contracts/Ownable.sol\":223:233  msg.sender */\n      caller\n        /* \"contracts/Ownable.sol\":223:242  msg.sender == owner */\n      0xffffffffffffffffffffffffffffffffffffffff\n      and\n      eq\n        /* \"contracts/Ownable.sol\":215:267  require(msg.sender == owner, 'caller must be owner') */\n      tag_263\n      jumpi\n      mload(0x40)\n      0x08c379a000000000000000000000000000000000000000000000000000000000\n      dup2\n      mstore\n      0x04\n      add\n      tag_264\n      swap1\n      tag_143\n      jump\t// in\n    tag_264:\n      mload(0x40)\n      dup1\n      swap2\n      sub\n      swap1\n      revert\n    tag_263:\n        /* \"contracts/Product.sol\":1361:1373  _ipfsAddress */\n      dup2\n      dup2\n        /* \"contracts/Product.sol\":1346:1358  Ipfs_Address */\n      0x06\n        /* \"contracts/Product.sol\":1346:1373  Ipfs_Address = _ipfsAddress */\n      swap2\n      dup3\n      tag_266\n      swap3\n      swap2\n      swap1\n      tag_225\n      jump\t// in\n    tag_266:\n      pop\n        /* \"contracts/Product.sol\":1271:1381  function Set_IPFS(string calldata _ipfsAddress) public onlyOwner{... */\n      pop\n      pop\n      jump\t// out\n        /* \"contracts/Product.sol\":1951:2059  function Get_LabelIDs() external view returns(address[] memory){... */\n    tag_128:\n        /* \"contracts/Product.sol\":1997:2013  address[] memory */\n      0x60\n        /* \"contracts/Product.sol\":2032:2035  Ids */\n      0x03\n        /* \"contracts/Product.sol\":2032:2051  Ids[relation.LABEL] */\n      0x00\n        /* \"contracts/Product.sol\":2036:2050  relation.LABEL */\n      0x03\n        /* \"contracts/Product.sol\":2032:2051  Ids[relation.LABEL] */\n      0x04\n      dup2\n      gt\n      iszero\n      tag_268\n      jumpi\n      tag_269\n      tag_149\n      jump\t// in\n    tag_269:\n    tag_268:\n      0x04\n      dup2\n      gt\n      iszero\n      tag_270\n      jumpi\n      tag_271\n      tag_149\n      jump\t// in\n    tag_271:\n    tag_270:\n      dup2\n      mstore\n      0x20\n      add\n      swap1\n      dup2\n      mstore\n      0x20\n      add\n      0x00\n      keccak256\n        /* \"contracts/Product.sol\":2025:2051  return Ids[relation.LABEL] */\n      dup1\n      sload\n      dup1\n      0x20\n      mul\n      0x20\n      add\n      mload(0x40)\n      swap1\n      dup2\n      add\n      0x40\n      mstore\n      dup1\n      swap3\n      swap2\n      swap1\n      dup2\n      dup2\n      mstore\n      0x20\n      add\n      dup3\n      dup1\n      sload\n      dup1\n      iszero\n      tag_272\n      jumpi\n      0x20\n      mul\n      dup3\n      add\n      swap2\n      swap1\n      0x00\n      mstore\n      keccak256(0x00, 0x20)\n      swap1\n    tag_273:\n      dup2\n      0x00\n      swap1\n      sload\n      swap1\n      0x0100\n      exp\n      swap1\n      div\n      0xffffffffffffffffffffffffffffffffffffffff\n      and\n      0xffffffffffffffffffffffffffffffffffffffff\n      and\n      dup2\n      mstore\n      0x20\n      add\n      swap1\n      0x01\n      add\n      swap1\n      dup1\n      dup4\n      gt\n      tag_273\n      jumpi\n    tag_272:\n      pop\n      pop\n      pop\n      pop\n      pop\n      swap1\n      pop\n        /* \"contracts/Product.sol\":1951:2059  function Get_LabelIDs() external view returns(address[] memory){... */\n      swap1\n      jump\t// out\n        /* \"contracts/Product.sol\":1453:1570  function Get_Successor_Count() external view returns(uint256){... */\n    tag_131:\n        /* \"contracts/Product.sol\":1506:1513  uint256 */\n      0x00\n        /* \"contracts/Product.sol\":1532:1535  Ids */\n      0x03\n        /* \"contracts/Product.sol\":1532:1555  Ids[relation.SUCCESSOR] */\n      0x00\n        /* \"contracts/Product.sol\":1536:1554  relation.SUCCESSOR */\n      0x02\n        /* \"contracts/Product.sol\":1532:1555  Ids[relation.SUCCESSOR] */\n      0x04\n      dup2\n      gt\n      iszero\n      tag_275\n      jumpi\n      tag_276\n      tag_149\n      jump\t// in\n    tag_276:\n    tag_275:\n      0x04\n      dup2\n      gt\n      iszero\n      tag_277\n      jumpi\n      tag_278\n      tag_149\n      jump\t// in\n    tag_278:\n    tag_277:\n      dup2\n      mstore\n      0x20\n      add\n      swap1\n      dup2\n      mstore\n      0x20\n      add\n      0x00\n      keccak256\n        /* \"contracts/Product.sol\":1532:1562  Ids[relation.SUCCESSOR].length */\n      dup1\n      sload\n      swap1\n      pop\n        /* \"contracts/Product.sol\":1525:1562  return Ids[relation.SUCCESSOR].length */\n      swap1\n      pop\n        /* \"contracts/Product.sol\":1453:1570  function Get_Successor_Count() external view returns(uint256){... */\n      swap1\n      jump\t// out\n        /* \"contracts/Handshaker.sol\":508:554  mapping(address => relation) public Candidates */\n    tag_135:\n      mstore(0x20, 0x02)\n      dup1\n      0x00\n      mstore\n      keccak256(0x00, 0x40)\n      0x00\n      swap2\n      pop\n      sload\n      swap1\n      0x0100\n      exp\n      swap1\n      div\n      0xff\n      and\n      dup2\n      jump\t// out\n        /* \"contracts/Handshaker.sol\":1081:1327  function Accept_Candidate(relation r) public {... */\n    tag_139:\n        /* \"contracts/Handshaker.sol\":1170:1188  reverseRelation(r) */\n      tag_280\n        /* \"contracts/Handshaker.sol\":1186:1187  r */\n      dup2\n        /* \"contracts/Handshaker.sol\":1170:1185  reverseRelation */\n      tag_111\n        /* \"contracts/Handshaker.sol\":1170:1188  reverseRelation(r) */\n      jump\t// in\n    tag_280:\n        /* \"contracts/Handshaker.sol\":1144:1188  Candidates[msg.sender] == reverseRelation(r) */\n      0x04\n      dup2\n      gt\n      iszero\n      tag_281\n      jumpi\n      tag_282\n      tag_149\n      jump\t// in\n    tag_282:\n    tag_281:\n        /* \"contracts/Handshaker.sol\":1144:1154  Candidates */\n      0x02\n        /* \"contracts/Handshaker.sol\":1144:1166  Candidates[msg.sender] */\n      0x00\n        /* \"contracts/Handshaker.sol\":1155:1165  msg.sender */\n      caller\n        /* \"contracts/Handshaker.sol\":1144:1166  Candidates[msg.sender] */\n      0xffffffffffffffffffffffffffffffffffffffff\n      and\n      0xffffffffffffffffffffffffffffffffffffffff\n      and\n      dup2\n      mstore\n      0x20\n      add\n      swap1\n      dup2\n      mstore\n      0x20\n      add\n      0x00\n      keccak256\n      0x00\n      swap1\n      sload\n      swap1\n      0x0100\n      exp\n      swap1\n      div\n      0xff\n      and\n        /* \"contracts/Handshaker.sol\":1144:1188  Candidates[msg.sender] == reverseRelation(r) */\n      0x04\n      dup2\n      gt\n      iszero\n      tag_283\n      jumpi\n      tag_284\n      tag_149\n      jump\t// in\n    tag_284:\n    tag_283:\n      eq\n        /* \"contracts/Handshaker.sol\":1136:1222  require(Candidates[msg.sender] == reverseRelation(r), \"Requestor is not a candidate.\") */\n      tag_285\n      jumpi\n      mload(0x40)\n      0x08c379a000000000000000000000000000000000000000000000000000000000\n      dup2\n      mstore\n      0x04\n      add\n      tag_286\n      swap1\n      tag_287\n      jump\t// in\n    tag_286:\n      mload(0x40)\n      dup1\n      swap2\n      sub\n      swap1\n      revert\n    tag_285:\n        /* \"contracts/Handshaker.sol\":1257:1270  relation.NONE */\n      0x00\n        /* \"contracts/Handshaker.sol\":1232:1242  Candidates */\n      0x02\n        /* \"contracts/Handshaker.sol\":1232:1254  Candidates[msg.sender] */\n      0x00\n        /* \"contracts/Handshaker.sol\":1243:1253  msg.sender */\n      caller\n        /* \"contracts/Handshaker.sol\":1232:1254  Candidates[msg.sender] */\n      0xffffffffffffffffffffffffffffffffffffffff\n      and\n      0xffffffffffffffffffffffffffffffffffffffff\n      and\n      dup2\n      mstore\n      0x20\n      add\n      swap1\n      dup2\n      mstore\n      0x20\n      add\n      0x00\n      keccak256\n      0x00\n        /* \"contracts/Handshaker.sol\":1232:1270  Candidates[msg.sender] = relation.NONE */\n      0x0100\n      exp\n      dup2\n      sload\n      dup2\n      0xff\n      mul\n      not\n      and\n      swap1\n      dup4\n      0x04\n      dup2\n      gt\n      iszero\n      tag_288\n      jumpi\n      tag_289\n      tag_149\n      jump\t// in\n    tag_289:\n    tag_288:\n      mul\n      or\n      swap1\n      sstore\n      pop\n        /* \"contracts/Handshaker.sol\":1280:1283  Ids */\n      0x03\n        /* \"contracts/Handshaker.sol\":1280:1303  Ids[reverseRelation(r)] */\n      0x00\n        /* \"contracts/Handshaker.sol\":1284:1302  reverseRelation(r) */\n      tag_290\n        /* \"contracts/Handshaker.sol\":1300:1301  r */\n      dup4\n        /* \"contracts/Handshaker.sol\":1284:1299  reverseRelation */\n      tag_111\n        /* \"contracts/Handshaker.sol\":1284:1302  reverseRelation(r) */\n      jump\t// in\n    tag_290:\n        /* \"contracts/Handshaker.sol\":1280:1303  Ids[reverseRelation(r)] */\n      0x04\n      dup2\n      gt\n      iszero\n      tag_291\n      jumpi\n      tag_292\n      tag_149\n      jump\t// in\n    tag_292:\n    tag_291:\n      0x04\n      dup2\n      gt\n      iszero\n      tag_293\n      jumpi\n      tag_294\n      tag_149\n      jump\t// in\n    tag_294:\n    tag_293:\n      dup2\n      mstore\n      0x20\n      add\n      swap1\n      dup2\n      mstore\n      0x20\n      add\n      0x00\n      keccak256\n        /* \"contracts/Handshaker.sol\":1309:1319  msg.sender */\n      caller\n        /* \"contracts/Handshaker.sol\":1280:1320  Ids[reverseRelation(r)].push(msg.sender) */\n      swap1\n      dup1\n      0x01\n      dup2\n      sload\n      add\n      dup1\n      dup3\n      sstore\n      dup1\n      swap2\n      pop\n      pop\n      0x01\n      swap1\n      sub\n      swap1\n      0x00\n      mstore\n      keccak256(0x00, 0x20)\n      add\n      0x00\n      swap1\n      swap2\n      swap1\n      swap2\n      swap1\n      swap2\n      0x0100\n      exp\n      dup2\n      sload\n      dup2\n      0xffffffffffffffffffffffffffffffffffffffff\n      mul\n      not\n      and\n      swap1\n      dup4\n      0xffffffffffffffffffffffffffffffffffffffff\n      and\n      mul\n      or\n      swap1\n      sstore\n      pop\n        /* \"contracts/Handshaker.sol\":1081:1327  function Accept_Candidate(relation r) public {... */\n      pop\n      jump\t// out\n        /* \"#utility.yul\":88:205   */\n    tag_297:\n        /* \"#utility.yul\":197:198   */\n      0x00\n        /* \"#utility.yul\":194:195   */\n      dup1\n        /* \"#utility.yul\":187:199   */\n      revert\n        /* \"#utility.yul\":211:328   */\n    tag_298:\n        /* \"#utility.yul\":320:321   */\n      0x00\n        /* \"#utility.yul\":317:318   */\n      dup1\n        /* \"#utility.yul\":310:322   */\n      revert\n        /* \"#utility.yul\":334:411   */\n    tag_299:\n        /* \"#utility.yul\":371:378   */\n      0x00\n        /* \"#utility.yul\":400:405   */\n      dup2\n        /* \"#utility.yul\":389:405   */\n      swap1\n      pop\n        /* \"#utility.yul\":334:411   */\n      swap2\n      swap1\n      pop\n      jump\t// out\n        /* \"#utility.yul\":417:539   */\n    tag_300:\n        /* \"#utility.yul\":490:514   */\n      tag_369\n        /* \"#utility.yul\":508:513   */\n      dup2\n        /* \"#utility.yul\":490:514   */\n      tag_299\n      jump\t// in\n    tag_369:\n        /* \"#utility.yul\":483:488   */\n      dup2\n        /* \"#utility.yul\":480:515   */\n      eq\n        /* \"#utility.yul\":470:533   */\n      tag_370\n      jumpi\n        /* \"#utility.yul\":529:530   */\n      0x00\n        /* \"#utility.yul\":526:527   */\n      dup1\n        /* \"#utility.yul\":519:531   */\n      revert\n        /* \"#utility.yul\":470:533   */\n    tag_370:\n        /* \"#utility.yul\":417:539   */\n      pop\n      jump\t// out\n        /* \"#utility.yul\":545:684   */\n    tag_301:\n        /* \"#utility.yul\":591:596   */\n      0x00\n        /* \"#utility.yul\":629:635   */\n      dup2\n        /* \"#utility.yul\":616:636   */\n      calldataload\n        /* \"#utility.yul\":607:636   */\n      swap1\n      pop\n        /* \"#utility.yul\":645:678   */\n      tag_372\n        /* \"#utility.yul\":672:677   */\n      dup2\n        /* \"#utility.yul\":645:678   */\n      tag_300\n      jump\t// in\n    tag_372:\n        /* \"#utility.yul\":545:684   */\n      swap3\n      swap2\n      pop\n      pop\n      jump\t// out\n        /* \"#utility.yul\":690:1019   */\n    tag_38:\n        /* \"#utility.yul\":749:755   */\n      0x00\n        /* \"#utility.yul\":798:800   */\n      0x20\n        /* \"#utility.yul\":786:795   */\n      dup3\n        /* \"#utility.yul\":777:784   */\n      dup5\n        /* \"#utility.yul\":773:796   */\n      sub\n        /* \"#utility.yul\":769:801   */\n      slt\n        /* \"#utility.yul\":766:885   */\n      iszero\n      tag_374\n      jumpi\n        /* \"#utility.yul\":804:883   */\n      tag_375\n      tag_297\n      jump\t// in\n    tag_375:\n        /* \"#utility.yul\":766:885   */\n    tag_374:\n        /* \"#utility.yul\":924:925   */\n      0x00\n        /* \"#utility.yul\":949:1002   */\n      tag_376\n        /* \"#utility.yul\":994:1001   */\n      dup5\n        /* \"#utility.yul\":985:991   */\n      dup3\n        /* \"#utility.yul\":974:983   */\n      dup6\n        /* \"#utility.yul\":970:992   */\n      add\n        /* \"#utility.yul\":949:1002   */\n      tag_301\n      jump\t// in\n    tag_376:\n        /* \"#utility.yul\":939:1002   */\n      swap2\n      pop\n        /* \"#utility.yul\":895:1012   */\n      pop\n        /* \"#utility.yul\":690:1019   */\n      swap3\n      swap2\n      pop\n      pop\n      jump\t// out\n        /* \"#utility.yul\":1025:1151   */\n    tag_302:\n        /* \"#utility.yul\":1062:1069   */\n      0x00\n        /* \"#utility.yul\":1102:1144   */\n      0xffffffffffffffffffffffffffffffffffffffff\n        /* \"#utility.yul\":1095:1100   */\n      dup3\n        /* \"#utility.yul\":1091:1145   */\n      and\n        /* \"#utility.yul\":1080:1145   */\n      swap1\n      pop\n        /* \"#utility.yul\":1025:1151   */\n      swap2\n      swap1\n      pop\n      jump\t// out\n        /* \"#utility.yul\":1157:1253   */\n    tag_303:\n        /* \"#utility.yul\":1194:1201   */\n      0x00\n        /* \"#utility.yul\":1223:1247   */\n      tag_379\n        /* \"#utility.yul\":1241:1246   */\n      dup3\n        /* \"#utility.yul\":1223:1247   */\n      tag_302\n      jump\t// in\n    tag_379:\n        /* \"#utility.yul\":1212:1247   */\n      swap1\n      pop\n        /* \"#utility.yul\":1157:1253   */\n      swap2\n      swap1\n      pop\n      jump\t// out\n        /* \"#utility.yul\":1259:1381   */\n    tag_304:\n        /* \"#utility.yul\":1332:1356   */\n      tag_381\n        /* \"#utility.yul\":1350:1355   */\n      dup2\n        /* \"#utility.yul\":1332:1356   */\n      tag_303\n      jump\t// in\n    tag_381:\n        /* \"#utility.yul\":1325:1330   */\n      dup2\n        /* \"#utility.yul\":1322:1357   */\n      eq\n        /* \"#utility.yul\":1312:1375   */\n      tag_382\n      jumpi\n        /* \"#utility.yul\":1371:1372   */\n      0x00\n        /* \"#utility.yul\":1368:1369   */\n      dup1\n        /* \"#utility.yul\":1361:1373   */\n      revert\n        /* \"#utility.yul\":1312:1375   */\n    tag_382:\n        /* \"#utility.yul\":1259:1381   */\n      pop\n      jump\t// out\n        /* \"#utility.yul\":1387:1526   */\n    tag_305:\n        /* \"#utility.yul\":1433:1438   */\n      0x00\n        /* \"#utility.yul\":1471:1477   */\n      dup2\n        /* \"#utility.yul\":1458:1478   */\n      calldataload\n        /* \"#utility.yul\":1449:1478   */\n      swap1\n      pop\n        /* \"#utility.yul\":1487:1520   */\n      tag_384\n        /* \"#utility.yul\":1514:1519   */\n      dup2\n        /* \"#utility.yul\":1487:1520   */\n      tag_304\n      jump\t// in\n    tag_384:\n        /* \"#utility.yul\":1387:1526   */\n      swap3\n      swap2\n      pop\n      pop\n      jump\t// out\n        /* \"#utility.yul\":1532:1641   */\n    tag_306:\n        /* \"#utility.yul\":1615:1616   */\n      0x05\n        /* \"#utility.yul\":1608:1613   */\n      dup2\n        /* \"#utility.yul\":1605:1617   */\n      lt\n        /* \"#utility.yul\":1595:1635   */\n      tag_386\n      jumpi\n        /* \"#utility.yul\":1631:1632   */\n      0x00\n        /* \"#utility.yul\":1628:1629   */\n      dup1\n        /* \"#utility.yul\":1621:1633   */\n      revert\n        /* \"#utility.yul\":1595:1635   */\n    tag_386:\n        /* \"#utility.yul\":1532:1641   */\n      pop\n      jump\t// out\n        /* \"#utility.yul\":1647:1806   */\n    tag_307:\n        /* \"#utility.yul\":1703:1708   */\n      0x00\n        /* \"#utility.yul\":1741:1747   */\n      dup2\n        /* \"#utility.yul\":1728:1748   */\n      calldataload\n        /* \"#utility.yul\":1719:1748   */\n      swap1\n      pop\n        /* \"#utility.yul\":1757:1800   */\n      tag_388\n        /* \"#utility.yul\":1794:1799   */\n      dup2\n        /* \"#utility.yul\":1757:1800   */\n      tag_306\n      jump\t// in\n    tag_388:\n        /* \"#utility.yul\":1647:1806   */\n      swap3\n      swap2\n      pop\n      pop\n      jump\t// out\n        /* \"#utility.yul\":1812:2306   */\n    tag_42:\n        /* \"#utility.yul\":1890:1896   */\n      0x00\n        /* \"#utility.yul\":1898:1904   */\n      dup1\n        /* \"#utility.yul\":1947:1949   */\n      0x40\n        /* \"#utility.yul\":1935:1944   */\n      dup4\n        /* \"#utility.yul\":1926:1933   */\n      dup6\n        /* \"#utility.yul\":1922:1945   */\n      sub\n        /* \"#utility.yul\":1918:1950   */\n      slt\n        /* \"#utility.yul\":1915:2034   */\n      iszero\n      tag_390\n      jumpi\n        /* \"#utility.yul\":1953:2032   */\n      tag_391\n      tag_297\n      jump\t// in\n    tag_391:\n        /* \"#utility.yul\":1915:2034   */\n    tag_390:\n        /* \"#utility.yul\":2073:2074   */\n      0x00\n        /* \"#utility.yul\":2098:2151   */\n      tag_392\n        /* \"#utility.yul\":2143:2150   */\n      dup6\n        /* \"#utility.yul\":2134:2140   */\n      dup3\n        /* \"#utility.yul\":2123:2132   */\n      dup7\n        /* \"#utility.yul\":2119:2141   */\n      add\n        /* \"#utility.yul\":2098:2151   */\n      tag_305\n      jump\t// in\n    tag_392:\n        /* \"#utility.yul\":2088:2151   */\n      swap3\n      pop\n        /* \"#utility.yul\":2044:2161   */\n      pop\n        /* \"#utility.yul\":2200:2202   */\n      0x20\n        /* \"#utility.yul\":2226:2289   */\n      tag_393\n        /* \"#utility.yul\":2281:2288   */\n      dup6\n        /* \"#utility.yul\":2272:2278   */\n      dup3\n        /* \"#utility.yul\":2261:2270   */\n      dup7\n        /* \"#utility.yul\":2257:2279   */\n      add\n        /* \"#utility.yul\":2226:2289   */\n      tag_307\n      jump\t// in\n    tag_393:\n        /* \"#utility.yul\":2216:2289   */\n      swap2\n      pop\n        /* \"#utility.yul\":2171:2299   */\n      pop\n        /* \"#utility.yul\":1812:2306   */\n      swap3\n      pop\n      swap3\n      swap1\n      pop\n      jump\t// out\n        /* \"#utility.yul\":2312:2402   */\n    tag_308:\n        /* \"#utility.yul\":2346:2353   */\n      0x00\n        /* \"#utility.yul\":2389:2394   */\n      dup2\n        /* \"#utility.yul\":2382:2395   */\n      iszero\n        /* \"#utility.yul\":2375:2396   */\n      iszero\n        /* \"#utility.yul\":2364:2396   */\n      swap1\n      pop\n        /* \"#utility.yul\":2312:2402   */\n      swap2\n      swap1\n      pop\n      jump\t// out\n        /* \"#utility.yul\":2408:2517   */\n    tag_309:\n        /* \"#utility.yul\":2489:2510   */\n      tag_396\n        /* \"#utility.yul\":2504:2509   */\n      dup2\n        /* \"#utility.yul\":2489:2510   */\n      tag_308\n      jump\t// in\n    tag_396:\n        /* \"#utility.yul\":2484:2487   */\n      dup3\n        /* \"#utility.yul\":2477:2511   */\n      mstore\n        /* \"#utility.yul\":2408:2517   */\n      pop\n      pop\n      jump\t// out\n        /* \"#utility.yul\":2523:2733   */\n    tag_45:\n        /* \"#utility.yul\":2610:2614   */\n      0x00\n        /* \"#utility.yul\":2648:2650   */\n      0x20\n        /* \"#utility.yul\":2637:2646   */\n      dup3\n        /* \"#utility.yul\":2633:2651   */\n      add\n        /* \"#utility.yul\":2625:2651   */\n      swap1\n      pop\n        /* \"#utility.yul\":2661:2726   */\n      tag_398\n        /* \"#utility.yul\":2723:2724   */\n      0x00\n        /* \"#utility.yul\":2712:2721   */\n      dup4\n        /* \"#utility.yul\":2708:2725   */\n      add\n        /* \"#utility.yul\":2699:2705   */\n      dup5\n        /* \"#utility.yul\":2661:2726   */\n      tag_309\n      jump\t// in\n    tag_398:\n        /* \"#utility.yul\":2523:2733   */\n      swap3\n      swap2\n      pop\n      pop\n      jump\t// out\n        /* \"#utility.yul\":2739:3068   */\n    tag_52:\n        /* \"#utility.yul\":2798:2804   */\n      0x00\n        /* \"#utility.yul\":2847:2849   */\n      0x20\n        /* \"#utility.yul\":2835:2844   */\n      dup3\n        /* \"#utility.yul\":2826:2833   */\n      dup5\n        /* \"#utility.yul\":2822:2845   */\n      sub\n        /* \"#utility.yul\":2818:2850   */\n      slt\n        /* \"#utility.yul\":2815:2934   */\n      iszero\n      tag_400\n      jumpi\n        /* \"#utility.yul\":2853:2932   */\n      tag_401\n      tag_297\n      jump\t// in\n    tag_401:\n        /* \"#utility.yul\":2815:2934   */\n    tag_400:\n        /* \"#utility.yul\":2973:2974   */\n      0x00\n        /* \"#utility.yul\":2998:3051   */\n      tag_402\n        /* \"#utility.yul\":3043:3050   */\n      dup5\n        /* \"#utility.yul\":3034:3040   */\n      dup3\n        /* \"#utility.yul\":3023:3032   */\n      dup6\n        /* \"#utility.yul\":3019:3041   */\n      add\n        /* \"#utility.yul\":2998:3051   */\n      tag_305\n      jump\t// in\n    tag_402:\n        /* \"#utility.yul\":2988:3051   */\n      swap2\n      pop\n        /* \"#utility.yul\":2944:3061   */\n      pop\n        /* \"#utility.yul\":2739:3068   */\n      swap3\n      swap2\n      pop\n      pop\n      jump\t// out\n        /* \"#utility.yul\":3074:3188   */\n    tag_310:\n        /* \"#utility.yul\":3141:3147   */\n      0x00\n        /* \"#utility.yul\":3175:3180   */\n      dup2\n        /* \"#utility.yul\":3169:3181   */\n      mload\n        /* \"#utility.yul\":3159:3181   */\n      swap1\n      pop\n        /* \"#utility.yul\":3074:3188   */\n      swap2\n      swap1\n      pop\n      jump\t// out\n        /* \"#utility.yul\":3194:3378   */\n    tag_311:\n        /* \"#utility.yul\":3293:3304   */\n      0x00\n        /* \"#utility.yul\":3327:3333   */\n      dup3\n        /* \"#utility.yul\":3322:3325   */\n      dup3\n        /* \"#utility.yul\":3315:3334   */\n      mstore\n        /* \"#utility.yul\":3367:3371   */\n      0x20\n        /* \"#utility.yul\":3362:3365   */\n      dup3\n        /* \"#utility.yul\":3358:3372   */\n      add\n        /* \"#utility.yul\":3343:3372   */\n      swap1\n      pop\n        /* \"#utility.yul\":3194:3378   */\n      swap3\n      swap2\n      pop\n      pop\n      jump\t// out\n        /* \"#utility.yul\":3384:3516   */\n    tag_312:\n        /* \"#utility.yul\":3451:3455   */\n      0x00\n        /* \"#utility.yul\":3474:3477   */\n      dup2\n        /* \"#utility.yul\":3466:3477   */\n      swap1\n      pop\n        /* \"#utility.yul\":3504:3508   */\n      0x20\n        /* \"#utility.yul\":3499:3502   */\n      dup3\n        /* \"#utility.yul\":3495:3509   */\n      add\n        /* \"#utility.yul\":3487:3509   */\n      swap1\n      pop\n        /* \"#utility.yul\":3384:3516   */\n      swap2\n      swap1\n      pop\n      jump\t// out\n        /* \"#utility.yul\":3522:3630   */\n    tag_313:\n        /* \"#utility.yul\":3599:3623   */\n      tag_407\n        /* \"#utility.yul\":3617:3622   */\n      dup2\n        /* \"#utility.yul\":3599:3623   */\n      tag_303\n      jump\t// in\n    tag_407:\n        /* \"#utility.yul\":3594:3597   */\n      dup3\n        /* \"#utility.yul\":3587:3624   */\n      mstore\n        /* \"#utility.yul\":3522:3630   */\n      pop\n      pop\n      jump\t// out\n        /* \"#utility.yul\":3636:3815   */\n    tag_314:\n        /* \"#utility.yul\":3705:3715   */\n      0x00\n        /* \"#utility.yul\":3726:3772   */\n      tag_409\n        /* \"#utility.yul\":3768:3771   */\n      dup4\n        /* \"#utility.yul\":3760:3766   */\n      dup4\n        /* \"#utility.yul\":3726:3772   */\n      tag_313\n      jump\t// in\n    tag_409:\n        /* \"#utility.yul\":3804:3808   */\n      0x20\n        /* \"#utility.yul\":3799:3802   */\n      dup4\n        /* \"#utility.yul\":3795:3809   */\n      add\n        /* \"#utility.yul\":3781:3809   */\n      swap1\n      pop\n        /* \"#utility.yul\":3636:3815   */\n      swap3\n      swap2\n      pop\n      pop\n      jump\t// out\n        /* \"#utility.yul\":3821:3934   */\n    tag_315:\n        /* \"#utility.yul\":3891:3895   */\n      0x00\n        /* \"#utility.yul\":3923:3927   */\n      0x20\n        /* \"#utility.yul\":3918:3921   */\n      dup3\n        /* \"#utility.yul\":3914:3928   */\n      add\n        /* \"#utility.yul\":3906:3928   */\n      swap1\n      pop\n        /* \"#utility.yul\":3821:3934   */\n      swap2\n      swap1\n      pop\n      jump\t// out\n        /* \"#utility.yul\":3970:4702   */\n    tag_316:\n        /* \"#utility.yul\":4089:4092   */\n      0x00\n        /* \"#utility.yul\":4118:4172   */\n      tag_412\n        /* \"#utility.yul\":4166:4171   */\n      dup3\n        /* \"#utility.yul\":4118:4172   */\n      tag_310\n      jump\t// in\n    tag_412:\n        /* \"#utility.yul\":4188:4274   */\n      tag_413\n        /* \"#utility.yul\":4267:4273   */\n      dup2\n        /* \"#utility.yul\":4262:4265   */\n      dup6\n        /* \"#utility.yul\":4188:4274   */\n      tag_311\n      jump\t// in\n    tag_413:\n        /* \"#utility.yul\":4181:4274   */\n      swap4\n      pop\n        /* \"#utility.yul\":4298:4354   */\n      tag_414\n        /* \"#utility.yul\":4348:4353   */\n      dup4\n        /* \"#utility.yul\":4298:4354   */\n      tag_312\n      jump\t// in\n    tag_414:\n        /* \"#utility.yul\":4377:4384   */\n      dup1\n        /* \"#utility.yul\":4408:4409   */\n      0x00\n        /* \"#utility.yul\":4393:4677   */\n    tag_415:\n        /* \"#utility.yul\":4418:4424   */\n      dup4\n        /* \"#utility.yul\":4415:4416   */\n      dup2\n        /* \"#utility.yul\":4412:4425   */\n      lt\n        /* \"#utility.yul\":4393:4677   */\n      iszero\n      tag_417\n      jumpi\n        /* \"#utility.yul\":4494:4500   */\n      dup2\n        /* \"#utility.yul\":4488:4501   */\n      mload\n        /* \"#utility.yul\":4521:4584   */\n      tag_418\n        /* \"#utility.yul\":4580:4583   */\n      dup9\n        /* \"#utility.yul\":4565:4578   */\n      dup3\n        /* \"#utility.yul\":4521:4584   */\n      tag_314\n      jump\t// in\n    tag_418:\n        /* \"#utility.yul\":4514:4584   */\n      swap8\n      pop\n        /* \"#utility.yul\":4607:4667   */\n      tag_419\n        /* \"#utility.yul\":4660:4666   */\n      dup4\n        /* \"#utility.yul\":4607:4667   */\n      tag_315\n      jump\t// in\n    tag_419:\n        /* \"#utility.yul\":4597:4667   */\n      swap3\n      pop\n        /* \"#utility.yul\":4453:4677   */\n      pop\n        /* \"#utility.yul\":4440:4441   */\n      0x01\n        /* \"#utility.yul\":4437:4438   */\n      dup2\n        /* \"#utility.yul\":4433:4442   */\n      add\n        /* \"#utility.yul\":4428:4442   */\n      swap1\n      pop\n        /* \"#utility.yul\":4393:4677   */\n      jump(tag_415)\n    tag_417:\n        /* \"#utility.yul\":4397:4411   */\n      pop\n        /* \"#utility.yul\":4693:4696   */\n      dup6\n        /* \"#utility.yul\":4686:4696   */\n      swap4\n      pop\n        /* \"#utility.yul\":4094:4702   */\n      pop\n      pop\n      pop\n        /* \"#utility.yul\":3970:4702   */\n      swap3\n      swap2\n      pop\n      pop\n      jump\t// out\n        /* \"#utility.yul\":4708:5081   */\n    tag_57:\n        /* \"#utility.yul\":4851:4855   */\n      0x00\n        /* \"#utility.yul\":4889:4891   */\n      0x20\n        /* \"#utility.yul\":4878:4887   */\n      dup3\n        /* \"#utility.yul\":4874:4892   */\n      add\n        /* \"#utility.yul\":4866:4892   */\n      swap1\n      pop\n        /* \"#utility.yul\":4938:4947   */\n      dup2\n        /* \"#utility.yul\":4932:4936   */\n      dup2\n        /* \"#utility.yul\":4928:4948   */\n      sub\n        /* \"#utility.yul\":4924:4925   */\n      0x00\n        /* \"#utility.yul\":4913:4922   */\n      dup4\n        /* \"#utility.yul\":4909:4926   */\n      add\n        /* \"#utility.yul\":4902:4949   */\n      mstore\n        /* \"#utility.yul\":4966:5074   */\n      tag_421\n        /* \"#utility.yul\":5069:5073   */\n      dup2\n        /* \"#utility.yul\":5060:5066   */\n      dup5\n        /* \"#utility.yul\":4966:5074   */\n      tag_316\n      jump\t// in\n    tag_421:\n        /* \"#utility.yul\":4958:5074   */\n      swap1\n      pop\n        /* \"#utility.yul\":4708:5081   */\n      swap3\n      swap2\n      pop\n      pop\n      jump\t// out\n        /* \"#utility.yul\":5087:5561   */\n    tag_60:\n        /* \"#utility.yul\":5155:5161   */\n      0x00\n        /* \"#utility.yul\":5163:5169   */\n      dup1\n        /* \"#utility.yul\":5212:5214   */\n      0x40\n        /* \"#utility.yul\":5200:5209   */\n      dup4\n        /* \"#utility.yul\":5191:5198   */\n      dup6\n        /* \"#utility.yul\":5187:5210   */\n      sub\n        /* \"#utility.yul\":5183:5215   */\n      slt\n        /* \"#utility.yul\":5180:5299   */\n      iszero\n      tag_423\n      jumpi\n        /* \"#utility.yul\":5218:5297   */\n      tag_424\n      tag_297\n      jump\t// in\n    tag_424:\n        /* \"#utility.yul\":5180:5299   */\n    tag_423:\n        /* \"#utility.yul\":5338:5339   */\n      0x00\n        /* \"#utility.yul\":5363:5416   */\n      tag_425\n        /* \"#utility.yul\":5408:5415   */\n      dup6\n        /* \"#utility.yul\":5399:5405   */\n      dup3\n        /* \"#utility.yul\":5388:5397   */\n      dup7\n        /* \"#utility.yul\":5384:5406   */\n      add\n        /* \"#utility.yul\":5363:5416   */\n      tag_305\n      jump\t// in\n    tag_425:\n        /* \"#utility.yul\":5353:5416   */\n      swap3\n      pop\n        /* \"#utility.yul\":5309:5426   */\n      pop\n        /* \"#utility.yul\":5465:5467   */\n      0x20\n        /* \"#utility.yul\":5491:5544   */\n      tag_426\n        /* \"#utility.yul\":5536:5543   */\n      dup6\n        /* \"#utility.yul\":5527:5533   */\n      dup3\n        /* \"#utility.yul\":5516:5525   */\n      dup7\n        /* \"#utility.yul\":5512:5534   */\n      add\n        /* \"#utility.yul\":5491:5544   */\n      tag_301\n      jump\t// in\n    tag_426:\n        /* \"#utility.yul\":5481:5544   */\n      swap2\n      pop\n        /* \"#utility.yul\":5436:5554   */\n      pop\n        /* \"#utility.yul\":5087:5561   */\n      swap3\n      pop\n      swap3\n      swap1\n      pop\n      jump\t// out\n        /* \"#utility.yul\":5567:5685   */\n    tag_317:\n        /* \"#utility.yul\":5654:5678   */\n      tag_428\n        /* \"#utility.yul\":5672:5677   */\n      dup2\n        /* \"#utility.yul\":5654:5678   */\n      tag_299\n      jump\t// in\n    tag_428:\n        /* \"#utility.yul\":5649:5652   */\n      dup3\n        /* \"#utility.yul\":5642:5679   */\n      mstore\n        /* \"#utility.yul\":5567:5685   */\n      pop\n      pop\n      jump\t// out\n        /* \"#utility.yul\":5691:5913   */\n    tag_63:\n        /* \"#utility.yul\":5784:5788   */\n      0x00\n        /* \"#utility.yul\":5822:5824   */\n      0x20\n        /* \"#utility.yul\":5811:5820   */\n      dup3\n        /* \"#utility.yul\":5807:5825   */\n      add\n        /* \"#utility.yul\":5799:5825   */\n      swap1\n      pop\n        /* \"#utility.yul\":5835:5906   */\n      tag_430\n        /* \"#utility.yul\":5903:5904   */\n      0x00\n        /* \"#utility.yul\":5892:5901   */\n      dup4\n        /* \"#utility.yul\":5888:5905   */\n      add\n        /* \"#utility.yul\":5879:5885   */\n      dup5\n        /* \"#utility.yul\":5835:5906   */\n      tag_317\n      jump\t// in\n    tag_430:\n        /* \"#utility.yul\":5691:5913   */\n      swap3\n      swap2\n      pop\n      pop\n      jump\t// out\n        /* \"#utility.yul\":5919:6018   */\n    tag_318:\n        /* \"#utility.yul\":5971:5977   */\n      0x00\n        /* \"#utility.yul\":6005:6010   */\n      dup2\n        /* \"#utility.yul\":5999:6011   */\n      mload\n        /* \"#utility.yul\":5989:6011   */\n      swap1\n      pop\n        /* \"#utility.yul\":5919:6018   */\n      swap2\n      swap1\n      pop\n      jump\t// out\n        /* \"#utility.yul\":6024:6193   */\n    tag_319:\n        /* \"#utility.yul\":6108:6119   */\n      0x00\n        /* \"#utility.yul\":6142:6148   */\n      dup3\n        /* \"#utility.yul\":6137:6140   */\n      dup3\n        /* \"#utility.yul\":6130:6149   */\n      mstore\n        /* \"#utility.yul\":6182:6186   */\n      0x20\n        /* \"#utility.yul\":6177:6180   */\n      dup3\n        /* \"#utility.yul\":6173:6187   */\n      add\n        /* \"#utility.yul\":6158:6187   */\n      swap1\n      pop\n        /* \"#utility.yul\":6024:6193   */\n      swap3\n      swap2\n      pop\n      pop\n      jump\t// out\n        /* \"#utility.yul\":6199:6445   */\n    tag_320:\n        /* \"#utility.yul\":6280:6281   */\n      0x00\n        /* \"#utility.yul\":6290:6403   */\n    tag_434:\n        /* \"#utility.yul\":6304:6310   */\n      dup4\n        /* \"#utility.yul\":6301:6302   */\n      dup2\n        /* \"#utility.yul\":6298:6311   */\n      lt\n        /* \"#utility.yul\":6290:6403   */\n      iszero\n      tag_436\n      jumpi\n        /* \"#utility.yul\":6389:6390   */\n      dup1\n        /* \"#utility.yul\":6384:6387   */\n      dup3\n        /* \"#utility.yul\":6380:6391   */\n      add\n        /* \"#utility.yul\":6374:6392   */\n      mload\n        /* \"#utility.yul\":6370:6371   */\n      dup2\n        /* \"#utility.yul\":6365:6368   */\n      dup5\n        /* \"#utility.yul\":6361:6372   */\n      add\n        /* \"#utility.yul\":6354:6393   */\n      mstore\n        /* \"#utility.yul\":6326:6328   */\n      0x20\n        /* \"#utility.yul\":6323:6324   */\n      dup2\n        /* \"#utility.yul\":6319:6329   */\n      add\n        /* \"#utility.yul\":6314:6329   */\n      swap1\n      pop\n        /* \"#utility.yul\":6290:6403   */\n      jump(tag_434)\n    tag_436:\n        /* \"#utility.yul\":6437:6438   */\n      0x00\n        /* \"#utility.yul\":6428:6434   */\n      dup5\n        /* \"#utility.yul\":6423:6426   */\n      dup5\n        /* \"#utility.yul\":6419:6435   */\n      add\n        /* \"#utility.yul\":6412:6439   */\n      mstore\n        /* \"#utility.yul\":6261:6445   */\n      pop\n        /* \"#utility.yul\":6199:6445   */\n      pop\n      pop\n      pop\n      jump\t// out\n        /* \"#utility.yul\":6451:6553   */\n    tag_321:\n        /* \"#utility.yul\":6492:6498   */\n      0x00\n        /* \"#utility.yul\":6543:6545   */\n      0x1f\n        /* \"#utility.yul\":6539:6546   */\n      not\n        /* \"#utility.yul\":6534:6536   */\n      0x1f\n        /* \"#utility.yul\":6527:6532   */\n      dup4\n        /* \"#utility.yul\":6523:6537   */\n      add\n        /* \"#utility.yul\":6519:6547   */\n      and\n        /* \"#utility.yul\":6509:6547   */\n      swap1\n      pop\n        /* \"#utility.yul\":6451:6553   */\n      swap2\n      swap1\n      pop\n      jump\t// out\n        /* \"#utility.yul\":6559:6936   */\n    tag_322:\n        /* \"#utility.yul\":6647:6650   */\n      0x00\n        /* \"#utility.yul\":6675:6714   */\n      tag_439\n        /* \"#utility.yul\":6708:6713   */\n      dup3\n        /* \"#utility.yul\":6675:6714   */\n      tag_318\n      jump\t// in\n    tag_439:\n        /* \"#utility.yul\":6730:6801   */\n      tag_440\n        /* \"#utility.yul\":6794:6800   */\n      dup2\n        /* \"#utility.yul\":6789:6792   */\n      dup6\n        /* \"#utility.yul\":6730:6801   */\n      tag_319\n      jump\t// in\n    tag_440:\n        /* \"#utility.yul\":6723:6801   */\n      swap4\n      pop\n        /* \"#utility.yul\":6810:6875   */\n      tag_441\n        /* \"#utility.yul\":6868:6874   */\n      dup2\n        /* \"#utility.yul\":6863:6866   */\n      dup6\n        /* \"#utility.yul\":6856:6860   */\n      0x20\n        /* \"#utility.yul\":6849:6854   */\n      dup7\n        /* \"#utility.yul\":6845:6861   */\n      add\n        /* \"#utility.yul\":6810:6875   */\n      tag_320\n      jump\t// in\n    tag_441:\n        /* \"#utility.yul\":6900:6929   */\n      tag_442\n        /* \"#utility.yul\":6922:6928   */\n      dup2\n        /* \"#utility.yul\":6900:6929   */\n      tag_321\n      jump\t// in\n    tag_442:\n        /* \"#utility.yul\":6895:6898   */\n      dup5\n        /* \"#utility.yul\":6891:6930   */\n      add\n        /* \"#utility.yul\":6884:6930   */\n      swap2\n      pop\n        /* \"#utility.yul\":6651:6936   */\n      pop\n        /* \"#utility.yul\":6559:6936   */\n      swap3\n      swap2\n      pop\n      pop\n      jump\t// out\n        /* \"#utility.yul\":6942:7255   */\n    tag_67:\n        /* \"#utility.yul\":7055:7059   */\n      0x00\n        /* \"#utility.yul\":7093:7095   */\n      0x20\n        /* \"#utility.yul\":7082:7091   */\n      dup3\n        /* \"#utility.yul\":7078:7096   */\n      add\n        /* \"#utility.yul\":7070:7096   */\n      swap1\n      pop\n        /* \"#utility.yul\":7142:7151   */\n      dup2\n        /* \"#utility.yul\":7136:7140   */\n      dup2\n        /* \"#utility.yul\":7132:7152   */\n      sub\n        /* \"#utility.yul\":7128:7129   */\n      0x00\n        /* \"#utility.yul\":7117:7126   */\n      dup4\n        /* \"#utility.yul\":7113:7130   */\n      add\n        /* \"#utility.yul\":7106:7153   */\n      mstore\n        /* \"#utility.yul\":7170:7248   */\n      tag_444\n        /* \"#utility.yul\":7243:7247   */\n      dup2\n        /* \"#utility.yul\":7234:7240   */\n      dup5\n        /* \"#utility.yul\":7170:7248   */\n      tag_322\n      jump\t// in\n    tag_444:\n        /* \"#utility.yul\":7162:7248   */\n      swap1\n      pop\n        /* \"#utility.yul\":6942:7255   */\n      swap3\n      swap2\n      pop\n      pop\n      jump\t// out\n        /* \"#utility.yul\":7261:7379   */\n    tag_323:\n        /* \"#utility.yul\":7348:7372   */\n      tag_446\n        /* \"#utility.yul\":7366:7371   */\n      dup2\n        /* \"#utility.yul\":7348:7372   */\n      tag_303\n      jump\t// in\n    tag_446:\n        /* \"#utility.yul\":7343:7346   */\n      dup3\n        /* \"#utility.yul\":7336:7373   */\n      mstore\n        /* \"#utility.yul\":7261:7379   */\n      pop\n      pop\n      jump\t// out\n        /* \"#utility.yul\":7385:7607   */\n    tag_71:\n        /* \"#utility.yul\":7478:7482   */\n      0x00\n        /* \"#utility.yul\":7516:7518   */\n      0x20\n        /* \"#utility.yul\":7505:7514   */\n      dup3\n        /* \"#utility.yul\":7501:7519   */\n      add\n        /* \"#utility.yul\":7493:7519   */\n      swap1\n      pop\n        /* \"#utility.yul\":7529:7600   */\n      tag_448\n        /* \"#utility.yul\":7597:7598   */\n      0x00\n        /* \"#utility.yul\":7586:7595   */\n      dup4\n        /* \"#utility.yul\":7582:7599   */\n      add\n        /* \"#utility.yul\":7573:7579   */\n      dup5\n        /* \"#utility.yul\":7529:7600   */\n      tag_323\n      jump\t// in\n    tag_448:\n        /* \"#utility.yul\":7385:7607   */\n      swap3\n      swap2\n      pop\n      pop\n      jump\t// out\n        /* \"#utility.yul\":7613:8107   */\n    tag_74:\n        /* \"#utility.yul\":7691:7697   */\n      0x00\n        /* \"#utility.yul\":7699:7705   */\n      dup1\n        /* \"#utility.yul\":7748:7750   */\n      0x40\n        /* \"#utility.yul\":7736:7745   */\n      dup4\n        /* \"#utility.yul\":7727:7734   */\n      dup6\n        /* \"#utility.yul\":7723:7746   */\n      sub\n        /* \"#utility.yul\":7719:7751   */\n      slt\n        /* \"#utility.yul\":7716:7835   */\n      iszero\n      tag_450\n      jumpi\n        /* \"#utility.yul\":7754:7833   */\n      tag_451\n      tag_297\n      jump\t// in\n    tag_451:\n        /* \"#utility.yul\":7716:7835   */\n    tag_450:\n        /* \"#utility.yul\":7874:7875   */\n      0x00\n        /* \"#utility.yul\":7899:7962   */\n      tag_452\n        /* \"#utility.yul\":7954:7961   */\n      dup6\n        /* \"#utility.yul\":7945:7951   */\n      dup3\n        /* \"#utility.yul\":7934:7943   */\n      dup7\n        /* \"#utility.yul\":7930:7952   */\n      add\n        /* \"#utility.yul\":7899:7962   */\n      tag_307\n      jump\t// in\n    tag_452:\n        /* \"#utility.yul\":7889:7962   */\n      swap3\n      pop\n        /* \"#utility.yul\":7845:7972   */\n      pop\n        /* \"#utility.yul\":8011:8013   */\n      0x20\n        /* \"#utility.yul\":8037:8090   */\n      tag_453\n        /* \"#utility.yul\":8082:8089   */\n      dup6\n        /* \"#utility.yul\":8073:8079   */\n      dup3\n        /* \"#utility.yul\":8062:8071   */\n      dup7\n        /* \"#utility.yul\":8058:8080   */\n      add\n        /* \"#utility.yul\":8037:8090   */\n      tag_301\n      jump\t// in\n    tag_453:\n        /* \"#utility.yul\":8027:8090   */\n      swap2\n      pop\n        /* \"#utility.yul\":7982:8100   */\n      pop\n        /* \"#utility.yul\":7613:8107   */\n      swap3\n      pop\n      swap3\n      swap1\n      pop\n      jump\t// out\n        /* \"#utility.yul\":8113:8229   */\n    tag_324:\n        /* \"#utility.yul\":8183:8204   */\n      tag_455\n        /* \"#utility.yul\":8198:8203   */\n      dup2\n        /* \"#utility.yul\":8183:8204   */\n      tag_308\n      jump\t// in\n    tag_455:\n        /* \"#utility.yul\":8176:8181   */\n      dup2\n        /* \"#utility.yul\":8173:8205   */\n      eq\n        /* \"#utility.yul\":8163:8223   */\n      tag_456\n      jumpi\n        /* \"#utility.yul\":8219:8220   */\n      0x00\n        /* \"#utility.yul\":8216:8217   */\n      dup1\n        /* \"#utility.yul\":8209:8221   */\n      revert\n        /* \"#utility.yul\":8163:8223   */\n    tag_456:\n        /* \"#utility.yul\":8113:8229   */\n      pop\n      jump\t// out\n        /* \"#utility.yul\":8235:8368   */\n    tag_325:\n        /* \"#utility.yul\":8278:8283   */\n      0x00\n        /* \"#utility.yul\":8316:8322   */\n      dup2\n        /* \"#utility.yul\":8303:8323   */\n      calldataload\n        /* \"#utility.yul\":8294:8323   */\n      swap1\n      pop\n        /* \"#utility.yul\":8332:8362   */\n      tag_458\n        /* \"#utility.yul\":8356:8361   */\n      dup2\n        /* \"#utility.yul\":8332:8362   */\n      tag_324\n      jump\t// in\n    tag_458:\n        /* \"#utility.yul\":8235:8368   */\n      swap3\n      swap2\n      pop\n      pop\n      jump\t// out\n        /* \"#utility.yul\":8374:8697   */\n    tag_81:\n        /* \"#utility.yul\":8430:8436   */\n      0x00\n        /* \"#utility.yul\":8479:8481   */\n      0x20\n        /* \"#utility.yul\":8467:8476   */\n      dup3\n        /* \"#utility.yul\":8458:8465   */\n      dup5\n        /* \"#utility.yul\":8454:8477   */\n      sub\n        /* \"#utility.yul\":8450:8482   */\n      slt\n        /* \"#utility.yul\":8447:8566   */\n      iszero\n      tag_460\n      jumpi\n        /* \"#utility.yul\":8485:8564   */\n      tag_461\n      tag_297\n      jump\t// in\n    tag_461:\n        /* \"#utility.yul\":8447:8566   */\n    tag_460:\n        /* \"#utility.yul\":8605:8606   */\n      0x00\n        /* \"#utility.yul\":8630:8680   */\n      tag_462\n        /* \"#utility.yul\":8672:8679   */\n      dup5\n        /* \"#utility.yul\":8663:8669   */\n      dup3\n        /* \"#utility.yul\":8652:8661   */\n      dup6\n        /* \"#utility.yul\":8648:8670   */\n      add\n        /* \"#utility.yul\":8630:8680   */\n      tag_325\n      jump\t// in\n    tag_462:\n        /* \"#utility.yul\":8620:8680   */\n      swap2\n      pop\n        /* \"#utility.yul\":8576:8690   */\n      pop\n        /* \"#utility.yul\":8374:8697   */\n      swap3\n      swap2\n      pop\n      pop\n      jump\t// out\n        /* \"#utility.yul\":8703:8763   */\n    tag_326:\n        /* \"#utility.yul\":8731:8734   */\n      0x00\n        /* \"#utility.yul\":8752:8757   */\n      dup2\n        /* \"#utility.yul\":8745:8757   */\n      swap1\n      pop\n        /* \"#utility.yul\":8703:8763   */\n      swap2\n      swap1\n      pop\n      jump\t// out\n        /* \"#utility.yul\":8769:8911   */\n    tag_327:\n        /* \"#utility.yul\":8819:8828   */\n      0x00\n        /* \"#utility.yul\":8852:8905   */\n      tag_465\n        /* \"#utility.yul\":8870:8904   */\n      tag_466\n        /* \"#utility.yul\":8879:8903   */\n      tag_467\n        /* \"#utility.yul\":8897:8902   */\n      dup5\n        /* \"#utility.yul\":8879:8903   */\n      tag_302\n      jump\t// in\n    tag_467:\n        /* \"#utility.yul\":8870:8904   */\n      tag_326\n      jump\t// in\n    tag_466:\n        /* \"#utility.yul\":8852:8905   */\n      tag_302\n      jump\t// in\n    tag_465:\n        /* \"#utility.yul\":8839:8905   */\n      swap1\n      pop\n        /* \"#utility.yul\":8769:8911   */\n      swap2\n      swap1\n      pop\n      jump\t// out\n        /* \"#utility.yul\":8917:9043   */\n    tag_328:\n        /* \"#utility.yul\":8967:8976   */\n      0x00\n        /* \"#utility.yul\":9000:9037   */\n      tag_469\n        /* \"#utility.yul\":9031:9036   */\n      dup3\n        /* \"#utility.yul\":9000:9037   */\n      tag_327\n      jump\t// in\n    tag_469:\n        /* \"#utility.yul\":8987:9037   */\n      swap1\n      pop\n        /* \"#utility.yul\":8917:9043   */\n      swap2\n      swap1\n      pop\n      jump\t// out\n        /* \"#utility.yul\":9049:9190   */\n    tag_329:\n        /* \"#utility.yul\":9114:9123   */\n      0x00\n        /* \"#utility.yul\":9147:9184   */\n      tag_471\n        /* \"#utility.yul\":9178:9183   */\n      dup3\n        /* \"#utility.yul\":9147:9184   */\n      tag_328\n      jump\t// in\n    tag_471:\n        /* \"#utility.yul\":9134:9184   */\n      swap1\n      pop\n        /* \"#utility.yul\":9049:9190   */\n      swap2\n      swap1\n      pop\n      jump\t// out\n        /* \"#utility.yul\":9196:9357   */\n    tag_330:\n        /* \"#utility.yul\":9298:9350   */\n      tag_473\n        /* \"#utility.yul\":9344:9349   */\n      dup2\n        /* \"#utility.yul\":9298:9350   */\n      tag_329\n      jump\t// in\n    tag_473:\n        /* \"#utility.yul\":9293:9296   */\n      dup3\n        /* \"#utility.yul\":9286:9351   */\n      mstore\n        /* \"#utility.yul\":9196:9357   */\n      pop\n      pop\n      jump\t// out\n        /* \"#utility.yul\":9363:9615   */\n    tag_87:\n        /* \"#utility.yul\":9471:9475   */\n      0x00\n        /* \"#utility.yul\":9509:9511   */\n      0x20\n        /* \"#utility.yul\":9498:9507   */\n      dup3\n        /* \"#utility.yul\":9494:9512   */\n      add\n        /* \"#utility.yul\":9486:9512   */\n      swap1\n      pop\n        /* \"#utility.yul\":9522:9608   */\n      tag_475\n        /* \"#utility.yul\":9605:9606   */\n      0x00\n        /* \"#utility.yul\":9594:9603   */\n      dup4\n        /* \"#utility.yul\":9590:9607   */\n      add\n        /* \"#utility.yul\":9581:9587   */\n      dup5\n        /* \"#utility.yul\":9522:9608   */\n      tag_330\n      jump\t// in\n    tag_475:\n        /* \"#utility.yul\":9363:9615   */\n      swap3\n      swap2\n      pop\n      pop\n      jump\t// out\n        /* \"#utility.yul\":9621:9738   */\n    tag_331:\n        /* \"#utility.yul\":9730:9731   */\n      0x00\n        /* \"#utility.yul\":9727:9728   */\n      dup1\n        /* \"#utility.yul\":9720:9732   */\n      revert\n        /* \"#utility.yul\":9744:9861   */\n    tag_332:\n        /* \"#utility.yul\":9853:9854   */\n      0x00\n        /* \"#utility.yul\":9850:9851   */\n      dup1\n        /* \"#utility.yul\":9843:9855   */\n      revert\n        /* \"#utility.yul\":9867:9984   */\n    tag_333:\n        /* \"#utility.yul\":9976:9977   */\n      0x00\n        /* \"#utility.yul\":9973:9974   */\n      dup1\n        /* \"#utility.yul\":9966:9978   */\n      revert\n        /* \"#utility.yul\":10004:10557   */\n    tag_334:\n        /* \"#utility.yul\":10062:10070   */\n      0x00\n        /* \"#utility.yul\":10072:10078   */\n      dup1\n        /* \"#utility.yul\":10122:10125   */\n      dup4\n        /* \"#utility.yul\":10115:10119   */\n      0x1f\n        /* \"#utility.yul\":10107:10113   */\n      dup5\n        /* \"#utility.yul\":10103:10120   */\n      add\n        /* \"#utility.yul\":10099:10126   */\n      slt\n        /* \"#utility.yul\":10089:10211   */\n      tag_480\n      jumpi\n        /* \"#utility.yul\":10130:10209   */\n      tag_481\n      tag_331\n      jump\t// in\n    tag_481:\n        /* \"#utility.yul\":10089:10211   */\n    tag_480:\n        /* \"#utility.yul\":10243:10249   */\n      dup3\n        /* \"#utility.yul\":10230:10250   */\n      calldataload\n        /* \"#utility.yul\":10220:10250   */\n      swap1\n      pop\n        /* \"#utility.yul\":10273:10291   */\n      0xffffffffffffffff\n        /* \"#utility.yul\":10265:10271   */\n      dup2\n        /* \"#utility.yul\":10262:10292   */\n      gt\n        /* \"#utility.yul\":10259:10376   */\n      iszero\n      tag_482\n      jumpi\n        /* \"#utility.yul\":10295:10374   */\n      tag_483\n      tag_332\n      jump\t// in\n    tag_483:\n        /* \"#utility.yul\":10259:10376   */\n    tag_482:\n        /* \"#utility.yul\":10409:10413   */\n      0x20\n        /* \"#utility.yul\":10401:10407   */\n      dup4\n        /* \"#utility.yul\":10397:10414   */\n      add\n        /* \"#utility.yul\":10385:10414   */\n      swap2\n      pop\n        /* \"#utility.yul\":10463:10466   */\n      dup4\n        /* \"#utility.yul\":10455:10459   */\n      0x01\n        /* \"#utility.yul\":10447:10453   */\n      dup3\n        /* \"#utility.yul\":10443:10460   */\n      mul\n        /* \"#utility.yul\":10433:10441   */\n      dup4\n        /* \"#utility.yul\":10429:10461   */\n      add\n        /* \"#utility.yul\":10426:10467   */\n      gt\n        /* \"#utility.yul\":10423:10551   */\n      iszero\n      tag_484\n      jumpi\n        /* \"#utility.yul\":10470:10549   */\n      tag_485\n      tag_333\n      jump\t// in\n    tag_485:\n        /* \"#utility.yul\":10423:10551   */\n    tag_484:\n        /* \"#utility.yul\":10004:10557   */\n      swap3\n      pop\n      swap3\n      swap1\n      pop\n      jump\t// out\n        /* \"#utility.yul\":10563:11092   */\n    tag_99:\n        /* \"#utility.yul\":10634:10640   */\n      0x00\n        /* \"#utility.yul\":10642:10648   */\n      dup1\n        /* \"#utility.yul\":10691:10693   */\n      0x20\n        /* \"#utility.yul\":10679:10688   */\n      dup4\n        /* \"#utility.yul\":10670:10677   */\n      dup6\n        /* \"#utility.yul\":10666:10689   */\n      sub\n        /* \"#utility.yul\":10662:10694   */\n      slt\n        /* \"#utility.yul\":10659:10778   */\n      iszero\n      tag_487\n      jumpi\n        /* \"#utility.yul\":10697:10776   */\n      tag_488\n      tag_297\n      jump\t// in\n    tag_488:\n        /* \"#utility.yul\":10659:10778   */\n    tag_487:\n        /* \"#utility.yul\":10845:10846   */\n      0x00\n        /* \"#utility.yul\":10834:10843   */\n      dup4\n        /* \"#utility.yul\":10830:10847   */\n      add\n        /* \"#utility.yul\":10817:10848   */\n      calldataload\n        /* \"#utility.yul\":10875:10893   */\n      0xffffffffffffffff\n        /* \"#utility.yul\":10867:10873   */\n      dup2\n        /* \"#utility.yul\":10864:10894   */\n      gt\n        /* \"#utility.yul\":10861:10978   */\n      iszero\n      tag_489\n      jumpi\n        /* \"#utility.yul\":10897:10976   */\n      tag_490\n      tag_298\n      jump\t// in\n    tag_490:\n        /* \"#utility.yul\":10861:10978   */\n    tag_489:\n        /* \"#utility.yul\":11010:11075   */\n      tag_491\n        /* \"#utility.yul\":11067:11074   */\n      dup6\n        /* \"#utility.yul\":11058:11064   */\n      dup3\n        /* \"#utility.yul\":11047:11056   */\n      dup7\n        /* \"#utility.yul\":11043:11065   */\n      add\n        /* \"#utility.yul\":11010:11075   */\n      tag_334\n      jump\t// in\n    tag_491:\n        /* \"#utility.yul\":10992:11075   */\n      swap3\n      pop\n      swap3\n      pop\n        /* \"#utility.yul\":10788:11085   */\n      pop\n        /* \"#utility.yul\":10563:11092   */\n      swap3\n      pop\n      swap3\n      swap1\n      pop\n      jump\t// out\n        /* \"#utility.yul\":11098:11447   */\n    tag_103:\n        /* \"#utility.yul\":11167:11173   */\n      0x00\n        /* \"#utility.yul\":11216:11218   */\n      0x20\n        /* \"#utility.yul\":11204:11213   */\n      dup3\n        /* \"#utility.yul\":11195:11202   */\n      dup5\n        /* \"#utility.yul\":11191:11214   */\n      sub\n        /* \"#utility.yul\":11187:11219   */\n      slt\n        /* \"#utility.yul\":11184:11303   */\n      iszero\n      tag_493\n      jumpi\n        /* \"#utility.yul\":11222:11301   */\n      tag_494\n      tag_297\n      jump\t// in\n    tag_494:\n        /* \"#utility.yul\":11184:11303   */\n    tag_493:\n        /* \"#utility.yul\":11342:11343   */\n      0x00\n        /* \"#utility.yul\":11367:11430   */\n      tag_495\n        /* \"#utility.yul\":11422:11429   */\n      dup5\n        /* \"#utility.yul\":11413:11419   */\n      dup3\n        /* \"#utility.yul\":11402:11411   */\n      dup6\n        /* \"#utility.yul\":11398:11420   */\n      add\n        /* \"#utility.yul\":11367:11430   */\n      tag_307\n      jump\t// in\n    tag_495:\n        /* \"#utility.yul\":11357:11430   */\n      swap2\n      pop\n        /* \"#utility.yul\":11313:11440   */\n      pop\n        /* \"#utility.yul\":11098:11447   */\n      swap3\n      swap2\n      pop\n      pop\n      jump\t// out\n        /* \"#utility.yul\":11453:11633   */\n    tag_149:\n        /* \"#utility.yul\":11501:11578   */\n      0x4e487b7100000000000000000000000000000000000000000000000000000000\n        /* \"#utility.yul\":11498:11499   */\n      0x00\n        /* \"#utility.yul\":11491:11579   */\n      mstore\n        /* \"#utility.yul\":11598:11602   */\n      0x21\n        /* \"#utility.yul\":11595:11596   */\n      0x04\n        /* \"#utility.yul\":11588:11603   */\n      mstore\n        /* \"#utility.yul\":11622:11626   */\n      0x24\n        /* \"#utility.yul\":11619:11620   */\n      0x00\n        /* \"#utility.yul\":11612:11627   */\n      revert\n        /* \"#utility.yul\":11639:11754   */\n    tag_335:\n        /* \"#utility.yul\":11722:11723   */\n      0x05\n        /* \"#utility.yul\":11715:11720   */\n      dup2\n        /* \"#utility.yul\":11712:11724   */\n      lt\n        /* \"#utility.yul\":11702:11748   */\n      tag_498\n      jumpi\n        /* \"#utility.yul\":11728:11746   */\n      tag_499\n      tag_149\n      jump\t// in\n    tag_499:\n        /* \"#utility.yul\":11702:11748   */\n    tag_498:\n        /* \"#utility.yul\":11639:11754   */\n      pop\n      jump\t// out\n        /* \"#utility.yul\":11760:11891   */\n    tag_336:\n        /* \"#utility.yul\":11807:11814   */\n      0x00\n        /* \"#utility.yul\":11836:11841   */\n      dup2\n        /* \"#utility.yul\":11825:11841   */\n      swap1\n      pop\n        /* \"#utility.yul\":11842:11885   */\n      tag_501\n        /* \"#utility.yul\":11879:11884   */\n      dup3\n        /* \"#utility.yul\":11842:11885   */\n      tag_335\n      jump\t// in\n    tag_501:\n        /* \"#utility.yul\":11760:11891   */\n      swap2\n      swap1\n      pop\n      jump\t// out\n        /* \"#utility.yul\":11897:12028   */\n    tag_337:\n        /* \"#utility.yul\":11955:11964   */\n      0x00\n        /* \"#utility.yul\":11988:12022   */\n      tag_503\n        /* \"#utility.yul\":12016:12021   */\n      dup3\n        /* \"#utility.yul\":11988:12022   */\n      tag_336\n      jump\t// in\n    tag_503:\n        /* \"#utility.yul\":11975:12022   */\n      swap1\n      pop\n        /* \"#utility.yul\":11897:12028   */\n      swap2\n      swap1\n      pop\n      jump\t// out\n        /* \"#utility.yul\":12034:12181   */\n    tag_338:\n        /* \"#utility.yul\":12129:12174   */\n      tag_505\n        /* \"#utility.yul\":12168:12173   */\n      dup2\n        /* \"#utility.yul\":12129:12174   */\n      tag_337\n      jump\t// in\n    tag_505:\n        /* \"#utility.yul\":12124:12127   */\n      dup3\n        /* \"#utility.yul\":12117:12175   */\n      mstore\n        /* \"#utility.yul\":12034:12181   */\n      pop\n      pop\n      jump\t// out\n        /* \"#utility.yul\":12187:12425   */\n    tag_113:\n        /* \"#utility.yul\":12288:12292   */\n      0x00\n        /* \"#utility.yul\":12326:12328   */\n      0x20\n        /* \"#utility.yul\":12315:12324   */\n      dup3\n        /* \"#utility.yul\":12311:12329   */\n      add\n        /* \"#utility.yul\":12303:12329   */\n      swap1\n      pop\n        /* \"#utility.yul\":12339:12418   */\n      tag_507\n        /* \"#utility.yul\":12415:12416   */\n      0x00\n        /* \"#utility.yul\":12404:12413   */\n      dup4\n        /* \"#utility.yul\":12400:12417   */\n      add\n        /* \"#utility.yul\":12391:12397   */\n      dup5\n        /* \"#utility.yul\":12339:12418   */\n      tag_338\n      jump\t// in\n    tag_507:\n        /* \"#utility.yul\":12187:12425   */\n      swap3\n      swap2\n      pop\n      pop\n      jump\t// out\n        /* \"#utility.yul\":12431:12601   */\n    tag_339:\n        /* \"#utility.yul\":12571:12593   */\n      0x63616c6c6572206d757374206265206f776e6572000000000000000000000000\n        /* \"#utility.yul\":12567:12568   */\n      0x00\n        /* \"#utility.yul\":12559:12565   */\n      dup3\n        /* \"#utility.yul\":12555:12569   */\n      add\n        /* \"#utility.yul\":12548:12594   */\n      mstore\n        /* \"#utility.yul\":12431:12601   */\n      pop\n      jump\t// out\n        /* \"#utility.yul\":12607:12973   */\n    tag_340:\n        /* \"#utility.yul\":12749:12752   */\n      0x00\n        /* \"#utility.yul\":12770:12837   */\n      tag_510\n        /* \"#utility.yul\":12834:12836   */\n      0x14\n        /* \"#utility.yul\":12829:12832   */\n      dup4\n        /* \"#utility.yul\":12770:12837   */\n      tag_319\n      jump\t// in\n    tag_510:\n        /* \"#utility.yul\":12763:12837   */\n      swap2\n      pop\n        /* \"#utility.yul\":12846:12939   */\n      tag_511\n        /* \"#utility.yul\":12935:12938   */\n      dup3\n        /* \"#utility.yul\":12846:12939   */\n      tag_339\n      jump\t// in\n    tag_511:\n        /* \"#utility.yul\":12964:12966   */\n      0x20\n        /* \"#utility.yul\":12959:12962   */\n      dup3\n        /* \"#utility.yul\":12955:12967   */\n      add\n        /* \"#utility.yul\":12948:12967   */\n      swap1\n      pop\n        /* \"#utility.yul\":12607:12973   */\n      swap2\n      swap1\n      pop\n      jump\t// out\n        /* \"#utility.yul\":12979:13398   */\n    tag_143:\n        /* \"#utility.yul\":13145:13149   */\n      0x00\n        /* \"#utility.yul\":13183:13185   */\n      0x20\n        /* \"#utility.yul\":13172:13181   */\n      dup3\n        /* \"#utility.yul\":13168:13186   */\n      add\n        /* \"#utility.yul\":13160:13186   */\n      swap1\n      pop\n        /* \"#utility.yul\":13232:13241   */\n      dup2\n        /* \"#utility.yul\":13226:13230   */\n      dup2\n        /* \"#utility.yul\":13222:13242   */\n      sub\n        /* \"#utility.yul\":13218:13219   */\n      0x00\n        /* \"#utility.yul\":13207:13216   */\n      dup4\n        /* \"#utility.yul\":13203:13220   */\n      add\n        /* \"#utility.yul\":13196:13243   */\n      mstore\n        /* \"#utility.yul\":13260:13391   */\n      tag_513\n        /* \"#utility.yul\":13386:13390   */\n      dup2\n        /* \"#utility.yul\":13260:13391   */\n      tag_340\n      jump\t// in\n    tag_513:\n        /* \"#utility.yul\":13252:13391   */\n      swap1\n      pop\n        /* \"#utility.yul\":12979:13398   */\n      swap2\n      swap1\n      pop\n      jump\t// out\n        /* \"#utility.yul\":13404:13567   */\n    tag_341:\n        /* \"#utility.yul\":13471:13476   */\n      0x00\n        /* \"#utility.yul\":13502:13508   */\n      dup2\n        /* \"#utility.yul\":13496:13509   */\n      mload\n        /* \"#utility.yul\":13487:13509   */\n      swap1\n      pop\n        /* \"#utility.yul\":13518:13561   */\n      tag_515\n        /* \"#utility.yul\":13555:13560   */\n      dup2\n        /* \"#utility.yul\":13518:13561   */\n      tag_306\n      jump\t// in\n    tag_515:\n        /* \"#utility.yul\":13404:13567   */\n      swap3\n      swap2\n      pop\n      pop\n      jump\t// out\n        /* \"#utility.yul\":13573:13944   */\n    tag_154:\n        /* \"#utility.yul\":13653:13659   */\n      0x00\n        /* \"#utility.yul\":13702:13704   */\n      0x20\n        /* \"#utility.yul\":13690:13699   */\n      dup3\n        /* \"#utility.yul\":13681:13688   */\n      dup5\n        /* \"#utility.yul\":13677:13700   */\n      sub\n        /* \"#utility.yul\":13673:13705   */\n      slt\n        /* \"#utility.yul\":13670:13789   */\n      iszero\n      tag_517\n      jumpi\n        /* \"#utility.yul\":13708:13787   */\n      tag_518\n      tag_297\n      jump\t// in\n    tag_518:\n        /* \"#utility.yul\":13670:13789   */\n    tag_517:\n        /* \"#utility.yul\":13828:13829   */\n      0x00\n        /* \"#utility.yul\":13853:13927   */\n      tag_519\n        /* \"#utility.yul\":13919:13926   */\n      dup5\n        /* \"#utility.yul\":13910:13916   */\n      dup3\n        /* \"#utility.yul\":13899:13908   */\n      dup6\n        /* \"#utility.yul\":13895:13917   */\n      add\n        /* \"#utility.yul\":13853:13927   */\n      tag_341\n      jump\t// in\n    tag_519:\n        /* \"#utility.yul\":13843:13927   */\n      swap2\n      pop\n        /* \"#utility.yul\":13799:13937   */\n      pop\n        /* \"#utility.yul\":13573:13944   */\n      swap3\n      swap2\n      pop\n      pop\n      jump\t// out\n        /* \"#utility.yul\":13950:14130   */\n    tag_342:\n        /* \"#utility.yul\":13998:14075   */\n      0x4e487b7100000000000000000000000000000000000000000000000000000000\n        /* \"#utility.yul\":13995:13996   */\n      0x00\n        /* \"#utility.yul\":13988:14076   */\n      mstore\n        /* \"#utility.yul\":14095:14099   */\n      0x22\n        /* \"#utility.yul\":14092:14093   */\n      0x04\n        /* \"#utility.yul\":14085:14100   */\n      mstore\n        /* \"#utility.yul\":14119:14123   */\n      0x24\n        /* \"#utility.yul\":14116:14117   */\n      0x00\n        /* \"#utility.yul\":14109:14124   */\n      revert\n        /* \"#utility.yul\":14136:14456   */\n    tag_190:\n        /* \"#utility.yul\":14180:14186   */\n      0x00\n        /* \"#utility.yul\":14217:14218   */\n      0x02\n        /* \"#utility.yul\":14211:14215   */\n      dup3\n        /* \"#utility.yul\":14207:14219   */\n      div\n        /* \"#utility.yul\":14197:14219   */\n      swap1\n      pop\n        /* \"#utility.yul\":14264:14265   */\n      0x01\n        /* \"#utility.yul\":14258:14262   */\n      dup3\n        /* \"#utility.yul\":14254:14266   */\n      and\n        /* \"#utility.yul\":14285:14303   */\n      dup1\n        /* \"#utility.yul\":14275:14356   */\n      tag_522\n      jumpi\n        /* \"#utility.yul\":14341:14345   */\n      0x7f\n        /* \"#utility.yul\":14333:14339   */\n      dup3\n        /* \"#utility.yul\":14329:14346   */\n      and\n        /* \"#utility.yul\":14319:14346   */\n      swap2\n      pop\n        /* \"#utility.yul\":14275:14356   */\n    tag_522:\n        /* \"#utility.yul\":14403:14405   */\n      0x20\n        /* \"#utility.yul\":14395:14401   */\n      dup3\n        /* \"#utility.yul\":14392:14406   */\n      lt\n        /* \"#utility.yul\":14372:14390   */\n      dup2\n        /* \"#utility.yul\":14369:14407   */\n      sub\n        /* \"#utility.yul\":14366:14450   */\n      tag_523\n      jumpi\n        /* \"#utility.yul\":14422:14440   */\n      tag_524\n      tag_342\n      jump\t// in\n    tag_524:\n        /* \"#utility.yul\":14366:14450   */\n    tag_523:\n        /* \"#utility.yul\":14187:14456   */\n      pop\n        /* \"#utility.yul\":14136:14456   */\n      swap2\n      swap1\n      pop\n      jump\t// out\n        /* \"#utility.yul\":14462:14642   */\n    tag_203:\n        /* \"#utility.yul\":14510:14587   */\n      0x4e487b7100000000000000000000000000000000000000000000000000000000\n        /* \"#utility.yul\":14507:14508   */\n      0x00\n        /* \"#utility.yul\":14500:14588   */\n      mstore\n        /* \"#utility.yul\":14607:14611   */\n      0x32\n        /* \"#utility.yul\":14604:14605   */\n      0x04\n        /* \"#utility.yul\":14597:14612   */\n      mstore\n        /* \"#utility.yul\":14631:14635   */\n      0x24\n        /* \"#utility.yul\":14628:14629   */\n      0x00\n        /* \"#utility.yul\":14621:14636   */\n      revert\n        /* \"#utility.yul\":14648:14745   */\n    tag_343:\n        /* \"#utility.yul\":14707:14713   */\n      0x00\n        /* \"#utility.yul\":14735:14738   */\n      dup3\n        /* \"#utility.yul\":14725:14738   */\n      swap1\n      pop\n        /* \"#utility.yul\":14648:14745   */\n      swap3\n      swap2\n      pop\n      pop\n      jump\t// out\n        /* \"#utility.yul\":14751:14931   */\n    tag_344:\n        /* \"#utility.yul\":14799:14876   */\n      0x4e487b7100000000000000000000000000000000000000000000000000000000\n        /* \"#utility.yul\":14796:14797   */\n      0x00\n        /* \"#utility.yul\":14789:14877   */\n      mstore\n        /* \"#utility.yul\":14896:14900   */\n      0x41\n        /* \"#utility.yul\":14893:14894   */\n      0x04\n        /* \"#utility.yul\":14886:14901   */\n      mstore\n        /* \"#utility.yul\":14920:14924   */\n      0x24\n        /* \"#utility.yul\":14917:14918   */\n      0x00\n        /* \"#utility.yul\":14910:14925   */\n      revert\n        /* \"#utility.yul\":14937:15078   */\n    tag_345:\n        /* \"#utility.yul\":14986:14990   */\n      0x00\n        /* \"#utility.yul\":15009:15012   */\n      dup2\n        /* \"#utility.yul\":15001:15012   */\n      swap1\n      pop\n        /* \"#utility.yul\":15032:15035   */\n      dup2\n        /* \"#utility.yul\":15029:15030   */\n      0x00\n        /* \"#utility.yul\":15022:15036   */\n      mstore\n        /* \"#utility.yul\":15066:15070   */\n      0x20\n        /* \"#utility.yul\":15063:15064   */\n      0x00\n        /* \"#utility.yul\":15053:15071   */\n      keccak256\n        /* \"#utility.yul\":15045:15071   */\n      swap1\n      pop\n        /* \"#utility.yul\":14937:15078   */\n      swap2\n      swap1\n      pop\n      jump\t// out\n        /* \"#utility.yul\":15084:15177   */\n    tag_346:\n        /* \"#utility.yul\":15121:15127   */\n      0x00\n        /* \"#utility.yul\":15168:15170   */\n      0x20\n        /* \"#utility.yul\":15163:15165   */\n      0x1f\n        /* \"#utility.yul\":15156:15161   */\n      dup4\n        /* \"#utility.yul\":15152:15166   */\n      add\n        /* \"#utility.yul\":15148:15171   */\n      div\n        /* \"#utility.yul\":15138:15171   */\n      swap1\n      pop\n        /* \"#utility.yul\":15084:15177   */\n      swap2\n      swap1\n      pop\n      jump\t// out\n        /* \"#utility.yul\":15183:15290   */\n    tag_347:\n        /* \"#utility.yul\":15227:15235   */\n      0x00\n        /* \"#utility.yul\":15277:15282   */\n      dup3\n        /* \"#utility.yul\":15271:15275   */\n      dup3\n        /* \"#utility.yul\":15267:15283   */\n      shl\n        /* \"#utility.yul\":15246:15283   */\n      swap1\n      pop\n        /* \"#utility.yul\":15183:15290   */\n      swap3\n      swap2\n      pop\n      pop\n      jump\t// out\n        /* \"#utility.yul\":15296:15689   */\n    tag_348:\n        /* \"#utility.yul\":15365:15371   */\n      0x00\n        /* \"#utility.yul\":15415:15416   */\n      0x08\n        /* \"#utility.yul\":15403:15413   */\n      dup4\n        /* \"#utility.yul\":15399:15417   */\n      mul\n        /* \"#utility.yul\":15438:15535   */\n      tag_532\n        /* \"#utility.yul\":15468:15534   */\n      0xffffffffffffffffffffffffffffffffffffffffffffffffffffffffffffffff\n        /* \"#utility.yul\":15457:15466   */\n      dup3\n        /* \"#utility.yul\":15438:15535   */\n      tag_347\n      jump\t// in\n    tag_532:\n        /* \"#utility.yul\":15556:15595   */\n      tag_533\n        /* \"#utility.yul\":15586:15594   */\n      dup7\n        /* \"#utility.yul\":15575:15584   */\n      dup4\n        /* \"#utility.yul\":15556:15595   */\n      tag_347\n      jump\t// in\n    tag_533:\n        /* \"#utility.yul\":15544:15595   */\n      swap6\n      pop\n        /* \"#utility.yul\":15628:15632   */\n      dup1\n        /* \"#utility.yul\":15624:15633   */\n      not\n        /* \"#utility.yul\":15617:15622   */\n      dup5\n        /* \"#utility.yul\":15613:15634   */\n      and\n        /* \"#utility.yul\":15604:15634   */\n      swap4\n      pop\n        /* \"#utility.yul\":15677:15681   */\n      dup1\n        /* \"#utility.yul\":15667:15675   */\n      dup7\n        /* \"#utility.yul\":15663:15682   */\n      and\n        /* \"#utility.yul\":15656:15661   */\n      dup5\n        /* \"#utility.yul\":15653:15683   */\n      or\n        /* \"#utility.yul\":15643:15683   */\n      swap3\n      pop\n        /* \"#utility.yul\":15372:15689   */\n      pop\n      pop\n        /* \"#utility.yul\":15296:15689   */\n      swap4\n      swap3\n      pop\n      pop\n      pop\n      jump\t// out\n        /* \"#utility.yul\":15695:15837   */\n    tag_349:\n        /* \"#utility.yul\":15745:15754   */\n      0x00\n        /* \"#utility.yul\":15778:15831   */\n      tag_535\n        /* \"#utility.yul\":15796:15830   */\n      tag_536\n        /* \"#utility.yul\":15805:15829   */\n      tag_537\n        /* \"#utility.yul\":15823:15828   */\n      dup5\n        /* \"#utility.yul\":15805:15829   */\n      tag_299\n      jump\t// in\n    tag_537:\n        /* \"#utility.yul\":15796:15830   */\n      tag_326\n      jump\t// in\n    tag_536:\n        /* \"#utility.yul\":15778:15831   */\n      tag_299\n      jump\t// in\n    tag_535:\n        /* \"#utility.yul\":15765:15831   */\n      swap1\n      pop\n        /* \"#utility.yul\":15695:15837   */\n      swap2\n      swap1\n      pop\n      jump\t// out\n        /* \"#utility.yul\":15843:15918   */\n    tag_350:\n        /* \"#utility.yul\":15886:15889   */\n      0x00\n        /* \"#utility.yul\":15907:15912   */\n      dup2\n        /* \"#utility.yul\":15900:15912   */\n      swap1\n      pop\n        /* \"#utility.yul\":15843:15918   */\n      swap2\n      swap1\n      pop\n      jump\t// out\n        /* \"#utility.yul\":15924:16193   */\n    tag_351:\n        /* \"#utility.yul\":16034:16073   */\n      tag_540\n        /* \"#utility.yul\":16065:16072   */\n      dup4\n        /* \"#utility.yul\":16034:16073   */\n      tag_349\n      jump\t// in\n    tag_540:\n        /* \"#utility.yul\":16095:16186   */\n      tag_541\n        /* \"#utility.yul\":16144:16185   */\n      tag_542\n        /* \"#utility.yul\":16168:16184   */\n      dup3\n        /* \"#utility.yul\":16144:16185   */\n      tag_350\n      jump\t// in\n    tag_542:\n        /* \"#utility.yul\":16136:16142   */\n      dup5\n        /* \"#utility.yul\":16129:16133   */\n      dup5\n        /* \"#utility.yul\":16123:16134   */\n      sload\n        /* \"#utility.yul\":16095:16186   */\n      tag_348\n      jump\t// in\n    tag_541:\n        /* \"#utility.yul\":16089:16093   */\n      dup3\n        /* \"#utility.yul\":16082:16187   */\n      sstore\n        /* \"#utility.yul\":16000:16193   */\n      pop\n        /* \"#utility.yul\":15924:16193   */\n      pop\n      pop\n      pop\n      jump\t// out\n        /* \"#utility.yul\":16199:16272   */\n    tag_352:\n        /* \"#utility.yul\":16244:16247   */\n      0x00\n        /* \"#utility.yul\":16199:16272   */\n      swap1\n      jump\t// out\n        /* \"#utility.yul\":16278:16467   */\n    tag_353:\n        /* \"#utility.yul\":16355:16387   */\n      tag_545\n      tag_352\n      jump\t// in\n    tag_545:\n        /* \"#utility.yul\":16396:16461   */\n      tag_546\n        /* \"#utility.yul\":16454:16460   */\n      dup2\n        /* \"#utility.yul\":16446:16452   */\n      dup5\n        /* \"#utility.yul\":16440:16444   */\n      dup5\n        /* \"#utility.yul\":16396:16461   */\n      tag_351\n      jump\t// in\n    tag_546:\n        /* \"#utility.yul\":16331:16467   */\n      pop\n        /* \"#utility.yul\":16278:16467   */\n      pop\n      pop\n      jump\t// out\n        /* \"#utility.yul\":16473:16659   */\n    tag_354:\n        /* \"#utility.yul\":16533:16653   */\n    tag_548:\n        /* \"#utility.yul\":16550:16553   */\n      dup2\n        /* \"#utility.yul\":16543:16548   */\n      dup2\n        /* \"#utility.yul\":16540:16554   */\n      lt\n        /* \"#utility.yul\":16533:16653   */\n      iszero\n      tag_550\n      jumpi\n        /* \"#utility.yul\":16604:16643   */\n      tag_551\n        /* \"#utility.yul\":16641:16642   */\n      0x00\n        /* \"#utility.yul\":16634:16639   */\n      dup3\n        /* \"#utility.yul\":16604:16643   */\n      tag_353\n      jump\t// in\n    tag_551:\n        /* \"#utility.yul\":16577:16578   */\n      0x01\n        /* \"#utility.yul\":16570:16575   */\n      dup2\n        /* \"#utility.yul\":16566:16579   */\n      add\n        /* \"#utility.yul\":16557:16579   */\n      swap1\n      pop\n        /* \"#utility.yul\":16533:16653   */\n      jump(tag_548)\n    tag_550:\n        /* \"#utility.yul\":16473:16659   */\n      pop\n      pop\n      jump\t// out\n        /* \"#utility.yul\":16665:17208   */\n    tag_355:\n        /* \"#utility.yul\":16766:16768   */\n      0x1f\n        /* \"#utility.yul\":16761:16764   */\n      dup3\n        /* \"#utility.yul\":16758:16769   */\n      gt\n        /* \"#utility.yul\":16755:17201   */\n      iszero\n      tag_553\n      jumpi\n        /* \"#utility.yul\":16800:16838   */\n      tag_554\n        /* \"#utility.yul\":16832:16837   */\n      dup2\n        /* \"#utility.yul\":16800:16838   */\n      tag_345\n      jump\t// in\n    tag_554:\n        /* \"#utility.yul\":16884:16913   */\n      tag_555\n        /* \"#utility.yul\":16902:16912   */\n      dup5\n        /* \"#utility.yul\":16884:16913   */\n      tag_346\n      jump\t// in\n    tag_555:\n        /* \"#utility.yul\":16874:16882   */\n      dup2\n        /* \"#utility.yul\":16870:16914   */\n      add\n        /* \"#utility.yul\":17067:17069   */\n      0x20\n        /* \"#utility.yul\":17055:17065   */\n      dup6\n        /* \"#utility.yul\":17052:17070   */\n      lt\n        /* \"#utility.yul\":17049:17098   */\n      iszero\n      tag_556\n      jumpi\n        /* \"#utility.yul\":17088:17096   */\n      dup2\n        /* \"#utility.yul\":17073:17096   */\n      swap1\n      pop\n        /* \"#utility.yul\":17049:17098   */\n    tag_556:\n        /* \"#utility.yul\":17111:17191   */\n      tag_557\n        /* \"#utility.yul\":17167:17189   */\n      tag_558\n        /* \"#utility.yul\":17185:17188   */\n      dup6\n        /* \"#utility.yul\":17167:17189   */\n      tag_346\n      jump\t// in\n    tag_558:\n        /* \"#utility.yul\":17157:17165   */\n      dup4\n        /* \"#utility.yul\":17153:17190   */\n      add\n        /* \"#utility.yul\":17140:17151   */\n      dup3\n        /* \"#utility.yul\":17111:17191   */\n      tag_354\n      jump\t// in\n    tag_557:\n        /* \"#utility.yul\":16770:17201   */\n      pop\n      pop\n        /* \"#utility.yul\":16755:17201   */\n    tag_553:\n        /* \"#utility.yul\":16665:17208   */\n      pop\n      pop\n      pop\n      jump\t// out\n        /* \"#utility.yul\":17214:17331   */\n    tag_356:\n        /* \"#utility.yul\":17268:17276   */\n      0x00\n        /* \"#utility.yul\":17318:17323   */\n      dup3\n        /* \"#utility.yul\":17312:17316   */\n      dup3\n        /* \"#utility.yul\":17308:17324   */\n      shr\n        /* \"#utility.yul\":17287:17324   */\n      swap1\n      pop\n        /* \"#utility.yul\":17214:17331   */\n      swap3\n      swap2\n      pop\n      pop\n      jump\t// out\n        /* \"#utility.yul\":17337:17506   */\n    tag_357:\n        /* \"#utility.yul\":17381:17387   */\n      0x00\n        /* \"#utility.yul\":17414:17465   */\n      tag_561\n        /* \"#utility.yul\":17462:17463   */\n      0x00\n        /* \"#utility.yul\":17458:17464   */\n      not\n        /* \"#utility.yul\":17450:17455   */\n      dup5\n        /* \"#utility.yul\":17447:17448   */\n      0x08\n        /* \"#utility.yul\":17443:17456   */\n      mul\n        /* \"#utility.yul\":17414:17465   */\n      tag_356\n      jump\t// in\n    tag_561:\n        /* \"#utility.yul\":17410:17466   */\n      not\n        /* \"#utility.yul\":17495:17499   */\n      dup1\n        /* \"#utility.yul\":17489:17493   */\n      dup4\n        /* \"#utility.yul\":17485:17500   */\n      and\n        /* \"#utility.yul\":17475:17500   */\n      swap2\n      pop\n        /* \"#utility.yul\":17388:17506   */\n      pop\n        /* \"#utility.yul\":17337:17506   */\n      swap3\n      swap2\n      pop\n      pop\n      jump\t// out\n        /* \"#utility.yul\":17511:17806   */\n    tag_358:\n        /* \"#utility.yul\":17587:17591   */\n      0x00\n        /* \"#utility.yul\":17733:17762   */\n      tag_563\n        /* \"#utility.yul\":17758:17761   */\n      dup4\n        /* \"#utility.yul\":17752:17756   */\n      dup4\n        /* \"#utility.yul\":17733:17762   */\n      tag_357\n      jump\t// in\n    tag_563:\n        /* \"#utility.yul\":17725:17762   */\n      swap2\n      pop\n        /* \"#utility.yul\":17795:17798   */\n      dup3\n        /* \"#utility.yul\":17792:17793   */\n      0x02\n        /* \"#utility.yul\":17788:17799   */\n      mul\n        /* \"#utility.yul\":17782:17786   */\n      dup3\n        /* \"#utility.yul\":17779:17800   */\n      or\n        /* \"#utility.yul\":17771:17800   */\n      swap1\n      pop\n        /* \"#utility.yul\":17511:17806   */\n      swap3\n      swap2\n      pop\n      pop\n      jump\t// out\n        /* \"#utility.yul\":17811:19214   */\n    tag_225:\n        /* \"#utility.yul\":17935:17979   */\n      tag_565\n        /* \"#utility.yul\":17975:17978   */\n      dup4\n        /* \"#utility.yul\":17970:17973   */\n      dup4\n        /* \"#utility.yul\":17935:17979   */\n      tag_343\n      jump\t// in\n    tag_565:\n        /* \"#utility.yul\":18044:18062   */\n      0xffffffffffffffff\n        /* \"#utility.yul\":18036:18042   */\n      dup2\n        /* \"#utility.yul\":18033:18063   */\n      gt\n        /* \"#utility.yul\":18030:18086   */\n      iszero\n      tag_566\n      jumpi\n        /* \"#utility.yul\":18066:18084   */\n      tag_567\n      tag_344\n      jump\t// in\n    tag_567:\n        /* \"#utility.yul\":18030:18086   */\n    tag_566:\n        /* \"#utility.yul\":18110:18148   */\n      tag_568\n        /* \"#utility.yul\":18142:18146   */\n      dup3\n        /* \"#utility.yul\":18136:18147   */\n      sload\n        /* \"#utility.yul\":18110:18148   */\n      tag_190\n      jump\t// in\n    tag_568:\n        /* \"#utility.yul\":18195:18262   */\n      tag_569\n        /* \"#utility.yul\":18255:18261   */\n      dup3\n        /* \"#utility.yul\":18247:18253   */\n      dup3\n        /* \"#utility.yul\":18241:18245   */\n      dup6\n        /* \"#utility.yul\":18195:18262   */\n      tag_355\n      jump\t// in\n    tag_569:\n        /* \"#utility.yul\":18289:18290   */\n      0x00\n        /* \"#utility.yul\":18318:18320   */\n      0x1f\n        /* \"#utility.yul\":18310:18316   */\n      dup4\n        /* \"#utility.yul\":18307:18321   */\n      gt\n        /* \"#utility.yul\":18335:18336   */\n      0x01\n        /* \"#utility.yul\":18330:18962   */\n      dup2\n      eq\n      tag_571\n      jumpi\n        /* \"#utility.yul\":19006:19007   */\n      0x00\n        /* \"#utility.yul\":19023:19029   */\n      dup5\n        /* \"#utility.yul\":19020:19104   */\n      iszero\n      tag_572\n      jumpi\n        /* \"#utility.yul\":19079:19088   */\n      dup3\n        /* \"#utility.yul\":19074:19077   */\n      dup8\n        /* \"#utility.yul\":19070:19089   */\n      add\n        /* \"#utility.yul\":19057:19090   */\n      calldataload\n        /* \"#utility.yul\":19048:19090   */\n      swap1\n      pop\n        /* \"#utility.yul\":19020:19104   */\n    tag_572:\n        /* \"#utility.yul\":19130:19197   */\n      tag_573\n        /* \"#utility.yul\":19190:19196   */\n      dup6\n        /* \"#utility.yul\":19183:19188   */\n      dup3\n        /* \"#utility.yul\":19130:19197   */\n      tag_358\n      jump\t// in\n    tag_573:\n        /* \"#utility.yul\":19124:19128   */\n      dup7\n        /* \"#utility.yul\":19117:19198   */\n      sstore\n        /* \"#utility.yul\":18979:19208   */\n      pop\n        /* \"#utility.yul\":18300:19208   */\n      jump(tag_570)\n        /* \"#utility.yul\":18330:18962   */\n    tag_571:\n        /* \"#utility.yul\":18382:18386   */\n      0x1f\n        /* \"#utility.yul\":18378:18387   */\n      not\n        /* \"#utility.yul\":18370:18376   */\n      dup5\n        /* \"#utility.yul\":18366:18388   */\n      and\n        /* \"#utility.yul\":18416:18453   */\n      tag_574\n        /* \"#utility.yul\":18448:18452   */\n      dup7\n        /* \"#utility.yul\":18416:18453   */\n      tag_345\n      jump\t// in\n    tag_574:\n        /* \"#utility.yul\":18475:18476   */\n      0x00\n        /* \"#utility.yul\":18489:18704   */\n    tag_575:\n        /* \"#utility.yul\":18503:18510   */\n      dup3\n        /* \"#utility.yul\":18500:18501   */\n      dup2\n        /* \"#utility.yul\":18497:18511   */\n      lt\n        /* \"#utility.yul\":18489:18704   */\n      iszero\n      tag_577\n      jumpi\n        /* \"#utility.yul\":18589:18598   */\n      dup5\n        /* \"#utility.yul\":18584:18587   */\n      dup10\n        /* \"#utility.yul\":18580:18599   */\n      add\n        /* \"#utility.yul\":18567:18600   */\n      calldataload\n        /* \"#utility.yul\":18559:18565   */\n      dup3\n        /* \"#utility.yul\":18552:18601   */\n      sstore\n        /* \"#utility.yul\":18640:18641   */\n      0x01\n        /* \"#utility.yul\":18632:18638   */\n      dup3\n        /* \"#utility.yul\":18628:18642   */\n      add\n        /* \"#utility.yul\":18618:18642   */\n      swap2\n      pop\n        /* \"#utility.yul\":18687:18689   */\n      0x20\n        /* \"#utility.yul\":18676:18685   */\n      dup6\n        /* \"#utility.yul\":18672:18690   */\n      add\n        /* \"#utility.yul\":18659:18690   */\n      swap5\n      pop\n        /* \"#utility.yul\":18526:18530   */\n      0x20\n        /* \"#utility.yul\":18523:18524   */\n      dup2\n        /* \"#utility.yul\":18519:18531   */\n      add\n        /* \"#utility.yul\":18514:18531   */\n      swap1\n      pop\n        /* \"#utility.yul\":18489:18704   */\n      jump(tag_575)\n    tag_577:\n        /* \"#utility.yul\":18732:18738   */\n      dup7\n        /* \"#utility.yul\":18723:18730   */\n      dup4\n        /* \"#utility.yul\":18720:18739   */\n      lt\n        /* \"#utility.yul\":18717:18903   */\n      iszero\n      tag_578\n      jumpi\n        /* \"#utility.yul\":18797:18806   */\n      dup5\n        /* \"#utility.yul\":18792:18795   */\n      dup10\n        /* \"#utility.yul\":18788:18807   */\n      add\n        /* \"#utility.yul\":18775:18808   */\n      calldataload\n        /* \"#utility.yul\":18840:18888   */\n      tag_579\n        /* \"#utility.yul\":18882:18886   */\n      0x1f\n        /* \"#utility.yul\":18874:18880   */\n      dup10\n        /* \"#utility.yul\":18870:18887   */\n      and\n        /* \"#utility.yul\":18859:18868   */\n      dup3\n        /* \"#utility.yul\":18840:18888   */\n      tag_357\n      jump\t// in\n    tag_579:\n        /* \"#utility.yul\":18832:18838   */\n      dup4\n        /* \"#utility.yul\":18825:18889   */\n      sstore\n        /* \"#utility.yul\":18740:18903   */\n      pop\n        /* \"#utility.yul\":18717:18903   */\n    tag_578:\n        /* \"#utility.yul\":18949:18950   */\n      0x01\n        /* \"#utility.yul\":18945:18946   */\n      0x02\n        /* \"#utility.yul\":18937:18943   */\n      dup9\n        /* \"#utility.yul\":18933:18947   */\n      mul\n        /* \"#utility.yul\":18929:18951   */\n      add\n        /* \"#utility.yul\":18923:18927   */\n      dup9\n        /* \"#utility.yul\":18916:18952   */\n      sstore\n        /* \"#utility.yul\":18337:18962   */\n      pop\n      pop\n      pop\n        /* \"#utility.yul\":18300:19208   */\n    tag_570:\n      pop\n        /* \"#utility.yul\":17910:19214   */\n      pop\n      pop\n      pop\n        /* \"#utility.yul\":17811:19214   */\n      pop\n      pop\n      pop\n      jump\t// out\n        /* \"#utility.yul\":19220:19400   */\n    tag_359:\n        /* \"#utility.yul\":19268:19345   */\n      0x4e487b7100000000000000000000000000000000000000000000000000000000\n        /* \"#utility.yul\":19265:19266   */\n      0x00\n        /* \"#utility.yul\":19258:19346   */\n      mstore\n        /* \"#utility.yul\":19365:19369   */\n      0x12\n        /* \"#utility.yul\":19362:19363   */\n      0x04\n        /* \"#utility.yul\":19355:19370   */\n      mstore\n        /* \"#utility.yul\":19389:19393   */\n      0x24\n        /* \"#utility.yul\":19386:19387   */\n      0x00\n        /* \"#utility.yul\":19379:19394   */\n      revert\n        /* \"#utility.yul\":19406:19582   */\n    tag_243:\n        /* \"#utility.yul\":19438:19439   */\n      0x00\n        /* \"#utility.yul\":19455:19475   */\n      tag_582\n        /* \"#utility.yul\":19473:19474   */\n      dup3\n        /* \"#utility.yul\":19455:19475   */\n      tag_299\n      jump\t// in\n    tag_582:\n        /* \"#utility.yul\":19450:19475   */\n      swap2\n      pop\n        /* \"#utility.yul\":19489:19509   */\n      tag_583\n        /* \"#utility.yul\":19507:19508   */\n      dup4\n        /* \"#utility.yul\":19489:19509   */\n      tag_299\n      jump\t// in\n    tag_583:\n        /* \"#utility.yul\":19484:19509   */\n      swap3\n      pop\n        /* \"#utility.yul\":19528:19529   */\n      dup3\n        /* \"#utility.yul\":19518:19553   */\n      tag_584\n      jumpi\n        /* \"#utility.yul\":19533:19551   */\n      tag_585\n      tag_359\n      jump\t// in\n    tag_585:\n        /* \"#utility.yul\":19518:19553   */\n    tag_584:\n        /* \"#utility.yul\":19574:19575   */\n      dup3\n        /* \"#utility.yul\":19571:19572   */\n      dup3\n        /* \"#utility.yul\":19567:19576   */\n      mod\n        /* \"#utility.yul\":19562:19576   */\n      swap1\n      pop\n        /* \"#utility.yul\":19406:19582   */\n      swap3\n      swap2\n      pop\n      pop\n      jump\t// out\n        /* \"#utility.yul\":19588:19768   */\n    tag_360:\n        /* \"#utility.yul\":19636:19713   */\n      0x4e487b7100000000000000000000000000000000000000000000000000000000\n        /* \"#utility.yul\":19633:19634   */\n      0x00\n        /* \"#utility.yul\":19626:19714   */\n      mstore\n        /* \"#utility.yul\":19733:19737   */\n      0x11\n        /* \"#utility.yul\":19730:19731   */\n      0x04\n        /* \"#utility.yul\":19723:19738   */\n      mstore\n        /* \"#utility.yul\":19757:19761   */\n      0x24\n        /* \"#utility.yul\":19754:19755   */\n      0x00\n        /* \"#utility.yul\":19747:19762   */\n      revert\n        /* \"#utility.yul\":19774:19968   */\n    tag_246:\n        /* \"#utility.yul\":19814:19818   */\n      0x00\n        /* \"#utility.yul\":19834:19854   */\n      tag_588\n        /* \"#utility.yul\":19852:19853   */\n      dup3\n        /* \"#utility.yul\":19834:19854   */\n      tag_299\n      jump\t// in\n    tag_588:\n        /* \"#utility.yul\":19829:19854   */\n      swap2\n      pop\n        /* \"#utility.yul\":19868:19888   */\n      tag_589\n        /* \"#utility.yul\":19886:19887   */\n      dup4\n        /* \"#utility.yul\":19868:19888   */\n      tag_299\n      jump\t// in\n    tag_589:\n        /* \"#utility.yul\":19863:19888   */\n      swap3\n      pop\n        /* \"#utility.yul\":19912:19913   */\n      dup3\n        /* \"#utility.yul\":19909:19910   */\n      dup3\n        /* \"#utility.yul\":19905:19914   */\n      sub\n        /* \"#utility.yul\":19897:19914   */\n      swap1\n      pop\n        /* \"#utility.yul\":19936:19937   */\n      dup2\n        /* \"#utility.yul\":19930:19934   */\n      dup2\n        /* \"#utility.yul\":19927:19938   */\n      gt\n        /* \"#utility.yul\":19924:19961   */\n      iszero\n      tag_590\n      jumpi\n        /* \"#utility.yul\":19941:19959   */\n      tag_591\n      tag_360\n      jump\t// in\n    tag_591:\n        /* \"#utility.yul\":19924:19961   */\n    tag_590:\n        /* \"#utility.yul\":19774:19968   */\n      swap3\n      swap2\n      pop\n      pop\n      jump\t// out\n        /* \"#utility.yul\":19974:20165   */\n    tag_251:\n        /* \"#utility.yul\":20014:20017   */\n      0x00\n        /* \"#utility.yul\":20033:20053   */\n      tag_593\n        /* \"#utility.yul\":20051:20052   */\n      dup3\n        /* \"#utility.yul\":20033:20053   */\n      tag_299\n      jump\t// in\n    tag_593:\n        /* \"#utility.yul\":20028:20053   */\n      swap2\n      pop\n        /* \"#utility.yul\":20067:20087   */\n      tag_594\n        /* \"#utility.yul\":20085:20086   */\n      dup4\n        /* \"#utility.yul\":20067:20087   */\n      tag_299\n      jump\t// in\n    tag_594:\n        /* \"#utility.yul\":20062:20087   */\n      swap3\n      pop\n        /* \"#utility.yul\":20110:20111   */\n      dup3\n        /* \"#utility.yul\":20107:20108   */\n      dup3\n        /* \"#utility.yul\":20103:20112   */\n      add\n        /* \"#utility.yul\":20096:20112   */\n      swap1\n      pop\n        /* \"#utility.yul\":20131:20134   */\n      dup1\n        /* \"#utility.yul\":20128:20129   */\n      dup3\n        /* \"#utility.yul\":20125:20135   */\n      gt\n        /* \"#utility.yul\":20122:20158   */\n      iszero\n      tag_595\n      jumpi\n        /* \"#utility.yul\":20138:20156   */\n      tag_596\n      tag_360\n      jump\t// in\n    tag_596:\n        /* \"#utility.yul\":20122:20158   */\n    tag_595:\n        /* \"#utility.yul\":19974:20165   */\n      swap3\n      swap2\n      pop\n      pop\n      jump\t// out\n        /* \"#utility.yul\":20171:20350   */\n    tag_361:\n        /* \"#utility.yul\":20311:20342   */\n      0x526571756573746f72206973206e6f7420612063616e6469646174652e000000\n        /* \"#utility.yul\":20307:20308   */\n      0x00\n        /* \"#utility.yul\":20299:20305   */\n      dup3\n        /* \"#utility.yul\":20295:20309   */\n      add\n        /* \"#utility.yul\":20288:20343   */\n      mstore\n        /* \"#utility.yul\":20171:20350   */\n      pop\n      jump\t// out\n        /* \"#utility.yul\":20356:20722   */\n    tag_362:\n        /* \"#utility.yul\":20498:20501   */\n      0x00\n        /* \"#utility.yul\":20519:20586   */\n      tag_599\n        /* \"#utility.yul\":20583:20585   */\n      0x1d\n        /* \"#utility.yul\":20578:20581   */\n      dup4\n        /* \"#utility.yul\":20519:20586   */\n      tag_319\n      jump\t// in\n    tag_599:\n        /* \"#utility.yul\":20512:20586   */\n      swap2\n      pop\n        /* \"#utility.yul\":20595:20688   */\n      tag_600\n        /* \"#utility.yul\":20684:20687   */\n      dup3\n        /* \"#utility.yul\":20595:20688   */\n      tag_361\n      jump\t// in\n    tag_600:\n        /* \"#utility.yul\":20713:20715   */\n      0x20\n        /* \"#utility.yul\":20708:20711   */\n      dup3\n        /* \"#utility.yul\":20704:20716   */\n      add\n        /* \"#utility.yul\":20697:20716   */\n      swap1\n      pop\n        /* \"#utility.yul\":20356:20722   */\n      swap2\n      swap1\n      pop\n      jump\t// out\n        /* \"#utility.yul\":20728:21147   */\n    tag_287:\n        /* \"#utility.yul\":20894:20898   */\n      0x00\n        /* \"#utility.yul\":20932:20934   */\n      0x20\n        /* \"#utility.yul\":20921:20930   */\n      dup3\n        /* \"#utility.yul\":20917:20935   */\n      add\n        /* \"#utility.yul\":20909:20935   */\n      swap1\n      pop\n        /* \"#utility.yul\":20981:20990   */\n      dup2\n        /* \"#utility.yul\":20975:20979   */\n      dup2\n        /* \"#utility.yul\":20971:20991   */\n      sub\n        /* \"#utility.yul\":20967:20968   */\n      0x00\n        /* \"#utility.yul\":20956:20965   */\n      dup4\n        /* \"#utility.yul\":20952:20969   */\n      add\n        /* \"#utility.yul\":20945:20992   */\n      mstore\n        /* \"#utility.yul\":21009:21140   */\n      tag_602\n        /* \"#utility.yul\":21135:21139   */\n      dup2\n        /* \"#utility.yul\":21009:21140   */\n      tag_362\n      jump\t// in\n    tag_602:\n        /* \"#utility.yul\":21001:21140   */\n      swap1\n      pop\n        /* \"#utility.yul\":20728:21147   */\n      swap2\n      swap1\n      pop\n      jump\t// out\n\n    auxdata: 0xa2646970667358221220827911040bbe354ac47da8e4c0228592bec42181bf7e79631bd6c5e229c9ad9564736f6c63430008120033\n}\n",
				"bytecode": {
					"linkReferences": {},
					"object": "60806040523480156200001157600080fd5b506040516200271e3803806200271e833981810160405281019062000037919062000328565b336000806101000a81548173ffffffffffffffffffffffffffffffffffffffff021916908373ffffffffffffffffffffffffffffffffffffffff16021790555080600160006101000a81548173ffffffffffffffffffffffffffffffffffffffff021916908373ffffffffffffffffffffffffffffffffffffffff1602179055508260059081620000c99190620005e4565b50816007819055506001600460006101000a81548160ff021916908315150217905550505050620006cb565b6000604051905090565b600080fd5b600080fd5b600080fd5b600080fd5b6000601f19601f8301169050919050565b7f4e487b7100000000000000000000000000000000000000000000000000000000600052604160045260246000fd5b6200015e8262000113565b810181811067ffffffffffffffff8211171562000180576200017f62000124565b5b80604052505050565b600062000195620000f5565b9050620001a3828262000153565b919050565b600067ffffffffffffffff821115620001c657620001c562000124565b5b620001d18262000113565b9050602081019050919050565b60005b83811015620001fe578082015181840152602081019050620001e1565b60008484015250505050565b6000620002216200021b84620001a8565b62000189565b90508281526020810184848401111562000240576200023f6200010e565b5b6200024d848285620001de565b509392505050565b600082601f8301126200026d576200026c62000109565b5b81516200027f8482602086016200020a565b91505092915050565b6000819050919050565b6200029d8162000288565b8114620002a957600080fd5b50565b600081519050620002bd8162000292565b92915050565b600073ffffffffffffffffffffffffffffffffffffffff82169050919050565b6000620002f082620002c3565b9050919050565b6200030281620002e3565b81146200030e57600080fd5b50565b6000815190506200032281620002f7565b92915050565b600080600060608486031215620003445762000343620000ff565b5b600084015167ffffffffffffffff81111562000365576200036462000104565b5b620003738682870162000255565b93505060206200038686828701620002ac565b9250506040620003998682870162000311565b9150509250925092565b600081519050919050565b7f4e487b7100000000000000000000000000000000000000000000000000000000600052602260045260246000fd5b60006002820490506001821680620003f657607f821691505b6020821081036200040c576200040b620003ae565b5b50919050565b60008190508160005260206000209050919050565b60006020601f8301049050919050565b600082821b905092915050565b600060088302620004767fffffffffffffffffffffffffffffffffffffffffffffffffffffffffffffffff8262000437565b62000482868362000437565b95508019841693508086168417925050509392505050565b6000819050919050565b6000620004c5620004bf620004b98462000288565b6200049a565b62000288565b9050919050565b6000819050919050565b620004e183620004a4565b620004f9620004f082620004cc565b84845462000444565b825550505050565b600090565b6200051062000501565b6200051d818484620004d6565b505050565b5b8181101562000545576200053960008262000506565b60018101905062000523565b5050565b601f82111562000594576200055e8162000412565b620005698462000427565b8101602085101562000579578190505b62000591620005888562000427565b83018262000522565b50505b505050565b600082821c905092915050565b6000620005b96000198460080262000599565b1980831691505092915050565b6000620005d48383620005a6565b9150826002028217905092915050565b620005ef82620003a3565b67ffffffffffffffff8111156200060b576200060a62000124565b5b620006178254620003dd565b6200062482828562000549565b600060209050601f8311600181146200065c576000841562000647578287015190505b620006538582620005c6565b865550620006c3565b601f1984166200066c8662000412565b60005b8281101562000696578489015182556001820191506020850194506020810190506200066f565b86831015620006b65784890151620006b2601f891682620005a6565b8355505b6001600288020188555050505b505050505050565b61204380620006db6000396000f3fe608060405234801561001057600080fd5b50600436106101a95760003560e01c80637d2cb98d116100f9578063d03678cb11610097578063e6ca297711610071578063e6ca2977146104d0578063e87ccdda146104ee578063f39f05f71461050c578063fc1077201461053c576101a9565b8063d03678cb14610466578063de80276114610484578063e5ab27e3146104b4576101a9565b80639407921c116100d35780639407921c146103ca578063c524e7f6146103fa578063ca9d2c6b14610418578063caa4fbbd14610448576101a9565b80637d2cb98d146103725780638da5cb5b146103905780639155e45b146103ae576101a9565b8063481fd6b5116101665780636947a020116101405780636947a020146102ec57806378fb654a146103085780637acc0b20146103245780637b9f197614610354576101a9565b8063481fd6b51461029457806355c1c478146102b25780635f891d98146102d0576101a9565b806304a3f393146101ae5780630fbdd521146101ca578063101d4fb9146101fa578063244ded7a1461022a57806328a3d83a146102465780633d52788314610264575b600080fd5b6101c860048036038101906101c391906114c4565b610558565b005b6101e460048036038101906101df9190611574565b6105f0565b6040516101f191906115cf565b60405180910390f35b610214600480360381019061020f9190611574565b610822565b60405161022191906115cf565b60405180910390f35b610244600480360381019061023f91906115ea565b61089f565b005b61024e610970565b60405161025b91906116d5565b60405180910390f35b61027e600480360381019061027991906116f7565b610a34565b60405161028b9190611746565b60405180910390f35b61029c610a65565b6040516102a991906117f1565b60405180910390f35b6102ba610af7565b6040516102c79190611822565b60405180910390f35b6102ea60048036038101906102e5919061183d565b610b21565b005b61030660048036038101906103019190611574565b610b9b565b005b610322600480360381019061031d91906118a9565b610c06565b005b61033e600480360381019061033991906114c4565b610cb1565b60405161034b9190611935565b60405180910390f35b61035c610ce4565b6040516103699190611746565b60405180910390f35b61037a610cee565b60405161038791906116d5565b60405180910390f35b610398610db2565b6040516103a59190611822565b60405180910390f35b6103c860048036038101906103c391906119b5565b610dd6565b005b6103e460048036038101906103df9190611a02565b610e7a565b6040516103f191906116d5565b60405180910390f35b610402610f3f565b60405161040f91906117f1565b60405180910390f35b610432600480360381019061042d9190611a02565b610fd1565b60405161043f9190611aa6565b60405180910390f35b61045061104c565b60405161045d91906115cf565b60405180910390f35b61046e611063565b60405161047b9190611746565b60405180910390f35b61049e6004803603810190610499919061183d565b6110a6565b6040516104ab9190611822565b60405180910390f35b6104ce60048036038101906104c991906119b5565b6110f4565b005b6104d8611198565b6040516104e591906116d5565b60405180910390f35b6104f661125c565b6040516105039190611746565b60405180910390f35b610526600480360381019061052191906115ea565b61129f565b6040516105339190611aa6565b60405180910390f35b61055660048036038101906105519190611a02565b6112bf565b005b60008054906101000a900473ffffffffffffffffffffffffffffffffffffffff1673ffffffffffffffffffffffffffffffffffffffff163373ffffffffffffffffffffffffffffffffffffffff16146105e6576040517f08c379a00000000000000000000000000000000000000000000000000000000081526004016105dd90611b0d565b60405180910390fd5b8060078190555050565b6000808390506105ff83610fd1565b600481111561061157610610611a2f565b5b8173ffffffffffffffffffffffffffffffffffffffff1663f39f05f7306040518263ffffffff1660e01b815260040161064a9190611822565b602060405180830381865afa158015610667573d6000803e3d6000fd5b505050506040513d601f19601f8201168201806040525081019061068b9190611b42565b600481111561069d5761069c611a2f565b5b036107af57600360008460048111156106b9576106b8611a2f565b5b60048111156106cb576106ca611a2f565b5b8152602001908152602001600020849080600181540180825580915050600190039060005260206000200160009091909190916101000a81548173ffffffffffffffffffffffffffffffffffffffff021916908373ffffffffffffffffffffffffffffffffffffffff1602179055508073ffffffffffffffffffffffffffffffffffffffff1663fc107720846040518263ffffffff1660e01b81526004016107739190611aa6565b600060405180830381600087803b15801561078d57600080fd5b505af11580156107a1573d6000803e3d6000fd5b50505050600191505061081c565b82600260008673ffffffffffffffffffffffffffffffffffffffff1673ffffffffffffffffffffffffffffffffffffffff16815260200190815260200160002060006101000a81548160ff0219169083600481111561081157610810611a2f565b5b021790555060009150505b92915050565b600081600481111561083757610836611a2f565b5b600260008573ffffffffffffffffffffffffffffffffffffffff1673ffffffffffffffffffffffffffffffffffffffff16815260200190815260200160002060009054906101000a900460ff16600481111561089657610895611a2f565b5b14905092915050565b60008054906101000a900473ffffffffffffffffffffffffffffffffffffffff1673ffffffffffffffffffffffffffffffffffffffff163373ffffffffffffffffffffffffffffffffffffffff161461092d576040517f08c379a000000000000000000000000000000000000000000000000000000000815260040161092490611b0d565b60405180910390fd5b806000806101000a81548173ffffffffffffffffffffffffffffffffffffffff021916908373ffffffffffffffffffffffffffffffffffffffff16021790555050565b6060600360006002600481111561098a57610989611a2f565b5b600481111561099c5761099b611a2f565b5b8152602001908152602001600020805480602002602001604051908101604052809291908181526020018280548015610a2a57602002820191906000526020600020905b8160009054906101000a900473ffffffffffffffffffffffffffffffffffffffff1673ffffffffffffffffffffffffffffffffffffffff16815260200190600101908083116109e0575b5050505050905090565b600a6020528160005260406000208181548110610a5057600080fd5b90600052602060002001600091509150505481565b606060058054610a7490611b9e565b80601f0160208091040260200160405190810160405280929190818152602001828054610aa090611b9e565b8015610aed5780601f10610ac257610100808354040283529160200191610aed565b820191906000526020600020905b815481529060010190602001808311610ad057829003601f168201915b5050505050905090565b6000600160009054906101000a900473ffffffffffffffffffffffffffffffffffffffff16905090565b60036000836004811115610b3857610b37611a2f565b5b6004811115610b4a57610b49611a2f565b5b81526020019081526020016000208181548110610b6a57610b69611bcf565b5b9060005260206000200160006101000a81549073ffffffffffffffffffffffffffffffffffffffff02191690555050565b80600260008473ffffffffffffffffffffffffffffffffffffffff1673ffffffffffffffffffffffffffffffffffffffff16815260200190815260200160002060006101000a81548160ff02191690836004811115610bfd57610bfc611a2f565b5b02179055505050565b60008054906101000a900473ffffffffffffffffffffffffffffffffffffffff1673ffffffffffffffffffffffffffffffffffffffff163373ffffffffffffffffffffffffffffffffffffffff1614610c94576040517f08c379a0000000000000000000000000000000000000000000000000000000008152600401610c8b90611b0d565b60405180910390fd5b80600460006101000a81548160ff02191690831515021790555050565b60096020528060005260406000206000915054906101000a900473ffffffffffffffffffffffffffffffffffffffff1681565b6000600754905090565b60606003600060016004811115610d0857610d07611a2f565b5b6004811115610d1a57610d19611a2f565b5b8152602001908152602001600020805480602002602001604051908101604052809291908181526020018280548015610da857602002820191906000526020600020905b8160009054906101000a900473ffffffffffffffffffffffffffffffffffffffff1673ffffffffffffffffffffffffffffffffffffffff1681526020019060010190808311610d5e575b5050505050905090565b60008054906101000a900473ffffffffffffffffffffffffffffffffffffffff1681565b60008054906101000a900473ffffffffffffffffffffffffffffffffffffffff1673ffffffffffffffffffffffffffffffffffffffff163373ffffffffffffffffffffffffffffffffffffffff1614610e64576040517f08c379a0000000000000000000000000000000000000000000000000000000008152600401610e5b90611b0d565b60405180910390fd5b818160059182610e75929190611dda565b505050565b606060036000836004811115610e9357610e92611a2f565b5b6004811115610ea557610ea4611a2f565b5b8152602001908152602001600020805480602002602001604051908101604052809291908181526020018280548015610f3357602002820191906000526020600020905b8160009054906101000a900473ffffffffffffffffffffffffffffffffffffffff1673ffffffffffffffffffffffffffffffffffffffff1681526020019060010190808311610ee9575b50505050509050919050565b606060068054610f4e90611b9e565b80601f0160208091040260200160405190810160405280929190818152602001828054610f7a90611b9e565b8015610fc75780601f10610f9c57610100808354040283529160200191610fc7565b820191906000526020600020905b815481529060010190602001808311610faa57829003601f168201915b5050505050905090565b600080826004811115610fe757610fe6611a2f565b5b90506000600282610ff89190611ed9565b036110245760018161100a9190611f39565b600481111561101c5761101b611a2f565b5b915050611047565b6001816110319190611f6d565b600481111561104357611042611a2f565b5b9150505b919050565b6000600460009054906101000a900460ff16905090565b6000600360006001600481111561107d5761107c611a2f565b5b600481111561108f5761108e611a2f565b5b815260200190815260200160002080549050905090565b600360205281600052604060002081815481106110c257600080fd5b906000526020600020016000915091509054906101000a900473ffffffffffffffffffffffffffffffffffffffff1681565b60008054906101000a900473ffffffffffffffffffffffffffffffffffffffff1673ffffffffffffffffffffffffffffffffffffffff163373ffffffffffffffffffffffffffffffffffffffff1614611182576040517f08c379a000000000000000000000000000000000000000000000000000000000815260040161117990611b0d565b60405180910390fd5b818160069182611193929190611dda565b505050565b606060036000600360048111156111b2576111b1611a2f565b5b60048111156111c4576111c3611a2f565b5b815260200190815260200160002080548060200260200160405190810160405280929190818152602001828054801561125257602002820191906000526020600020905b8160009054906101000a900473ffffffffffffffffffffffffffffffffffffffff1673ffffffffffffffffffffffffffffffffffffffff1681526020019060010190808311611208575b5050505050905090565b6000600360006002600481111561127657611275611a2f565b5b600481111561128857611287611a2f565b5b815260200190815260200160002080549050905090565b60026020528060005260406000206000915054906101000a900460ff1681565b6112c881610fd1565b60048111156112da576112d9611a2f565b5b600260003373ffffffffffffffffffffffffffffffffffffffff1673ffffffffffffffffffffffffffffffffffffffff16815260200190815260200160002060009054906101000a900460ff16600481111561133957611338611a2f565b5b14611379576040517f08c379a000000000000000000000000000000000000000000000000000000000815260040161137090611fed565b60405180910390fd5b6000600260003373ffffffffffffffffffffffffffffffffffffffff1673ffffffffffffffffffffffffffffffffffffffff16815260200190815260200160002060006101000a81548160ff021916908360048111156113dc576113db611a2f565b5b0217905550600360006113ee83610fd1565b6004811115611400576113ff611a2f565b5b600481111561141257611411611a2f565b5b8152602001908152602001600020339080600181540180825580915050600190039060005260206000200160009091909190916101000a81548173ffffffffffffffffffffffffffffffffffffffff021916908373ffffffffffffffffffffffffffffffffffffffff16021790555050565b600080fd5b600080fd5b6000819050919050565b6114a18161148e565b81146114ac57600080fd5b50565b6000813590506114be81611498565b92915050565b6000602082840312156114da576114d9611484565b5b60006114e8848285016114af565b91505092915050565b600073ffffffffffffffffffffffffffffffffffffffff82169050919050565b600061151c826114f1565b9050919050565b61152c81611511565b811461153757600080fd5b50565b60008135905061154981611523565b92915050565b6005811061155c57600080fd5b50565b60008135905061156e8161154f565b92915050565b6000806040838503121561158b5761158a611484565b5b60006115998582860161153a565b92505060206115aa8582860161155f565b9150509250929050565b60008115159050919050565b6115c9816115b4565b82525050565b60006020820190506115e460008301846115c0565b92915050565b600060208284031215611600576115ff611484565b5b600061160e8482850161153a565b91505092915050565b600081519050919050565b600082825260208201905092915050565b6000819050602082019050919050565b61164c81611511565b82525050565b600061165e8383611643565b60208301905092915050565b6000602082019050919050565b600061168282611617565b61168c8185611622565b935061169783611633565b8060005b838110156116c85781516116af8882611652565b97506116ba8361166a565b92505060018101905061169b565b5085935050505092915050565b600060208201905081810360008301526116ef8184611677565b905092915050565b6000806040838503121561170e5761170d611484565b5b600061171c8582860161153a565b925050602061172d858286016114af565b9150509250929050565b6117408161148e565b82525050565b600060208201905061175b6000830184611737565b92915050565b600081519050919050565b600082825260208201905092915050565b60005b8381101561179b578082015181840152602081019050611780565b60008484015250505050565b6000601f19601f8301169050919050565b60006117c382611761565b6117cd818561176c565b93506117dd81856020860161177d565b6117e6816117a7565b840191505092915050565b6000602082019050818103600083015261180b81846117b8565b905092915050565b61181c81611511565b82525050565b60006020820190506118376000830184611813565b92915050565b6000806040838503121561185457611853611484565b5b60006118628582860161155f565b9250506020611873858286016114af565b9150509250929050565b611886816115b4565b811461189157600080fd5b50565b6000813590506118a38161187d565b92915050565b6000602082840312156118bf576118be611484565b5b60006118cd84828501611894565b91505092915050565b6000819050919050565b60006118fb6118f66118f1846114f1565b6118d6565b6114f1565b9050919050565b600061190d826118e0565b9050919050565b600061191f82611902565b9050919050565b61192f81611914565b82525050565b600060208201905061194a6000830184611926565b92915050565b600080fd5b600080fd5b600080fd5b60008083601f84011261197557611974611950565b5b8235905067ffffffffffffffff81111561199257611991611955565b5b6020830191508360018202830111156119ae576119ad61195a565b5b9250929050565b600080602083850312156119cc576119cb611484565b5b600083013567ffffffffffffffff8111156119ea576119e9611489565b5b6119f68582860161195f565b92509250509250929050565b600060208284031215611a1857611a17611484565b5b6000611a268482850161155f565b91505092915050565b7f4e487b7100000000000000000000000000000000000000000000000000000000600052602160045260246000fd5b60058110611a6f57611a6e611a2f565b5b50565b6000819050611a8082611a5e565b919050565b6000611a9082611a72565b9050919050565b611aa081611a85565b82525050565b6000602082019050611abb6000830184611a97565b92915050565b7f63616c6c6572206d757374206265206f776e6572000000000000000000000000600082015250565b6000611af760148361176c565b9150611b0282611ac1565b602082019050919050565b60006020820190508181036000830152611b2681611aea565b9050919050565b600081519050611b3c8161154f565b92915050565b600060208284031215611b5857611b57611484565b5b6000611b6684828501611b2d565b91505092915050565b7f4e487b7100000000000000000000000000000000000000000000000000000000600052602260045260246000fd5b60006002820490506001821680611bb657607f821691505b602082108103611bc957611bc8611b6f565b5b50919050565b7f4e487b7100000000000000000000000000000000000000000000000000000000600052603260045260246000fd5b600082905092915050565b7f4e487b7100000000000000000000000000000000000000000000000000000000600052604160045260246000fd5b60008190508160005260206000209050919050565b60006020601f8301049050919050565b600082821b905092915050565b600060088302611c9a7fffffffffffffffffffffffffffffffffffffffffffffffffffffffffffffffff82611c5d565b611ca48683611c5d565b95508019841693508086168417925050509392505050565b6000611cd7611cd2611ccd8461148e565b6118d6565b61148e565b9050919050565b6000819050919050565b611cf183611cbc565b611d05611cfd82611cde565b848454611c6a565b825550505050565b600090565b611d1a611d0d565b611d25818484611ce8565b505050565b5b81811015611d4957611d3e600082611d12565b600181019050611d2b565b5050565b601f821115611d8e57611d5f81611c38565b611d6884611c4d565b81016020851015611d77578190505b611d8b611d8385611c4d565b830182611d2a565b50505b505050565b600082821c905092915050565b6000611db160001984600802611d93565b1980831691505092915050565b6000611dca8383611da0565b9150826002028217905092915050565b611de48383611bfe565b67ffffffffffffffff811115611dfd57611dfc611c09565b5b611e078254611b9e565b611e12828285611d4d565b6000601f831160018114611e415760008415611e2f578287013590505b611e398582611dbe565b865550611ea1565b601f198416611e4f86611c38565b60005b82811015611e7757848901358255600182019150602085019450602081019050611e52565b86831015611e945784890135611e90601f891682611da0565b8355505b6001600288020188555050505b50505050505050565b7f4e487b7100000000000000000000000000000000000000000000000000000000600052601260045260246000fd5b6000611ee48261148e565b9150611eef8361148e565b925082611eff57611efe611eaa565b5b828206905092915050565b7f4e487b7100000000000000000000000000000000000000000000000000000000600052601160045260246000fd5b6000611f448261148e565b9150611f4f8361148e565b9250828203905081811115611f6757611f66611f0a565b5b92915050565b6000611f788261148e565b9150611f838361148e565b9250828201905080821115611f9b57611f9a611f0a565b5b92915050565b7f526571756573746f72206973206e6f7420612063616e6469646174652e000000600082015250565b6000611fd7601d8361176c565b9150611fe282611fa1565b602082019050919050565b6000602082019050818103600083015261200681611fca565b905091905056fea2646970667358221220827911040bbe354ac47da8e4c0228592bec42181bf7e79631bd6c5e229c9ad9564736f6c63430008120033",
					"opcodes": "PUSH1 0x80 PUSH1 0x40 MSTORE CALLVALUE DUP1 ISZERO PUSH3 0x11 JUMPI PUSH1 0x0 DUP1 REVERT JUMPDEST POP PUSH1 0x40 MLOAD PUSH3 0x271E CODESIZE SUB DUP1 PUSH3 0x271E DUP4 CODECOPY DUP2 DUP2 ADD PUSH1 0x40 MSTORE DUP2 ADD SWAP1 PUSH3 0x37 SWAP2 SWAP1 PUSH3 0x328 JUMP JUMPDEST CALLER PUSH1 0x0 DUP1 PUSH2 0x100 EXP DUP2 SLOAD DUP2 PUSH20 0xFFFFFFFFFFFFFFFFFFFFFFFFFFFFFFFFFFFFFFFF MUL NOT AND SWAP1 DUP4 PUSH20 0xFFFFFFFFFFFFFFFFFFFFFFFFFFFFFFFFFFFFFFFF AND MUL OR SWAP1 SSTORE POP DUP1 PUSH1 0x1 PUSH1 0x0 PUSH2 0x100 EXP DUP2 SLOAD DUP2 PUSH20 0xFFFFFFFFFFFFFFFFFFFFFFFFFFFFFFFFFFFFFFFF MUL NOT AND SWAP1 DUP4 PUSH20 0xFFFFFFFFFFFFFFFFFFFFFFFFFFFFFFFFFFFFFFFF AND MUL OR SWAP1 SSTORE POP DUP3 PUSH1 0x5 SWAP1 DUP2 PUSH3 0xC9 SWAP2 SWAP1 PUSH3 0x5E4 JUMP JUMPDEST POP DUP2 PUSH1 0x7 DUP2 SWAP1 SSTORE POP PUSH1 0x1 PUSH1 0x4 PUSH1 0x0 PUSH2 0x100 EXP DUP2 SLOAD DUP2 PUSH1 0xFF MUL NOT AND SWAP1 DUP4 ISZERO ISZERO MUL OR SWAP1 SSTORE POP POP POP POP PUSH3 0x6CB JUMP JUMPDEST PUSH1 0x0 PUSH1 0x40 MLOAD SWAP1 POP SWAP1 JUMP JUMPDEST PUSH1 0x0 DUP1 REVERT JUMPDEST PUSH1 0x0 DUP1 REVERT JUMPDEST PUSH1 0x0 DUP1 REVERT JUMPDEST PUSH1 0x0 DUP1 REVERT JUMPDEST PUSH1 0x0 PUSH1 0x1F NOT PUSH1 0x1F DUP4 ADD AND SWAP1 POP SWAP2 SWAP1 POP JUMP JUMPDEST PUSH32 0x4E487B7100000000000000000000000000000000000000000000000000000000 PUSH1 0x0 MSTORE PUSH1 0x41 PUSH1 0x4 MSTORE PUSH1 0x24 PUSH1 0x0 REVERT JUMPDEST PUSH3 0x15E DUP3 PUSH3 0x113 JUMP JUMPDEST DUP2 ADD DUP2 DUP2 LT PUSH8 0xFFFFFFFFFFFFFFFF DUP3 GT OR ISZERO PUSH3 0x180 JUMPI PUSH3 0x17F PUSH3 0x124 JUMP JUMPDEST JUMPDEST DUP1 PUSH1 0x40 MSTORE POP POP POP JUMP JUMPDEST PUSH1 0x0 PUSH3 0x195 PUSH3 0xF5 JUMP JUMPDEST SWAP1 POP PUSH3 0x1A3 DUP3 DUP3 PUSH3 0x153 JUMP JUMPDEST SWAP2 SWAP1 POP JUMP JUMPDEST PUSH1 0x0 PUSH8 0xFFFFFFFFFFFFFFFF DUP3 GT ISZERO PUSH3 0x1C6 JUMPI PUSH3 0x1C5 PUSH3 0x124 JUMP JUMPDEST JUMPDEST PUSH3 0x1D1 DUP3 PUSH3 0x113 JUMP JUMPDEST SWAP1 POP PUSH1 0x20 DUP2 ADD SWAP1 POP SWAP2 SWAP1 POP JUMP JUMPDEST PUSH1 0x0 JUMPDEST DUP4 DUP2 LT ISZERO PUSH3 0x1FE JUMPI DUP1 DUP3 ADD MLOAD DUP2 DUP5 ADD MSTORE PUSH1 0x20 DUP2 ADD SWAP1 POP PUSH3 0x1E1 JUMP JUMPDEST PUSH1 0x0 DUP5 DUP5 ADD MSTORE POP POP POP POP JUMP JUMPDEST PUSH1 0x0 PUSH3 0x221 PUSH3 0x21B DUP5 PUSH3 0x1A8 JUMP JUMPDEST PUSH3 0x189 JUMP JUMPDEST SWAP1 POP DUP3 DUP2 MSTORE PUSH1 0x20 DUP2 ADD DUP5 DUP5 DUP5 ADD GT ISZERO PUSH3 0x240 JUMPI PUSH3 0x23F PUSH3 0x10E JUMP JUMPDEST JUMPDEST PUSH3 0x24D DUP5 DUP3 DUP6 PUSH3 0x1DE JUMP JUMPDEST POP SWAP4 SWAP3 POP POP POP JUMP JUMPDEST PUSH1 0x0 DUP3 PUSH1 0x1F DUP4 ADD SLT PUSH3 0x26D JUMPI PUSH3 0x26C PUSH3 0x109 JUMP JUMPDEST JUMPDEST DUP2 MLOAD PUSH3 0x27F DUP5 DUP3 PUSH1 0x20 DUP7 ADD PUSH3 0x20A JUMP JUMPDEST SWAP2 POP POP SWAP3 SWAP2 POP POP JUMP JUMPDEST PUSH1 0x0 DUP2 SWAP1 POP SWAP2 SWAP1 POP JUMP JUMPDEST PUSH3 0x29D DUP2 PUSH3 0x288 JUMP JUMPDEST DUP2 EQ PUSH3 0x2A9 JUMPI PUSH1 0x0 DUP1 REVERT JUMPDEST POP JUMP JUMPDEST PUSH1 0x0 DUP2 MLOAD SWAP1 POP PUSH3 0x2BD DUP2 PUSH3 0x292 JUMP JUMPDEST SWAP3 SWAP2 POP POP JUMP JUMPDEST PUSH1 0x0 PUSH20 0xFFFFFFFFFFFFFFFFFFFFFFFFFFFFFFFFFFFFFFFF DUP3 AND SWAP1 POP SWAP2 SWAP1 POP JUMP JUMPDEST PUSH1 0x0 PUSH3 0x2F0 DUP3 PUSH3 0x2C3 JUMP JUMPDEST SWAP1 POP SWAP2 SWAP1 POP JUMP JUMPDEST PUSH3 0x302 DUP2 PUSH3 0x2E3 JUMP JUMPDEST DUP2 EQ PUSH3 0x30E JUMPI PUSH1 0x0 DUP1 REVERT JUMPDEST POP JUMP JUMPDEST PUSH1 0x0 DUP2 MLOAD SWAP1 POP PUSH3 0x322 DUP2 PUSH3 0x2F7 JUMP JUMPDEST SWAP3 SWAP2 POP POP JUMP JUMPDEST PUSH1 0x0 DUP1 PUSH1 0x0 PUSH1 0x60 DUP5 DUP7 SUB SLT ISZERO PUSH3 0x344 JUMPI PUSH3 0x343 PUSH3 0xFF JUMP JUMPDEST JUMPDEST PUSH1 0x0 DUP5 ADD MLOAD PUSH8 0xFFFFFFFFFFFFFFFF DUP2 GT ISZERO PUSH3 0x365 JUMPI PUSH3 0x364 PUSH3 0x104 JUMP JUMPDEST JUMPDEST PUSH3 0x373 DUP7 DUP3 DUP8 ADD PUSH3 0x255 JUMP JUMPDEST SWAP4 POP POP PUSH1 0x20 PUSH3 0x386 DUP7 DUP3 DUP8 ADD PUSH3 0x2AC JUMP JUMPDEST SWAP3 POP POP PUSH1 0x40 PUSH3 0x399 DUP7 DUP3 DUP8 ADD PUSH3 0x311 JUMP JUMPDEST SWAP2 POP POP SWAP3 POP SWAP3 POP SWAP3 JUMP JUMPDEST PUSH1 0x0 DUP2 MLOAD SWAP1 POP SWAP2 SWAP1 POP JUMP JUMPDEST PUSH32 0x4E487B7100000000000000000000000000000000000000000000000000000000 PUSH1 0x0 MSTORE PUSH1 0x22 PUSH1 0x4 MSTORE PUSH1 0x24 PUSH1 0x0 REVERT JUMPDEST PUSH1 0x0 PUSH1 0x2 DUP3 DIV SWAP1 POP PUSH1 0x1 DUP3 AND DUP1 PUSH3 0x3F6 JUMPI PUSH1 0x7F DUP3 AND SWAP2 POP JUMPDEST PUSH1 0x20 DUP3 LT DUP2 SUB PUSH3 0x40C JUMPI PUSH3 0x40B PUSH3 0x3AE JUMP JUMPDEST JUMPDEST POP SWAP2 SWAP1 POP JUMP JUMPDEST PUSH1 0x0 DUP2 SWAP1 POP DUP2 PUSH1 0x0 MSTORE PUSH1 0x20 PUSH1 0x0 KECCAK256 SWAP1 POP SWAP2 SWAP1 POP JUMP JUMPDEST PUSH1 0x0 PUSH1 0x20 PUSH1 0x1F DUP4 ADD DIV SWAP1 POP SWAP2 SWAP1 POP JUMP JUMPDEST PUSH1 0x0 DUP3 DUP3 SHL SWAP1 POP SWAP3 SWAP2 POP POP JUMP JUMPDEST PUSH1 0x0 PUSH1 0x8 DUP4 MUL PUSH3 0x476 PUSH32 0xFFFFFFFFFFFFFFFFFFFFFFFFFFFFFFFFFFFFFFFFFFFFFFFFFFFFFFFFFFFFFFFF DUP3 PUSH3 0x437 JUMP JUMPDEST PUSH3 0x482 DUP7 DUP4 PUSH3 0x437 JUMP JUMPDEST SWAP6 POP DUP1 NOT DUP5 AND SWAP4 POP DUP1 DUP7 AND DUP5 OR SWAP3 POP POP POP SWAP4 SWAP3 POP POP POP JUMP JUMPDEST PUSH1 0x0 DUP2 SWAP1 POP SWAP2 SWAP1 POP JUMP JUMPDEST PUSH1 0x0 PUSH3 0x4C5 PUSH3 0x4BF PUSH3 0x4B9 DUP5 PUSH3 0x288 JUMP JUMPDEST PUSH3 0x49A JUMP JUMPDEST PUSH3 0x288 JUMP JUMPDEST SWAP1 POP SWAP2 SWAP1 POP JUMP JUMPDEST PUSH1 0x0 DUP2 SWAP1 POP SWAP2 SWAP1 POP JUMP JUMPDEST PUSH3 0x4E1 DUP4 PUSH3 0x4A4 JUMP JUMPDEST PUSH3 0x4F9 PUSH3 0x4F0 DUP3 PUSH3 0x4CC JUMP JUMPDEST DUP5 DUP5 SLOAD PUSH3 0x444 JUMP JUMPDEST DUP3 SSTORE POP POP POP POP JUMP JUMPDEST PUSH1 0x0 SWAP1 JUMP JUMPDEST PUSH3 0x510 PUSH3 0x501 JUMP JUMPDEST PUSH3 0x51D DUP2 DUP5 DUP5 PUSH3 0x4D6 JUMP JUMPDEST POP POP POP JUMP JUMPDEST JUMPDEST DUP2 DUP2 LT ISZERO PUSH3 0x545 JUMPI PUSH3 0x539 PUSH1 0x0 DUP3 PUSH3 0x506 JUMP JUMPDEST PUSH1 0x1 DUP2 ADD SWAP1 POP PUSH3 0x523 JUMP JUMPDEST POP POP JUMP JUMPDEST PUSH1 0x1F DUP3 GT ISZERO PUSH3 0x594 JUMPI PUSH3 0x55E DUP2 PUSH3 0x412 JUMP JUMPDEST PUSH3 0x569 DUP5 PUSH3 0x427 JUMP JUMPDEST DUP2 ADD PUSH1 0x20 DUP6 LT ISZERO PUSH3 0x579 JUMPI DUP2 SWAP1 POP JUMPDEST PUSH3 0x591 PUSH3 0x588 DUP6 PUSH3 0x427 JUMP JUMPDEST DUP4 ADD DUP3 PUSH3 0x522 JUMP JUMPDEST POP POP JUMPDEST POP POP POP JUMP JUMPDEST PUSH1 0x0 DUP3 DUP3 SHR SWAP1 POP SWAP3 SWAP2 POP POP JUMP JUMPDEST PUSH1 0x0 PUSH3 0x5B9 PUSH1 0x0 NOT DUP5 PUSH1 0x8 MUL PUSH3 0x599 JUMP JUMPDEST NOT DUP1 DUP4 AND SWAP2 POP POP SWAP3 SWAP2 POP POP JUMP JUMPDEST PUSH1 0x0 PUSH3 0x5D4 DUP4 DUP4 PUSH3 0x5A6 JUMP JUMPDEST SWAP2 POP DUP3 PUSH1 0x2 MUL DUP3 OR SWAP1 POP SWAP3 SWAP2 POP POP JUMP JUMPDEST PUSH3 0x5EF DUP3 PUSH3 0x3A3 JUMP JUMPDEST PUSH8 0xFFFFFFFFFFFFFFFF DUP2 GT ISZERO PUSH3 0x60B JUMPI PUSH3 0x60A PUSH3 0x124 JUMP JUMPDEST JUMPDEST PUSH3 0x617 DUP3 SLOAD PUSH3 0x3DD JUMP JUMPDEST PUSH3 0x624 DUP3 DUP3 DUP6 PUSH3 0x549 JUMP JUMPDEST PUSH1 0x0 PUSH1 0x20 SWAP1 POP PUSH1 0x1F DUP4 GT PUSH1 0x1 DUP2 EQ PUSH3 0x65C JUMPI PUSH1 0x0 DUP5 ISZERO PUSH3 0x647 JUMPI DUP3 DUP8 ADD MLOAD SWAP1 POP JUMPDEST PUSH3 0x653 DUP6 DUP3 PUSH3 0x5C6 JUMP JUMPDEST DUP7 SSTORE POP PUSH3 0x6C3 JUMP JUMPDEST PUSH1 0x1F NOT DUP5 AND PUSH3 0x66C DUP7 PUSH3 0x412 JUMP JUMPDEST PUSH1 0x0 JUMPDEST DUP3 DUP2 LT ISZERO PUSH3 0x696 JUMPI DUP5 DUP10 ADD MLOAD DUP3 SSTORE PUSH1 0x1 DUP3 ADD SWAP2 POP PUSH1 0x20 DUP6 ADD SWAP5 POP PUSH1 0x20 DUP2 ADD SWAP1 POP PUSH3 0x66F JUMP JUMPDEST DUP7 DUP4 LT ISZERO PUSH3 0x6B6 JUMPI DUP5 DUP10 ADD MLOAD PUSH3 0x6B2 PUSH1 0x1F DUP10 AND DUP3 PUSH3 0x5A6 JUMP JUMPDEST DUP4 SSTORE POP JUMPDEST PUSH1 0x1 PUSH1 0x2 DUP9 MUL ADD DUP9 SSTORE POP POP POP JUMPDEST POP POP POP POP POP POP JUMP JUMPDEST PUSH2 0x2043 DUP1 PUSH3 0x6DB PUSH1 0x0 CODECOPY PUSH1 0x0 RETURN INVALID PUSH1 0x80 PUSH1 0x40 MSTORE CALLVALUE DUP1 ISZERO PUSH2 0x10 JUMPI PUSH1 0x0 DUP1 REVERT JUMPDEST POP PUSH1 0x4 CALLDATASIZE LT PUSH2 0x1A9 JUMPI PUSH1 0x0 CALLDATALOAD PUSH1 0xE0 SHR DUP1 PUSH4 0x7D2CB98D GT PUSH2 0xF9 JUMPI DUP1 PUSH4 0xD03678CB GT PUSH2 0x97 JUMPI DUP1 PUSH4 0xE6CA2977 GT PUSH2 0x71 JUMPI DUP1 PUSH4 0xE6CA2977 EQ PUSH2 0x4D0 JUMPI DUP1 PUSH4 0xE87CCDDA EQ PUSH2 0x4EE JUMPI DUP1 PUSH4 0xF39F05F7 EQ PUSH2 0x50C JUMPI DUP1 PUSH4 0xFC107720 EQ PUSH2 0x53C JUMPI PUSH2 0x1A9 JUMP JUMPDEST DUP1 PUSH4 0xD03678CB EQ PUSH2 0x466 JUMPI DUP1 PUSH4 0xDE802761 EQ PUSH2 0x484 JUMPI DUP1 PUSH4 0xE5AB27E3 EQ PUSH2 0x4B4 JUMPI PUSH2 0x1A9 JUMP JUMPDEST DUP1 PUSH4 0x9407921C GT PUSH2 0xD3 JUMPI DUP1 PUSH4 0x9407921C EQ PUSH2 0x3CA JUMPI DUP1 PUSH4 0xC524E7F6 EQ PUSH2 0x3FA JUMPI DUP1 PUSH4 0xCA9D2C6B EQ PUSH2 0x418 JUMPI DUP1 PUSH4 0xCAA4FBBD EQ PUSH2 0x448 JUMPI PUSH2 0x1A9 JUMP JUMPDEST DUP1 PUSH4 0x7D2CB98D EQ PUSH2 0x372 JUMPI DUP1 PUSH4 0x8DA5CB5B EQ PUSH2 0x390 JUMPI DUP1 PUSH4 0x9155E45B EQ PUSH2 0x3AE JUMPI PUSH2 0x1A9 JUMP JUMPDEST DUP1 PUSH4 0x481FD6B5 GT PUSH2 0x166 JUMPI DUP1 PUSH4 0x6947A020 GT PUSH2 0x140 JUMPI DUP1 PUSH4 0x6947A020 EQ PUSH2 0x2EC JUMPI DUP1 PUSH4 0x78FB654A EQ PUSH2 0x308 JUMPI DUP1 PUSH4 0x7ACC0B20 EQ PUSH2 0x324 JUMPI DUP1 PUSH4 0x7B9F1976 EQ PUSH2 0x354 JUMPI PUSH2 0x1A9 JUMP JUMPDEST DUP1 PUSH4 0x481FD6B5 EQ PUSH2 0x294 JUMPI DUP1 PUSH4 0x55C1C478 EQ PUSH2 0x2B2 JUMPI DUP1 PUSH4 0x5F891D98 EQ PUSH2 0x2D0 JUMPI PUSH2 0x1A9 JUMP JUMPDEST DUP1 PUSH4 0x4A3F393 EQ PUSH2 0x1AE JUMPI DUP1 PUSH4 0xFBDD521 EQ PUSH2 0x1CA JUMPI DUP1 PUSH4 0x101D4FB9 EQ PUSH2 0x1FA JUMPI DUP1 PUSH4 0x244DED7A EQ PUSH2 0x22A JUMPI DUP1 PUSH4 0x28A3D83A EQ PUSH2 0x246 JUMPI DUP1 PUSH4 0x3D527883 EQ PUSH2 0x264 JUMPI JUMPDEST PUSH1 0x0 DUP1 REVERT JUMPDEST PUSH2 0x1C8 PUSH1 0x4 DUP1 CALLDATASIZE SUB DUP2 ADD SWAP1 PUSH2 0x1C3 SWAP2 SWAP1 PUSH2 0x14C4 JUMP JUMPDEST PUSH2 0x558 JUMP JUMPDEST STOP JUMPDEST PUSH2 0x1E4 PUSH1 0x4 DUP1 CALLDATASIZE SUB DUP2 ADD SWAP1 PUSH2 0x1DF SWAP2 SWAP1 PUSH2 0x1574 JUMP JUMPDEST PUSH2 0x5F0 JUMP JUMPDEST PUSH1 0x40 MLOAD PUSH2 0x1F1 SWAP2 SWAP1 PUSH2 0x15CF JUMP JUMPDEST PUSH1 0x40 MLOAD DUP1 SWAP2 SUB SWAP1 RETURN JUMPDEST PUSH2 0x214 PUSH1 0x4 DUP1 CALLDATASIZE SUB DUP2 ADD SWAP1 PUSH2 0x20F SWAP2 SWAP1 PUSH2 0x1574 JUMP JUMPDEST PUSH2 0x822 JUMP JUMPDEST PUSH1 0x40 MLOAD PUSH2 0x221 SWAP2 SWAP1 PUSH2 0x15CF JUMP JUMPDEST PUSH1 0x40 MLOAD DUP1 SWAP2 SUB SWAP1 RETURN JUMPDEST PUSH2 0x244 PUSH1 0x4 DUP1 CALLDATASIZE SUB DUP2 ADD SWAP1 PUSH2 0x23F SWAP2 SWAP1 PUSH2 0x15EA JUMP JUMPDEST PUSH2 0x89F JUMP JUMPDEST STOP JUMPDEST PUSH2 0x24E PUSH2 0x970 JUMP JUMPDEST PUSH1 0x40 MLOAD PUSH2 0x25B SWAP2 SWAP1 PUSH2 0x16D5 JUMP JUMPDEST PUSH1 0x40 MLOAD DUP1 SWAP2 SUB SWAP1 RETURN JUMPDEST PUSH2 0x27E PUSH1 0x4 DUP1 CALLDATASIZE SUB DUP2 ADD SWAP1 PUSH2 0x279 SWAP2 SWAP1 PUSH2 0x16F7 JUMP JUMPDEST PUSH2 0xA34 JUMP JUMPDEST PUSH1 0x40 MLOAD PUSH2 0x28B SWAP2 SWAP1 PUSH2 0x1746 JUMP JUMPDEST PUSH1 0x40 MLOAD DUP1 SWAP2 SUB SWAP1 RETURN JUMPDEST PUSH2 0x29C PUSH2 0xA65 JUMP JUMPDEST PUSH1 0x40 MLOAD PUSH2 0x2A9 SWAP2 SWAP1 PUSH2 0x17F1 JUMP JUMPDEST PUSH1 0x40 MLOAD DUP1 SWAP2 SUB SWAP1 RETURN JUMPDEST PUSH2 0x2BA PUSH2 0xAF7 JUMP JUMPDEST PUSH1 0x40 MLOAD PUSH2 0x2C7 SWAP2 SWAP1 PUSH2 0x1822 JUMP JUMPDEST PUSH1 0x40 MLOAD DUP1 SWAP2 SUB SWAP1 RETURN JUMPDEST PUSH2 0x2EA PUSH1 0x4 DUP1 CALLDATASIZE SUB DUP2 ADD SWAP1 PUSH2 0x2E5 SWAP2 SWAP1 PUSH2 0x183D JUMP JUMPDEST PUSH2 0xB21 JUMP JUMPDEST STOP JUMPDEST PUSH2 0x306 PUSH1 0x4 DUP1 CALLDATASIZE SUB DUP2 ADD SWAP1 PUSH2 0x301 SWAP2 SWAP1 PUSH2 0x1574 JUMP JUMPDEST PUSH2 0xB9B JUMP JUMPDEST STOP JUMPDEST PUSH2 0x322 PUSH1 0x4 DUP1 CALLDATASIZE SUB DUP2 ADD SWAP1 PUSH2 0x31D SWAP2 SWAP1 PUSH2 0x18A9 JUMP JUMPDEST PUSH2 0xC06 JUMP JUMPDEST STOP JUMPDEST PUSH2 0x33E PUSH1 0x4 DUP1 CALLDATASIZE SUB DUP2 ADD SWAP1 PUSH2 0x339 SWAP2 SWAP1 PUSH2 0x14C4 JUMP JUMPDEST PUSH2 0xCB1 JUMP JUMPDEST PUSH1 0x40 MLOAD PUSH2 0x34B SWAP2 SWAP1 PUSH2 0x1935 JUMP JUMPDEST PUSH1 0x40 MLOAD DUP1 SWAP2 SUB SWAP1 RETURN JUMPDEST PUSH2 0x35C PUSH2 0xCE4 JUMP JUMPDEST PUSH1 0x40 MLOAD PUSH2 0x369 SWAP2 SWAP1 PUSH2 0x1746 JUMP JUMPDEST PUSH1 0x40 MLOAD DUP1 SWAP2 SUB SWAP1 RETURN JUMPDEST PUSH2 0x37A PUSH2 0xCEE JUMP JUMPDEST PUSH1 0x40 MLOAD PUSH2 0x387 SWAP2 SWAP1 PUSH2 0x16D5 JUMP JUMPDEST PUSH1 0x40 MLOAD DUP1 SWAP2 SUB SWAP1 RETURN JUMPDEST PUSH2 0x398 PUSH2 0xDB2 JUMP JUMPDEST PUSH1 0x40 MLOAD PUSH2 0x3A5 SWAP2 SWAP1 PUSH2 0x1822 JUMP JUMPDEST PUSH1 0x40 MLOAD DUP1 SWAP2 SUB SWAP1 RETURN JUMPDEST PUSH2 0x3C8 PUSH1 0x4 DUP1 CALLDATASIZE SUB DUP2 ADD SWAP1 PUSH2 0x3C3 SWAP2 SWAP1 PUSH2 0x19B5 JUMP JUMPDEST PUSH2 0xDD6 JUMP JUMPDEST STOP JUMPDEST PUSH2 0x3E4 PUSH1 0x4 DUP1 CALLDATASIZE SUB DUP2 ADD SWAP1 PUSH2 0x3DF SWAP2 SWAP1 PUSH2 0x1A02 JUMP JUMPDEST PUSH2 0xE7A JUMP JUMPDEST PUSH1 0x40 MLOAD PUSH2 0x3F1 SWAP2 SWAP1 PUSH2 0x16D5 JUMP JUMPDEST PUSH1 0x40 MLOAD DUP1 SWAP2 SUB SWAP1 RETURN JUMPDEST PUSH2 0x402 PUSH2 0xF3F JUMP JUMPDEST PUSH1 0x40 MLOAD PUSH2 0x40F SWAP2 SWAP1 PUSH2 0x17F1 JUMP JUMPDEST PUSH1 0x40 MLOAD DUP1 SWAP2 SUB SWAP1 RETURN JUMPDEST PUSH2 0x432 PUSH1 0x4 DUP1 CALLDATASIZE SUB DUP2 ADD SWAP1 PUSH2 0x42D SWAP2 SWAP1 PUSH2 0x1A02 JUMP JUMPDEST PUSH2 0xFD1 JUMP JUMPDEST PUSH1 0x40 MLOAD PUSH2 0x43F SWAP2 SWAP1 PUSH2 0x1AA6 JUMP JUMPDEST PUSH1 0x40 MLOAD DUP1 SWAP2 SUB SWAP1 RETURN JUMPDEST PUSH2 0x450 PUSH2 0x104C JUMP JUMPDEST PUSH1 0x40 MLOAD PUSH2 0x45D SWAP2 SWAP1 PUSH2 0x15CF JUMP JUMPDEST PUSH1 0x40 MLOAD DUP1 SWAP2 SUB SWAP1 RETURN JUMPDEST PUSH2 0x46E PUSH2 0x1063 JUMP JUMPDEST PUSH1 0x40 MLOAD PUSH2 0x47B SWAP2 SWAP1 PUSH2 0x1746 JUMP JUMPDEST PUSH1 0x40 MLOAD DUP1 SWAP2 SUB SWAP1 RETURN JUMPDEST PUSH2 0x49E PUSH1 0x4 DUP1 CALLDATASIZE SUB DUP2 ADD SWAP1 PUSH2 0x499 SWAP2 SWAP1 PUSH2 0x183D JUMP JUMPDEST PUSH2 0x10A6 JUMP JUMPDEST PUSH1 0x40 MLOAD PUSH2 0x4AB SWAP2 SWAP1 PUSH2 0x1822 JUMP JUMPDEST PUSH1 0x40 MLOAD DUP1 SWAP2 SUB SWAP1 RETURN JUMPDEST PUSH2 0x4CE PUSH1 0x4 DUP1 CALLDATASIZE SUB DUP2 ADD SWAP1 PUSH2 0x4C9 SWAP2 SWAP1 PUSH2 0x19B5 JUMP JUMPDEST PUSH2 0x10F4 JUMP JUMPDEST STOP JUMPDEST PUSH2 0x4D8 PUSH2 0x1198 JUMP JUMPDEST PUSH1 0x40 MLOAD PUSH2 0x4E5 SWAP2 SWAP1 PUSH2 0x16D5 JUMP JUMPDEST PUSH1 0x40 MLOAD DUP1 SWAP2 SUB SWAP1 RETURN JUMPDEST PUSH2 0x4F6 PUSH2 0x125C JUMP JUMPDEST PUSH1 0x40 MLOAD PUSH2 0x503 SWAP2 SWAP1 PUSH2 0x1746 JUMP JUMPDEST PUSH1 0x40 MLOAD DUP1 SWAP2 SUB SWAP1 RETURN JUMPDEST PUSH2 0x526 PUSH1 0x4 DUP1 CALLDATASIZE SUB DUP2 ADD SWAP1 PUSH2 0x521 SWAP2 SWAP1 PUSH2 0x15EA JUMP JUMPDEST PUSH2 0x129F JUMP JUMPDEST PUSH1 0x40 MLOAD PUSH2 0x533 SWAP2 SWAP1 PUSH2 0x1AA6 JUMP JUMPDEST PUSH1 0x40 MLOAD DUP1 SWAP2 SUB SWAP1 RETURN JUMPDEST PUSH2 0x556 PUSH1 0x4 DUP1 CALLDATASIZE SUB DUP2 ADD SWAP1 PUSH2 0x551 SWAP2 SWAP1 PUSH2 0x1A02 JUMP JUMPDEST PUSH2 0x12BF JUMP JUMPDEST STOP JUMPDEST PUSH1 0x0 DUP1 SLOAD SWAP1 PUSH2 0x100 EXP SWAP1 DIV PUSH20 0xFFFFFFFFFFFFFFFFFFFFFFFFFFFFFFFFFFFFFFFF AND PUSH20 0xFFFFFFFFFFFFFFFFFFFFFFFFFFFFFFFFFFFFFFFF AND CALLER PUSH20 0xFFFFFFFFFFFFFFFFFFFFFFFFFFFFFFFFFFFFFFFF AND EQ PUSH2 0x5E6 JUMPI PUSH1 0x40 MLOAD PUSH32 0x8C379A000000000000000000000000000000000000000000000000000000000 DUP2 MSTORE PUSH1 0x4 ADD PUSH2 0x5DD SWAP1 PUSH2 0x1B0D JUMP JUMPDEST PUSH1 0x40 MLOAD DUP1 SWAP2 SUB SWAP1 REVERT JUMPDEST DUP1 PUSH1 0x7 DUP2 SWAP1 SSTORE POP POP JUMP JUMPDEST PUSH1 0x0 DUP1 DUP4 SWAP1 POP PUSH2 0x5FF DUP4 PUSH2 0xFD1 JUMP JUMPDEST PUSH1 0x4 DUP2 GT ISZERO PUSH2 0x611 JUMPI PUSH2 0x610 PUSH2 0x1A2F JUMP JUMPDEST JUMPDEST DUP2 PUSH20 0xFFFFFFFFFFFFFFFFFFFFFFFFFFFFFFFFFFFFFFFF AND PUSH4 0xF39F05F7 ADDRESS PUSH1 0x40 MLOAD DUP3 PUSH4 0xFFFFFFFF AND PUSH1 0xE0 SHL DUP2 MSTORE PUSH1 0x4 ADD PUSH2 0x64A SWAP2 SWAP1 PUSH2 0x1822 JUMP JUMPDEST PUSH1 0x20 PUSH1 0x40 MLOAD DUP1 DUP4 SUB DUP2 DUP7 GAS STATICCALL ISZERO DUP1 ISZERO PUSH2 0x667 JUMPI RETURNDATASIZE PUSH1 0x0 DUP1 RETURNDATACOPY RETURNDATASIZE PUSH1 0x0 REVERT JUMPDEST POP POP POP POP PUSH1 0x40 MLOAD RETURNDATASIZE PUSH1 0x1F NOT PUSH1 0x1F DUP3 ADD AND DUP3 ADD DUP1 PUSH1 0x40 MSTORE POP DUP2 ADD SWAP1 PUSH2 0x68B SWAP2 SWAP1 PUSH2 0x1B42 JUMP JUMPDEST PUSH1 0x4 DUP2 GT ISZERO PUSH2 0x69D JUMPI PUSH2 0x69C PUSH2 0x1A2F JUMP JUMPDEST JUMPDEST SUB PUSH2 0x7AF JUMPI PUSH1 0x3 PUSH1 0x0 DUP5 PUSH1 0x4 DUP2 GT ISZERO PUSH2 0x6B9 JUMPI PUSH2 0x6B8 PUSH2 0x1A2F JUMP JUMPDEST JUMPDEST PUSH1 0x4 DUP2 GT ISZERO PUSH2 0x6CB JUMPI PUSH2 0x6CA PUSH2 0x1A2F JUMP JUMPDEST JUMPDEST DUP2 MSTORE PUSH1 0x20 ADD SWAP1 DUP2 MSTORE PUSH1 0x20 ADD PUSH1 0x0 KECCAK256 DUP5 SWAP1 DUP1 PUSH1 0x1 DUP2 SLOAD ADD DUP1 DUP3 SSTORE DUP1 SWAP2 POP POP PUSH1 0x1 SWAP1 SUB SWAP1 PUSH1 0x0 MSTORE PUSH1 0x20 PUSH1 0x0 KECCAK256 ADD PUSH1 0x0 SWAP1 SWAP2 SWAP1 SWAP2 SWAP1 SWAP2 PUSH2 0x100 EXP DUP2 SLOAD DUP2 PUSH20 0xFFFFFFFFFFFFFFFFFFFFFFFFFFFFFFFFFFFFFFFF MUL NOT AND SWAP1 DUP4 PUSH20 0xFFFFFFFFFFFFFFFFFFFFFFFFFFFFFFFFFFFFFFFF AND MUL OR SWAP1 SSTORE POP DUP1 PUSH20 0xFFFFFFFFFFFFFFFFFFFFFFFFFFFFFFFFFFFFFFFF AND PUSH4 0xFC107720 DUP5 PUSH1 0x40 MLOAD DUP3 PUSH4 0xFFFFFFFF AND PUSH1 0xE0 SHL DUP2 MSTORE PUSH1 0x4 ADD PUSH2 0x773 SWAP2 SWAP1 PUSH2 0x1AA6 JUMP JUMPDEST PUSH1 0x0 PUSH1 0x40 MLOAD DUP1 DUP4 SUB DUP2 PUSH1 0x0 DUP8 DUP1 EXTCODESIZE ISZERO DUP1 ISZERO PUSH2 0x78D JUMPI PUSH1 0x0 DUP1 REVERT JUMPDEST POP GAS CALL ISZERO DUP1 ISZERO PUSH2 0x7A1 JUMPI RETURNDATASIZE PUSH1 0x0 DUP1 RETURNDATACOPY RETURNDATASIZE PUSH1 0x0 REVERT JUMPDEST POP POP POP POP PUSH1 0x1 SWAP2 POP POP PUSH2 0x81C JUMP JUMPDEST DUP3 PUSH1 0x2 PUSH1 0x0 DUP7 PUSH20 0xFFFFFFFFFFFFFFFFFFFFFFFFFFFFFFFFFFFFFFFF AND PUSH20 0xFFFFFFFFFFFFFFFFFFFFFFFFFFFFFFFFFFFFFFFF AND DUP2 MSTORE PUSH1 0x20 ADD SWAP1 DUP2 MSTORE PUSH1 0x20 ADD PUSH1 0x0 KECCAK256 PUSH1 0x0 PUSH2 0x100 EXP DUP2 SLOAD DUP2 PUSH1 0xFF MUL NOT AND SWAP1 DUP4 PUSH1 0x4 DUP2 GT ISZERO PUSH2 0x811 JUMPI PUSH2 0x810 PUSH2 0x1A2F JUMP JUMPDEST JUMPDEST MUL OR SWAP1 SSTORE POP PUSH1 0x0 SWAP2 POP POP JUMPDEST SWAP3 SWAP2 POP POP JUMP JUMPDEST PUSH1 0x0 DUP2 PUSH1 0x4 DUP2 GT ISZERO PUSH2 0x837 JUMPI PUSH2 0x836 PUSH2 0x1A2F JUMP JUMPDEST JUMPDEST PUSH1 0x2 PUSH1 0x0 DUP6 PUSH20 0xFFFFFFFFFFFFFFFFFFFFFFFFFFFFFFFFFFFFFFFF AND PUSH20 0xFFFFFFFFFFFFFFFFFFFFFFFFFFFFFFFFFFFFFFFF AND DUP2 MSTORE PUSH1 0x20 ADD SWAP1 DUP2 MSTORE PUSH1 0x20 ADD PUSH1 0x0 KECCAK256 PUSH1 0x0 SWAP1 SLOAD SWAP1 PUSH2 0x100 EXP SWAP1 DIV PUSH1 0xFF AND PUSH1 0x4 DUP2 GT ISZERO PUSH2 0x896 JUMPI PUSH2 0x895 PUSH2 0x1A2F JUMP JUMPDEST JUMPDEST EQ SWAP1 POP SWAP3 SWAP2 POP POP JUMP JUMPDEST PUSH1 0x0 DUP1 SLOAD SWAP1 PUSH2 0x100 EXP SWAP1 DIV PUSH20 0xFFFFFFFFFFFFFFFFFFFFFFFFFFFFFFFFFFFFFFFF AND PUSH20 0xFFFFFFFFFFFFFFFFFFFFFFFFFFFFFFFFFFFFFFFF AND CALLER PUSH20 0xFFFFFFFFFFFFFFFFFFFFFFFFFFFFFFFFFFFFFFFF AND EQ PUSH2 0x92D JUMPI PUSH1 0x40 MLOAD PUSH32 0x8C379A000000000000000000000000000000000000000000000000000000000 DUP2 MSTORE PUSH1 0x4 ADD PUSH2 0x924 SWAP1 PUSH2 0x1B0D JUMP JUMPDEST PUSH1 0x40 MLOAD DUP1 SWAP2 SUB SWAP1 REVERT JUMPDEST DUP1 PUSH1 0x0 DUP1 PUSH2 0x100 EXP DUP2 SLOAD DUP2 PUSH20 0xFFFFFFFFFFFFFFFFFFFFFFFFFFFFFFFFFFFFFFFF MUL NOT AND SWAP1 DUP4 PUSH20 0xFFFFFFFFFFFFFFFFFFFFFFFFFFFFFFFFFFFFFFFF AND MUL OR SWAP1 SSTORE POP POP JUMP JUMPDEST PUSH1 0x60 PUSH1 0x3 PUSH1 0x0 PUSH1 0x2 PUSH1 0x4 DUP2 GT ISZERO PUSH2 0x98A JUMPI PUSH2 0x989 PUSH2 0x1A2F JUMP JUMPDEST JUMPDEST PUSH1 0x4 DUP2 GT ISZERO PUSH2 0x99C JUMPI PUSH2 0x99B PUSH2 0x1A2F JUMP JUMPDEST JUMPDEST DUP2 MSTORE PUSH1 0x20 ADD SWAP1 DUP2 MSTORE PUSH1 0x20 ADD PUSH1 0x0 KECCAK256 DUP1 SLOAD DUP1 PUSH1 0x20 MUL PUSH1 0x20 ADD PUSH1 0x40 MLOAD SWAP1 DUP2 ADD PUSH1 0x40 MSTORE DUP1 SWAP3 SWAP2 SWAP1 DUP2 DUP2 MSTORE PUSH1 0x20 ADD DUP3 DUP1 SLOAD DUP1 ISZERO PUSH2 0xA2A JUMPI PUSH1 0x20 MUL DUP3 ADD SWAP2 SWAP1 PUSH1 0x0 MSTORE PUSH1 0x20 PUSH1 0x0 KECCAK256 SWAP1 JUMPDEST DUP2 PUSH1 0x0 SWAP1 SLOAD SWAP1 PUSH2 0x100 EXP SWAP1 DIV PUSH20 0xFFFFFFFFFFFFFFFFFFFFFFFFFFFFFFFFFFFFFFFF AND PUSH20 0xFFFFFFFFFFFFFFFFFFFFFFFFFFFFFFFFFFFFFFFF AND DUP2 MSTORE PUSH1 0x20 ADD SWAP1 PUSH1 0x1 ADD SWAP1 DUP1 DUP4 GT PUSH2 0x9E0 JUMPI JUMPDEST POP POP POP POP POP SWAP1 POP SWAP1 JUMP JUMPDEST PUSH1 0xA PUSH1 0x20 MSTORE DUP2 PUSH1 0x0 MSTORE PUSH1 0x40 PUSH1 0x0 KECCAK256 DUP2 DUP2 SLOAD DUP2 LT PUSH2 0xA50 JUMPI PUSH1 0x0 DUP1 REVERT JUMPDEST SWAP1 PUSH1 0x0 MSTORE PUSH1 0x20 PUSH1 0x0 KECCAK256 ADD PUSH1 0x0 SWAP2 POP SWAP2 POP POP SLOAD DUP2 JUMP JUMPDEST PUSH1 0x60 PUSH1 0x5 DUP1 SLOAD PUSH2 0xA74 SWAP1 PUSH2 0x1B9E JUMP JUMPDEST DUP1 PUSH1 0x1F ADD PUSH1 0x20 DUP1 SWAP2 DIV MUL PUSH1 0x20 ADD PUSH1 0x40 MLOAD SWAP1 DUP2 ADD PUSH1 0x40 MSTORE DUP1 SWAP3 SWAP2 SWAP1 DUP2 DUP2 MSTORE PUSH1 0x20 ADD DUP3 DUP1 SLOAD PUSH2 0xAA0 SWAP1 PUSH2 0x1B9E JUMP JUMPDEST DUP1 ISZERO PUSH2 0xAED JUMPI DUP1 PUSH1 0x1F LT PUSH2 0xAC2 JUMPI PUSH2 0x100 DUP1 DUP4 SLOAD DIV MUL DUP4 MSTORE SWAP2 PUSH1 0x20 ADD SWAP2 PUSH2 0xAED JUMP JUMPDEST DUP3 ADD SWAP2 SWAP1 PUSH1 0x0 MSTORE PUSH1 0x20 PUSH1 0x0 KECCAK256 SWAP1 JUMPDEST DUP2 SLOAD DUP2 MSTORE SWAP1 PUSH1 0x1 ADD SWAP1 PUSH1 0x20 ADD DUP1 DUP4 GT PUSH2 0xAD0 JUMPI DUP3 SWAP1 SUB PUSH1 0x1F AND DUP3 ADD SWAP2 JUMPDEST POP POP POP POP POP SWAP1 POP SWAP1 JUMP JUMPDEST PUSH1 0x0 PUSH1 0x1 PUSH1 0x0 SWAP1 SLOAD SWAP1 PUSH2 0x100 EXP SWAP1 DIV PUSH20 0xFFFFFFFFFFFFFFFFFFFFFFFFFFFFFFFFFFFFFFFF AND SWAP1 POP SWAP1 JUMP JUMPDEST PUSH1 0x3 PUSH1 0x0 DUP4 PUSH1 0x4 DUP2 GT ISZERO PUSH2 0xB38 JUMPI PUSH2 0xB37 PUSH2 0x1A2F JUMP JUMPDEST JUMPDEST PUSH1 0x4 DUP2 GT ISZERO PUSH2 0xB4A JUMPI PUSH2 0xB49 PUSH2 0x1A2F JUMP JUMPDEST JUMPDEST DUP2 MSTORE PUSH1 0x20 ADD SWAP1 DUP2 MSTORE PUSH1 0x20 ADD PUSH1 0x0 KECCAK256 DUP2 DUP2 SLOAD DUP2 LT PUSH2 0xB6A JUMPI PUSH2 0xB69 PUSH2 0x1BCF JUMP JUMPDEST JUMPDEST SWAP1 PUSH1 0x0 MSTORE PUSH1 0x20 PUSH1 0x0 KECCAK256 ADD PUSH1 0x0 PUSH2 0x100 EXP DUP2 SLOAD SWAP1 PUSH20 0xFFFFFFFFFFFFFFFFFFFFFFFFFFFFFFFFFFFFFFFF MUL NOT AND SWAP1 SSTORE POP POP JUMP JUMPDEST DUP1 PUSH1 0x2 PUSH1 0x0 DUP5 PUSH20 0xFFFFFFFFFFFFFFFFFFFFFFFFFFFFFFFFFFFFFFFF AND PUSH20 0xFFFFFFFFFFFFFFFFFFFFFFFFFFFFFFFFFFFFFFFF AND DUP2 MSTORE PUSH1 0x20 ADD SWAP1 DUP2 MSTORE PUSH1 0x20 ADD PUSH1 0x0 KECCAK256 PUSH1 0x0 PUSH2 0x100 EXP DUP2 SLOAD DUP2 PUSH1 0xFF MUL NOT AND SWAP1 DUP4 PUSH1 0x4 DUP2 GT ISZERO PUSH2 0xBFD JUMPI PUSH2 0xBFC PUSH2 0x1A2F JUMP JUMPDEST JUMPDEST MUL OR SWAP1 SSTORE POP POP POP JUMP JUMPDEST PUSH1 0x0 DUP1 SLOAD SWAP1 PUSH2 0x100 EXP SWAP1 DIV PUSH20 0xFFFFFFFFFFFFFFFFFFFFFFFFFFFFFFFFFFFFFFFF AND PUSH20 0xFFFFFFFFFFFFFFFFFFFFFFFFFFFFFFFFFFFFFFFF AND CALLER PUSH20 0xFFFFFFFFFFFFFFFFFFFFFFFFFFFFFFFFFFFFFFFF AND EQ PUSH2 0xC94 JUMPI PUSH1 0x40 MLOAD PUSH32 0x8C379A000000000000000000000000000000000000000000000000000000000 DUP2 MSTORE PUSH1 0x4 ADD PUSH2 0xC8B SWAP1 PUSH2 0x1B0D JUMP JUMPDEST PUSH1 0x40 MLOAD DUP1 SWAP2 SUB SWAP1 REVERT JUMPDEST DUP1 PUSH1 0x4 PUSH1 0x0 PUSH2 0x100 EXP DUP2 SLOAD DUP2 PUSH1 0xFF MUL NOT AND SWAP1 DUP4 ISZERO ISZERO MUL OR SWAP1 SSTORE POP POP JUMP JUMPDEST PUSH1 0x9 PUSH1 0x20 MSTORE DUP1 PUSH1 0x0 MSTORE PUSH1 0x40 PUSH1 0x0 KECCAK256 PUSH1 0x0 SWAP2 POP SLOAD SWAP1 PUSH2 0x100 EXP SWAP1 DIV PUSH20 0xFFFFFFFFFFFFFFFFFFFFFFFFFFFFFFFFFFFFFFFF AND DUP2 JUMP JUMPDEST PUSH1 0x0 PUSH1 0x7 SLOAD SWAP1 POP SWAP1 JUMP JUMPDEST PUSH1 0x60 PUSH1 0x3 PUSH1 0x0 PUSH1 0x1 PUSH1 0x4 DUP2 GT ISZERO PUSH2 0xD08 JUMPI PUSH2 0xD07 PUSH2 0x1A2F JUMP JUMPDEST JUMPDEST PUSH1 0x4 DUP2 GT ISZERO PUSH2 0xD1A JUMPI PUSH2 0xD19 PUSH2 0x1A2F JUMP JUMPDEST JUMPDEST DUP2 MSTORE PUSH1 0x20 ADD SWAP1 DUP2 MSTORE PUSH1 0x20 ADD PUSH1 0x0 KECCAK256 DUP1 SLOAD DUP1 PUSH1 0x20 MUL PUSH1 0x20 ADD PUSH1 0x40 MLOAD SWAP1 DUP2 ADD PUSH1 0x40 MSTORE DUP1 SWAP3 SWAP2 SWAP1 DUP2 DUP2 MSTORE PUSH1 0x20 ADD DUP3 DUP1 SLOAD DUP1 ISZERO PUSH2 0xDA8 JUMPI PUSH1 0x20 MUL DUP3 ADD SWAP2 SWAP1 PUSH1 0x0 MSTORE PUSH1 0x20 PUSH1 0x0 KECCAK256 SWAP1 JUMPDEST DUP2 PUSH1 0x0 SWAP1 SLOAD SWAP1 PUSH2 0x100 EXP SWAP1 DIV PUSH20 0xFFFFFFFFFFFFFFFFFFFFFFFFFFFFFFFFFFFFFFFF AND PUSH20 0xFFFFFFFFFFFFFFFFFFFFFFFFFFFFFFFFFFFFFFFF AND DUP2 MSTORE PUSH1 0x20 ADD SWAP1 PUSH1 0x1 ADD SWAP1 DUP1 DUP4 GT PUSH2 0xD5E JUMPI JUMPDEST POP POP POP POP POP SWAP1 POP SWAP1 JUMP JUMPDEST PUSH1 0x0 DUP1 SLOAD SWAP1 PUSH2 0x100 EXP SWAP1 DIV PUSH20 0xFFFFFFFFFFFFFFFFFFFFFFFFFFFFFFFFFFFFFFFF AND DUP2 JUMP JUMPDEST PUSH1 0x0 DUP1 SLOAD SWAP1 PUSH2 0x100 EXP SWAP1 DIV PUSH20 0xFFFFFFFFFFFFFFFFFFFFFFFFFFFFFFFFFFFFFFFF AND PUSH20 0xFFFFFFFFFFFFFFFFFFFFFFFFFFFFFFFFFFFFFFFF AND CALLER PUSH20 0xFFFFFFFFFFFFFFFFFFFFFFFFFFFFFFFFFFFFFFFF AND EQ PUSH2 0xE64 JUMPI PUSH1 0x40 MLOAD PUSH32 0x8C379A000000000000000000000000000000000000000000000000000000000 DUP2 MSTORE PUSH1 0x4 ADD PUSH2 0xE5B SWAP1 PUSH2 0x1B0D JUMP JUMPDEST PUSH1 0x40 MLOAD DUP1 SWAP2 SUB SWAP1 REVERT JUMPDEST DUP2 DUP2 PUSH1 0x5 SWAP2 DUP3 PUSH2 0xE75 SWAP3 SWAP2 SWAP1 PUSH2 0x1DDA JUMP JUMPDEST POP POP POP JUMP JUMPDEST PUSH1 0x60 PUSH1 0x3 PUSH1 0x0 DUP4 PUSH1 0x4 DUP2 GT ISZERO PUSH2 0xE93 JUMPI PUSH2 0xE92 PUSH2 0x1A2F JUMP JUMPDEST JUMPDEST PUSH1 0x4 DUP2 GT ISZERO PUSH2 0xEA5 JUMPI PUSH2 0xEA4 PUSH2 0x1A2F JUMP JUMPDEST JUMPDEST DUP2 MSTORE PUSH1 0x20 ADD SWAP1 DUP2 MSTORE PUSH1 0x20 ADD PUSH1 0x0 KECCAK256 DUP1 SLOAD DUP1 PUSH1 0x20 MUL PUSH1 0x20 ADD PUSH1 0x40 MLOAD SWAP1 DUP2 ADD PUSH1 0x40 MSTORE DUP1 SWAP3 SWAP2 SWAP1 DUP2 DUP2 MSTORE PUSH1 0x20 ADD DUP3 DUP1 SLOAD DUP1 ISZERO PUSH2 0xF33 JUMPI PUSH1 0x20 MUL DUP3 ADD SWAP2 SWAP1 PUSH1 0x0 MSTORE PUSH1 0x20 PUSH1 0x0 KECCAK256 SWAP1 JUMPDEST DUP2 PUSH1 0x0 SWAP1 SLOAD SWAP1 PUSH2 0x100 EXP SWAP1 DIV PUSH20 0xFFFFFFFFFFFFFFFFFFFFFFFFFFFFFFFFFFFFFFFF AND PUSH20 0xFFFFFFFFFFFFFFFFFFFFFFFFFFFFFFFFFFFFFFFF AND DUP2 MSTORE PUSH1 0x20 ADD SWAP1 PUSH1 0x1 ADD SWAP1 DUP1 DUP4 GT PUSH2 0xEE9 JUMPI JUMPDEST POP POP POP POP POP SWAP1 POP SWAP2 SWAP1 POP JUMP JUMPDEST PUSH1 0x60 PUSH1 0x6 DUP1 SLOAD PUSH2 0xF4E SWAP1 PUSH2 0x1B9E JUMP JUMPDEST DUP1 PUSH1 0x1F ADD PUSH1 0x20 DUP1 SWAP2 DIV MUL PUSH1 0x20 ADD PUSH1 0x40 MLOAD SWAP1 DUP2 ADD PUSH1 0x40 MSTORE DUP1 SWAP3 SWAP2 SWAP1 DUP2 DUP2 MSTORE PUSH1 0x20 ADD DUP3 DUP1 SLOAD PUSH2 0xF7A SWAP1 PUSH2 0x1B9E JUMP JUMPDEST DUP1 ISZERO PUSH2 0xFC7 JUMPI DUP1 PUSH1 0x1F LT PUSH2 0xF9C JUMPI PUSH2 0x100 DUP1 DUP4 SLOAD DIV MUL DUP4 MSTORE SWAP2 PUSH1 0x20 ADD SWAP2 PUSH2 0xFC7 JUMP JUMPDEST DUP3 ADD SWAP2 SWAP1 PUSH1 0x0 MSTORE PUSH1 0x20 PUSH1 0x0 KECCAK256 SWAP1 JUMPDEST DUP2 SLOAD DUP2 MSTORE SWAP1 PUSH1 0x1 ADD SWAP1 PUSH1 0x20 ADD DUP1 DUP4 GT PUSH2 0xFAA JUMPI DUP3 SWAP1 SUB PUSH1 0x1F AND DUP3 ADD SWAP2 JUMPDEST POP POP POP POP POP SWAP1 POP SWAP1 JUMP JUMPDEST PUSH1 0x0 DUP1 DUP3 PUSH1 0x4 DUP2 GT ISZERO PUSH2 0xFE7 JUMPI PUSH2 0xFE6 PUSH2 0x1A2F JUMP JUMPDEST JUMPDEST SWAP1 POP PUSH1 0x0 PUSH1 0x2 DUP3 PUSH2 0xFF8 SWAP2 SWAP1 PUSH2 0x1ED9 JUMP JUMPDEST SUB PUSH2 0x1024 JUMPI PUSH1 0x1 DUP2 PUSH2 0x100A SWAP2 SWAP1 PUSH2 0x1F39 JUMP JUMPDEST PUSH1 0x4 DUP2 GT ISZERO PUSH2 0x101C JUMPI PUSH2 0x101B PUSH2 0x1A2F JUMP JUMPDEST JUMPDEST SWAP2 POP POP PUSH2 0x1047 JUMP JUMPDEST PUSH1 0x1 DUP2 PUSH2 0x1031 SWAP2 SWAP1 PUSH2 0x1F6D JUMP JUMPDEST PUSH1 0x4 DUP2 GT ISZERO PUSH2 0x1043 JUMPI PUSH2 0x1042 PUSH2 0x1A2F JUMP JUMPDEST JUMPDEST SWAP2 POP POP JUMPDEST SWAP2 SWAP1 POP JUMP JUMPDEST PUSH1 0x0 PUSH1 0x4 PUSH1 0x0 SWAP1 SLOAD SWAP1 PUSH2 0x100 EXP SWAP1 DIV PUSH1 0xFF AND SWAP1 POP SWAP1 JUMP JUMPDEST PUSH1 0x0 PUSH1 0x3 PUSH1 0x0 PUSH1 0x1 PUSH1 0x4 DUP2 GT ISZERO PUSH2 0x107D JUMPI PUSH2 0x107C PUSH2 0x1A2F JUMP JUMPDEST JUMPDEST PUSH1 0x4 DUP2 GT ISZERO PUSH2 0x108F JUMPI PUSH2 0x108E PUSH2 0x1A2F JUMP JUMPDEST JUMPDEST DUP2 MSTORE PUSH1 0x20 ADD SWAP1 DUP2 MSTORE PUSH1 0x20 ADD PUSH1 0x0 KECCAK256 DUP1 SLOAD SWAP1 POP SWAP1 POP SWAP1 JUMP JUMPDEST PUSH1 0x3 PUSH1 0x20 MSTORE DUP2 PUSH1 0x0 MSTORE PUSH1 0x40 PUSH1 0x0 KECCAK256 DUP2 DUP2 SLOAD DUP2 LT PUSH2 0x10C2 JUMPI PUSH1 0x0 DUP1 REVERT JUMPDEST SWAP1 PUSH1 0x0 MSTORE PUSH1 0x20 PUSH1 0x0 KECCAK256 ADD PUSH1 0x0 SWAP2 POP SWAP2 POP SWAP1 SLOAD SWAP1 PUSH2 0x100 EXP SWAP1 DIV PUSH20 0xFFFFFFFFFFFFFFFFFFFFFFFFFFFFFFFFFFFFFFFF AND DUP2 JUMP JUMPDEST PUSH1 0x0 DUP1 SLOAD SWAP1 PUSH2 0x100 EXP SWAP1 DIV PUSH20 0xFFFFFFFFFFFFFFFFFFFFFFFFFFFFFFFFFFFFFFFF AND PUSH20 0xFFFFFFFFFFFFFFFFFFFFFFFFFFFFFFFFFFFFFFFF AND CALLER PUSH20 0xFFFFFFFFFFFFFFFFFFFFFFFFFFFFFFFFFFFFFFFF AND EQ PUSH2 0x1182 JUMPI PUSH1 0x40 MLOAD PUSH32 0x8C379A000000000000000000000000000000000000000000000000000000000 DUP2 MSTORE PUSH1 0x4 ADD PUSH2 0x1179 SWAP1 PUSH2 0x1B0D JUMP JUMPDEST PUSH1 0x40 MLOAD DUP1 SWAP2 SUB SWAP1 REVERT JUMPDEST DUP2 DUP2 PUSH1 0x6 SWAP2 DUP3 PUSH2 0x1193 SWAP3 SWAP2 SWAP1 PUSH2 0x1DDA JUMP JUMPDEST POP POP POP JUMP JUMPDEST PUSH1 0x60 PUSH1 0x3 PUSH1 0x0 PUSH1 0x3 PUSH1 0x4 DUP2 GT ISZERO PUSH2 0x11B2 JUMPI PUSH2 0x11B1 PUSH2 0x1A2F JUMP JUMPDEST JUMPDEST PUSH1 0x4 DUP2 GT ISZERO PUSH2 0x11C4 JUMPI PUSH2 0x11C3 PUSH2 0x1A2F JUMP JUMPDEST JUMPDEST DUP2 MSTORE PUSH1 0x20 ADD SWAP1 DUP2 MSTORE PUSH1 0x20 ADD PUSH1 0x0 KECCAK256 DUP1 SLOAD DUP1 PUSH1 0x20 MUL PUSH1 0x20 ADD PUSH1 0x40 MLOAD SWAP1 DUP2 ADD PUSH1 0x40 MSTORE DUP1 SWAP3 SWAP2 SWAP1 DUP2 DUP2 MSTORE PUSH1 0x20 ADD DUP3 DUP1 SLOAD DUP1 ISZERO PUSH2 0x1252 JUMPI PUSH1 0x20 MUL DUP3 ADD SWAP2 SWAP1 PUSH1 0x0 MSTORE PUSH1 0x20 PUSH1 0x0 KECCAK256 SWAP1 JUMPDEST DUP2 PUSH1 0x0 SWAP1 SLOAD SWAP1 PUSH2 0x100 EXP SWAP1 DIV PUSH20 0xFFFFFFFFFFFFFFFFFFFFFFFFFFFFFFFFFFFFFFFF AND PUSH20 0xFFFFFFFFFFFFFFFFFFFFFFFFFFFFFFFFFFFFFFFF AND DUP2 MSTORE PUSH1 0x20 ADD SWAP1 PUSH1 0x1 ADD SWAP1 DUP1 DUP4 GT PUSH2 0x1208 JUMPI JUMPDEST POP POP POP POP POP SWAP1 POP SWAP1 JUMP JUMPDEST PUSH1 0x0 PUSH1 0x3 PUSH1 0x0 PUSH1 0x2 PUSH1 0x4 DUP2 GT ISZERO PUSH2 0x1276 JUMPI PUSH2 0x1275 PUSH2 0x1A2F JUMP JUMPDEST JUMPDEST PUSH1 0x4 DUP2 GT ISZERO PUSH2 0x1288 JUMPI PUSH2 0x1287 PUSH2 0x1A2F JUMP JUMPDEST JUMPDEST DUP2 MSTORE PUSH1 0x20 ADD SWAP1 DUP2 MSTORE PUSH1 0x20 ADD PUSH1 0x0 KECCAK256 DUP1 SLOAD SWAP1 POP SWAP1 POP SWAP1 JUMP JUMPDEST PUSH1 0x2 PUSH1 0x20 MSTORE DUP1 PUSH1 0x0 MSTORE PUSH1 0x40 PUSH1 0x0 KECCAK256 PUSH1 0x0 SWAP2 POP SLOAD SWAP1 PUSH2 0x100 EXP SWAP1 DIV PUSH1 0xFF AND DUP2 JUMP JUMPDEST PUSH2 0x12C8 DUP2 PUSH2 0xFD1 JUMP JUMPDEST PUSH1 0x4 DUP2 GT ISZERO PUSH2 0x12DA JUMPI PUSH2 0x12D9 PUSH2 0x1A2F JUMP JUMPDEST JUMPDEST PUSH1 0x2 PUSH1 0x0 CALLER PUSH20 0xFFFFFFFFFFFFFFFFFFFFFFFFFFFFFFFFFFFFFFFF AND PUSH20 0xFFFFFFFFFFFFFFFFFFFFFFFFFFFFFFFFFFFFFFFF AND DUP2 MSTORE PUSH1 0x20 ADD SWAP1 DUP2 MSTORE PUSH1 0x20 ADD PUSH1 0x0 KECCAK256 PUSH1 0x0 SWAP1 SLOAD SWAP1 PUSH2 0x100 EXP SWAP1 DIV PUSH1 0xFF AND PUSH1 0x4 DUP2 GT ISZERO PUSH2 0x1339 JUMPI PUSH2 0x1338 PUSH2 0x1A2F JUMP JUMPDEST JUMPDEST EQ PUSH2 0x1379 JUMPI PUSH1 0x40 MLOAD PUSH32 0x8C379A000000000000000000000000000000000000000000000000000000000 DUP2 MSTORE PUSH1 0x4 ADD PUSH2 0x1370 SWAP1 PUSH2 0x1FED JUMP JUMPDEST PUSH1 0x40 MLOAD DUP1 SWAP2 SUB SWAP1 REVERT JUMPDEST PUSH1 0x0 PUSH1 0x2 PUSH1 0x0 CALLER PUSH20 0xFFFFFFFFFFFFFFFFFFFFFFFFFFFFFFFFFFFFFFFF AND PUSH20 0xFFFFFFFFFFFFFFFFFFFFFFFFFFFFFFFFFFFFFFFF AND DUP2 MSTORE PUSH1 0x20 ADD SWAP1 DUP2 MSTORE PUSH1 0x20 ADD PUSH1 0x0 KECCAK256 PUSH1 0x0 PUSH2 0x100 EXP DUP2 SLOAD DUP2 PUSH1 0xFF MUL NOT AND SWAP1 DUP4 PUSH1 0x4 DUP2 GT ISZERO PUSH2 0x13DC JUMPI PUSH2 0x13DB PUSH2 0x1A2F JUMP JUMPDEST JUMPDEST MUL OR SWAP1 SSTORE POP PUSH1 0x3 PUSH1 0x0 PUSH2 0x13EE DUP4 PUSH2 0xFD1 JUMP JUMPDEST PUSH1 0x4 DUP2 GT ISZERO PUSH2 0x1400 JUMPI PUSH2 0x13FF PUSH2 0x1A2F JUMP JUMPDEST JUMPDEST PUSH1 0x4 DUP2 GT ISZERO PUSH2 0x1412 JUMPI PUSH2 0x1411 PUSH2 0x1A2F JUMP JUMPDEST JUMPDEST DUP2 MSTORE PUSH1 0x20 ADD SWAP1 DUP2 MSTORE PUSH1 0x20 ADD PUSH1 0x0 KECCAK256 CALLER SWAP1 DUP1 PUSH1 0x1 DUP2 SLOAD ADD DUP1 DUP3 SSTORE DUP1 SWAP2 POP POP PUSH1 0x1 SWAP1 SUB SWAP1 PUSH1 0x0 MSTORE PUSH1 0x20 PUSH1 0x0 KECCAK256 ADD PUSH1 0x0 SWAP1 SWAP2 SWAP1 SWAP2 SWAP1 SWAP2 PUSH2 0x100 EXP DUP2 SLOAD DUP2 PUSH20 0xFFFFFFFFFFFFFFFFFFFFFFFFFFFFFFFFFFFFFFFF MUL NOT AND SWAP1 DUP4 PUSH20 0xFFFFFFFFFFFFFFFFFFFFFFFFFFFFFFFFFFFFFFFF AND MUL OR SWAP1 SSTORE POP POP JUMP JUMPDEST PUSH1 0x0 DUP1 REVERT JUMPDEST PUSH1 0x0 DUP1 REVERT JUMPDEST PUSH1 0x0 DUP2 SWAP1 POP SWAP2 SWAP1 POP JUMP JUMPDEST PUSH2 0x14A1 DUP2 PUSH2 0x148E JUMP JUMPDEST DUP2 EQ PUSH2 0x14AC JUMPI PUSH1 0x0 DUP1 REVERT JUMPDEST POP JUMP JUMPDEST PUSH1 0x0 DUP2 CALLDATALOAD SWAP1 POP PUSH2 0x14BE DUP2 PUSH2 0x1498 JUMP JUMPDEST SWAP3 SWAP2 POP POP JUMP JUMPDEST PUSH1 0x0 PUSH1 0x20 DUP3 DUP5 SUB SLT ISZERO PUSH2 0x14DA JUMPI PUSH2 0x14D9 PUSH2 0x1484 JUMP JUMPDEST JUMPDEST PUSH1 0x0 PUSH2 0x14E8 DUP5 DUP3 DUP6 ADD PUSH2 0x14AF JUMP JUMPDEST SWAP2 POP POP SWAP3 SWAP2 POP POP JUMP JUMPDEST PUSH1 0x0 PUSH20 0xFFFFFFFFFFFFFFFFFFFFFFFFFFFFFFFFFFFFFFFF DUP3 AND SWAP1 POP SWAP2 SWAP1 POP JUMP JUMPDEST PUSH1 0x0 PUSH2 0x151C DUP3 PUSH2 0x14F1 JUMP JUMPDEST SWAP1 POP SWAP2 SWAP1 POP JUMP JUMPDEST PUSH2 0x152C DUP2 PUSH2 0x1511 JUMP JUMPDEST DUP2 EQ PUSH2 0x1537 JUMPI PUSH1 0x0 DUP1 REVERT JUMPDEST POP JUMP JUMPDEST PUSH1 0x0 DUP2 CALLDATALOAD SWAP1 POP PUSH2 0x1549 DUP2 PUSH2 0x1523 JUMP JUMPDEST SWAP3 SWAP2 POP POP JUMP JUMPDEST PUSH1 0x5 DUP2 LT PUSH2 0x155C JUMPI PUSH1 0x0 DUP1 REVERT JUMPDEST POP JUMP JUMPDEST PUSH1 0x0 DUP2 CALLDATALOAD SWAP1 POP PUSH2 0x156E DUP2 PUSH2 0x154F JUMP JUMPDEST SWAP3 SWAP2 POP POP JUMP JUMPDEST PUSH1 0x0 DUP1 PUSH1 0x40 DUP4 DUP6 SUB SLT ISZERO PUSH2 0x158B JUMPI PUSH2 0x158A PUSH2 0x1484 JUMP JUMPDEST JUMPDEST PUSH1 0x0 PUSH2 0x1599 DUP6 DUP3 DUP7 ADD PUSH2 0x153A JUMP JUMPDEST SWAP3 POP POP PUSH1 0x20 PUSH2 0x15AA DUP6 DUP3 DUP7 ADD PUSH2 0x155F JUMP JUMPDEST SWAP2 POP POP SWAP3 POP SWAP3 SWAP1 POP JUMP JUMPDEST PUSH1 0x0 DUP2 ISZERO ISZERO SWAP1 POP SWAP2 SWAP1 POP JUMP JUMPDEST PUSH2 0x15C9 DUP2 PUSH2 0x15B4 JUMP JUMPDEST DUP3 MSTORE POP POP JUMP JUMPDEST PUSH1 0x0 PUSH1 0x20 DUP3 ADD SWAP1 POP PUSH2 0x15E4 PUSH1 0x0 DUP4 ADD DUP5 PUSH2 0x15C0 JUMP JUMPDEST SWAP3 SWAP2 POP POP JUMP JUMPDEST PUSH1 0x0 PUSH1 0x20 DUP3 DUP5 SUB SLT ISZERO PUSH2 0x1600 JUMPI PUSH2 0x15FF PUSH2 0x1484 JUMP JUMPDEST JUMPDEST PUSH1 0x0 PUSH2 0x160E DUP5 DUP3 DUP6 ADD PUSH2 0x153A JUMP JUMPDEST SWAP2 POP POP SWAP3 SWAP2 POP POP JUMP JUMPDEST PUSH1 0x0 DUP2 MLOAD SWAP1 POP SWAP2 SWAP1 POP JUMP JUMPDEST PUSH1 0x0 DUP3 DUP3 MSTORE PUSH1 0x20 DUP3 ADD SWAP1 POP SWAP3 SWAP2 POP POP JUMP JUMPDEST PUSH1 0x0 DUP2 SWAP1 POP PUSH1 0x20 DUP3 ADD SWAP1 POP SWAP2 SWAP1 POP JUMP JUMPDEST PUSH2 0x164C DUP2 PUSH2 0x1511 JUMP JUMPDEST DUP3 MSTORE POP POP JUMP JUMPDEST PUSH1 0x0 PUSH2 0x165E DUP4 DUP4 PUSH2 0x1643 JUMP JUMPDEST PUSH1 0x20 DUP4 ADD SWAP1 POP SWAP3 SWAP2 POP POP JUMP JUMPDEST PUSH1 0x0 PUSH1 0x20 DUP3 ADD SWAP1 POP SWAP2 SWAP1 POP JUMP JUMPDEST PUSH1 0x0 PUSH2 0x1682 DUP3 PUSH2 0x1617 JUMP JUMPDEST PUSH2 0x168C DUP2 DUP6 PUSH2 0x1622 JUMP JUMPDEST SWAP4 POP PUSH2 0x1697 DUP4 PUSH2 0x1633 JUMP JUMPDEST DUP1 PUSH1 0x0 JUMPDEST DUP4 DUP2 LT ISZERO PUSH2 0x16C8 JUMPI DUP2 MLOAD PUSH2 0x16AF DUP9 DUP3 PUSH2 0x1652 JUMP JUMPDEST SWAP8 POP PUSH2 0x16BA DUP4 PUSH2 0x166A JUMP JUMPDEST SWAP3 POP POP PUSH1 0x1 DUP2 ADD SWAP1 POP PUSH2 0x169B JUMP JUMPDEST POP DUP6 SWAP4 POP POP POP POP SWAP3 SWAP2 POP POP JUMP JUMPDEST PUSH1 0x0 PUSH1 0x20 DUP3 ADD SWAP1 POP DUP2 DUP2 SUB PUSH1 0x0 DUP4 ADD MSTORE PUSH2 0x16EF DUP2 DUP5 PUSH2 0x1677 JUMP JUMPDEST SWAP1 POP SWAP3 SWAP2 POP POP JUMP JUMPDEST PUSH1 0x0 DUP1 PUSH1 0x40 DUP4 DUP6 SUB SLT ISZERO PUSH2 0x170E JUMPI PUSH2 0x170D PUSH2 0x1484 JUMP JUMPDEST JUMPDEST PUSH1 0x0 PUSH2 0x171C DUP6 DUP3 DUP7 ADD PUSH2 0x153A JUMP JUMPDEST SWAP3 POP POP PUSH1 0x20 PUSH2 0x172D DUP6 DUP3 DUP7 ADD PUSH2 0x14AF JUMP JUMPDEST SWAP2 POP POP SWAP3 POP SWAP3 SWAP1 POP JUMP JUMPDEST PUSH2 0x1740 DUP2 PUSH2 0x148E JUMP JUMPDEST DUP3 MSTORE POP POP JUMP JUMPDEST PUSH1 0x0 PUSH1 0x20 DUP3 ADD SWAP1 POP PUSH2 0x175B PUSH1 0x0 DUP4 ADD DUP5 PUSH2 0x1737 JUMP JUMPDEST SWAP3 SWAP2 POP POP JUMP JUMPDEST PUSH1 0x0 DUP2 MLOAD SWAP1 POP SWAP2 SWAP1 POP JUMP JUMPDEST PUSH1 0x0 DUP3 DUP3 MSTORE PUSH1 0x20 DUP3 ADD SWAP1 POP SWAP3 SWAP2 POP POP JUMP JUMPDEST PUSH1 0x0 JUMPDEST DUP4 DUP2 LT ISZERO PUSH2 0x179B JUMPI DUP1 DUP3 ADD MLOAD DUP2 DUP5 ADD MSTORE PUSH1 0x20 DUP2 ADD SWAP1 POP PUSH2 0x1780 JUMP JUMPDEST PUSH1 0x0 DUP5 DUP5 ADD MSTORE POP POP POP POP JUMP JUMPDEST PUSH1 0x0 PUSH1 0x1F NOT PUSH1 0x1F DUP4 ADD AND SWAP1 POP SWAP2 SWAP1 POP JUMP JUMPDEST PUSH1 0x0 PUSH2 0x17C3 DUP3 PUSH2 0x1761 JUMP JUMPDEST PUSH2 0x17CD DUP2 DUP6 PUSH2 0x176C JUMP JUMPDEST SWAP4 POP PUSH2 0x17DD DUP2 DUP6 PUSH1 0x20 DUP7 ADD PUSH2 0x177D JUMP JUMPDEST PUSH2 0x17E6 DUP2 PUSH2 0x17A7 JUMP JUMPDEST DUP5 ADD SWAP2 POP POP SWAP3 SWAP2 POP POP JUMP JUMPDEST PUSH1 0x0 PUSH1 0x20 DUP3 ADD SWAP1 POP DUP2 DUP2 SUB PUSH1 0x0 DUP4 ADD MSTORE PUSH2 0x180B DUP2 DUP5 PUSH2 0x17B8 JUMP JUMPDEST SWAP1 POP SWAP3 SWAP2 POP POP JUMP JUMPDEST PUSH2 0x181C DUP2 PUSH2 0x1511 JUMP JUMPDEST DUP3 MSTORE POP POP JUMP JUMPDEST PUSH1 0x0 PUSH1 0x20 DUP3 ADD SWAP1 POP PUSH2 0x1837 PUSH1 0x0 DUP4 ADD DUP5 PUSH2 0x1813 JUMP JUMPDEST SWAP3 SWAP2 POP POP JUMP JUMPDEST PUSH1 0x0 DUP1 PUSH1 0x40 DUP4 DUP6 SUB SLT ISZERO PUSH2 0x1854 JUMPI PUSH2 0x1853 PUSH2 0x1484 JUMP JUMPDEST JUMPDEST PUSH1 0x0 PUSH2 0x1862 DUP6 DUP3 DUP7 ADD PUSH2 0x155F JUMP JUMPDEST SWAP3 POP POP PUSH1 0x20 PUSH2 0x1873 DUP6 DUP3 DUP7 ADD PUSH2 0x14AF JUMP JUMPDEST SWAP2 POP POP SWAP3 POP SWAP3 SWAP1 POP JUMP JUMPDEST PUSH2 0x1886 DUP2 PUSH2 0x15B4 JUMP JUMPDEST DUP2 EQ PUSH2 0x1891 JUMPI PUSH1 0x0 DUP1 REVERT JUMPDEST POP JUMP JUMPDEST PUSH1 0x0 DUP2 CALLDATALOAD SWAP1 POP PUSH2 0x18A3 DUP2 PUSH2 0x187D JUMP JUMPDEST SWAP3 SWAP2 POP POP JUMP JUMPDEST PUSH1 0x0 PUSH1 0x20 DUP3 DUP5 SUB SLT ISZERO PUSH2 0x18BF JUMPI PUSH2 0x18BE PUSH2 0x1484 JUMP JUMPDEST JUMPDEST PUSH1 0x0 PUSH2 0x18CD DUP5 DUP3 DUP6 ADD PUSH2 0x1894 JUMP JUMPDEST SWAP2 POP POP SWAP3 SWAP2 POP POP JUMP JUMPDEST PUSH1 0x0 DUP2 SWAP1 POP SWAP2 SWAP1 POP JUMP JUMPDEST PUSH1 0x0 PUSH2 0x18FB PUSH2 0x18F6 PUSH2 0x18F1 DUP5 PUSH2 0x14F1 JUMP JUMPDEST PUSH2 0x18D6 JUMP JUMPDEST PUSH2 0x14F1 JUMP JUMPDEST SWAP1 POP SWAP2 SWAP1 POP JUMP JUMPDEST PUSH1 0x0 PUSH2 0x190D DUP3 PUSH2 0x18E0 JUMP JUMPDEST SWAP1 POP SWAP2 SWAP1 POP JUMP JUMPDEST PUSH1 0x0 PUSH2 0x191F DUP3 PUSH2 0x1902 JUMP JUMPDEST SWAP1 POP SWAP2 SWAP1 POP JUMP JUMPDEST PUSH2 0x192F DUP2 PUSH2 0x1914 JUMP JUMPDEST DUP3 MSTORE POP POP JUMP JUMPDEST PUSH1 0x0 PUSH1 0x20 DUP3 ADD SWAP1 POP PUSH2 0x194A PUSH1 0x0 DUP4 ADD DUP5 PUSH2 0x1926 JUMP JUMPDEST SWAP3 SWAP2 POP POP JUMP JUMPDEST PUSH1 0x0 DUP1 REVERT JUMPDEST PUSH1 0x0 DUP1 REVERT JUMPDEST PUSH1 0x0 DUP1 REVERT JUMPDEST PUSH1 0x0 DUP1 DUP4 PUSH1 0x1F DUP5 ADD SLT PUSH2 0x1975 JUMPI PUSH2 0x1974 PUSH2 0x1950 JUMP JUMPDEST JUMPDEST DUP3 CALLDATALOAD SWAP1 POP PUSH8 0xFFFFFFFFFFFFFFFF DUP2 GT ISZERO PUSH2 0x1992 JUMPI PUSH2 0x1991 PUSH2 0x1955 JUMP JUMPDEST JUMPDEST PUSH1 0x20 DUP4 ADD SWAP2 POP DUP4 PUSH1 0x1 DUP3 MUL DUP4 ADD GT ISZERO PUSH2 0x19AE JUMPI PUSH2 0x19AD PUSH2 0x195A JUMP JUMPDEST JUMPDEST SWAP3 POP SWAP3 SWAP1 POP JUMP JUMPDEST PUSH1 0x0 DUP1 PUSH1 0x20 DUP4 DUP6 SUB SLT ISZERO PUSH2 0x19CC JUMPI PUSH2 0x19CB PUSH2 0x1484 JUMP JUMPDEST JUMPDEST PUSH1 0x0 DUP4 ADD CALLDATALOAD PUSH8 0xFFFFFFFFFFFFFFFF DUP2 GT ISZERO PUSH2 0x19EA JUMPI PUSH2 0x19E9 PUSH2 0x1489 JUMP JUMPDEST JUMPDEST PUSH2 0x19F6 DUP6 DUP3 DUP7 ADD PUSH2 0x195F JUMP JUMPDEST SWAP3 POP SWAP3 POP POP SWAP3 POP SWAP3 SWAP1 POP JUMP JUMPDEST PUSH1 0x0 PUSH1 0x20 DUP3 DUP5 SUB SLT ISZERO PUSH2 0x1A18 JUMPI PUSH2 0x1A17 PUSH2 0x1484 JUMP JUMPDEST JUMPDEST PUSH1 0x0 PUSH2 0x1A26 DUP5 DUP3 DUP6 ADD PUSH2 0x155F JUMP JUMPDEST SWAP2 POP POP SWAP3 SWAP2 POP POP JUMP JUMPDEST PUSH32 0x4E487B7100000000000000000000000000000000000000000000000000000000 PUSH1 0x0 MSTORE PUSH1 0x21 PUSH1 0x4 MSTORE PUSH1 0x24 PUSH1 0x0 REVERT JUMPDEST PUSH1 0x5 DUP2 LT PUSH2 0x1A6F JUMPI PUSH2 0x1A6E PUSH2 0x1A2F JUMP JUMPDEST JUMPDEST POP JUMP JUMPDEST PUSH1 0x0 DUP2 SWAP1 POP PUSH2 0x1A80 DUP3 PUSH2 0x1A5E JUMP JUMPDEST SWAP2 SWAP1 POP JUMP JUMPDEST PUSH1 0x0 PUSH2 0x1A90 DUP3 PUSH2 0x1A72 JUMP JUMPDEST SWAP1 POP SWAP2 SWAP1 POP JUMP JUMPDEST PUSH2 0x1AA0 DUP2 PUSH2 0x1A85 JUMP JUMPDEST DUP3 MSTORE POP POP JUMP JUMPDEST PUSH1 0x0 PUSH1 0x20 DUP3 ADD SWAP1 POP PUSH2 0x1ABB PUSH1 0x0 DUP4 ADD DUP5 PUSH2 0x1A97 JUMP JUMPDEST SWAP3 SWAP2 POP POP JUMP JUMPDEST PUSH32 0x63616C6C6572206D757374206265206F776E6572000000000000000000000000 PUSH1 0x0 DUP3 ADD MSTORE POP JUMP JUMPDEST PUSH1 0x0 PUSH2 0x1AF7 PUSH1 0x14 DUP4 PUSH2 0x176C JUMP JUMPDEST SWAP2 POP PUSH2 0x1B02 DUP3 PUSH2 0x1AC1 JUMP JUMPDEST PUSH1 0x20 DUP3 ADD SWAP1 POP SWAP2 SWAP1 POP JUMP JUMPDEST PUSH1 0x0 PUSH1 0x20 DUP3 ADD SWAP1 POP DUP2 DUP2 SUB PUSH1 0x0 DUP4 ADD MSTORE PUSH2 0x1B26 DUP2 PUSH2 0x1AEA JUMP JUMPDEST SWAP1 POP SWAP2 SWAP1 POP JUMP JUMPDEST PUSH1 0x0 DUP2 MLOAD SWAP1 POP PUSH2 0x1B3C DUP2 PUSH2 0x154F JUMP JUMPDEST SWAP3 SWAP2 POP POP JUMP JUMPDEST PUSH1 0x0 PUSH1 0x20 DUP3 DUP5 SUB SLT ISZERO PUSH2 0x1B58 JUMPI PUSH2 0x1B57 PUSH2 0x1484 JUMP JUMPDEST JUMPDEST PUSH1 0x0 PUSH2 0x1B66 DUP5 DUP3 DUP6 ADD PUSH2 0x1B2D JUMP JUMPDEST SWAP2 POP POP SWAP3 SWAP2 POP POP JUMP JUMPDEST PUSH32 0x4E487B7100000000000000000000000000000000000000000000000000000000 PUSH1 0x0 MSTORE PUSH1 0x22 PUSH1 0x4 MSTORE PUSH1 0x24 PUSH1 0x0 REVERT JUMPDEST PUSH1 0x0 PUSH1 0x2 DUP3 DIV SWAP1 POP PUSH1 0x1 DUP3 AND DUP1 PUSH2 0x1BB6 JUMPI PUSH1 0x7F DUP3 AND SWAP2 POP JUMPDEST PUSH1 0x20 DUP3 LT DUP2 SUB PUSH2 0x1BC9 JUMPI PUSH2 0x1BC8 PUSH2 0x1B6F JUMP JUMPDEST JUMPDEST POP SWAP2 SWAP1 POP JUMP JUMPDEST PUSH32 0x4E487B7100000000000000000000000000000000000000000000000000000000 PUSH1 0x0 MSTORE PUSH1 0x32 PUSH1 0x4 MSTORE PUSH1 0x24 PUSH1 0x0 REVERT JUMPDEST PUSH1 0x0 DUP3 SWAP1 POP SWAP3 SWAP2 POP POP JUMP JUMPDEST PUSH32 0x4E487B7100000000000000000000000000000000000000000000000000000000 PUSH1 0x0 MSTORE PUSH1 0x41 PUSH1 0x4 MSTORE PUSH1 0x24 PUSH1 0x0 REVERT JUMPDEST PUSH1 0x0 DUP2 SWAP1 POP DUP2 PUSH1 0x0 MSTORE PUSH1 0x20 PUSH1 0x0 KECCAK256 SWAP1 POP SWAP2 SWAP1 POP JUMP JUMPDEST PUSH1 0x0 PUSH1 0x20 PUSH1 0x1F DUP4 ADD DIV SWAP1 POP SWAP2 SWAP1 POP JUMP JUMPDEST PUSH1 0x0 DUP3 DUP3 SHL SWAP1 POP SWAP3 SWAP2 POP POP JUMP JUMPDEST PUSH1 0x0 PUSH1 0x8 DUP4 MUL PUSH2 0x1C9A PUSH32 0xFFFFFFFFFFFFFFFFFFFFFFFFFFFFFFFFFFFFFFFFFFFFFFFFFFFFFFFFFFFFFFFF DUP3 PUSH2 0x1C5D JUMP JUMPDEST PUSH2 0x1CA4 DUP7 DUP4 PUSH2 0x1C5D JUMP JUMPDEST SWAP6 POP DUP1 NOT DUP5 AND SWAP4 POP DUP1 DUP7 AND DUP5 OR SWAP3 POP POP POP SWAP4 SWAP3 POP POP POP JUMP JUMPDEST PUSH1 0x0 PUSH2 0x1CD7 PUSH2 0x1CD2 PUSH2 0x1CCD DUP5 PUSH2 0x148E JUMP JUMPDEST PUSH2 0x18D6 JUMP JUMPDEST PUSH2 0x148E JUMP JUMPDEST SWAP1 POP SWAP2 SWAP1 POP JUMP JUMPDEST PUSH1 0x0 DUP2 SWAP1 POP SWAP2 SWAP1 POP JUMP JUMPDEST PUSH2 0x1CF1 DUP4 PUSH2 0x1CBC JUMP JUMPDEST PUSH2 0x1D05 PUSH2 0x1CFD DUP3 PUSH2 0x1CDE JUMP JUMPDEST DUP5 DUP5 SLOAD PUSH2 0x1C6A JUMP JUMPDEST DUP3 SSTORE POP POP POP POP JUMP JUMPDEST PUSH1 0x0 SWAP1 JUMP JUMPDEST PUSH2 0x1D1A PUSH2 0x1D0D JUMP JUMPDEST PUSH2 0x1D25 DUP2 DUP5 DUP5 PUSH2 0x1CE8 JUMP JUMPDEST POP POP POP JUMP JUMPDEST JUMPDEST DUP2 DUP2 LT ISZERO PUSH2 0x1D49 JUMPI PUSH2 0x1D3E PUSH1 0x0 DUP3 PUSH2 0x1D12 JUMP JUMPDEST PUSH1 0x1 DUP2 ADD SWAP1 POP PUSH2 0x1D2B JUMP JUMPDEST POP POP JUMP JUMPDEST PUSH1 0x1F DUP3 GT ISZERO PUSH2 0x1D8E JUMPI PUSH2 0x1D5F DUP2 PUSH2 0x1C38 JUMP JUMPDEST PUSH2 0x1D68 DUP5 PUSH2 0x1C4D JUMP JUMPDEST DUP2 ADD PUSH1 0x20 DUP6 LT ISZERO PUSH2 0x1D77 JUMPI DUP2 SWAP1 POP JUMPDEST PUSH2 0x1D8B PUSH2 0x1D83 DUP6 PUSH2 0x1C4D JUMP JUMPDEST DUP4 ADD DUP3 PUSH2 0x1D2A JUMP JUMPDEST POP POP JUMPDEST POP POP POP JUMP JUMPDEST PUSH1 0x0 DUP3 DUP3 SHR SWAP1 POP SWAP3 SWAP2 POP POP JUMP JUMPDEST PUSH1 0x0 PUSH2 0x1DB1 PUSH1 0x0 NOT DUP5 PUSH1 0x8 MUL PUSH2 0x1D93 JUMP JUMPDEST NOT DUP1 DUP4 AND SWAP2 POP POP SWAP3 SWAP2 POP POP JUMP JUMPDEST PUSH1 0x0 PUSH2 0x1DCA DUP4 DUP4 PUSH2 0x1DA0 JUMP JUMPDEST SWAP2 POP DUP3 PUSH1 0x2 MUL DUP3 OR SWAP1 POP SWAP3 SWAP2 POP POP JUMP JUMPDEST PUSH2 0x1DE4 DUP4 DUP4 PUSH2 0x1BFE JUMP JUMPDEST PUSH8 0xFFFFFFFFFFFFFFFF DUP2 GT ISZERO PUSH2 0x1DFD JUMPI PUSH2 0x1DFC PUSH2 0x1C09 JUMP JUMPDEST JUMPDEST PUSH2 0x1E07 DUP3 SLOAD PUSH2 0x1B9E JUMP JUMPDEST PUSH2 0x1E12 DUP3 DUP3 DUP6 PUSH2 0x1D4D JUMP JUMPDEST PUSH1 0x0 PUSH1 0x1F DUP4 GT PUSH1 0x1 DUP2 EQ PUSH2 0x1E41 JUMPI PUSH1 0x0 DUP5 ISZERO PUSH2 0x1E2F JUMPI DUP3 DUP8 ADD CALLDATALOAD SWAP1 POP JUMPDEST PUSH2 0x1E39 DUP6 DUP3 PUSH2 0x1DBE JUMP JUMPDEST DUP7 SSTORE POP PUSH2 0x1EA1 JUMP JUMPDEST PUSH1 0x1F NOT DUP5 AND PUSH2 0x1E4F DUP7 PUSH2 0x1C38 JUMP JUMPDEST PUSH1 0x0 JUMPDEST DUP3 DUP2 LT ISZERO PUSH2 0x1E77 JUMPI DUP5 DUP10 ADD CALLDATALOAD DUP3 SSTORE PUSH1 0x1 DUP3 ADD SWAP2 POP PUSH1 0x20 DUP6 ADD SWAP5 POP PUSH1 0x20 DUP2 ADD SWAP1 POP PUSH2 0x1E52 JUMP JUMPDEST DUP7 DUP4 LT ISZERO PUSH2 0x1E94 JUMPI DUP5 DUP10 ADD CALLDATALOAD PUSH2 0x1E90 PUSH1 0x1F DUP10 AND DUP3 PUSH2 0x1DA0 JUMP JUMPDEST DUP4 SSTORE POP JUMPDEST PUSH1 0x1 PUSH1 0x2 DUP9 MUL ADD DUP9 SSTORE POP POP POP JUMPDEST POP POP POP POP POP POP POP JUMP JUMPDEST PUSH32 0x4E487B7100000000000000000000000000000000000000000000000000000000 PUSH1 0x0 MSTORE PUSH1 0x12 PUSH1 0x4 MSTORE PUSH1 0x24 PUSH1 0x0 REVERT JUMPDEST PUSH1 0x0 PUSH2 0x1EE4 DUP3 PUSH2 0x148E JUMP JUMPDEST SWAP2 POP PUSH2 0x1EEF DUP4 PUSH2 0x148E JUMP JUMPDEST SWAP3 POP DUP3 PUSH2 0x1EFF JUMPI PUSH2 0x1EFE PUSH2 0x1EAA JUMP JUMPDEST JUMPDEST DUP3 DUP3 MOD SWAP1 POP SWAP3 SWAP2 POP POP JUMP JUMPDEST PUSH32 0x4E487B7100000000000000000000000000000000000000000000000000000000 PUSH1 0x0 MSTORE PUSH1 0x11 PUSH1 0x4 MSTORE PUSH1 0x24 PUSH1 0x0 REVERT JUMPDEST PUSH1 0x0 PUSH2 0x1F44 DUP3 PUSH2 0x148E JUMP JUMPDEST SWAP2 POP PUSH2 0x1F4F DUP4 PUSH2 0x148E JUMP JUMPDEST SWAP3 POP DUP3 DUP3 SUB SWAP1 POP DUP2 DUP2 GT ISZERO PUSH2 0x1F67 JUMPI PUSH2 0x1F66 PUSH2 0x1F0A JUMP JUMPDEST JUMPDEST SWAP3 SWAP2 POP POP JUMP JUMPDEST PUSH1 0x0 PUSH2 0x1F78 DUP3 PUSH2 0x148E JUMP JUMPDEST SWAP2 POP PUSH2 0x1F83 DUP4 PUSH2 0x148E JUMP JUMPDEST SWAP3 POP DUP3 DUP3 ADD SWAP1 POP DUP1 DUP3 GT ISZERO PUSH2 0x1F9B JUMPI PUSH2 0x1F9A PUSH2 0x1F0A JUMP JUMPDEST JUMPDEST SWAP3 SWAP2 POP POP JUMP JUMPDEST PUSH32 0x526571756573746F72206973206E6F7420612063616E6469646174652E000000 PUSH1 0x0 DUP3 ADD MSTORE POP JUMP JUMPDEST PUSH1 0x0 PUSH2 0x1FD7 PUSH1 0x1D DUP4 PUSH2 0x176C JUMP JUMPDEST SWAP2 POP PUSH2 0x1FE2 DUP3 PUSH2 0x1FA1 JUMP JUMPDEST PUSH1 0x20 DUP3 ADD SWAP1 POP SWAP2 SWAP1 POP JUMP JUMPDEST PUSH1 0x0 PUSH1 0x20 DUP3 ADD SWAP1 POP DUP2 DUP2 SUB PUSH1 0x0 DUP4 ADD MSTORE PUSH2 0x2006 DUP2 PUSH2 0x1FCA JUMP JUMPDEST SWAP1 POP SWAP2 SWAP1 POP JUMP INVALID LOG2 PUSH5 0x6970667358 0x22 SLT KECCAK256 DUP3 PUSH26 0x11040BBE354AC47DA8E4C0228592BEC42181BF7E79631BD6C5E2 0x29 0xC9 0xAD SWAP6 PUSH5 0x736F6C6343 STOP ADDMOD SLT STOP CALLER "
				},
				"gasEstimates": {
					"creation": {
						"codeDepositCost": "1651800",
						"executionCost": "infinite",
						"totalCost": "infinite"
					},
					"external": {
						"Accept_Candidate(uint8)": "infinite",
						"Add_Candidate(address,uint8)": "25007",
						"Candidates(address)": "3022",
						"ChangeOwnership(address)": "26979",
						"Delete_Id(uint8,uint256)": "27178",
						"Do_Handshake(address,uint8)": "infinite",
						"Get_CarbonFootprint()": "2548",
						"Get_Ids(uint8)": "infinite",
						"Get_IpfsAddress()": "infinite",
						"Get_IsValue()": "2590",
						"Get_LabelIDs()": "infinite",
						"Get_Name()": "infinite",
						"Get_Owner()": "2590",
						"Get_Predecessor_Count()": "2620",
						"Get_Predecessors()": "infinite",
						"Get_Successor_Count()": "2641",
						"Get_Successors()": "infinite",
						"Has_Candidate(address,uint8)": "3139",
						"Ids(uint8,uint256)": "5222",
						"Set_CarbonFootPrint(uint256)": "24711",
						"Set_IPFS(string)": "infinite",
						"Set_IsValue(bool)": "26913",
						"Set_Name(string)": "infinite",
						"owner()": "2579",
						"products(uint256)": "infinite",
						"reverseRelation(uint8)": "infinite",
						"userProducts(address,uint256)": "infinite"
					}
				},
				"methodIdentifiers": {
					"Accept_Candidate(uint8)": "fc107720",
					"Add_Candidate(address,uint8)": "6947a020",
					"Candidates(address)": "f39f05f7",
					"ChangeOwnership(address)": "244ded7a",
					"Delete_Id(uint8,uint256)": "5f891d98",
					"Do_Handshake(address,uint8)": "0fbdd521",
					"Get_CarbonFootprint()": "7b9f1976",
					"Get_Ids(uint8)": "9407921c",
					"Get_IpfsAddress()": "c524e7f6",
					"Get_IsValue()": "caa4fbbd",
					"Get_LabelIDs()": "e6ca2977",
					"Get_Name()": "481fd6b5",
					"Get_Owner()": "55c1c478",
					"Get_Predecessor_Count()": "d03678cb",
					"Get_Predecessors()": "7d2cb98d",
					"Get_Successor_Count()": "e87ccdda",
					"Get_Successors()": "28a3d83a",
					"Has_Candidate(address,uint8)": "101d4fb9",
					"Ids(uint8,uint256)": "de802761",
					"Set_CarbonFootPrint(uint256)": "04a3f393",
					"Set_IPFS(string)": "e5ab27e3",
					"Set_IsValue(bool)": "78fb654a",
					"Set_Name(string)": "9155e45b",
					"owner()": "8da5cb5b",
					"products(uint256)": "7acc0b20",
					"reverseRelation(uint8)": "ca9d2c6b",
					"userProducts(address,uint256)": "3d527883"
				}
			},
			"storageLayout": {
				"storage": [
					{
						"astId": 227,
						"contract": "contracts/Product.sol:Product",
						"label": "owner",
						"offset": 0,
						"slot": "0",
						"type": "t_address"
					},
					{
						"astId": 49,
						"contract": "contracts/Product.sol:Product",
						"label": "Owner",
						"offset": 0,
						"slot": "1",
						"type": "t_address"
					},
					{
						"astId": 54,
						"contract": "contracts/Product.sol:Product",
						"label": "Candidates",
						"offset": 0,
						"slot": "2",
						"type": "t_mapping(t_address,t_enum(relation)8)"
					},
					{
						"astId": 60,
						"contract": "contracts/Product.sol:Product",
						"label": "Ids",
						"offset": 0,
						"slot": "3",
						"type": "t_mapping(t_enum(relation)8,t_array(t_address)dyn_storage)"
					},
					{
						"astId": 268,
						"contract": "contracts/Product.sol:Product",
						"label": "IsValue",
						"offset": 0,
						"slot": "4",
						"type": "t_bool"
					},
					{
						"astId": 270,
						"contract": "contracts/Product.sol:Product",
						"label": "Name",
						"offset": 0,
						"slot": "5",
						"type": "t_string_storage"
					},
					{
						"astId": 272,
						"contract": "contracts/Product.sol:Product",
						"label": "Ipfs_Address",
						"offset": 0,
						"slot": "6",
						"type": "t_string_storage"
					},
					{
						"astId": 274,
						"contract": "contracts/Product.sol:Product",
						"label": "CarbonFootprint",
						"offset": 0,
						"slot": "7",
						"type": "t_uint256"
					},
					{
						"astId": 276,
						"contract": "contracts/Product.sol:Product",
						"label": "Swarm_storage_address",
						"offset": 0,
						"slot": "8",
						"type": "t_string_storage"
					},
					{
						"astId": 281,
						"contract": "contracts/Product.sol:Product",
						"label": "products",
						"offset": 0,
						"slot": "9",
						"type": "t_mapping(t_uint256,t_contract(Product)453)"
					},
					{
						"astId": 286,
						"contract": "contracts/Product.sol:Product",
						"label": "userProducts",
						"offset": 0,
						"slot": "10",
						"type": "t_mapping(t_address,t_array(t_uint256)dyn_storage)"
					}
				],
				"types": {
					"t_address": {
						"encoding": "inplace",
						"label": "address",
						"numberOfBytes": "20"
					},
					"t_array(t_address)dyn_storage": {
						"base": "t_address",
						"encoding": "dynamic_array",
						"label": "address[]",
						"numberOfBytes": "32"
					},
					"t_array(t_uint256)dyn_storage": {
						"base": "t_uint256",
						"encoding": "dynamic_array",
						"label": "uint256[]",
						"numberOfBytes": "32"
					},
					"t_bool": {
						"encoding": "inplace",
						"label": "bool",
						"numberOfBytes": "1"
					},
					"t_contract(Product)453": {
						"encoding": "inplace",
						"label": "contract Product",
						"numberOfBytes": "20"
					},
					"t_enum(relation)8": {
						"encoding": "inplace",
						"label": "enum relation",
						"numberOfBytes": "1"
					},
					"t_mapping(t_address,t_array(t_uint256)dyn_storage)": {
						"encoding": "mapping",
						"key": "t_address",
						"label": "mapping(address => uint256[])",
						"numberOfBytes": "32",
						"value": "t_array(t_uint256)dyn_storage"
					},
					"t_mapping(t_address,t_enum(relation)8)": {
						"encoding": "mapping",
						"key": "t_address",
						"label": "mapping(address => enum relation)",
						"numberOfBytes": "32",
						"value": "t_enum(relation)8"
					},
					"t_mapping(t_enum(relation)8,t_array(t_address)dyn_storage)": {
						"encoding": "mapping",
						"key": "t_enum(relation)8",
						"label": "mapping(enum relation => address[])",
						"numberOfBytes": "32",
						"value": "t_array(t_address)dyn_storage"
					},
					"t_mapping(t_uint256,t_contract(Product)453)": {
						"encoding": "mapping",
						"key": "t_uint256",
						"label": "mapping(uint256 => contract Product)",
						"numberOfBytes": "32",
						"value": "t_contract(Product)453"
					},
					"t_string_storage": {
						"encoding": "bytes",
						"label": "string",
						"numberOfBytes": "32"
					},
					"t_uint256": {
						"encoding": "inplace",
						"label": "uint256",
						"numberOfBytes": "32"
					}
				}
			},
			"userdoc": {
				"kind": "user",
				"methods": {},
				"version": 1
			}
		}
	}
}