{
	"contracts/Product.sol": {
		"Product": {
			"abi": [
				{
					"inputs": [
						{
							"internalType": "address",
							"name": "newOwner",
							"type": "address"
						}
					],
					"name": "ChangeOwnership",
					"outputs": [],
					"stateMutability": "nonpayable",
					"type": "function"
				},
				{
					"inputs": [
						{
							"internalType": "uint256",
							"name": "new_CarbonFootprint",
							"type": "uint256"
						}
					],
					"name": "Set_CarbonFootPrint",
					"outputs": [],
					"stateMutability": "nonpayable",
					"type": "function"
				},
				{
					"inputs": [
						{
							"internalType": "bool",
							"name": "value",
							"type": "bool"
						}
					],
					"name": "Set_IsValue",
					"outputs": [],
					"stateMutability": "nonpayable",
					"type": "function"
				},
				{
					"inputs": [
						{
							"internalType": "address[]",
							"name": "new_LabelIds",
							"type": "address[]"
						}
					],
					"name": "Set_LabelIds",
					"outputs": [],
					"stateMutability": "nonpayable",
					"type": "function"
				},
				{
					"inputs": [
						{
							"internalType": "string",
							"name": "new_name",
							"type": "string"
						}
					],
					"name": "Set_Name",
					"outputs": [],
					"stateMutability": "nonpayable",
					"type": "function"
				},
				{
					"inputs": [
						{
							"internalType": "address[]",
							"name": "new_predecessorIds",
							"type": "address[]"
						}
					],
					"name": "Set_PredecessorIds",
					"outputs": [],
					"stateMutability": "nonpayable",
					"type": "function"
				},
				{
					"inputs": [
						{
							"internalType": "address[]",
							"name": "new_successorIds",
							"type": "address[]"
						}
					],
					"name": "Set_SuccessorIds",
					"outputs": [],
					"stateMutability": "nonpayable",
					"type": "function"
				},
				{
					"inputs": [],
					"name": "carbonFootprint",
					"outputs": [
						{
							"internalType": "uint256",
							"name": "",
							"type": "uint256"
						}
					],
					"stateMutability": "view",
					"type": "function"
				},
				{
					"inputs": [],
					"name": "isValue",
					"outputs": [
						{
							"internalType": "bool",
							"name": "",
							"type": "bool"
						}
					],
					"stateMutability": "view",
					"type": "function"
				},
				{
					"inputs": [
						{
							"internalType": "uint256",
							"name": "",
							"type": "uint256"
						}
					],
					"name": "labelIds",
					"outputs": [
						{
							"internalType": "address",
							"name": "",
							"type": "address"
						}
					],
					"stateMutability": "view",
					"type": "function"
				},
				{
					"inputs": [],
					"name": "name",
					"outputs": [
						{
							"internalType": "string",
							"name": "",
							"type": "string"
						}
					],
					"stateMutability": "view",
					"type": "function"
				},
				{
					"inputs": [],
					"name": "owner",
					"outputs": [
						{
							"internalType": "address",
							"name": "",
							"type": "address"
						}
					],
					"stateMutability": "view",
					"type": "function"
				},
				{
					"inputs": [
						{
							"internalType": "address",
							"name": "",
							"type": "address"
						}
					],
					"name": "predecessorIdIsHandshakeCandidate",
					"outputs": [
						{
							"internalType": "bool",
							"name": "",
							"type": "bool"
						}
					],
					"stateMutability": "view",
					"type": "function"
				},
				{
					"inputs": [
						{
							"internalType": "uint256",
							"name": "",
							"type": "uint256"
						}
					],
					"name": "predecessorIdToArrayIndex",
					"outputs": [
						{
							"internalType": "uint256",
							"name": "",
							"type": "uint256"
						}
					],
					"stateMutability": "view",
					"type": "function"
				},
				{
					"inputs": [
						{
							"internalType": "uint256",
							"name": "",
							"type": "uint256"
						}
					],
					"name": "predecessorIds",
					"outputs": [
						{
							"internalType": "address",
							"name": "",
							"type": "address"
						}
					],
					"stateMutability": "view",
					"type": "function"
				},
				{
					"inputs": [
						{
							"internalType": "address",
							"name": "",
							"type": "address"
						}
					],
					"name": "successorIdIsHandshakeCandidate",
					"outputs": [
						{
							"internalType": "bool",
							"name": "",
							"type": "bool"
						}
					],
					"stateMutability": "view",
					"type": "function"
				},
				{
					"inputs": [
						{
							"internalType": "uint256",
							"name": "",
							"type": "uint256"
						}
					],
					"name": "successorIdToArrayIndex",
					"outputs": [
						{
							"internalType": "uint256",
							"name": "",
							"type": "uint256"
						}
					],
					"stateMutability": "view",
					"type": "function"
				},
				{
					"inputs": [
						{
							"internalType": "uint256",
							"name": "",
							"type": "uint256"
						}
					],
					"name": "successorIds",
					"outputs": [
						{
							"internalType": "address",
							"name": "",
							"type": "address"
						}
					],
					"stateMutability": "view",
					"type": "function"
				},
				{
					"inputs": [],
					"name": "swarm_storage_address",
					"outputs": [
						{
							"internalType": "string",
							"name": "",
							"type": "string"
						}
					],
					"stateMutability": "view",
					"type": "function"
				}
			],
			"devdoc": {
				"kind": "dev",
				"methods": {},
				"version": 1
			},
			"evm": {
				"assembly": "    /* \"contracts/Product.sol\":87:1399  contract Product is Ownable{... */\n  mstore(0x40, 0x80)\n  callvalue\n  dup1\n  iszero\n  tag_1\n  jumpi\n  0x00\n  dup1\n  revert\ntag_1:\n  pop\n    /* \"contracts/Ownable.sol\":113:123  msg.sender */\n  caller\n    /* \"contracts/Ownable.sol\":105:110  owner */\n  0x00\n  dup1\n    /* \"contracts/Ownable.sol\":105:123  owner = msg.sender */\n  0x0100\n  exp\n  dup2\n  sload\n  dup2\n  0xffffffffffffffffffffffffffffffffffffffff\n  mul\n  not\n  and\n  swap1\n  dup4\n  0xffffffffffffffffffffffffffffffffffffffff\n  and\n  mul\n  or\n  swap1\n  sstore\n  pop\n    /* \"contracts/Product.sol\":87:1399  contract Product is Ownable{... */\n  dataSize(sub_0)\n  dup1\n  dataOffset(sub_0)\n  0x00\n  codecopy\n  0x00\n  return\nstop\n\nsub_0: assembly {\n        /* \"contracts/Product.sol\":87:1399  contract Product is Ownable{... */\n      mstore(0x40, 0x80)\n      callvalue\n      dup1\n      iszero\n      tag_1\n      jumpi\n      0x00\n      dup1\n      revert\n    tag_1:\n      pop\n      jumpi(tag_2, lt(calldatasize, 0x04))\n      shr(0xe0, calldataload(0x00))\n      dup1\n      0x8da5cb5b\n      gt\n      tag_22\n      jumpi\n      dup1\n      0xc1f4f855\n      gt\n      tag_23\n      jumpi\n      dup1\n      0xc1f4f855\n      eq\n      tag_17\n      jumpi\n      dup1\n      0xc28388fa\n      eq\n      tag_18\n      jumpi\n      dup1\n      0xd7a1ab3c\n      eq\n      tag_19\n      jumpi\n      dup1\n      0xe6e210ba\n      eq\n      tag_20\n      jumpi\n      dup1\n      0xf2940a43\n      eq\n      tag_21\n      jumpi\n      jump(tag_2)\n    tag_23:\n      dup1\n      0x8da5cb5b\n      eq\n      tag_12\n      jumpi\n      dup1\n      0x9155e45b\n      eq\n      tag_13\n      jumpi\n      dup1\n      0x9f285f06\n      eq\n      tag_14\n      jumpi\n      dup1\n      0x9f79e280\n      eq\n      tag_15\n      jumpi\n      dup1\n      0xa022be05\n      eq\n      tag_16\n      jumpi\n      jump(tag_2)\n    tag_22:\n      dup1\n      0x244ded7a\n      gt\n      tag_24\n      jumpi\n      dup1\n      0x244ded7a\n      eq\n      tag_7\n      jumpi\n      dup1\n      0x27757d40\n      eq\n      tag_8\n      jumpi\n      dup1\n      0x2b6952e6\n      eq\n      tag_9\n      jumpi\n      dup1\n      0x5789726a\n      eq\n      tag_10\n      jumpi\n      dup1\n      0x78fb654a\n      eq\n      tag_11\n      jumpi\n      jump(tag_2)\n    tag_24:\n      dup1\n      0x04a3f393\n      eq\n      tag_3\n      jumpi\n      dup1\n      0x06079551\n      eq\n      tag_4\n      jumpi\n      dup1\n      0x06fdde03\n      eq\n      tag_5\n      jumpi\n      dup1\n      0x0b940f6a\n      eq\n      tag_6\n      jumpi\n    tag_2:\n      0x00\n      dup1\n      revert\n        /* \"contracts/Product.sol\":1144:1271  function Set_CarbonFootPrint(uint new_CarbonFootprint) public onlyOwner{... */\n    tag_3:\n      tag_25\n      0x04\n      dup1\n      calldatasize\n      sub\n      dup2\n      add\n      swap1\n      tag_26\n      swap2\n      swap1\n      tag_27\n      jump\t// in\n    tag_26:\n      tag_28\n      jump\t// in\n    tag_25:\n      stop\n        /* \"contracts/Product.sol\":383:437  mapping(uint => uint) public predecessorIdToArrayIndex */\n    tag_4:\n      tag_29\n      0x04\n      dup1\n      calldatasize\n      sub\n      dup2\n      add\n      swap1\n      tag_30\n      swap2\n      swap1\n      tag_27\n      jump\t// in\n    tag_30:\n      tag_31\n      jump\t// in\n    tag_29:\n      mload(0x40)\n      tag_32\n      swap2\n      swap1\n      tag_33\n      jump\t// in\n    tag_32:\n      mload(0x40)\n      dup1\n      swap2\n      sub\n      swap1\n      return\n        /* \"contracts/Product.sol\":153:171  string public name */\n    tag_5:\n      tag_34\n      tag_35\n      jump\t// in\n    tag_34:\n      mload(0x40)\n      tag_36\n      swap2\n      swap1\n      tag_37\n      jump\t// in\n    tag_36:\n      mload(0x40)\n      dup1\n      swap2\n      sub\n      swap1\n      return\n        /* \"contracts/Product.sol\":593:628  string public swarm_storage_address */\n    tag_6:\n      tag_38\n      tag_39\n      jump\t// in\n    tag_38:\n      mload(0x40)\n      tag_40\n      swap2\n      swap1\n      tag_37\n      jump\t// in\n    tag_40:\n      mload(0x40)\n      dup1\n      swap2\n      sub\n      swap1\n      return\n        /* \"contracts/Ownable.sol\":249:344  function ChangeOwnership(address newOwner) public  onlyOwner{... */\n    tag_7:\n      tag_41\n      0x04\n      dup1\n      calldatasize\n      sub\n      dup2\n      add\n      swap1\n      tag_42\n      swap2\n      swap1\n      tag_43\n      jump\t// in\n    tag_42:\n      tag_44\n      jump\t// in\n    tag_41:\n      stop\n        /* \"contracts/Product.sol\":446:475  address[] public successorIds */\n    tag_8:\n      tag_45\n      0x04\n      dup1\n      calldatasize\n      sub\n      dup2\n      add\n      swap1\n      tag_46\n      swap2\n      swap1\n      tag_27\n      jump\t// in\n    tag_46:\n      tag_47\n      jump\t// in\n    tag_45:\n      mload(0x40)\n      tag_48\n      swap2\n      swap1\n      tag_49\n      jump\t// in\n    tag_48:\n      mload(0x40)\n      dup1\n      swap2\n      sub\n      swap1\n      return\n        /* \"contracts/Product.sol\":523:548  address[] public labelIds */\n    tag_9:\n      tag_50\n      0x04\n      dup1\n      calldatasize\n      sub\n      dup2\n      add\n      swap1\n      tag_51\n      swap2\n      swap1\n      tag_27\n      jump\t// in\n    tag_51:\n      tag_52\n      jump\t// in\n    tag_50:\n      mload(0x40)\n      tag_53\n      swap2\n      swap1\n      tag_49\n      jump\t// in\n    tag_53:\n      mload(0x40)\n      dup1\n      swap2\n      sub\n      swap1\n      return\n        /* \"contracts/Product.sol\":1019:1136  function Set_LabelIds(address[] calldata new_LabelIds) public onlyOwner{... */\n    tag_10:\n      tag_54\n      0x04\n      dup1\n      calldatasize\n      sub\n      dup2\n      add\n      swap1\n      tag_55\n      swap2\n      swap1\n      tag_56\n      jump\t// in\n    tag_55:\n      tag_57\n      jump\t// in\n    tag_54:\n      stop\n        /* \"contracts/Product.sol\":1279:1362  function Set_IsValue(bool value) public onlyOwner{... */\n    tag_11:\n      tag_58\n      0x04\n      dup1\n      calldatasize\n      sub\n      dup2\n      add\n      swap1\n      tag_59\n      swap2\n      swap1\n      tag_60\n      jump\t// in\n    tag_59:\n      tag_61\n      jump\t// in\n    tag_58:\n      stop\n        /* \"contracts/Ownable.sol\":51:71  address public owner */\n    tag_12:\n      tag_62\n      tag_63\n      jump\t// in\n    tag_62:\n      mload(0x40)\n      tag_64\n      swap2\n      swap1\n      tag_49\n      jump\t// in\n    tag_64:\n      mload(0x40)\n      dup1\n      swap2\n      sub\n      swap1\n      return\n        /* \"contracts/Product.sol\":637:731  function Set_Name(string calldata new_name) public onlyOwner{... */\n    tag_13:\n      tag_65\n      0x04\n      dup1\n      calldatasize\n      sub\n      dup2\n      add\n      swap1\n      tag_66\n      swap2\n      swap1\n      tag_67\n      jump\t// in\n    tag_66:\n      tag_68\n      jump\t// in\n    tag_65:\n      stop\n        /* \"contracts/Product.sol\":250:315  mapping(address => bool) public predecessorIdIsHandshakeCandidate */\n    tag_14:\n      tag_69\n      0x04\n      dup1\n      calldatasize\n      sub\n      dup2\n      add\n      swap1\n      tag_70\n      swap2\n      swap1\n      tag_43\n      jump\t// in\n    tag_70:\n      tag_71\n      jump\t// in\n    tag_69:\n      mload(0x40)\n      tag_72\n      swap2\n      swap1\n      tag_73\n      jump\t// in\n    tag_72:\n      mload(0x40)\n      dup1\n      swap2\n      sub\n      swap1\n      return\n        /* \"contracts/Product.sol\":324:376  mapping(uint => uint) public successorIdToArrayIndex */\n    tag_15:\n      tag_74\n      0x04\n      dup1\n      calldatasize\n      sub\n      dup2\n      add\n      swap1\n      tag_75\n      swap2\n      swap1\n      tag_27\n      jump\t// in\n    tag_75:\n      tag_76\n      jump\t// in\n    tag_74:\n      mload(0x40)\n      tag_77\n      swap2\n      swap1\n      tag_33\n      jump\t// in\n    tag_77:\n      mload(0x40)\n      dup1\n      swap2\n      sub\n      swap1\n      return\n        /* \"contracts/Product.sol\":739:868  function Set_SuccessorIds(address[] calldata new_successorIds) public onlyOwner{... */\n    tag_16:\n      tag_78\n      0x04\n      dup1\n      calldatasize\n      sub\n      dup2\n      add\n      swap1\n      tag_79\n      swap2\n      swap1\n      tag_56\n      jump\t// in\n    tag_79:\n      tag_80\n      jump\t// in\n    tag_78:\n      stop\n        /* \"contracts/Product.sol\":483:514  address[] public predecessorIds */\n    tag_17:\n      tag_81\n      0x04\n      dup1\n      calldatasize\n      sub\n      dup2\n      add\n      swap1\n      tag_82\n      swap2\n      swap1\n      tag_27\n      jump\t// in\n    tag_82:\n      tag_83\n      jump\t// in\n    tag_81:\n      mload(0x40)\n      tag_84\n      swap2\n      swap1\n      tag_49\n      jump\t// in\n    tag_84:\n      mload(0x40)\n      dup1\n      swap2\n      sub\n      swap1\n      return\n        /* \"contracts/Product.sol\":876:1011  function Set_PredecessorIds(address[] calldata new_predecessorIds) public onlyOwner{... */\n    tag_18:\n      tag_85\n      0x04\n      dup1\n      calldatasize\n      sub\n      dup2\n      add\n      swap1\n      tag_86\n      swap2\n      swap1\n      tag_56\n      jump\t// in\n    tag_86:\n      tag_87\n      jump\t// in\n    tag_85:\n      stop\n        /* \"contracts/Product.sol\":557:584  uint public carbonFootprint */\n    tag_19:\n      tag_88\n      tag_89\n      jump\t// in\n    tag_88:\n      mload(0x40)\n      tag_90\n      swap2\n      swap1\n      tag_33\n      jump\t// in\n    tag_90:\n      mload(0x40)\n      dup1\n      swap2\n      sub\n      swap1\n      return\n        /* \"contracts/Product.sol\":180:243  mapping(address => bool) public successorIdIsHandshakeCandidate */\n    tag_20:\n      tag_91\n      0x04\n      dup1\n      calldatasize\n      sub\n      dup2\n      add\n      swap1\n      tag_92\n      swap2\n      swap1\n      tag_43\n      jump\t// in\n    tag_92:\n      tag_93\n      jump\t// in\n    tag_91:\n      mload(0x40)\n      tag_94\n      swap2\n      swap1\n      tag_73\n      jump\t// in\n    tag_94:\n      mload(0x40)\n      dup1\n      swap2\n      sub\n      swap1\n      return\n        /* \"contracts/Product.sol\":127:146  bool public isValue */\n    tag_21:\n      tag_95\n      tag_96\n      jump\t// in\n    tag_95:\n      mload(0x40)\n      tag_97\n      swap2\n      swap1\n      tag_73\n      jump\t// in\n    tag_97:\n      mload(0x40)\n      dup1\n      swap2\n      sub\n      swap1\n      return\n        /* \"contracts/Product.sol\":1144:1271  function Set_CarbonFootPrint(uint new_CarbonFootprint) public onlyOwner{... */\n    tag_28:\n        /* \"contracts/Ownable.sol\":191:196  owner */\n      0x00\n      dup1\n      sload\n      swap1\n      0x0100\n      exp\n      swap1\n      div\n      0xffffffffffffffffffffffffffffffffffffffff\n      and\n        /* \"contracts/Ownable.sol\":177:196  msg.sender == owner */\n      0xffffffffffffffffffffffffffffffffffffffff\n      and\n        /* \"contracts/Ownable.sol\":177:187  msg.sender */\n      caller\n        /* \"contracts/Ownable.sol\":177:196  msg.sender == owner */\n      0xffffffffffffffffffffffffffffffffffffffff\n      and\n      eq\n        /* \"contracts/Ownable.sol\":169:221  require(msg.sender == owner, 'caller must be owner') */\n      tag_99\n      jumpi\n      mload(0x40)\n      0x08c379a000000000000000000000000000000000000000000000000000000000\n      dup2\n      mstore\n      0x04\n      add\n      tag_100\n      swap1\n      tag_101\n      jump\t// in\n    tag_100:\n      mload(0x40)\n      dup1\n      swap2\n      sub\n      swap1\n      revert\n    tag_99:\n        /* \"contracts/Product.sol\":1244:1263  new_CarbonFootprint */\n      dup1\n        /* \"contracts/Product.sol\":1226:1241  carbonFootprint */\n      0x09\n        /* \"contracts/Product.sol\":1226:1263  carbonFootprint = new_CarbonFootprint */\n      dup2\n      swap1\n      sstore\n      pop\n        /* \"contracts/Product.sol\":1144:1271  function Set_CarbonFootPrint(uint new_CarbonFootprint) public onlyOwner{... */\n      pop\n      jump\t// out\n        /* \"contracts/Product.sol\":383:437  mapping(uint => uint) public predecessorIdToArrayIndex */\n    tag_31:\n      mstore(0x20, 0x05)\n      dup1\n      0x00\n      mstore\n      keccak256(0x00, 0x40)\n      0x00\n      swap2\n      pop\n      swap1\n      pop\n      sload\n      dup2\n      jump\t// out\n        /* \"contracts/Product.sol\":153:171  string public name */\n    tag_35:\n      0x01\n      dup1\n      sload\n      tag_103\n      swap1\n      tag_104\n      jump\t// in\n    tag_103:\n      dup1\n      0x1f\n      add\n      0x20\n      dup1\n      swap2\n      div\n      mul\n      0x20\n      add\n      mload(0x40)\n      swap1\n      dup2\n      add\n      0x40\n      mstore\n      dup1\n      swap3\n      swap2\n      swap1\n      dup2\n      dup2\n      mstore\n      0x20\n      add\n      dup3\n      dup1\n      sload\n      tag_105\n      swap1\n      tag_104\n      jump\t// in\n    tag_105:\n      dup1\n      iszero\n      tag_106\n      jumpi\n      dup1\n      0x1f\n      lt\n      tag_107\n      jumpi\n      0x0100\n      dup1\n      dup4\n      sload\n      div\n      mul\n      dup4\n      mstore\n      swap2\n      0x20\n      add\n      swap2\n      jump(tag_106)\n    tag_107:\n      dup3\n      add\n      swap2\n      swap1\n      0x00\n      mstore\n      keccak256(0x00, 0x20)\n      swap1\n    tag_108:\n      dup2\n      sload\n      dup2\n      mstore\n      swap1\n      0x01\n      add\n      swap1\n      0x20\n      add\n      dup1\n      dup4\n      gt\n      tag_108\n      jumpi\n      dup3\n      swap1\n      sub\n      0x1f\n      and\n      dup3\n      add\n      swap2\n    tag_106:\n      pop\n      pop\n      pop\n      pop\n      pop\n      dup2\n      jump\t// out\n        /* \"contracts/Product.sol\":593:628  string public swarm_storage_address */\n    tag_39:\n      0x0a\n      dup1\n      sload\n      tag_109\n      swap1\n      tag_104\n      jump\t// in\n    tag_109:\n      dup1\n      0x1f\n      add\n      0x20\n      dup1\n      swap2\n      div\n      mul\n      0x20\n      add\n      mload(0x40)\n      swap1\n      dup2\n      add\n      0x40\n      mstore\n      dup1\n      swap3\n      swap2\n      swap1\n      dup2\n      dup2\n      mstore\n      0x20\n      add\n      dup3\n      dup1\n      sload\n      tag_110\n      swap1\n      tag_104\n      jump\t// in\n    tag_110:\n      dup1\n      iszero\n      tag_111\n      jumpi\n      dup1\n      0x1f\n      lt\n      tag_112\n      jumpi\n      0x0100\n      dup1\n      dup4\n      sload\n      div\n      mul\n      dup4\n      mstore\n      swap2\n      0x20\n      add\n      swap2\n      jump(tag_111)\n    tag_112:\n      dup3\n      add\n      swap2\n      swap1\n      0x00\n      mstore\n      keccak256(0x00, 0x20)\n      swap1\n    tag_113:\n      dup2\n      sload\n      dup2\n      mstore\n      swap1\n      0x01\n      add\n      swap1\n      0x20\n      add\n      dup1\n      dup4\n      gt\n      tag_113\n      jumpi\n      dup3\n      swap1\n      sub\n      0x1f\n      and\n      dup3\n      add\n      swap2\n    tag_111:\n      pop\n      pop\n      pop\n      pop\n      pop\n      dup2\n      jump\t// out\n        /* \"contracts/Ownable.sol\":249:344  function ChangeOwnership(address newOwner) public  onlyOwner{... */\n    tag_44:\n        /* \"contracts/Ownable.sol\":191:196  owner */\n      0x00\n      dup1\n      sload\n      swap1\n      0x0100\n      exp\n      swap1\n      div\n      0xffffffffffffffffffffffffffffffffffffffff\n      and\n        /* \"contracts/Ownable.sol\":177:196  msg.sender == owner */\n      0xffffffffffffffffffffffffffffffffffffffff\n      and\n        /* \"contracts/Ownable.sol\":177:187  msg.sender */\n      caller\n        /* \"contracts/Ownable.sol\":177:196  msg.sender == owner */\n      0xffffffffffffffffffffffffffffffffffffffff\n      and\n      eq\n        /* \"contracts/Ownable.sol\":169:221  require(msg.sender == owner, 'caller must be owner') */\n      tag_115\n      jumpi\n      mload(0x40)\n      0x08c379a000000000000000000000000000000000000000000000000000000000\n      dup2\n      mstore\n      0x04\n      add\n      tag_116\n      swap1\n      tag_101\n      jump\t// in\n    tag_116:\n      mload(0x40)\n      dup1\n      swap2\n      sub\n      swap1\n      revert\n    tag_115:\n        /* \"contracts/Ownable.sol\":328:336  newOwner */\n      dup1\n        /* \"contracts/Ownable.sol\":320:325  owner */\n      0x00\n      dup1\n        /* \"contracts/Ownable.sol\":320:336  owner = newOwner */\n      0x0100\n      exp\n      dup2\n      sload\n      dup2\n      0xffffffffffffffffffffffffffffffffffffffff\n      mul\n      not\n      and\n      swap1\n      dup4\n      0xffffffffffffffffffffffffffffffffffffffff\n      and\n      mul\n      or\n      swap1\n      sstore\n      pop\n        /* \"contracts/Ownable.sol\":249:344  function ChangeOwnership(address newOwner) public  onlyOwner{... */\n      pop\n      jump\t// out\n        /* \"contracts/Product.sol\":446:475  address[] public successorIds */\n    tag_47:\n      0x06\n      dup2\n      dup2\n      sload\n      dup2\n      lt\n      tag_118\n      jumpi\n      0x00\n      dup1\n      revert\n    tag_118:\n      swap1\n      0x00\n      mstore\n      keccak256(0x00, 0x20)\n      add\n      0x00\n      swap2\n      pop\n      sload\n      swap1\n      0x0100\n      exp\n      swap1\n      div\n      0xffffffffffffffffffffffffffffffffffffffff\n      and\n      dup2\n      jump\t// out\n        /* \"contracts/Product.sol\":523:548  address[] public labelIds */\n    tag_52:\n      0x08\n      dup2\n      dup2\n      sload\n      dup2\n      lt\n      tag_120\n      jumpi\n      0x00\n      dup1\n      revert\n    tag_120:\n      swap1\n      0x00\n      mstore\n      keccak256(0x00, 0x20)\n      add\n      0x00\n      swap2\n      pop\n      sload\n      swap1\n      0x0100\n      exp\n      swap1\n      div\n      0xffffffffffffffffffffffffffffffffffffffff\n      and\n      dup2\n      jump\t// out\n        /* \"contracts/Product.sol\":1019:1136  function Set_LabelIds(address[] calldata new_LabelIds) public onlyOwner{... */\n    tag_57:\n        /* \"contracts/Ownable.sol\":191:196  owner */\n      0x00\n      dup1\n      sload\n      swap1\n      0x0100\n      exp\n      swap1\n      div\n      0xffffffffffffffffffffffffffffffffffffffff\n      and\n        /* \"contracts/Ownable.sol\":177:196  msg.sender == owner */\n      0xffffffffffffffffffffffffffffffffffffffff\n      and\n        /* \"contracts/Ownable.sol\":177:187  msg.sender */\n      caller\n        /* \"contracts/Ownable.sol\":177:196  msg.sender == owner */\n      0xffffffffffffffffffffffffffffffffffffffff\n      and\n      eq\n        /* \"contracts/Ownable.sol\":169:221  require(msg.sender == owner, 'caller must be owner') */\n      tag_123\n      jumpi\n      mload(0x40)\n      0x08c379a000000000000000000000000000000000000000000000000000000000\n      dup2\n      mstore\n      0x04\n      add\n      tag_124\n      swap1\n      tag_101\n      jump\t// in\n    tag_124:\n      mload(0x40)\n      dup1\n      swap2\n      sub\n      swap1\n      revert\n    tag_123:\n        /* \"contracts/Product.sol\":1116:1128  new_LabelIds */\n      dup2\n      dup2\n        /* \"contracts/Product.sol\":1101:1113  successorIds */\n      0x06\n        /* \"contracts/Product.sol\":1101:1128  successorIds = new_LabelIds */\n      swap2\n      swap1\n      tag_126\n      swap3\n      swap2\n      swap1\n      tag_127\n      jump\t// in\n    tag_126:\n      pop\n        /* \"contracts/Product.sol\":1019:1136  function Set_LabelIds(address[] calldata new_LabelIds) public onlyOwner{... */\n      pop\n      pop\n      jump\t// out\n        /* \"contracts/Product.sol\":1279:1362  function Set_IsValue(bool value) public onlyOwner{... */\n    tag_61:\n        /* \"contracts/Ownable.sol\":191:196  owner */\n      0x00\n      dup1\n      sload\n      swap1\n      0x0100\n      exp\n      swap1\n      div\n      0xffffffffffffffffffffffffffffffffffffffff\n      and\n        /* \"contracts/Ownable.sol\":177:196  msg.sender == owner */\n      0xffffffffffffffffffffffffffffffffffffffff\n      and\n        /* \"contracts/Ownable.sol\":177:187  msg.sender */\n      caller\n        /* \"contracts/Ownable.sol\":177:196  msg.sender == owner */\n      0xffffffffffffffffffffffffffffffffffffffff\n      and\n      eq\n        /* \"contracts/Ownable.sol\":169:221  require(msg.sender == owner, 'caller must be owner') */\n      tag_129\n      jumpi\n      mload(0x40)\n      0x08c379a000000000000000000000000000000000000000000000000000000000\n      dup2\n      mstore\n      0x04\n      add\n      tag_130\n      swap1\n      tag_101\n      jump\t// in\n    tag_130:\n      mload(0x40)\n      dup1\n      swap2\n      sub\n      swap1\n      revert\n    tag_129:\n        /* \"contracts/Product.sol\":1349:1354  value */\n      dup1\n        /* \"contracts/Product.sol\":1339:1346  isValue */\n      0x00\n      0x14\n        /* \"contracts/Product.sol\":1339:1354  isValue = value */\n      0x0100\n      exp\n      dup2\n      sload\n      dup2\n      0xff\n      mul\n      not\n      and\n      swap1\n      dup4\n      iszero\n      iszero\n      mul\n      or\n      swap1\n      sstore\n      pop\n        /* \"contracts/Product.sol\":1279:1362  function Set_IsValue(bool value) public onlyOwner{... */\n      pop\n      jump\t// out\n        /* \"contracts/Ownable.sol\":51:71  address public owner */\n    tag_63:\n      0x00\n      dup1\n      sload\n      swap1\n      0x0100\n      exp\n      swap1\n      div\n      0xffffffffffffffffffffffffffffffffffffffff\n      and\n      dup2\n      jump\t// out\n        /* \"contracts/Product.sol\":637:731  function Set_Name(string calldata new_name) public onlyOwner{... */\n    tag_68:\n        /* \"contracts/Ownable.sol\":191:196  owner */\n      0x00\n      dup1\n      sload\n      swap1\n      0x0100\n      exp\n      swap1\n      div\n      0xffffffffffffffffffffffffffffffffffffffff\n      and\n        /* \"contracts/Ownable.sol\":177:196  msg.sender == owner */\n      0xffffffffffffffffffffffffffffffffffffffff\n      and\n        /* \"contracts/Ownable.sol\":177:187  msg.sender */\n      caller\n        /* \"contracts/Ownable.sol\":177:196  msg.sender == owner */\n      0xffffffffffffffffffffffffffffffffffffffff\n      and\n      eq\n        /* \"contracts/Ownable.sol\":169:221  require(msg.sender == owner, 'caller must be owner') */\n      tag_133\n      jumpi\n      mload(0x40)\n      0x08c379a000000000000000000000000000000000000000000000000000000000\n      dup2\n      mstore\n      0x04\n      add\n      tag_134\n      swap1\n      tag_101\n      jump\t// in\n    tag_134:\n      mload(0x40)\n      dup1\n      swap2\n      sub\n      swap1\n      revert\n    tag_133:\n        /* \"contracts/Product.sol\":715:723  new_name */\n      dup2\n      dup2\n        /* \"contracts/Product.sol\":708:712  name */\n      0x01\n        /* \"contracts/Product.sol\":708:723  name = new_name */\n      swap2\n      dup3\n      tag_136\n      swap3\n      swap2\n      swap1\n      tag_137\n      jump\t// in\n    tag_136:\n      pop\n        /* \"contracts/Product.sol\":637:731  function Set_Name(string calldata new_name) public onlyOwner{... */\n      pop\n      pop\n      jump\t// out\n        /* \"contracts/Product.sol\":250:315  mapping(address => bool) public predecessorIdIsHandshakeCandidate */\n    tag_71:\n      mstore(0x20, 0x03)\n      dup1\n      0x00\n      mstore\n      keccak256(0x00, 0x40)\n      0x00\n      swap2\n      pop\n      sload\n      swap1\n      0x0100\n      exp\n      swap1\n      div\n      0xff\n      and\n      dup2\n      jump\t// out\n        /* \"contracts/Product.sol\":324:376  mapping(uint => uint) public successorIdToArrayIndex */\n    tag_76:\n      mstore(0x20, 0x04)\n      dup1\n      0x00\n      mstore\n      keccak256(0x00, 0x40)\n      0x00\n      swap2\n      pop\n      swap1\n      pop\n      sload\n      dup2\n      jump\t// out\n        /* \"contracts/Product.sol\":739:868  function Set_SuccessorIds(address[] calldata new_successorIds) public onlyOwner{... */\n    tag_80:\n        /* \"contracts/Ownable.sol\":191:196  owner */\n      0x00\n      dup1\n      sload\n      swap1\n      0x0100\n      exp\n      swap1\n      div\n      0xffffffffffffffffffffffffffffffffffffffff\n      and\n        /* \"contracts/Ownable.sol\":177:196  msg.sender == owner */\n      0xffffffffffffffffffffffffffffffffffffffff\n      and\n        /* \"contracts/Ownable.sol\":177:187  msg.sender */\n      caller\n        /* \"contracts/Ownable.sol\":177:196  msg.sender == owner */\n      0xffffffffffffffffffffffffffffffffffffffff\n      and\n      eq\n        /* \"contracts/Ownable.sol\":169:221  require(msg.sender == owner, 'caller must be owner') */\n      tag_139\n      jumpi\n      mload(0x40)\n      0x08c379a000000000000000000000000000000000000000000000000000000000\n      dup2\n      mstore\n      0x04\n      add\n      tag_140\n      swap1\n      tag_101\n      jump\t// in\n    tag_140:\n      mload(0x40)\n      dup1\n      swap2\n      sub\n      swap1\n      revert\n    tag_139:\n        /* \"contracts/Product.sol\":844:860  new_successorIds */\n      dup2\n      dup2\n        /* \"contracts/Product.sol\":829:841  successorIds */\n      0x06\n        /* \"contracts/Product.sol\":829:860  successorIds = new_successorIds */\n      swap2\n      swap1\n      tag_142\n      swap3\n      swap2\n      swap1\n      tag_127\n      jump\t// in\n    tag_142:\n      pop\n        /* \"contracts/Product.sol\":739:868  function Set_SuccessorIds(address[] calldata new_successorIds) public onlyOwner{... */\n      pop\n      pop\n      jump\t// out\n        /* \"contracts/Product.sol\":483:514  address[] public predecessorIds */\n    tag_83:\n      0x07\n      dup2\n      dup2\n      sload\n      dup2\n      lt\n      tag_143\n      jumpi\n      0x00\n      dup1\n      revert\n    tag_143:\n      swap1\n      0x00\n      mstore\n      keccak256(0x00, 0x20)\n      add\n      0x00\n      swap2\n      pop\n      sload\n      swap1\n      0x0100\n      exp\n      swap1\n      div\n      0xffffffffffffffffffffffffffffffffffffffff\n      and\n      dup2\n      jump\t// out\n        /* \"contracts/Product.sol\":876:1011  function Set_PredecessorIds(address[] calldata new_predecessorIds) public onlyOwner{... */\n    tag_87:\n        /* \"contracts/Ownable.sol\":191:196  owner */\n      0x00\n      dup1\n      sload\n      swap1\n      0x0100\n      exp\n      swap1\n      div\n      0xffffffffffffffffffffffffffffffffffffffff\n      and\n        /* \"contracts/Ownable.sol\":177:196  msg.sender == owner */\n      0xffffffffffffffffffffffffffffffffffffffff\n      and\n        /* \"contracts/Ownable.sol\":177:187  msg.sender */\n      caller\n        /* \"contracts/Ownable.sol\":177:196  msg.sender == owner */\n      0xffffffffffffffffffffffffffffffffffffffff\n      and\n      eq\n        /* \"contracts/Ownable.sol\":169:221  require(msg.sender == owner, 'caller must be owner') */\n      tag_146\n      jumpi\n      mload(0x40)\n      0x08c379a000000000000000000000000000000000000000000000000000000000\n      dup2\n      mstore\n      0x04\n      add\n      tag_147\n      swap1\n      tag_101\n      jump\t// in\n    tag_147:\n      mload(0x40)\n      dup1\n      swap2\n      sub\n      swap1\n      revert\n    tag_146:\n        /* \"contracts/Product.sol\":985:1003  new_predecessorIds */\n      dup2\n      dup2\n        /* \"contracts/Product.sol\":970:982  successorIds */\n      0x06\n        /* \"contracts/Product.sol\":970:1003  successorIds = new_predecessorIds */\n      swap2\n      swap1\n      tag_149\n      swap3\n      swap2\n      swap1\n      tag_127\n      jump\t// in\n    tag_149:\n      pop\n        /* \"contracts/Product.sol\":876:1011  function Set_PredecessorIds(address[] calldata new_predecessorIds) public onlyOwner{... */\n      pop\n      pop\n      jump\t// out\n        /* \"contracts/Product.sol\":557:584  uint public carbonFootprint */\n    tag_89:\n      sload(0x09)\n      dup2\n      jump\t// out\n        /* \"contracts/Product.sol\":180:243  mapping(address => bool) public successorIdIsHandshakeCandidate */\n    tag_93:\n      mstore(0x20, 0x02)\n      dup1\n      0x00\n      mstore\n      keccak256(0x00, 0x40)\n      0x00\n      swap2\n      pop\n      sload\n      swap1\n      0x0100\n      exp\n      swap1\n      div\n      0xff\n      and\n      dup2\n      jump\t// out\n        /* \"contracts/Product.sol\":127:146  bool public isValue */\n    tag_96:\n      0x00\n      0x14\n      swap1\n      sload\n      swap1\n      0x0100\n      exp\n      swap1\n      div\n      0xff\n      and\n      dup2\n      jump\t// out\n    tag_127:\n      dup3\n      dup1\n      sload\n      dup3\n      dup3\n      sstore\n      swap1\n      0x00\n      mstore\n      keccak256(0x00, 0x20)\n      swap1\n      dup2\n      add\n      swap3\n      dup3\n      iszero\n      tag_150\n      jumpi\n      swap2\n      0x20\n      mul\n      dup3\n      add\n    tag_151:\n      dup3\n      dup2\n      gt\n      iszero\n      tag_152\n      jumpi\n      dup3\n      calldataload\n      0xffffffffffffffffffffffffffffffffffffffff\n      and\n      dup3\n      exp(0x0100, 0x00)\n      dup2\n      sload\n      dup2\n      0xffffffffffffffffffffffffffffffffffffffff\n      mul\n      not\n      and\n      swap1\n      dup4\n      0xffffffffffffffffffffffffffffffffffffffff\n      and\n      mul\n      or\n      swap1\n      sstore\n      pop\n      swap2\n      0x20\n      add\n      swap2\n      swap1\n      0x01\n      add\n      swap1\n      jump(tag_151)\n    tag_152:\n    tag_150:\n      pop\n      swap1\n      pop\n      tag_153\n      swap2\n      swap1\n      tag_154\n      jump\t// in\n    tag_153:\n      pop\n      swap1\n      jump\t// out\n    tag_154:\n    tag_155:\n      dup1\n      dup3\n      gt\n      iszero\n      tag_156\n      jumpi\n      0x00\n      dup2\n      0x00\n      swap1\n      sstore\n      pop\n      0x01\n      add\n      jump(tag_155)\n    tag_156:\n      pop\n      swap1\n      jump\t// out\n        /* \"#utility.yul\":88:205   */\n    tag_158:\n        /* \"#utility.yul\":197:198   */\n      0x00\n        /* \"#utility.yul\":194:195   */\n      dup1\n        /* \"#utility.yul\":187:199   */\n      revert\n        /* \"#utility.yul\":211:328   */\n    tag_159:\n        /* \"#utility.yul\":320:321   */\n      0x00\n        /* \"#utility.yul\":317:318   */\n      dup1\n        /* \"#utility.yul\":310:322   */\n      revert\n        /* \"#utility.yul\":334:411   */\n    tag_160:\n        /* \"#utility.yul\":371:378   */\n      0x00\n        /* \"#utility.yul\":400:405   */\n      dup2\n        /* \"#utility.yul\":389:405   */\n      swap1\n      pop\n        /* \"#utility.yul\":334:411   */\n      swap2\n      swap1\n      pop\n      jump\t// out\n        /* \"#utility.yul\":417:539   */\n    tag_161:\n        /* \"#utility.yul\":490:514   */\n      tag_209\n        /* \"#utility.yul\":508:513   */\n      dup2\n        /* \"#utility.yul\":490:514   */\n      tag_160\n      jump\t// in\n    tag_209:\n        /* \"#utility.yul\":483:488   */\n      dup2\n        /* \"#utility.yul\":480:515   */\n      eq\n        /* \"#utility.yul\":470:533   */\n      tag_210\n      jumpi\n        /* \"#utility.yul\":529:530   */\n      0x00\n        /* \"#utility.yul\":526:527   */\n      dup1\n        /* \"#utility.yul\":519:531   */\n      revert\n        /* \"#utility.yul\":470:533   */\n    tag_210:\n        /* \"#utility.yul\":417:539   */\n      pop\n      jump\t// out\n        /* \"#utility.yul\":545:684   */\n    tag_162:\n        /* \"#utility.yul\":591:596   */\n      0x00\n        /* \"#utility.yul\":629:635   */\n      dup2\n        /* \"#utility.yul\":616:636   */\n      calldataload\n        /* \"#utility.yul\":607:636   */\n      swap1\n      pop\n        /* \"#utility.yul\":645:678   */\n      tag_212\n        /* \"#utility.yul\":672:677   */\n      dup2\n        /* \"#utility.yul\":645:678   */\n      tag_161\n      jump\t// in\n    tag_212:\n        /* \"#utility.yul\":545:684   */\n      swap3\n      swap2\n      pop\n      pop\n      jump\t// out\n        /* \"#utility.yul\":690:1019   */\n    tag_27:\n        /* \"#utility.yul\":749:755   */\n      0x00\n        /* \"#utility.yul\":798:800   */\n      0x20\n        /* \"#utility.yul\":786:795   */\n      dup3\n        /* \"#utility.yul\":777:784   */\n      dup5\n        /* \"#utility.yul\":773:796   */\n      sub\n        /* \"#utility.yul\":769:801   */\n      slt\n        /* \"#utility.yul\":766:885   */\n      iszero\n      tag_214\n      jumpi\n        /* \"#utility.yul\":804:883   */\n      tag_215\n      tag_158\n      jump\t// in\n    tag_215:\n        /* \"#utility.yul\":766:885   */\n    tag_214:\n        /* \"#utility.yul\":924:925   */\n      0x00\n        /* \"#utility.yul\":949:1002   */\n      tag_216\n        /* \"#utility.yul\":994:1001   */\n      dup5\n        /* \"#utility.yul\":985:991   */\n      dup3\n        /* \"#utility.yul\":974:983   */\n      dup6\n        /* \"#utility.yul\":970:992   */\n      add\n        /* \"#utility.yul\":949:1002   */\n      tag_162\n      jump\t// in\n    tag_216:\n        /* \"#utility.yul\":939:1002   */\n      swap2\n      pop\n        /* \"#utility.yul\":895:1012   */\n      pop\n        /* \"#utility.yul\":690:1019   */\n      swap3\n      swap2\n      pop\n      pop\n      jump\t// out\n        /* \"#utility.yul\":1025:1143   */\n    tag_163:\n        /* \"#utility.yul\":1112:1136   */\n      tag_218\n        /* \"#utility.yul\":1130:1135   */\n      dup2\n        /* \"#utility.yul\":1112:1136   */\n      tag_160\n      jump\t// in\n    tag_218:\n        /* \"#utility.yul\":1107:1110   */\n      dup3\n        /* \"#utility.yul\":1100:1137   */\n      mstore\n        /* \"#utility.yul\":1025:1143   */\n      pop\n      pop\n      jump\t// out\n        /* \"#utility.yul\":1149:1371   */\n    tag_33:\n        /* \"#utility.yul\":1242:1246   */\n      0x00\n        /* \"#utility.yul\":1280:1282   */\n      0x20\n        /* \"#utility.yul\":1269:1278   */\n      dup3\n        /* \"#utility.yul\":1265:1283   */\n      add\n        /* \"#utility.yul\":1257:1283   */\n      swap1\n      pop\n        /* \"#utility.yul\":1293:1364   */\n      tag_220\n        /* \"#utility.yul\":1361:1362   */\n      0x00\n        /* \"#utility.yul\":1350:1359   */\n      dup4\n        /* \"#utility.yul\":1346:1363   */\n      add\n        /* \"#utility.yul\":1337:1343   */\n      dup5\n        /* \"#utility.yul\":1293:1364   */\n      tag_163\n      jump\t// in\n    tag_220:\n        /* \"#utility.yul\":1149:1371   */\n      swap3\n      swap2\n      pop\n      pop\n      jump\t// out\n        /* \"#utility.yul\":1377:1476   */\n    tag_164:\n        /* \"#utility.yul\":1429:1435   */\n      0x00\n        /* \"#utility.yul\":1463:1468   */\n      dup2\n        /* \"#utility.yul\":1457:1469   */\n      mload\n        /* \"#utility.yul\":1447:1469   */\n      swap1\n      pop\n        /* \"#utility.yul\":1377:1476   */\n      swap2\n      swap1\n      pop\n      jump\t// out\n        /* \"#utility.yul\":1482:1651   */\n    tag_165:\n        /* \"#utility.yul\":1566:1577   */\n      0x00\n        /* \"#utility.yul\":1600:1606   */\n      dup3\n        /* \"#utility.yul\":1595:1598   */\n      dup3\n        /* \"#utility.yul\":1588:1607   */\n      mstore\n        /* \"#utility.yul\":1640:1644   */\n      0x20\n        /* \"#utility.yul\":1635:1638   */\n      dup3\n        /* \"#utility.yul\":1631:1645   */\n      add\n        /* \"#utility.yul\":1616:1645   */\n      swap1\n      pop\n        /* \"#utility.yul\":1482:1651   */\n      swap3\n      swap2\n      pop\n      pop\n      jump\t// out\n        /* \"#utility.yul\":1657:1903   */\n    tag_166:\n        /* \"#utility.yul\":1738:1739   */\n      0x00\n        /* \"#utility.yul\":1748:1861   */\n    tag_224:\n        /* \"#utility.yul\":1762:1768   */\n      dup4\n        /* \"#utility.yul\":1759:1760   */\n      dup2\n        /* \"#utility.yul\":1756:1769   */\n      lt\n        /* \"#utility.yul\":1748:1861   */\n      iszero\n      tag_226\n      jumpi\n        /* \"#utility.yul\":1847:1848   */\n      dup1\n        /* \"#utility.yul\":1842:1845   */\n      dup3\n        /* \"#utility.yul\":1838:1849   */\n      add\n        /* \"#utility.yul\":1832:1850   */\n      mload\n        /* \"#utility.yul\":1828:1829   */\n      dup2\n        /* \"#utility.yul\":1823:1826   */\n      dup5\n        /* \"#utility.yul\":1819:1830   */\n      add\n        /* \"#utility.yul\":1812:1851   */\n      mstore\n        /* \"#utility.yul\":1784:1786   */\n      0x20\n        /* \"#utility.yul\":1781:1782   */\n      dup2\n        /* \"#utility.yul\":1777:1787   */\n      add\n        /* \"#utility.yul\":1772:1787   */\n      swap1\n      pop\n        /* \"#utility.yul\":1748:1861   */\n      jump(tag_224)\n    tag_226:\n        /* \"#utility.yul\":1895:1896   */\n      0x00\n        /* \"#utility.yul\":1886:1892   */\n      dup5\n        /* \"#utility.yul\":1881:1884   */\n      dup5\n        /* \"#utility.yul\":1877:1893   */\n      add\n        /* \"#utility.yul\":1870:1897   */\n      mstore\n        /* \"#utility.yul\":1719:1903   */\n      pop\n        /* \"#utility.yul\":1657:1903   */\n      pop\n      pop\n      pop\n      jump\t// out\n        /* \"#utility.yul\":1909:2011   */\n    tag_167:\n        /* \"#utility.yul\":1950:1956   */\n      0x00\n        /* \"#utility.yul\":2001:2003   */\n      0x1f\n        /* \"#utility.yul\":1997:2004   */\n      not\n        /* \"#utility.yul\":1992:1994   */\n      0x1f\n        /* \"#utility.yul\":1985:1990   */\n      dup4\n        /* \"#utility.yul\":1981:1995   */\n      add\n        /* \"#utility.yul\":1977:2005   */\n      and\n        /* \"#utility.yul\":1967:2005   */\n      swap1\n      pop\n        /* \"#utility.yul\":1909:2011   */\n      swap2\n      swap1\n      pop\n      jump\t// out\n        /* \"#utility.yul\":2017:2394   */\n    tag_168:\n        /* \"#utility.yul\":2105:2108   */\n      0x00\n        /* \"#utility.yul\":2133:2172   */\n      tag_229\n        /* \"#utility.yul\":2166:2171   */\n      dup3\n        /* \"#utility.yul\":2133:2172   */\n      tag_164\n      jump\t// in\n    tag_229:\n        /* \"#utility.yul\":2188:2259   */\n      tag_230\n        /* \"#utility.yul\":2252:2258   */\n      dup2\n        /* \"#utility.yul\":2247:2250   */\n      dup6\n        /* \"#utility.yul\":2188:2259   */\n      tag_165\n      jump\t// in\n    tag_230:\n        /* \"#utility.yul\":2181:2259   */\n      swap4\n      pop\n        /* \"#utility.yul\":2268:2333   */\n      tag_231\n        /* \"#utility.yul\":2326:2332   */\n      dup2\n        /* \"#utility.yul\":2321:2324   */\n      dup6\n        /* \"#utility.yul\":2314:2318   */\n      0x20\n        /* \"#utility.yul\":2307:2312   */\n      dup7\n        /* \"#utility.yul\":2303:2319   */\n      add\n        /* \"#utility.yul\":2268:2333   */\n      tag_166\n      jump\t// in\n    tag_231:\n        /* \"#utility.yul\":2358:2387   */\n      tag_232\n        /* \"#utility.yul\":2380:2386   */\n      dup2\n        /* \"#utility.yul\":2358:2387   */\n      tag_167\n      jump\t// in\n    tag_232:\n        /* \"#utility.yul\":2353:2356   */\n      dup5\n        /* \"#utility.yul\":2349:2388   */\n      add\n        /* \"#utility.yul\":2342:2388   */\n      swap2\n      pop\n        /* \"#utility.yul\":2109:2394   */\n      pop\n        /* \"#utility.yul\":2017:2394   */\n      swap3\n      swap2\n      pop\n      pop\n      jump\t// out\n        /* \"#utility.yul\":2400:2713   */\n    tag_37:\n        /* \"#utility.yul\":2513:2517   */\n      0x00\n        /* \"#utility.yul\":2551:2553   */\n      0x20\n        /* \"#utility.yul\":2540:2549   */\n      dup3\n        /* \"#utility.yul\":2536:2554   */\n      add\n        /* \"#utility.yul\":2528:2554   */\n      swap1\n      pop\n        /* \"#utility.yul\":2600:2609   */\n      dup2\n        /* \"#utility.yul\":2594:2598   */\n      dup2\n        /* \"#utility.yul\":2590:2610   */\n      sub\n        /* \"#utility.yul\":2586:2587   */\n      0x00\n        /* \"#utility.yul\":2575:2584   */\n      dup4\n        /* \"#utility.yul\":2571:2588   */\n      add\n        /* \"#utility.yul\":2564:2611   */\n      mstore\n        /* \"#utility.yul\":2628:2706   */\n      tag_234\n        /* \"#utility.yul\":2701:2705   */\n      dup2\n        /* \"#utility.yul\":2692:2698   */\n      dup5\n        /* \"#utility.yul\":2628:2706   */\n      tag_168\n      jump\t// in\n    tag_234:\n        /* \"#utility.yul\":2620:2706   */\n      swap1\n      pop\n        /* \"#utility.yul\":2400:2713   */\n      swap3\n      swap2\n      pop\n      pop\n      jump\t// out\n        /* \"#utility.yul\":2719:2845   */\n    tag_169:\n        /* \"#utility.yul\":2756:2763   */\n      0x00\n        /* \"#utility.yul\":2796:2838   */\n      0xffffffffffffffffffffffffffffffffffffffff\n        /* \"#utility.yul\":2789:2794   */\n      dup3\n        /* \"#utility.yul\":2785:2839   */\n      and\n        /* \"#utility.yul\":2774:2839   */\n      swap1\n      pop\n        /* \"#utility.yul\":2719:2845   */\n      swap2\n      swap1\n      pop\n      jump\t// out\n        /* \"#utility.yul\":2851:2947   */\n    tag_170:\n        /* \"#utility.yul\":2888:2895   */\n      0x00\n        /* \"#utility.yul\":2917:2941   */\n      tag_237\n        /* \"#utility.yul\":2935:2940   */\n      dup3\n        /* \"#utility.yul\":2917:2941   */\n      tag_169\n      jump\t// in\n    tag_237:\n        /* \"#utility.yul\":2906:2941   */\n      swap1\n      pop\n        /* \"#utility.yul\":2851:2947   */\n      swap2\n      swap1\n      pop\n      jump\t// out\n        /* \"#utility.yul\":2953:3075   */\n    tag_171:\n        /* \"#utility.yul\":3026:3050   */\n      tag_239\n        /* \"#utility.yul\":3044:3049   */\n      dup2\n        /* \"#utility.yul\":3026:3050   */\n      tag_170\n      jump\t// in\n    tag_239:\n        /* \"#utility.yul\":3019:3024   */\n      dup2\n        /* \"#utility.yul\":3016:3051   */\n      eq\n        /* \"#utility.yul\":3006:3069   */\n      tag_240\n      jumpi\n        /* \"#utility.yul\":3065:3066   */\n      0x00\n        /* \"#utility.yul\":3062:3063   */\n      dup1\n        /* \"#utility.yul\":3055:3067   */\n      revert\n        /* \"#utility.yul\":3006:3069   */\n    tag_240:\n        /* \"#utility.yul\":2953:3075   */\n      pop\n      jump\t// out\n        /* \"#utility.yul\":3081:3220   */\n    tag_172:\n        /* \"#utility.yul\":3127:3132   */\n      0x00\n        /* \"#utility.yul\":3165:3171   */\n      dup2\n        /* \"#utility.yul\":3152:3172   */\n      calldataload\n        /* \"#utility.yul\":3143:3172   */\n      swap1\n      pop\n        /* \"#utility.yul\":3181:3214   */\n      tag_242\n        /* \"#utility.yul\":3208:3213   */\n      dup2\n        /* \"#utility.yul\":3181:3214   */\n      tag_171\n      jump\t// in\n    tag_242:\n        /* \"#utility.yul\":3081:3220   */\n      swap3\n      swap2\n      pop\n      pop\n      jump\t// out\n        /* \"#utility.yul\":3226:3555   */\n    tag_43:\n        /* \"#utility.yul\":3285:3291   */\n      0x00\n        /* \"#utility.yul\":3334:3336   */\n      0x20\n        /* \"#utility.yul\":3322:3331   */\n      dup3\n        /* \"#utility.yul\":3313:3320   */\n      dup5\n        /* \"#utility.yul\":3309:3332   */\n      sub\n        /* \"#utility.yul\":3305:3337   */\n      slt\n        /* \"#utility.yul\":3302:3421   */\n      iszero\n      tag_244\n      jumpi\n        /* \"#utility.yul\":3340:3419   */\n      tag_245\n      tag_158\n      jump\t// in\n    tag_245:\n        /* \"#utility.yul\":3302:3421   */\n    tag_244:\n        /* \"#utility.yul\":3460:3461   */\n      0x00\n        /* \"#utility.yul\":3485:3538   */\n      tag_246\n        /* \"#utility.yul\":3530:3537   */\n      dup5\n        /* \"#utility.yul\":3521:3527   */\n      dup3\n        /* \"#utility.yul\":3510:3519   */\n      dup6\n        /* \"#utility.yul\":3506:3528   */\n      add\n        /* \"#utility.yul\":3485:3538   */\n      tag_172\n      jump\t// in\n    tag_246:\n        /* \"#utility.yul\":3475:3538   */\n      swap2\n      pop\n        /* \"#utility.yul\":3431:3548   */\n      pop\n        /* \"#utility.yul\":3226:3555   */\n      swap3\n      swap2\n      pop\n      pop\n      jump\t// out\n        /* \"#utility.yul\":3561:3679   */\n    tag_173:\n        /* \"#utility.yul\":3648:3672   */\n      tag_248\n        /* \"#utility.yul\":3666:3671   */\n      dup2\n        /* \"#utility.yul\":3648:3672   */\n      tag_170\n      jump\t// in\n    tag_248:\n        /* \"#utility.yul\":3643:3646   */\n      dup3\n        /* \"#utility.yul\":3636:3673   */\n      mstore\n        /* \"#utility.yul\":3561:3679   */\n      pop\n      pop\n      jump\t// out\n        /* \"#utility.yul\":3685:3907   */\n    tag_49:\n        /* \"#utility.yul\":3778:3782   */\n      0x00\n        /* \"#utility.yul\":3816:3818   */\n      0x20\n        /* \"#utility.yul\":3805:3814   */\n      dup3\n        /* \"#utility.yul\":3801:3819   */\n      add\n        /* \"#utility.yul\":3793:3819   */\n      swap1\n      pop\n        /* \"#utility.yul\":3829:3900   */\n      tag_250\n        /* \"#utility.yul\":3897:3898   */\n      0x00\n        /* \"#utility.yul\":3886:3895   */\n      dup4\n        /* \"#utility.yul\":3882:3899   */\n      add\n        /* \"#utility.yul\":3873:3879   */\n      dup5\n        /* \"#utility.yul\":3829:3900   */\n      tag_173\n      jump\t// in\n    tag_250:\n        /* \"#utility.yul\":3685:3907   */\n      swap3\n      swap2\n      pop\n      pop\n      jump\t// out\n        /* \"#utility.yul\":3913:4030   */\n    tag_174:\n        /* \"#utility.yul\":4022:4023   */\n      0x00\n        /* \"#utility.yul\":4019:4020   */\n      dup1\n        /* \"#utility.yul\":4012:4024   */\n      revert\n        /* \"#utility.yul\":4036:4153   */\n    tag_175:\n        /* \"#utility.yul\":4145:4146   */\n      0x00\n        /* \"#utility.yul\":4142:4143   */\n      dup1\n        /* \"#utility.yul\":4135:4147   */\n      revert\n        /* \"#utility.yul\":4159:4276   */\n    tag_176:\n        /* \"#utility.yul\":4268:4269   */\n      0x00\n        /* \"#utility.yul\":4265:4266   */\n      dup1\n        /* \"#utility.yul\":4258:4270   */\n      revert\n        /* \"#utility.yul\":4299:4867   */\n    tag_177:\n        /* \"#utility.yul\":4372:4380   */\n      0x00\n        /* \"#utility.yul\":4382:4388   */\n      dup1\n        /* \"#utility.yul\":4432:4435   */\n      dup4\n        /* \"#utility.yul\":4425:4429   */\n      0x1f\n        /* \"#utility.yul\":4417:4423   */\n      dup5\n        /* \"#utility.yul\":4413:4430   */\n      add\n        /* \"#utility.yul\":4409:4436   */\n      slt\n        /* \"#utility.yul\":4399:4521   */\n      tag_255\n      jumpi\n        /* \"#utility.yul\":4440:4519   */\n      tag_256\n      tag_174\n      jump\t// in\n    tag_256:\n        /* \"#utility.yul\":4399:4521   */\n    tag_255:\n        /* \"#utility.yul\":4553:4559   */\n      dup3\n        /* \"#utility.yul\":4540:4560   */\n      calldataload\n        /* \"#utility.yul\":4530:4560   */\n      swap1\n      pop\n        /* \"#utility.yul\":4583:4601   */\n      0xffffffffffffffff\n        /* \"#utility.yul\":4575:4581   */\n      dup2\n        /* \"#utility.yul\":4572:4602   */\n      gt\n        /* \"#utility.yul\":4569:4686   */\n      iszero\n      tag_257\n      jumpi\n        /* \"#utility.yul\":4605:4684   */\n      tag_258\n      tag_175\n      jump\t// in\n    tag_258:\n        /* \"#utility.yul\":4569:4686   */\n    tag_257:\n        /* \"#utility.yul\":4719:4723   */\n      0x20\n        /* \"#utility.yul\":4711:4717   */\n      dup4\n        /* \"#utility.yul\":4707:4724   */\n      add\n        /* \"#utility.yul\":4695:4724   */\n      swap2\n      pop\n        /* \"#utility.yul\":4773:4776   */\n      dup4\n        /* \"#utility.yul\":4765:4769   */\n      0x20\n        /* \"#utility.yul\":4757:4763   */\n      dup3\n        /* \"#utility.yul\":4753:4770   */\n      mul\n        /* \"#utility.yul\":4743:4751   */\n      dup4\n        /* \"#utility.yul\":4739:4771   */\n      add\n        /* \"#utility.yul\":4736:4777   */\n      gt\n        /* \"#utility.yul\":4733:4861   */\n      iszero\n      tag_259\n      jumpi\n        /* \"#utility.yul\":4780:4859   */\n      tag_260\n      tag_176\n      jump\t// in\n    tag_260:\n        /* \"#utility.yul\":4733:4861   */\n    tag_259:\n        /* \"#utility.yul\":4299:4867   */\n      swap3\n      pop\n      swap3\n      swap1\n      pop\n      jump\t// out\n        /* \"#utility.yul\":4873:5432   */\n    tag_56:\n        /* \"#utility.yul\":4959:4965   */\n      0x00\n        /* \"#utility.yul\":4967:4973   */\n      dup1\n        /* \"#utility.yul\":5016:5018   */\n      0x20\n        /* \"#utility.yul\":5004:5013   */\n      dup4\n        /* \"#utility.yul\":4995:5002   */\n      dup6\n        /* \"#utility.yul\":4991:5014   */\n      sub\n        /* \"#utility.yul\":4987:5019   */\n      slt\n        /* \"#utility.yul\":4984:5103   */\n      iszero\n      tag_262\n      jumpi\n        /* \"#utility.yul\":5022:5101   */\n      tag_263\n      tag_158\n      jump\t// in\n    tag_263:\n        /* \"#utility.yul\":4984:5103   */\n    tag_262:\n        /* \"#utility.yul\":5170:5171   */\n      0x00\n        /* \"#utility.yul\":5159:5168   */\n      dup4\n        /* \"#utility.yul\":5155:5172   */\n      add\n        /* \"#utility.yul\":5142:5173   */\n      calldataload\n        /* \"#utility.yul\":5200:5218   */\n      0xffffffffffffffff\n        /* \"#utility.yul\":5192:5198   */\n      dup2\n        /* \"#utility.yul\":5189:5219   */\n      gt\n        /* \"#utility.yul\":5186:5303   */\n      iszero\n      tag_264\n      jumpi\n        /* \"#utility.yul\":5222:5301   */\n      tag_265\n      tag_159\n      jump\t// in\n    tag_265:\n        /* \"#utility.yul\":5186:5303   */\n    tag_264:\n        /* \"#utility.yul\":5335:5415   */\n      tag_266\n        /* \"#utility.yul\":5407:5414   */\n      dup6\n        /* \"#utility.yul\":5398:5404   */\n      dup3\n        /* \"#utility.yul\":5387:5396   */\n      dup7\n        /* \"#utility.yul\":5383:5405   */\n      add\n        /* \"#utility.yul\":5335:5415   */\n      tag_177\n      jump\t// in\n    tag_266:\n        /* \"#utility.yul\":5317:5415   */\n      swap3\n      pop\n      swap3\n      pop\n        /* \"#utility.yul\":5113:5425   */\n      pop\n        /* \"#utility.yul\":4873:5432   */\n      swap3\n      pop\n      swap3\n      swap1\n      pop\n      jump\t// out\n        /* \"#utility.yul\":5438:5528   */\n    tag_178:\n        /* \"#utility.yul\":5472:5479   */\n      0x00\n        /* \"#utility.yul\":5515:5520   */\n      dup2\n        /* \"#utility.yul\":5508:5521   */\n      iszero\n        /* \"#utility.yul\":5501:5522   */\n      iszero\n        /* \"#utility.yul\":5490:5522   */\n      swap1\n      pop\n        /* \"#utility.yul\":5438:5528   */\n      swap2\n      swap1\n      pop\n      jump\t// out\n        /* \"#utility.yul\":5534:5650   */\n    tag_179:\n        /* \"#utility.yul\":5604:5625   */\n      tag_269\n        /* \"#utility.yul\":5619:5624   */\n      dup2\n        /* \"#utility.yul\":5604:5625   */\n      tag_178\n      jump\t// in\n    tag_269:\n        /* \"#utility.yul\":5597:5602   */\n      dup2\n        /* \"#utility.yul\":5594:5626   */\n      eq\n        /* \"#utility.yul\":5584:5644   */\n      tag_270\n      jumpi\n        /* \"#utility.yul\":5640:5641   */\n      0x00\n        /* \"#utility.yul\":5637:5638   */\n      dup1\n        /* \"#utility.yul\":5630:5642   */\n      revert\n        /* \"#utility.yul\":5584:5644   */\n    tag_270:\n        /* \"#utility.yul\":5534:5650   */\n      pop\n      jump\t// out\n        /* \"#utility.yul\":5656:5789   */\n    tag_180:\n        /* \"#utility.yul\":5699:5704   */\n      0x00\n        /* \"#utility.yul\":5737:5743   */\n      dup2\n        /* \"#utility.yul\":5724:5744   */\n      calldataload\n        /* \"#utility.yul\":5715:5744   */\n      swap1\n      pop\n        /* \"#utility.yul\":5753:5783   */\n      tag_272\n        /* \"#utility.yul\":5777:5782   */\n      dup2\n        /* \"#utility.yul\":5753:5783   */\n      tag_179\n      jump\t// in\n    tag_272:\n        /* \"#utility.yul\":5656:5789   */\n      swap3\n      swap2\n      pop\n      pop\n      jump\t// out\n        /* \"#utility.yul\":5795:6118   */\n    tag_60:\n        /* \"#utility.yul\":5851:5857   */\n      0x00\n        /* \"#utility.yul\":5900:5902   */\n      0x20\n        /* \"#utility.yul\":5888:5897   */\n      dup3\n        /* \"#utility.yul\":5879:5886   */\n      dup5\n        /* \"#utility.yul\":5875:5898   */\n      sub\n        /* \"#utility.yul\":5871:5903   */\n      slt\n        /* \"#utility.yul\":5868:5987   */\n      iszero\n      tag_274\n      jumpi\n        /* \"#utility.yul\":5906:5985   */\n      tag_275\n      tag_158\n      jump\t// in\n    tag_275:\n        /* \"#utility.yul\":5868:5987   */\n    tag_274:\n        /* \"#utility.yul\":6026:6027   */\n      0x00\n        /* \"#utility.yul\":6051:6101   */\n      tag_276\n        /* \"#utility.yul\":6093:6100   */\n      dup5\n        /* \"#utility.yul\":6084:6090   */\n      dup3\n        /* \"#utility.yul\":6073:6082   */\n      dup6\n        /* \"#utility.yul\":6069:6091   */\n      add\n        /* \"#utility.yul\":6051:6101   */\n      tag_180\n      jump\t// in\n    tag_276:\n        /* \"#utility.yul\":6041:6101   */\n      swap2\n      pop\n        /* \"#utility.yul\":5997:6111   */\n      pop\n        /* \"#utility.yul\":5795:6118   */\n      swap3\n      swap2\n      pop\n      pop\n      jump\t// out\n        /* \"#utility.yul\":6138:6691   */\n    tag_181:\n        /* \"#utility.yul\":6196:6204   */\n      0x00\n        /* \"#utility.yul\":6206:6212   */\n      dup1\n        /* \"#utility.yul\":6256:6259   */\n      dup4\n        /* \"#utility.yul\":6249:6253   */\n      0x1f\n        /* \"#utility.yul\":6241:6247   */\n      dup5\n        /* \"#utility.yul\":6237:6254   */\n      add\n        /* \"#utility.yul\":6233:6260   */\n      slt\n        /* \"#utility.yul\":6223:6345   */\n      tag_278\n      jumpi\n        /* \"#utility.yul\":6264:6343   */\n      tag_279\n      tag_174\n      jump\t// in\n    tag_279:\n        /* \"#utility.yul\":6223:6345   */\n    tag_278:\n        /* \"#utility.yul\":6377:6383   */\n      dup3\n        /* \"#utility.yul\":6364:6384   */\n      calldataload\n        /* \"#utility.yul\":6354:6384   */\n      swap1\n      pop\n        /* \"#utility.yul\":6407:6425   */\n      0xffffffffffffffff\n        /* \"#utility.yul\":6399:6405   */\n      dup2\n        /* \"#utility.yul\":6396:6426   */\n      gt\n        /* \"#utility.yul\":6393:6510   */\n      iszero\n      tag_280\n      jumpi\n        /* \"#utility.yul\":6429:6508   */\n      tag_281\n      tag_175\n      jump\t// in\n    tag_281:\n        /* \"#utility.yul\":6393:6510   */\n    tag_280:\n        /* \"#utility.yul\":6543:6547   */\n      0x20\n        /* \"#utility.yul\":6535:6541   */\n      dup4\n        /* \"#utility.yul\":6531:6548   */\n      add\n        /* \"#utility.yul\":6519:6548   */\n      swap2\n      pop\n        /* \"#utility.yul\":6597:6600   */\n      dup4\n        /* \"#utility.yul\":6589:6593   */\n      0x01\n        /* \"#utility.yul\":6581:6587   */\n      dup3\n        /* \"#utility.yul\":6577:6594   */\n      mul\n        /* \"#utility.yul\":6567:6575   */\n      dup4\n        /* \"#utility.yul\":6563:6595   */\n      add\n        /* \"#utility.yul\":6560:6601   */\n      gt\n        /* \"#utility.yul\":6557:6685   */\n      iszero\n      tag_282\n      jumpi\n        /* \"#utility.yul\":6604:6683   */\n      tag_283\n      tag_176\n      jump\t// in\n    tag_283:\n        /* \"#utility.yul\":6557:6685   */\n    tag_282:\n        /* \"#utility.yul\":6138:6691   */\n      swap3\n      pop\n      swap3\n      swap1\n      pop\n      jump\t// out\n        /* \"#utility.yul\":6697:7226   */\n    tag_67:\n        /* \"#utility.yul\":6768:6774   */\n      0x00\n        /* \"#utility.yul\":6776:6782   */\n      dup1\n        /* \"#utility.yul\":6825:6827   */\n      0x20\n        /* \"#utility.yul\":6813:6822   */\n      dup4\n        /* \"#utility.yul\":6804:6811   */\n      dup6\n        /* \"#utility.yul\":6800:6823   */\n      sub\n        /* \"#utility.yul\":6796:6828   */\n      slt\n        /* \"#utility.yul\":6793:6912   */\n      iszero\n      tag_285\n      jumpi\n        /* \"#utility.yul\":6831:6910   */\n      tag_286\n      tag_158\n      jump\t// in\n    tag_286:\n        /* \"#utility.yul\":6793:6912   */\n    tag_285:\n        /* \"#utility.yul\":6979:6980   */\n      0x00\n        /* \"#utility.yul\":6968:6977   */\n      dup4\n        /* \"#utility.yul\":6964:6981   */\n      add\n        /* \"#utility.yul\":6951:6982   */\n      calldataload\n        /* \"#utility.yul\":7009:7027   */\n      0xffffffffffffffff\n        /* \"#utility.yul\":7001:7007   */\n      dup2\n        /* \"#utility.yul\":6998:7028   */\n      gt\n        /* \"#utility.yul\":6995:7112   */\n      iszero\n      tag_287\n      jumpi\n        /* \"#utility.yul\":7031:7110   */\n      tag_288\n      tag_159\n      jump\t// in\n    tag_288:\n        /* \"#utility.yul\":6995:7112   */\n    tag_287:\n        /* \"#utility.yul\":7144:7209   */\n      tag_289\n        /* \"#utility.yul\":7201:7208   */\n      dup6\n        /* \"#utility.yul\":7192:7198   */\n      dup3\n        /* \"#utility.yul\":7181:7190   */\n      dup7\n        /* \"#utility.yul\":7177:7199   */\n      add\n        /* \"#utility.yul\":7144:7209   */\n      tag_181\n      jump\t// in\n    tag_289:\n        /* \"#utility.yul\":7126:7209   */\n      swap3\n      pop\n      swap3\n      pop\n        /* \"#utility.yul\":6922:7219   */\n      pop\n        /* \"#utility.yul\":6697:7226   */\n      swap3\n      pop\n      swap3\n      swap1\n      pop\n      jump\t// out\n        /* \"#utility.yul\":7232:7341   */\n    tag_182:\n        /* \"#utility.yul\":7313:7334   */\n      tag_291\n        /* \"#utility.yul\":7328:7333   */\n      dup2\n        /* \"#utility.yul\":7313:7334   */\n      tag_178\n      jump\t// in\n    tag_291:\n        /* \"#utility.yul\":7308:7311   */\n      dup3\n        /* \"#utility.yul\":7301:7335   */\n      mstore\n        /* \"#utility.yul\":7232:7341   */\n      pop\n      pop\n      jump\t// out\n        /* \"#utility.yul\":7347:7557   */\n    tag_73:\n        /* \"#utility.yul\":7434:7438   */\n      0x00\n        /* \"#utility.yul\":7472:7474   */\n      0x20\n        /* \"#utility.yul\":7461:7470   */\n      dup3\n        /* \"#utility.yul\":7457:7475   */\n      add\n        /* \"#utility.yul\":7449:7475   */\n      swap1\n      pop\n        /* \"#utility.yul\":7485:7550   */\n      tag_293\n        /* \"#utility.yul\":7547:7548   */\n      0x00\n        /* \"#utility.yul\":7536:7545   */\n      dup4\n        /* \"#utility.yul\":7532:7549   */\n      add\n        /* \"#utility.yul\":7523:7529   */\n      dup5\n        /* \"#utility.yul\":7485:7550   */\n      tag_182\n      jump\t// in\n    tag_293:\n        /* \"#utility.yul\":7347:7557   */\n      swap3\n      swap2\n      pop\n      pop\n      jump\t// out\n        /* \"#utility.yul\":7563:7733   */\n    tag_183:\n        /* \"#utility.yul\":7703:7725   */\n      0x63616c6c6572206d757374206265206f776e6572000000000000000000000000\n        /* \"#utility.yul\":7699:7700   */\n      0x00\n        /* \"#utility.yul\":7691:7697   */\n      dup3\n        /* \"#utility.yul\":7687:7701   */\n      add\n        /* \"#utility.yul\":7680:7726   */\n      mstore\n        /* \"#utility.yul\":7563:7733   */\n      pop\n      jump\t// out\n        /* \"#utility.yul\":7739:8105   */\n    tag_184:\n        /* \"#utility.yul\":7881:7884   */\n      0x00\n        /* \"#utility.yul\":7902:7969   */\n      tag_296\n        /* \"#utility.yul\":7966:7968   */\n      0x14\n        /* \"#utility.yul\":7961:7964   */\n      dup4\n        /* \"#utility.yul\":7902:7969   */\n      tag_165\n      jump\t// in\n    tag_296:\n        /* \"#utility.yul\":7895:7969   */\n      swap2\n      pop\n        /* \"#utility.yul\":7978:8071   */\n      tag_297\n        /* \"#utility.yul\":8067:8070   */\n      dup3\n        /* \"#utility.yul\":7978:8071   */\n      tag_183\n      jump\t// in\n    tag_297:\n        /* \"#utility.yul\":8096:8098   */\n      0x20\n        /* \"#utility.yul\":8091:8094   */\n      dup3\n        /* \"#utility.yul\":8087:8099   */\n      add\n        /* \"#utility.yul\":8080:8099   */\n      swap1\n      pop\n        /* \"#utility.yul\":7739:8105   */\n      swap2\n      swap1\n      pop\n      jump\t// out\n        /* \"#utility.yul\":8111:8530   */\n    tag_101:\n        /* \"#utility.yul\":8277:8281   */\n      0x00\n        /* \"#utility.yul\":8315:8317   */\n      0x20\n        /* \"#utility.yul\":8304:8313   */\n      dup3\n        /* \"#utility.yul\":8300:8318   */\n      add\n        /* \"#utility.yul\":8292:8318   */\n      swap1\n      pop\n        /* \"#utility.yul\":8364:8373   */\n      dup2\n        /* \"#utility.yul\":8358:8362   */\n      dup2\n        /* \"#utility.yul\":8354:8374   */\n      sub\n        /* \"#utility.yul\":8350:8351   */\n      0x00\n        /* \"#utility.yul\":8339:8348   */\n      dup4\n        /* \"#utility.yul\":8335:8352   */\n      add\n        /* \"#utility.yul\":8328:8375   */\n      mstore\n        /* \"#utility.yul\":8392:8523   */\n      tag_299\n        /* \"#utility.yul\":8518:8522   */\n      dup2\n        /* \"#utility.yul\":8392:8523   */\n      tag_184\n      jump\t// in\n    tag_299:\n        /* \"#utility.yul\":8384:8523   */\n      swap1\n      pop\n        /* \"#utility.yul\":8111:8530   */\n      swap2\n      swap1\n      pop\n      jump\t// out\n        /* \"#utility.yul\":8536:8716   */\n    tag_185:\n        /* \"#utility.yul\":8584:8661   */\n      0x4e487b7100000000000000000000000000000000000000000000000000000000\n        /* \"#utility.yul\":8581:8582   */\n      0x00\n        /* \"#utility.yul\":8574:8662   */\n      mstore\n        /* \"#utility.yul\":8681:8685   */\n      0x22\n        /* \"#utility.yul\":8678:8679   */\n      0x04\n        /* \"#utility.yul\":8671:8686   */\n      mstore\n        /* \"#utility.yul\":8705:8709   */\n      0x24\n        /* \"#utility.yul\":8702:8703   */\n      0x00\n        /* \"#utility.yul\":8695:8710   */\n      revert\n        /* \"#utility.yul\":8722:9042   */\n    tag_104:\n        /* \"#utility.yul\":8766:8772   */\n      0x00\n        /* \"#utility.yul\":8803:8804   */\n      0x02\n        /* \"#utility.yul\":8797:8801   */\n      dup3\n        /* \"#utility.yul\":8793:8805   */\n      div\n        /* \"#utility.yul\":8783:8805   */\n      swap1\n      pop\n        /* \"#utility.yul\":8850:8851   */\n      0x01\n        /* \"#utility.yul\":8844:8848   */\n      dup3\n        /* \"#utility.yul\":8840:8852   */\n      and\n        /* \"#utility.yul\":8871:8889   */\n      dup1\n        /* \"#utility.yul\":8861:8942   */\n      tag_302\n      jumpi\n        /* \"#utility.yul\":8927:8931   */\n      0x7f\n        /* \"#utility.yul\":8919:8925   */\n      dup3\n        /* \"#utility.yul\":8915:8932   */\n      and\n        /* \"#utility.yul\":8905:8932   */\n      swap2\n      pop\n        /* \"#utility.yul\":8861:8942   */\n    tag_302:\n        /* \"#utility.yul\":8989:8991   */\n      0x20\n        /* \"#utility.yul\":8981:8987   */\n      dup3\n        /* \"#utility.yul\":8978:8992   */\n      lt\n        /* \"#utility.yul\":8958:8976   */\n      dup2\n        /* \"#utility.yul\":8955:8993   */\n      sub\n        /* \"#utility.yul\":8952:9036   */\n      tag_303\n      jumpi\n        /* \"#utility.yul\":9008:9026   */\n      tag_304\n      tag_185\n      jump\t// in\n    tag_304:\n        /* \"#utility.yul\":8952:9036   */\n    tag_303:\n        /* \"#utility.yul\":8773:9042   */\n      pop\n        /* \"#utility.yul\":8722:9042   */\n      swap2\n      swap1\n      pop\n      jump\t// out\n        /* \"#utility.yul\":9048:9145   */\n    tag_186:\n        /* \"#utility.yul\":9107:9113   */\n      0x00\n        /* \"#utility.yul\":9135:9138   */\n      dup3\n        /* \"#utility.yul\":9125:9138   */\n      swap1\n      pop\n        /* \"#utility.yul\":9048:9145   */\n      swap3\n      swap2\n      pop\n      pop\n      jump\t// out\n        /* \"#utility.yul\":9151:9331   */\n    tag_187:\n        /* \"#utility.yul\":9199:9276   */\n      0x4e487b7100000000000000000000000000000000000000000000000000000000\n        /* \"#utility.yul\":9196:9197   */\n      0x00\n        /* \"#utility.yul\":9189:9277   */\n      mstore\n        /* \"#utility.yul\":9296:9300   */\n      0x41\n        /* \"#utility.yul\":9293:9294   */\n      0x04\n        /* \"#utility.yul\":9286:9301   */\n      mstore\n        /* \"#utility.yul\":9320:9324   */\n      0x24\n        /* \"#utility.yul\":9317:9318   */\n      0x00\n        /* \"#utility.yul\":9310:9325   */\n      revert\n        /* \"#utility.yul\":9337:9478   */\n    tag_188:\n        /* \"#utility.yul\":9386:9390   */\n      0x00\n        /* \"#utility.yul\":9409:9412   */\n      dup2\n        /* \"#utility.yul\":9401:9412   */\n      swap1\n      pop\n        /* \"#utility.yul\":9432:9435   */\n      dup2\n        /* \"#utility.yul\":9429:9430   */\n      0x00\n        /* \"#utility.yul\":9422:9436   */\n      mstore\n        /* \"#utility.yul\":9466:9470   */\n      0x20\n        /* \"#utility.yul\":9463:9464   */\n      0x00\n        /* \"#utility.yul\":9453:9471   */\n      keccak256\n        /* \"#utility.yul\":9445:9471   */\n      swap1\n      pop\n        /* \"#utility.yul\":9337:9478   */\n      swap2\n      swap1\n      pop\n      jump\t// out\n        /* \"#utility.yul\":9484:9577   */\n    tag_189:\n        /* \"#utility.yul\":9521:9527   */\n      0x00\n        /* \"#utility.yul\":9568:9570   */\n      0x20\n        /* \"#utility.yul\":9563:9565   */\n      0x1f\n        /* \"#utility.yul\":9556:9561   */\n      dup4\n        /* \"#utility.yul\":9552:9566   */\n      add\n        /* \"#utility.yul\":9548:9571   */\n      div\n        /* \"#utility.yul\":9538:9571   */\n      swap1\n      pop\n        /* \"#utility.yul\":9484:9577   */\n      swap2\n      swap1\n      pop\n      jump\t// out\n        /* \"#utility.yul\":9583:9690   */\n    tag_190:\n        /* \"#utility.yul\":9627:9635   */\n      0x00\n        /* \"#utility.yul\":9677:9682   */\n      dup3\n        /* \"#utility.yul\":9671:9675   */\n      dup3\n        /* \"#utility.yul\":9667:9683   */\n      shl\n        /* \"#utility.yul\":9646:9683   */\n      swap1\n      pop\n        /* \"#utility.yul\":9583:9690   */\n      swap3\n      swap2\n      pop\n      pop\n      jump\t// out\n        /* \"#utility.yul\":9696:10089   */\n    tag_191:\n        /* \"#utility.yul\":9765:9771   */\n      0x00\n        /* \"#utility.yul\":9815:9816   */\n      0x08\n        /* \"#utility.yul\":9803:9813   */\n      dup4\n        /* \"#utility.yul\":9799:9817   */\n      mul\n        /* \"#utility.yul\":9838:9935   */\n      tag_311\n        /* \"#utility.yul\":9868:9934   */\n      0xffffffffffffffffffffffffffffffffffffffffffffffffffffffffffffffff\n        /* \"#utility.yul\":9857:9866   */\n      dup3\n        /* \"#utility.yul\":9838:9935   */\n      tag_190\n      jump\t// in\n    tag_311:\n        /* \"#utility.yul\":9956:9995   */\n      tag_312\n        /* \"#utility.yul\":9986:9994   */\n      dup7\n        /* \"#utility.yul\":9975:9984   */\n      dup4\n        /* \"#utility.yul\":9956:9995   */\n      tag_190\n      jump\t// in\n    tag_312:\n        /* \"#utility.yul\":9944:9995   */\n      swap6\n      pop\n        /* \"#utility.yul\":10028:10032   */\n      dup1\n        /* \"#utility.yul\":10024:10033   */\n      not\n        /* \"#utility.yul\":10017:10022   */\n      dup5\n        /* \"#utility.yul\":10013:10034   */\n      and\n        /* \"#utility.yul\":10004:10034   */\n      swap4\n      pop\n        /* \"#utility.yul\":10077:10081   */\n      dup1\n        /* \"#utility.yul\":10067:10075   */\n      dup7\n        /* \"#utility.yul\":10063:10082   */\n      and\n        /* \"#utility.yul\":10056:10061   */\n      dup5\n        /* \"#utility.yul\":10053:10083   */\n      or\n        /* \"#utility.yul\":10043:10083   */\n      swap3\n      pop\n        /* \"#utility.yul\":9772:10089   */\n      pop\n      pop\n        /* \"#utility.yul\":9696:10089   */\n      swap4\n      swap3\n      pop\n      pop\n      pop\n      jump\t// out\n        /* \"#utility.yul\":10095:10155   */\n    tag_192:\n        /* \"#utility.yul\":10123:10126   */\n      0x00\n        /* \"#utility.yul\":10144:10149   */\n      dup2\n        /* \"#utility.yul\":10137:10149   */\n      swap1\n      pop\n        /* \"#utility.yul\":10095:10155   */\n      swap2\n      swap1\n      pop\n      jump\t// out\n        /* \"#utility.yul\":10161:10303   */\n    tag_193:\n        /* \"#utility.yul\":10211:10220   */\n      0x00\n        /* \"#utility.yul\":10244:10297   */\n      tag_315\n        /* \"#utility.yul\":10262:10296   */\n      tag_316\n        /* \"#utility.yul\":10271:10295   */\n      tag_317\n        /* \"#utility.yul\":10289:10294   */\n      dup5\n        /* \"#utility.yul\":10271:10295   */\n      tag_160\n      jump\t// in\n    tag_317:\n        /* \"#utility.yul\":10262:10296   */\n      tag_192\n      jump\t// in\n    tag_316:\n        /* \"#utility.yul\":10244:10297   */\n      tag_160\n      jump\t// in\n    tag_315:\n        /* \"#utility.yul\":10231:10297   */\n      swap1\n      pop\n        /* \"#utility.yul\":10161:10303   */\n      swap2\n      swap1\n      pop\n      jump\t// out\n        /* \"#utility.yul\":10309:10384   */\n    tag_194:\n        /* \"#utility.yul\":10352:10355   */\n      0x00\n        /* \"#utility.yul\":10373:10378   */\n      dup2\n        /* \"#utility.yul\":10366:10378   */\n      swap1\n      pop\n        /* \"#utility.yul\":10309:10384   */\n      swap2\n      swap1\n      pop\n      jump\t// out\n        /* \"#utility.yul\":10390:10659   */\n    tag_195:\n        /* \"#utility.yul\":10500:10539   */\n      tag_320\n        /* \"#utility.yul\":10531:10538   */\n      dup4\n        /* \"#utility.yul\":10500:10539   */\n      tag_193\n      jump\t// in\n    tag_320:\n        /* \"#utility.yul\":10561:10652   */\n      tag_321\n        /* \"#utility.yul\":10610:10651   */\n      tag_322\n        /* \"#utility.yul\":10634:10650   */\n      dup3\n        /* \"#utility.yul\":10610:10651   */\n      tag_194\n      jump\t// in\n    tag_322:\n        /* \"#utility.yul\":10602:10608   */\n      dup5\n        /* \"#utility.yul\":10595:10599   */\n      dup5\n        /* \"#utility.yul\":10589:10600   */\n      sload\n        /* \"#utility.yul\":10561:10652   */\n      tag_191\n      jump\t// in\n    tag_321:\n        /* \"#utility.yul\":10555:10559   */\n      dup3\n        /* \"#utility.yul\":10548:10653   */\n      sstore\n        /* \"#utility.yul\":10466:10659   */\n      pop\n        /* \"#utility.yul\":10390:10659   */\n      pop\n      pop\n      pop\n      jump\t// out\n        /* \"#utility.yul\":10665:10738   */\n    tag_196:\n        /* \"#utility.yul\":10710:10713   */\n      0x00\n        /* \"#utility.yul\":10665:10738   */\n      swap1\n      jump\t// out\n        /* \"#utility.yul\":10744:10933   */\n    tag_197:\n        /* \"#utility.yul\":10821:10853   */\n      tag_325\n      tag_196\n      jump\t// in\n    tag_325:\n        /* \"#utility.yul\":10862:10927   */\n      tag_326\n        /* \"#utility.yul\":10920:10926   */\n      dup2\n        /* \"#utility.yul\":10912:10918   */\n      dup5\n        /* \"#utility.yul\":10906:10910   */\n      dup5\n        /* \"#utility.yul\":10862:10927   */\n      tag_195\n      jump\t// in\n    tag_326:\n        /* \"#utility.yul\":10797:10933   */\n      pop\n        /* \"#utility.yul\":10744:10933   */\n      pop\n      pop\n      jump\t// out\n        /* \"#utility.yul\":10939:11125   */\n    tag_198:\n        /* \"#utility.yul\":10999:11119   */\n    tag_328:\n        /* \"#utility.yul\":11016:11019   */\n      dup2\n        /* \"#utility.yul\":11009:11014   */\n      dup2\n        /* \"#utility.yul\":11006:11020   */\n      lt\n        /* \"#utility.yul\":10999:11119   */\n      iszero\n      tag_330\n      jumpi\n        /* \"#utility.yul\":11070:11109   */\n      tag_331\n        /* \"#utility.yul\":11107:11108   */\n      0x00\n        /* \"#utility.yul\":11100:11105   */\n      dup3\n        /* \"#utility.yul\":11070:11109   */\n      tag_197\n      jump\t// in\n    tag_331:\n        /* \"#utility.yul\":11043:11044   */\n      0x01\n        /* \"#utility.yul\":11036:11041   */\n      dup2\n        /* \"#utility.yul\":11032:11045   */\n      add\n        /* \"#utility.yul\":11023:11045   */\n      swap1\n      pop\n        /* \"#utility.yul\":10999:11119   */\n      jump(tag_328)\n    tag_330:\n        /* \"#utility.yul\":10939:11125   */\n      pop\n      pop\n      jump\t// out\n        /* \"#utility.yul\":11131:11674   */\n    tag_199:\n        /* \"#utility.yul\":11232:11234   */\n      0x1f\n        /* \"#utility.yul\":11227:11230   */\n      dup3\n        /* \"#utility.yul\":11224:11235   */\n      gt\n        /* \"#utility.yul\":11221:11667   */\n      iszero\n      tag_333\n      jumpi\n        /* \"#utility.yul\":11266:11304   */\n      tag_334\n        /* \"#utility.yul\":11298:11303   */\n      dup2\n        /* \"#utility.yul\":11266:11304   */\n      tag_188\n      jump\t// in\n    tag_334:\n        /* \"#utility.yul\":11350:11379   */\n      tag_335\n        /* \"#utility.yul\":11368:11378   */\n      dup5\n        /* \"#utility.yul\":11350:11379   */\n      tag_189\n      jump\t// in\n    tag_335:\n        /* \"#utility.yul\":11340:11348   */\n      dup2\n        /* \"#utility.yul\":11336:11380   */\n      add\n        /* \"#utility.yul\":11533:11535   */\n      0x20\n        /* \"#utility.yul\":11521:11531   */\n      dup6\n        /* \"#utility.yul\":11518:11536   */\n      lt\n        /* \"#utility.yul\":11515:11564   */\n      iszero\n      tag_336\n      jumpi\n        /* \"#utility.yul\":11554:11562   */\n      dup2\n        /* \"#utility.yul\":11539:11562   */\n      swap1\n      pop\n        /* \"#utility.yul\":11515:11564   */\n    tag_336:\n        /* \"#utility.yul\":11577:11657   */\n      tag_337\n        /* \"#utility.yul\":11633:11655   */\n      tag_338\n        /* \"#utility.yul\":11651:11654   */\n      dup6\n        /* \"#utility.yul\":11633:11655   */\n      tag_189\n      jump\t// in\n    tag_338:\n        /* \"#utility.yul\":11623:11631   */\n      dup4\n        /* \"#utility.yul\":11619:11656   */\n      add\n        /* \"#utility.yul\":11606:11617   */\n      dup3\n        /* \"#utility.yul\":11577:11657   */\n      tag_198\n      jump\t// in\n    tag_337:\n        /* \"#utility.yul\":11236:11667   */\n      pop\n      pop\n        /* \"#utility.yul\":11221:11667   */\n    tag_333:\n        /* \"#utility.yul\":11131:11674   */\n      pop\n      pop\n      pop\n      jump\t// out\n        /* \"#utility.yul\":11680:11797   */\n    tag_200:\n        /* \"#utility.yul\":11734:11742   */\n      0x00\n        /* \"#utility.yul\":11784:11789   */\n      dup3\n        /* \"#utility.yul\":11778:11782   */\n      dup3\n        /* \"#utility.yul\":11774:11790   */\n      shr\n        /* \"#utility.yul\":11753:11790   */\n      swap1\n      pop\n        /* \"#utility.yul\":11680:11797   */\n      swap3\n      swap2\n      pop\n      pop\n      jump\t// out\n        /* \"#utility.yul\":11803:11972   */\n    tag_201:\n        /* \"#utility.yul\":11847:11853   */\n      0x00\n        /* \"#utility.yul\":11880:11931   */\n      tag_341\n        /* \"#utility.yul\":11928:11929   */\n      0x00\n        /* \"#utility.yul\":11924:11930   */\n      not\n        /* \"#utility.yul\":11916:11921   */\n      dup5\n        /* \"#utility.yul\":11913:11914   */\n      0x08\n        /* \"#utility.yul\":11909:11922   */\n      mul\n        /* \"#utility.yul\":11880:11931   */\n      tag_200\n      jump\t// in\n    tag_341:\n        /* \"#utility.yul\":11876:11932   */\n      not\n        /* \"#utility.yul\":11961:11965   */\n      dup1\n        /* \"#utility.yul\":11955:11959   */\n      dup4\n        /* \"#utility.yul\":11951:11966   */\n      and\n        /* \"#utility.yul\":11941:11966   */\n      swap2\n      pop\n        /* \"#utility.yul\":11854:11972   */\n      pop\n        /* \"#utility.yul\":11803:11972   */\n      swap3\n      swap2\n      pop\n      pop\n      jump\t// out\n        /* \"#utility.yul\":11977:12272   */\n    tag_202:\n        /* \"#utility.yul\":12053:12057   */\n      0x00\n        /* \"#utility.yul\":12199:12228   */\n      tag_343\n        /* \"#utility.yul\":12224:12227   */\n      dup4\n        /* \"#utility.yul\":12218:12222   */\n      dup4\n        /* \"#utility.yul\":12199:12228   */\n      tag_201\n      jump\t// in\n    tag_343:\n        /* \"#utility.yul\":12191:12228   */\n      swap2\n      pop\n        /* \"#utility.yul\":12261:12264   */\n      dup3\n        /* \"#utility.yul\":12258:12259   */\n      0x02\n        /* \"#utility.yul\":12254:12265   */\n      mul\n        /* \"#utility.yul\":12248:12252   */\n      dup3\n        /* \"#utility.yul\":12245:12266   */\n      or\n        /* \"#utility.yul\":12237:12266   */\n      swap1\n      pop\n        /* \"#utility.yul\":11977:12272   */\n      swap3\n      swap2\n      pop\n      pop\n      jump\t// out\n        /* \"#utility.yul\":12277:13680   */\n    tag_137:\n        /* \"#utility.yul\":12401:12445   */\n      tag_345\n        /* \"#utility.yul\":12441:12444   */\n      dup4\n        /* \"#utility.yul\":12436:12439   */\n      dup4\n        /* \"#utility.yul\":12401:12445   */\n      tag_186\n      jump\t// in\n    tag_345:\n        /* \"#utility.yul\":12510:12528   */\n      0xffffffffffffffff\n        /* \"#utility.yul\":12502:12508   */\n      dup2\n        /* \"#utility.yul\":12499:12529   */\n      gt\n        /* \"#utility.yul\":12496:12552   */\n      iszero\n      tag_346\n      jumpi\n        /* \"#utility.yul\":12532:12550   */\n      tag_347\n      tag_187\n      jump\t// in\n    tag_347:\n        /* \"#utility.yul\":12496:12552   */\n    tag_346:\n        /* \"#utility.yul\":12576:12614   */\n      tag_348\n        /* \"#utility.yul\":12608:12612   */\n      dup3\n        /* \"#utility.yul\":12602:12613   */\n      sload\n        /* \"#utility.yul\":12576:12614   */\n      tag_104\n      jump\t// in\n    tag_348:\n        /* \"#utility.yul\":12661:12728   */\n      tag_349\n        /* \"#utility.yul\":12721:12727   */\n      dup3\n        /* \"#utility.yul\":12713:12719   */\n      dup3\n        /* \"#utility.yul\":12707:12711   */\n      dup6\n        /* \"#utility.yul\":12661:12728   */\n      tag_199\n      jump\t// in\n    tag_349:\n        /* \"#utility.yul\":12755:12756   */\n      0x00\n        /* \"#utility.yul\":12784:12786   */\n      0x1f\n        /* \"#utility.yul\":12776:12782   */\n      dup4\n        /* \"#utility.yul\":12773:12787   */\n      gt\n        /* \"#utility.yul\":12801:12802   */\n      0x01\n        /* \"#utility.yul\":12796:13428   */\n      dup2\n      eq\n      tag_351\n      jumpi\n        /* \"#utility.yul\":13472:13473   */\n      0x00\n        /* \"#utility.yul\":13489:13495   */\n      dup5\n        /* \"#utility.yul\":13486:13570   */\n      iszero\n      tag_352\n      jumpi\n        /* \"#utility.yul\":13545:13554   */\n      dup3\n        /* \"#utility.yul\":13540:13543   */\n      dup8\n        /* \"#utility.yul\":13536:13555   */\n      add\n        /* \"#utility.yul\":13523:13556   */\n      calldataload\n        /* \"#utility.yul\":13514:13556   */\n      swap1\n      pop\n        /* \"#utility.yul\":13486:13570   */\n    tag_352:\n        /* \"#utility.yul\":13596:13663   */\n      tag_353\n        /* \"#utility.yul\":13656:13662   */\n      dup6\n        /* \"#utility.yul\":13649:13654   */\n      dup3\n        /* \"#utility.yul\":13596:13663   */\n      tag_202\n      jump\t// in\n    tag_353:\n        /* \"#utility.yul\":13590:13594   */\n      dup7\n        /* \"#utility.yul\":13583:13664   */\n      sstore\n        /* \"#utility.yul\":13445:13674   */\n      pop\n        /* \"#utility.yul\":12766:13674   */\n      jump(tag_350)\n        /* \"#utility.yul\":12796:13428   */\n    tag_351:\n        /* \"#utility.yul\":12848:12852   */\n      0x1f\n        /* \"#utility.yul\":12844:12853   */\n      not\n        /* \"#utility.yul\":12836:12842   */\n      dup5\n        /* \"#utility.yul\":12832:12854   */\n      and\n        /* \"#utility.yul\":12882:12919   */\n      tag_354\n        /* \"#utility.yul\":12914:12918   */\n      dup7\n        /* \"#utility.yul\":12882:12919   */\n      tag_188\n      jump\t// in\n    tag_354:\n        /* \"#utility.yul\":12941:12942   */\n      0x00\n        /* \"#utility.yul\":12955:13170   */\n    tag_355:\n        /* \"#utility.yul\":12969:12976   */\n      dup3\n        /* \"#utility.yul\":12966:12967   */\n      dup2\n        /* \"#utility.yul\":12963:12977   */\n      lt\n        /* \"#utility.yul\":12955:13170   */\n      iszero\n      tag_357\n      jumpi\n        /* \"#utility.yul\":13055:13064   */\n      dup5\n        /* \"#utility.yul\":13050:13053   */\n      dup10\n        /* \"#utility.yul\":13046:13065   */\n      add\n        /* \"#utility.yul\":13033:13066   */\n      calldataload\n        /* \"#utility.yul\":13025:13031   */\n      dup3\n        /* \"#utility.yul\":13018:13067   */\n      sstore\n        /* \"#utility.yul\":13106:13107   */\n      0x01\n        /* \"#utility.yul\":13098:13104   */\n      dup3\n        /* \"#utility.yul\":13094:13108   */\n      add\n        /* \"#utility.yul\":13084:13108   */\n      swap2\n      pop\n        /* \"#utility.yul\":13153:13155   */\n      0x20\n        /* \"#utility.yul\":13142:13151   */\n      dup6\n        /* \"#utility.yul\":13138:13156   */\n      add\n        /* \"#utility.yul\":13125:13156   */\n      swap5\n      pop\n        /* \"#utility.yul\":12992:12996   */\n      0x20\n        /* \"#utility.yul\":12989:12990   */\n      dup2\n        /* \"#utility.yul\":12985:12997   */\n      add\n        /* \"#utility.yul\":12980:12997   */\n      swap1\n      pop\n        /* \"#utility.yul\":12955:13170   */\n      jump(tag_355)\n    tag_357:\n        /* \"#utility.yul\":13198:13204   */\n      dup7\n        /* \"#utility.yul\":13189:13196   */\n      dup4\n        /* \"#utility.yul\":13186:13205   */\n      lt\n        /* \"#utility.yul\":13183:13369   */\n      iszero\n      tag_358\n      jumpi\n        /* \"#utility.yul\":13263:13272   */\n      dup5\n        /* \"#utility.yul\":13258:13261   */\n      dup10\n        /* \"#utility.yul\":13254:13273   */\n      add\n        /* \"#utility.yul\":13241:13274   */\n      calldataload\n        /* \"#utility.yul\":13306:13354   */\n      tag_359\n        /* \"#utility.yul\":13348:13352   */\n      0x1f\n        /* \"#utility.yul\":13340:13346   */\n      dup10\n        /* \"#utility.yul\":13336:13353   */\n      and\n        /* \"#utility.yul\":13325:13334   */\n      dup3\n        /* \"#utility.yul\":13306:13354   */\n      tag_201\n      jump\t// in\n    tag_359:\n        /* \"#utility.yul\":13298:13304   */\n      dup4\n        /* \"#utility.yul\":13291:13355   */\n      sstore\n        /* \"#utility.yul\":13206:13369   */\n      pop\n        /* \"#utility.yul\":13183:13369   */\n    tag_358:\n        /* \"#utility.yul\":13415:13416   */\n      0x01\n        /* \"#utility.yul\":13411:13412   */\n      0x02\n        /* \"#utility.yul\":13403:13409   */\n      dup9\n        /* \"#utility.yul\":13399:13413   */\n      mul\n        /* \"#utility.yul\":13395:13417   */\n      add\n        /* \"#utility.yul\":13389:13393   */\n      dup9\n        /* \"#utility.yul\":13382:13418   */\n      sstore\n        /* \"#utility.yul\":12803:13428   */\n      pop\n      pop\n      pop\n        /* \"#utility.yul\":12766:13674   */\n    tag_350:\n      pop\n        /* \"#utility.yul\":12376:13680   */\n      pop\n      pop\n      pop\n        /* \"#utility.yul\":12277:13680   */\n      pop\n      pop\n      pop\n      jump\t// out\n\n    auxdata: 0xa264697066735822122009696983bf59e133b48769facd7ce63af6d84d865415a2d871acf9c1d57a728064736f6c63430008120033\n}\n",
				"bytecode": {
					"linkReferences": {},
					"object": "608060405234801561001057600080fd5b50336000806101000a81548173ffffffffffffffffffffffffffffffffffffffff021916908373ffffffffffffffffffffffffffffffffffffffff160217905550611351806100606000396000f3fe608060405234801561001057600080fd5b50600436106101215760003560e01c80638da5cb5b116100ad578063c1f4f85511610071578063c1f4f85514610318578063c28388fa14610348578063d7a1ab3c14610364578063e6e210ba14610382578063f2940a43146103b257610121565b80638da5cb5b146102625780639155e45b146102805780639f285f061461029c5780639f79e280146102cc578063a022be05146102fc57610121565b8063244ded7a116100f4578063244ded7a146101ae57806327757d40146101ca5780632b6952e6146101fa5780635789726a1461022a57806378fb654a1461024657610121565b806304a3f39314610126578063060795511461014257806306fdde03146101725780630b940f6a14610190575b600080fd5b610140600480360381019061013b9190610bf7565b6103d0565b005b61015c60048036038101906101579190610bf7565b610468565b6040516101699190610c33565b60405180910390f35b61017a610480565b6040516101879190610cde565b60405180910390f35b61019861050e565b6040516101a59190610cde565b60405180910390f35b6101c860048036038101906101c39190610d5e565b61059c565b005b6101e460048036038101906101df9190610bf7565b61066d565b6040516101f19190610d9a565b60405180910390f35b610214600480360381019061020f9190610bf7565b6106ac565b6040516102219190610d9a565b60405180910390f35b610244600480360381019061023f9190610e1a565b6106eb565b005b610260600480360381019061025b9190610e9f565b61078f565b005b61026a61083a565b6040516102779190610d9a565b60405180910390f35b61029a60048036038101906102959190610f22565b61085e565b005b6102b660048036038101906102b19190610d5e565b610902565b6040516102c39190610f7e565b60405180910390f35b6102e660048036038101906102e19190610bf7565b610922565b6040516102f39190610c33565b60405180910390f35b61031660048036038101906103119190610e1a565b61093a565b005b610332600480360381019061032d9190610bf7565b6109de565b60405161033f9190610d9a565b60405180910390f35b610362600480360381019061035d9190610e1a565b610a1d565b005b61036c610ac1565b6040516103799190610c33565b60405180910390f35b61039c60048036038101906103979190610d5e565b610ac7565b6040516103a99190610f7e565b60405180910390f35b6103ba610ae7565b6040516103c79190610f7e565b60405180910390f35b60008054906101000a900473ffffffffffffffffffffffffffffffffffffffff1673ffffffffffffffffffffffffffffffffffffffff163373ffffffffffffffffffffffffffffffffffffffff161461045e576040517f08c379a000000000000000000000000000000000000000000000000000000000815260040161045590610fe5565b60405180910390fd5b8060098190555050565b60056020528060005260406000206000915090505481565b6001805461048d90611034565b80601f01602080910402602001604051908101604052809291908181526020018280546104b990611034565b80156105065780601f106104db57610100808354040283529160200191610506565b820191906000526020600020905b8154815290600101906020018083116104e957829003601f168201915b505050505081565b600a805461051b90611034565b80601f016020809104026020016040519081016040528092919081815260200182805461054790611034565b80156105945780601f1061056957610100808354040283529160200191610594565b820191906000526020600020905b81548152906001019060200180831161057757829003601f168201915b505050505081565b60008054906101000a900473ffffffffffffffffffffffffffffffffffffffff1673ffffffffffffffffffffffffffffffffffffffff163373ffffffffffffffffffffffffffffffffffffffff161461062a576040517f08c379a000000000000000000000000000000000000000000000000000000000815260040161062190610fe5565b60405180910390fd5b806000806101000a81548173ffffffffffffffffffffffffffffffffffffffff021916908373ffffffffffffffffffffffffffffffffffffffff16021790555050565b6006818154811061067d57600080fd5b906000526020600020016000915054906101000a900473ffffffffffffffffffffffffffffffffffffffff1681565b600881815481106106bc57600080fd5b906000526020600020016000915054906101000a900473ffffffffffffffffffffffffffffffffffffffff1681565b60008054906101000a900473ffffffffffffffffffffffffffffffffffffffff1673ffffffffffffffffffffffffffffffffffffffff163373ffffffffffffffffffffffffffffffffffffffff1614610779576040517f08c379a000000000000000000000000000000000000000000000000000000000815260040161077090610fe5565b60405180910390fd5b81816006919061078a929190610afa565b505050565b60008054906101000a900473ffffffffffffffffffffffffffffffffffffffff1673ffffffffffffffffffffffffffffffffffffffff163373ffffffffffffffffffffffffffffffffffffffff161461081d576040517f08c379a000000000000000000000000000000000000000000000000000000000815260040161081490610fe5565b60405180910390fd5b80600060146101000a81548160ff02191690831515021790555050565b60008054906101000a900473ffffffffffffffffffffffffffffffffffffffff1681565b60008054906101000a900473ffffffffffffffffffffffffffffffffffffffff1673ffffffffffffffffffffffffffffffffffffffff163373ffffffffffffffffffffffffffffffffffffffff16146108ec576040517f08c379a00000000000000000000000000000000000000000000000000000000081526004016108e390610fe5565b60405180910390fd5b8181600191826108fd92919061124b565b505050565b60036020528060005260406000206000915054906101000a900460ff1681565b60046020528060005260406000206000915090505481565b60008054906101000a900473ffffffffffffffffffffffffffffffffffffffff1673ffffffffffffffffffffffffffffffffffffffff163373ffffffffffffffffffffffffffffffffffffffff16146109c8576040517f08c379a00000000000000000000000000000000000000000000000000000000081526004016109bf90610fe5565b60405180910390fd5b8181600691906109d9929190610afa565b505050565b600781815481106109ee57600080fd5b906000526020600020016000915054906101000a900473ffffffffffffffffffffffffffffffffffffffff1681565b60008054906101000a900473ffffffffffffffffffffffffffffffffffffffff1673ffffffffffffffffffffffffffffffffffffffff163373ffffffffffffffffffffffffffffffffffffffff1614610aab576040517f08c379a0000000000000000000000000000000000000000000000000000000008152600401610aa290610fe5565b60405180910390fd5b818160069190610abc929190610afa565b505050565b60095481565b60026020528060005260406000206000915054906101000a900460ff1681565b600060149054906101000a900460ff1681565b828054828255906000526020600020908101928215610b89579160200282015b82811115610b8857823573ffffffffffffffffffffffffffffffffffffffff168260006101000a81548173ffffffffffffffffffffffffffffffffffffffff021916908373ffffffffffffffffffffffffffffffffffffffff16021790555091602001919060010190610b1a565b5b509050610b969190610b9a565b5090565b5b80821115610bb3576000816000905550600101610b9b565b5090565b600080fd5b600080fd5b6000819050919050565b610bd481610bc1565b8114610bdf57600080fd5b50565b600081359050610bf181610bcb565b92915050565b600060208284031215610c0d57610c0c610bb7565b5b6000610c1b84828501610be2565b91505092915050565b610c2d81610bc1565b82525050565b6000602082019050610c486000830184610c24565b92915050565b600081519050919050565b600082825260208201905092915050565b60005b83811015610c88578082015181840152602081019050610c6d565b60008484015250505050565b6000601f19601f8301169050919050565b6000610cb082610c4e565b610cba8185610c59565b9350610cca818560208601610c6a565b610cd381610c94565b840191505092915050565b60006020820190508181036000830152610cf88184610ca5565b905092915050565b600073ffffffffffffffffffffffffffffffffffffffff82169050919050565b6000610d2b82610d00565b9050919050565b610d3b81610d20565b8114610d4657600080fd5b50565b600081359050610d5881610d32565b92915050565b600060208284031215610d7457610d73610bb7565b5b6000610d8284828501610d49565b91505092915050565b610d9481610d20565b82525050565b6000602082019050610daf6000830184610d8b565b92915050565b600080fd5b600080fd5b600080fd5b60008083601f840112610dda57610dd9610db5565b5b8235905067ffffffffffffffff811115610df757610df6610dba565b5b602083019150836020820283011115610e1357610e12610dbf565b5b9250929050565b60008060208385031215610e3157610e30610bb7565b5b600083013567ffffffffffffffff811115610e4f57610e4e610bbc565b5b610e5b85828601610dc4565b92509250509250929050565b60008115159050919050565b610e7c81610e67565b8114610e8757600080fd5b50565b600081359050610e9981610e73565b92915050565b600060208284031215610eb557610eb4610bb7565b5b6000610ec384828501610e8a565b91505092915050565b60008083601f840112610ee257610ee1610db5565b5b8235905067ffffffffffffffff811115610eff57610efe610dba565b5b602083019150836001820283011115610f1b57610f1a610dbf565b5b9250929050565b60008060208385031215610f3957610f38610bb7565b5b600083013567ffffffffffffffff811115610f5757610f56610bbc565b5b610f6385828601610ecc565b92509250509250929050565b610f7881610e67565b82525050565b6000602082019050610f936000830184610f6f565b92915050565b7f63616c6c6572206d757374206265206f776e6572000000000000000000000000600082015250565b6000610fcf601483610c59565b9150610fda82610f99565b602082019050919050565b60006020820190508181036000830152610ffe81610fc2565b9050919050565b7f4e487b7100000000000000000000000000000000000000000000000000000000600052602260045260246000fd5b6000600282049050600182168061104c57607f821691505b60208210810361105f5761105e611005565b5b50919050565b600082905092915050565b7f4e487b7100000000000000000000000000000000000000000000000000000000600052604160045260246000fd5b60008190508160005260206000209050919050565b60006020601f8301049050919050565b600082821b905092915050565b6000600883026111017fffffffffffffffffffffffffffffffffffffffffffffffffffffffffffffffff826110c4565b61110b86836110c4565b95508019841693508086168417925050509392505050565b6000819050919050565b600061114861114361113e84610bc1565b611123565b610bc1565b9050919050565b6000819050919050565b6111628361112d565b61117661116e8261114f565b8484546110d1565b825550505050565b600090565b61118b61117e565b611196818484611159565b505050565b5b818110156111ba576111af600082611183565b60018101905061119c565b5050565b601f8211156111ff576111d08161109f565b6111d9846110b4565b810160208510156111e8578190505b6111fc6111f4856110b4565b83018261119b565b50505b505050565b600082821c905092915050565b600061122260001984600802611204565b1980831691505092915050565b600061123b8383611211565b9150826002028217905092915050565b6112558383611065565b67ffffffffffffffff81111561126e5761126d611070565b5b6112788254611034565b6112838282856111be565b6000601f8311600181146112b257600084156112a0578287013590505b6112aa858261122f565b865550611312565b601f1984166112c08661109f565b60005b828110156112e8578489013582556001820191506020850194506020810190506112c3565b868310156113055784890135611301601f891682611211565b8355505b6001600288020188555050505b5050505050505056fea264697066735822122009696983bf59e133b48769facd7ce63af6d84d865415a2d871acf9c1d57a728064736f6c63430008120033",
					"opcodes": "PUSH1 0x80 PUSH1 0x40 MSTORE CALLVALUE DUP1 ISZERO PUSH2 0x10 JUMPI PUSH1 0x0 DUP1 REVERT JUMPDEST POP CALLER PUSH1 0x0 DUP1 PUSH2 0x100 EXP DUP2 SLOAD DUP2 PUSH20 0xFFFFFFFFFFFFFFFFFFFFFFFFFFFFFFFFFFFFFFFF MUL NOT AND SWAP1 DUP4 PUSH20 0xFFFFFFFFFFFFFFFFFFFFFFFFFFFFFFFFFFFFFFFF AND MUL OR SWAP1 SSTORE POP PUSH2 0x1351 DUP1 PUSH2 0x60 PUSH1 0x0 CODECOPY PUSH1 0x0 RETURN INVALID PUSH1 0x80 PUSH1 0x40 MSTORE CALLVALUE DUP1 ISZERO PUSH2 0x10 JUMPI PUSH1 0x0 DUP1 REVERT JUMPDEST POP PUSH1 0x4 CALLDATASIZE LT PUSH2 0x121 JUMPI PUSH1 0x0 CALLDATALOAD PUSH1 0xE0 SHR DUP1 PUSH4 0x8DA5CB5B GT PUSH2 0xAD JUMPI DUP1 PUSH4 0xC1F4F855 GT PUSH2 0x71 JUMPI DUP1 PUSH4 0xC1F4F855 EQ PUSH2 0x318 JUMPI DUP1 PUSH4 0xC28388FA EQ PUSH2 0x348 JUMPI DUP1 PUSH4 0xD7A1AB3C EQ PUSH2 0x364 JUMPI DUP1 PUSH4 0xE6E210BA EQ PUSH2 0x382 JUMPI DUP1 PUSH4 0xF2940A43 EQ PUSH2 0x3B2 JUMPI PUSH2 0x121 JUMP JUMPDEST DUP1 PUSH4 0x8DA5CB5B EQ PUSH2 0x262 JUMPI DUP1 PUSH4 0x9155E45B EQ PUSH2 0x280 JUMPI DUP1 PUSH4 0x9F285F06 EQ PUSH2 0x29C JUMPI DUP1 PUSH4 0x9F79E280 EQ PUSH2 0x2CC JUMPI DUP1 PUSH4 0xA022BE05 EQ PUSH2 0x2FC JUMPI PUSH2 0x121 JUMP JUMPDEST DUP1 PUSH4 0x244DED7A GT PUSH2 0xF4 JUMPI DUP1 PUSH4 0x244DED7A EQ PUSH2 0x1AE JUMPI DUP1 PUSH4 0x27757D40 EQ PUSH2 0x1CA JUMPI DUP1 PUSH4 0x2B6952E6 EQ PUSH2 0x1FA JUMPI DUP1 PUSH4 0x5789726A EQ PUSH2 0x22A JUMPI DUP1 PUSH4 0x78FB654A EQ PUSH2 0x246 JUMPI PUSH2 0x121 JUMP JUMPDEST DUP1 PUSH4 0x4A3F393 EQ PUSH2 0x126 JUMPI DUP1 PUSH4 0x6079551 EQ PUSH2 0x142 JUMPI DUP1 PUSH4 0x6FDDE03 EQ PUSH2 0x172 JUMPI DUP1 PUSH4 0xB940F6A EQ PUSH2 0x190 JUMPI JUMPDEST PUSH1 0x0 DUP1 REVERT JUMPDEST PUSH2 0x140 PUSH1 0x4 DUP1 CALLDATASIZE SUB DUP2 ADD SWAP1 PUSH2 0x13B SWAP2 SWAP1 PUSH2 0xBF7 JUMP JUMPDEST PUSH2 0x3D0 JUMP JUMPDEST STOP JUMPDEST PUSH2 0x15C PUSH1 0x4 DUP1 CALLDATASIZE SUB DUP2 ADD SWAP1 PUSH2 0x157 SWAP2 SWAP1 PUSH2 0xBF7 JUMP JUMPDEST PUSH2 0x468 JUMP JUMPDEST PUSH1 0x40 MLOAD PUSH2 0x169 SWAP2 SWAP1 PUSH2 0xC33 JUMP JUMPDEST PUSH1 0x40 MLOAD DUP1 SWAP2 SUB SWAP1 RETURN JUMPDEST PUSH2 0x17A PUSH2 0x480 JUMP JUMPDEST PUSH1 0x40 MLOAD PUSH2 0x187 SWAP2 SWAP1 PUSH2 0xCDE JUMP JUMPDEST PUSH1 0x40 MLOAD DUP1 SWAP2 SUB SWAP1 RETURN JUMPDEST PUSH2 0x198 PUSH2 0x50E JUMP JUMPDEST PUSH1 0x40 MLOAD PUSH2 0x1A5 SWAP2 SWAP1 PUSH2 0xCDE JUMP JUMPDEST PUSH1 0x40 MLOAD DUP1 SWAP2 SUB SWAP1 RETURN JUMPDEST PUSH2 0x1C8 PUSH1 0x4 DUP1 CALLDATASIZE SUB DUP2 ADD SWAP1 PUSH2 0x1C3 SWAP2 SWAP1 PUSH2 0xD5E JUMP JUMPDEST PUSH2 0x59C JUMP JUMPDEST STOP JUMPDEST PUSH2 0x1E4 PUSH1 0x4 DUP1 CALLDATASIZE SUB DUP2 ADD SWAP1 PUSH2 0x1DF SWAP2 SWAP1 PUSH2 0xBF7 JUMP JUMPDEST PUSH2 0x66D JUMP JUMPDEST PUSH1 0x40 MLOAD PUSH2 0x1F1 SWAP2 SWAP1 PUSH2 0xD9A JUMP JUMPDEST PUSH1 0x40 MLOAD DUP1 SWAP2 SUB SWAP1 RETURN JUMPDEST PUSH2 0x214 PUSH1 0x4 DUP1 CALLDATASIZE SUB DUP2 ADD SWAP1 PUSH2 0x20F SWAP2 SWAP1 PUSH2 0xBF7 JUMP JUMPDEST PUSH2 0x6AC JUMP JUMPDEST PUSH1 0x40 MLOAD PUSH2 0x221 SWAP2 SWAP1 PUSH2 0xD9A JUMP JUMPDEST PUSH1 0x40 MLOAD DUP1 SWAP2 SUB SWAP1 RETURN JUMPDEST PUSH2 0x244 PUSH1 0x4 DUP1 CALLDATASIZE SUB DUP2 ADD SWAP1 PUSH2 0x23F SWAP2 SWAP1 PUSH2 0xE1A JUMP JUMPDEST PUSH2 0x6EB JUMP JUMPDEST STOP JUMPDEST PUSH2 0x260 PUSH1 0x4 DUP1 CALLDATASIZE SUB DUP2 ADD SWAP1 PUSH2 0x25B SWAP2 SWAP1 PUSH2 0xE9F JUMP JUMPDEST PUSH2 0x78F JUMP JUMPDEST STOP JUMPDEST PUSH2 0x26A PUSH2 0x83A JUMP JUMPDEST PUSH1 0x40 MLOAD PUSH2 0x277 SWAP2 SWAP1 PUSH2 0xD9A JUMP JUMPDEST PUSH1 0x40 MLOAD DUP1 SWAP2 SUB SWAP1 RETURN JUMPDEST PUSH2 0x29A PUSH1 0x4 DUP1 CALLDATASIZE SUB DUP2 ADD SWAP1 PUSH2 0x295 SWAP2 SWAP1 PUSH2 0xF22 JUMP JUMPDEST PUSH2 0x85E JUMP JUMPDEST STOP JUMPDEST PUSH2 0x2B6 PUSH1 0x4 DUP1 CALLDATASIZE SUB DUP2 ADD SWAP1 PUSH2 0x2B1 SWAP2 SWAP1 PUSH2 0xD5E JUMP JUMPDEST PUSH2 0x902 JUMP JUMPDEST PUSH1 0x40 MLOAD PUSH2 0x2C3 SWAP2 SWAP1 PUSH2 0xF7E JUMP JUMPDEST PUSH1 0x40 MLOAD DUP1 SWAP2 SUB SWAP1 RETURN JUMPDEST PUSH2 0x2E6 PUSH1 0x4 DUP1 CALLDATASIZE SUB DUP2 ADD SWAP1 PUSH2 0x2E1 SWAP2 SWAP1 PUSH2 0xBF7 JUMP JUMPDEST PUSH2 0x922 JUMP JUMPDEST PUSH1 0x40 MLOAD PUSH2 0x2F3 SWAP2 SWAP1 PUSH2 0xC33 JUMP JUMPDEST PUSH1 0x40 MLOAD DUP1 SWAP2 SUB SWAP1 RETURN JUMPDEST PUSH2 0x316 PUSH1 0x4 DUP1 CALLDATASIZE SUB DUP2 ADD SWAP1 PUSH2 0x311 SWAP2 SWAP1 PUSH2 0xE1A JUMP JUMPDEST PUSH2 0x93A JUMP JUMPDEST STOP JUMPDEST PUSH2 0x332 PUSH1 0x4 DUP1 CALLDATASIZE SUB DUP2 ADD SWAP1 PUSH2 0x32D SWAP2 SWAP1 PUSH2 0xBF7 JUMP JUMPDEST PUSH2 0x9DE JUMP JUMPDEST PUSH1 0x40 MLOAD PUSH2 0x33F SWAP2 SWAP1 PUSH2 0xD9A JUMP JUMPDEST PUSH1 0x40 MLOAD DUP1 SWAP2 SUB SWAP1 RETURN JUMPDEST PUSH2 0x362 PUSH1 0x4 DUP1 CALLDATASIZE SUB DUP2 ADD SWAP1 PUSH2 0x35D SWAP2 SWAP1 PUSH2 0xE1A JUMP JUMPDEST PUSH2 0xA1D JUMP JUMPDEST STOP JUMPDEST PUSH2 0x36C PUSH2 0xAC1 JUMP JUMPDEST PUSH1 0x40 MLOAD PUSH2 0x379 SWAP2 SWAP1 PUSH2 0xC33 JUMP JUMPDEST PUSH1 0x40 MLOAD DUP1 SWAP2 SUB SWAP1 RETURN JUMPDEST PUSH2 0x39C PUSH1 0x4 DUP1 CALLDATASIZE SUB DUP2 ADD SWAP1 PUSH2 0x397 SWAP2 SWAP1 PUSH2 0xD5E JUMP JUMPDEST PUSH2 0xAC7 JUMP JUMPDEST PUSH1 0x40 MLOAD PUSH2 0x3A9 SWAP2 SWAP1 PUSH2 0xF7E JUMP JUMPDEST PUSH1 0x40 MLOAD DUP1 SWAP2 SUB SWAP1 RETURN JUMPDEST PUSH2 0x3BA PUSH2 0xAE7 JUMP JUMPDEST PUSH1 0x40 MLOAD PUSH2 0x3C7 SWAP2 SWAP1 PUSH2 0xF7E JUMP JUMPDEST PUSH1 0x40 MLOAD DUP1 SWAP2 SUB SWAP1 RETURN JUMPDEST PUSH1 0x0 DUP1 SLOAD SWAP1 PUSH2 0x100 EXP SWAP1 DIV PUSH20 0xFFFFFFFFFFFFFFFFFFFFFFFFFFFFFFFFFFFFFFFF AND PUSH20 0xFFFFFFFFFFFFFFFFFFFFFFFFFFFFFFFFFFFFFFFF AND CALLER PUSH20 0xFFFFFFFFFFFFFFFFFFFFFFFFFFFFFFFFFFFFFFFF AND EQ PUSH2 0x45E JUMPI PUSH1 0x40 MLOAD PUSH32 0x8C379A000000000000000000000000000000000000000000000000000000000 DUP2 MSTORE PUSH1 0x4 ADD PUSH2 0x455 SWAP1 PUSH2 0xFE5 JUMP JUMPDEST PUSH1 0x40 MLOAD DUP1 SWAP2 SUB SWAP1 REVERT JUMPDEST DUP1 PUSH1 0x9 DUP2 SWAP1 SSTORE POP POP JUMP JUMPDEST PUSH1 0x5 PUSH1 0x20 MSTORE DUP1 PUSH1 0x0 MSTORE PUSH1 0x40 PUSH1 0x0 KECCAK256 PUSH1 0x0 SWAP2 POP SWAP1 POP SLOAD DUP2 JUMP JUMPDEST PUSH1 0x1 DUP1 SLOAD PUSH2 0x48D SWAP1 PUSH2 0x1034 JUMP JUMPDEST DUP1 PUSH1 0x1F ADD PUSH1 0x20 DUP1 SWAP2 DIV MUL PUSH1 0x20 ADD PUSH1 0x40 MLOAD SWAP1 DUP2 ADD PUSH1 0x40 MSTORE DUP1 SWAP3 SWAP2 SWAP1 DUP2 DUP2 MSTORE PUSH1 0x20 ADD DUP3 DUP1 SLOAD PUSH2 0x4B9 SWAP1 PUSH2 0x1034 JUMP JUMPDEST DUP1 ISZERO PUSH2 0x506 JUMPI DUP1 PUSH1 0x1F LT PUSH2 0x4DB JUMPI PUSH2 0x100 DUP1 DUP4 SLOAD DIV MUL DUP4 MSTORE SWAP2 PUSH1 0x20 ADD SWAP2 PUSH2 0x506 JUMP JUMPDEST DUP3 ADD SWAP2 SWAP1 PUSH1 0x0 MSTORE PUSH1 0x20 PUSH1 0x0 KECCAK256 SWAP1 JUMPDEST DUP2 SLOAD DUP2 MSTORE SWAP1 PUSH1 0x1 ADD SWAP1 PUSH1 0x20 ADD DUP1 DUP4 GT PUSH2 0x4E9 JUMPI DUP3 SWAP1 SUB PUSH1 0x1F AND DUP3 ADD SWAP2 JUMPDEST POP POP POP POP POP DUP2 JUMP JUMPDEST PUSH1 0xA DUP1 SLOAD PUSH2 0x51B SWAP1 PUSH2 0x1034 JUMP JUMPDEST DUP1 PUSH1 0x1F ADD PUSH1 0x20 DUP1 SWAP2 DIV MUL PUSH1 0x20 ADD PUSH1 0x40 MLOAD SWAP1 DUP2 ADD PUSH1 0x40 MSTORE DUP1 SWAP3 SWAP2 SWAP1 DUP2 DUP2 MSTORE PUSH1 0x20 ADD DUP3 DUP1 SLOAD PUSH2 0x547 SWAP1 PUSH2 0x1034 JUMP JUMPDEST DUP1 ISZERO PUSH2 0x594 JUMPI DUP1 PUSH1 0x1F LT PUSH2 0x569 JUMPI PUSH2 0x100 DUP1 DUP4 SLOAD DIV MUL DUP4 MSTORE SWAP2 PUSH1 0x20 ADD SWAP2 PUSH2 0x594 JUMP JUMPDEST DUP3 ADD SWAP2 SWAP1 PUSH1 0x0 MSTORE PUSH1 0x20 PUSH1 0x0 KECCAK256 SWAP1 JUMPDEST DUP2 SLOAD DUP2 MSTORE SWAP1 PUSH1 0x1 ADD SWAP1 PUSH1 0x20 ADD DUP1 DUP4 GT PUSH2 0x577 JUMPI DUP3 SWAP1 SUB PUSH1 0x1F AND DUP3 ADD SWAP2 JUMPDEST POP POP POP POP POP DUP2 JUMP JUMPDEST PUSH1 0x0 DUP1 SLOAD SWAP1 PUSH2 0x100 EXP SWAP1 DIV PUSH20 0xFFFFFFFFFFFFFFFFFFFFFFFFFFFFFFFFFFFFFFFF AND PUSH20 0xFFFFFFFFFFFFFFFFFFFFFFFFFFFFFFFFFFFFFFFF AND CALLER PUSH20 0xFFFFFFFFFFFFFFFFFFFFFFFFFFFFFFFFFFFFFFFF AND EQ PUSH2 0x62A JUMPI PUSH1 0x40 MLOAD PUSH32 0x8C379A000000000000000000000000000000000000000000000000000000000 DUP2 MSTORE PUSH1 0x4 ADD PUSH2 0x621 SWAP1 PUSH2 0xFE5 JUMP JUMPDEST PUSH1 0x40 MLOAD DUP1 SWAP2 SUB SWAP1 REVERT JUMPDEST DUP1 PUSH1 0x0 DUP1 PUSH2 0x100 EXP DUP2 SLOAD DUP2 PUSH20 0xFFFFFFFFFFFFFFFFFFFFFFFFFFFFFFFFFFFFFFFF MUL NOT AND SWAP1 DUP4 PUSH20 0xFFFFFFFFFFFFFFFFFFFFFFFFFFFFFFFFFFFFFFFF AND MUL OR SWAP1 SSTORE POP POP JUMP JUMPDEST PUSH1 0x6 DUP2 DUP2 SLOAD DUP2 LT PUSH2 0x67D JUMPI PUSH1 0x0 DUP1 REVERT JUMPDEST SWAP1 PUSH1 0x0 MSTORE PUSH1 0x20 PUSH1 0x0 KECCAK256 ADD PUSH1 0x0 SWAP2 POP SLOAD SWAP1 PUSH2 0x100 EXP SWAP1 DIV PUSH20 0xFFFFFFFFFFFFFFFFFFFFFFFFFFFFFFFFFFFFFFFF AND DUP2 JUMP JUMPDEST PUSH1 0x8 DUP2 DUP2 SLOAD DUP2 LT PUSH2 0x6BC JUMPI PUSH1 0x0 DUP1 REVERT JUMPDEST SWAP1 PUSH1 0x0 MSTORE PUSH1 0x20 PUSH1 0x0 KECCAK256 ADD PUSH1 0x0 SWAP2 POP SLOAD SWAP1 PUSH2 0x100 EXP SWAP1 DIV PUSH20 0xFFFFFFFFFFFFFFFFFFFFFFFFFFFFFFFFFFFFFFFF AND DUP2 JUMP JUMPDEST PUSH1 0x0 DUP1 SLOAD SWAP1 PUSH2 0x100 EXP SWAP1 DIV PUSH20 0xFFFFFFFFFFFFFFFFFFFFFFFFFFFFFFFFFFFFFFFF AND PUSH20 0xFFFFFFFFFFFFFFFFFFFFFFFFFFFFFFFFFFFFFFFF AND CALLER PUSH20 0xFFFFFFFFFFFFFFFFFFFFFFFFFFFFFFFFFFFFFFFF AND EQ PUSH2 0x779 JUMPI PUSH1 0x40 MLOAD PUSH32 0x8C379A000000000000000000000000000000000000000000000000000000000 DUP2 MSTORE PUSH1 0x4 ADD PUSH2 0x770 SWAP1 PUSH2 0xFE5 JUMP JUMPDEST PUSH1 0x40 MLOAD DUP1 SWAP2 SUB SWAP1 REVERT JUMPDEST DUP2 DUP2 PUSH1 0x6 SWAP2 SWAP1 PUSH2 0x78A SWAP3 SWAP2 SWAP1 PUSH2 0xAFA JUMP JUMPDEST POP POP POP JUMP JUMPDEST PUSH1 0x0 DUP1 SLOAD SWAP1 PUSH2 0x100 EXP SWAP1 DIV PUSH20 0xFFFFFFFFFFFFFFFFFFFFFFFFFFFFFFFFFFFFFFFF AND PUSH20 0xFFFFFFFFFFFFFFFFFFFFFFFFFFFFFFFFFFFFFFFF AND CALLER PUSH20 0xFFFFFFFFFFFFFFFFFFFFFFFFFFFFFFFFFFFFFFFF AND EQ PUSH2 0x81D JUMPI PUSH1 0x40 MLOAD PUSH32 0x8C379A000000000000000000000000000000000000000000000000000000000 DUP2 MSTORE PUSH1 0x4 ADD PUSH2 0x814 SWAP1 PUSH2 0xFE5 JUMP JUMPDEST PUSH1 0x40 MLOAD DUP1 SWAP2 SUB SWAP1 REVERT JUMPDEST DUP1 PUSH1 0x0 PUSH1 0x14 PUSH2 0x100 EXP DUP2 SLOAD DUP2 PUSH1 0xFF MUL NOT AND SWAP1 DUP4 ISZERO ISZERO MUL OR SWAP1 SSTORE POP POP JUMP JUMPDEST PUSH1 0x0 DUP1 SLOAD SWAP1 PUSH2 0x100 EXP SWAP1 DIV PUSH20 0xFFFFFFFFFFFFFFFFFFFFFFFFFFFFFFFFFFFFFFFF AND DUP2 JUMP JUMPDEST PUSH1 0x0 DUP1 SLOAD SWAP1 PUSH2 0x100 EXP SWAP1 DIV PUSH20 0xFFFFFFFFFFFFFFFFFFFFFFFFFFFFFFFFFFFFFFFF AND PUSH20 0xFFFFFFFFFFFFFFFFFFFFFFFFFFFFFFFFFFFFFFFF AND CALLER PUSH20 0xFFFFFFFFFFFFFFFFFFFFFFFFFFFFFFFFFFFFFFFF AND EQ PUSH2 0x8EC JUMPI PUSH1 0x40 MLOAD PUSH32 0x8C379A000000000000000000000000000000000000000000000000000000000 DUP2 MSTORE PUSH1 0x4 ADD PUSH2 0x8E3 SWAP1 PUSH2 0xFE5 JUMP JUMPDEST PUSH1 0x40 MLOAD DUP1 SWAP2 SUB SWAP1 REVERT JUMPDEST DUP2 DUP2 PUSH1 0x1 SWAP2 DUP3 PUSH2 0x8FD SWAP3 SWAP2 SWAP1 PUSH2 0x124B JUMP JUMPDEST POP POP POP JUMP JUMPDEST PUSH1 0x3 PUSH1 0x20 MSTORE DUP1 PUSH1 0x0 MSTORE PUSH1 0x40 PUSH1 0x0 KECCAK256 PUSH1 0x0 SWAP2 POP SLOAD SWAP1 PUSH2 0x100 EXP SWAP1 DIV PUSH1 0xFF AND DUP2 JUMP JUMPDEST PUSH1 0x4 PUSH1 0x20 MSTORE DUP1 PUSH1 0x0 MSTORE PUSH1 0x40 PUSH1 0x0 KECCAK256 PUSH1 0x0 SWAP2 POP SWAP1 POP SLOAD DUP2 JUMP JUMPDEST PUSH1 0x0 DUP1 SLOAD SWAP1 PUSH2 0x100 EXP SWAP1 DIV PUSH20 0xFFFFFFFFFFFFFFFFFFFFFFFFFFFFFFFFFFFFFFFF AND PUSH20 0xFFFFFFFFFFFFFFFFFFFFFFFFFFFFFFFFFFFFFFFF AND CALLER PUSH20 0xFFFFFFFFFFFFFFFFFFFFFFFFFFFFFFFFFFFFFFFF AND EQ PUSH2 0x9C8 JUMPI PUSH1 0x40 MLOAD PUSH32 0x8C379A000000000000000000000000000000000000000000000000000000000 DUP2 MSTORE PUSH1 0x4 ADD PUSH2 0x9BF SWAP1 PUSH2 0xFE5 JUMP JUMPDEST PUSH1 0x40 MLOAD DUP1 SWAP2 SUB SWAP1 REVERT JUMPDEST DUP2 DUP2 PUSH1 0x6 SWAP2 SWAP1 PUSH2 0x9D9 SWAP3 SWAP2 SWAP1 PUSH2 0xAFA JUMP JUMPDEST POP POP POP JUMP JUMPDEST PUSH1 0x7 DUP2 DUP2 SLOAD DUP2 LT PUSH2 0x9EE JUMPI PUSH1 0x0 DUP1 REVERT JUMPDEST SWAP1 PUSH1 0x0 MSTORE PUSH1 0x20 PUSH1 0x0 KECCAK256 ADD PUSH1 0x0 SWAP2 POP SLOAD SWAP1 PUSH2 0x100 EXP SWAP1 DIV PUSH20 0xFFFFFFFFFFFFFFFFFFFFFFFFFFFFFFFFFFFFFFFF AND DUP2 JUMP JUMPDEST PUSH1 0x0 DUP1 SLOAD SWAP1 PUSH2 0x100 EXP SWAP1 DIV PUSH20 0xFFFFFFFFFFFFFFFFFFFFFFFFFFFFFFFFFFFFFFFF AND PUSH20 0xFFFFFFFFFFFFFFFFFFFFFFFFFFFFFFFFFFFFFFFF AND CALLER PUSH20 0xFFFFFFFFFFFFFFFFFFFFFFFFFFFFFFFFFFFFFFFF AND EQ PUSH2 0xAAB JUMPI PUSH1 0x40 MLOAD PUSH32 0x8C379A000000000000000000000000000000000000000000000000000000000 DUP2 MSTORE PUSH1 0x4 ADD PUSH2 0xAA2 SWAP1 PUSH2 0xFE5 JUMP JUMPDEST PUSH1 0x40 MLOAD DUP1 SWAP2 SUB SWAP1 REVERT JUMPDEST DUP2 DUP2 PUSH1 0x6 SWAP2 SWAP1 PUSH2 0xABC SWAP3 SWAP2 SWAP1 PUSH2 0xAFA JUMP JUMPDEST POP POP POP JUMP JUMPDEST PUSH1 0x9 SLOAD DUP2 JUMP JUMPDEST PUSH1 0x2 PUSH1 0x20 MSTORE DUP1 PUSH1 0x0 MSTORE PUSH1 0x40 PUSH1 0x0 KECCAK256 PUSH1 0x0 SWAP2 POP SLOAD SWAP1 PUSH2 0x100 EXP SWAP1 DIV PUSH1 0xFF AND DUP2 JUMP JUMPDEST PUSH1 0x0 PUSH1 0x14 SWAP1 SLOAD SWAP1 PUSH2 0x100 EXP SWAP1 DIV PUSH1 0xFF AND DUP2 JUMP JUMPDEST DUP3 DUP1 SLOAD DUP3 DUP3 SSTORE SWAP1 PUSH1 0x0 MSTORE PUSH1 0x20 PUSH1 0x0 KECCAK256 SWAP1 DUP2 ADD SWAP3 DUP3 ISZERO PUSH2 0xB89 JUMPI SWAP2 PUSH1 0x20 MUL DUP3 ADD JUMPDEST DUP3 DUP2 GT ISZERO PUSH2 0xB88 JUMPI DUP3 CALLDATALOAD PUSH20 0xFFFFFFFFFFFFFFFFFFFFFFFFFFFFFFFFFFFFFFFF AND DUP3 PUSH1 0x0 PUSH2 0x100 EXP DUP2 SLOAD DUP2 PUSH20 0xFFFFFFFFFFFFFFFFFFFFFFFFFFFFFFFFFFFFFFFF MUL NOT AND SWAP1 DUP4 PUSH20 0xFFFFFFFFFFFFFFFFFFFFFFFFFFFFFFFFFFFFFFFF AND MUL OR SWAP1 SSTORE POP SWAP2 PUSH1 0x20 ADD SWAP2 SWAP1 PUSH1 0x1 ADD SWAP1 PUSH2 0xB1A JUMP JUMPDEST JUMPDEST POP SWAP1 POP PUSH2 0xB96 SWAP2 SWAP1 PUSH2 0xB9A JUMP JUMPDEST POP SWAP1 JUMP JUMPDEST JUMPDEST DUP1 DUP3 GT ISZERO PUSH2 0xBB3 JUMPI PUSH1 0x0 DUP2 PUSH1 0x0 SWAP1 SSTORE POP PUSH1 0x1 ADD PUSH2 0xB9B JUMP JUMPDEST POP SWAP1 JUMP JUMPDEST PUSH1 0x0 DUP1 REVERT JUMPDEST PUSH1 0x0 DUP1 REVERT JUMPDEST PUSH1 0x0 DUP2 SWAP1 POP SWAP2 SWAP1 POP JUMP JUMPDEST PUSH2 0xBD4 DUP2 PUSH2 0xBC1 JUMP JUMPDEST DUP2 EQ PUSH2 0xBDF JUMPI PUSH1 0x0 DUP1 REVERT JUMPDEST POP JUMP JUMPDEST PUSH1 0x0 DUP2 CALLDATALOAD SWAP1 POP PUSH2 0xBF1 DUP2 PUSH2 0xBCB JUMP JUMPDEST SWAP3 SWAP2 POP POP JUMP JUMPDEST PUSH1 0x0 PUSH1 0x20 DUP3 DUP5 SUB SLT ISZERO PUSH2 0xC0D JUMPI PUSH2 0xC0C PUSH2 0xBB7 JUMP JUMPDEST JUMPDEST PUSH1 0x0 PUSH2 0xC1B DUP5 DUP3 DUP6 ADD PUSH2 0xBE2 JUMP JUMPDEST SWAP2 POP POP SWAP3 SWAP2 POP POP JUMP JUMPDEST PUSH2 0xC2D DUP2 PUSH2 0xBC1 JUMP JUMPDEST DUP3 MSTORE POP POP JUMP JUMPDEST PUSH1 0x0 PUSH1 0x20 DUP3 ADD SWAP1 POP PUSH2 0xC48 PUSH1 0x0 DUP4 ADD DUP5 PUSH2 0xC24 JUMP JUMPDEST SWAP3 SWAP2 POP POP JUMP JUMPDEST PUSH1 0x0 DUP2 MLOAD SWAP1 POP SWAP2 SWAP1 POP JUMP JUMPDEST PUSH1 0x0 DUP3 DUP3 MSTORE PUSH1 0x20 DUP3 ADD SWAP1 POP SWAP3 SWAP2 POP POP JUMP JUMPDEST PUSH1 0x0 JUMPDEST DUP4 DUP2 LT ISZERO PUSH2 0xC88 JUMPI DUP1 DUP3 ADD MLOAD DUP2 DUP5 ADD MSTORE PUSH1 0x20 DUP2 ADD SWAP1 POP PUSH2 0xC6D JUMP JUMPDEST PUSH1 0x0 DUP5 DUP5 ADD MSTORE POP POP POP POP JUMP JUMPDEST PUSH1 0x0 PUSH1 0x1F NOT PUSH1 0x1F DUP4 ADD AND SWAP1 POP SWAP2 SWAP1 POP JUMP JUMPDEST PUSH1 0x0 PUSH2 0xCB0 DUP3 PUSH2 0xC4E JUMP JUMPDEST PUSH2 0xCBA DUP2 DUP6 PUSH2 0xC59 JUMP JUMPDEST SWAP4 POP PUSH2 0xCCA DUP2 DUP6 PUSH1 0x20 DUP7 ADD PUSH2 0xC6A JUMP JUMPDEST PUSH2 0xCD3 DUP2 PUSH2 0xC94 JUMP JUMPDEST DUP5 ADD SWAP2 POP POP SWAP3 SWAP2 POP POP JUMP JUMPDEST PUSH1 0x0 PUSH1 0x20 DUP3 ADD SWAP1 POP DUP2 DUP2 SUB PUSH1 0x0 DUP4 ADD MSTORE PUSH2 0xCF8 DUP2 DUP5 PUSH2 0xCA5 JUMP JUMPDEST SWAP1 POP SWAP3 SWAP2 POP POP JUMP JUMPDEST PUSH1 0x0 PUSH20 0xFFFFFFFFFFFFFFFFFFFFFFFFFFFFFFFFFFFFFFFF DUP3 AND SWAP1 POP SWAP2 SWAP1 POP JUMP JUMPDEST PUSH1 0x0 PUSH2 0xD2B DUP3 PUSH2 0xD00 JUMP JUMPDEST SWAP1 POP SWAP2 SWAP1 POP JUMP JUMPDEST PUSH2 0xD3B DUP2 PUSH2 0xD20 JUMP JUMPDEST DUP2 EQ PUSH2 0xD46 JUMPI PUSH1 0x0 DUP1 REVERT JUMPDEST POP JUMP JUMPDEST PUSH1 0x0 DUP2 CALLDATALOAD SWAP1 POP PUSH2 0xD58 DUP2 PUSH2 0xD32 JUMP JUMPDEST SWAP3 SWAP2 POP POP JUMP JUMPDEST PUSH1 0x0 PUSH1 0x20 DUP3 DUP5 SUB SLT ISZERO PUSH2 0xD74 JUMPI PUSH2 0xD73 PUSH2 0xBB7 JUMP JUMPDEST JUMPDEST PUSH1 0x0 PUSH2 0xD82 DUP5 DUP3 DUP6 ADD PUSH2 0xD49 JUMP JUMPDEST SWAP2 POP POP SWAP3 SWAP2 POP POP JUMP JUMPDEST PUSH2 0xD94 DUP2 PUSH2 0xD20 JUMP JUMPDEST DUP3 MSTORE POP POP JUMP JUMPDEST PUSH1 0x0 PUSH1 0x20 DUP3 ADD SWAP1 POP PUSH2 0xDAF PUSH1 0x0 DUP4 ADD DUP5 PUSH2 0xD8B JUMP JUMPDEST SWAP3 SWAP2 POP POP JUMP JUMPDEST PUSH1 0x0 DUP1 REVERT JUMPDEST PUSH1 0x0 DUP1 REVERT JUMPDEST PUSH1 0x0 DUP1 REVERT JUMPDEST PUSH1 0x0 DUP1 DUP4 PUSH1 0x1F DUP5 ADD SLT PUSH2 0xDDA JUMPI PUSH2 0xDD9 PUSH2 0xDB5 JUMP JUMPDEST JUMPDEST DUP3 CALLDATALOAD SWAP1 POP PUSH8 0xFFFFFFFFFFFFFFFF DUP2 GT ISZERO PUSH2 0xDF7 JUMPI PUSH2 0xDF6 PUSH2 0xDBA JUMP JUMPDEST JUMPDEST PUSH1 0x20 DUP4 ADD SWAP2 POP DUP4 PUSH1 0x20 DUP3 MUL DUP4 ADD GT ISZERO PUSH2 0xE13 JUMPI PUSH2 0xE12 PUSH2 0xDBF JUMP JUMPDEST JUMPDEST SWAP3 POP SWAP3 SWAP1 POP JUMP JUMPDEST PUSH1 0x0 DUP1 PUSH1 0x20 DUP4 DUP6 SUB SLT ISZERO PUSH2 0xE31 JUMPI PUSH2 0xE30 PUSH2 0xBB7 JUMP JUMPDEST JUMPDEST PUSH1 0x0 DUP4 ADD CALLDATALOAD PUSH8 0xFFFFFFFFFFFFFFFF DUP2 GT ISZERO PUSH2 0xE4F JUMPI PUSH2 0xE4E PUSH2 0xBBC JUMP JUMPDEST JUMPDEST PUSH2 0xE5B DUP6 DUP3 DUP7 ADD PUSH2 0xDC4 JUMP JUMPDEST SWAP3 POP SWAP3 POP POP SWAP3 POP SWAP3 SWAP1 POP JUMP JUMPDEST PUSH1 0x0 DUP2 ISZERO ISZERO SWAP1 POP SWAP2 SWAP1 POP JUMP JUMPDEST PUSH2 0xE7C DUP2 PUSH2 0xE67 JUMP JUMPDEST DUP2 EQ PUSH2 0xE87 JUMPI PUSH1 0x0 DUP1 REVERT JUMPDEST POP JUMP JUMPDEST PUSH1 0x0 DUP2 CALLDATALOAD SWAP1 POP PUSH2 0xE99 DUP2 PUSH2 0xE73 JUMP JUMPDEST SWAP3 SWAP2 POP POP JUMP JUMPDEST PUSH1 0x0 PUSH1 0x20 DUP3 DUP5 SUB SLT ISZERO PUSH2 0xEB5 JUMPI PUSH2 0xEB4 PUSH2 0xBB7 JUMP JUMPDEST JUMPDEST PUSH1 0x0 PUSH2 0xEC3 DUP5 DUP3 DUP6 ADD PUSH2 0xE8A JUMP JUMPDEST SWAP2 POP POP SWAP3 SWAP2 POP POP JUMP JUMPDEST PUSH1 0x0 DUP1 DUP4 PUSH1 0x1F DUP5 ADD SLT PUSH2 0xEE2 JUMPI PUSH2 0xEE1 PUSH2 0xDB5 JUMP JUMPDEST JUMPDEST DUP3 CALLDATALOAD SWAP1 POP PUSH8 0xFFFFFFFFFFFFFFFF DUP2 GT ISZERO PUSH2 0xEFF JUMPI PUSH2 0xEFE PUSH2 0xDBA JUMP JUMPDEST JUMPDEST PUSH1 0x20 DUP4 ADD SWAP2 POP DUP4 PUSH1 0x1 DUP3 MUL DUP4 ADD GT ISZERO PUSH2 0xF1B JUMPI PUSH2 0xF1A PUSH2 0xDBF JUMP JUMPDEST JUMPDEST SWAP3 POP SWAP3 SWAP1 POP JUMP JUMPDEST PUSH1 0x0 DUP1 PUSH1 0x20 DUP4 DUP6 SUB SLT ISZERO PUSH2 0xF39 JUMPI PUSH2 0xF38 PUSH2 0xBB7 JUMP JUMPDEST JUMPDEST PUSH1 0x0 DUP4 ADD CALLDATALOAD PUSH8 0xFFFFFFFFFFFFFFFF DUP2 GT ISZERO PUSH2 0xF57 JUMPI PUSH2 0xF56 PUSH2 0xBBC JUMP JUMPDEST JUMPDEST PUSH2 0xF63 DUP6 DUP3 DUP7 ADD PUSH2 0xECC JUMP JUMPDEST SWAP3 POP SWAP3 POP POP SWAP3 POP SWAP3 SWAP1 POP JUMP JUMPDEST PUSH2 0xF78 DUP2 PUSH2 0xE67 JUMP JUMPDEST DUP3 MSTORE POP POP JUMP JUMPDEST PUSH1 0x0 PUSH1 0x20 DUP3 ADD SWAP1 POP PUSH2 0xF93 PUSH1 0x0 DUP4 ADD DUP5 PUSH2 0xF6F JUMP JUMPDEST SWAP3 SWAP2 POP POP JUMP JUMPDEST PUSH32 0x63616C6C6572206D757374206265206F776E6572000000000000000000000000 PUSH1 0x0 DUP3 ADD MSTORE POP JUMP JUMPDEST PUSH1 0x0 PUSH2 0xFCF PUSH1 0x14 DUP4 PUSH2 0xC59 JUMP JUMPDEST SWAP2 POP PUSH2 0xFDA DUP3 PUSH2 0xF99 JUMP JUMPDEST PUSH1 0x20 DUP3 ADD SWAP1 POP SWAP2 SWAP1 POP JUMP JUMPDEST PUSH1 0x0 PUSH1 0x20 DUP3 ADD SWAP1 POP DUP2 DUP2 SUB PUSH1 0x0 DUP4 ADD MSTORE PUSH2 0xFFE DUP2 PUSH2 0xFC2 JUMP JUMPDEST SWAP1 POP SWAP2 SWAP1 POP JUMP JUMPDEST PUSH32 0x4E487B7100000000000000000000000000000000000000000000000000000000 PUSH1 0x0 MSTORE PUSH1 0x22 PUSH1 0x4 MSTORE PUSH1 0x24 PUSH1 0x0 REVERT JUMPDEST PUSH1 0x0 PUSH1 0x2 DUP3 DIV SWAP1 POP PUSH1 0x1 DUP3 AND DUP1 PUSH2 0x104C JUMPI PUSH1 0x7F DUP3 AND SWAP2 POP JUMPDEST PUSH1 0x20 DUP3 LT DUP2 SUB PUSH2 0x105F JUMPI PUSH2 0x105E PUSH2 0x1005 JUMP JUMPDEST JUMPDEST POP SWAP2 SWAP1 POP JUMP JUMPDEST PUSH1 0x0 DUP3 SWAP1 POP SWAP3 SWAP2 POP POP JUMP JUMPDEST PUSH32 0x4E487B7100000000000000000000000000000000000000000000000000000000 PUSH1 0x0 MSTORE PUSH1 0x41 PUSH1 0x4 MSTORE PUSH1 0x24 PUSH1 0x0 REVERT JUMPDEST PUSH1 0x0 DUP2 SWAP1 POP DUP2 PUSH1 0x0 MSTORE PUSH1 0x20 PUSH1 0x0 KECCAK256 SWAP1 POP SWAP2 SWAP1 POP JUMP JUMPDEST PUSH1 0x0 PUSH1 0x20 PUSH1 0x1F DUP4 ADD DIV SWAP1 POP SWAP2 SWAP1 POP JUMP JUMPDEST PUSH1 0x0 DUP3 DUP3 SHL SWAP1 POP SWAP3 SWAP2 POP POP JUMP JUMPDEST PUSH1 0x0 PUSH1 0x8 DUP4 MUL PUSH2 0x1101 PUSH32 0xFFFFFFFFFFFFFFFFFFFFFFFFFFFFFFFFFFFFFFFFFFFFFFFFFFFFFFFFFFFFFFFF DUP3 PUSH2 0x10C4 JUMP JUMPDEST PUSH2 0x110B DUP7 DUP4 PUSH2 0x10C4 JUMP JUMPDEST SWAP6 POP DUP1 NOT DUP5 AND SWAP4 POP DUP1 DUP7 AND DUP5 OR SWAP3 POP POP POP SWAP4 SWAP3 POP POP POP JUMP JUMPDEST PUSH1 0x0 DUP2 SWAP1 POP SWAP2 SWAP1 POP JUMP JUMPDEST PUSH1 0x0 PUSH2 0x1148 PUSH2 0x1143 PUSH2 0x113E DUP5 PUSH2 0xBC1 JUMP JUMPDEST PUSH2 0x1123 JUMP JUMPDEST PUSH2 0xBC1 JUMP JUMPDEST SWAP1 POP SWAP2 SWAP1 POP JUMP JUMPDEST PUSH1 0x0 DUP2 SWAP1 POP SWAP2 SWAP1 POP JUMP JUMPDEST PUSH2 0x1162 DUP4 PUSH2 0x112D JUMP JUMPDEST PUSH2 0x1176 PUSH2 0x116E DUP3 PUSH2 0x114F JUMP JUMPDEST DUP5 DUP5 SLOAD PUSH2 0x10D1 JUMP JUMPDEST DUP3 SSTORE POP POP POP POP JUMP JUMPDEST PUSH1 0x0 SWAP1 JUMP JUMPDEST PUSH2 0x118B PUSH2 0x117E JUMP JUMPDEST PUSH2 0x1196 DUP2 DUP5 DUP5 PUSH2 0x1159 JUMP JUMPDEST POP POP POP JUMP JUMPDEST JUMPDEST DUP2 DUP2 LT ISZERO PUSH2 0x11BA JUMPI PUSH2 0x11AF PUSH1 0x0 DUP3 PUSH2 0x1183 JUMP JUMPDEST PUSH1 0x1 DUP2 ADD SWAP1 POP PUSH2 0x119C JUMP JUMPDEST POP POP JUMP JUMPDEST PUSH1 0x1F DUP3 GT ISZERO PUSH2 0x11FF JUMPI PUSH2 0x11D0 DUP2 PUSH2 0x109F JUMP JUMPDEST PUSH2 0x11D9 DUP5 PUSH2 0x10B4 JUMP JUMPDEST DUP2 ADD PUSH1 0x20 DUP6 LT ISZERO PUSH2 0x11E8 JUMPI DUP2 SWAP1 POP JUMPDEST PUSH2 0x11FC PUSH2 0x11F4 DUP6 PUSH2 0x10B4 JUMP JUMPDEST DUP4 ADD DUP3 PUSH2 0x119B JUMP JUMPDEST POP POP JUMPDEST POP POP POP JUMP JUMPDEST PUSH1 0x0 DUP3 DUP3 SHR SWAP1 POP SWAP3 SWAP2 POP POP JUMP JUMPDEST PUSH1 0x0 PUSH2 0x1222 PUSH1 0x0 NOT DUP5 PUSH1 0x8 MUL PUSH2 0x1204 JUMP JUMPDEST NOT DUP1 DUP4 AND SWAP2 POP POP SWAP3 SWAP2 POP POP JUMP JUMPDEST PUSH1 0x0 PUSH2 0x123B DUP4 DUP4 PUSH2 0x1211 JUMP JUMPDEST SWAP2 POP DUP3 PUSH1 0x2 MUL DUP3 OR SWAP1 POP SWAP3 SWAP2 POP POP JUMP JUMPDEST PUSH2 0x1255 DUP4 DUP4 PUSH2 0x1065 JUMP JUMPDEST PUSH8 0xFFFFFFFFFFFFFFFF DUP2 GT ISZERO PUSH2 0x126E JUMPI PUSH2 0x126D PUSH2 0x1070 JUMP JUMPDEST JUMPDEST PUSH2 0x1278 DUP3 SLOAD PUSH2 0x1034 JUMP JUMPDEST PUSH2 0x1283 DUP3 DUP3 DUP6 PUSH2 0x11BE JUMP JUMPDEST PUSH1 0x0 PUSH1 0x1F DUP4 GT PUSH1 0x1 DUP2 EQ PUSH2 0x12B2 JUMPI PUSH1 0x0 DUP5 ISZERO PUSH2 0x12A0 JUMPI DUP3 DUP8 ADD CALLDATALOAD SWAP1 POP JUMPDEST PUSH2 0x12AA DUP6 DUP3 PUSH2 0x122F JUMP JUMPDEST DUP7 SSTORE POP PUSH2 0x1312 JUMP JUMPDEST PUSH1 0x1F NOT DUP5 AND PUSH2 0x12C0 DUP7 PUSH2 0x109F JUMP JUMPDEST PUSH1 0x0 JUMPDEST DUP3 DUP2 LT ISZERO PUSH2 0x12E8 JUMPI DUP5 DUP10 ADD CALLDATALOAD DUP3 SSTORE PUSH1 0x1 DUP3 ADD SWAP2 POP PUSH1 0x20 DUP6 ADD SWAP5 POP PUSH1 0x20 DUP2 ADD SWAP1 POP PUSH2 0x12C3 JUMP JUMPDEST DUP7 DUP4 LT ISZERO PUSH2 0x1305 JUMPI DUP5 DUP10 ADD CALLDATALOAD PUSH2 0x1301 PUSH1 0x1F DUP10 AND DUP3 PUSH2 0x1211 JUMP JUMPDEST DUP4 SSTORE POP JUMPDEST PUSH1 0x1 PUSH1 0x2 DUP9 MUL ADD DUP9 SSTORE POP POP POP JUMPDEST POP POP POP POP POP POP POP JUMP INVALID LOG2 PUSH5 0x6970667358 0x22 SLT KECCAK256 MULMOD PUSH10 0x6983BF59E133B48769FA 0xCD PUSH29 0xE63AF6D84D865415A2D871ACF9C1D57A728064736F6C63430008120033 "
				},
				"gasEstimates": {
					"creation": {
						"codeDepositCost": "989000",
						"executionCost": "25293",
						"totalCost": "1014293"
					},
					"external": {
						"ChangeOwnership(address)": "26912",
						"Set_CarbonFootPrint(uint256)": "24711",
						"Set_IsValue(bool)": "27007",
						"Set_LabelIds(address[])": "infinite",
						"Set_Name(string)": "infinite",
						"Set_PredecessorIds(address[])": "infinite",
						"Set_SuccessorIds(address[])": "infinite",
						"carbonFootprint()": "2495",
						"isValue()": "2631",
						"labelIds(uint256)": "5023",
						"name()": "infinite",
						"owner()": "2534",
						"predecessorIdIsHandshakeCandidate(address)": "2912",
						"predecessorIdToArrayIndex(uint256)": "infinite",
						"predecessorIds(uint256)": "4978",
						"successorIdIsHandshakeCandidate(address)": "2933",
						"successorIdToArrayIndex(uint256)": "infinite",
						"successorIds(uint256)": "5001",
						"swarm_storage_address()": "infinite"
					}
				},
				"methodIdentifiers": {
					"ChangeOwnership(address)": "244ded7a",
					"Set_CarbonFootPrint(uint256)": "04a3f393",
					"Set_IsValue(bool)": "78fb654a",
					"Set_LabelIds(address[])": "5789726a",
					"Set_Name(string)": "9155e45b",
					"Set_PredecessorIds(address[])": "c28388fa",
					"Set_SuccessorIds(address[])": "a022be05",
					"carbonFootprint()": "d7a1ab3c",
					"isValue()": "f2940a43",
					"labelIds(uint256)": "2b6952e6",
					"name()": "06fdde03",
					"owner()": "8da5cb5b",
					"predecessorIdIsHandshakeCandidate(address)": "9f285f06",
					"predecessorIdToArrayIndex(uint256)": "06079551",
					"predecessorIds(uint256)": "c1f4f855",
					"successorIdIsHandshakeCandidate(address)": "e6e210ba",
					"successorIdToArrayIndex(uint256)": "9f79e280",
					"successorIds(uint256)": "27757d40",
					"swarm_storage_address()": "0b940f6a"
				}
			},
			"storageLayout": {
				"storage": [
					{
						"astId": 3,
						"contract": "contracts/Product.sol:Product",
						"label": "owner",
						"offset": 0,
						"slot": "0",
						"type": "t_address"
					},
					{
						"astId": 44,
						"contract": "contracts/Product.sol:Product",
						"label": "isValue",
						"offset": 20,
						"slot": "0",
						"type": "t_bool"
					},
					{
						"astId": 46,
						"contract": "contracts/Product.sol:Product",
						"label": "name",
						"offset": 0,
						"slot": "1",
						"type": "t_string_storage"
					},
					{
						"astId": 50,
						"contract": "contracts/Product.sol:Product",
						"label": "successorIdIsHandshakeCandidate",
						"offset": 0,
						"slot": "2",
						"type": "t_mapping(t_address,t_bool)"
					},
					{
						"astId": 54,
						"contract": "contracts/Product.sol:Product",
						"label": "predecessorIdIsHandshakeCandidate",
						"offset": 0,
						"slot": "3",
						"type": "t_mapping(t_address,t_bool)"
					},
					{
						"astId": 58,
						"contract": "contracts/Product.sol:Product",
						"label": "successorIdToArrayIndex",
						"offset": 0,
						"slot": "4",
						"type": "t_mapping(t_uint256,t_uint256)"
					},
					{
						"astId": 62,
						"contract": "contracts/Product.sol:Product",
						"label": "predecessorIdToArrayIndex",
						"offset": 0,
						"slot": "5",
						"type": "t_mapping(t_uint256,t_uint256)"
					},
					{
						"astId": 65,
						"contract": "contracts/Product.sol:Product",
						"label": "successorIds",
						"offset": 0,
						"slot": "6",
						"type": "t_array(t_address)dyn_storage"
					},
					{
						"astId": 68,
						"contract": "contracts/Product.sol:Product",
						"label": "predecessorIds",
						"offset": 0,
						"slot": "7",
						"type": "t_array(t_address)dyn_storage"
					},
					{
						"astId": 71,
						"contract": "contracts/Product.sol:Product",
						"label": "labelIds",
						"offset": 0,
						"slot": "8",
						"type": "t_array(t_address)dyn_storage"
					},
					{
						"astId": 73,
						"contract": "contracts/Product.sol:Product",
						"label": "carbonFootprint",
						"offset": 0,
						"slot": "9",
						"type": "t_uint256"
					},
					{
						"astId": 75,
						"contract": "contracts/Product.sol:Product",
						"label": "swarm_storage_address",
						"offset": 0,
						"slot": "10",
						"type": "t_string_storage"
					}
				],
				"types": {
					"t_address": {
						"encoding": "inplace",
						"label": "address",
						"numberOfBytes": "20"
					},
					"t_array(t_address)dyn_storage": {
						"base": "t_address",
						"encoding": "dynamic_array",
						"label": "address[]",
						"numberOfBytes": "32"
					},
					"t_bool": {
						"encoding": "inplace",
						"label": "bool",
						"numberOfBytes": "1"
					},
					"t_mapping(t_address,t_bool)": {
						"encoding": "mapping",
						"key": "t_address",
						"label": "mapping(address => bool)",
						"numberOfBytes": "32",
						"value": "t_bool"
					},
					"t_mapping(t_uint256,t_uint256)": {
						"encoding": "mapping",
						"key": "t_uint256",
						"label": "mapping(uint256 => uint256)",
						"numberOfBytes": "32",
						"value": "t_uint256"
					},
					"t_string_storage": {
						"encoding": "bytes",
						"label": "string",
						"numberOfBytes": "32"
					},
					"t_uint256": {
						"encoding": "inplace",
						"label": "uint256",
						"numberOfBytes": "32"
					}
				}
			},
			"userdoc": {
				"kind": "user",
				"methods": {},
				"version": 1
			}
		}
	}
}